{
  "_format": "hh-sol-artifact-1",
  "contractName": "ProviderRegistry",
  "sourceName": "contracts/ProviderRegistry.sol",
  "abi": [
    {
      "anonymous": false,
      "inputs": [
        {
          "indexed": true,
          "internalType": "address",
          "name": "provider",
          "type": "address"
        }
      ],
      "name": "AddProvider",
      "type": "event"
    },
    {
      "anonymous": false,
      "inputs": [
        {
          "indexed": true,
          "internalType": "address",
          "name": "provider",
          "type": "address"
        }
      ],
      "name": "RemoveProvider",
      "type": "event"
    },
    {
      "inputs": [
        {
          "internalType": "address",
          "name": "provider",
          "type": "address"
        }
      ],
      "name": "addProvider",
      "outputs": [],
      "stateMutability": "nonpayable",
      "type": "function"
    },
    {
      "inputs": [],
      "name": "listProviders",
      "outputs": [
        {
          "internalType": "address[]",
          "name": "",
          "type": "address[]"
        }
      ],
      "stateMutability": "view",
      "type": "function"
    },
    {
      "inputs": [],
      "name": "owner",
      "outputs": [
        {
          "internalType": "address",
          "name": "",
          "type": "address"
        }
      ],
      "stateMutability": "view",
      "type": "function"
    },
    {
      "inputs": [
        {
          "internalType": "uint256",
          "name": "",
          "type": "uint256"
        }
      ],
      "name": "providers",
      "outputs": [
        {
          "internalType": "address",
          "name": "",
          "type": "address"
        }
      ],
      "stateMutability": "view",
      "type": "function"
    },
    {
      "inputs": [
        {
          "internalType": "address",
          "name": "provider",
          "type": "address"
        }
      ],
      "name": "removeProvider",
      "outputs": [],
      "stateMutability": "nonpayable",
      "type": "function"
    }
  ],
  "bytecode": "0x608060405233600160006101000a81548173ffffffffffffffffffffffffffffffffffffffff021916908373ffffffffffffffffffffffffffffffffffffffff16021790555034801561005157600080fd5b50610ae9806100616000396000f3fe608060405234801561001057600080fd5b50600436106100575760003560e01c80632bd395a01461005c57806346e2577a1461007a57806350f3fc81146100965780638a355a57146100c65780638da5cb5b146100e2575b600080fd5b610064610100565b6040516100719190610892565b60405180910390f35b610094600480360381019061008f919061076e565b61027c565b005b6100b060048036038101906100ab9190610797565b6103b5565b6040516100bd9190610877565b60405180910390f35b6100e060048036038101906100db919061076e565b6103f4565b005b6100ea61071e565b6040516100f79190610877565b60405180910390f35b60606000808054905067ffffffffffffffff811115610148577f4e487b7100000000000000000000000000000000000000000000000000000000600052604160045260246000fd5b6040519080825280602002602001820160405280156101765781602001602082028036833780820191505090505b50905060005b60008054905081101561027457600081815481106101c3577f4e487b7100000000000000000000000000000000000000000000000000000000600052603260045260246000fd5b9060005260206000200160009054906101000a900473ffffffffffffffffffffffffffffffffffffffff16828281518110610227577f4e487b7100000000000000000000000000000000000000000000000000000000600052603260045260246000fd5b602002602001019073ffffffffffffffffffffffffffffffffffffffff16908173ffffffffffffffffffffffffffffffffffffffff1681525050808061026c906109e4565b91505061017c565b508091505090565b600160009054906101000a900473ffffffffffffffffffffffffffffffffffffffff1673ffffffffffffffffffffffffffffffffffffffff163373ffffffffffffffffffffffffffffffffffffffff161461030c576040517f08c379a0000000000000000000000000000000000000000000000000000000008152600401610303906108b4565b60405180910390fd5b6000819080600181540180825580915050600190039060005260206000200160009091909190916101000a81548173ffffffffffffffffffffffffffffffffffffffff021916908373ffffffffffffffffffffffffffffffffffffffff1602179055508073ffffffffffffffffffffffffffffffffffffffff167f635a554d7028e977037c71e4fefb0d02f19e160c13f01f813a18d362b4605c6d60405160405180910390a250565b600081815481106103c557600080fd5b906000526020600020016000915054906101000a900473ffffffffffffffffffffffffffffffffffffffff1681565b600160009054906101000a900473ffffffffffffffffffffffffffffffffffffffff1673ffffffffffffffffffffffffffffffffffffffff163373ffffffffffffffffffffffffffffffffffffffff1614610484576040517f08c379a000000000000000000000000000000000000000000000000000000000815260040161047b906108b4565b60405180910390fd5b60005b600080549050811015610544578173ffffffffffffffffffffffffffffffffffffffff16600082815481106104e5577f4e487b7100000000000000000000000000000000000000000000000000000000600052603260045260246000fd5b9060005260206000200160009054906101000a900473ffffffffffffffffffffffffffffffffffffffff1673ffffffffffffffffffffffffffffffffffffffff16141561053157610544565b808061053c906109e4565b915050610487565b60008190505b600160008054905061055c9190610974565b811015610669576000600182610572919061091e565b815481106105a9577f4e487b7100000000000000000000000000000000000000000000000000000000600052603260045260246000fd5b9060005260206000200160009054906101000a900473ffffffffffffffffffffffffffffffffffffffff166000828154811061060e577f4e487b7100000000000000000000000000000000000000000000000000000000600052603260045260246000fd5b9060005260206000200160006101000a81548173ffffffffffffffffffffffffffffffffffffffff021916908373ffffffffffffffffffffffffffffffffffffffff1602179055508080610661906109e4565b91505061054a565b5060008054806106a2577f4e487b7100000000000000000000000000000000000000000000000000000000600052603160045260246000fd5b6001900381819060005260206000200160006101000a81549073ffffffffffffffffffffffffffffffffffffffff021916905590558173ffffffffffffffffffffffffffffffffffffffff167f8ab468b9f8f57e82f33d9a1742c03768ff84410a4911e8647bfa64182687690460405160405180910390a25050565b600160009054906101000a900473ffffffffffffffffffffffffffffffffffffffff1681565b60008135905061075381610a85565b92915050565b60008135905061076881610a9c565b92915050565b60006020828403121561078057600080fd5b600061078e84828501610744565b91505092915050565b6000602082840312156107a957600080fd5b60006107b784828501610759565b91505092915050565b60006107cc83836107d8565b60208301905092915050565b6107e1816109a8565b82525050565b6107f0816109a8565b82525050565b6000610801826108e4565b61080b81856108fc565b9350610816836108d4565b8060005b8381101561084757815161082e88826107c0565b9750610839836108ef565b92505060018101905061081a565b5085935050505092915050565b6000610861600a8361090d565b915061086c82610a5c565b602082019050919050565b600060208201905061088c60008301846107e7565b92915050565b600060208201905081810360008301526108ac81846107f6565b905092915050565b600060208201905081810360008301526108cd81610854565b9050919050565b6000819050602082019050919050565b600081519050919050565b6000602082019050919050565b600082825260208201905092915050565b600082825260208201905092915050565b6000610929826109da565b9150610934836109da565b9250827fffffffffffffffffffffffffffffffffffffffffffffffffffffffffffffffff0382111561096957610968610a2d565b5b828201905092915050565b600061097f826109da565b915061098a836109da565b92508282101561099d5761099c610a2d565b5b828203905092915050565b60006109b3826109ba565b9050919050565b600073ffffffffffffffffffffffffffffffffffffffff82169050919050565b6000819050919050565b60006109ef826109da565b91507fffffffffffffffffffffffffffffffffffffffffffffffffffffffffffffffff821415610a2257610a21610a2d565b5b600182019050919050565b7f4e487b7100000000000000000000000000000000000000000000000000000000600052601160045260246000fd5b7f6f6e6c79206f776e657200000000000000000000000000000000000000000000600082015250565b610a8e816109a8565b8114610a9957600080fd5b50565b610aa5816109da565b8114610ab057600080fd5b5056fea264697066735822122035653ddb1574a6fb91420218c87333fc31a19c2180fe6534c363f5629d36c21d64736f6c63430008040033",
  "linkReferences": {},
  "deployedLinkReferences": {}
}