{
  "_format": "hh-sol-artifact-1",
  "contractName": "DepositManager",
  "sourceName": "contracts/core/DepositManager.sol",
  "abi": [
    {
      "anonymous": false,
      "inputs": [
        {
          "indexed": true,
          "internalType": "address",
          "name": "depositor",
          "type": "address"
        },
        {
          "indexed": true,
          "internalType": "address",
          "name": "coinAddress",
          "type": "address"
        },
        {
          "indexed": false,
          "internalType": "uint256",
          "name": "amount",
          "type": "uint256"
        },
        {
          "indexed": false,
          "internalType": "uint256",
          "name": "rate",
          "type": "uint256"
        },
        {
          "indexed": false,
          "internalType": "uint256",
          "name": "storagePurchased",
          "type": "uint256"
        }
      ],
      "name": "AddDepositEvent",
      "type": "event"
    },
    {
      "anonymous": false,
      "inputs": [
        {
          "indexed": false,
          "internalType": "address",
          "name": "previousAdmin",
          "type": "address"
        },
        {
          "indexed": false,
          "internalType": "address",
          "name": "newAdmin",
          "type": "address"
        }
      ],
      "name": "AdminChanged",
      "type": "event"
    },
    {
      "anonymous": false,
      "inputs": [
        {
          "indexed": true,
          "internalType": "address",
          "name": "beacon",
          "type": "address"
        }
      ],
      "name": "BeaconUpgraded",
      "type": "event"
    },
    {
      "anonymous": false,
      "inputs": [
        {
          "indexed": false,
          "internalType": "uint8",
          "name": "version",
          "type": "uint8"
        }
      ],
      "name": "Initialized",
      "type": "event"
    },
    {
      "anonymous": false,
      "inputs": [
        {
          "indexed": true,
          "internalType": "address",
          "name": "previousOwner",
          "type": "address"
        },
        {
          "indexed": true,
          "internalType": "address",
          "name": "newOwner",
          "type": "address"
        }
      ],
      "name": "OwnershipTransferred",
      "type": "event"
    },
    {
      "anonymous": false,
      "inputs": [
        {
          "indexed": true,
          "internalType": "address",
          "name": "implementation",
          "type": "address"
        }
      ],
      "name": "Upgraded",
      "type": "event"
    },
    {
      "anonymous": false,
      "inputs": [
        {
          "indexed": true,
          "internalType": "address",
          "name": "whitelistAddress",
          "type": "address"
        },
        {
          "indexed": true,
          "internalType": "bool",
          "name": "status",
          "type": "bool"
        }
      ],
      "name": "whiteListingAddressEvent",
      "type": "event"
    },
    {
      "anonymous": false,
      "inputs": [
        {
          "indexed": true,
          "internalType": "address",
          "name": "account",
          "type": "address"
        },
        {
          "indexed": true,
          "internalType": "address",
          "name": "tokenAddress",
          "type": "address"
        },
        {
          "indexed": true,
          "internalType": "uint256",
          "name": "amount",
          "type": "uint256"
        }
      ],
      "name": "withdrawApproval",
      "type": "event"
    },
    {
      "inputs": [
        {
          "internalType": "address",
          "name": "_coinAddress",
          "type": "address"
        },
        {
          "internalType": "uint256",
          "name": "rate",
          "type": "uint256"
        }
      ],
      "name": "addCoin",
      "outputs": [],
      "stateMutability": "nonpayable",
      "type": "function"
    },
    {
      "inputs": [
        {
          "internalType": "address",
          "name": "_coinAddress",
          "type": "address"
        },
        {
          "internalType": "uint256",
          "name": "_amount",
          "type": "uint256"
        }
      ],
      "name": "addDeposit",
      "outputs": [],
      "stateMutability": "nonpayable",
      "type": "function"
    },
    {
      "inputs": [
        {
          "internalType": "uint256",
          "name": "newCost",
          "type": "uint256"
        }
      ],
      "name": "changeCostOfStorage",
      "outputs": [],
      "stateMutability": "nonpayable",
      "type": "function"
    },
    {
      "inputs": [
        {
          "internalType": "address",
          "name": "aggregatorAddressFeed",
          "type": "address"
        }
      ],
      "name": "changePriceFeed",
      "outputs": [],
      "stateMutability": "nonpayable",
      "type": "function"
    },
    {
      "inputs": [
        {
          "internalType": "address payable",
          "name": "_to",
          "type": "address"
        },
        {
          "internalType": "uint256",
          "name": "_amount",
          "type": "uint256"
        }
      ],
      "name": "claimEth",
      "outputs": [],
      "stateMutability": "nonpayable",
      "type": "function"
    },
    {
      "inputs": [],
      "name": "costOfStorage",
      "outputs": [
        {
          "internalType": "uint256",
          "name": "",
          "type": "uint256"
        }
      ],
      "stateMutability": "view",
      "type": "function"
    },
    {
      "inputs": [
        {
          "internalType": "address",
          "name": "",
          "type": "address"
        },
        {
          "internalType": "uint256",
          "name": "",
          "type": "uint256"
        }
      ],
      "name": "deposits",
      "outputs": [
        {
          "internalType": "uint256",
          "name": "timestamp",
          "type": "uint256"
        },
        {
          "internalType": "uint256",
          "name": "amount",
          "type": "uint256"
        },
        {
          "internalType": "uint256",
          "name": "storagePurchased",
          "type": "uint256"
        }
      ],
      "stateMutability": "view",
      "type": "function"
    },
    {
      "inputs": [
        {
          "internalType": "address",
          "name": "_address",
          "type": "address"
        }
      ],
      "name": "getAvailableSpace",
      "outputs": [
        {
          "internalType": "uint256",
          "name": "",
          "type": "uint256"
        }
      ],
      "stateMutability": "view",
      "type": "function"
    },
    {
      "inputs": [
        {
          "internalType": "uint256",
          "name": "size",
          "type": "uint256"
        }
      ],
      "name": "getStorageCost",
      "outputs": [
        {
          "internalType": "uint256",
          "name": "",
          "type": "uint256"
        }
      ],
      "stateMutability": "view",
      "type": "function"
    },
    {
      "inputs": [],
      "name": "initalStorageSize",
      "outputs": [
        {
          "internalType": "uint256",
          "name": "",
          "type": "uint256"
        }
      ],
      "stateMutability": "view",
      "type": "function"
    },
    {
      "inputs": [],
      "name": "initialize",
      "outputs": [],
      "stateMutability": "nonpayable",
      "type": "function"
    },
    {
      "inputs": [
        {
          "internalType": "address",
          "name": "user",
          "type": "address"
        },
        {
          "internalType": "uint256",
          "name": "filesize",
          "type": "uint256"
        },
        {
          "internalType": "string",
          "name": "fileHash",
          "type": "string"
        }
      ],
      "name": "instantStorage",
      "outputs": [],
      "stateMutability": "payable",
      "type": "function"
    },
    {
      "inputs": [],
      "name": "owner",
      "outputs": [
        {
          "internalType": "address",
          "name": "",
          "type": "address"
        }
      ],
      "stateMutability": "view",
      "type": "function"
    },
    {
      "inputs": [],
      "name": "proxiableUUID",
      "outputs": [
        {
          "internalType": "bytes32",
          "name": "",
          "type": "bytes32"
        }
      ],
      "stateMutability": "view",
      "type": "function"
    },
    {
      "inputs": [
        {
          "internalType": "address",
          "name": "_coinAddress",
          "type": "address"
        }
      ],
      "name": "removeCoin",
      "outputs": [],
      "stateMutability": "nonpayable",
      "type": "function"
    },
    {
      "inputs": [],
      "name": "renounceOwnership",
      "outputs": [],
      "stateMutability": "nonpayable",
      "type": "function"
    },
    {
      "inputs": [
        {
          "internalType": "uint256",
          "name": "_initalStorageSize",
          "type": "uint256"
        }
      ],
      "name": "setInitalStorageSize",
      "outputs": [],
      "stateMutability": "nonpayable",
      "type": "function"
    },
    {
      "inputs": [
        {
          "internalType": "address",
          "name": "_address",
          "type": "address"
        },
        {
          "internalType": "bool",
          "name": "_status",
          "type": "bool"
        }
      ],
      "name": "setWhiteListAddr",
      "outputs": [],
      "stateMutability": "nonpayable",
      "type": "function"
    },
    {
      "inputs": [
        {
          "internalType": "address",
          "name": "",
          "type": "address"
        }
      ],
      "name": "storageList",
      "outputs": [
        {
          "internalType": "uint256",
          "name": "totalStored",
          "type": "uint256"
        },
        {
          "internalType": "uint256",
          "name": "availableStorage",
          "type": "uint256"
        },
        {
          "internalType": "bool",
          "name": "isKnownUser",
          "type": "bool"
        }
      ],
      "stateMutability": "view",
      "type": "function"
    },
    {
      "inputs": [
        {
          "internalType": "address",
          "name": "_coinAddress",
          "type": "address"
        },
        {
          "internalType": "address",
          "name": "wallet",
          "type": "address"
        },
        {
          "internalType": "uint256",
          "name": "amount",
          "type": "uint256"
        }
      ],
      "name": "transferAmount",
      "outputs": [],
      "stateMutability": "nonpayable",
      "type": "function"
    },
    {
      "inputs": [
        {
          "internalType": "address",
          "name": "newOwner",
          "type": "address"
        }
      ],
      "name": "transferOwnership",
      "outputs": [],
      "stateMutability": "nonpayable",
      "type": "function"
    },
    {
      "inputs": [
        {
          "internalType": "address",
          "name": "user",
          "type": "address"
        },
        {
          "internalType": "uint256",
          "name": "addOnStorage",
          "type": "uint256"
        }
      ],
      "name": "updateAvailableStorage",
      "outputs": [],
      "stateMutability": "nonpayable",
      "type": "function"
    },
    {
      "inputs": [
        {
          "internalType": "address",
          "name": "user",
          "type": "address"
        },
        {
          "internalType": "uint256",
          "name": "filesize",
          "type": "uint256"
        },
        {
          "internalType": "string",
          "name": "fileHash",
          "type": "string"
        }
      ],
      "name": "updateStorage",
      "outputs": [],
      "stateMutability": "nonpayable",
      "type": "function"
    },
    {
      "inputs": [
        {
          "internalType": "address",
          "name": "newImplementation",
          "type": "address"
        }
      ],
      "name": "upgradeTo",
      "outputs": [],
      "stateMutability": "nonpayable",
      "type": "function"
    },
    {
      "inputs": [
        {
          "internalType": "address",
          "name": "newImplementation",
          "type": "address"
        },
        {
          "internalType": "bytes",
          "name": "data",
          "type": "bytes"
        }
      ],
      "name": "upgradeToAndCall",
      "outputs": [],
      "stateMutability": "payable",
      "type": "function"
    },
    {
      "stateMutability": "payable",
      "type": "receive"
    }
  ],
  "bytecode": "0x60a06040523073ffffffffffffffffffffffffffffffffffffffff1660809073ffffffffffffffffffffffffffffffffffffffff1660601b81525034801561004657600080fd5b5060805160601c615aed62000082600039600081816113e10152818161147001528181611c2701528181611cb60152611d660152615aed6000f3fe60806040526004361061016a5760003560e01c80636e19aca1116100d1578063b40148791161008a578063cbd3df3811610064578063cbd3df38146104db578063d6d6817714610504578063e2b3b2e214610543578063f2fde38b1461056c57610171565b8063b40148791461044a578063b49f33c814610473578063bae26f981461049c57610171565b80636e19aca114610381578063715018a61461039d5780638129fc1c146103b4578063859c50ae146103cb57806388363bf6146103f65780638da5cb5b1461041f57610171565b80633abd847b116101235780633abd847b1461026e5780634a5676b8146102975780634ce639d2146102d45780634f1ef2861461031157806352d1902d1461032d578063595ba7681461035857610171565b806301f47471146101765780630a86b87f1461019f57806311088206146101c85780632bf31cea146101f357806333026bb61461021c5780633659cfe61461024557610171565b3661017157005b600080fd5b34801561018257600080fd5b5061019d60048036038101906101989190614656565b610595565b005b3480156101ab57600080fd5b506101c660048036038101906101c1919061482f565b610920565b005b3480156101d457600080fd5b506101dd610a2a565b6040516101ea9190614f76565b60405180910390f35b3480156101ff57600080fd5b5061021a6004803603810190610215919061482f565b610ab8565b005b34801561022857600080fd5b50610243600480360381019061023e9190614735565b610bc2565b005b34801561025157600080fd5b5061026c600480360381019061026791906145f1565b6113df565b005b34801561027a57600080fd5b50610295600480360381019061029091906146a5565b61158e565b005b3480156102a357600080fd5b506102be60048036038101906102b991906145f1565b611787565b6040516102cb9190614f76565b60405180910390f35b3480156102e057600080fd5b506102fb60048036038101906102f6919061482f565b611857565b6040516103089190614f76565b60405180910390f35b61032b600480360381019061032691906146e1565b611c25565b005b34801561033957600080fd5b50610342611d62565b60405161034f9190614cde565b60405180910390f35b34801561036457600080fd5b5061037f600480360381019061037a9190614771565b611e1b565b005b61039b60048036038101906103969190614771565b6124fb565b005b3480156103a957600080fd5b506103b26128e2565b005b3480156103c057600080fd5b506103c961296a565b005b3480156103d757600080fd5b506103e0612b45565b6040516103ed9190614f76565b60405180910390f35b34801561040257600080fd5b5061041d600480360381019061041891906145f1565b612b4b565b005b34801561042b57600080fd5b50610434612ee6565b6040516104419190614c63565b60405180910390f35b34801561045657600080fd5b50610471600480360381019061046c9190614735565b612f10565b005b34801561047f57600080fd5b5061049a60048036038101906104959190614735565b61326c565b005b3480156104a857600080fd5b506104c360048036038101906104be91906145f1565b6134cf565b6040516104d293929190614f91565b60405180910390f35b3480156104e757600080fd5b5061050260048036038101906104fd91906145f1565b613506565b005b34801561051057600080fd5b5061052b60048036038101906105269190614735565b61364a565b60405161053a93929190614fc8565b60405180910390f35b34801561054f57600080fd5b5061056a6004803603810190610565919061461a565b613691565b005b34801561057857600080fd5b50610593600480360381019061058e91906145f1565b613936565b005b61059d613a2e565b73ffffffffffffffffffffffffffffffffffffffff166105bb612ee6565b73ffffffffffffffffffffffffffffffffffffffff1614610611576040517f08c379a000000000000000000000000000000000000000000000000000000000815260040161060890614e96565b60405180910390fd5b61063d7f20f78783c3a71b8a96500ac28393b9cd14e441be30945a1f82f88238b5bc224460001b613a36565b6106697f203e821ecb996521189914f57e35a2b250d4b44ecc7b170b85cbb6af3f58420f60001b613a36565b6106957f67e2181ddaddffb1aaadd560f42118586839696cfacce19bb854665fa14ac6ec60001b613a36565b6106c17fea2d872b2829170af5f68fbe3fa8d678eab86a5490c24980c2885b5de7b6d5f260001b613a36565b8273ffffffffffffffffffffffffffffffffffffffff166370a08231306040518263ffffffff1660e01b81526004016106fa9190614c63565b60206040518083038186803b15801561071257600080fd5b505afa158015610726573d6000803e3d6000fd5b505050506040513d601f19601f8201168201806040525081019061074a9190614858565b81111561075657600080fd5b6107827fc512bc09624ce89fb2dae3b6cb68a8bfbb728d5b8f873629dc14d2d64cb17bc360001b613a36565b6107ae7fae75beb6e31c1ec9f7f1aefbea6e6af793eb697ce08fc56a6607b9d59015bfac60001b613a36565b6107da7f6cd6ae5d9c0ce90b7866217031d06921a6e482b8753154d693ff2a21a40af11960001b613a36565b8273ffffffffffffffffffffffffffffffffffffffff1663a9059cbb83836040518363ffffffff1660e01b8152600401610815929190614cb5565b602060405180830381600087803b15801561082f57600080fd5b505af1158015610843573d6000803e3d6000fd5b505050506040513d601f19601f8201168201806040525081019061086791906147dd565b506108947f23bd80649a9773d88f3b365de78d2c6e804768776497e7496983acd4dc86692b60001b613a36565b6108c07f7b57e6ccf65dec02ac5702addd76cc336678b98bcdfae50e0f2a62288d85714860001b613a36565b808373ffffffffffffffffffffffffffffffffffffffff168373ffffffffffffffffffffffffffffffffffffffff167f5a6ad959135224fa7091d784adcf326544e674afc0cd3a125f76e2e6b29cc36660405160405180910390a4505050565b610928613a2e565b73ffffffffffffffffffffffffffffffffffffffff16610946612ee6565b73ffffffffffffffffffffffffffffffffffffffff161461099c576040517f08c379a000000000000000000000000000000000000000000000000000000000815260040161099390614e96565b60405180910390fd5b6109c87fb8ced67e3490ac818e31e2c75242106a6135881ecd3c6dc9032a399a115f463f60001b613a36565b6109f47fec5668014688410478ca098868bbec7f5be5c2a6b85ec33fab6c94e4271896e060001b613a36565b610a207f01eaa8d6fe8f7d1843a4e3e878ca7bc6dd9ff7314451e4dfd380a22d1029d32d60001b613a36565b8060cb8190555050565b6000610a587f4ac71425736ce94a84b4eb89b61eb8c907d400ca6e8b56f98cc1c4ee2e07a47d60001b613a36565b610a847faab13da0d1e9a6cbd96f981556897506e3c2161f5b581057672e0ab8c51bd84b60001b613a36565b610ab07fe17b8250f4b655feac4cb645da7ec5e406bea432bb5bb97746e560393e6409e960001b613a36565b60ca54905090565b610ac0613a2e565b73ffffffffffffffffffffffffffffffffffffffff16610ade612ee6565b73ffffffffffffffffffffffffffffffffffffffff1614610b34576040517f08c379a0000000000000000000000000000000000000000000000000000000008152600401610b2b90614e96565b60405180910390fd5b610b607f3d64e2de3f5ebf4a5eed993e2364d0de89cb7705484e162af06947a075f5efb260001b613a36565b610b8c7f512e759451a76a6d54154f05e82af6dcc998a05c3588c99a444ff5cee381850f60001b613a36565b610bb87fe76a1c3a10cf8e40c1f2c58a778da0c1a5b22f180e8233068d3ffa9befd8389460001b613a36565b8060ca8190555050565b610bee7f35d2d21afc2463d39ff20301b031cf7f30c53c6416cdd21392aa12d36180a16f60001b613a36565b610c1a7f06c19bf8ac24d013ed634fe55398414f721131ea427d80d35c61c98cf08e6b9f60001b613a36565b610c467f64a5f97f9290cbe7875366cb1b04f75cf155825b9498084d2543ac4d3634df0f60001b613a36565b6000339050610c777fe565d21992fd4b826cd4e12c6d8d688a01e3b5a00873d7d1db5c38f61d4e61e760001b613a36565b610ca37f13c17e97067e98ae9f3cc09ea564d93e1b8974582c5fe1ad7202c157ea8ce75560001b613a36565b60008373ffffffffffffffffffffffffffffffffffffffff1663313ce5676040518163ffffffff1660e01b815260040160206040518083038186803b158015610ceb57600080fd5b505afa158015610cff573d6000803e3d6000fd5b505050506040513d601f19601f82011682018060405250810190610d2391906148f8565b60ff169050610d547f990409ce46e12a7d159b7e7449b8a8bda92014867704fbdee794f9cae9aaec7e60001b613a36565b610d807f38d822f244b7dba79b76556cc35c3b897d3664f3f800fd5a0d5632447f38f62f60001b613a36565b610dac7f79d35ff9c8a10174819058a90869e7f0a4a22b84c8c14d15d45aa4502aff5e4260001b613a36565b600060cf60008673ffffffffffffffffffffffffffffffffffffffff1673ffffffffffffffffffffffffffffffffffffffff168152602001908152602001600020541415610e2f576040517f08c379a0000000000000000000000000000000000000000000000000000000008152600401610e2690614eb6565b60405180910390fd5b610e5b7faae777fc2a7e35ebc4eebe28b7aac43624155ee25e1e13fdf9c1791d8818610a60001b613a36565b610e877f1f3568bbcbeaba62339b602799d0a9350aad3a27df80a88bd01fb78306c514f460001b613a36565b610eb37f44d0b989e4f82cf9bca222798be68d4bdcbfa48e3d879fd2356bae6d2ae1240d60001b613a36565b610edf7f4c201ea130e9dfd2dceef9fc0f3d0b5c7a8b8885167e42f2bf6b2ca2e3db037360001b613a36565b828473ffffffffffffffffffffffffffffffffffffffff166370a08231846040518263ffffffff1660e01b8152600401610f199190614c63565b60206040518083038186803b158015610f3157600080fd5b505afa158015610f45573d6000803e3d6000fd5b505050506040513d601f19601f82011682018060405250810190610f699190614858565b1015610faa576040517f08c379a0000000000000000000000000000000000000000000000000000000008152600401610fa190614db6565b60405180910390fd5b610fd67fe9be45f6cfc5dabf6a8cd2277a9de30c878ff7d48861896508f6cc715a04ffd460001b613a36565b6110027f932ca1872b25b2a27b7cccc1bd4fd5e1f0444c2d4e2ecba8a2c0de35247d4f3860001b613a36565b61102e7fb0f7a1a9e3ea8a195ffe36814d84eca1b74eb7c1b8b2c099b0a0c5356a669ea560001b613a36565b60006110ce620f42406110c084600a6110479190615161565b6110b2611052610a2a565b6110a460cf60008d73ffffffffffffffffffffffffffffffffffffffff1673ffffffffffffffffffffffffffffffffffffffff168152602001908152602001600020548b613a3990919063ffffffff16565b613a3990919063ffffffff16565b613a4f90919063ffffffff16565b613a4f90919063ffffffff16565b90506110fc7f93822b1be40c1b06ca2edd2c7539ea5a1d9aef75724cbfad187e42d68e60048460001b613a36565b6111287f9495714c34bbe29d0798ec1a71b66f19c1f7a5e2b55fb84d4bbf8faae28c289760001b613a36565b60cc60003373ffffffffffffffffffffffffffffffffffffffff1673ffffffffffffffffffffffffffffffffffffffff168152602001908152602001600020604051806060016040528042815260200186815260200183815250908060018154018082558091505060019003906000526020600020906003020160009091909190915060008201518160000155602082015181600101556040820151816002015550506111f77f85e21a5fbf3c52cf13aaa263b95701fc78533e54c18d7a7317080a6f5dacadfb60001b613a36565b6112237fa489e03f576ada78e0b862c63acecf95533a0946117fc6e7907ea63c4dc8d56760001b613a36565b61122d3382613a65565b6112597f2819c457c03cb40d07d43ad5a58723d49eb885bcc94474456657c48684a0cfad60001b613a36565b6112857f8135fdda0c71e8219152b8f3a71bc3ae311b31f5ff78d23c79addb0604f251c060001b613a36565b8473ffffffffffffffffffffffffffffffffffffffff166323b872dd8430876040518463ffffffff1660e01b81526004016112c293929190614c7e565b602060405180830381600087803b1580156112dc57600080fd5b505af11580156112f0573d6000803e3d6000fd5b505050506040513d601f19601f8201168201806040525081019061131491906147dd565b506113417fc7bf0eae47a35a23d36a38c54c854f39b36ad3fba50c5408ca803bb6952c0f3060001b613a36565b61136d7ff994b5f27b2ea98770b98bc46e25824e66ba31018eb5721a0fb283698812787860001b613a36565b8473ffffffffffffffffffffffffffffffffffffffff163373ffffffffffffffffffffffffffffffffffffffff167f37d822ecaa322d551ac3fb006e69d00a726925969995ad76c4f6596b5a8cbc568660ca54856040516113d093929190614fc8565b60405180910390a35050505050565b7f000000000000000000000000000000000000000000000000000000000000000073ffffffffffffffffffffffffffffffffffffffff163073ffffffffffffffffffffffffffffffffffffffff16141561146e576040517f08c379a000000000000000000000000000000000000000000000000000000000815260040161146590614d76565b60405180910390fd5b7f000000000000000000000000000000000000000000000000000000000000000073ffffffffffffffffffffffffffffffffffffffff166114ad613ba8565b73ffffffffffffffffffffffffffffffffffffffff1614611503576040517f08c379a00000000000000000000000000000000000000000000000000000000081526004016114fa90614d96565b60405180910390fd5b61150c81613bff565b61158b81600067ffffffffffffffff811115611551577f4e487b7100000000000000000000000000000000000000000000000000000000600052604160045260246000fd5b6040519080825280601f01601f1916602001820160405280156115835781602001600182028036833780820191505090505b506000613caa565b50565b611596613a2e565b73ffffffffffffffffffffffffffffffffffffffff166115b4612ee6565b73ffffffffffffffffffffffffffffffffffffffff161461160a576040517f08c379a000000000000000000000000000000000000000000000000000000000815260040161160190614e96565b60405180910390fd5b6116367f231b75da624efd4f746f7e05f68d3d43956fb5d6e547ff664151e7bae837adc460001b613a36565b6116627fe6d7fef2c647dd90ba1a8b21c360711e48679b16b8a16def0e7a6d380b7f01cc60001b613a36565b61168e7faaae5fc79421d0846dd80c49307275d20e4e5027cf30dd571e5edf1b6e9f515660001b613a36565b8060ce60008473ffffffffffffffffffffffffffffffffffffffff1673ffffffffffffffffffffffffffffffffffffffff16815260200190815260200160002060006101000a81548160ff0219169083151502179055506117117ff60033dcfd28f15bd2c2625aa5bbc6c8a90391d70b9b216504040226aa7bda4d60001b613a36565b61173d7f042ed3f8d12548fa17b74c27ad8a63f3b91feecf982fbe712e57dfb37773f2e460001b613a36565b8015158273ffffffffffffffffffffffffffffffffffffffff167f76f7735e60e167186168755b9dafbe4e8ab2ce33e2ef11b45de4c02311222de560405160405180910390a35050565b60006117b57fe17a69400edc416663ea22814ab76b537b169065d1a049f574856ef911208ca260001b613a36565b6117e17fd8517a2575c79f960b2b084f39d126979aa355e36a03ace71d046d4c51aa454560001b613a36565b61180d7f47a18a300934de20aae2964bf4c53ed93ef9f1c31652adcff3360f6d8ba455c260001b613a36565b60cd60008373ffffffffffffffffffffffffffffffffffffffff1673ffffffffffffffffffffffffffffffffffffffff168152602001908152602001600020600101549050919050565b60006118857f59a40e4210088d1090d40672a96cc0ee92e98b358edf94bcd1979bc9a59cced760001b613a36565b6118b17fb71b5e274e9b483124604fcc956fb130f56713323d286cbc331bd6aaf07944e060001b613a36565b6118dd7f684d578d16eae5ab17862041130826865e4dd929d341440377c743f81bb56b5460001b613a36565b6119097f1d1ae664f122de981da9d4967f281feac27d3fe051d5d3734e59b5ff25fd583660001b613a36565b600073ffffffffffffffffffffffffffffffffffffffff1660c960009054906101000a900473ffffffffffffffffffffffffffffffffffffffff1673ffffffffffffffffffffffffffffffffffffffff16141561199b576040517f08c379a000000000000000000000000000000000000000000000000000000000815260040161199290614f36565b60405180910390fd5b6119c77f76bd637750cb88e211431a571ca541d4c9b31d52d2fcb4a4fd954253436092eb60001b613a36565b6119f37f2a00673f57256c220227d3aedd0a6b1f99fc1a161d10a7468ffda6b11e336c1160001b613a36565b611a1f7f8307d848388962a00967f691defbad77fcd4f6c8960da7edca30a8305a57791560001b613a36565b600060c960009054906101000a900473ffffffffffffffffffffffffffffffffffffffff1673ffffffffffffffffffffffffffffffffffffffff1663feaf968c6040518163ffffffff1660e01b815260040160a06040518083038186803b158015611a8957600080fd5b505afa158015611a9d573d6000803e3d6000fd5b505050506040513d601f19601f82011682018060405250810190611ac19190614881565b505050915050611af37fbaa07877b0389aa78ca00242de13140025c5ef35d556853ce499af64cbe67c2d60001b613a36565b611b1f7ff6b67a81116a64269c3ec96d07be2ff8f4ed5f5c59ca3d4328030056e28b993960001b613a36565b611c1d611b378260ca54613a3990919063ffffffff16565b611c0f60c960009054906101000a900473ffffffffffffffffffffffffffffffffffffffff1673ffffffffffffffffffffffffffffffffffffffff1663313ce5676040518163ffffffff1660e01b815260040160206040518083038186803b158015611ba257600080fd5b505afa158015611bb6573d6000803e3d6000fd5b505050506040513d601f19601f82011682018060405250810190611bda91906148f8565b600a611be691906151ac565b611c01670de0b6b3a764000088613a3990919063ffffffff16565b613a3990919063ffffffff16565b613a4f90919063ffffffff16565b915050919050565b7f000000000000000000000000000000000000000000000000000000000000000073ffffffffffffffffffffffffffffffffffffffff163073ffffffffffffffffffffffffffffffffffffffff161415611cb4576040517f08c379a0000000000000000000000000000000000000000000000000000000008152600401611cab90614d76565b60405180910390fd5b7f000000000000000000000000000000000000000000000000000000000000000073ffffffffffffffffffffffffffffffffffffffff16611cf3613ba8565b73ffffffffffffffffffffffffffffffffffffffff1614611d49576040517f08c379a0000000000000000000000000000000000000000000000000000000008152600401611d4090614d96565b60405180910390fd5b611d5282613bff565b611d5e82826001613caa565b5050565b60007f000000000000000000000000000000000000000000000000000000000000000073ffffffffffffffffffffffffffffffffffffffff163073ffffffffffffffffffffffffffffffffffffffff1614611df2576040517f08c379a0000000000000000000000000000000000000000000000000000000008152600401611de990614dd6565b60405180910390fd5b7f360894a13ba1a3210667c828492db98dca3e2076cc3735a920a3ca505d382bbc60001b905090565b611e477f18ba8271bd6dda250d81d3951536b98f539533d2137d530d996780a403e9b9e260001b613a36565b611e737f89d27d6d0be77c27c46fb639ea5762420c1c1cf15562436915c6c7d865df7f9b60001b613a36565b611e9f7feb47944574c8dff947385ad1e0ebe32d4575b284cfcb28be473c6c49657c50e460001b613a36565b611ecb7f290706689636b50ffd92d8b7034d9ac4b6e5bd467d6fc74b88c18302e6b8b53e60001b613a36565b60ce60003373ffffffffffffffffffffffffffffffffffffffff1673ffffffffffffffffffffffffffffffffffffffff16815260200190815260200160002060009054906101000a900460ff1680611f555750611f26612ee6565b73ffffffffffffffffffffffffffffffffffffffff163373ffffffffffffffffffffffffffffffffffffffff16145b611f94576040517f08c379a0000000000000000000000000000000000000000000000000000000008152600401611f8b90614ed6565b60405180910390fd5b611fc07f8d5ad8ade10b43239489bd7e790700aac0496bd78a89ee8668e7e1b5553e66a660001b613a36565b611fec7f02024fc87a1afb1e2ce536207f6b5de3cc7acaededfb8606c2e17214b24179f560001b613a36565b6120187ffe4f9c9a52f516a17f142bd6584d11abe9c718c8beda0459cb2f55a11a9957ef60001b613a36565b6120447f994884e2cec0c941eb9e71bf5e0b73c6c2ca54d95301a7aeb862becc51fa176f60001b613a36565b6120707fa9313163c6164505ee2e4a595178420c17c480a5194dad60c2fcf6c34222681c60001b613a36565b60cd60008573ffffffffffffffffffffffffffffffffffffffff1673ffffffffffffffffffffffffffffffffffffffff16815260200190815260200160002060020160009054906101000a900460ff1661220c576120f07fb0a9307e9e62fec713681c49ae0ffd1d22948a538ddd9c9c47d39b1020a9650b60001b613a36565b61211c7f1b0d96aabc58f81e59245b313fd03dd5d72f4984cde4a695a340b08ccdc03a3260001b613a36565b6121487fd9ddfa5d7cd55c33576e46864cd4c81c9746247ce7530deb25c23d64feba1c1860001b613a36565b6121548460cb54613a65565b6121807f2f4347472142082ff78d35fcab14013ab5997f650262752666e3a5696a79216060001b613a36565b6121ac7f0862651b0cb69dc07ef6da725f4fbf26b664182ed7aa959e5948eb7469c3950d60001b613a36565b600160cd60008673ffffffffffffffffffffffffffffffffffffffff1673ffffffffffffffffffffffffffffffffffffffff16815260200190815260200160002060020160006101000a81548160ff021916908315150217905550612239565b6122387f26b42d9622f1e8eb7e804d951d92e3ebb066eba2d5016906f828887f437698ca60001b613a36565b5b6122657fc0325828ddffca31e9069b844d6aff04fafbd7f644270d9b7152ad94598f9bfb60001b613a36565b6122917f9fa6f170a202c41cbdd7094b7fded192ad425325ba14e3bfbdd3f10826823d8060001b613a36565b60cd60008573ffffffffffffffffffffffffffffffffffffffff1673ffffffffffffffffffffffffffffffffffffffff16815260200190815260200160002060030182829091806001815401808255809150506001900390600052602060002001600090919290919290919290919250919061230e9291906143ca565b5061233b7fa868e6d950cdb996ccb7bb510c2b5a1c1aa6059014dccfde04f9a0587de7948660001b613a36565b6123677f9e0c2080077d2b1368853afbf2a2f8154d884a6311f38c79482dd6a753768c1860001b613a36565b6123bc8360cd60008773ffffffffffffffffffffffffffffffffffffffff1673ffffffffffffffffffffffffffffffffffffffff16815260200190815260200160002060000154613e2790919063ffffffff16565b60cd60008673ffffffffffffffffffffffffffffffffffffffff1673ffffffffffffffffffffffffffffffffffffffff1681526020019081526020016000206000018190555061242e7fa8a3c95ed05b6f041a73579dea68599e07e3d0bb6f72ec9b904b5b0c3b7fd7b660001b613a36565b61245a7f08f3ec0569124580227c54dd7b513d2b541e471ef9653fb6f6c18dfbcbfa124b60001b613a36565b6124af8360cd60008773ffffffffffffffffffffffffffffffffffffffff1673ffffffffffffffffffffffffffffffffffffffff16815260200190815260200160002060010154613e3d90919063ffffffff16565b60cd60008673ffffffffffffffffffffffffffffffffffffffff1673ffffffffffffffffffffffffffffffffffffffff1681526020019081526020016000206001018190555050505050565b6125277ff526df018286a402247873c3dd10f2783b79c6ee2e61c6aca94de7ac56831c3060001b613a36565b6125537fee8a1438eaed6a6558bbf489c7b3339ba3f7e82e3a10ce9f9d5b5ff47f76fce860001b613a36565b61257f7f9832c4717b985acff897a55fac8457c2b8b5773c4952fdd9bcd254192712b3d560001b613a36565b61258883611857565b3410156125be577f4e487b7100000000000000000000000000000000000000000000000000000000600052600160045260246000fd5b6125ea7f07f622d4d765fc77610a99a5d8f7c48c2826113acd28d7433058738c09c10eaf60001b613a36565b6126167f9e6d8de5734129b05d3879b472a456bb268c23e13233b7cbbe49d0de15556b4260001b613a36565b6126208484613a65565b61264c7f5f71174165dd74c46f1815cc86ccb9d405208fedd0a146f53bd94b12a30b459c60001b613a36565b6126787fcafd6f79f4f41476cdc2bf8e28056cf95a10fe00510de4c9df6f5e48bb24ffba60001b613a36565b60cd60008573ffffffffffffffffffffffffffffffffffffffff1673ffffffffffffffffffffffffffffffffffffffff1681526020019081526020016000206003018282909180600181540180825580915050600190039060005260206000200160009091929091929091929091925091906126f59291906143ca565b506127227f51df34d7ee62532924b281a91527257e9fd459a16a6928048fc1bc582ea2b7e860001b613a36565b61274e7f2f86e6cf046f15d3e76dc11babff38c3265f6a744e6b971d7db76a3b69abed5960001b613a36565b6127a38360cd60008773ffffffffffffffffffffffffffffffffffffffff1673ffffffffffffffffffffffffffffffffffffffff16815260200190815260200160002060000154613e2790919063ffffffff16565b60cd60008673ffffffffffffffffffffffffffffffffffffffff1673ffffffffffffffffffffffffffffffffffffffff168152602001908152602001600020600001819055506128157fa0959769a0af30e3acf9d14c81e07875a0d400af94b640686c94bd4dda67fa5560001b613a36565b6128417fc1fbcc5f55c60f7a701286587727818c6252586ea8d65f288b209d647191f49b60001b613a36565b6128968360cd60008773ffffffffffffffffffffffffffffffffffffffff1673ffffffffffffffffffffffffffffffffffffffff16815260200190815260200160002060010154613e3d90919063ffffffff16565b60cd60008673ffffffffffffffffffffffffffffffffffffffff1673ffffffffffffffffffffffffffffffffffffffff1681526020019081526020016000206001018190555050505050565b6128ea613a2e565b73ffffffffffffffffffffffffffffffffffffffff16612908612ee6565b73ffffffffffffffffffffffffffffffffffffffff161461295e576040517f08c379a000000000000000000000000000000000000000000000000000000000815260040161295590614e96565b60405180910390fd5b6129686000613e53565b565b60006129766001613f19565b9050801561299a576001600060016101000a81548160ff0219169083151502179055505b6129c67fea9b99b4b92d9ead7f7a5efbafd9daae647eeb85561f34258cb41150bb452df060001b613a36565b6129f27ff1d79c8bcc3854657ce328634ec81bfdf9974ac88f165978d080f12d6be3fed160001b613a36565b612a1e7f9271d128e2db1787738f308e41493a6c4e6360fa2a38d640b38824fbaa0eba0a60001b613a36565b612a26614009565b612a527fa78fd040de0c3d0575e8b2f6c782b31a02ec12ebfa01517060b597c176512fc760001b613a36565b612a7e7ff08674ab6e5591e4f268f86224d5ce5d776d3e85d9468a367503eb08bbc86c7060001b613a36565b612a86614062565b612ab27f23403ff1b6ec82d0b4b7c903e717bcdb15e63e033ede3eeb266eabc831e7588e60001b613a36565b612ade7fd0781a3bb24103999c8d5f6b0d5a7bcbcad91c153da5e19f94ac2dc6c12064b060001b613a36565b630ccccccd60ca819055508015612b425760008060016101000a81548160ff0219169083151502179055507f7f26b83ff96e1f2b6a682f133852f6798a09c465da95921460cefb38474024986001604051612b399190614cf9565b60405180910390a15b50565b60cb5481565b612b53613a2e565b73ffffffffffffffffffffffffffffffffffffffff16612b71612ee6565b73ffffffffffffffffffffffffffffffffffffffff1614612bc7576040517f08c379a0000000000000000000000000000000000000000000000000000000008152600401612bbe90614e96565b60405180910390fd5b612bf37fe7a1c23bb9e3736c91c64d800ed9675c53616e1efd528e0c82e32473f0c4ef0760001b613a36565b612c1f7f5a3802ae748168df2db9b087244d130443ae5305e3475a5cb9f0c1b10430752d60001b613a36565b612c4b7fe752afdb758d6f995987af24528fc44b3f2a2babf9da2fcbf25fbc24848fc90060001b613a36565b612c777f579f6b7ef075ee668c764f35684080c8cbbe1ca8f850b6306a9f57f6c056d7e060001b613a36565b600073ffffffffffffffffffffffffffffffffffffffff168173ffffffffffffffffffffffffffffffffffffffff161415612ce7576040517f08c379a0000000000000000000000000000000000000000000000000000000008152600401612cde90614d56565b60405180910390fd5b612d137f26fa52b924258fde53f8788ed594ebf6f20e6fb005e6fd511e5f6eab8391570c60001b613a36565b612d3f7f8d4e00254077d5d17265c9d9fc0988ed47792671e2cbb7dc9afba31a2e5262d660001b613a36565b612d6b7fe9b9e7424f7097e76891bf83f91c25231a7392642329bb85d84697909043d0ba60001b613a36565b612d977faf5e9780b8d94df937bcac9da6217dc4e35b45c705cb3120f242c6501bab533860001b613a36565b600060cf60008373ffffffffffffffffffffffffffffffffffffffff1673ffffffffffffffffffffffffffffffffffffffff168152602001908152602001600020541415612e1a576040517f08c379a0000000000000000000000000000000000000000000000000000000008152600401612e1190614f16565b60405180910390fd5b612e467f2aa24f5dc99b48c412e55985495a4c51a990346f8c47ac2e1729fb914394fa2d60001b613a36565b612e727f7d2aa199413e8c4068c07f9870dedea64f257e3f9450040ddc498bbb977bd02060001b613a36565b612e9e7fd1a2f59381d0de5c1d697e3c39d6d543bb605139fdce2472bc9ddb04627c43c660001b613a36565b600060cf60008373ffffffffffffffffffffffffffffffffffffffff1673ffffffffffffffffffffffffffffffffffffffff1681526020019081526020016000208190555050565b6000603360009054906101000a900473ffffffffffffffffffffffffffffffffffffffff16905090565b612f18613a2e565b73ffffffffffffffffffffffffffffffffffffffff16612f36612ee6565b73ffffffffffffffffffffffffffffffffffffffff1614612f8c576040517f08c379a0000000000000000000000000000000000000000000000000000000008152600401612f8390614e96565b60405180910390fd5b612fb87f34e221cb0d3e6a4820f0cb1c8a9be6130f90f68845f359c6da2dd9e4d0bfd0fc60001b613a36565b612fe47fc634e5acaa358dedc5d66843fd594c268f8c40ed72c8db0b415855c04bbe908160001b613a36565b6130107f9186403ac09a75cc994666d0522c251f096d90e3d9bc061206aa0ba07828aa7760001b613a36565b61303c7f61980388e398500aa3454ce161ab78d8379238a0a3b91fdacafd5a46a335796b60001b613a36565b600073ffffffffffffffffffffffffffffffffffffffff168273ffffffffffffffffffffffffffffffffffffffff1614156130ac576040517f08c379a00000000000000000000000000000000000000000000000000000000081526004016130a390614d56565b60405180910390fd5b6130d87f3f2307eb1706b716a076b4cb609efed32dc3c0b66b747377547b9742a3d6ec7260001b613a36565b6131047f065bc7524f061ba86646ebfa5eaba67ad69b945a59f29f81f2a737667be6c21260001b613a36565b6131307f7d28c3bbbfc337f22d17be0bd963de5a4a5fd185f976c0cce9d1bb9ec8d9873760001b613a36565b61315c7f8cecd5c7cc6e49599e4fc38da24faae9f8b909e59815f00b503e43359378e86e60001b613a36565b60008114156131a0576040517f08c379a000000000000000000000000000000000000000000000000000000000815260040161319790614e36565b60405180910390fd5b6131cc7f98aa468c2f27cdecaf498101b3117b69a34b62fd788f73f6f6ce6f289dad689060001b613a36565b6131f87f44d68049d0492e0fa633f68713be25e706f99be178e234e5e4ddcbe9b8b2873b60001b613a36565b6132247f9a01a4fe7e62980dc2497031c8f5345c995543bae0e22f43ff695128205a180160001b613a36565b8060cf60008473ffffffffffffffffffffffffffffffffffffffff1673ffffffffffffffffffffffffffffffffffffffff168152602001908152602001600020819055505050565b6132987f18ba8271bd6dda250d81d3951536b98f539533d2137d530d996780a403e9b9e260001b613a36565b6132c47f89d27d6d0be77c27c46fb639ea5762420c1c1cf15562436915c6c7d865df7f9b60001b613a36565b6132f07feb47944574c8dff947385ad1e0ebe32d4575b284cfcb28be473c6c49657c50e460001b613a36565b61331c7f290706689636b50ffd92d8b7034d9ac4b6e5bd467d6fc74b88c18302e6b8b53e60001b613a36565b60ce60003373ffffffffffffffffffffffffffffffffffffffff1673ffffffffffffffffffffffffffffffffffffffff16815260200190815260200160002060009054906101000a900460ff16806133a65750613377612ee6565b73ffffffffffffffffffffffffffffffffffffffff163373ffffffffffffffffffffffffffffffffffffffff16145b6133e5576040517f08c379a00000000000000000000000000000000000000000000000000000000081526004016133dc90614ed6565b60405180910390fd5b6134117f8d5ad8ade10b43239489bd7e790700aac0496bd78a89ee8668e7e1b5553e66a660001b613a36565b61343d7f02024fc87a1afb1e2ce536207f6b5de3cc7acaededfb8606c2e17214b24179f560001b613a36565b6134697fe9da1ca4377647d9e0668d0847832ca2b6935b08e2084f9dc59f03d81ca5df3160001b613a36565b6134957f4346fb9a542d0f1eeb2d14edd682df62b6948b25e2331769ab1dcfba1291d81960001b613a36565b6134c17f3991de1f36ee4045d030db7910120c0f86c90523158f6fbc6b7337950fa284d560001b613a36565b6134cb8282613a65565b5050565b60cd6020528060005260406000206000915090508060000154908060010154908060020160009054906101000a900460ff16905083565b61350e613a2e565b73ffffffffffffffffffffffffffffffffffffffff1661352c612ee6565b73ffffffffffffffffffffffffffffffffffffffff1614613582576040517f08c379a000000000000000000000000000000000000000000000000000000000815260040161357990614e96565b60405180910390fd5b6135ae7f934b8d352d681f5165eb733e3f76bdd0157b1d07e06509490eec47e9782a9c5160001b613a36565b6135da7fb031952ee45dfdc547fce4c356ce4b08bba3ad164234efefa7970840eba3204b60001b613a36565b6136067f46741d4814206bd4c8ffebbfb5b3bbebc2d8c50dc267e5a320e228cc62c0903460001b613a36565b8060c960006101000a81548173ffffffffffffffffffffffffffffffffffffffff021916908373ffffffffffffffffffffffffffffffffffffffff16021790555050565b60cc602052816000526040600020818154811061366657600080fd5b9060005260206000209060030201600091509150508060000154908060010154908060020154905083565b613699613a2e565b73ffffffffffffffffffffffffffffffffffffffff166136b7612ee6565b73ffffffffffffffffffffffffffffffffffffffff161461370d576040517f08c379a000000000000000000000000000000000000000000000000000000000815260040161370490614e96565b60405180910390fd5b6137397f140578c24b9e19233f61f21d83c6f0779053269c2a913ac197f84bcf781053d160001b613a36565b6137657fa1ea62bba07ef4f9e015da32ff852909c300663098a31a65a431328df67008d660001b613a36565b6137917f9b3d0a38636eef074a4818a3f8321f6a04b7e2a659bc80eb62f9fcc1b767c85460001b613a36565b803073ffffffffffffffffffffffffffffffffffffffff163110156137df577f4e487b7100000000000000000000000000000000000000000000000000000000600052600160045260246000fd5b61380b7fe98cafe8017a6a04a2f63423239ed5b3cb355b2bafe7bf5f575c64b83a21c9ec60001b613a36565b6138377fedc634216a6c9a79facf52e043ea694ee65516ed29e9c5a37b7b0e39e78fee8b60001b613a36565b8173ffffffffffffffffffffffffffffffffffffffff166108fc829081150290604051600060405180830381858888f1935050505015801561387d573d6000803e3d6000fd5b506138aa7fd5195678960667af3135d4c658beabae70cd1a3e6eb05e1f66b2630a3ffe3ce060001b613a36565b6138d67f6f8fe4475f016603ac1f826d3e25f77d73e2b0e0bfa326a72fa88d97565197cc60001b613a36565b80600073ffffffffffffffffffffffffffffffffffffffff168373ffffffffffffffffffffffffffffffffffffffff167f5a6ad959135224fa7091d784adcf326544e674afc0cd3a125f76e2e6b29cc36660405160405180910390a45050565b61393e613a2e565b73ffffffffffffffffffffffffffffffffffffffff1661395c612ee6565b73ffffffffffffffffffffffffffffffffffffffff16146139b2576040517f08c379a00000000000000000000000000000000000000000000000000000000081526004016139a990614e96565b60405180910390fd5b600073ffffffffffffffffffffffffffffffffffffffff168173ffffffffffffffffffffffffffffffffffffffff161415613a22576040517f08c379a0000000000000000000000000000000000000000000000000000000008152600401613a1990614d36565b60405180910390fd5b613a2b81613e53565b50565b600033905090565b50565b60008183613a4791906152ca565b905092915050565b60008183613a5d91906150dd565b905092915050565b613a917fbe1c7234d74759010285149f33c88243f9a6ca15731c0c6e6733301da18ef0d460001b613a36565b613abd7f8af990e5cfff66f4f3624fbc06ab4d988ff9c802f6fc9d51e89ecfb45a3a75f460001b613a36565b613ae97fd04fb8a36fe965378210d64a5f4de7729a7cbc177682dd1ac00d781cb07f6fbe60001b613a36565b600060cd60008473ffffffffffffffffffffffffffffffffffffffff1673ffffffffffffffffffffffffffffffffffffffff1681526020019081526020016000209050613b587fe6a3c9a49751ad9a3eb186c3fb458ce71675a7190082fd8e8555cdbf28c4a67d60001b613a36565b613b847f9d33dcba7a22eebfb51de1e7ce721da4e2360b5ea477508b34b5d1ec21b66d8260001b613a36565b613b9b828260010154613e2790919063ffffffff16565b8160010181905550505050565b6000613bd67f360894a13ba1a3210667c828492db98dca3e2076cc3735a920a3ca505d382bbc60001b6140b3565b60000160009054906101000a900473ffffffffffffffffffffffffffffffffffffffff16905090565b613c07613a2e565b73ffffffffffffffffffffffffffffffffffffffff16613c25612ee6565b73ffffffffffffffffffffffffffffffffffffffff1614613c7b576040517f08c379a0000000000000000000000000000000000000000000000000000000008152600401613c7290614e96565b60405180910390fd5b613ca77f16d9b6cd0fc2df8f3a5af63436c5ddbff662f04a8ff59b0d6d1352afb34df1bb60001b613a36565b50565b613cd67f4910fdfa16fed3260ed0e7147f7cc6da11a60208b5b9406d12a635614ffd914360001b6140bd565b60000160009054906101000a900460ff1615613cfa57613cf5836140c7565b613e22565b8273ffffffffffffffffffffffffffffffffffffffff166352d1902d6040518163ffffffff1660e01b815260040160206040518083038186803b158015613d4057600080fd5b505afa925050508015613d7157506040513d601f19601f82011682018060405250810190613d6e9190614806565b60015b613db0576040517f08c379a0000000000000000000000000000000000000000000000000000000008152600401613da790614e56565b60405180910390fd5b7f360894a13ba1a3210667c828492db98dca3e2076cc3735a920a3ca505d382bbc60001b8114613e15576040517f08c379a0000000000000000000000000000000000000000000000000000000008152600401613e0c90614df6565b60405180910390fd5b50613e21838383614180565b5b505050565b60008183613e359190615087565b905092915050565b60008183613e4b9190615324565b905092915050565b6000603360009054906101000a900473ffffffffffffffffffffffffffffffffffffffff16905081603360006101000a81548173ffffffffffffffffffffffffffffffffffffffff021916908373ffffffffffffffffffffffffffffffffffffffff1602179055508173ffffffffffffffffffffffffffffffffffffffff168173ffffffffffffffffffffffffffffffffffffffff167f8be0079c531659141344cd1fd0a4f28419497f9722a3daafe3b4186f6b6457e060405160405180910390a35050565b60008060019054906101000a900460ff1615613f905760018260ff16148015613f485750613f46306141ac565b155b613f87576040517f08c379a0000000000000000000000000000000000000000000000000000000008152600401613f7e90614e16565b60405180910390fd5b60009050614004565b8160ff1660008054906101000a900460ff1660ff1610613fe5576040517f08c379a0000000000000000000000000000000000000000000000000000000008152600401613fdc90614e16565b60405180910390fd5b816000806101000a81548160ff021916908360ff160217905550600190505b919050565b600060019054906101000a900460ff16614058576040517f08c379a000000000000000000000000000000000000000000000000000000000815260040161404f90614f56565b60405180910390fd5b6140606141cf565b565b600060019054906101000a900460ff166140b1576040517f08c379a00000000000000000000000000000000000000000000000000000000081526004016140a890614f56565b60405180910390fd5b565b6000819050919050565b6000819050919050565b6140d0816141ac565b61410f576040517f08c379a000000000000000000000000000000000000000000000000000000000815260040161410690614e76565b60405180910390fd5b8061413c7f360894a13ba1a3210667c828492db98dca3e2076cc3735a920a3ca505d382bbc60001b6140b3565b60000160006101000a81548173ffffffffffffffffffffffffffffffffffffffff021916908373ffffffffffffffffffffffffffffffffffffffff16021790555050565b61418983614230565b6000825111806141965750805b156141a7576141a5838361427f565b505b505050565b6000808273ffffffffffffffffffffffffffffffffffffffff163b119050919050565b600060019054906101000a900460ff1661421e576040517f08c379a000000000000000000000000000000000000000000000000000000000815260040161421590614f56565b60405180910390fd5b61422e614229613a2e565b613e53565b565b614239816140c7565b8073ffffffffffffffffffffffffffffffffffffffff167fbc7cd75a20ee27fd9adebab32041f755214dbc6bffa90cc0225b39da2e5c2d3b60405160405180910390a250565b606061428a836141ac565b6142c9576040517f08c379a00000000000000000000000000000000000000000000000000000000081526004016142c090614ef6565b60405180910390fd5b6000808473ffffffffffffffffffffffffffffffffffffffff16846040516142f19190614c4c565b600060405180830381855af49150503d806000811461432c576040519150601f19603f3d011682016040523d82523d6000602084013e614331565b606091505b50915091506143598282604051806060016040528060278152602001615a9160279139614363565b9250505092915050565b60608315614373578290506143c3565b6000835111156143865782518084602001fd5b816040517f08c379a00000000000000000000000000000000000000000000000000000000081526004016143ba9190614d14565b60405180910390fd5b9392505050565b8280546143d69061543d565b90600052602060002090601f0160209004810192826143f8576000855561443f565b82601f1061441157803560ff191683800117855561443f565b8280016001018555821561443f579182015b8281111561443e578235825591602001919060010190614423565b5b50905061444c9190614450565b5090565b5b80821115614469576000816000905550600101614451565b5090565b600061448061447b84615024565b614fff565b90508281526020810184848401111561449857600080fd5b6144a38482856153fb565b509392505050565b6000813590506144ba816159d8565b92915050565b6000813590506144cf816159ef565b92915050565b6000813590506144e481615a06565b92915050565b6000815190506144f981615a06565b92915050565b60008151905061450e81615a1d565b92915050565b600082601f83011261452557600080fd5b813561453584826020860161446d565b91505092915050565b60008151905061454d81615a34565b92915050565b60008083601f84011261456557600080fd5b8235905067ffffffffffffffff81111561457e57600080fd5b60208301915083600182028301111561459657600080fd5b9250929050565b6000813590506145ac81615a4b565b92915050565b6000815190506145c181615a4b565b92915050565b6000815190506145d681615a79565b92915050565b6000815190506145eb81615a62565b92915050565b60006020828403121561460357600080fd5b6000614611848285016144ab565b91505092915050565b6000806040838503121561462d57600080fd5b600061463b858286016144c0565b925050602061464c8582860161459d565b9150509250929050565b60008060006060848603121561466b57600080fd5b6000614679868287016144ab565b935050602061468a868287016144ab565b925050604061469b8682870161459d565b9150509250925092565b600080604083850312156146b857600080fd5b60006146c6858286016144ab565b92505060206146d7858286016144d5565b9150509250929050565b600080604083850312156146f457600080fd5b6000614702858286016144ab565b925050602083013567ffffffffffffffff81111561471f57600080fd5b61472b85828601614514565b9150509250929050565b6000806040838503121561474857600080fd5b6000614756858286016144ab565b92505060206147678582860161459d565b9150509250929050565b6000806000806060858703121561478757600080fd5b6000614795878288016144ab565b94505060206147a68782880161459d565b935050604085013567ffffffffffffffff8111156147c357600080fd5b6147cf87828801614553565b925092505092959194509250565b6000602082840312156147ef57600080fd5b60006147fd848285016144ea565b91505092915050565b60006020828403121561481857600080fd5b6000614826848285016144ff565b91505092915050565b60006020828403121561484157600080fd5b600061484f8482850161459d565b91505092915050565b60006020828403121561486a57600080fd5b6000614878848285016145b2565b91505092915050565b600080600080600060a0868803121561489957600080fd5b60006148a7888289016145c7565b95505060206148b88882890161453e565b94505060406148c9888289016145b2565b93505060606148da888289016145b2565b92505060806148eb888289016145c7565b9150509295509295909350565b60006020828403121561490a57600080fd5b6000614918848285016145dc565b91505092915050565b61492a81615358565b82525050565b6149398161537c565b82525050565b61494881615388565b82525050565b600061495982615055565b614963818561506b565b935061497381856020860161540a565b80840191505092915050565b614988816153e9565b82525050565b600061499982615060565b6149a38185615076565b93506149b381856020860161540a565b6149bc8161555c565b840191505092915050565b60006149d4602683615076565b91506149df8261557a565b604082019050919050565b60006149f7601583615076565b9150614a02826155c9565b602082019050919050565b6000614a1a602c83615076565b9150614a25826155f2565b604082019050919050565b6000614a3d602c83615076565b9150614a4882615641565b604082019050919050565b6000614a60601383615076565b9150614a6b82615690565b602082019050919050565b6000614a83603883615076565b9150614a8e826156b9565b604082019050919050565b6000614aa6602983615076565b9150614ab182615708565b604082019050919050565b6000614ac9602e83615076565b9150614ad482615757565b604082019050919050565b6000614aec601283615076565b9150614af7826157a6565b602082019050919050565b6000614b0f602e83615076565b9150614b1a826157cf565b604082019050919050565b6000614b32602d83615076565b9150614b3d8261581e565b604082019050919050565b6000614b55602083615076565b9150614b608261586d565b602082019050919050565b6000614b78601583615076565b9150614b8382615896565b602082019050919050565b6000614b9b601783615076565b9150614ba6826158bf565b602082019050919050565b6000614bbe602683615076565b9150614bc9826158e8565b604082019050919050565b6000614be1601583615076565b9150614bec82615937565b602082019050919050565b6000614c04601283615076565b9150614c0f82615960565b602082019050919050565b6000614c27602b83615076565b9150614c3282615989565b604082019050919050565b614c46816153bc565b82525050565b6000614c58828461494e565b915081905092915050565b6000602082019050614c786000830184614921565b92915050565b6000606082019050614c936000830186614921565b614ca06020830185614921565b614cad6040830184614c3d565b949350505050565b6000604082019050614cca6000830185614921565b614cd76020830184614c3d565b9392505050565b6000602082019050614cf3600083018461493f565b92915050565b6000602082019050614d0e600083018461497f565b92915050565b60006020820190508181036000830152614d2e818461498e565b905092915050565b60006020820190508181036000830152614d4f816149c7565b9050919050565b60006020820190508181036000830152614d6f816149ea565b9050919050565b60006020820190508181036000830152614d8f81614a0d565b9050919050565b60006020820190508181036000830152614daf81614a30565b9050919050565b60006020820190508181036000830152614dcf81614a53565b9050919050565b60006020820190508181036000830152614def81614a76565b9050919050565b60006020820190508181036000830152614e0f81614a99565b9050919050565b60006020820190508181036000830152614e2f81614abc565b9050919050565b60006020820190508181036000830152614e4f81614adf565b9050919050565b60006020820190508181036000830152614e6f81614b02565b9050919050565b60006020820190508181036000830152614e8f81614b25565b9050919050565b60006020820190508181036000830152614eaf81614b48565b9050919050565b60006020820190508181036000830152614ecf81614b6b565b9050919050565b60006020820190508181036000830152614eef81614b8e565b9050919050565b60006020820190508181036000830152614f0f81614bb1565b9050919050565b60006020820190508181036000830152614f2f81614bd4565b9050919050565b60006020820190508181036000830152614f4f81614bf7565b9050919050565b60006020820190508181036000830152614f6f81614c1a565b9050919050565b6000602082019050614f8b6000830184614c3d565b92915050565b6000606082019050614fa66000830186614c3d565b614fb36020830185614c3d565b614fc06040830184614930565b949350505050565b6000606082019050614fdd6000830186614c3d565b614fea6020830185614c3d565b614ff76040830184614c3d565b949350505050565b600061500961501a565b9050615015828261546f565b919050565b6000604051905090565b600067ffffffffffffffff82111561503f5761503e61552d565b5b6150488261555c565b9050602081019050919050565b600081519050919050565b600081519050919050565b600081905092915050565b600082825260208201905092915050565b6000615092826153bc565b915061509d836153bc565b9250827fffffffffffffffffffffffffffffffffffffffffffffffffffffffffffffffff038211156150d2576150d16154a0565b5b828201905092915050565b60006150e8826153bc565b91506150f3836153bc565b925082615103576151026154cf565b5b828204905092915050565b6000808291508390505b600185111561515857808604811115615134576151336154a0565b5b60018516156151435780820291505b80810290506151518561556d565b9450615118565b94509492505050565b600061516c826153bc565b9150615177836153bc565b92506151a47fffffffffffffffffffffffffffffffffffffffffffffffffffffffffffffffff84846151f7565b905092915050565b60006151b7826153bc565b91506151c2836153c6565b92506151ef7fffffffffffffffffffffffffffffffffffffffffffffffffffffffffffffffff84846151f7565b905092915050565b60008261520757600190506152c3565b8161521557600090506152c3565b816001811461522b576002811461523557615264565b60019150506152c3565b60ff841115615247576152466154a0565b5b8360020a91508482111561525e5761525d6154a0565b5b506152c3565b5060208310610133831016604e8410600b84101617156152995782820a905083811115615294576152936154a0565b5b6152c3565b6152a6848484600161510e565b925090508184048111156152bd576152bc6154a0565b5b81810290505b9392505050565b60006152d5826153bc565b91506152e0836153bc565b9250817fffffffffffffffffffffffffffffffffffffffffffffffffffffffffffffffff0483118215151615615319576153186154a0565b5b828202905092915050565b600061532f826153bc565b915061533a836153bc565b92508282101561534d5761534c6154a0565b5b828203905092915050565b60006153638261539c565b9050919050565b60006153758261539c565b9050919050565b60008115159050919050565b6000819050919050565b6000819050919050565b600073ffffffffffffffffffffffffffffffffffffffff82169050919050565b6000819050919050565b600060ff82169050919050565b600069ffffffffffffffffffff82169050919050565b60006153f4826153c6565b9050919050565b82818337600083830152505050565b60005b8381101561542857808201518184015260208101905061540d565b83811115615437576000848401525b50505050565b6000600282049050600182168061545557607f821691505b60208210811415615469576154686154fe565b5b50919050565b6154788261555c565b810181811067ffffffffffffffff821117156154975761549661552d565b5b80604052505050565b7f4e487b7100000000000000000000000000000000000000000000000000000000600052601160045260246000fd5b7f4e487b7100000000000000000000000000000000000000000000000000000000600052601260045260246000fd5b7f4e487b7100000000000000000000000000000000000000000000000000000000600052602260045260246000fd5b7f4e487b7100000000000000000000000000000000000000000000000000000000600052604160045260246000fd5b6000601f19601f8301169050919050565b60008160011c9050919050565b7f4f776e61626c653a206e6577206f776e657220697320746865207a65726f206160008201527f6464726573730000000000000000000000000000000000000000000000000000602082015250565b7f416464726573732063616e2774206265207a65726f0000000000000000000000600082015250565b7f46756e6374696f6e206d7573742062652063616c6c6564207468726f7567682060008201527f64656c656761746563616c6c0000000000000000000000000000000000000000602082015250565b7f46756e6374696f6e206d7573742062652063616c6c6564207468726f7567682060008201527f6163746976652070726f78790000000000000000000000000000000000000000602082015250565b7f696e737566666963656e742042616c616e636500000000000000000000000000600082015250565b7f555550535570677261646561626c653a206d757374206e6f742062652063616c60008201527f6c6564207468726f7567682064656c656761746563616c6c0000000000000000602082015250565b7f45524331393637557067726164653a20756e737570706f727465642070726f7860008201527f6961626c65555549440000000000000000000000000000000000000000000000602082015250565b7f496e697469616c697a61626c653a20636f6e747261637420697320616c72656160008201527f647920696e697469616c697a6564000000000000000000000000000000000000602082015250565b7f726174652063616e2774206265207a65726f0000000000000000000000000000600082015250565b7f45524331393637557067726164653a206e657720696d706c656d656e7461746960008201527f6f6e206973206e6f742055555053000000000000000000000000000000000000602082015250565b7f455243313936373a206e657720696d706c656d656e746174696f6e206973206e60008201527f6f74206120636f6e747261637400000000000000000000000000000000000000602082015250565b7f4f776e61626c653a2063616c6c6572206973206e6f7420746865206f776e6572600082015250565b7f7375676765737420636f696e20746f2041646d696e0000000000000000000000600082015250565b7f4163636f756e74204e6f742057686974656c6973746564000000000000000000600082015250565b7f416464726573733a2064656c65676174652063616c6c20746f206e6f6e2d636f60008201527f6e74726163740000000000000000000000000000000000000000000000000000602082015250565b7f636f696e20616c72656164792064697361626c65640000000000000000000000600082015250565b7f70726963652066656564206e6f74207365740000000000000000000000000000600082015250565b7f496e697469616c697a61626c653a20636f6e7472616374206973206e6f74206960008201527f6e697469616c697a696e67000000000000000000000000000000000000000000602082015250565b6159e181615358565b81146159ec57600080fd5b50565b6159f88161536a565b8114615a0357600080fd5b50565b615a0f8161537c565b8114615a1a57600080fd5b50565b615a2681615388565b8114615a3157600080fd5b50565b615a3d81615392565b8114615a4857600080fd5b50565b615a54816153bc565b8114615a5f57600080fd5b50565b615a6b816153c6565b8114615a7657600080fd5b50565b615a82816153d3565b8114615a8d57600080fd5b5056fe416464726573733a206c6f772d6c6576656c2064656c65676174652063616c6c206661696c6564a26469706673582212203b1fb2d9cedb8907c0fcbc8267b8283fe1b4f53c8df56dcd54eb87c7b568a8c864736f6c63430008040033",
  "linkReferences": {},
  "deployedLinkReferences": {}
}