{
  "_format": "hh-sol-artifact-1",
  "contractName": "DepositManager",
  "sourceName": "contracts/core/DepositManager.sol",
  "abi": [
    {
      "anonymous": false,
      "inputs": [
        {
          "indexed": true,
          "internalType": "address",
          "name": "depositor",
          "type": "address"
        },
        {
          "indexed": true,
          "internalType": "address",
          "name": "coinAddress",
          "type": "address"
        },
        {
          "indexed": false,
          "internalType": "uint256",
          "name": "amount",
          "type": "uint256"
        },
        {
          "indexed": false,
          "internalType": "uint256",
          "name": "rate",
          "type": "uint256"
        },
        {
          "indexed": false,
          "internalType": "uint256",
          "name": "storagePurchased",
          "type": "uint256"
        }
      ],
      "name": "AddDepositEvent",
      "type": "event"
    },
    {
      "anonymous": false,
      "inputs": [
        {
          "indexed": false,
          "internalType": "address",
          "name": "previousAdmin",
          "type": "address"
        },
        {
          "indexed": false,
          "internalType": "address",
          "name": "newAdmin",
          "type": "address"
        }
      ],
      "name": "AdminChanged",
      "type": "event"
    },
    {
      "anonymous": false,
      "inputs": [
        {
          "indexed": true,
          "internalType": "address",
          "name": "beacon",
          "type": "address"
        }
      ],
      "name": "BeaconUpgraded",
      "type": "event"
    },
    {
      "anonymous": false,
      "inputs": [
        {
          "indexed": false,
          "internalType": "uint8",
          "name": "version",
          "type": "uint8"
        }
      ],
      "name": "Initialized",
      "type": "event"
    },
    {
      "anonymous": false,
      "inputs": [
        {
          "indexed": true,
          "internalType": "address",
          "name": "previousOwner",
          "type": "address"
        },
        {
          "indexed": true,
          "internalType": "address",
          "name": "newOwner",
          "type": "address"
        }
      ],
      "name": "OwnershipTransferred",
      "type": "event"
    },
    {
      "anonymous": false,
      "inputs": [
        {
          "indexed": true,
          "internalType": "address",
          "name": "implementation",
          "type": "address"
        }
      ],
      "name": "Upgraded",
      "type": "event"
    },
    {
      "anonymous": false,
      "inputs": [
        {
          "indexed": true,
          "internalType": "address",
          "name": "whitelistAddress",
          "type": "address"
        },
        {
          "indexed": true,
          "internalType": "bool",
          "name": "status",
          "type": "bool"
        }
      ],
      "name": "whiteListingAddressEvent",
      "type": "event"
    },
    {
      "inputs": [
        {
          "internalType": "address",
          "name": "_coinAddress",
          "type": "address"
        },
        {
          "internalType": "uint256",
          "name": "rate",
          "type": "uint256"
        }
      ],
      "name": "addCoin",
      "outputs": [],
      "stateMutability": "nonpayable",
      "type": "function"
    },
    {
      "inputs": [
        {
          "internalType": "address",
          "name": "_coinAddress",
          "type": "address"
        },
        {
          "internalType": "uint256",
          "name": "_amount",
          "type": "uint256"
        }
      ],
      "name": "addDeposit",
      "outputs": [],
      "stateMutability": "nonpayable",
      "type": "function"
    },
    {
      "inputs": [
        {
          "internalType": "uint256",
          "name": "newCost",
          "type": "uint256"
        }
      ],
      "name": "changeCostOfStorage",
      "outputs": [],
      "stateMutability": "nonpayable",
      "type": "function"
    },
    {
      "inputs": [
        {
          "internalType": "address",
          "name": "aggregatorAddressFeed",
          "type": "address"
        }
      ],
      "name": "changePriceFeed",
      "outputs": [],
      "stateMutability": "nonpayable",
      "type": "function"
    },
    {
      "inputs": [],
      "name": "costOfStorage",
      "outputs": [
        {
          "internalType": "uint256",
          "name": "",
          "type": "uint256"
        }
      ],
      "stateMutability": "view",
      "type": "function"
    },
    {
      "inputs": [
        {
          "internalType": "address",
          "name": "",
          "type": "address"
        },
        {
          "internalType": "uint256",
          "name": "",
          "type": "uint256"
        }
      ],
      "name": "deposits",
      "outputs": [
        {
          "internalType": "uint256",
          "name": "timestamp",
          "type": "uint256"
        },
        {
          "internalType": "uint256",
          "name": "amount",
          "type": "uint256"
        },
        {
          "internalType": "uint256",
          "name": "storagePurchased",
          "type": "uint256"
        }
      ],
      "stateMutability": "view",
      "type": "function"
    },
    {
      "inputs": [
        {
          "internalType": "address",
          "name": "_address",
          "type": "address"
        }
      ],
      "name": "getAvailableSpace",
      "outputs": [
        {
          "internalType": "uint256",
          "name": "",
          "type": "uint256"
        }
      ],
      "stateMutability": "view",
      "type": "function"
    },
    {
      "inputs": [
        {
          "internalType": "uint256",
          "name": "size",
          "type": "uint256"
        }
      ],
      "name": "getStorageCost",
      "outputs": [
        {
          "internalType": "uint256",
          "name": "",
          "type": "uint256"
        }
      ],
      "stateMutability": "view",
      "type": "function"
    },
    {
      "inputs": [],
      "name": "initialize",
      "outputs": [],
      "stateMutability": "nonpayable",
      "type": "function"
    },
    {
      "inputs": [
        {
          "internalType": "address",
          "name": "user",
          "type": "address"
        },
        {
          "internalType": "uint256",
          "name": "filesize",
          "type": "uint256"
        },
        {
          "internalType": "string",
          "name": "fileHash",
          "type": "string"
        }
      ],
      "name": "instantStorage",
      "outputs": [],
      "stateMutability": "payable",
      "type": "function"
    },
    {
      "inputs": [],
      "name": "owner",
      "outputs": [
        {
          "internalType": "address",
          "name": "",
          "type": "address"
        }
      ],
      "stateMutability": "view",
      "type": "function"
    },
    {
      "inputs": [],
      "name": "proxiableUUID",
      "outputs": [
        {
          "internalType": "bytes32",
          "name": "",
          "type": "bytes32"
        }
      ],
      "stateMutability": "view",
      "type": "function"
    },
    {
      "inputs": [
        {
          "internalType": "address",
          "name": "_coinAddress",
          "type": "address"
        }
      ],
      "name": "removeCoin",
      "outputs": [],
      "stateMutability": "nonpayable",
      "type": "function"
    },
    {
      "inputs": [],
      "name": "renounceOwnership",
      "outputs": [],
      "stateMutability": "nonpayable",
      "type": "function"
    },
    {
      "inputs": [
        {
          "internalType": "address",
          "name": "_address",
          "type": "address"
        },
        {
          "internalType": "bool",
          "name": "_status",
          "type": "bool"
        }
      ],
      "name": "setWhiteListAddr",
      "outputs": [],
      "stateMutability": "nonpayable",
      "type": "function"
    },
    {
      "inputs": [
        {
          "internalType": "address",
          "name": "",
          "type": "address"
        }
      ],
      "name": "storageList",
      "outputs": [
        {
          "internalType": "uint256",
          "name": "totalStored",
          "type": "uint256"
        },
        {
          "internalType": "uint256",
          "name": "availableStorage",
          "type": "uint256"
        }
      ],
      "stateMutability": "view",
      "type": "function"
    },
    {
      "inputs": [
        {
          "internalType": "address",
          "name": "_coinAddress",
          "type": "address"
        },
        {
          "internalType": "address",
          "name": "wallet",
          "type": "address"
        },
        {
          "internalType": "uint256",
          "name": "amount",
          "type": "uint256"
        }
      ],
      "name": "transferAmount",
      "outputs": [],
      "stateMutability": "nonpayable",
      "type": "function"
    },
    {
      "inputs": [
        {
          "internalType": "address",
          "name": "newOwner",
          "type": "address"
        }
      ],
      "name": "transferOwnership",
      "outputs": [],
      "stateMutability": "nonpayable",
      "type": "function"
    },
    {
      "inputs": [
        {
          "internalType": "address",
          "name": "user",
          "type": "address"
        },
        {
          "internalType": "uint256",
          "name": "addOnStorage",
          "type": "uint256"
        }
      ],
      "name": "updateAvailableStorage",
      "outputs": [],
      "stateMutability": "nonpayable",
      "type": "function"
    },
    {
      "inputs": [
        {
          "internalType": "address",
          "name": "user",
          "type": "address"
        },
        {
          "internalType": "uint256",
          "name": "filesize",
          "type": "uint256"
        },
        {
          "internalType": "string",
          "name": "fileHash",
          "type": "string"
        }
      ],
      "name": "updateStorage",
      "outputs": [],
      "stateMutability": "nonpayable",
      "type": "function"
    },
    {
      "inputs": [
        {
          "internalType": "address",
          "name": "newImplementation",
          "type": "address"
        }
      ],
      "name": "upgradeTo",
      "outputs": [],
      "stateMutability": "nonpayable",
      "type": "function"
    },
    {
      "inputs": [
        {
          "internalType": "address",
          "name": "newImplementation",
          "type": "address"
        },
        {
          "internalType": "bytes",
          "name": "data",
          "type": "bytes"
        }
      ],
      "name": "upgradeToAndCall",
      "outputs": [],
      "stateMutability": "payable",
      "type": "function"
    }
  ],
  "bytecode": "0x60a06040523073ffffffffffffffffffffffffffffffffffffffff1660809073ffffffffffffffffffffffffffffffffffffffff1660601b81525034801561004657600080fd5b5060805160601c61515d6100816000396000818161116a015281816111f901528181611909015281816119980152611a48015261515d6000f3fe6080604052600436106101355760003560e01c80636e19aca1116100ab578063b40148791161006f578063b4014879146103ba578063b49f33c8146103e3578063bae26f981461040c578063cbd3df381461044a578063d6d6817714610473578063f2fde38b146104b257610135565b80636e19aca11461031c578063715018a6146103385780638129fc1c1461034f57806388363bf6146103665780638da5cb5b1461038f57610135565b80633abd847b116100fd5780633abd847b146102095780634a5676b8146102325780634ce639d21461026f5780634f1ef286146102ac57806352d1902d146102c8578063595ba768146102f357610135565b806301f474711461013a57806311088206146101635780632bf31cea1461018e57806333026bb6146101b75780633659cfe6146101e0575b600080fd5b34801561014657600080fd5b50610161600480360381019061015c9190613d57565b6104db565b005b34801561016f57600080fd5b506101786107b3565b6040516101859190614668565b60405180910390f35b34801561019a57600080fd5b506101b560048036038101906101b09190613f30565b610841565b005b3480156101c357600080fd5b506101de60048036038101906101d99190613e36565b61094b565b005b3480156101ec57600080fd5b5061020760048036038101906102029190613d2e565b611168565b005b34801561021557600080fd5b50610230600480360381019061022b9190613da6565b611317565b005b34801561023e57600080fd5b5061025960048036038101906102549190613d2e565b611510565b6040516102669190614668565b60405180910390f35b34801561027b57600080fd5b5061029660048036038101906102919190613f30565b6115e0565b6040516102a39190614668565b60405180910390f35b6102c660048036038101906102c19190613de2565b611907565b005b3480156102d457600080fd5b506102dd611a44565b6040516102ea91906143d0565b60405180910390f35b3480156102ff57600080fd5b5061031a60048036038101906103159190613e72565b611afd565b005b61033660048036038101906103319190613e72565b611fbc565b005b34801561034457600080fd5b5061034d6123a3565b005b34801561035b57600080fd5b5061036461242b565b005b34801561037257600080fd5b5061038d60048036038101906103889190613d2e565b6125a6565b005b34801561039b57600080fd5b506103a4612941565b6040516103b19190614355565b60405180910390f35b3480156103c657600080fd5b506103e160048036038101906103dc9190613e36565b61296b565b005b3480156103ef57600080fd5b5061040a60048036038101906104059190613e36565b612cc7565b005b34801561041857600080fd5b50610433600480360381019061042e9190613d2e565b612f2a565b604051610441929190614683565b60405180910390f35b34801561045657600080fd5b50610471600480360381019061046c9190613d2e565b612f4e565b005b34801561047f57600080fd5b5061049a60048036038101906104959190613e36565b613092565b6040516104a9939291906146ac565b60405180910390f35b3480156104be57600080fd5b506104d960048036038101906104d49190613d2e565b6130d9565b005b6104e36131d1565b73ffffffffffffffffffffffffffffffffffffffff16610501612941565b73ffffffffffffffffffffffffffffffffffffffff1614610557576040517f08c379a000000000000000000000000000000000000000000000000000000000815260040161054e90614588565b60405180910390fd5b6105837f61980388e398500aa3454ce161ab78d8379238a0a3b91fdacafd5a46a335796b60001b6131d9565b6105af7f3f2307eb1706b716a076b4cb609efed32dc3c0b66b747377547b9742a3d6ec7260001b6131d9565b6105db7f065bc7524f061ba86646ebfa5eaba67ad69b945a59f29f81f2a737667be6c21260001b6131d9565b6106077f7d28c3bbbfc337f22d17be0bd963de5a4a5fd185f976c0cce9d1bb9ec8d9873760001b6131d9565b8273ffffffffffffffffffffffffffffffffffffffff166370a08231306040518263ffffffff1660e01b81526004016106409190614355565b60206040518083038186803b15801561065857600080fd5b505afa15801561066c573d6000803e3d6000fd5b505050506040513d601f19601f820116820180604052508101906106909190613f59565b81111561069c57600080fd5b6106c87f8cecd5c7cc6e49599e4fc38da24faae9f8b909e59815f00b503e43359378e86e60001b6131d9565b6106f47f98aa468c2f27cdecaf498101b3117b69a34b62fd788f73f6f6ce6f289dad689060001b6131d9565b6107207f44d68049d0492e0fa633f68713be25e706f99be178e234e5e4ddcbe9b8b2873b60001b6131d9565b8273ffffffffffffffffffffffffffffffffffffffff1663a9059cbb83836040518363ffffffff1660e01b815260040161075b9291906143a7565b602060405180830381600087803b15801561077557600080fd5b505af1158015610789573d6000803e3d6000fd5b505050506040513d601f19601f820116820180604052508101906107ad9190613ede565b50505050565b60006107e17fe17b8250f4b655feac4cb645da7ec5e406bea432bb5bb97746e560393e6409e960001b6131d9565b61080d7f18ba8271bd6dda250d81d3951536b98f539533d2137d530d996780a403e9b9e260001b6131d9565b6108397f89d27d6d0be77c27c46fb639ea5762420c1c1cf15562436915c6c7d865df7f9b60001b6131d9565b60ca54905090565b6108496131d1565b73ffffffffffffffffffffffffffffffffffffffff16610867612941565b73ffffffffffffffffffffffffffffffffffffffff16146108bd576040517f08c379a00000000000000000000000000000000000000000000000000000000081526004016108b490614588565b60405180910390fd5b6108e97fe17a69400edc416663ea22814ab76b537b169065d1a049f574856ef911208ca260001b6131d9565b6109157fd8517a2575c79f960b2b084f39d126979aa355e36a03ace71d046d4c51aa454560001b6131d9565b6109417f47a18a300934de20aae2964bf4c53ed93ef9f1c31652adcff3360f6d8ba455c260001b6131d9565b8060ca8190555050565b6109777f93822b1be40c1b06ca2edd2c7539ea5a1d9aef75724cbfad187e42d68e60048460001b6131d9565b6109a37f9495714c34bbe29d0798ec1a71b66f19c1f7a5e2b55fb84d4bbf8faae28c289760001b6131d9565b6109cf7f85e21a5fbf3c52cf13aaa263b95701fc78533e54c18d7a7317080a6f5dacadfb60001b6131d9565b6000339050610a007fa489e03f576ada78e0b862c63acecf95533a0946117fc6e7907ea63c4dc8d56760001b6131d9565b610a2c7f2819c457c03cb40d07d43ad5a58723d49eb885bcc94474456657c48684a0cfad60001b6131d9565b60008373ffffffffffffffffffffffffffffffffffffffff1663313ce5676040518163ffffffff1660e01b815260040160206040518083038186803b158015610a7457600080fd5b505afa158015610a88573d6000803e3d6000fd5b505050506040513d601f19601f82011682018060405250810190610aac9190613ff9565b60ff169050610add7f8135fdda0c71e8219152b8f3a71bc3ae311b31f5ff78d23c79addb0604f251c060001b6131d9565b610b097fc7bf0eae47a35a23d36a38c54c854f39b36ad3fba50c5408ca803bb6952c0f3060001b6131d9565b610b357ff994b5f27b2ea98770b98bc46e25824e66ba31018eb5721a0fb283698812787860001b6131d9565b600060ce60008673ffffffffffffffffffffffffffffffffffffffff1673ffffffffffffffffffffffffffffffffffffffff168152602001908152602001600020541415610bb8576040517f08c379a0000000000000000000000000000000000000000000000000000000008152600401610baf906145a8565b60405180910390fd5b610be47fb8ced67e3490ac818e31e2c75242106a6135881ecd3c6dc9032a399a115f463f60001b6131d9565b610c107fec5668014688410478ca098868bbec7f5be5c2a6b85ec33fab6c94e4271896e060001b6131d9565b610c3c7f01eaa8d6fe8f7d1843a4e3e878ca7bc6dd9ff7314451e4dfd380a22d1029d32d60001b6131d9565b610c687f934b8d352d681f5165eb733e3f76bdd0157b1d07e06509490eec47e9782a9c5160001b6131d9565b828473ffffffffffffffffffffffffffffffffffffffff166370a08231846040518263ffffffff1660e01b8152600401610ca29190614355565b60206040518083038186803b158015610cba57600080fd5b505afa158015610cce573d6000803e3d6000fd5b505050506040513d601f19601f82011682018060405250810190610cf29190613f59565b1015610d33576040517f08c379a0000000000000000000000000000000000000000000000000000000008152600401610d2a906144a8565b60405180910390fd5b610d5f7fb031952ee45dfdc547fce4c356ce4b08bba3ad164234efefa7970840eba3204b60001b6131d9565b610d8b7f46741d4814206bd4c8ffebbfb5b3bbebc2d8c50dc267e5a320e228cc62c0903460001b6131d9565b610db77f3d64e2de3f5ebf4a5eed993e2364d0de89cb7705484e162af06947a075f5efb260001b6131d9565b6000610e57620f4240610e4984600a610dd09190614845565b610e3b610ddb6107b3565b610e2d60ce60008d73ffffffffffffffffffffffffffffffffffffffff1673ffffffffffffffffffffffffffffffffffffffff168152602001908152602001600020548b6131dc90919063ffffffff16565b6131dc90919063ffffffff16565b6131f290919063ffffffff16565b6131f290919063ffffffff16565b9050610e857f512e759451a76a6d54154f05e82af6dcc998a05c3588c99a444ff5cee381850f60001b6131d9565b610eb17fe76a1c3a10cf8e40c1f2c58a778da0c1a5b22f180e8233068d3ffa9befd8389460001b6131d9565b60cb60003373ffffffffffffffffffffffffffffffffffffffff1673ffffffffffffffffffffffffffffffffffffffff16815260200190815260200160002060405180606001604052804281526020018681526020018381525090806001815401808255809150506001900390600052602060002090600302016000909190919091506000820151816000015560208201518160010155604082015181600201555050610f807f59a40e4210088d1090d40672a96cc0ee92e98b358edf94bcd1979bc9a59cced760001b6131d9565b610fac7fb71b5e274e9b483124604fcc956fb130f56713323d286cbc331bd6aaf07944e060001b6131d9565b610fb63382613208565b610fe27f684d578d16eae5ab17862041130826865e4dd929d341440377c743f81bb56b5460001b6131d9565b61100e7f1d1ae664f122de981da9d4967f281feac27d3fe051d5d3734e59b5ff25fd583660001b6131d9565b8473ffffffffffffffffffffffffffffffffffffffff166323b872dd8430876040518463ffffffff1660e01b815260040161104b93929190614370565b602060405180830381600087803b15801561106557600080fd5b505af1158015611079573d6000803e3d6000fd5b505050506040513d601f19601f8201168201806040525081019061109d9190613ede565b506110ca7f76bd637750cb88e211431a571ca541d4c9b31d52d2fcb4a4fd954253436092eb60001b6131d9565b6110f67f2a00673f57256c220227d3aedd0a6b1f99fc1a161d10a7468ffda6b11e336c1160001b6131d9565b8473ffffffffffffffffffffffffffffffffffffffff163373ffffffffffffffffffffffffffffffffffffffff167f37d822ecaa322d551ac3fb006e69d00a726925969995ad76c4f6596b5a8cbc568660ca5485604051611159939291906146ac565b60405180910390a35050505050565b7f000000000000000000000000000000000000000000000000000000000000000073ffffffffffffffffffffffffffffffffffffffff163073ffffffffffffffffffffffffffffffffffffffff1614156111f7576040517f08c379a00000000000000000000000000000000000000000000000000000000081526004016111ee90614468565b60405180910390fd5b7f000000000000000000000000000000000000000000000000000000000000000073ffffffffffffffffffffffffffffffffffffffff1661123661334b565b73ffffffffffffffffffffffffffffffffffffffff161461128c576040517f08c379a000000000000000000000000000000000000000000000000000000000815260040161128390614488565b60405180910390fd5b611295816133a2565b61131481600067ffffffffffffffff8111156112da577f4e487b7100000000000000000000000000000000000000000000000000000000600052604160045260246000fd5b6040519080825280601f01601f19166020018201604052801561130c5781602001600182028036833780820191505090505b50600061344d565b50565b61131f6131d1565b73ffffffffffffffffffffffffffffffffffffffff1661133d612941565b73ffffffffffffffffffffffffffffffffffffffff1614611393576040517f08c379a000000000000000000000000000000000000000000000000000000000815260040161138a90614588565b60405180910390fd5b6113bf7faaae5fc79421d0846dd80c49307275d20e4e5027cf30dd571e5edf1b6e9f515660001b6131d9565b6113eb7ff60033dcfd28f15bd2c2625aa5bbc6c8a90391d70b9b216504040226aa7bda4d60001b6131d9565b6114177f042ed3f8d12548fa17b74c27ad8a63f3b91feecf982fbe712e57dfb37773f2e460001b6131d9565b8060cd60008473ffffffffffffffffffffffffffffffffffffffff1673ffffffffffffffffffffffffffffffffffffffff16815260200190815260200160002060006101000a81548160ff02191690831515021790555061149a7f4ac71425736ce94a84b4eb89b61eb8c907d400ca6e8b56f98cc1c4ee2e07a47d60001b6131d9565b6114c67faab13da0d1e9a6cbd96f981556897506e3c2161f5b581057672e0ab8c51bd84b60001b6131d9565b8015158273ffffffffffffffffffffffffffffffffffffffff167f76f7735e60e167186168755b9dafbe4e8ab2ce33e2ef11b45de4c02311222de560405160405180910390a35050565b600061153e7f34e221cb0d3e6a4820f0cb1c8a9be6130f90f68845f359c6da2dd9e4d0bfd0fc60001b6131d9565b61156a7fc634e5acaa358dedc5d66843fd594c268f8c40ed72c8db0b415855c04bbe908160001b6131d9565b6115967f9186403ac09a75cc994666d0522c251f096d90e3d9bc061206aa0ba07828aa7760001b6131d9565b60cc60008373ffffffffffffffffffffffffffffffffffffffff1673ffffffffffffffffffffffffffffffffffffffff168152602001908152602001600020600201549050919050565b600061160e7f20f78783c3a71b8a96500ac28393b9cd14e441be30945a1f82f88238b5bc224460001b6131d9565b61163a7f203e821ecb996521189914f57e35a2b250d4b44ecc7b170b85cbb6af3f58420f60001b6131d9565b6116667f67e2181ddaddffb1aaadd560f42118586839696cfacce19bb854665fa14ac6ec60001b6131d9565b6116927fea2d872b2829170af5f68fbe3fa8d678eab86a5490c24980c2885b5de7b6d5f260001b6131d9565b600073ffffffffffffffffffffffffffffffffffffffff1660c960009054906101000a900473ffffffffffffffffffffffffffffffffffffffff1673ffffffffffffffffffffffffffffffffffffffff161415611724576040517f08c379a000000000000000000000000000000000000000000000000000000000815260040161171b90614628565b60405180910390fd5b6117507fc512bc09624ce89fb2dae3b6cb68a8bfbb728d5b8f873629dc14d2d64cb17bc360001b6131d9565b61177c7fae75beb6e31c1ec9f7f1aefbea6e6af793eb697ce08fc56a6607b9d59015bfac60001b6131d9565b6117a87f6cd6ae5d9c0ce90b7866217031d06921a6e482b8753154d693ff2a21a40af11960001b6131d9565b600060c960009054906101000a900473ffffffffffffffffffffffffffffffffffffffff1673ffffffffffffffffffffffffffffffffffffffff1663feaf968c6040518163ffffffff1660e01b815260040160a06040518083038186803b15801561181257600080fd5b505afa158015611826573d6000803e3d6000fd5b505050506040513d601f19601f8201168201806040525081019061184a9190613f82565b50505091505061187c7f23bd80649a9773d88f3b365de78d2c6e804768776497e7496983acd4dc86692b60001b6131d9565b6118a87f7b57e6ccf65dec02ac5702addd76cc336678b98bcdfae50e0f2a62288d85714860001b6131d9565b6118ff6118c08260ca546131dc90919063ffffffff16565b6118f16305f5e1006118e3670de0b6b3a7640000886131dc90919063ffffffff16565b6131dc90919063ffffffff16565b6131f290919063ffffffff16565b915050919050565b7f000000000000000000000000000000000000000000000000000000000000000073ffffffffffffffffffffffffffffffffffffffff163073ffffffffffffffffffffffffffffffffffffffff161415611996576040517f08c379a000000000000000000000000000000000000000000000000000000000815260040161198d90614468565b60405180910390fd5b7f000000000000000000000000000000000000000000000000000000000000000073ffffffffffffffffffffffffffffffffffffffff166119d561334b565b73ffffffffffffffffffffffffffffffffffffffff1614611a2b576040517f08c379a0000000000000000000000000000000000000000000000000000000008152600401611a2290614488565b60405180910390fd5b611a34826133a2565b611a408282600161344d565b5050565b60007f000000000000000000000000000000000000000000000000000000000000000073ffffffffffffffffffffffffffffffffffffffff163073ffffffffffffffffffffffffffffffffffffffff1614611ad4576040517f08c379a0000000000000000000000000000000000000000000000000000000008152600401611acb906144c8565b60405180910390fd5b7f360894a13ba1a3210667c828492db98dca3e2076cc3735a920a3ca505d382bbc60001b905090565b611b297feb47944574c8dff947385ad1e0ebe32d4575b284cfcb28be473c6c49657c50e460001b6131d9565b611b557f290706689636b50ffd92d8b7034d9ac4b6e5bd467d6fc74b88c18302e6b8b53e60001b6131d9565b611b817f8d5ad8ade10b43239489bd7e790700aac0496bd78a89ee8668e7e1b5553e66a660001b6131d9565b611bad7f02024fc87a1afb1e2ce536207f6b5de3cc7acaededfb8606c2e17214b24179f560001b6131d9565b60cd60003373ffffffffffffffffffffffffffffffffffffffff1673ffffffffffffffffffffffffffffffffffffffff16815260200190815260200160002060009054906101000a900460ff1680611c375750611c08612941565b73ffffffffffffffffffffffffffffffffffffffff163373ffffffffffffffffffffffffffffffffffffffff16145b611c76576040517f08c379a0000000000000000000000000000000000000000000000000000000008152600401611c6d906145c8565b60405180910390fd5b611ca27f140578c24b9e19233f61f21d83c6f0779053269c2a913ac197f84bcf781053d160001b6131d9565b611cce7fa1ea62bba07ef4f9e015da32ff852909c300663098a31a65a431328df67008d660001b6131d9565b611cfa7f9fa6f170a202c41cbdd7094b7fded192ad425325ba14e3bfbdd3f10826823d8060001b6131d9565b611d267fa868e6d950cdb996ccb7bb510c2b5a1c1aa6059014dccfde04f9a0587de7948660001b6131d9565b611d527f9e0c2080077d2b1368853afbf2a2f8154d884a6311f38c79482dd6a753768c1860001b6131d9565b60cc60008573ffffffffffffffffffffffffffffffffffffffff1673ffffffffffffffffffffffffffffffffffffffff168152602001908152602001600020600001828290918060018154018082558091505060019003906000526020600020016000909192909192909192909192509190611dcf929190613b1c565b50611dfc7fa8a3c95ed05b6f041a73579dea68599e07e3d0bb6f72ec9b904b5b0c3b7fd7b660001b6131d9565b611e287f08f3ec0569124580227c54dd7b513d2b541e471ef9653fb6f6c18dfbcbfa124b60001b6131d9565b611e7d8360cc60008773ffffffffffffffffffffffffffffffffffffffff1673ffffffffffffffffffffffffffffffffffffffff168152602001908152602001600020600101546135ca90919063ffffffff16565b60cc60008673ffffffffffffffffffffffffffffffffffffffff1673ffffffffffffffffffffffffffffffffffffffff16815260200190815260200160002060010181905550611eef7ff526df018286a402247873c3dd10f2783b79c6ee2e61c6aca94de7ac56831c3060001b6131d9565b611f1b7fee8a1438eaed6a6558bbf489c7b3339ba3f7e82e3a10ce9f9d5b5ff47f76fce860001b6131d9565b611f708360cc60008773ffffffffffffffffffffffffffffffffffffffff1673ffffffffffffffffffffffffffffffffffffffff168152602001908152602001600020600201546135e090919063ffffffff16565b60cc60008673ffffffffffffffffffffffffffffffffffffffff1673ffffffffffffffffffffffffffffffffffffffff1681526020019081526020016000206002018190555050505050565b611fe87f9832c4717b985acff897a55fac8457c2b8b5773c4952fdd9bcd254192712b3d560001b6131d9565b6120147f07f622d4d765fc77610a99a5d8f7c48c2826113acd28d7433058738c09c10eaf60001b6131d9565b6120407f9e6d8de5734129b05d3879b472a456bb268c23e13233b7cbbe49d0de15556b4260001b6131d9565b612049836115e0565b34101561207f577f4e487b7100000000000000000000000000000000000000000000000000000000600052600160045260246000fd5b6120ab7f5f71174165dd74c46f1815cc86ccb9d405208fedd0a146f53bd94b12a30b459c60001b6131d9565b6120d77fcafd6f79f4f41476cdc2bf8e28056cf95a10fe00510de4c9df6f5e48bb24ffba60001b6131d9565b6120e13384613208565b61210d7f51df34d7ee62532924b281a91527257e9fd459a16a6928048fc1bc582ea2b7e860001b6131d9565b6121397f2f86e6cf046f15d3e76dc11babff38c3265f6a744e6b971d7db76a3b69abed5960001b6131d9565b60cc60008573ffffffffffffffffffffffffffffffffffffffff1673ffffffffffffffffffffffffffffffffffffffff1681526020019081526020016000206000018282909180600181540180825580915050600190039060005260206000200160009091929091929091929091925091906121b6929190613b1c565b506121e37fa0959769a0af30e3acf9d14c81e07875a0d400af94b640686c94bd4dda67fa5560001b6131d9565b61220f7fc1fbcc5f55c60f7a701286587727818c6252586ea8d65f288b209d647191f49b60001b6131d9565b6122648360cc60008773ffffffffffffffffffffffffffffffffffffffff1673ffffffffffffffffffffffffffffffffffffffff168152602001908152602001600020600101546135ca90919063ffffffff16565b60cc60008673ffffffffffffffffffffffffffffffffffffffff1673ffffffffffffffffffffffffffffffffffffffff168152602001908152602001600020600101819055506122d67fe9da1ca4377647d9e0668d0847832ca2b6935b08e2084f9dc59f03d81ca5df3160001b6131d9565b6123027f4346fb9a542d0f1eeb2d14edd682df62b6948b25e2331769ab1dcfba1291d81960001b6131d9565b6123578360cc60008773ffffffffffffffffffffffffffffffffffffffff1673ffffffffffffffffffffffffffffffffffffffff168152602001908152602001600020600201546135e090919063ffffffff16565b60cc60008673ffffffffffffffffffffffffffffffffffffffff1673ffffffffffffffffffffffffffffffffffffffff1681526020019081526020016000206002018190555050505050565b6123ab6131d1565b73ffffffffffffffffffffffffffffffffffffffff166123c9612941565b73ffffffffffffffffffffffffffffffffffffffff161461241f576040517f08c379a000000000000000000000000000000000000000000000000000000000815260040161241690614588565b60405180910390fd5b61242960006135f6565b565b600061243760016136bc565b9050801561245b576001600060016101000a81548160ff0219169083151502179055505b6124877f1f3568bbcbeaba62339b602799d0a9350aad3a27df80a88bd01fb78306c514f460001b6131d9565b6124b37f44d0b989e4f82cf9bca222798be68d4bdcbfa48e3d879fd2356bae6d2ae1240d60001b6131d9565b6124df7f4c201ea130e9dfd2dceef9fc0f3d0b5c7a8b8885167e42f2bf6b2ca2e3db037360001b6131d9565b6124e76137ac565b6125137fe9be45f6cfc5dabf6a8cd2277a9de30c878ff7d48861896508f6cc715a04ffd460001b6131d9565b61253f7f932ca1872b25b2a27b7cccc1bd4fd5e1f0444c2d4e2ecba8a2c0de35247d4f3860001b6131d9565b630ccccccd60ca8190555080156125a35760008060016101000a81548160ff0219169083151502179055507f7f26b83ff96e1f2b6a682f133852f6798a09c465da95921460cefb3847402498600160405161259a91906143eb565b60405180910390a15b50565b6125ae6131d1565b73ffffffffffffffffffffffffffffffffffffffff166125cc612941565b73ffffffffffffffffffffffffffffffffffffffff1614612622576040517f08c379a000000000000000000000000000000000000000000000000000000000815260040161261990614588565b60405180910390fd5b61264e7fd1a2f59381d0de5c1d697e3c39d6d543bb605139fdce2472bc9ddb04627c43c660001b6131d9565b61267a7ffe4f9c9a52f516a17f142bd6584d11abe9c718c8beda0459cb2f55a11a9957ef60001b6131d9565b6126a67f994884e2cec0c941eb9e71bf5e0b73c6c2ca54d95301a7aeb862becc51fa176f60001b6131d9565b6126d27fa9313163c6164505ee2e4a595178420c17c480a5194dad60c2fcf6c34222681c60001b6131d9565b600073ffffffffffffffffffffffffffffffffffffffff168173ffffffffffffffffffffffffffffffffffffffff161415612742576040517f08c379a000000000000000000000000000000000000000000000000000000000815260040161273990614448565b60405180910390fd5b61276e7fb0a9307e9e62fec713681c49ae0ffd1d22948a538ddd9c9c47d39b1020a9650b60001b6131d9565b61279a7f1b0d96aabc58f81e59245b313fd03dd5d72f4984cde4a695a340b08ccdc03a3260001b6131d9565b6127c67fd9ddfa5d7cd55c33576e46864cd4c81c9746247ce7530deb25c23d64feba1c1860001b6131d9565b6127f27f2f4347472142082ff78d35fcab14013ab5997f650262752666e3a5696a79216060001b6131d9565b600060ce60008373ffffffffffffffffffffffffffffffffffffffff1673ffffffffffffffffffffffffffffffffffffffff168152602001908152602001600020541415612875576040517f08c379a000000000000000000000000000000000000000000000000000000000815260040161286c90614608565b60405180910390fd5b6128a17f0862651b0cb69dc07ef6da725f4fbf26b664182ed7aa959e5948eb7469c3950d60001b6131d9565b6128cd7f26b42d9622f1e8eb7e804d951d92e3ebb066eba2d5016906f828887f437698ca60001b6131d9565b6128f97fc0325828ddffca31e9069b844d6aff04fafbd7f644270d9b7152ad94598f9bfb60001b6131d9565b600060ce60008373ffffffffffffffffffffffffffffffffffffffff1673ffffffffffffffffffffffffffffffffffffffff1681526020019081526020016000208190555050565b6000603360009054906101000a900473ffffffffffffffffffffffffffffffffffffffff16905090565b6129736131d1565b73ffffffffffffffffffffffffffffffffffffffff16612991612941565b73ffffffffffffffffffffffffffffffffffffffff16146129e7576040517f08c379a00000000000000000000000000000000000000000000000000000000081526004016129de90614588565b60405180910390fd5b612a137f9a01a4fe7e62980dc2497031c8f5345c995543bae0e22f43ff695128205a180160001b6131d9565b612a3f7fe7a1c23bb9e3736c91c64d800ed9675c53616e1efd528e0c82e32473f0c4ef0760001b6131d9565b612a6b7f5a3802ae748168df2db9b087244d130443ae5305e3475a5cb9f0c1b10430752d60001b6131d9565b612a977fe752afdb758d6f995987af24528fc44b3f2a2babf9da2fcbf25fbc24848fc90060001b6131d9565b600073ffffffffffffffffffffffffffffffffffffffff168273ffffffffffffffffffffffffffffffffffffffff161415612b07576040517f08c379a0000000000000000000000000000000000000000000000000000000008152600401612afe90614448565b60405180910390fd5b612b337f579f6b7ef075ee668c764f35684080c8cbbe1ca8f850b6306a9f57f6c056d7e060001b6131d9565b612b5f7f26fa52b924258fde53f8788ed594ebf6f20e6fb005e6fd511e5f6eab8391570c60001b6131d9565b612b8b7f8d4e00254077d5d17265c9d9fc0988ed47792671e2cbb7dc9afba31a2e5262d660001b6131d9565b612bb77fe9b9e7424f7097e76891bf83f91c25231a7392642329bb85d84697909043d0ba60001b6131d9565b6000811415612bfb576040517f08c379a0000000000000000000000000000000000000000000000000000000008152600401612bf290614528565b60405180910390fd5b612c277faf5e9780b8d94df937bcac9da6217dc4e35b45c705cb3120f242c6501bab533860001b6131d9565b612c537f2aa24f5dc99b48c412e55985495a4c51a990346f8c47ac2e1729fb914394fa2d60001b6131d9565b612c7f7f7d2aa199413e8c4068c07f9870dedea64f257e3f9450040ddc498bbb977bd02060001b6131d9565b8060ce60008473ffffffffffffffffffffffffffffffffffffffff1673ffffffffffffffffffffffffffffffffffffffff168152602001908152602001600020819055505050565b612cf37feb47944574c8dff947385ad1e0ebe32d4575b284cfcb28be473c6c49657c50e460001b6131d9565b612d1f7f290706689636b50ffd92d8b7034d9ac4b6e5bd467d6fc74b88c18302e6b8b53e60001b6131d9565b612d4b7f8d5ad8ade10b43239489bd7e790700aac0496bd78a89ee8668e7e1b5553e66a660001b6131d9565b612d777f02024fc87a1afb1e2ce536207f6b5de3cc7acaededfb8606c2e17214b24179f560001b6131d9565b60cd60003373ffffffffffffffffffffffffffffffffffffffff1673ffffffffffffffffffffffffffffffffffffffff16815260200190815260200160002060009054906101000a900460ff1680612e015750612dd2612941565b73ffffffffffffffffffffffffffffffffffffffff163373ffffffffffffffffffffffffffffffffffffffff16145b612e40576040517f08c379a0000000000000000000000000000000000000000000000000000000008152600401612e37906145c8565b60405180910390fd5b612e6c7f140578c24b9e19233f61f21d83c6f0779053269c2a913ac197f84bcf781053d160001b6131d9565b612e987fa1ea62bba07ef4f9e015da32ff852909c300663098a31a65a431328df67008d660001b6131d9565b612ec47f3991de1f36ee4045d030db7910120c0f86c90523158f6fbc6b7337950fa284d560001b6131d9565b612ef07fbe1c7234d74759010285149f33c88243f9a6ca15731c0c6e6733301da18ef0d460001b6131d9565b612f1c7f8af990e5cfff66f4f3624fbc06ab4d988ff9c802f6fc9d51e89ecfb45a3a75f460001b6131d9565b612f268282613208565b5050565b60cc6020528060005260406000206000915090508060010154908060020154905082565b612f566131d1565b73ffffffffffffffffffffffffffffffffffffffff16612f74612941565b73ffffffffffffffffffffffffffffffffffffffff1614612fca576040517f08c379a0000000000000000000000000000000000000000000000000000000008152600401612fc190614588565b60405180910390fd5b612ff67f8307d848388962a00967f691defbad77fcd4f6c8960da7edca30a8305a57791560001b6131d9565b6130227fbaa07877b0389aa78ca00242de13140025c5ef35d556853ce499af64cbe67c2d60001b6131d9565b61304e7ff6b67a81116a64269c3ec96d07be2ff8f4ed5f5c59ca3d4328030056e28b993960001b6131d9565b8060c960006101000a81548173ffffffffffffffffffffffffffffffffffffffff021916908373ffffffffffffffffffffffffffffffffffffffff16021790555050565b60cb60205281600052604060002081815481106130ae57600080fd5b9060005260206000209060030201600091509150508060000154908060010154908060020154905083565b6130e16131d1565b73ffffffffffffffffffffffffffffffffffffffff166130ff612941565b73ffffffffffffffffffffffffffffffffffffffff1614613155576040517f08c379a000000000000000000000000000000000000000000000000000000000815260040161314c90614588565b60405180910390fd5b600073ffffffffffffffffffffffffffffffffffffffff168173ffffffffffffffffffffffffffffffffffffffff1614156131c5576040517f08c379a00000000000000000000000000000000000000000000000000000000081526004016131bc90614428565b60405180910390fd5b6131ce816135f6565b50565b600033905090565b50565b600081836131ea9190614963565b905092915050565b6000818361320091906147c1565b905092915050565b6132347fd04fb8a36fe965378210d64a5f4de7729a7cbc177682dd1ac00d781cb07f6fbe60001b6131d9565b6132607fe6a3c9a49751ad9a3eb186c3fb458ce71675a7190082fd8e8555cdbf28c4a67d60001b6131d9565b61328c7f9d33dcba7a22eebfb51de1e7ce721da4e2360b5ea477508b34b5d1ec21b66d8260001b6131d9565b600060cc60008473ffffffffffffffffffffffffffffffffffffffff1673ffffffffffffffffffffffffffffffffffffffff16815260200190815260200160002090506132fb7f231b75da624efd4f746f7e05f68d3d43956fb5d6e547ff664151e7bae837adc460001b6131d9565b6133277fe6d7fef2c647dd90ba1a8b21c360711e48679b16b8a16def0e7a6d380b7f01cc60001b6131d9565b61333e8282600201546135ca90919063ffffffff16565b8160020181905550505050565b60006133797f360894a13ba1a3210667c828492db98dca3e2076cc3735a920a3ca505d382bbc60001b613805565b60000160009054906101000a900473ffffffffffffffffffffffffffffffffffffffff16905090565b6133aa6131d1565b73ffffffffffffffffffffffffffffffffffffffff166133c8612941565b73ffffffffffffffffffffffffffffffffffffffff161461341e576040517f08c379a000000000000000000000000000000000000000000000000000000000815260040161341590614588565b60405180910390fd5b61344a7fb0f7a1a9e3ea8a195ffe36814d84eca1b74eb7c1b8b2c099b0a0c5356a669ea560001b6131d9565b50565b6134797f4910fdfa16fed3260ed0e7147f7cc6da11a60208b5b9406d12a635614ffd914360001b61380f565b60000160009054906101000a900460ff161561349d5761349883613819565b6135c5565b8273ffffffffffffffffffffffffffffffffffffffff166352d1902d6040518163ffffffff1660e01b815260040160206040518083038186803b1580156134e357600080fd5b505afa92505050801561351457506040513d601f19601f820116820180604052508101906135119190613f07565b60015b613553576040517f08c379a000000000000000000000000000000000000000000000000000000000815260040161354a90614548565b60405180910390fd5b7f360894a13ba1a3210667c828492db98dca3e2076cc3735a920a3ca505d382bbc60001b81146135b8576040517f08c379a00000000000000000000000000000000000000000000000000000000081526004016135af906144e8565b60405180910390fd5b506135c48383836138d2565b5b505050565b600081836135d8919061476b565b905092915050565b600081836135ee91906149bd565b905092915050565b6000603360009054906101000a900473ffffffffffffffffffffffffffffffffffffffff16905081603360006101000a81548173ffffffffffffffffffffffffffffffffffffffff021916908373ffffffffffffffffffffffffffffffffffffffff1602179055508173ffffffffffffffffffffffffffffffffffffffff168173ffffffffffffffffffffffffffffffffffffffff167f8be0079c531659141344cd1fd0a4f28419497f9722a3daafe3b4186f6b6457e060405160405180910390a35050565b60008060019054906101000a900460ff16156137335760018260ff161480156136eb57506136e9306138fe565b155b61372a576040517f08c379a000000000000000000000000000000000000000000000000000000000815260040161372190614508565b60405180910390fd5b600090506137a7565b8160ff1660008054906101000a900460ff1660ff1610613788576040517f08c379a000000000000000000000000000000000000000000000000000000000815260040161377f90614508565b60405180910390fd5b816000806101000a81548160ff021916908360ff160217905550600190505b919050565b600060019054906101000a900460ff166137fb576040517f08c379a00000000000000000000000000000000000000000000000000000000081526004016137f290614648565b60405180910390fd5b613803613921565b565b6000819050919050565b6000819050919050565b613822816138fe565b613861576040517f08c379a000000000000000000000000000000000000000000000000000000000815260040161385890614568565b60405180910390fd5b8061388e7f360894a13ba1a3210667c828492db98dca3e2076cc3735a920a3ca505d382bbc60001b613805565b60000160006101000a81548173ffffffffffffffffffffffffffffffffffffffff021916908373ffffffffffffffffffffffffffffffffffffffff16021790555050565b6138db83613982565b6000825111806138e85750805b156138f9576138f783836139d1565b505b505050565b6000808273ffffffffffffffffffffffffffffffffffffffff163b119050919050565b600060019054906101000a900460ff16613970576040517f08c379a000000000000000000000000000000000000000000000000000000000815260040161396790614648565b60405180910390fd5b61398061397b6131d1565b6135f6565b565b61398b81613819565b8073ffffffffffffffffffffffffffffffffffffffff167fbc7cd75a20ee27fd9adebab32041f755214dbc6bffa90cc0225b39da2e5c2d3b60405160405180910390a250565b60606139dc836138fe565b613a1b576040517f08c379a0000000000000000000000000000000000000000000000000000000008152600401613a12906145e8565b60405180910390fd5b6000808473ffffffffffffffffffffffffffffffffffffffff1684604051613a43919061433e565b600060405180830381855af49150503d8060008114613a7e576040519150601f19603f3d011682016040523d82523d6000602084013e613a83565b606091505b5091509150613aab828260405180606001604052806027815260200161510160279139613ab5565b9250505092915050565b60608315613ac557829050613b15565b600083511115613ad85782518084602001fd5b816040517f08c379a0000000000000000000000000000000000000000000000000000000008152600401613b0c9190614406565b60405180910390fd5b9392505050565b828054613b2890614ac4565b90600052602060002090601f016020900481019282613b4a5760008555613b91565b82601f10613b6357803560ff1916838001178555613b91565b82800160010185558215613b91579182015b82811115613b90578235825591602001919060010190613b75565b5b509050613b9e9190613ba2565b5090565b5b80821115613bbb576000816000905550600101613ba3565b5090565b6000613bd2613bcd84614708565b6146e3565b905082815260208101848484011115613bea57600080fd5b613bf5848285614a82565b509392505050565b600081359050613c0c8161505f565b92915050565b600081359050613c2181615076565b92915050565b600081519050613c3681615076565b92915050565b600081519050613c4b8161508d565b92915050565b600082601f830112613c6257600080fd5b8135613c72848260208601613bbf565b91505092915050565b600081519050613c8a816150a4565b92915050565b60008083601f840112613ca257600080fd5b8235905067ffffffffffffffff811115613cbb57600080fd5b602083019150836001820283011115613cd357600080fd5b9250929050565b600081359050613ce9816150bb565b92915050565b600081519050613cfe816150bb565b92915050565b600081519050613d13816150e9565b92915050565b600081519050613d28816150d2565b92915050565b600060208284031215613d4057600080fd5b6000613d4e84828501613bfd565b91505092915050565b600080600060608486031215613d6c57600080fd5b6000613d7a86828701613bfd565b9350506020613d8b86828701613bfd565b9250506040613d9c86828701613cda565b9150509250925092565b60008060408385031215613db957600080fd5b6000613dc785828601613bfd565b9250506020613dd885828601613c12565b9150509250929050565b60008060408385031215613df557600080fd5b6000613e0385828601613bfd565b925050602083013567ffffffffffffffff811115613e2057600080fd5b613e2c85828601613c51565b9150509250929050565b60008060408385031215613e4957600080fd5b6000613e5785828601613bfd565b9250506020613e6885828601613cda565b9150509250929050565b60008060008060608587031215613e8857600080fd5b6000613e9687828801613bfd565b9450506020613ea787828801613cda565b935050604085013567ffffffffffffffff811115613ec457600080fd5b613ed087828801613c90565b925092505092959194509250565b600060208284031215613ef057600080fd5b6000613efe84828501613c27565b91505092915050565b600060208284031215613f1957600080fd5b6000613f2784828501613c3c565b91505092915050565b600060208284031215613f4257600080fd5b6000613f5084828501613cda565b91505092915050565b600060208284031215613f6b57600080fd5b6000613f7984828501613cef565b91505092915050565b600080600080600060a08688031215613f9a57600080fd5b6000613fa888828901613d04565b9550506020613fb988828901613c7b565b9450506040613fca88828901613cef565b9350506060613fdb88828901613cef565b9250506080613fec88828901613d04565b9150509295509295909350565b60006020828403121561400b57600080fd5b600061401984828501613d19565b91505092915050565b61402b816149f1565b82525050565b61403a81614a0f565b82525050565b600061404b82614739565b614055818561474f565b9350614065818560208601614a91565b80840191505092915050565b61407a81614a70565b82525050565b600061408b82614744565b614095818561475a565b93506140a5818560208601614a91565b6140ae81614be3565b840191505092915050565b60006140c660268361475a565b91506140d182614c01565b604082019050919050565b60006140e960158361475a565b91506140f482614c50565b602082019050919050565b600061410c602c8361475a565b915061411782614c79565b604082019050919050565b600061412f602c8361475a565b915061413a82614cc8565b604082019050919050565b600061415260138361475a565b915061415d82614d17565b602082019050919050565b600061417560388361475a565b915061418082614d40565b604082019050919050565b600061419860298361475a565b91506141a382614d8f565b604082019050919050565b60006141bb602e8361475a565b91506141c682614dde565b604082019050919050565b60006141de60128361475a565b91506141e982614e2d565b602082019050919050565b6000614201602e8361475a565b915061420c82614e56565b604082019050919050565b6000614224602d8361475a565b915061422f82614ea5565b604082019050919050565b600061424760208361475a565b915061425282614ef4565b602082019050919050565b600061426a60158361475a565b915061427582614f1d565b602082019050919050565b600061428d60178361475a565b915061429882614f46565b602082019050919050565b60006142b060268361475a565b91506142bb82614f6f565b604082019050919050565b60006142d360158361475a565b91506142de82614fbe565b602082019050919050565b60006142f660128361475a565b915061430182614fe7565b602082019050919050565b6000614319602b8361475a565b915061432482615010565b604082019050919050565b61433881614a43565b82525050565b600061434a8284614040565b915081905092915050565b600060208201905061436a6000830184614022565b92915050565b60006060820190506143856000830186614022565b6143926020830185614022565b61439f604083018461432f565b949350505050565b60006040820190506143bc6000830185614022565b6143c9602083018461432f565b9392505050565b60006020820190506143e56000830184614031565b92915050565b60006020820190506144006000830184614071565b92915050565b600060208201905081810360008301526144208184614080565b905092915050565b60006020820190508181036000830152614441816140b9565b9050919050565b60006020820190508181036000830152614461816140dc565b9050919050565b60006020820190508181036000830152614481816140ff565b9050919050565b600060208201905081810360008301526144a181614122565b9050919050565b600060208201905081810360008301526144c181614145565b9050919050565b600060208201905081810360008301526144e181614168565b9050919050565b600060208201905081810360008301526145018161418b565b9050919050565b60006020820190508181036000830152614521816141ae565b9050919050565b60006020820190508181036000830152614541816141d1565b9050919050565b60006020820190508181036000830152614561816141f4565b9050919050565b6000602082019050818103600083015261458181614217565b9050919050565b600060208201905081810360008301526145a18161423a565b9050919050565b600060208201905081810360008301526145c18161425d565b9050919050565b600060208201905081810360008301526145e181614280565b9050919050565b60006020820190508181036000830152614601816142a3565b9050919050565b60006020820190508181036000830152614621816142c6565b9050919050565b60006020820190508181036000830152614641816142e9565b9050919050565b600060208201905081810360008301526146618161430c565b9050919050565b600060208201905061467d600083018461432f565b92915050565b6000604082019050614698600083018561432f565b6146a5602083018461432f565b9392505050565b60006060820190506146c1600083018661432f565b6146ce602083018561432f565b6146db604083018461432f565b949350505050565b60006146ed6146fe565b90506146f98282614af6565b919050565b6000604051905090565b600067ffffffffffffffff82111561472357614722614bb4565b5b61472c82614be3565b9050602081019050919050565b600081519050919050565b600081519050919050565b600081905092915050565b600082825260208201905092915050565b600061477682614a43565b915061478183614a43565b9250827fffffffffffffffffffffffffffffffffffffffffffffffffffffffffffffffff038211156147b6576147b5614b27565b5b828201905092915050565b60006147cc82614a43565b91506147d783614a43565b9250826147e7576147e6614b56565b5b828204905092915050565b6000808291508390505b600185111561483c5780860481111561481857614817614b27565b5b60018516156148275780820291505b808102905061483585614bf4565b94506147fc565b94509492505050565b600061485082614a43565b915061485b83614a43565b92506148887fffffffffffffffffffffffffffffffffffffffffffffffffffffffffffffffff8484614890565b905092915050565b6000826148a0576001905061495c565b816148ae576000905061495c565b81600181146148c457600281146148ce576148fd565b600191505061495c565b60ff8411156148e0576148df614b27565b5b8360020a9150848211156148f7576148f6614b27565b5b5061495c565b5060208310610133831016604e8410600b84101617156149325782820a90508381111561492d5761492c614b27565b5b61495c565b61493f84848460016147f2565b9250905081840481111561495657614955614b27565b5b81810290505b9392505050565b600061496e82614a43565b915061497983614a43565b9250817fffffffffffffffffffffffffffffffffffffffffffffffffffffffffffffffff04831182151516156149b2576149b1614b27565b5b828202905092915050565b60006149c882614a43565b91506149d383614a43565b9250828210156149e6576149e5614b27565b5b828203905092915050565b60006149fc82614a23565b9050919050565b60008115159050919050565b6000819050919050565b6000819050919050565b600073ffffffffffffffffffffffffffffffffffffffff82169050919050565b6000819050919050565b600060ff82169050919050565b600069ffffffffffffffffffff82169050919050565b6000614a7b82614a4d565b9050919050565b82818337600083830152505050565b60005b83811015614aaf578082015181840152602081019050614a94565b83811115614abe576000848401525b50505050565b60006002820490506001821680614adc57607f821691505b60208210811415614af057614aef614b85565b5b50919050565b614aff82614be3565b810181811067ffffffffffffffff82111715614b1e57614b1d614bb4565b5b80604052505050565b7f4e487b7100000000000000000000000000000000000000000000000000000000600052601160045260246000fd5b7f4e487b7100000000000000000000000000000000000000000000000000000000600052601260045260246000fd5b7f4e487b7100000000000000000000000000000000000000000000000000000000600052602260045260246000fd5b7f4e487b7100000000000000000000000000000000000000000000000000000000600052604160045260246000fd5b6000601f19601f8301169050919050565b60008160011c9050919050565b7f4f776e61626c653a206e6577206f776e657220697320746865207a65726f206160008201527f6464726573730000000000000000000000000000000000000000000000000000602082015250565b7f416464726573732063616e2774206265207a65726f0000000000000000000000600082015250565b7f46756e6374696f6e206d7573742062652063616c6c6564207468726f7567682060008201527f64656c656761746563616c6c0000000000000000000000000000000000000000602082015250565b7f46756e6374696f6e206d7573742062652063616c6c6564207468726f7567682060008201527f6163746976652070726f78790000000000000000000000000000000000000000602082015250565b7f696e737566666963656e742042616c616e636500000000000000000000000000600082015250565b7f555550535570677261646561626c653a206d757374206e6f742062652063616c60008201527f6c6564207468726f7567682064656c656761746563616c6c0000000000000000602082015250565b7f45524331393637557067726164653a20756e737570706f727465642070726f7860008201527f6961626c65555549440000000000000000000000000000000000000000000000602082015250565b7f496e697469616c697a61626c653a20636f6e747261637420697320616c72656160008201527f647920696e697469616c697a6564000000000000000000000000000000000000602082015250565b7f726174652063616e2774206265207a65726f0000000000000000000000000000600082015250565b7f45524331393637557067726164653a206e657720696d706c656d656e7461746960008201527f6f6e206973206e6f742055555053000000000000000000000000000000000000602082015250565b7f455243313936373a206e657720696d706c656d656e746174696f6e206973206e60008201527f6f74206120636f6e747261637400000000000000000000000000000000000000602082015250565b7f4f776e61626c653a2063616c6c6572206973206e6f7420746865206f776e6572600082015250565b7f7375676765737420636f696e20746f2041646d696e0000000000000000000000600082015250565b7f4163636f756e74204e6f742057686974656c6973746564000000000000000000600082015250565b7f416464726573733a2064656c65676174652063616c6c20746f206e6f6e2d636f60008201527f6e74726163740000000000000000000000000000000000000000000000000000602082015250565b7f636f696e20616c72656164792064697361626c65640000000000000000000000600082015250565b7f70726963652066656564206e6f74207365740000000000000000000000000000600082015250565b7f496e697469616c697a61626c653a20636f6e7472616374206973206e6f74206960008201527f6e697469616c697a696e67000000000000000000000000000000000000000000602082015250565b615068816149f1565b811461507357600080fd5b50565b61507f81614a03565b811461508a57600080fd5b50565b61509681614a0f565b81146150a157600080fd5b50565b6150ad81614a19565b81146150b857600080fd5b50565b6150c481614a43565b81146150cf57600080fd5b50565b6150db81614a4d565b81146150e657600080fd5b50565b6150f281614a5a565b81146150fd57600080fd5b5056fe416464726573733a206c6f772d6c6576656c2064656c65676174652063616c6c206661696c6564a2646970667358221220d74749ecef1992923da1649e986b22fee9b3c8ce726c9afbd9f5214898b206bc64736f6c63430008040033",
  "linkReferences": {},
  "deployedLinkReferences": {}
}