{
  "_format": "hh-sol-artifact-1",
  "contractName": "DepositManager",
  "sourceName": "contracts/core/DepositManager.sol",
  "abi": [
    {
      "anonymous": false,
      "inputs": [
        {
          "indexed": true,
          "internalType": "address",
          "name": "depositor",
          "type": "address"
        },
        {
          "indexed": true,
          "internalType": "address",
          "name": "coinAddress",
          "type": "address"
        },
        {
          "indexed": false,
          "internalType": "uint256",
          "name": "amount",
          "type": "uint256"
        },
        {
          "indexed": false,
          "internalType": "uint256",
          "name": "rate",
          "type": "uint256"
        },
        {
          "indexed": false,
          "internalType": "uint256",
          "name": "storagePurchased",
          "type": "uint256"
        }
      ],
      "name": "AddDepositEvent",
      "type": "event"
    },
    {
      "anonymous": false,
      "inputs": [
        {
          "indexed": false,
          "internalType": "address",
          "name": "previousAdmin",
          "type": "address"
        },
        {
          "indexed": false,
          "internalType": "address",
          "name": "newAdmin",
          "type": "address"
        }
      ],
      "name": "AdminChanged",
      "type": "event"
    },
    {
      "anonymous": false,
      "inputs": [
        {
          "indexed": true,
          "internalType": "address",
          "name": "beacon",
          "type": "address"
        }
      ],
      "name": "BeaconUpgraded",
      "type": "event"
    },
    {
      "anonymous": false,
      "inputs": [
        {
          "indexed": false,
          "internalType": "uint8",
          "name": "version",
          "type": "uint8"
        }
      ],
      "name": "Initialized",
      "type": "event"
    },
    {
      "anonymous": false,
      "inputs": [
        {
          "indexed": true,
          "internalType": "address",
          "name": "previousOwner",
          "type": "address"
        },
        {
          "indexed": true,
          "internalType": "address",
          "name": "newOwner",
          "type": "address"
        }
      ],
      "name": "OwnershipTransferred",
      "type": "event"
    },
    {
      "anonymous": false,
      "inputs": [
        {
          "indexed": true,
          "internalType": "address",
          "name": "implementation",
          "type": "address"
        }
      ],
      "name": "Upgraded",
      "type": "event"
    },
    {
      "anonymous": false,
      "inputs": [
        {
          "indexed": true,
          "internalType": "address",
          "name": "whitelistAddress",
          "type": "address"
        },
        {
          "indexed": true,
          "internalType": "bool",
          "name": "status",
          "type": "bool"
        }
      ],
      "name": "whiteListingAddressEvent",
      "type": "event"
    },
    {
      "inputs": [
        {
          "internalType": "address",
          "name": "_coinAddress",
          "type": "address"
        },
        {
          "internalType": "uint256",
          "name": "rate",
          "type": "uint256"
        }
      ],
      "name": "addCoin",
      "outputs": [],
      "stateMutability": "nonpayable",
      "type": "function"
    },
    {
      "inputs": [
        {
          "internalType": "address",
          "name": "_coinAddress",
          "type": "address"
        },
        {
          "internalType": "uint256",
          "name": "_amount",
          "type": "uint256"
        }
      ],
      "name": "addDeposit",
      "outputs": [],
      "stateMutability": "nonpayable",
      "type": "function"
    },
    {
      "inputs": [
        {
          "internalType": "uint256",
          "name": "newCost",
          "type": "uint256"
        }
      ],
      "name": "changeCostOfStorage",
      "outputs": [],
      "stateMutability": "nonpayable",
      "type": "function"
    },
    {
      "inputs": [
        {
          "internalType": "address",
          "name": "aggregatorAddressFeed",
          "type": "address"
        }
      ],
      "name": "changePriceFeed",
      "outputs": [],
      "stateMutability": "nonpayable",
      "type": "function"
    },
    {
      "inputs": [],
      "name": "costOfStorage",
      "outputs": [
        {
          "internalType": "uint256",
          "name": "",
          "type": "uint256"
        }
      ],
      "stateMutability": "view",
      "type": "function"
    },
    {
      "inputs": [
        {
          "internalType": "address",
          "name": "",
          "type": "address"
        },
        {
          "internalType": "uint256",
          "name": "",
          "type": "uint256"
        }
      ],
      "name": "deposits",
      "outputs": [
        {
          "internalType": "uint256",
          "name": "timestamp",
          "type": "uint256"
        },
        {
          "internalType": "uint256",
          "name": "amount",
          "type": "uint256"
        },
        {
          "internalType": "uint256",
          "name": "storagePurchased",
          "type": "uint256"
        }
      ],
      "stateMutability": "view",
      "type": "function"
    },
    {
      "inputs": [
        {
          "internalType": "address",
          "name": "_address",
          "type": "address"
        }
      ],
      "name": "getAvailableSpace",
      "outputs": [
        {
          "internalType": "uint256",
          "name": "",
          "type": "uint256"
        }
      ],
      "stateMutability": "view",
      "type": "function"
    },
    {
      "inputs": [
        {
          "internalType": "uint256",
          "name": "size",
          "type": "uint256"
        }
      ],
      "name": "getStorageCost",
      "outputs": [
        {
          "internalType": "uint256",
          "name": "",
          "type": "uint256"
        }
      ],
      "stateMutability": "view",
      "type": "function"
    },
    {
      "inputs": [],
      "name": "initalStorageSize",
      "outputs": [
        {
          "internalType": "uint256",
          "name": "",
          "type": "uint256"
        }
      ],
      "stateMutability": "view",
      "type": "function"
    },
    {
      "inputs": [],
      "name": "initialize",
      "outputs": [],
      "stateMutability": "nonpayable",
      "type": "function"
    },
    {
      "inputs": [
        {
          "internalType": "address",
          "name": "user",
          "type": "address"
        },
        {
          "internalType": "uint256",
          "name": "filesize",
          "type": "uint256"
        },
        {
          "internalType": "string",
          "name": "fileHash",
          "type": "string"
        }
      ],
      "name": "instantStorage",
      "outputs": [],
      "stateMutability": "payable",
      "type": "function"
    },
    {
      "inputs": [],
      "name": "owner",
      "outputs": [
        {
          "internalType": "address",
          "name": "",
          "type": "address"
        }
      ],
      "stateMutability": "view",
      "type": "function"
    },
    {
      "inputs": [],
      "name": "proxiableUUID",
      "outputs": [
        {
          "internalType": "bytes32",
          "name": "",
          "type": "bytes32"
        }
      ],
      "stateMutability": "view",
      "type": "function"
    },
    {
      "inputs": [
        {
          "internalType": "address",
          "name": "_coinAddress",
          "type": "address"
        }
      ],
      "name": "removeCoin",
      "outputs": [],
      "stateMutability": "nonpayable",
      "type": "function"
    },
    {
      "inputs": [],
      "name": "renounceOwnership",
      "outputs": [],
      "stateMutability": "nonpayable",
      "type": "function"
    },
    {
      "inputs": [
        {
          "internalType": "uint256",
          "name": "_initalStorageSize",
          "type": "uint256"
        }
      ],
      "name": "setInitalStorageSize",
      "outputs": [],
      "stateMutability": "nonpayable",
      "type": "function"
    },
    {
      "inputs": [
        {
          "internalType": "address",
          "name": "_address",
          "type": "address"
        },
        {
          "internalType": "bool",
          "name": "_status",
          "type": "bool"
        }
      ],
      "name": "setWhiteListAddr",
      "outputs": [],
      "stateMutability": "nonpayable",
      "type": "function"
    },
    {
      "inputs": [
        {
          "internalType": "address",
          "name": "",
          "type": "address"
        }
      ],
      "name": "storageList",
      "outputs": [
        {
          "internalType": "uint256",
          "name": "totalStored",
          "type": "uint256"
        },
        {
          "internalType": "uint256",
          "name": "availableStorage",
          "type": "uint256"
        },
        {
          "internalType": "bool",
          "name": "isKnownUser",
          "type": "bool"
        }
      ],
      "stateMutability": "view",
      "type": "function"
    },
    {
      "inputs": [
        {
          "internalType": "address",
          "name": "_coinAddress",
          "type": "address"
        },
        {
          "internalType": "address",
          "name": "wallet",
          "type": "address"
        },
        {
          "internalType": "uint256",
          "name": "amount",
          "type": "uint256"
        }
      ],
      "name": "transferAmount",
      "outputs": [],
      "stateMutability": "nonpayable",
      "type": "function"
    },
    {
      "inputs": [
        {
          "internalType": "address",
          "name": "newOwner",
          "type": "address"
        }
      ],
      "name": "transferOwnership",
      "outputs": [],
      "stateMutability": "nonpayable",
      "type": "function"
    },
    {
      "inputs": [
        {
          "internalType": "address",
          "name": "user",
          "type": "address"
        },
        {
          "internalType": "uint256",
          "name": "addOnStorage",
          "type": "uint256"
        }
      ],
      "name": "updateAvailableStorage",
      "outputs": [],
      "stateMutability": "nonpayable",
      "type": "function"
    },
    {
      "inputs": [
        {
          "internalType": "address",
          "name": "user",
          "type": "address"
        },
        {
          "internalType": "uint256",
          "name": "filesize",
          "type": "uint256"
        },
        {
          "internalType": "string",
          "name": "fileHash",
          "type": "string"
        }
      ],
      "name": "updateStorage",
      "outputs": [],
      "stateMutability": "nonpayable",
      "type": "function"
    },
    {
      "inputs": [
        {
          "internalType": "address",
          "name": "newImplementation",
          "type": "address"
        }
      ],
      "name": "upgradeTo",
      "outputs": [],
      "stateMutability": "nonpayable",
      "type": "function"
    },
    {
      "inputs": [
        {
          "internalType": "address",
          "name": "newImplementation",
          "type": "address"
        },
        {
          "internalType": "bytes",
          "name": "data",
          "type": "bytes"
        }
      ],
      "name": "upgradeToAndCall",
      "outputs": [],
      "stateMutability": "payable",
      "type": "function"
    }
  ],
  "bytecode": "0x60a06040523073ffffffffffffffffffffffffffffffffffffffff1660809073ffffffffffffffffffffffffffffffffffffffff1660601b81525034801561004657600080fd5b5060805160601c6155da62000082600039600081816112df0152818161136e01528181611a7e01528181611b0d0152611bbd01526155da6000f3fe60806040526004361061014b5760003560e01c80636e19aca1116100b6578063b40148791161006f578063b401487914610424578063b49f33c81461044d578063bae26f9814610476578063cbd3df38146104b5578063d6d68177146104de578063f2fde38b1461051d5761014b565b80636e19aca11461035b578063715018a6146103775780638129fc1c1461038e578063859c50ae146103a557806388363bf6146103d05780638da5cb5b146103f95761014b565b80633abd847b116101085780633abd847b146102485780634a5676b8146102715780634ce639d2146102ae5780634f1ef286146102eb57806352d1902d14610307578063595ba768146103325761014b565b806301f47471146101505780630a86b87f1461017957806311088206146101a25780632bf31cea146101cd57806333026bb6146101f65780633659cfe61461021f575b600080fd5b34801561015c57600080fd5b50610177600480360381019061017291906141b7565b610546565b005b34801561018557600080fd5b506101a0600480360381019061019b9190614390565b61081e565b005b3480156101ae57600080fd5b506101b7610928565b6040516101c49190614ad7565b60405180910390f35b3480156101d957600080fd5b506101f460048036038101906101ef9190614390565b6109b6565b005b34801561020257600080fd5b5061021d60048036038101906102189190614296565b610ac0565b005b34801561022b57600080fd5b506102466004803603810190610241919061418e565b6112dd565b005b34801561025457600080fd5b5061026f600480360381019061026a9190614206565b61148c565b005b34801561027d57600080fd5b506102986004803603810190610293919061418e565b611685565b6040516102a59190614ad7565b60405180910390f35b3480156102ba57600080fd5b506102d560048036038101906102d09190614390565b611755565b6040516102e29190614ad7565b60405180910390f35b61030560048036038101906103009190614242565b611a7c565b005b34801561031357600080fd5b5061031c611bb9565b604051610329919061483f565b60405180910390f35b34801561033e57600080fd5b50610359600480360381019061035491906142d2565b611c72565b005b610375600480360381019061037091906142d2565b612352565b005b34801561038357600080fd5b5061038c612739565b005b34801561039a57600080fd5b506103a36127c1565b005b3480156103b157600080fd5b506103ba61299c565b6040516103c79190614ad7565b60405180910390f35b3480156103dc57600080fd5b506103f760048036038101906103f2919061418e565b6129a2565b005b34801561040557600080fd5b5061040e612d3d565b60405161041b91906147c4565b60405180910390f35b34801561043057600080fd5b5061044b60048036038101906104469190614296565b612d67565b005b34801561045957600080fd5b50610474600480360381019061046f9190614296565b6130c3565b005b34801561048257600080fd5b5061049d6004803603810190610498919061418e565b613326565b6040516104ac93929190614af2565b60405180910390f35b3480156104c157600080fd5b506104dc60048036038101906104d7919061418e565b61335d565b005b3480156104ea57600080fd5b5061050560048036038101906105009190614296565b6134a1565b60405161051493929190614b29565b60405180910390f35b34801561052957600080fd5b50610544600480360381019061053f919061418e565b6134e8565b005b61054e6135e0565b73ffffffffffffffffffffffffffffffffffffffff1661056c612d3d565b73ffffffffffffffffffffffffffffffffffffffff16146105c2576040517f08c379a00000000000000000000000000000000000000000000000000000000081526004016105b9906149f7565b60405180910390fd5b6105ee7f67e2181ddaddffb1aaadd560f42118586839696cfacce19bb854665fa14ac6ec60001b6135e8565b61061a7fea2d872b2829170af5f68fbe3fa8d678eab86a5490c24980c2885b5de7b6d5f260001b6135e8565b6106467fc512bc09624ce89fb2dae3b6cb68a8bfbb728d5b8f873629dc14d2d64cb17bc360001b6135e8565b6106727fae75beb6e31c1ec9f7f1aefbea6e6af793eb697ce08fc56a6607b9d59015bfac60001b6135e8565b8273ffffffffffffffffffffffffffffffffffffffff166370a08231306040518263ffffffff1660e01b81526004016106ab91906147c4565b60206040518083038186803b1580156106c357600080fd5b505afa1580156106d7573d6000803e3d6000fd5b505050506040513d601f19601f820116820180604052508101906106fb91906143b9565b81111561070757600080fd5b6107337f6cd6ae5d9c0ce90b7866217031d06921a6e482b8753154d693ff2a21a40af11960001b6135e8565b61075f7f23bd80649a9773d88f3b365de78d2c6e804768776497e7496983acd4dc86692b60001b6135e8565b61078b7f7b57e6ccf65dec02ac5702addd76cc336678b98bcdfae50e0f2a62288d85714860001b6135e8565b8273ffffffffffffffffffffffffffffffffffffffff1663a9059cbb83836040518363ffffffff1660e01b81526004016107c6929190614816565b602060405180830381600087803b1580156107e057600080fd5b505af11580156107f4573d6000803e3d6000fd5b505050506040513d601f19601f82011682018060405250810190610818919061433e565b50505050565b6108266135e0565b73ffffffffffffffffffffffffffffffffffffffff16610844612d3d565b73ffffffffffffffffffffffffffffffffffffffff161461089a576040517f08c379a0000000000000000000000000000000000000000000000000000000008152600401610891906149f7565b60405180910390fd5b6108c67f01eaa8d6fe8f7d1843a4e3e878ca7bc6dd9ff7314451e4dfd380a22d1029d32d60001b6135e8565b6108f27f934b8d352d681f5165eb733e3f76bdd0157b1d07e06509490eec47e9782a9c5160001b6135e8565b61091e7fb031952ee45dfdc547fce4c356ce4b08bba3ad164234efefa7970840eba3204b60001b6135e8565b8060cb8190555050565b60006109567f4ac71425736ce94a84b4eb89b61eb8c907d400ca6e8b56f98cc1c4ee2e07a47d60001b6135e8565b6109827faab13da0d1e9a6cbd96f981556897506e3c2161f5b581057672e0ab8c51bd84b60001b6135e8565b6109ae7fe17b8250f4b655feac4cb645da7ec5e406bea432bb5bb97746e560393e6409e960001b6135e8565b60ca54905090565b6109be6135e0565b73ffffffffffffffffffffffffffffffffffffffff166109dc612d3d565b73ffffffffffffffffffffffffffffffffffffffff1614610a32576040517f08c379a0000000000000000000000000000000000000000000000000000000008152600401610a29906149f7565b60405180910390fd5b610a5e7fe76a1c3a10cf8e40c1f2c58a778da0c1a5b22f180e8233068d3ffa9befd8389460001b6135e8565b610a8a7f59a40e4210088d1090d40672a96cc0ee92e98b358edf94bcd1979bc9a59cced760001b6135e8565b610ab67fb71b5e274e9b483124604fcc956fb130f56713323d286cbc331bd6aaf07944e060001b6135e8565b8060ca8190555050565b610aec7f64a5f97f9290cbe7875366cb1b04f75cf155825b9498084d2543ac4d3634df0f60001b6135e8565b610b187fe565d21992fd4b826cd4e12c6d8d688a01e3b5a00873d7d1db5c38f61d4e61e760001b6135e8565b610b447f13c17e97067e98ae9f3cc09ea564d93e1b8974582c5fe1ad7202c157ea8ce75560001b6135e8565b6000339050610b757f990409ce46e12a7d159b7e7449b8a8bda92014867704fbdee794f9cae9aaec7e60001b6135e8565b610ba17f38d822f244b7dba79b76556cc35c3b897d3664f3f800fd5a0d5632447f38f62f60001b6135e8565b60008373ffffffffffffffffffffffffffffffffffffffff1663313ce5676040518163ffffffff1660e01b815260040160206040518083038186803b158015610be957600080fd5b505afa158015610bfd573d6000803e3d6000fd5b505050506040513d601f19601f82011682018060405250810190610c219190614459565b60ff169050610c527f79d35ff9c8a10174819058a90869e7f0a4a22b84c8c14d15d45aa4502aff5e4260001b6135e8565b610c7e7faae777fc2a7e35ebc4eebe28b7aac43624155ee25e1e13fdf9c1791d8818610a60001b6135e8565b610caa7f1f3568bbcbeaba62339b602799d0a9350aad3a27df80a88bd01fb78306c514f460001b6135e8565b600060cf60008673ffffffffffffffffffffffffffffffffffffffff1673ffffffffffffffffffffffffffffffffffffffff168152602001908152602001600020541415610d2d576040517f08c379a0000000000000000000000000000000000000000000000000000000008152600401610d2490614a17565b60405180910390fd5b610d597f44d0b989e4f82cf9bca222798be68d4bdcbfa48e3d879fd2356bae6d2ae1240d60001b6135e8565b610d857f4c201ea130e9dfd2dceef9fc0f3d0b5c7a8b8885167e42f2bf6b2ca2e3db037360001b6135e8565b610db17fe9be45f6cfc5dabf6a8cd2277a9de30c878ff7d48861896508f6cc715a04ffd460001b6135e8565b610ddd7f932ca1872b25b2a27b7cccc1bd4fd5e1f0444c2d4e2ecba8a2c0de35247d4f3860001b6135e8565b828473ffffffffffffffffffffffffffffffffffffffff166370a08231846040518263ffffffff1660e01b8152600401610e1791906147c4565b60206040518083038186803b158015610e2f57600080fd5b505afa158015610e43573d6000803e3d6000fd5b505050506040513d601f19601f82011682018060405250810190610e6791906143b9565b1015610ea8576040517f08c379a0000000000000000000000000000000000000000000000000000000008152600401610e9f90614917565b60405180910390fd5b610ed47fb0f7a1a9e3ea8a195ffe36814d84eca1b74eb7c1b8b2c099b0a0c5356a669ea560001b6135e8565b610f007f93822b1be40c1b06ca2edd2c7539ea5a1d9aef75724cbfad187e42d68e60048460001b6135e8565b610f2c7f9495714c34bbe29d0798ec1a71b66f19c1f7a5e2b55fb84d4bbf8faae28c289760001b6135e8565b6000610fcc620f4240610fbe84600a610f459190614cc2565b610fb0610f50610928565b610fa260cf60008d73ffffffffffffffffffffffffffffffffffffffff1673ffffffffffffffffffffffffffffffffffffffff168152602001908152602001600020548b6135eb90919063ffffffff16565b6135eb90919063ffffffff16565b61360190919063ffffffff16565b61360190919063ffffffff16565b9050610ffa7f85e21a5fbf3c52cf13aaa263b95701fc78533e54c18d7a7317080a6f5dacadfb60001b6135e8565b6110267fa489e03f576ada78e0b862c63acecf95533a0946117fc6e7907ea63c4dc8d56760001b6135e8565b60cc60003373ffffffffffffffffffffffffffffffffffffffff1673ffffffffffffffffffffffffffffffffffffffff168152602001908152602001600020604051806060016040528042815260200186815260200183815250908060018154018082558091505060019003906000526020600020906003020160009091909190915060008201518160000155602082015181600101556040820151816002015550506110f57f2819c457c03cb40d07d43ad5a58723d49eb885bcc94474456657c48684a0cfad60001b6135e8565b6111217f8135fdda0c71e8219152b8f3a71bc3ae311b31f5ff78d23c79addb0604f251c060001b6135e8565b61112b3382613617565b6111577fc7bf0eae47a35a23d36a38c54c854f39b36ad3fba50c5408ca803bb6952c0f3060001b6135e8565b6111837ff994b5f27b2ea98770b98bc46e25824e66ba31018eb5721a0fb283698812787860001b6135e8565b8473ffffffffffffffffffffffffffffffffffffffff166323b872dd8430876040518463ffffffff1660e01b81526004016111c0939291906147df565b602060405180830381600087803b1580156111da57600080fd5b505af11580156111ee573d6000803e3d6000fd5b505050506040513d601f19601f82011682018060405250810190611212919061433e565b5061123f7fb8ced67e3490ac818e31e2c75242106a6135881ecd3c6dc9032a399a115f463f60001b6135e8565b61126b7fec5668014688410478ca098868bbec7f5be5c2a6b85ec33fab6c94e4271896e060001b6135e8565b8473ffffffffffffffffffffffffffffffffffffffff163373ffffffffffffffffffffffffffffffffffffffff167f37d822ecaa322d551ac3fb006e69d00a726925969995ad76c4f6596b5a8cbc568660ca54856040516112ce93929190614b29565b60405180910390a35050505050565b7f000000000000000000000000000000000000000000000000000000000000000073ffffffffffffffffffffffffffffffffffffffff163073ffffffffffffffffffffffffffffffffffffffff16141561136c576040517f08c379a0000000000000000000000000000000000000000000000000000000008152600401611363906148d7565b60405180910390fd5b7f000000000000000000000000000000000000000000000000000000000000000073ffffffffffffffffffffffffffffffffffffffff166113ab61375a565b73ffffffffffffffffffffffffffffffffffffffff1614611401576040517f08c379a00000000000000000000000000000000000000000000000000000000081526004016113f8906148f7565b60405180910390fd5b61140a816137b1565b61148981600067ffffffffffffffff81111561144f577f4e487b7100000000000000000000000000000000000000000000000000000000600052604160045260246000fd5b6040519080825280601f01601f1916602001820160405280156114815781602001600182028036833780820191505090505b50600061385c565b50565b6114946135e0565b73ffffffffffffffffffffffffffffffffffffffff166114b2612d3d565b73ffffffffffffffffffffffffffffffffffffffff1614611508576040517f08c379a00000000000000000000000000000000000000000000000000000000081526004016114ff906149f7565b60405180910390fd5b6115347f231b75da624efd4f746f7e05f68d3d43956fb5d6e547ff664151e7bae837adc460001b6135e8565b6115607fe6d7fef2c647dd90ba1a8b21c360711e48679b16b8a16def0e7a6d380b7f01cc60001b6135e8565b61158c7faaae5fc79421d0846dd80c49307275d20e4e5027cf30dd571e5edf1b6e9f515660001b6135e8565b8060ce60008473ffffffffffffffffffffffffffffffffffffffff1673ffffffffffffffffffffffffffffffffffffffff16815260200190815260200160002060006101000a81548160ff02191690831515021790555061160f7ff60033dcfd28f15bd2c2625aa5bbc6c8a90391d70b9b216504040226aa7bda4d60001b6135e8565b61163b7f042ed3f8d12548fa17b74c27ad8a63f3b91feecf982fbe712e57dfb37773f2e460001b6135e8565b8015158273ffffffffffffffffffffffffffffffffffffffff167f76f7735e60e167186168755b9dafbe4e8ab2ce33e2ef11b45de4c02311222de560405160405180910390a35050565b60006116b37f47a18a300934de20aae2964bf4c53ed93ef9f1c31652adcff3360f6d8ba455c260001b6135e8565b6116df7f20f78783c3a71b8a96500ac28393b9cd14e441be30945a1f82f88238b5bc224460001b6135e8565b61170b7f203e821ecb996521189914f57e35a2b250d4b44ecc7b170b85cbb6af3f58420f60001b6135e8565b60cd60008373ffffffffffffffffffffffffffffffffffffffff1673ffffffffffffffffffffffffffffffffffffffff168152602001908152602001600020600101549050919050565b60006117837f684d578d16eae5ab17862041130826865e4dd929d341440377c743f81bb56b5460001b6135e8565b6117af7f1d1ae664f122de981da9d4967f281feac27d3fe051d5d3734e59b5ff25fd583660001b6135e8565b6117db7f76bd637750cb88e211431a571ca541d4c9b31d52d2fcb4a4fd954253436092eb60001b6135e8565b6118077f2a00673f57256c220227d3aedd0a6b1f99fc1a161d10a7468ffda6b11e336c1160001b6135e8565b600073ffffffffffffffffffffffffffffffffffffffff1660c960009054906101000a900473ffffffffffffffffffffffffffffffffffffffff1673ffffffffffffffffffffffffffffffffffffffff161415611899576040517f08c379a000000000000000000000000000000000000000000000000000000000815260040161189090614a97565b60405180910390fd5b6118c57f8307d848388962a00967f691defbad77fcd4f6c8960da7edca30a8305a57791560001b6135e8565b6118f17fbaa07877b0389aa78ca00242de13140025c5ef35d556853ce499af64cbe67c2d60001b6135e8565b61191d7ff6b67a81116a64269c3ec96d07be2ff8f4ed5f5c59ca3d4328030056e28b993960001b6135e8565b600060c960009054906101000a900473ffffffffffffffffffffffffffffffffffffffff1673ffffffffffffffffffffffffffffffffffffffff1663feaf968c6040518163ffffffff1660e01b815260040160a06040518083038186803b15801561198757600080fd5b505afa15801561199b573d6000803e3d6000fd5b505050506040513d601f19601f820116820180604052508101906119bf91906143e2565b5050509150506119f17fe17a69400edc416663ea22814ab76b537b169065d1a049f574856ef911208ca260001b6135e8565b611a1d7fd8517a2575c79f960b2b084f39d126979aa355e36a03ace71d046d4c51aa454560001b6135e8565b611a74611a358260ca546135eb90919063ffffffff16565b611a666305f5e100611a58670de0b6b3a7640000886135eb90919063ffffffff16565b6135eb90919063ffffffff16565b61360190919063ffffffff16565b915050919050565b7f000000000000000000000000000000000000000000000000000000000000000073ffffffffffffffffffffffffffffffffffffffff163073ffffffffffffffffffffffffffffffffffffffff161415611b0b576040517f08c379a0000000000000000000000000000000000000000000000000000000008152600401611b02906148d7565b60405180910390fd5b7f000000000000000000000000000000000000000000000000000000000000000073ffffffffffffffffffffffffffffffffffffffff16611b4a61375a565b73ffffffffffffffffffffffffffffffffffffffff1614611ba0576040517f08c379a0000000000000000000000000000000000000000000000000000000008152600401611b97906148f7565b60405180910390fd5b611ba9826137b1565b611bb58282600161385c565b5050565b60007f000000000000000000000000000000000000000000000000000000000000000073ffffffffffffffffffffffffffffffffffffffff163073ffffffffffffffffffffffffffffffffffffffff1614611c49576040517f08c379a0000000000000000000000000000000000000000000000000000000008152600401611c4090614937565b60405180910390fd5b7f360894a13ba1a3210667c828492db98dca3e2076cc3735a920a3ca505d382bbc60001b905090565b611c9e7f18ba8271bd6dda250d81d3951536b98f539533d2137d530d996780a403e9b9e260001b6135e8565b611cca7f89d27d6d0be77c27c46fb639ea5762420c1c1cf15562436915c6c7d865df7f9b60001b6135e8565b611cf67feb47944574c8dff947385ad1e0ebe32d4575b284cfcb28be473c6c49657c50e460001b6135e8565b611d227f290706689636b50ffd92d8b7034d9ac4b6e5bd467d6fc74b88c18302e6b8b53e60001b6135e8565b60ce60003373ffffffffffffffffffffffffffffffffffffffff1673ffffffffffffffffffffffffffffffffffffffff16815260200190815260200160002060009054906101000a900460ff1680611dac5750611d7d612d3d565b73ffffffffffffffffffffffffffffffffffffffff163373ffffffffffffffffffffffffffffffffffffffff16145b611deb576040517f08c379a0000000000000000000000000000000000000000000000000000000008152600401611de290614a37565b60405180910390fd5b611e177f8d5ad8ade10b43239489bd7e790700aac0496bd78a89ee8668e7e1b5553e66a660001b6135e8565b611e437f02024fc87a1afb1e2ce536207f6b5de3cc7acaededfb8606c2e17214b24179f560001b6135e8565b611e6f7ffe4f9c9a52f516a17f142bd6584d11abe9c718c8beda0459cb2f55a11a9957ef60001b6135e8565b611e9b7f994884e2cec0c941eb9e71bf5e0b73c6c2ca54d95301a7aeb862becc51fa176f60001b6135e8565b611ec77fa9313163c6164505ee2e4a595178420c17c480a5194dad60c2fcf6c34222681c60001b6135e8565b60cd60008573ffffffffffffffffffffffffffffffffffffffff1673ffffffffffffffffffffffffffffffffffffffff16815260200190815260200160002060020160009054906101000a900460ff1661206357611f477fb0a9307e9e62fec713681c49ae0ffd1d22948a538ddd9c9c47d39b1020a9650b60001b6135e8565b611f737f1b0d96aabc58f81e59245b313fd03dd5d72f4984cde4a695a340b08ccdc03a3260001b6135e8565b611f9f7fd9ddfa5d7cd55c33576e46864cd4c81c9746247ce7530deb25c23d64feba1c1860001b6135e8565b611fab8460cb54613617565b611fd77f2f4347472142082ff78d35fcab14013ab5997f650262752666e3a5696a79216060001b6135e8565b6120037f0862651b0cb69dc07ef6da725f4fbf26b664182ed7aa959e5948eb7469c3950d60001b6135e8565b600160cd60008673ffffffffffffffffffffffffffffffffffffffff1673ffffffffffffffffffffffffffffffffffffffff16815260200190815260200160002060020160006101000a81548160ff021916908315150217905550612090565b61208f7f26b42d9622f1e8eb7e804d951d92e3ebb066eba2d5016906f828887f437698ca60001b6135e8565b5b6120bc7fc0325828ddffca31e9069b844d6aff04fafbd7f644270d9b7152ad94598f9bfb60001b6135e8565b6120e87f9fa6f170a202c41cbdd7094b7fded192ad425325ba14e3bfbdd3f10826823d8060001b6135e8565b60cd60008573ffffffffffffffffffffffffffffffffffffffff1673ffffffffffffffffffffffffffffffffffffffff168152602001908152602001600020600301828290918060018154018082558091505060019003906000526020600020016000909192909192909192909192509190612165929190613f7c565b506121927fa868e6d950cdb996ccb7bb510c2b5a1c1aa6059014dccfde04f9a0587de7948660001b6135e8565b6121be7f9e0c2080077d2b1368853afbf2a2f8154d884a6311f38c79482dd6a753768c1860001b6135e8565b6122138360cd60008773ffffffffffffffffffffffffffffffffffffffff1673ffffffffffffffffffffffffffffffffffffffff168152602001908152602001600020600001546139d990919063ffffffff16565b60cd60008673ffffffffffffffffffffffffffffffffffffffff1673ffffffffffffffffffffffffffffffffffffffff168152602001908152602001600020600001819055506122857fa8a3c95ed05b6f041a73579dea68599e07e3d0bb6f72ec9b904b5b0c3b7fd7b660001b6135e8565b6122b17f08f3ec0569124580227c54dd7b513d2b541e471ef9653fb6f6c18dfbcbfa124b60001b6135e8565b6123068360cd60008773ffffffffffffffffffffffffffffffffffffffff1673ffffffffffffffffffffffffffffffffffffffff168152602001908152602001600020600101546139ef90919063ffffffff16565b60cd60008673ffffffffffffffffffffffffffffffffffffffff1673ffffffffffffffffffffffffffffffffffffffff1681526020019081526020016000206001018190555050505050565b61237e7ff526df018286a402247873c3dd10f2783b79c6ee2e61c6aca94de7ac56831c3060001b6135e8565b6123aa7fee8a1438eaed6a6558bbf489c7b3339ba3f7e82e3a10ce9f9d5b5ff47f76fce860001b6135e8565b6123d67f9832c4717b985acff897a55fac8457c2b8b5773c4952fdd9bcd254192712b3d560001b6135e8565b6123df83611755565b341015612415577f4e487b7100000000000000000000000000000000000000000000000000000000600052600160045260246000fd5b6124417f07f622d4d765fc77610a99a5d8f7c48c2826113acd28d7433058738c09c10eaf60001b6135e8565b61246d7f9e6d8de5734129b05d3879b472a456bb268c23e13233b7cbbe49d0de15556b4260001b6135e8565b6124773384613617565b6124a37f5f71174165dd74c46f1815cc86ccb9d405208fedd0a146f53bd94b12a30b459c60001b6135e8565b6124cf7fcafd6f79f4f41476cdc2bf8e28056cf95a10fe00510de4c9df6f5e48bb24ffba60001b6135e8565b60cd60008573ffffffffffffffffffffffffffffffffffffffff1673ffffffffffffffffffffffffffffffffffffffff16815260200190815260200160002060030182829091806001815401808255809150506001900390600052602060002001600090919290919290919290919250919061254c929190613f7c565b506125797f51df34d7ee62532924b281a91527257e9fd459a16a6928048fc1bc582ea2b7e860001b6135e8565b6125a57f2f86e6cf046f15d3e76dc11babff38c3265f6a744e6b971d7db76a3b69abed5960001b6135e8565b6125fa8360cd60008773ffffffffffffffffffffffffffffffffffffffff1673ffffffffffffffffffffffffffffffffffffffff168152602001908152602001600020600001546139d990919063ffffffff16565b60cd60008673ffffffffffffffffffffffffffffffffffffffff1673ffffffffffffffffffffffffffffffffffffffff1681526020019081526020016000206000018190555061266c7fa0959769a0af30e3acf9d14c81e07875a0d400af94b640686c94bd4dda67fa5560001b6135e8565b6126987fc1fbcc5f55c60f7a701286587727818c6252586ea8d65f288b209d647191f49b60001b6135e8565b6126ed8360cd60008773ffffffffffffffffffffffffffffffffffffffff1673ffffffffffffffffffffffffffffffffffffffff168152602001908152602001600020600101546139ef90919063ffffffff16565b60cd60008673ffffffffffffffffffffffffffffffffffffffff1673ffffffffffffffffffffffffffffffffffffffff1681526020019081526020016000206001018190555050505050565b6127416135e0565b73ffffffffffffffffffffffffffffffffffffffff1661275f612d3d565b73ffffffffffffffffffffffffffffffffffffffff16146127b5576040517f08c379a00000000000000000000000000000000000000000000000000000000081526004016127ac906149f7565b60405180910390fd5b6127bf6000613a05565b565b60006127cd6001613acb565b905080156127f1576001600060016101000a81548160ff0219169083151502179055505b61281d7f9271d128e2db1787738f308e41493a6c4e6360fa2a38d640b38824fbaa0eba0a60001b6135e8565b6128497fa78fd040de0c3d0575e8b2f6c782b31a02ec12ebfa01517060b597c176512fc760001b6135e8565b6128757ff08674ab6e5591e4f268f86224d5ce5d776d3e85d9468a367503eb08bbc86c7060001b6135e8565b61287d613bbb565b6128a97f23403ff1b6ec82d0b4b7c903e717bcdb15e63e033ede3eeb266eabc831e7588e60001b6135e8565b6128d57fd0781a3bb24103999c8d5f6b0d5a7bcbcad91c153da5e19f94ac2dc6c12064b060001b6135e8565b6128dd613c14565b6129097f16d9b6cd0fc2df8f3a5af63436c5ddbff662f04a8ff59b0d6d1352afb34df1bb60001b6135e8565b6129357f35d2d21afc2463d39ff20301b031cf7f30c53c6416cdd21392aa12d36180a16f60001b6135e8565b630ccccccd60ca8190555080156129995760008060016101000a81548160ff0219169083151502179055507f7f26b83ff96e1f2b6a682f133852f6798a09c465da95921460cefb38474024986001604051612990919061485a565b60405180910390a15b50565b60cb5481565b6129aa6135e0565b73ffffffffffffffffffffffffffffffffffffffff166129c8612d3d565b73ffffffffffffffffffffffffffffffffffffffff1614612a1e576040517f08c379a0000000000000000000000000000000000000000000000000000000008152600401612a15906149f7565b60405180910390fd5b612a4a7fe7a1c23bb9e3736c91c64d800ed9675c53616e1efd528e0c82e32473f0c4ef0760001b6135e8565b612a767f5a3802ae748168df2db9b087244d130443ae5305e3475a5cb9f0c1b10430752d60001b6135e8565b612aa27fe752afdb758d6f995987af24528fc44b3f2a2babf9da2fcbf25fbc24848fc90060001b6135e8565b612ace7f579f6b7ef075ee668c764f35684080c8cbbe1ca8f850b6306a9f57f6c056d7e060001b6135e8565b600073ffffffffffffffffffffffffffffffffffffffff168173ffffffffffffffffffffffffffffffffffffffff161415612b3e576040517f08c379a0000000000000000000000000000000000000000000000000000000008152600401612b35906148b7565b60405180910390fd5b612b6a7f26fa52b924258fde53f8788ed594ebf6f20e6fb005e6fd511e5f6eab8391570c60001b6135e8565b612b967f8d4e00254077d5d17265c9d9fc0988ed47792671e2cbb7dc9afba31a2e5262d660001b6135e8565b612bc27fe9b9e7424f7097e76891bf83f91c25231a7392642329bb85d84697909043d0ba60001b6135e8565b612bee7faf5e9780b8d94df937bcac9da6217dc4e35b45c705cb3120f242c6501bab533860001b6135e8565b600060cf60008373ffffffffffffffffffffffffffffffffffffffff1673ffffffffffffffffffffffffffffffffffffffff168152602001908152602001600020541415612c71576040517f08c379a0000000000000000000000000000000000000000000000000000000008152600401612c6890614a77565b60405180910390fd5b612c9d7f2aa24f5dc99b48c412e55985495a4c51a990346f8c47ac2e1729fb914394fa2d60001b6135e8565b612cc97f7d2aa199413e8c4068c07f9870dedea64f257e3f9450040ddc498bbb977bd02060001b6135e8565b612cf57fd1a2f59381d0de5c1d697e3c39d6d543bb605139fdce2472bc9ddb04627c43c660001b6135e8565b600060cf60008373ffffffffffffffffffffffffffffffffffffffff1673ffffffffffffffffffffffffffffffffffffffff1681526020019081526020016000208190555050565b6000603360009054906101000a900473ffffffffffffffffffffffffffffffffffffffff16905090565b612d6f6135e0565b73ffffffffffffffffffffffffffffffffffffffff16612d8d612d3d565b73ffffffffffffffffffffffffffffffffffffffff1614612de3576040517f08c379a0000000000000000000000000000000000000000000000000000000008152600401612dda906149f7565b60405180910390fd5b612e0f7f34e221cb0d3e6a4820f0cb1c8a9be6130f90f68845f359c6da2dd9e4d0bfd0fc60001b6135e8565b612e3b7fc634e5acaa358dedc5d66843fd594c268f8c40ed72c8db0b415855c04bbe908160001b6135e8565b612e677f9186403ac09a75cc994666d0522c251f096d90e3d9bc061206aa0ba07828aa7760001b6135e8565b612e937f61980388e398500aa3454ce161ab78d8379238a0a3b91fdacafd5a46a335796b60001b6135e8565b600073ffffffffffffffffffffffffffffffffffffffff168273ffffffffffffffffffffffffffffffffffffffff161415612f03576040517f08c379a0000000000000000000000000000000000000000000000000000000008152600401612efa906148b7565b60405180910390fd5b612f2f7f3f2307eb1706b716a076b4cb609efed32dc3c0b66b747377547b9742a3d6ec7260001b6135e8565b612f5b7f065bc7524f061ba86646ebfa5eaba67ad69b945a59f29f81f2a737667be6c21260001b6135e8565b612f877f7d28c3bbbfc337f22d17be0bd963de5a4a5fd185f976c0cce9d1bb9ec8d9873760001b6135e8565b612fb37f8cecd5c7cc6e49599e4fc38da24faae9f8b909e59815f00b503e43359378e86e60001b6135e8565b6000811415612ff7576040517f08c379a0000000000000000000000000000000000000000000000000000000008152600401612fee90614997565b60405180910390fd5b6130237f98aa468c2f27cdecaf498101b3117b69a34b62fd788f73f6f6ce6f289dad689060001b6135e8565b61304f7f44d68049d0492e0fa633f68713be25e706f99be178e234e5e4ddcbe9b8b2873b60001b6135e8565b61307b7f9a01a4fe7e62980dc2497031c8f5345c995543bae0e22f43ff695128205a180160001b6135e8565b8060cf60008473ffffffffffffffffffffffffffffffffffffffff1673ffffffffffffffffffffffffffffffffffffffff168152602001908152602001600020819055505050565b6130ef7f18ba8271bd6dda250d81d3951536b98f539533d2137d530d996780a403e9b9e260001b6135e8565b61311b7f89d27d6d0be77c27c46fb639ea5762420c1c1cf15562436915c6c7d865df7f9b60001b6135e8565b6131477feb47944574c8dff947385ad1e0ebe32d4575b284cfcb28be473c6c49657c50e460001b6135e8565b6131737f290706689636b50ffd92d8b7034d9ac4b6e5bd467d6fc74b88c18302e6b8b53e60001b6135e8565b60ce60003373ffffffffffffffffffffffffffffffffffffffff1673ffffffffffffffffffffffffffffffffffffffff16815260200190815260200160002060009054906101000a900460ff16806131fd57506131ce612d3d565b73ffffffffffffffffffffffffffffffffffffffff163373ffffffffffffffffffffffffffffffffffffffff16145b61323c576040517f08c379a000000000000000000000000000000000000000000000000000000000815260040161323390614a37565b60405180910390fd5b6132687f8d5ad8ade10b43239489bd7e790700aac0496bd78a89ee8668e7e1b5553e66a660001b6135e8565b6132947f02024fc87a1afb1e2ce536207f6b5de3cc7acaededfb8606c2e17214b24179f560001b6135e8565b6132c07fe9da1ca4377647d9e0668d0847832ca2b6935b08e2084f9dc59f03d81ca5df3160001b6135e8565b6132ec7f4346fb9a542d0f1eeb2d14edd682df62b6948b25e2331769ab1dcfba1291d81960001b6135e8565b6133187f3991de1f36ee4045d030db7910120c0f86c90523158f6fbc6b7337950fa284d560001b6135e8565b6133228282613617565b5050565b60cd6020528060005260406000206000915090508060000154908060010154908060020160009054906101000a900460ff16905083565b6133656135e0565b73ffffffffffffffffffffffffffffffffffffffff16613383612d3d565b73ffffffffffffffffffffffffffffffffffffffff16146133d9576040517f08c379a00000000000000000000000000000000000000000000000000000000081526004016133d0906149f7565b60405180910390fd5b6134057f46741d4814206bd4c8ffebbfb5b3bbebc2d8c50dc267e5a320e228cc62c0903460001b6135e8565b6134317f3d64e2de3f5ebf4a5eed993e2364d0de89cb7705484e162af06947a075f5efb260001b6135e8565b61345d7f512e759451a76a6d54154f05e82af6dcc998a05c3588c99a444ff5cee381850f60001b6135e8565b8060c960006101000a81548173ffffffffffffffffffffffffffffffffffffffff021916908373ffffffffffffffffffffffffffffffffffffffff16021790555050565b60cc60205281600052604060002081815481106134bd57600080fd5b9060005260206000209060030201600091509150508060000154908060010154908060020154905083565b6134f06135e0565b73ffffffffffffffffffffffffffffffffffffffff1661350e612d3d565b73ffffffffffffffffffffffffffffffffffffffff1614613564576040517f08c379a000000000000000000000000000000000000000000000000000000000815260040161355b906149f7565b60405180910390fd5b600073ffffffffffffffffffffffffffffffffffffffff168173ffffffffffffffffffffffffffffffffffffffff1614156135d4576040517f08c379a00000000000000000000000000000000000000000000000000000000081526004016135cb90614897565b60405180910390fd5b6135dd81613a05565b50565b600033905090565b50565b600081836135f99190614de0565b905092915050565b6000818361360f9190614c3e565b905092915050565b6136437fbe1c7234d74759010285149f33c88243f9a6ca15731c0c6e6733301da18ef0d460001b6135e8565b61366f7f8af990e5cfff66f4f3624fbc06ab4d988ff9c802f6fc9d51e89ecfb45a3a75f460001b6135e8565b61369b7fd04fb8a36fe965378210d64a5f4de7729a7cbc177682dd1ac00d781cb07f6fbe60001b6135e8565b600060cd60008473ffffffffffffffffffffffffffffffffffffffff1673ffffffffffffffffffffffffffffffffffffffff168152602001908152602001600020905061370a7fe6a3c9a49751ad9a3eb186c3fb458ce71675a7190082fd8e8555cdbf28c4a67d60001b6135e8565b6137367f9d33dcba7a22eebfb51de1e7ce721da4e2360b5ea477508b34b5d1ec21b66d8260001b6135e8565b61374d8282600101546139d990919063ffffffff16565b8160010181905550505050565b60006137887f360894a13ba1a3210667c828492db98dca3e2076cc3735a920a3ca505d382bbc60001b613c65565b60000160009054906101000a900473ffffffffffffffffffffffffffffffffffffffff16905090565b6137b96135e0565b73ffffffffffffffffffffffffffffffffffffffff166137d7612d3d565b73ffffffffffffffffffffffffffffffffffffffff161461382d576040517f08c379a0000000000000000000000000000000000000000000000000000000008152600401613824906149f7565b60405180910390fd5b6138597f06c19bf8ac24d013ed634fe55398414f721131ea427d80d35c61c98cf08e6b9f60001b6135e8565b50565b6138887f4910fdfa16fed3260ed0e7147f7cc6da11a60208b5b9406d12a635614ffd914360001b613c6f565b60000160009054906101000a900460ff16156138ac576138a783613c79565b6139d4565b8273ffffffffffffffffffffffffffffffffffffffff166352d1902d6040518163ffffffff1660e01b815260040160206040518083038186803b1580156138f257600080fd5b505afa92505050801561392357506040513d601f19601f820116820180604052508101906139209190614367565b60015b613962576040517f08c379a0000000000000000000000000000000000000000000000000000000008152600401613959906149b7565b60405180910390fd5b7f360894a13ba1a3210667c828492db98dca3e2076cc3735a920a3ca505d382bbc60001b81146139c7576040517f08c379a00000000000000000000000000000000000000000000000000000000081526004016139be90614957565b60405180910390fd5b506139d3838383613d32565b5b505050565b600081836139e79190614be8565b905092915050565b600081836139fd9190614e3a565b905092915050565b6000603360009054906101000a900473ffffffffffffffffffffffffffffffffffffffff16905081603360006101000a81548173ffffffffffffffffffffffffffffffffffffffff021916908373ffffffffffffffffffffffffffffffffffffffff1602179055508173ffffffffffffffffffffffffffffffffffffffff168173ffffffffffffffffffffffffffffffffffffffff167f8be0079c531659141344cd1fd0a4f28419497f9722a3daafe3b4186f6b6457e060405160405180910390a35050565b60008060019054906101000a900460ff1615613b425760018260ff16148015613afa5750613af830613d5e565b155b613b39576040517f08c379a0000000000000000000000000000000000000000000000000000000008152600401613b3090614977565b60405180910390fd5b60009050613bb6565b8160ff1660008054906101000a900460ff1660ff1610613b97576040517f08c379a0000000000000000000000000000000000000000000000000000000008152600401613b8e90614977565b60405180910390fd5b816000806101000a81548160ff021916908360ff160217905550600190505b919050565b600060019054906101000a900460ff16613c0a576040517f08c379a0000000000000000000000000000000000000000000000000000000008152600401613c0190614ab7565b60405180910390fd5b613c12613d81565b565b600060019054906101000a900460ff16613c63576040517f08c379a0000000000000000000000000000000000000000000000000000000008152600401613c5a90614ab7565b60405180910390fd5b565b6000819050919050565b6000819050919050565b613c8281613d5e565b613cc1576040517f08c379a0000000000000000000000000000000000000000000000000000000008152600401613cb8906149d7565b60405180910390fd5b80613cee7f360894a13ba1a3210667c828492db98dca3e2076cc3735a920a3ca505d382bbc60001b613c65565b60000160006101000a81548173ffffffffffffffffffffffffffffffffffffffff021916908373ffffffffffffffffffffffffffffffffffffffff16021790555050565b613d3b83613de2565b600082511180613d485750805b15613d5957613d578383613e31565b505b505050565b6000808273ffffffffffffffffffffffffffffffffffffffff163b119050919050565b600060019054906101000a900460ff16613dd0576040517f08c379a0000000000000000000000000000000000000000000000000000000008152600401613dc790614ab7565b60405180910390fd5b613de0613ddb6135e0565b613a05565b565b613deb81613c79565b8073ffffffffffffffffffffffffffffffffffffffff167fbc7cd75a20ee27fd9adebab32041f755214dbc6bffa90cc0225b39da2e5c2d3b60405160405180910390a250565b6060613e3c83613d5e565b613e7b576040517f08c379a0000000000000000000000000000000000000000000000000000000008152600401613e7290614a57565b60405180910390fd5b6000808473ffffffffffffffffffffffffffffffffffffffff1684604051613ea391906147ad565b600060405180830381855af49150503d8060008114613ede576040519150601f19603f3d011682016040523d82523d6000602084013e613ee3565b606091505b5091509150613f0b828260405180606001604052806027815260200161557e60279139613f15565b9250505092915050565b60608315613f2557829050613f75565b600083511115613f385782518084602001fd5b816040517f08c379a0000000000000000000000000000000000000000000000000000000008152600401613f6c9190614875565b60405180910390fd5b9392505050565b828054613f8890614f41565b90600052602060002090601f016020900481019282613faa5760008555613ff1565b82601f10613fc357803560ff1916838001178555613ff1565b82800160010185558215613ff1579182015b82811115613ff0578235825591602001919060010190613fd5565b5b509050613ffe9190614002565b5090565b5b8082111561401b576000816000905550600101614003565b5090565b600061403261402d84614b85565b614b60565b90508281526020810184848401111561404a57600080fd5b614055848285614eff565b509392505050565b60008135905061406c816154dc565b92915050565b600081359050614081816154f3565b92915050565b600081519050614096816154f3565b92915050565b6000815190506140ab8161550a565b92915050565b600082601f8301126140c257600080fd5b81356140d284826020860161401f565b91505092915050565b6000815190506140ea81615521565b92915050565b60008083601f84011261410257600080fd5b8235905067ffffffffffffffff81111561411b57600080fd5b60208301915083600182028301111561413357600080fd5b9250929050565b60008135905061414981615538565b92915050565b60008151905061415e81615538565b92915050565b60008151905061417381615566565b92915050565b6000815190506141888161554f565b92915050565b6000602082840312156141a057600080fd5b60006141ae8482850161405d565b91505092915050565b6000806000606084860312156141cc57600080fd5b60006141da8682870161405d565b93505060206141eb8682870161405d565b92505060406141fc8682870161413a565b9150509250925092565b6000806040838503121561421957600080fd5b60006142278582860161405d565b925050602061423885828601614072565b9150509250929050565b6000806040838503121561425557600080fd5b60006142638582860161405d565b925050602083013567ffffffffffffffff81111561428057600080fd5b61428c858286016140b1565b9150509250929050565b600080604083850312156142a957600080fd5b60006142b78582860161405d565b92505060206142c88582860161413a565b9150509250929050565b600080600080606085870312156142e857600080fd5b60006142f68782880161405d565b94505060206143078782880161413a565b935050604085013567ffffffffffffffff81111561432457600080fd5b614330878288016140f0565b925092505092959194509250565b60006020828403121561435057600080fd5b600061435e84828501614087565b91505092915050565b60006020828403121561437957600080fd5b60006143878482850161409c565b91505092915050565b6000602082840312156143a257600080fd5b60006143b08482850161413a565b91505092915050565b6000602082840312156143cb57600080fd5b60006143d98482850161414f565b91505092915050565b600080600080600060a086880312156143fa57600080fd5b600061440888828901614164565b9550506020614419888289016140db565b945050604061442a8882890161414f565b935050606061443b8882890161414f565b925050608061444c88828901614164565b9150509295509295909350565b60006020828403121561446b57600080fd5b600061447984828501614179565b91505092915050565b61448b81614e6e565b82525050565b61449a81614e80565b82525050565b6144a981614e8c565b82525050565b60006144ba82614bb6565b6144c48185614bcc565b93506144d4818560208601614f0e565b80840191505092915050565b6144e981614eed565b82525050565b60006144fa82614bc1565b6145048185614bd7565b9350614514818560208601614f0e565b61451d81615060565b840191505092915050565b6000614535602683614bd7565b91506145408261507e565b604082019050919050565b6000614558601583614bd7565b9150614563826150cd565b602082019050919050565b600061457b602c83614bd7565b9150614586826150f6565b604082019050919050565b600061459e602c83614bd7565b91506145a982615145565b604082019050919050565b60006145c1601383614bd7565b91506145cc82615194565b602082019050919050565b60006145e4603883614bd7565b91506145ef826151bd565b604082019050919050565b6000614607602983614bd7565b91506146128261520c565b604082019050919050565b600061462a602e83614bd7565b91506146358261525b565b604082019050919050565b600061464d601283614bd7565b9150614658826152aa565b602082019050919050565b6000614670602e83614bd7565b915061467b826152d3565b604082019050919050565b6000614693602d83614bd7565b915061469e82615322565b604082019050919050565b60006146b6602083614bd7565b91506146c182615371565b602082019050919050565b60006146d9601583614bd7565b91506146e48261539a565b602082019050919050565b60006146fc601783614bd7565b9150614707826153c3565b602082019050919050565b600061471f602683614bd7565b915061472a826153ec565b604082019050919050565b6000614742601583614bd7565b915061474d8261543b565b602082019050919050565b6000614765601283614bd7565b915061477082615464565b602082019050919050565b6000614788602b83614bd7565b91506147938261548d565b604082019050919050565b6147a781614ec0565b82525050565b60006147b982846144af565b915081905092915050565b60006020820190506147d96000830184614482565b92915050565b60006060820190506147f46000830186614482565b6148016020830185614482565b61480e604083018461479e565b949350505050565b600060408201905061482b6000830185614482565b614838602083018461479e565b9392505050565b600060208201905061485460008301846144a0565b92915050565b600060208201905061486f60008301846144e0565b92915050565b6000602082019050818103600083015261488f81846144ef565b905092915050565b600060208201905081810360008301526148b081614528565b9050919050565b600060208201905081810360008301526148d08161454b565b9050919050565b600060208201905081810360008301526148f08161456e565b9050919050565b6000602082019050818103600083015261491081614591565b9050919050565b60006020820190508181036000830152614930816145b4565b9050919050565b60006020820190508181036000830152614950816145d7565b9050919050565b60006020820190508181036000830152614970816145fa565b9050919050565b600060208201905081810360008301526149908161461d565b9050919050565b600060208201905081810360008301526149b081614640565b9050919050565b600060208201905081810360008301526149d081614663565b9050919050565b600060208201905081810360008301526149f081614686565b9050919050565b60006020820190508181036000830152614a10816146a9565b9050919050565b60006020820190508181036000830152614a30816146cc565b9050919050565b60006020820190508181036000830152614a50816146ef565b9050919050565b60006020820190508181036000830152614a7081614712565b9050919050565b60006020820190508181036000830152614a9081614735565b9050919050565b60006020820190508181036000830152614ab081614758565b9050919050565b60006020820190508181036000830152614ad08161477b565b9050919050565b6000602082019050614aec600083018461479e565b92915050565b6000606082019050614b07600083018661479e565b614b14602083018561479e565b614b216040830184614491565b949350505050565b6000606082019050614b3e600083018661479e565b614b4b602083018561479e565b614b58604083018461479e565b949350505050565b6000614b6a614b7b565b9050614b768282614f73565b919050565b6000604051905090565b600067ffffffffffffffff821115614ba057614b9f615031565b5b614ba982615060565b9050602081019050919050565b600081519050919050565b600081519050919050565b600081905092915050565b600082825260208201905092915050565b6000614bf382614ec0565b9150614bfe83614ec0565b9250827fffffffffffffffffffffffffffffffffffffffffffffffffffffffffffffffff03821115614c3357614c32614fa4565b5b828201905092915050565b6000614c4982614ec0565b9150614c5483614ec0565b925082614c6457614c63614fd3565b5b828204905092915050565b6000808291508390505b6001851115614cb957808604811115614c9557614c94614fa4565b5b6001851615614ca45780820291505b8081029050614cb285615071565b9450614c79565b94509492505050565b6000614ccd82614ec0565b9150614cd883614ec0565b9250614d057fffffffffffffffffffffffffffffffffffffffffffffffffffffffffffffffff8484614d0d565b905092915050565b600082614d1d5760019050614dd9565b81614d2b5760009050614dd9565b8160018114614d415760028114614d4b57614d7a565b6001915050614dd9565b60ff841115614d5d57614d5c614fa4565b5b8360020a915084821115614d7457614d73614fa4565b5b50614dd9565b5060208310610133831016604e8410600b8410161715614daf5782820a905083811115614daa57614da9614fa4565b5b614dd9565b614dbc8484846001614c6f565b92509050818404811115614dd357614dd2614fa4565b5b81810290505b9392505050565b6000614deb82614ec0565b9150614df683614ec0565b9250817fffffffffffffffffffffffffffffffffffffffffffffffffffffffffffffffff0483118215151615614e2f57614e2e614fa4565b5b828202905092915050565b6000614e4582614ec0565b9150614e5083614ec0565b925082821015614e6357614e62614fa4565b5b828203905092915050565b6000614e7982614ea0565b9050919050565b60008115159050919050565b6000819050919050565b6000819050919050565b600073ffffffffffffffffffffffffffffffffffffffff82169050919050565b6000819050919050565b600060ff82169050919050565b600069ffffffffffffffffffff82169050919050565b6000614ef882614eca565b9050919050565b82818337600083830152505050565b60005b83811015614f2c578082015181840152602081019050614f11565b83811115614f3b576000848401525b50505050565b60006002820490506001821680614f5957607f821691505b60208210811415614f6d57614f6c615002565b5b50919050565b614f7c82615060565b810181811067ffffffffffffffff82111715614f9b57614f9a615031565b5b80604052505050565b7f4e487b7100000000000000000000000000000000000000000000000000000000600052601160045260246000fd5b7f4e487b7100000000000000000000000000000000000000000000000000000000600052601260045260246000fd5b7f4e487b7100000000000000000000000000000000000000000000000000000000600052602260045260246000fd5b7f4e487b7100000000000000000000000000000000000000000000000000000000600052604160045260246000fd5b6000601f19601f8301169050919050565b60008160011c9050919050565b7f4f776e61626c653a206e6577206f776e657220697320746865207a65726f206160008201527f6464726573730000000000000000000000000000000000000000000000000000602082015250565b7f416464726573732063616e2774206265207a65726f0000000000000000000000600082015250565b7f46756e6374696f6e206d7573742062652063616c6c6564207468726f7567682060008201527f64656c656761746563616c6c0000000000000000000000000000000000000000602082015250565b7f46756e6374696f6e206d7573742062652063616c6c6564207468726f7567682060008201527f6163746976652070726f78790000000000000000000000000000000000000000602082015250565b7f696e737566666963656e742042616c616e636500000000000000000000000000600082015250565b7f555550535570677261646561626c653a206d757374206e6f742062652063616c60008201527f6c6564207468726f7567682064656c656761746563616c6c0000000000000000602082015250565b7f45524331393637557067726164653a20756e737570706f727465642070726f7860008201527f6961626c65555549440000000000000000000000000000000000000000000000602082015250565b7f496e697469616c697a61626c653a20636f6e747261637420697320616c72656160008201527f647920696e697469616c697a6564000000000000000000000000000000000000602082015250565b7f726174652063616e2774206265207a65726f0000000000000000000000000000600082015250565b7f45524331393637557067726164653a206e657720696d706c656d656e7461746960008201527f6f6e206973206e6f742055555053000000000000000000000000000000000000602082015250565b7f455243313936373a206e657720696d706c656d656e746174696f6e206973206e60008201527f6f74206120636f6e747261637400000000000000000000000000000000000000602082015250565b7f4f776e61626c653a2063616c6c6572206973206e6f7420746865206f776e6572600082015250565b7f7375676765737420636f696e20746f2041646d696e0000000000000000000000600082015250565b7f4163636f756e74204e6f742057686974656c6973746564000000000000000000600082015250565b7f416464726573733a2064656c65676174652063616c6c20746f206e6f6e2d636f60008201527f6e74726163740000000000000000000000000000000000000000000000000000602082015250565b7f636f696e20616c72656164792064697361626c65640000000000000000000000600082015250565b7f70726963652066656564206e6f74207365740000000000000000000000000000600082015250565b7f496e697469616c697a61626c653a20636f6e7472616374206973206e6f74206960008201527f6e697469616c697a696e67000000000000000000000000000000000000000000602082015250565b6154e581614e6e565b81146154f057600080fd5b50565b6154fc81614e80565b811461550757600080fd5b50565b61551381614e8c565b811461551e57600080fd5b50565b61552a81614e96565b811461553557600080fd5b50565b61554181614ec0565b811461554c57600080fd5b50565b61555881614eca565b811461556357600080fd5b50565b61556f81614ed7565b811461557a57600080fd5b5056fe416464726573733a206c6f772d6c6576656c2064656c65676174652063616c6c206661696c6564a2646970667358221220aa8b96aeafc52fb87ac0166074efb0c720276a84ad3d552da363250fe47979af64736f6c63430008040033",
  "linkReferences": {},
  "deployedLinkReferences": {}
}