{
  "_format": "hh-sol-artifact-1",
  "contractName": "DepositManager",
  "sourceName": "contracts/core/DepositManager.sol",
  "abi": [
    {
      "anonymous": false,
      "inputs": [
        {
          "indexed": true,
          "internalType": "address",
          "name": "depositor",
          "type": "address"
        },
        {
          "indexed": true,
          "internalType": "address",
          "name": "coinAddress",
          "type": "address"
        },
        {
          "indexed": false,
          "internalType": "uint256",
          "name": "amount",
          "type": "uint256"
        },
        {
          "indexed": false,
          "internalType": "uint256",
          "name": "rate",
          "type": "uint256"
        },
        {
          "indexed": false,
          "internalType": "uint256",
          "name": "storagePurchased",
          "type": "uint256"
        }
      ],
      "name": "AddDepositEvent",
      "type": "event"
    },
    {
      "anonymous": false,
      "inputs": [
        {
          "indexed": false,
          "internalType": "address",
          "name": "previousAdmin",
          "type": "address"
        },
        {
          "indexed": false,
          "internalType": "address",
          "name": "newAdmin",
          "type": "address"
        }
      ],
      "name": "AdminChanged",
      "type": "event"
    },
    {
      "anonymous": false,
      "inputs": [
        {
          "indexed": true,
          "internalType": "address",
          "name": "beacon",
          "type": "address"
        }
      ],
      "name": "BeaconUpgraded",
      "type": "event"
    },
    {
      "anonymous": false,
      "inputs": [
        {
          "indexed": false,
          "internalType": "uint8",
          "name": "version",
          "type": "uint8"
        }
      ],
      "name": "Initialized",
      "type": "event"
    },
    {
      "anonymous": false,
      "inputs": [
        {
          "indexed": true,
          "internalType": "address",
          "name": "previousOwner",
          "type": "address"
        },
        {
          "indexed": true,
          "internalType": "address",
          "name": "newOwner",
          "type": "address"
        }
      ],
      "name": "OwnershipTransferred",
      "type": "event"
    },
    {
      "anonymous": false,
      "inputs": [
        {
          "indexed": true,
          "internalType": "address",
          "name": "implementation",
          "type": "address"
        }
      ],
      "name": "Upgraded",
      "type": "event"
    },
    {
      "anonymous": false,
      "inputs": [
        {
          "indexed": true,
          "internalType": "address",
          "name": "whitelistAddress",
          "type": "address"
        },
        {
          "indexed": true,
          "internalType": "bool",
          "name": "status",
          "type": "bool"
        }
      ],
      "name": "whiteListingAddressEvent",
      "type": "event"
    },
    {
      "anonymous": false,
      "inputs": [
        {
          "indexed": true,
          "internalType": "address",
          "name": "account",
          "type": "address"
        },
        {
          "indexed": true,
          "internalType": "address",
          "name": "tokenAddress",
          "type": "address"
        },
        {
          "indexed": true,
          "internalType": "uint256",
          "name": "amount",
          "type": "uint256"
        }
      ],
      "name": "withdrawApproval",
      "type": "event"
    },
    {
      "inputs": [
        {
          "internalType": "address",
          "name": "_coinAddress",
          "type": "address"
        },
        {
          "internalType": "uint256",
          "name": "rate",
          "type": "uint256"
        }
      ],
      "name": "addCoin",
      "outputs": [],
      "stateMutability": "nonpayable",
      "type": "function"
    },
    {
      "inputs": [
        {
          "internalType": "address",
          "name": "_coinAddress",
          "type": "address"
        },
        {
          "internalType": "uint256",
          "name": "_amount",
          "type": "uint256"
        }
      ],
      "name": "addDeposit",
      "outputs": [],
      "stateMutability": "nonpayable",
      "type": "function"
    },
    {
      "inputs": [
        {
          "internalType": "uint256",
          "name": "newCost",
          "type": "uint256"
        }
      ],
      "name": "changeCostOfStorage",
      "outputs": [],
      "stateMutability": "nonpayable",
      "type": "function"
    },
    {
      "inputs": [
        {
          "internalType": "address",
          "name": "aggregatorAddressFeed",
          "type": "address"
        }
      ],
      "name": "changePriceFeed",
      "outputs": [],
      "stateMutability": "nonpayable",
      "type": "function"
    },
    {
      "inputs": [
        {
          "internalType": "address payable",
          "name": "_to",
          "type": "address"
        },
        {
          "internalType": "uint256",
          "name": "_amount",
          "type": "uint256"
        }
      ],
      "name": "claimEth",
      "outputs": [],
      "stateMutability": "nonpayable",
      "type": "function"
    },
    {
      "inputs": [],
      "name": "costOfStorage",
      "outputs": [
        {
          "internalType": "uint256",
          "name": "",
          "type": "uint256"
        }
      ],
      "stateMutability": "view",
      "type": "function"
    },
    {
      "inputs": [
        {
          "internalType": "address",
          "name": "",
          "type": "address"
        },
        {
          "internalType": "uint256",
          "name": "",
          "type": "uint256"
        }
      ],
      "name": "deposits",
      "outputs": [
        {
          "internalType": "uint256",
          "name": "timestamp",
          "type": "uint256"
        },
        {
          "internalType": "uint256",
          "name": "amount",
          "type": "uint256"
        },
        {
          "internalType": "uint256",
          "name": "storagePurchased",
          "type": "uint256"
        }
      ],
      "stateMutability": "view",
      "type": "function"
    },
    {
      "inputs": [
        {
          "internalType": "address",
          "name": "_address",
          "type": "address"
        }
      ],
      "name": "getAvailableSpace",
      "outputs": [
        {
          "internalType": "uint256",
          "name": "",
          "type": "uint256"
        }
      ],
      "stateMutability": "view",
      "type": "function"
    },
    {
      "inputs": [
        {
          "internalType": "uint256",
          "name": "size",
          "type": "uint256"
        }
      ],
      "name": "getStorageCost",
      "outputs": [
        {
          "internalType": "uint256",
          "name": "",
          "type": "uint256"
        }
      ],
      "stateMutability": "view",
      "type": "function"
    },
    {
      "inputs": [],
      "name": "initalStorageSize",
      "outputs": [
        {
          "internalType": "uint256",
          "name": "",
          "type": "uint256"
        }
      ],
      "stateMutability": "view",
      "type": "function"
    },
    {
      "inputs": [],
      "name": "initialize",
      "outputs": [],
      "stateMutability": "nonpayable",
      "type": "function"
    },
    {
      "inputs": [
        {
          "internalType": "address",
          "name": "user",
          "type": "address"
        },
        {
          "internalType": "uint256",
          "name": "filesize",
          "type": "uint256"
        },
        {
          "internalType": "string",
          "name": "fileHash",
          "type": "string"
        }
      ],
      "name": "instantStorage",
      "outputs": [],
      "stateMutability": "payable",
      "type": "function"
    },
    {
      "inputs": [],
      "name": "owner",
      "outputs": [
        {
          "internalType": "address",
          "name": "",
          "type": "address"
        }
      ],
      "stateMutability": "view",
      "type": "function"
    },
    {
      "inputs": [],
      "name": "proxiableUUID",
      "outputs": [
        {
          "internalType": "bytes32",
          "name": "",
          "type": "bytes32"
        }
      ],
      "stateMutability": "view",
      "type": "function"
    },
    {
      "inputs": [
        {
          "internalType": "address",
          "name": "_coinAddress",
          "type": "address"
        }
      ],
      "name": "removeCoin",
      "outputs": [],
      "stateMutability": "nonpayable",
      "type": "function"
    },
    {
      "inputs": [],
      "name": "renounceOwnership",
      "outputs": [],
      "stateMutability": "nonpayable",
      "type": "function"
    },
    {
      "inputs": [
        {
          "internalType": "uint256",
          "name": "_initalStorageSize",
          "type": "uint256"
        }
      ],
      "name": "setInitalStorageSize",
      "outputs": [],
      "stateMutability": "nonpayable",
      "type": "function"
    },
    {
      "inputs": [
        {
          "internalType": "address",
          "name": "_address",
          "type": "address"
        },
        {
          "internalType": "bool",
          "name": "_status",
          "type": "bool"
        }
      ],
      "name": "setWhiteListAddr",
      "outputs": [],
      "stateMutability": "nonpayable",
      "type": "function"
    },
    {
      "inputs": [
        {
          "internalType": "address",
          "name": "",
          "type": "address"
        }
      ],
      "name": "storageList",
      "outputs": [
        {
          "internalType": "uint256",
          "name": "totalStored",
          "type": "uint256"
        },
        {
          "internalType": "uint256",
          "name": "availableStorage",
          "type": "uint256"
        },
        {
          "internalType": "bool",
          "name": "isKnownUser",
          "type": "bool"
        }
      ],
      "stateMutability": "view",
      "type": "function"
    },
    {
      "inputs": [
        {
          "internalType": "address",
          "name": "_coinAddress",
          "type": "address"
        },
        {
          "internalType": "address",
          "name": "wallet",
          "type": "address"
        },
        {
          "internalType": "uint256",
          "name": "amount",
          "type": "uint256"
        }
      ],
      "name": "transferAmount",
      "outputs": [],
      "stateMutability": "nonpayable",
      "type": "function"
    },
    {
      "inputs": [
        {
          "internalType": "address",
          "name": "newOwner",
          "type": "address"
        }
      ],
      "name": "transferOwnership",
      "outputs": [],
      "stateMutability": "nonpayable",
      "type": "function"
    },
    {
      "inputs": [
        {
          "internalType": "address",
          "name": "user",
          "type": "address"
        },
        {
          "internalType": "uint256",
          "name": "addOnStorage",
          "type": "uint256"
        }
      ],
      "name": "updateAvailableStorage",
      "outputs": [],
      "stateMutability": "nonpayable",
      "type": "function"
    },
    {
      "inputs": [
        {
          "internalType": "address",
          "name": "user",
          "type": "address"
        },
        {
          "internalType": "uint256",
          "name": "filesize",
          "type": "uint256"
        },
        {
          "internalType": "string",
          "name": "fileHash",
          "type": "string"
        }
      ],
      "name": "updateStorage",
      "outputs": [],
      "stateMutability": "nonpayable",
      "type": "function"
    },
    {
      "inputs": [
        {
          "internalType": "address",
          "name": "newImplementation",
          "type": "address"
        }
      ],
      "name": "upgradeTo",
      "outputs": [],
      "stateMutability": "nonpayable",
      "type": "function"
    },
    {
      "inputs": [
        {
          "internalType": "address",
          "name": "newImplementation",
          "type": "address"
        },
        {
          "internalType": "bytes",
          "name": "data",
          "type": "bytes"
        }
      ],
      "name": "upgradeToAndCall",
      "outputs": [],
      "stateMutability": "payable",
      "type": "function"
    },
    {
      "stateMutability": "payable",
      "type": "receive"
    }
  ],
  "bytecode": "0x60a06040523073ffffffffffffffffffffffffffffffffffffffff1660809073ffffffffffffffffffffffffffffffffffffffff1660601b81525034801561004657600080fd5b5060805160601c61407c61008160003960008181610cd501528181610d640152818161122e015281816112bd015261136d015261407c6000f3fe60806040526004361061016a5760003560e01c80636e19aca1116100d1578063b40148791161008a578063cbd3df3811610064578063cbd3df38146104db578063d6d6817714610504578063e2b3b2e214610543578063f2fde38b1461056c57610171565b8063b40148791461044a578063b49f33c814610473578063bae26f981461049c57610171565b80636e19aca114610381578063715018a61461039d5780638129fc1c146103b4578063859c50ae146103cb57806388363bf6146103f65780638da5cb5b1461041f57610171565b80633abd847b116101235780633abd847b1461026e5780634a5676b8146102975780634ce639d2146102d45780634f1ef2861461031157806352d1902d1461032d578063595ba7681461035857610171565b806301f47471146101765780630a86b87f1461019f57806311088206146101c85780632bf31cea146101f357806333026bb61461021c5780633659cfe61461024557610171565b3661017157005b600080fd5b34801561018257600080fd5b5061019d60048036038101906101989190612be5565b610595565b005b3480156101ab57600080fd5b506101c660048036038101906101c19190612dbe565b610794565b005b3480156101d457600080fd5b506101dd61081a565b6040516101ea9190613505565b60405180910390f35b3480156101ff57600080fd5b5061021a60048036038101906102159190612dbe565b610824565b005b34801561022857600080fd5b50610243600480360381019061023e9190612cc4565b6108aa565b005b34801561025157600080fd5b5061026c60048036038101906102679190612b80565b610cd3565b005b34801561027a57600080fd5b5061029560048036038101906102909190612c34565b610e82565b005b3480156102a357600080fd5b506102be60048036038101906102b99190612b80565b610f9f565b6040516102cb9190613505565b60405180910390f35b3480156102e057600080fd5b506102fb60048036038101906102f69190612dbe565b610feb565b6040516103089190613505565b60405180910390f35b61032b60048036038101906103269190612c70565b61122c565b005b34801561033957600080fd5b50610342611369565b60405161034f919061326d565b60405180910390f35b34801561036457600080fd5b5061037f600480360381019061037a9190612d00565b611422565b005b61039b60048036038101906103969190612d00565b611761565b005b3480156103a957600080fd5b506103b26117bc565b005b3480156103c057600080fd5b506103c9611844565b005b3480156103d757600080fd5b506103e06118eb565b6040516103ed9190613505565b60405180910390f35b34801561040257600080fd5b5061041d60048036038101906104189190612b80565b6118f1565b005b34801561042b57600080fd5b50610434611aa8565b60405161044191906131f2565b60405180910390f35b34801561045657600080fd5b50610471600480360381019061046c9190612cc4565b611ad2565b005b34801561047f57600080fd5b5061049a60048036038101906104959190612cc4565b611c4a565b005b3480156104a857600080fd5b506104c360048036038101906104be9190612b80565b611d21565b6040516104d293929190613520565b60405180910390f35b3480156104e757600080fd5b5061050260048036038101906104fd9190612b80565b611d58565b005b34801561051057600080fd5b5061052b60048036038101906105269190612cc4565b611e18565b60405161053a93929190613557565b60405180910390f35b34801561054f57600080fd5b5061056a60048036038101906105659190612ba9565b611e5f565b005b34801561057857600080fd5b50610593600480360381019061058e9190612b80565b611fd0565b005b61059d6120c8565b73ffffffffffffffffffffffffffffffffffffffff166105bb611aa8565b73ffffffffffffffffffffffffffffffffffffffff1614610611576040517f08c379a000000000000000000000000000000000000000000000000000000000815260040161060890613425565b60405180910390fd5b8273ffffffffffffffffffffffffffffffffffffffff166370a08231306040518263ffffffff1660e01b815260040161064a91906131f2565b60206040518083038186803b15801561066257600080fd5b505afa158015610676573d6000803e3d6000fd5b505050506040513d601f19601f8201168201806040525081019061069a9190612de7565b8111156106a657600080fd5b8273ffffffffffffffffffffffffffffffffffffffff1663a9059cbb83836040518363ffffffff1660e01b81526004016106e1929190613244565b602060405180830381600087803b1580156106fb57600080fd5b505af115801561070f573d6000803e3d6000fd5b505050506040513d601f19601f820116820180604052508101906107339190612d6c565b50808373ffffffffffffffffffffffffffffffffffffffff168373ffffffffffffffffffffffffffffffffffffffff167f5a6ad959135224fa7091d784adcf326544e674afc0cd3a125f76e2e6b29cc36660405160405180910390a4505050565b61079c6120c8565b73ffffffffffffffffffffffffffffffffffffffff166107ba611aa8565b73ffffffffffffffffffffffffffffffffffffffff1614610810576040517f08c379a000000000000000000000000000000000000000000000000000000000815260040161080790613425565b60405180910390fd5b8060cb8190555050565b600060ca54905090565b61082c6120c8565b73ffffffffffffffffffffffffffffffffffffffff1661084a611aa8565b73ffffffffffffffffffffffffffffffffffffffff16146108a0576040517f08c379a000000000000000000000000000000000000000000000000000000000815260040161089790613425565b60405180910390fd5b8060ca8190555050565b600033905060008373ffffffffffffffffffffffffffffffffffffffff1663313ce5676040518163ffffffff1660e01b815260040160206040518083038186803b1580156108f757600080fd5b505afa15801561090b573d6000803e3d6000fd5b505050506040513d601f19601f8201168201806040525081019061092f9190612e87565b60ff169050600060cf60008673ffffffffffffffffffffffffffffffffffffffff1673ffffffffffffffffffffffffffffffffffffffff1681526020019081526020016000205414156109b7576040517f08c379a00000000000000000000000000000000000000000000000000000000081526004016109ae90613445565b60405180910390fd5b828473ffffffffffffffffffffffffffffffffffffffff166370a08231846040518263ffffffff1660e01b81526004016109f191906131f2565b60206040518083038186803b158015610a0957600080fd5b505afa158015610a1d573d6000803e3d6000fd5b505050506040513d601f19601f82011682018060405250810190610a419190612de7565b1015610a82576040517f08c379a0000000000000000000000000000000000000000000000000000000008152600401610a7990613345565b60405180910390fd5b6000610b22620f4240610b1484600a610a9b91906136f0565b610b06610aa661081a565b610af860cf60008d73ffffffffffffffffffffffffffffffffffffffff1673ffffffffffffffffffffffffffffffffffffffff168152602001908152602001600020548b6120d090919063ffffffff16565b6120d090919063ffffffff16565b6120e690919063ffffffff16565b6120e690919063ffffffff16565b905060cc60003373ffffffffffffffffffffffffffffffffffffffff1673ffffffffffffffffffffffffffffffffffffffff16815260200190815260200160002060405180606001604052804281526020018681526020018381525090806001815401808255809150506001900390600052602060002090600302016000909190919091506000820151816000015560208201518160010155604082015181600201555050610bd133826120fc565b8473ffffffffffffffffffffffffffffffffffffffff166323b872dd8430876040518463ffffffff1660e01b8152600401610c0e9392919061320d565b602060405180830381600087803b158015610c2857600080fd5b505af1158015610c3c573d6000803e3d6000fd5b505050506040513d601f19601f82011682018060405250810190610c609190612d6c565b508473ffffffffffffffffffffffffffffffffffffffff163373ffffffffffffffffffffffffffffffffffffffff167f37d822ecaa322d551ac3fb006e69d00a726925969995ad76c4f6596b5a8cbc568660ca5485604051610cc493929190613557565b60405180910390a35050505050565b7f000000000000000000000000000000000000000000000000000000000000000073ffffffffffffffffffffffffffffffffffffffff163073ffffffffffffffffffffffffffffffffffffffff161415610d62576040517f08c379a0000000000000000000000000000000000000000000000000000000008152600401610d5990613305565b60405180910390fd5b7f000000000000000000000000000000000000000000000000000000000000000073ffffffffffffffffffffffffffffffffffffffff16610da1612163565b73ffffffffffffffffffffffffffffffffffffffff1614610df7576040517f08c379a0000000000000000000000000000000000000000000000000000000008152600401610dee90613325565b60405180910390fd5b610e00816121ba565b610e7f81600067ffffffffffffffff811115610e45577f4e487b7100000000000000000000000000000000000000000000000000000000600052604160045260246000fd5b6040519080825280601f01601f191660200182016040528015610e775781602001600182028036833780820191505090505b506000612239565b50565b610e8a6120c8565b73ffffffffffffffffffffffffffffffffffffffff16610ea8611aa8565b73ffffffffffffffffffffffffffffffffffffffff1614610efe576040517f08c379a0000000000000000000000000000000000000000000000000000000008152600401610ef590613425565b60405180910390fd5b8060ce60008473ffffffffffffffffffffffffffffffffffffffff1673ffffffffffffffffffffffffffffffffffffffff16815260200190815260200160002060006101000a81548160ff0219169083151502179055508015158273ffffffffffffffffffffffffffffffffffffffff167f76f7735e60e167186168755b9dafbe4e8ab2ce33e2ef11b45de4c02311222de560405160405180910390a35050565b600060cd60008373ffffffffffffffffffffffffffffffffffffffff1673ffffffffffffffffffffffffffffffffffffffff168152602001908152602001600020600101549050919050565b60008073ffffffffffffffffffffffffffffffffffffffff1660c960009054906101000a900473ffffffffffffffffffffffffffffffffffffffff1673ffffffffffffffffffffffffffffffffffffffff16141561107e576040517f08c379a0000000000000000000000000000000000000000000000000000000008152600401611075906134c5565b60405180910390fd5b600060c960009054906101000a900473ffffffffffffffffffffffffffffffffffffffff1673ffffffffffffffffffffffffffffffffffffffff1663feaf968c6040518163ffffffff1660e01b815260040160a06040518083038186803b1580156110e857600080fd5b505afa1580156110fc573d6000803e3d6000fd5b505050506040513d601f19601f820116820180604052508101906111209190612e10565b50505091505061122461113e8260ca546120d090919063ffffffff16565b61121660c960009054906101000a900473ffffffffffffffffffffffffffffffffffffffff1673ffffffffffffffffffffffffffffffffffffffff1663313ce5676040518163ffffffff1660e01b815260040160206040518083038186803b1580156111a957600080fd5b505afa1580156111bd573d6000803e3d6000fd5b505050506040513d601f19601f820116820180604052508101906111e19190612e87565b600a6111ed919061373b565b611208670de0b6b3a7640000886120d090919063ffffffff16565b6120d090919063ffffffff16565b6120e690919063ffffffff16565b915050919050565b7f000000000000000000000000000000000000000000000000000000000000000073ffffffffffffffffffffffffffffffffffffffff163073ffffffffffffffffffffffffffffffffffffffff1614156112bb576040517f08c379a00000000000000000000000000000000000000000000000000000000081526004016112b290613305565b60405180910390fd5b7f000000000000000000000000000000000000000000000000000000000000000073ffffffffffffffffffffffffffffffffffffffff166112fa612163565b73ffffffffffffffffffffffffffffffffffffffff1614611350576040517f08c379a000000000000000000000000000000000000000000000000000000000815260040161134790613325565b60405180910390fd5b611359826121ba565b61136582826001612239565b5050565b60007f000000000000000000000000000000000000000000000000000000000000000073ffffffffffffffffffffffffffffffffffffffff163073ffffffffffffffffffffffffffffffffffffffff16146113f9576040517f08c379a00000000000000000000000000000000000000000000000000000000081526004016113f090613365565b60405180910390fd5b7f360894a13ba1a3210667c828492db98dca3e2076cc3735a920a3ca505d382bbc60001b905090565b60ce60003373ffffffffffffffffffffffffffffffffffffffff1673ffffffffffffffffffffffffffffffffffffffff16815260200190815260200160002060009054906101000a900460ff16806114ac575061147d611aa8565b73ffffffffffffffffffffffffffffffffffffffff163373ffffffffffffffffffffffffffffffffffffffff16145b6114eb576040517f08c379a00000000000000000000000000000000000000000000000000000000081526004016114e290613465565b60405180910390fd5b60cd60008573ffffffffffffffffffffffffffffffffffffffff1673ffffffffffffffffffffffffffffffffffffffff16815260200190815260200160002060020160009054906101000a900460ff166115a75761154b8460cb546120fc565b600160cd60008673ffffffffffffffffffffffffffffffffffffffff1673ffffffffffffffffffffffffffffffffffffffff16815260200190815260200160002060020160006101000a81548160ff0219169083151502179055505b60cd60008573ffffffffffffffffffffffffffffffffffffffff1673ffffffffffffffffffffffffffffffffffffffff168152602001908152602001600020600301828290918060018154018082558091505060019003906000526020600020016000909192909192909192909192509190611624929190612959565b5061167a8360cd60008773ffffffffffffffffffffffffffffffffffffffff1673ffffffffffffffffffffffffffffffffffffffff168152602001908152602001600020600001546123b690919063ffffffff16565b60cd60008673ffffffffffffffffffffffffffffffffffffffff1673ffffffffffffffffffffffffffffffffffffffff168152602001908152602001600020600001819055506117158360cd60008773ffffffffffffffffffffffffffffffffffffffff1673ffffffffffffffffffffffffffffffffffffffff168152602001908152602001600020600101546123cc90919063ffffffff16565b60cd60008673ffffffffffffffffffffffffffffffffffffffff1673ffffffffffffffffffffffffffffffffffffffff1681526020019081526020016000206001018190555050505050565b61176a83610feb565b3410156117a0577f4e487b7100000000000000000000000000000000000000000000000000000000600052600160045260246000fd5b6117aa84846120fc565b6117b684848484611422565b50505050565b6117c46120c8565b73ffffffffffffffffffffffffffffffffffffffff166117e2611aa8565b73ffffffffffffffffffffffffffffffffffffffff1614611838576040517f08c379a000000000000000000000000000000000000000000000000000000000815260040161182f90613425565b60405180910390fd5b61184260006123e2565b565b600061185060016124a8565b90508015611874576001600060016101000a81548160ff0219169083151502179055505b61187c612598565b6118846125f1565b630ccccccd60ca8190555080156118e85760008060016101000a81548160ff0219169083151502179055507f7f26b83ff96e1f2b6a682f133852f6798a09c465da95921460cefb384740249860016040516118df9190613288565b60405180910390a15b50565b60cb5481565b6118f96120c8565b73ffffffffffffffffffffffffffffffffffffffff16611917611aa8565b73ffffffffffffffffffffffffffffffffffffffff161461196d576040517f08c379a000000000000000000000000000000000000000000000000000000000815260040161196490613425565b60405180910390fd5b600073ffffffffffffffffffffffffffffffffffffffff168173ffffffffffffffffffffffffffffffffffffffff1614156119dd576040517f08c379a00000000000000000000000000000000000000000000000000000000081526004016119d4906132e5565b60405180910390fd5b600060cf60008373ffffffffffffffffffffffffffffffffffffffff1673ffffffffffffffffffffffffffffffffffffffff168152602001908152602001600020541415611a60576040517f08c379a0000000000000000000000000000000000000000000000000000000008152600401611a57906134a5565b60405180910390fd5b600060cf60008373ffffffffffffffffffffffffffffffffffffffff1673ffffffffffffffffffffffffffffffffffffffff1681526020019081526020016000208190555050565b6000603360009054906101000a900473ffffffffffffffffffffffffffffffffffffffff16905090565b611ada6120c8565b73ffffffffffffffffffffffffffffffffffffffff16611af8611aa8565b73ffffffffffffffffffffffffffffffffffffffff1614611b4e576040517f08c379a0000000000000000000000000000000000000000000000000000000008152600401611b4590613425565b60405180910390fd5b600073ffffffffffffffffffffffffffffffffffffffff168273ffffffffffffffffffffffffffffffffffffffff161415611bbe576040517f08c379a0000000000000000000000000000000000000000000000000000000008152600401611bb5906132e5565b60405180910390fd5b6000811415611c02576040517f08c379a0000000000000000000000000000000000000000000000000000000008152600401611bf9906133c5565b60405180910390fd5b8060cf60008473ffffffffffffffffffffffffffffffffffffffff1673ffffffffffffffffffffffffffffffffffffffff168152602001908152602001600020819055505050565b60ce60003373ffffffffffffffffffffffffffffffffffffffff1673ffffffffffffffffffffffffffffffffffffffff16815260200190815260200160002060009054906101000a900460ff1680611cd45750611ca5611aa8565b73ffffffffffffffffffffffffffffffffffffffff163373ffffffffffffffffffffffffffffffffffffffff16145b611d13576040517f08c379a0000000000000000000000000000000000000000000000000000000008152600401611d0a90613465565b60405180910390fd5b611d1d82826120fc565b5050565b60cd6020528060005260406000206000915090508060000154908060010154908060020160009054906101000a900460ff16905083565b611d606120c8565b73ffffffffffffffffffffffffffffffffffffffff16611d7e611aa8565b73ffffffffffffffffffffffffffffffffffffffff1614611dd4576040517f08c379a0000000000000000000000000000000000000000000000000000000008152600401611dcb90613425565b60405180910390fd5b8060c960006101000a81548173ffffffffffffffffffffffffffffffffffffffff021916908373ffffffffffffffffffffffffffffffffffffffff16021790555050565b60cc6020528160005260406000208181548110611e3457600080fd5b9060005260206000209060030201600091509150508060000154908060010154908060020154905083565b611e676120c8565b73ffffffffffffffffffffffffffffffffffffffff16611e85611aa8565b73ffffffffffffffffffffffffffffffffffffffff1614611edb576040517f08c379a0000000000000000000000000000000000000000000000000000000008152600401611ed290613425565b60405180910390fd5b803073ffffffffffffffffffffffffffffffffffffffff16311015611f29577f4e487b7100000000000000000000000000000000000000000000000000000000600052600160045260246000fd5b8173ffffffffffffffffffffffffffffffffffffffff166108fc829081150290604051600060405180830381858888f19350505050158015611f6f573d6000803e3d6000fd5b5080600073ffffffffffffffffffffffffffffffffffffffff168373ffffffffffffffffffffffffffffffffffffffff167f5a6ad959135224fa7091d784adcf326544e674afc0cd3a125f76e2e6b29cc36660405160405180910390a45050565b611fd86120c8565b73ffffffffffffffffffffffffffffffffffffffff16611ff6611aa8565b73ffffffffffffffffffffffffffffffffffffffff161461204c576040517f08c379a000000000000000000000000000000000000000000000000000000000815260040161204390613425565b60405180910390fd5b600073ffffffffffffffffffffffffffffffffffffffff168173ffffffffffffffffffffffffffffffffffffffff1614156120bc576040517f08c379a00000000000000000000000000000000000000000000000000000000081526004016120b3906132c5565b60405180910390fd5b6120c5816123e2565b50565b600033905090565b600081836120de9190613859565b905092915050565b600081836120f4919061366c565b905092915050565b600060cd60008473ffffffffffffffffffffffffffffffffffffffff1673ffffffffffffffffffffffffffffffffffffffff16815260200190815260200160002090506121568282600101546123b690919063ffffffff16565b8160010181905550505050565b60006121917f360894a13ba1a3210667c828492db98dca3e2076cc3735a920a3ca505d382bbc60001b612642565b60000160009054906101000a900473ffffffffffffffffffffffffffffffffffffffff16905090565b6121c26120c8565b73ffffffffffffffffffffffffffffffffffffffff166121e0611aa8565b73ffffffffffffffffffffffffffffffffffffffff1614612236576040517f08c379a000000000000000000000000000000000000000000000000000000000815260040161222d90613425565b60405180910390fd5b50565b6122657f4910fdfa16fed3260ed0e7147f7cc6da11a60208b5b9406d12a635614ffd914360001b61264c565b60000160009054906101000a900460ff16156122895761228483612656565b6123b1565b8273ffffffffffffffffffffffffffffffffffffffff166352d1902d6040518163ffffffff1660e01b815260040160206040518083038186803b1580156122cf57600080fd5b505afa92505050801561230057506040513d601f19601f820116820180604052508101906122fd9190612d95565b60015b61233f576040517f08c379a0000000000000000000000000000000000000000000000000000000008152600401612336906133e5565b60405180910390fd5b7f360894a13ba1a3210667c828492db98dca3e2076cc3735a920a3ca505d382bbc60001b81146123a4576040517f08c379a000000000000000000000000000000000000000000000000000000000815260040161239b90613385565b60405180910390fd5b506123b083838361270f565b5b505050565b600081836123c49190613616565b905092915050565b600081836123da91906138b3565b905092915050565b6000603360009054906101000a900473ffffffffffffffffffffffffffffffffffffffff16905081603360006101000a81548173ffffffffffffffffffffffffffffffffffffffff021916908373ffffffffffffffffffffffffffffffffffffffff1602179055508173ffffffffffffffffffffffffffffffffffffffff168173ffffffffffffffffffffffffffffffffffffffff167f8be0079c531659141344cd1fd0a4f28419497f9722a3daafe3b4186f6b6457e060405160405180910390a35050565b60008060019054906101000a900460ff161561251f5760018260ff161480156124d757506124d53061273b565b155b612516576040517f08c379a000000000000000000000000000000000000000000000000000000000815260040161250d906133a5565b60405180910390fd5b60009050612593565b8160ff1660008054906101000a900460ff1660ff1610612574576040517f08c379a000000000000000000000000000000000000000000000000000000000815260040161256b906133a5565b60405180910390fd5b816000806101000a81548160ff021916908360ff160217905550600190505b919050565b600060019054906101000a900460ff166125e7576040517f08c379a00000000000000000000000000000000000000000000000000000000081526004016125de906134e5565b60405180910390fd5b6125ef61275e565b565b600060019054906101000a900460ff16612640576040517f08c379a0000000000000000000000000000000000000000000000000000000008152600401612637906134e5565b60405180910390fd5b565b6000819050919050565b6000819050919050565b61265f8161273b565b61269e576040517f08c379a000000000000000000000000000000000000000000000000000000000815260040161269590613405565b60405180910390fd5b806126cb7f360894a13ba1a3210667c828492db98dca3e2076cc3735a920a3ca505d382bbc60001b612642565b60000160006101000a81548173ffffffffffffffffffffffffffffffffffffffff021916908373ffffffffffffffffffffffffffffffffffffffff16021790555050565b612718836127bf565b6000825111806127255750805b1561273657612734838361280e565b505b505050565b6000808273ffffffffffffffffffffffffffffffffffffffff163b119050919050565b600060019054906101000a900460ff166127ad576040517f08c379a00000000000000000000000000000000000000000000000000000000081526004016127a4906134e5565b60405180910390fd5b6127bd6127b86120c8565b6123e2565b565b6127c881612656565b8073ffffffffffffffffffffffffffffffffffffffff167fbc7cd75a20ee27fd9adebab32041f755214dbc6bffa90cc0225b39da2e5c2d3b60405160405180910390a250565b60606128198361273b565b612858576040517f08c379a000000000000000000000000000000000000000000000000000000000815260040161284f90613485565b60405180910390fd5b6000808473ffffffffffffffffffffffffffffffffffffffff168460405161288091906131db565b600060405180830381855af49150503d80600081146128bb576040519150601f19603f3d011682016040523d82523d6000602084013e6128c0565b606091505b50915091506128e88282604051806060016040528060278152602001614020602791396128f2565b9250505092915050565b6060831561290257829050612952565b6000835111156129155782518084602001fd5b816040517f08c379a000000000000000000000000000000000000000000000000000000000815260040161294991906132a3565b60405180910390fd5b9392505050565b828054612965906139cc565b90600052602060002090601f01602090048101928261298757600085556129ce565b82601f106129a057803560ff19168380011785556129ce565b828001600101855582156129ce579182015b828111156129cd5782358255916020019190600101906129b2565b5b5090506129db91906129df565b5090565b5b808211156129f85760008160009055506001016129e0565b5090565b6000612a0f612a0a846135b3565b61358e565b905082815260208101848484011115612a2757600080fd5b612a3284828561398a565b509392505050565b600081359050612a4981613f67565b92915050565b600081359050612a5e81613f7e565b92915050565b600081359050612a7381613f95565b92915050565b600081519050612a8881613f95565b92915050565b600081519050612a9d81613fac565b92915050565b600082601f830112612ab457600080fd5b8135612ac48482602086016129fc565b91505092915050565b600081519050612adc81613fc3565b92915050565b60008083601f840112612af457600080fd5b8235905067ffffffffffffffff811115612b0d57600080fd5b602083019150836001820283011115612b2557600080fd5b9250929050565b600081359050612b3b81613fda565b92915050565b600081519050612b5081613fda565b92915050565b600081519050612b6581614008565b92915050565b600081519050612b7a81613ff1565b92915050565b600060208284031215612b9257600080fd5b6000612ba084828501612a3a565b91505092915050565b60008060408385031215612bbc57600080fd5b6000612bca85828601612a4f565b9250506020612bdb85828601612b2c565b9150509250929050565b600080600060608486031215612bfa57600080fd5b6000612c0886828701612a3a565b9350506020612c1986828701612a3a565b9250506040612c2a86828701612b2c565b9150509250925092565b60008060408385031215612c4757600080fd5b6000612c5585828601612a3a565b9250506020612c6685828601612a64565b9150509250929050565b60008060408385031215612c8357600080fd5b6000612c9185828601612a3a565b925050602083013567ffffffffffffffff811115612cae57600080fd5b612cba85828601612aa3565b9150509250929050565b60008060408385031215612cd757600080fd5b6000612ce585828601612a3a565b9250506020612cf685828601612b2c565b9150509250929050565b60008060008060608587031215612d1657600080fd5b6000612d2487828801612a3a565b9450506020612d3587828801612b2c565b935050604085013567ffffffffffffffff811115612d5257600080fd5b612d5e87828801612ae2565b925092505092959194509250565b600060208284031215612d7e57600080fd5b6000612d8c84828501612a79565b91505092915050565b600060208284031215612da757600080fd5b6000612db584828501612a8e565b91505092915050565b600060208284031215612dd057600080fd5b6000612dde84828501612b2c565b91505092915050565b600060208284031215612df957600080fd5b6000612e0784828501612b41565b91505092915050565b600080600080600060a08688031215612e2857600080fd5b6000612e3688828901612b56565b9550506020612e4788828901612acd565b9450506040612e5888828901612b41565b9350506060612e6988828901612b41565b9250506080612e7a88828901612b56565b9150509295509295909350565b600060208284031215612e9957600080fd5b6000612ea784828501612b6b565b91505092915050565b612eb9816138e7565b82525050565b612ec88161390b565b82525050565b612ed781613917565b82525050565b6000612ee8826135e4565b612ef281856135fa565b9350612f02818560208601613999565b80840191505092915050565b612f1781613978565b82525050565b6000612f28826135ef565b612f328185613605565b9350612f42818560208601613999565b612f4b81613aeb565b840191505092915050565b6000612f63602683613605565b9150612f6e82613b09565b604082019050919050565b6000612f86601583613605565b9150612f9182613b58565b602082019050919050565b6000612fa9602c83613605565b9150612fb482613b81565b604082019050919050565b6000612fcc602c83613605565b9150612fd782613bd0565b604082019050919050565b6000612fef601383613605565b9150612ffa82613c1f565b602082019050919050565b6000613012603883613605565b915061301d82613c48565b604082019050919050565b6000613035602983613605565b915061304082613c97565b604082019050919050565b6000613058602e83613605565b915061306382613ce6565b604082019050919050565b600061307b601283613605565b915061308682613d35565b602082019050919050565b600061309e602e83613605565b91506130a982613d5e565b604082019050919050565b60006130c1602d83613605565b91506130cc82613dad565b604082019050919050565b60006130e4602083613605565b91506130ef82613dfc565b602082019050919050565b6000613107601583613605565b915061311282613e25565b602082019050919050565b600061312a601783613605565b915061313582613e4e565b602082019050919050565b600061314d602683613605565b915061315882613e77565b604082019050919050565b6000613170601583613605565b915061317b82613ec6565b602082019050919050565b6000613193601283613605565b915061319e82613eef565b602082019050919050565b60006131b6602b83613605565b91506131c182613f18565b604082019050919050565b6131d58161394b565b82525050565b60006131e78284612edd565b915081905092915050565b60006020820190506132076000830184612eb0565b92915050565b60006060820190506132226000830186612eb0565b61322f6020830185612eb0565b61323c60408301846131cc565b949350505050565b60006040820190506132596000830185612eb0565b61326660208301846131cc565b9392505050565b60006020820190506132826000830184612ece565b92915050565b600060208201905061329d6000830184612f0e565b92915050565b600060208201905081810360008301526132bd8184612f1d565b905092915050565b600060208201905081810360008301526132de81612f56565b9050919050565b600060208201905081810360008301526132fe81612f79565b9050919050565b6000602082019050818103600083015261331e81612f9c565b9050919050565b6000602082019050818103600083015261333e81612fbf565b9050919050565b6000602082019050818103600083015261335e81612fe2565b9050919050565b6000602082019050818103600083015261337e81613005565b9050919050565b6000602082019050818103600083015261339e81613028565b9050919050565b600060208201905081810360008301526133be8161304b565b9050919050565b600060208201905081810360008301526133de8161306e565b9050919050565b600060208201905081810360008301526133fe81613091565b9050919050565b6000602082019050818103600083015261341e816130b4565b9050919050565b6000602082019050818103600083015261343e816130d7565b9050919050565b6000602082019050818103600083015261345e816130fa565b9050919050565b6000602082019050818103600083015261347e8161311d565b9050919050565b6000602082019050818103600083015261349e81613140565b9050919050565b600060208201905081810360008301526134be81613163565b9050919050565b600060208201905081810360008301526134de81613186565b9050919050565b600060208201905081810360008301526134fe816131a9565b9050919050565b600060208201905061351a60008301846131cc565b92915050565b600060608201905061353560008301866131cc565b61354260208301856131cc565b61354f6040830184612ebf565b949350505050565b600060608201905061356c60008301866131cc565b61357960208301856131cc565b61358660408301846131cc565b949350505050565b60006135986135a9565b90506135a482826139fe565b919050565b6000604051905090565b600067ffffffffffffffff8211156135ce576135cd613abc565b5b6135d782613aeb565b9050602081019050919050565b600081519050919050565b600081519050919050565b600081905092915050565b600082825260208201905092915050565b60006136218261394b565b915061362c8361394b565b9250827fffffffffffffffffffffffffffffffffffffffffffffffffffffffffffffffff0382111561366157613660613a2f565b5b828201905092915050565b60006136778261394b565b91506136828361394b565b92508261369257613691613a5e565b5b828204905092915050565b6000808291508390505b60018511156136e7578086048111156136c3576136c2613a2f565b5b60018516156136d25780820291505b80810290506136e085613afc565b94506136a7565b94509492505050565b60006136fb8261394b565b91506137068361394b565b92506137337fffffffffffffffffffffffffffffffffffffffffffffffffffffffffffffffff8484613786565b905092915050565b60006137468261394b565b915061375183613955565b925061377e7fffffffffffffffffffffffffffffffffffffffffffffffffffffffffffffffff8484613786565b905092915050565b6000826137965760019050613852565b816137a45760009050613852565b81600181146137ba57600281146137c4576137f3565b6001915050613852565b60ff8411156137d6576137d5613a2f565b5b8360020a9150848211156137ed576137ec613a2f565b5b50613852565b5060208310610133831016604e8410600b84101617156138285782820a90508381111561382357613822613a2f565b5b613852565b613835848484600161369d565b9250905081840481111561384c5761384b613a2f565b5b81810290505b9392505050565b60006138648261394b565b915061386f8361394b565b9250817fffffffffffffffffffffffffffffffffffffffffffffffffffffffffffffffff04831182151516156138a8576138a7613a2f565b5b828202905092915050565b60006138be8261394b565b91506138c98361394b565b9250828210156138dc576138db613a2f565b5b828203905092915050565b60006138f28261392b565b9050919050565b60006139048261392b565b9050919050565b60008115159050919050565b6000819050919050565b6000819050919050565b600073ffffffffffffffffffffffffffffffffffffffff82169050919050565b6000819050919050565b600060ff82169050919050565b600069ffffffffffffffffffff82169050919050565b600061398382613955565b9050919050565b82818337600083830152505050565b60005b838110156139b757808201518184015260208101905061399c565b838111156139c6576000848401525b50505050565b600060028204905060018216806139e457607f821691505b602082108114156139f8576139f7613a8d565b5b50919050565b613a0782613aeb565b810181811067ffffffffffffffff82111715613a2657613a25613abc565b5b80604052505050565b7f4e487b7100000000000000000000000000000000000000000000000000000000600052601160045260246000fd5b7f4e487b7100000000000000000000000000000000000000000000000000000000600052601260045260246000fd5b7f4e487b7100000000000000000000000000000000000000000000000000000000600052602260045260246000fd5b7f4e487b7100000000000000000000000000000000000000000000000000000000600052604160045260246000fd5b6000601f19601f8301169050919050565b60008160011c9050919050565b7f4f776e61626c653a206e6577206f776e657220697320746865207a65726f206160008201527f6464726573730000000000000000000000000000000000000000000000000000602082015250565b7f416464726573732063616e2774206265207a65726f0000000000000000000000600082015250565b7f46756e6374696f6e206d7573742062652063616c6c6564207468726f7567682060008201527f64656c656761746563616c6c0000000000000000000000000000000000000000602082015250565b7f46756e6374696f6e206d7573742062652063616c6c6564207468726f7567682060008201527f6163746976652070726f78790000000000000000000000000000000000000000602082015250565b7f696e737566666963656e742042616c616e636500000000000000000000000000600082015250565b7f555550535570677261646561626c653a206d757374206e6f742062652063616c60008201527f6c6564207468726f7567682064656c656761746563616c6c0000000000000000602082015250565b7f45524331393637557067726164653a20756e737570706f727465642070726f7860008201527f6961626c65555549440000000000000000000000000000000000000000000000602082015250565b7f496e697469616c697a61626c653a20636f6e747261637420697320616c72656160008201527f647920696e697469616c697a6564000000000000000000000000000000000000602082015250565b7f726174652063616e2774206265207a65726f0000000000000000000000000000600082015250565b7f45524331393637557067726164653a206e657720696d706c656d656e7461746960008201527f6f6e206973206e6f742055555053000000000000000000000000000000000000602082015250565b7f455243313936373a206e657720696d706c656d656e746174696f6e206973206e60008201527f6f74206120636f6e747261637400000000000000000000000000000000000000602082015250565b7f4f776e61626c653a2063616c6c6572206973206e6f7420746865206f776e6572600082015250565b7f7375676765737420636f696e20746f2041646d696e0000000000000000000000600082015250565b7f4163636f756e74204e6f742057686974656c6973746564000000000000000000600082015250565b7f416464726573733a2064656c65676174652063616c6c20746f206e6f6e2d636f60008201527f6e74726163740000000000000000000000000000000000000000000000000000602082015250565b7f636f696e20616c72656164792064697361626c65640000000000000000000000600082015250565b7f70726963652066656564206e6f74207365740000000000000000000000000000600082015250565b7f496e697469616c697a61626c653a20636f6e7472616374206973206e6f74206960008201527f6e697469616c697a696e67000000000000000000000000000000000000000000602082015250565b613f70816138e7565b8114613f7b57600080fd5b50565b613f87816138f9565b8114613f9257600080fd5b50565b613f9e8161390b565b8114613fa957600080fd5b50565b613fb581613917565b8114613fc057600080fd5b50565b613fcc81613921565b8114613fd757600080fd5b50565b613fe38161394b565b8114613fee57600080fd5b50565b613ffa81613955565b811461400557600080fd5b50565b61401181613962565b811461401c57600080fd5b5056fe416464726573733a206c6f772d6c6576656c2064656c65676174652063616c6c206661696c6564a264697066735822122005f0bec2cb46499e93550ddfab14f0b04ae2fffa29c5313851bb99b13dc8af4d64736f6c63430008040033",
  "linkReferences": {},
  "deployedLinkReferences": {}
}