{
  "_format": "hh-sol-artifact-1",
  "contractName": "DepositManager",
  "sourceName": "contracts/DepositManager.sol",
  "abi": [
    {
      "anonymous": false,
      "inputs": [
        {
          "indexed": true,
          "internalType": "address",
          "name": "depositor",
          "type": "address"
        },
        {
          "indexed": true,
          "internalType": "address",
          "name": "coinAddress",
          "type": "address"
        },
        {
          "indexed": false,
          "internalType": "uint256",
          "name": "amount",
          "type": "uint256"
        },
        {
          "indexed": false,
          "internalType": "uint256",
          "name": "rate",
          "type": "uint256"
        },
        {
          "indexed": false,
          "internalType": "uint256",
          "name": "storagePurchased",
          "type": "uint256"
        }
      ],
      "name": "AddDepositEvent",
      "type": "event"
    },
    {
      "anonymous": false,
      "inputs": [
        {
          "indexed": false,
          "internalType": "address",
          "name": "previousAdmin",
          "type": "address"
        },
        {
          "indexed": false,
          "internalType": "address",
          "name": "newAdmin",
          "type": "address"
        }
      ],
      "name": "AdminChanged",
      "type": "event"
    },
    {
      "anonymous": false,
      "inputs": [
        {
          "indexed": true,
          "internalType": "address",
          "name": "beacon",
          "type": "address"
        }
      ],
      "name": "BeaconUpgraded",
      "type": "event"
    },
    {
      "anonymous": false,
      "inputs": [
        {
          "indexed": false,
          "internalType": "uint8",
          "name": "version",
          "type": "uint8"
        }
      ],
      "name": "Initialized",
      "type": "event"
    },
    {
      "anonymous": false,
      "inputs": [
        {
          "indexed": true,
          "internalType": "address",
          "name": "previousOwner",
          "type": "address"
        },
        {
          "indexed": true,
          "internalType": "address",
          "name": "newOwner",
          "type": "address"
        }
      ],
      "name": "OwnershipTransferred",
      "type": "event"
    },
    {
      "anonymous": false,
      "inputs": [
        {
          "indexed": true,
          "internalType": "address",
          "name": "implementation",
          "type": "address"
        }
      ],
      "name": "Upgraded",
      "type": "event"
    },
    {
      "anonymous": false,
      "inputs": [
        {
          "indexed": true,
          "internalType": "address",
          "name": "whitelistAddress",
          "type": "address"
        },
        {
          "indexed": true,
          "internalType": "bool",
          "name": "status",
          "type": "bool"
        }
      ],
      "name": "whiteListingAddressEvent",
      "type": "event"
    },
    {
      "inputs": [
        {
          "internalType": "address",
          "name": "_coinAddress",
          "type": "address"
        },
        {
          "internalType": "uint256",
          "name": "rate",
          "type": "uint256"
        }
      ],
      "name": "addCoin",
      "outputs": [],
      "stateMutability": "nonpayable",
      "type": "function"
    },
    {
      "inputs": [
        {
          "internalType": "address",
          "name": "_coinAddress",
          "type": "address"
        },
        {
          "internalType": "uint256",
          "name": "_amount",
          "type": "uint256"
        }
      ],
      "name": "addDeposit",
      "outputs": [],
      "stateMutability": "nonpayable",
      "type": "function"
    },
    {
      "inputs": [
        {
          "internalType": "uint256",
          "name": "newCost",
          "type": "uint256"
        }
      ],
      "name": "changeCostOfStorage",
      "outputs": [],
      "stateMutability": "nonpayable",
      "type": "function"
    },
    {
      "inputs": [
        {
          "internalType": "address",
          "name": "aggregatorAddressFeed",
          "type": "address"
        }
      ],
      "name": "changePriceFeed",
      "outputs": [],
      "stateMutability": "nonpayable",
      "type": "function"
    },
    {
      "inputs": [],
      "name": "costOfStorage",
      "outputs": [
        {
          "internalType": "uint256",
          "name": "",
          "type": "uint256"
        }
      ],
      "stateMutability": "view",
      "type": "function"
    },
    {
      "inputs": [
        {
          "internalType": "address",
          "name": "",
          "type": "address"
        },
        {
          "internalType": "uint256",
          "name": "",
          "type": "uint256"
        }
      ],
      "name": "deposits",
      "outputs": [
        {
          "internalType": "uint256",
          "name": "timestamp",
          "type": "uint256"
        },
        {
          "internalType": "uint256",
          "name": "amount",
          "type": "uint256"
        },
        {
          "internalType": "uint256",
          "name": "storagePurchased",
          "type": "uint256"
        }
      ],
      "stateMutability": "view",
      "type": "function"
    },
    {
      "inputs": [
        {
          "internalType": "address",
          "name": "_address",
          "type": "address"
        }
      ],
      "name": "getAvailableSpace",
      "outputs": [
        {
          "internalType": "uint256",
          "name": "",
          "type": "uint256"
        }
      ],
      "stateMutability": "view",
      "type": "function"
    },
    {
      "inputs": [
        {
          "internalType": "uint256",
          "name": "size",
          "type": "uint256"
        }
      ],
      "name": "getStorageCost",
      "outputs": [
        {
          "internalType": "uint256",
          "name": "",
          "type": "uint256"
        }
      ],
      "stateMutability": "view",
      "type": "function"
    },
    {
      "inputs": [],
      "name": "initialize",
      "outputs": [],
      "stateMutability": "nonpayable",
      "type": "function"
    },
    {
      "inputs": [
        {
          "internalType": "address",
          "name": "user",
          "type": "address"
        },
        {
          "internalType": "uint256",
          "name": "filesize",
          "type": "uint256"
        },
        {
          "internalType": "string",
          "name": "fileHash",
          "type": "string"
        }
      ],
      "name": "instantStorage",
      "outputs": [],
      "stateMutability": "payable",
      "type": "function"
    },
    {
      "inputs": [],
      "name": "owner",
      "outputs": [
        {
          "internalType": "address",
          "name": "",
          "type": "address"
        }
      ],
      "stateMutability": "view",
      "type": "function"
    },
    {
      "inputs": [],
      "name": "proxiableUUID",
      "outputs": [
        {
          "internalType": "bytes32",
          "name": "",
          "type": "bytes32"
        }
      ],
      "stateMutability": "view",
      "type": "function"
    },
    {
      "inputs": [
        {
          "internalType": "address",
          "name": "_coinAddress",
          "type": "address"
        }
      ],
      "name": "removeCoin",
      "outputs": [],
      "stateMutability": "nonpayable",
      "type": "function"
    },
    {
      "inputs": [],
      "name": "renounceOwnership",
      "outputs": [],
      "stateMutability": "nonpayable",
      "type": "function"
    },
    {
      "inputs": [
        {
          "internalType": "address",
          "name": "_address",
          "type": "address"
        },
        {
          "internalType": "bool",
          "name": "_status",
          "type": "bool"
        }
      ],
      "name": "setWhiteListAddr",
      "outputs": [],
      "stateMutability": "nonpayable",
      "type": "function"
    },
    {
      "inputs": [
        {
          "internalType": "address",
          "name": "",
          "type": "address"
        }
      ],
      "name": "storageList",
      "outputs": [
        {
          "internalType": "uint256",
          "name": "totalStored",
          "type": "uint256"
        },
        {
          "internalType": "uint256",
          "name": "availableStorage",
          "type": "uint256"
        }
      ],
      "stateMutability": "view",
      "type": "function"
    },
    {
      "inputs": [
        {
          "internalType": "address",
          "name": "_coinAddress",
          "type": "address"
        },
        {
          "internalType": "address",
          "name": "wallet",
          "type": "address"
        },
        {
          "internalType": "uint256",
          "name": "amount",
          "type": "uint256"
        }
      ],
      "name": "transferAmount",
      "outputs": [],
      "stateMutability": "nonpayable",
      "type": "function"
    },
    {
      "inputs": [
        {
          "internalType": "address",
          "name": "newOwner",
          "type": "address"
        }
      ],
      "name": "transferOwnership",
      "outputs": [],
      "stateMutability": "nonpayable",
      "type": "function"
    },
    {
      "inputs": [
        {
          "internalType": "address",
          "name": "user",
          "type": "address"
        },
        {
          "internalType": "uint256",
          "name": "addOnStorage",
          "type": "uint256"
        }
      ],
      "name": "updateAvailableStorage",
      "outputs": [],
      "stateMutability": "nonpayable",
      "type": "function"
    },
    {
      "inputs": [
        {
          "internalType": "address",
          "name": "user",
          "type": "address"
        },
        {
          "internalType": "uint256",
          "name": "filesize",
          "type": "uint256"
        },
        {
          "internalType": "string",
          "name": "fileHash",
          "type": "string"
        }
      ],
      "name": "updateStorage",
      "outputs": [],
      "stateMutability": "nonpayable",
      "type": "function"
    },
    {
      "inputs": [
        {
          "internalType": "address",
          "name": "newImplementation",
          "type": "address"
        }
      ],
      "name": "upgradeTo",
      "outputs": [],
      "stateMutability": "nonpayable",
      "type": "function"
    },
    {
      "inputs": [
        {
          "internalType": "address",
          "name": "newImplementation",
          "type": "address"
        },
        {
          "internalType": "bytes",
          "name": "data",
          "type": "bytes"
        }
      ],
      "name": "upgradeToAndCall",
      "outputs": [],
      "stateMutability": "payable",
      "type": "function"
    }
  ],
  "bytecode": "0x60a06040523073ffffffffffffffffffffffffffffffffffffffff1660809073ffffffffffffffffffffffffffffffffffffffff1660601b81525034801561004657600080fd5b5060805160601c613b6361008160003960008181610b3a01528181610bc901528181610f5a01528181610fe901526110990152613b636000f3fe6080604052600436106101355760003560e01c80636e19aca1116100ab578063b40148791161006f578063b4014879146103ba578063b49f33c8146103e3578063bae26f981461040c578063cbd3df381461044a578063d6d6817714610473578063f2fde38b146104b257610135565b80636e19aca11461031c578063715018a6146103385780638129fc1c1461034f57806388363bf6146103665780638da5cb5b1461038f57610135565b80633abd847b116100fd5780633abd847b146102095780634a5676b8146102325780634ce639d21461026f5780634f1ef286146102ac57806352d1902d146102c8578063595ba768146102f357610135565b806301f474711461013a57806311088206146101635780632bf31cea1461018e57806333026bb6146101b75780633659cfe6146101e0575b600080fd5b34801561014657600080fd5b50610161600480360381019061015c91906127c9565b6104db565b005b34801561016f57600080fd5b5061017861067f565b6040516101859190613097565b60405180910390f35b34801561019a57600080fd5b506101b560048036038101906101b091906129a2565b610689565b005b3480156101c357600080fd5b506101de60048036038101906101d991906128a8565b61070f565b005b3480156101ec57600080fd5b50610207600480360381019061020291906127a0565b610b38565b005b34801561021557600080fd5b50610230600480360381019061022b9190612818565b610ce7565b005b34801561023e57600080fd5b50610259600480360381019061025491906127a0565b610e04565b6040516102669190613097565b60405180910390f35b34801561027b57600080fd5b50610296600480360381019061029191906129a2565b610e50565b6040516102a39190613097565b60405180910390f35b6102c660048036038101906102c19190612854565b610f58565b005b3480156102d457600080fd5b506102dd611095565b6040516102ea9190612e1f565b60405180910390f35b3480156102ff57600080fd5b5061031a600480360381019061031591906128e4565b61114e565b005b610336600480360381019061033191906128e4565b6113d1565b005b34801561034457600080fd5b5061034d6115d4565b005b34801561035b57600080fd5b5061036461165c565b005b34801561037257600080fd5b5061038d600480360381019061038891906127a0565b6116fb565b005b34801561039b57600080fd5b506103a46118b2565b6040516103b19190612da4565b60405180910390f35b3480156103c657600080fd5b506103e160048036038101906103dc91906128a8565b6118dc565b005b3480156103ef57600080fd5b5061040a600480360381019061040591906128a8565b611a54565b005b34801561041857600080fd5b50610433600480360381019061042e91906127a0565b611b2b565b6040516104419291906130b2565b60405180910390f35b34801561045657600080fd5b50610471600480360381019061046c91906127a0565b611b4f565b005b34801561047f57600080fd5b5061049a600480360381019061049591906128a8565b611c0f565b6040516104a9939291906130db565b60405180910390f35b3480156104be57600080fd5b506104d960048036038101906104d491906127a0565b611c56565b005b6104e3611d4e565b73ffffffffffffffffffffffffffffffffffffffff166105016118b2565b73ffffffffffffffffffffffffffffffffffffffff1614610557576040517f08c379a000000000000000000000000000000000000000000000000000000000815260040161054e90612fd7565b60405180910390fd5b8273ffffffffffffffffffffffffffffffffffffffff166370a08231306040518263ffffffff1660e01b81526004016105909190612da4565b60206040518083038186803b1580156105a857600080fd5b505afa1580156105bc573d6000803e3d6000fd5b505050506040513d601f19601f820116820180604052508101906105e091906129cb565b8111156105ec57600080fd5b8273ffffffffffffffffffffffffffffffffffffffff1663a9059cbb83836040518363ffffffff1660e01b8152600401610627929190612df6565b602060405180830381600087803b15801561064157600080fd5b505af1158015610655573d6000803e3d6000fd5b505050506040513d601f19601f820116820180604052508101906106799190612950565b50505050565b600060ca54905090565b610691611d4e565b73ffffffffffffffffffffffffffffffffffffffff166106af6118b2565b73ffffffffffffffffffffffffffffffffffffffff1614610705576040517f08c379a00000000000000000000000000000000000000000000000000000000081526004016106fc90612fd7565b60405180910390fd5b8060ca8190555050565b600033905060008373ffffffffffffffffffffffffffffffffffffffff1663313ce5676040518163ffffffff1660e01b815260040160206040518083038186803b15801561075c57600080fd5b505afa158015610770573d6000803e3d6000fd5b505050506040513d601f19601f820116820180604052508101906107949190612a6b565b60ff169050600060ce60008673ffffffffffffffffffffffffffffffffffffffff1673ffffffffffffffffffffffffffffffffffffffff16815260200190815260200160002054141561081c576040517f08c379a000000000000000000000000000000000000000000000000000000000815260040161081390612ff7565b60405180910390fd5b828473ffffffffffffffffffffffffffffffffffffffff166370a08231846040518263ffffffff1660e01b81526004016108569190612da4565b60206040518083038186803b15801561086e57600080fd5b505afa158015610882573d6000803e3d6000fd5b505050506040513d601f19601f820116820180604052508101906108a691906129cb565b10156108e7576040517f08c379a00000000000000000000000000000000000000000000000000000000081526004016108de90612ef7565b60405180910390fd5b6000610987620f424061097984600a6109009190613274565b61096b61090b61067f565b61095d60ce60008d73ffffffffffffffffffffffffffffffffffffffff1673ffffffffffffffffffffffffffffffffffffffff168152602001908152602001600020548b611d5690919063ffffffff16565b611d5690919063ffffffff16565b611d6c90919063ffffffff16565b611d6c90919063ffffffff16565b905060cb60003373ffffffffffffffffffffffffffffffffffffffff1673ffffffffffffffffffffffffffffffffffffffff16815260200190815260200160002060405180606001604052804281526020018681526020018381525090806001815401808255809150506001900390600052602060002090600302016000909190919091506000820151816000015560208201518160010155604082015181600201555050610a363382611d82565b8473ffffffffffffffffffffffffffffffffffffffff166323b872dd8430876040518463ffffffff1660e01b8152600401610a7393929190612dbf565b602060405180830381600087803b158015610a8d57600080fd5b505af1158015610aa1573d6000803e3d6000fd5b505050506040513d601f19601f82011682018060405250810190610ac59190612950565b508473ffffffffffffffffffffffffffffffffffffffff163373ffffffffffffffffffffffffffffffffffffffff167f37d822ecaa322d551ac3fb006e69d00a726925969995ad76c4f6596b5a8cbc568660ca5485604051610b29939291906130db565b60405180910390a35050505050565b7f000000000000000000000000000000000000000000000000000000000000000073ffffffffffffffffffffffffffffffffffffffff163073ffffffffffffffffffffffffffffffffffffffff161415610bc7576040517f08c379a0000000000000000000000000000000000000000000000000000000008152600401610bbe90612eb7565b60405180910390fd5b7f000000000000000000000000000000000000000000000000000000000000000073ffffffffffffffffffffffffffffffffffffffff16610c06611de9565b73ffffffffffffffffffffffffffffffffffffffff1614610c5c576040517f08c379a0000000000000000000000000000000000000000000000000000000008152600401610c5390612ed7565b60405180910390fd5b610c6581611e40565b610ce481600067ffffffffffffffff811115610caa577f4e487b7100000000000000000000000000000000000000000000000000000000600052604160045260246000fd5b6040519080825280601f01601f191660200182016040528015610cdc5781602001600182028036833780820191505090505b506000611ebf565b50565b610cef611d4e565b73ffffffffffffffffffffffffffffffffffffffff16610d0d6118b2565b73ffffffffffffffffffffffffffffffffffffffff1614610d63576040517f08c379a0000000000000000000000000000000000000000000000000000000008152600401610d5a90612fd7565b60405180910390fd5b8060cd60008473ffffffffffffffffffffffffffffffffffffffff1673ffffffffffffffffffffffffffffffffffffffff16815260200190815260200160002060006101000a81548160ff0219169083151502179055508015158273ffffffffffffffffffffffffffffffffffffffff167f76f7735e60e167186168755b9dafbe4e8ab2ce33e2ef11b45de4c02311222de560405160405180910390a35050565b600060cc60008373ffffffffffffffffffffffffffffffffffffffff1673ffffffffffffffffffffffffffffffffffffffff168152602001908152602001600020600201549050919050565b60008060c960009054906101000a900473ffffffffffffffffffffffffffffffffffffffff1673ffffffffffffffffffffffffffffffffffffffff1663feaf968c6040518163ffffffff1660e01b815260040160a06040518083038186803b158015610ebb57600080fd5b505afa158015610ecf573d6000803e3d6000fd5b505050506040513d601f19601f82011682018060405250810190610ef391906129f4565b505050915050610f50610f118260ca54611d5690919063ffffffff16565b610f426305f5e100610f34670de0b6b3a764000088611d5690919063ffffffff16565b611d5690919063ffffffff16565b611d6c90919063ffffffff16565b915050919050565b7f000000000000000000000000000000000000000000000000000000000000000073ffffffffffffffffffffffffffffffffffffffff163073ffffffffffffffffffffffffffffffffffffffff161415610fe7576040517f08c379a0000000000000000000000000000000000000000000000000000000008152600401610fde90612eb7565b60405180910390fd5b7f000000000000000000000000000000000000000000000000000000000000000073ffffffffffffffffffffffffffffffffffffffff16611026611de9565b73ffffffffffffffffffffffffffffffffffffffff161461107c576040517f08c379a000000000000000000000000000000000000000000000000000000000815260040161107390612ed7565b60405180910390fd5b61108582611e40565b61109182826001611ebf565b5050565b60007f000000000000000000000000000000000000000000000000000000000000000073ffffffffffffffffffffffffffffffffffffffff163073ffffffffffffffffffffffffffffffffffffffff1614611125576040517f08c379a000000000000000000000000000000000000000000000000000000000815260040161111c90612f17565b60405180910390fd5b7f360894a13ba1a3210667c828492db98dca3e2076cc3735a920a3ca505d382bbc60001b905090565b60cd60003373ffffffffffffffffffffffffffffffffffffffff1673ffffffffffffffffffffffffffffffffffffffff16815260200190815260200160002060009054906101000a900460ff16806111d857506111a96118b2565b73ffffffffffffffffffffffffffffffffffffffff163373ffffffffffffffffffffffffffffffffffffffff16145b611217576040517f08c379a000000000000000000000000000000000000000000000000000000000815260040161120e90613017565b60405180910390fd5b60cc60008573ffffffffffffffffffffffffffffffffffffffff1673ffffffffffffffffffffffffffffffffffffffff16815260200190815260200160002060000182829091806001815401808255809150506001900390600052602060002001600090919290919290919290919250919061129492919061258e565b506112ea8360cc60008773ffffffffffffffffffffffffffffffffffffffff1673ffffffffffffffffffffffffffffffffffffffff1681526020019081526020016000206001015461203c90919063ffffffff16565b60cc60008673ffffffffffffffffffffffffffffffffffffffff1673ffffffffffffffffffffffffffffffffffffffff168152602001908152602001600020600101819055506113858360cc60008773ffffffffffffffffffffffffffffffffffffffff1673ffffffffffffffffffffffffffffffffffffffff1681526020019081526020016000206002015461205290919063ffffffff16565b60cc60008673ffffffffffffffffffffffffffffffffffffffff1673ffffffffffffffffffffffffffffffffffffffff1681526020019081526020016000206002018190555050505050565b6113da83610e50565b341015611410577f4e487b7100000000000000000000000000000000000000000000000000000000600052600160045260246000fd5b61141a3384611d82565b60cc60008573ffffffffffffffffffffffffffffffffffffffff1673ffffffffffffffffffffffffffffffffffffffff16815260200190815260200160002060000182829091806001815401808255809150506001900390600052602060002001600090919290919290919290919250919061149792919061258e565b506114ed8360cc60008773ffffffffffffffffffffffffffffffffffffffff1673ffffffffffffffffffffffffffffffffffffffff1681526020019081526020016000206001015461203c90919063ffffffff16565b60cc60008673ffffffffffffffffffffffffffffffffffffffff1673ffffffffffffffffffffffffffffffffffffffff168152602001908152602001600020600101819055506115888360cc60008773ffffffffffffffffffffffffffffffffffffffff1673ffffffffffffffffffffffffffffffffffffffff1681526020019081526020016000206002015461205290919063ffffffff16565b60cc60008673ffffffffffffffffffffffffffffffffffffffff1673ffffffffffffffffffffffffffffffffffffffff1681526020019081526020016000206002018190555050505050565b6115dc611d4e565b73ffffffffffffffffffffffffffffffffffffffff166115fa6118b2565b73ffffffffffffffffffffffffffffffffffffffff1614611650576040517f08c379a000000000000000000000000000000000000000000000000000000000815260040161164790612fd7565b60405180910390fd5b61165a6000612068565b565b6000611668600161212e565b9050801561168c576001600060016101000a81548160ff0219169083151502179055505b61169461221e565b630ccccccd60ca8190555080156116f85760008060016101000a81548160ff0219169083151502179055507f7f26b83ff96e1f2b6a682f133852f6798a09c465da95921460cefb384740249860016040516116ef9190612e3a565b60405180910390a15b50565b611703611d4e565b73ffffffffffffffffffffffffffffffffffffffff166117216118b2565b73ffffffffffffffffffffffffffffffffffffffff1614611777576040517f08c379a000000000000000000000000000000000000000000000000000000000815260040161176e90612fd7565b60405180910390fd5b600073ffffffffffffffffffffffffffffffffffffffff168173ffffffffffffffffffffffffffffffffffffffff1614156117e7576040517f08c379a00000000000000000000000000000000000000000000000000000000081526004016117de90612e97565b60405180910390fd5b600060ce60008373ffffffffffffffffffffffffffffffffffffffff1673ffffffffffffffffffffffffffffffffffffffff16815260200190815260200160002054141561186a576040517f08c379a000000000000000000000000000000000000000000000000000000000815260040161186190613057565b60405180910390fd5b600060ce60008373ffffffffffffffffffffffffffffffffffffffff1673ffffffffffffffffffffffffffffffffffffffff1681526020019081526020016000208190555050565b6000603360009054906101000a900473ffffffffffffffffffffffffffffffffffffffff16905090565b6118e4611d4e565b73ffffffffffffffffffffffffffffffffffffffff166119026118b2565b73ffffffffffffffffffffffffffffffffffffffff1614611958576040517f08c379a000000000000000000000000000000000000000000000000000000000815260040161194f90612fd7565b60405180910390fd5b600073ffffffffffffffffffffffffffffffffffffffff168273ffffffffffffffffffffffffffffffffffffffff1614156119c8576040517f08c379a00000000000000000000000000000000000000000000000000000000081526004016119bf90612e97565b60405180910390fd5b6000811415611a0c576040517f08c379a0000000000000000000000000000000000000000000000000000000008152600401611a0390612f77565b60405180910390fd5b8060ce60008473ffffffffffffffffffffffffffffffffffffffff1673ffffffffffffffffffffffffffffffffffffffff168152602001908152602001600020819055505050565b60cd60003373ffffffffffffffffffffffffffffffffffffffff1673ffffffffffffffffffffffffffffffffffffffff16815260200190815260200160002060009054906101000a900460ff1680611ade5750611aaf6118b2565b73ffffffffffffffffffffffffffffffffffffffff163373ffffffffffffffffffffffffffffffffffffffff16145b611b1d576040517f08c379a0000000000000000000000000000000000000000000000000000000008152600401611b1490613017565b60405180910390fd5b611b278282611d82565b5050565b60cc6020528060005260406000206000915090508060010154908060020154905082565b611b57611d4e565b73ffffffffffffffffffffffffffffffffffffffff16611b756118b2565b73ffffffffffffffffffffffffffffffffffffffff1614611bcb576040517f08c379a0000000000000000000000000000000000000000000000000000000008152600401611bc290612fd7565b60405180910390fd5b8060c960006101000a81548173ffffffffffffffffffffffffffffffffffffffff021916908373ffffffffffffffffffffffffffffffffffffffff16021790555050565b60cb6020528160005260406000208181548110611c2b57600080fd5b9060005260206000209060030201600091509150508060000154908060010154908060020154905083565b611c5e611d4e565b73ffffffffffffffffffffffffffffffffffffffff16611c7c6118b2565b73ffffffffffffffffffffffffffffffffffffffff1614611cd2576040517f08c379a0000000000000000000000000000000000000000000000000000000008152600401611cc990612fd7565b60405180910390fd5b600073ffffffffffffffffffffffffffffffffffffffff168173ffffffffffffffffffffffffffffffffffffffff161415611d42576040517f08c379a0000000000000000000000000000000000000000000000000000000008152600401611d3990612e77565b60405180910390fd5b611d4b81612068565b50565b600033905090565b60008183611d649190613392565b905092915050565b60008183611d7a91906131f0565b905092915050565b600060cc60008473ffffffffffffffffffffffffffffffffffffffff1673ffffffffffffffffffffffffffffffffffffffff1681526020019081526020016000209050611ddc82826002015461203c90919063ffffffff16565b8160020181905550505050565b6000611e177f360894a13ba1a3210667c828492db98dca3e2076cc3735a920a3ca505d382bbc60001b612277565b60000160009054906101000a900473ffffffffffffffffffffffffffffffffffffffff16905090565b611e48611d4e565b73ffffffffffffffffffffffffffffffffffffffff16611e666118b2565b73ffffffffffffffffffffffffffffffffffffffff1614611ebc576040517f08c379a0000000000000000000000000000000000000000000000000000000008152600401611eb390612fd7565b60405180910390fd5b50565b611eeb7f4910fdfa16fed3260ed0e7147f7cc6da11a60208b5b9406d12a635614ffd914360001b612281565b60000160009054906101000a900460ff1615611f0f57611f0a8361228b565b612037565b8273ffffffffffffffffffffffffffffffffffffffff166352d1902d6040518163ffffffff1660e01b815260040160206040518083038186803b158015611f5557600080fd5b505afa925050508015611f8657506040513d601f19601f82011682018060405250810190611f839190612979565b60015b611fc5576040517f08c379a0000000000000000000000000000000000000000000000000000000008152600401611fbc90612f97565b60405180910390fd5b7f360894a13ba1a3210667c828492db98dca3e2076cc3735a920a3ca505d382bbc60001b811461202a576040517f08c379a000000000000000000000000000000000000000000000000000000000815260040161202190612f37565b60405180910390fd5b50612036838383612344565b5b505050565b6000818361204a919061319a565b905092915050565b6000818361206091906133ec565b905092915050565b6000603360009054906101000a900473ffffffffffffffffffffffffffffffffffffffff16905081603360006101000a81548173ffffffffffffffffffffffffffffffffffffffff021916908373ffffffffffffffffffffffffffffffffffffffff1602179055508173ffffffffffffffffffffffffffffffffffffffff168173ffffffffffffffffffffffffffffffffffffffff167f8be0079c531659141344cd1fd0a4f28419497f9722a3daafe3b4186f6b6457e060405160405180910390a35050565b60008060019054906101000a900460ff16156121a55760018260ff1614801561215d575061215b30612370565b155b61219c576040517f08c379a000000000000000000000000000000000000000000000000000000000815260040161219390612f57565b60405180910390fd5b60009050612219565b8160ff1660008054906101000a900460ff1660ff16106121fa576040517f08c379a00000000000000000000000000000000000000000000000000000000081526004016121f190612f57565b60405180910390fd5b816000806101000a81548160ff021916908360ff160217905550600190505b919050565b600060019054906101000a900460ff1661226d576040517f08c379a000000000000000000000000000000000000000000000000000000000815260040161226490613077565b60405180910390fd5b612275612393565b565b6000819050919050565b6000819050919050565b61229481612370565b6122d3576040517f08c379a00000000000000000000000000000000000000000000000000000000081526004016122ca90612fb7565b60405180910390fd5b806123007f360894a13ba1a3210667c828492db98dca3e2076cc3735a920a3ca505d382bbc60001b612277565b60000160006101000a81548173ffffffffffffffffffffffffffffffffffffffff021916908373ffffffffffffffffffffffffffffffffffffffff16021790555050565b61234d836123f4565b60008251118061235a5750805b1561236b576123698383612443565b505b505050565b6000808273ffffffffffffffffffffffffffffffffffffffff163b119050919050565b600060019054906101000a900460ff166123e2576040517f08c379a00000000000000000000000000000000000000000000000000000000081526004016123d990613077565b60405180910390fd5b6123f26123ed611d4e565b612068565b565b6123fd8161228b565b8073ffffffffffffffffffffffffffffffffffffffff167fbc7cd75a20ee27fd9adebab32041f755214dbc6bffa90cc0225b39da2e5c2d3b60405160405180910390a250565b606061244e83612370565b61248d576040517f08c379a000000000000000000000000000000000000000000000000000000000815260040161248490613037565b60405180910390fd5b6000808473ffffffffffffffffffffffffffffffffffffffff16846040516124b59190612d8d565b600060405180830381855af49150503d80600081146124f0576040519150601f19603f3d011682016040523d82523d6000602084013e6124f5565b606091505b509150915061251d8282604051806060016040528060278152602001613b0760279139612527565b9250505092915050565b6060831561253757829050612587565b60008351111561254a5782518084602001fd5b816040517f08c379a000000000000000000000000000000000000000000000000000000000815260040161257e9190612e55565b60405180910390fd5b9392505050565b82805461259a906134f3565b90600052602060002090601f0160209004810192826125bc5760008555612603565b82601f106125d557803560ff1916838001178555612603565b82800160010185558215612603579182015b828111156126025782358255916020019190600101906125e7565b5b5090506126109190612614565b5090565b5b8082111561262d576000816000905550600101612615565b5090565b600061264461263f84613137565b613112565b90508281526020810184848401111561265c57600080fd5b6126678482856134b1565b509392505050565b60008135905061267e81613a65565b92915050565b60008135905061269381613a7c565b92915050565b6000815190506126a881613a7c565b92915050565b6000815190506126bd81613a93565b92915050565b600082601f8301126126d457600080fd5b81356126e4848260208601612631565b91505092915050565b6000815190506126fc81613aaa565b92915050565b60008083601f84011261271457600080fd5b8235905067ffffffffffffffff81111561272d57600080fd5b60208301915083600182028301111561274557600080fd5b9250929050565b60008135905061275b81613ac1565b92915050565b60008151905061277081613ac1565b92915050565b60008151905061278581613aef565b92915050565b60008151905061279a81613ad8565b92915050565b6000602082840312156127b257600080fd5b60006127c08482850161266f565b91505092915050565b6000806000606084860312156127de57600080fd5b60006127ec8682870161266f565b93505060206127fd8682870161266f565b925050604061280e8682870161274c565b9150509250925092565b6000806040838503121561282b57600080fd5b60006128398582860161266f565b925050602061284a85828601612684565b9150509250929050565b6000806040838503121561286757600080fd5b60006128758582860161266f565b925050602083013567ffffffffffffffff81111561289257600080fd5b61289e858286016126c3565b9150509250929050565b600080604083850312156128bb57600080fd5b60006128c98582860161266f565b92505060206128da8582860161274c565b9150509250929050565b600080600080606085870312156128fa57600080fd5b60006129088782880161266f565b94505060206129198782880161274c565b935050604085013567ffffffffffffffff81111561293657600080fd5b61294287828801612702565b925092505092959194509250565b60006020828403121561296257600080fd5b600061297084828501612699565b91505092915050565b60006020828403121561298b57600080fd5b6000612999848285016126ae565b91505092915050565b6000602082840312156129b457600080fd5b60006129c28482850161274c565b91505092915050565b6000602082840312156129dd57600080fd5b60006129eb84828501612761565b91505092915050565b600080600080600060a08688031215612a0c57600080fd5b6000612a1a88828901612776565b9550506020612a2b888289016126ed565b9450506040612a3c88828901612761565b9350506060612a4d88828901612761565b9250506080612a5e88828901612776565b9150509295509295909350565b600060208284031215612a7d57600080fd5b6000612a8b8482850161278b565b91505092915050565b612a9d81613420565b82525050565b612aac8161343e565b82525050565b6000612abd82613168565b612ac7818561317e565b9350612ad78185602086016134c0565b80840191505092915050565b612aec8161349f565b82525050565b6000612afd82613173565b612b078185613189565b9350612b178185602086016134c0565b612b2081613612565b840191505092915050565b6000612b38602683613189565b9150612b4382613630565b604082019050919050565b6000612b5b601583613189565b9150612b668261367f565b602082019050919050565b6000612b7e602c83613189565b9150612b89826136a8565b604082019050919050565b6000612ba1602c83613189565b9150612bac826136f7565b604082019050919050565b6000612bc4601383613189565b9150612bcf82613746565b602082019050919050565b6000612be7603883613189565b9150612bf28261376f565b604082019050919050565b6000612c0a602983613189565b9150612c15826137be565b604082019050919050565b6000612c2d602e83613189565b9150612c388261380d565b604082019050919050565b6000612c50601283613189565b9150612c5b8261385c565b602082019050919050565b6000612c73602e83613189565b9150612c7e82613885565b604082019050919050565b6000612c96602d83613189565b9150612ca1826138d4565b604082019050919050565b6000612cb9602083613189565b9150612cc482613923565b602082019050919050565b6000612cdc601583613189565b9150612ce78261394c565b602082019050919050565b6000612cff601783613189565b9150612d0a82613975565b602082019050919050565b6000612d22602683613189565b9150612d2d8261399e565b604082019050919050565b6000612d45601583613189565b9150612d50826139ed565b602082019050919050565b6000612d68602b83613189565b9150612d7382613a16565b604082019050919050565b612d8781613472565b82525050565b6000612d998284612ab2565b915081905092915050565b6000602082019050612db96000830184612a94565b92915050565b6000606082019050612dd46000830186612a94565b612de16020830185612a94565b612dee6040830184612d7e565b949350505050565b6000604082019050612e0b6000830185612a94565b612e186020830184612d7e565b9392505050565b6000602082019050612e346000830184612aa3565b92915050565b6000602082019050612e4f6000830184612ae3565b92915050565b60006020820190508181036000830152612e6f8184612af2565b905092915050565b60006020820190508181036000830152612e9081612b2b565b9050919050565b60006020820190508181036000830152612eb081612b4e565b9050919050565b60006020820190508181036000830152612ed081612b71565b9050919050565b60006020820190508181036000830152612ef081612b94565b9050919050565b60006020820190508181036000830152612f1081612bb7565b9050919050565b60006020820190508181036000830152612f3081612bda565b9050919050565b60006020820190508181036000830152612f5081612bfd565b9050919050565b60006020820190508181036000830152612f7081612c20565b9050919050565b60006020820190508181036000830152612f9081612c43565b9050919050565b60006020820190508181036000830152612fb081612c66565b9050919050565b60006020820190508181036000830152612fd081612c89565b9050919050565b60006020820190508181036000830152612ff081612cac565b9050919050565b6000602082019050818103600083015261301081612ccf565b9050919050565b6000602082019050818103600083015261303081612cf2565b9050919050565b6000602082019050818103600083015261305081612d15565b9050919050565b6000602082019050818103600083015261307081612d38565b9050919050565b6000602082019050818103600083015261309081612d5b565b9050919050565b60006020820190506130ac6000830184612d7e565b92915050565b60006040820190506130c76000830185612d7e565b6130d46020830184612d7e565b9392505050565b60006060820190506130f06000830186612d7e565b6130fd6020830185612d7e565b61310a6040830184612d7e565b949350505050565b600061311c61312d565b90506131288282613525565b919050565b6000604051905090565b600067ffffffffffffffff821115613152576131516135e3565b5b61315b82613612565b9050602081019050919050565b600081519050919050565b600081519050919050565b600081905092915050565b600082825260208201905092915050565b60006131a582613472565b91506131b083613472565b9250827fffffffffffffffffffffffffffffffffffffffffffffffffffffffffffffffff038211156131e5576131e4613556565b5b828201905092915050565b60006131fb82613472565b915061320683613472565b92508261321657613215613585565b5b828204905092915050565b6000808291508390505b600185111561326b5780860481111561324757613246613556565b5b60018516156132565780820291505b808102905061326485613623565b945061322b565b94509492505050565b600061327f82613472565b915061328a83613472565b92506132b77fffffffffffffffffffffffffffffffffffffffffffffffffffffffffffffffff84846132bf565b905092915050565b6000826132cf576001905061338b565b816132dd576000905061338b565b81600181146132f357600281146132fd5761332c565b600191505061338b565b60ff84111561330f5761330e613556565b5b8360020a91508482111561332657613325613556565b5b5061338b565b5060208310610133831016604e8410600b84101617156133615782820a90508381111561335c5761335b613556565b5b61338b565b61336e8484846001613221565b9250905081840481111561338557613384613556565b5b81810290505b9392505050565b600061339d82613472565b91506133a883613472565b9250817fffffffffffffffffffffffffffffffffffffffffffffffffffffffffffffffff04831182151516156133e1576133e0613556565b5b828202905092915050565b60006133f782613472565b915061340283613472565b92508282101561341557613414613556565b5b828203905092915050565b600061342b82613452565b9050919050565b60008115159050919050565b6000819050919050565b6000819050919050565b600073ffffffffffffffffffffffffffffffffffffffff82169050919050565b6000819050919050565b600060ff82169050919050565b600069ffffffffffffffffffff82169050919050565b60006134aa8261347c565b9050919050565b82818337600083830152505050565b60005b838110156134de5780820151818401526020810190506134c3565b838111156134ed576000848401525b50505050565b6000600282049050600182168061350b57607f821691505b6020821081141561351f5761351e6135b4565b5b50919050565b61352e82613612565b810181811067ffffffffffffffff8211171561354d5761354c6135e3565b5b80604052505050565b7f4e487b7100000000000000000000000000000000000000000000000000000000600052601160045260246000fd5b7f4e487b7100000000000000000000000000000000000000000000000000000000600052601260045260246000fd5b7f4e487b7100000000000000000000000000000000000000000000000000000000600052602260045260246000fd5b7f4e487b7100000000000000000000000000000000000000000000000000000000600052604160045260246000fd5b6000601f19601f8301169050919050565b60008160011c9050919050565b7f4f776e61626c653a206e6577206f776e657220697320746865207a65726f206160008201527f6464726573730000000000000000000000000000000000000000000000000000602082015250565b7f416464726573732063616e2774206265207a65726f0000000000000000000000600082015250565b7f46756e6374696f6e206d7573742062652063616c6c6564207468726f7567682060008201527f64656c656761746563616c6c0000000000000000000000000000000000000000602082015250565b7f46756e6374696f6e206d7573742062652063616c6c6564207468726f7567682060008201527f6163746976652070726f78790000000000000000000000000000000000000000602082015250565b7f696e737566666963656e742042616c616e636500000000000000000000000000600082015250565b7f555550535570677261646561626c653a206d757374206e6f742062652063616c60008201527f6c6564207468726f7567682064656c656761746563616c6c0000000000000000602082015250565b7f45524331393637557067726164653a20756e737570706f727465642070726f7860008201527f6961626c65555549440000000000000000000000000000000000000000000000602082015250565b7f496e697469616c697a61626c653a20636f6e747261637420697320616c72656160008201527f647920696e697469616c697a6564000000000000000000000000000000000000602082015250565b7f726174652063616e2774206265207a65726f0000000000000000000000000000600082015250565b7f45524331393637557067726164653a206e657720696d706c656d656e7461746960008201527f6f6e206973206e6f742055555053000000000000000000000000000000000000602082015250565b7f455243313936373a206e657720696d706c656d656e746174696f6e206973206e60008201527f6f74206120636f6e747261637400000000000000000000000000000000000000602082015250565b7f4f776e61626c653a2063616c6c6572206973206e6f7420746865206f776e6572600082015250565b7f7375676765737420636f696e20746f2041646d696e0000000000000000000000600082015250565b7f4163636f756e74204e6f742057686974656c6973746564000000000000000000600082015250565b7f416464726573733a2064656c65676174652063616c6c20746f206e6f6e2d636f60008201527f6e74726163740000000000000000000000000000000000000000000000000000602082015250565b7f636f696e20616c72656164792064697361626c65640000000000000000000000600082015250565b7f496e697469616c697a61626c653a20636f6e7472616374206973206e6f74206960008201527f6e697469616c697a696e67000000000000000000000000000000000000000000602082015250565b613a6e81613420565b8114613a7957600080fd5b50565b613a8581613432565b8114613a9057600080fd5b50565b613a9c8161343e565b8114613aa757600080fd5b50565b613ab381613448565b8114613abe57600080fd5b50565b613aca81613472565b8114613ad557600080fd5b50565b613ae18161347c565b8114613aec57600080fd5b50565b613af881613489565b8114613b0357600080fd5b5056fe416464726573733a206c6f772d6c6576656c2064656c65676174652063616c6c206661696c6564a26469706673582212201c64c56877173bd59f2ca853c35d8eab6606687668458628dbbd01435a6db79a64736f6c63430008040033",
  "linkReferences": {},
  "deployedLinkReferences": {}
}