{
  "_format": "hh-sol-artifact-1",
  "contractName": "DepositManager",
  "sourceName": "contracts/DepositManager.sol",
  "abi": [
    {
      "anonymous": false,
      "inputs": [
        {
          "indexed": true,
          "internalType": "address",
          "name": "depositor",
          "type": "address"
        },
        {
          "indexed": false,
          "internalType": "uint256",
          "name": "amount",
          "type": "uint256"
        },
        {
          "indexed": false,
          "internalType": "uint256",
          "name": "storagePurchased",
          "type": "uint256"
        }
      ],
      "name": "AddDeposit",
      "type": "event"
    },
    {
      "inputs": [
        {
          "internalType": "uint256",
          "name": "_storagePurchased",
          "type": "uint256"
        }
      ],
      "name": "addDeposit",
      "outputs": [],
      "stateMutability": "payable",
      "type": "function"
    },
    {
      "inputs": [
        {
          "internalType": "address",
          "name": "addr",
          "type": "address"
        }
      ],
      "name": "addWhitelistAddress",
      "outputs": [],
      "stateMutability": "nonpayable",
      "type": "function"
    },
    {
      "inputs": [
        {
          "internalType": "address",
          "name": "",
          "type": "address"
        }
      ],
      "name": "checkWhiteListAdresses",
      "outputs": [
        {
          "internalType": "bool",
          "name": "",
          "type": "bool"
        }
      ],
      "stateMutability": "view",
      "type": "function"
    },
    {
      "inputs": [
        {
          "internalType": "address",
          "name": "",
          "type": "address"
        },
        {
          "internalType": "uint256",
          "name": "",
          "type": "uint256"
        }
      ],
      "name": "deposits",
      "outputs": [
        {
          "internalType": "uint256",
          "name": "timestamp",
          "type": "uint256"
        },
        {
          "internalType": "uint256",
          "name": "amount",
          "type": "uint256"
        },
        {
          "internalType": "uint256",
          "name": "storagePurchased",
          "type": "uint256"
        }
      ],
      "stateMutability": "view",
      "type": "function"
    },
    {
      "inputs": [],
      "name": "listWhitelistAddresses",
      "outputs": [
        {
          "internalType": "address[]",
          "name": "",
          "type": "address[]"
        }
      ],
      "stateMutability": "view",
      "type": "function"
    },
    {
      "inputs": [
        {
          "internalType": "address",
          "name": "addr",
          "type": "address"
        }
      ],
      "name": "removeWhitelistAddress",
      "outputs": [],
      "stateMutability": "nonpayable",
      "type": "function"
    },
    {
      "inputs": [
        {
          "internalType": "address",
          "name": "",
          "type": "address"
        }
      ],
      "name": "storageUsed",
      "outputs": [
        {
          "internalType": "uint256",
          "name": "totalStored",
          "type": "uint256"
        },
        {
          "internalType": "uint256",
          "name": "availableStorage",
          "type": "uint256"
        }
      ],
      "stateMutability": "view",
      "type": "function"
    },
    {
      "inputs": [
        {
          "internalType": "address",
          "name": "user",
          "type": "address"
        },
        {
          "internalType": "uint256",
          "name": "_availableStorage",
          "type": "uint256"
        },
        {
          "internalType": "uint256",
          "name": "_totalStored",
          "type": "uint256"
        }
      ],
      "name": "updateAvailableStorage",
      "outputs": [],
      "stateMutability": "nonpayable",
      "type": "function"
    },
    {
      "inputs": [
        {
          "internalType": "address",
          "name": "user",
          "type": "address"
        },
        {
          "internalType": "uint256",
          "name": "filesize",
          "type": "uint256"
        },
        {
          "internalType": "string",
          "name": "cid",
          "type": "string"
        }
      ],
      "name": "updateStorage",
      "outputs": [],
      "stateMutability": "nonpayable",
      "type": "function"
    },
    {
      "inputs": [
        {
          "internalType": "uint256",
          "name": "",
          "type": "uint256"
        }
      ],
      "name": "whitelistedAddresses",
      "outputs": [
        {
          "internalType": "address",
          "name": "",
          "type": "address"
        }
      ],
      "stateMutability": "view",
      "type": "function"
    }
  ],
  "bytecode": "0x6080604052336000806101000a81548173ffffffffffffffffffffffffffffffffffffffff021916908373ffffffffffffffffffffffffffffffffffffffff16021790555034801561005057600080fd5b50611671806100606000396000f3fe6080604052600436106100915760003560e01c8063a6f1fd5111610059578063a6f1fd5114610179578063b7ecbaae14610195578063ba4e5c49146101be578063d6d68177146101fb578063f38f9d3a1461023a57610091565b8063595ba768146100965780635a787e60146100bf5780637b5e41bc146100ea578063809957c81461012757806394a7ef1514610150575b600080fd5b3480156100a257600080fd5b506100bd60048036038101906100b89190610ffb565b610278565b005b3480156100cb57600080fd5b506100d46104b6565b6040516100e191906111ed565b60405180910390f35b3480156100f657600080fd5b50610111600480360381019061010c9190610f96565b610633565b60405161011e919061120f565b60405180910390f35b34801561013357600080fd5b5061014e60048036038101906101499190611062565b610653565b005b34801561015c57600080fd5b5061017760048036038101906101729190610f96565b61077e565b005b610193600480360381019061018e91906110b1565b610894565b005b3480156101a157600080fd5b506101bc60048036038101906101b79190610f96565b6109cd565b005b3480156101ca57600080fd5b506101e560048036038101906101e091906110b1565b610cd2565b6040516101f291906111d2565b60405180910390f35b34801561020757600080fd5b50610222600480360381019061021d9190610fbf565b610d11565b60405161023193929190611293565b60405180910390f35b34801561024657600080fd5b50610261600480360381019061025c9190610f96565b610d58565b60405161026f92919061126a565b60405180910390f35b3360011515600260008373ffffffffffffffffffffffffffffffffffffffff1673ffffffffffffffffffffffffffffffffffffffff16815260200190815260200160002060009054906101000a900460ff1615151461030c576040517f08c379a00000000000000000000000000000000000000000000000000000000081526004016103039061124a565b60405180910390fd5b600460008573ffffffffffffffffffffffffffffffffffffffff1673ffffffffffffffffffffffffffffffffffffffff16815260200190815260200160002060000182908060018154018082558091505060019003906000526020600020016000909190919091509080519060200190610387929190610d7c565b5082600460008673ffffffffffffffffffffffffffffffffffffffff1673ffffffffffffffffffffffffffffffffffffffff168152602001908152602001600020600101546103d6919061136a565b600460008673ffffffffffffffffffffffffffffffffffffffff1673ffffffffffffffffffffffffffffffffffffffff1681526020019081526020016000206001018190555082600460008673ffffffffffffffffffffffffffffffffffffffff1673ffffffffffffffffffffffffffffffffffffffff1681526020019081526020016000206002015461046a91906113c0565b600460008673ffffffffffffffffffffffffffffffffffffffff1673ffffffffffffffffffffffffffffffffffffffff1681526020019081526020016000206002018190555050505050565b6060600060018054905067ffffffffffffffff8111156104ff577f4e487b7100000000000000000000000000000000000000000000000000000000600052604160045260246000fd5b60405190808252806020026020018201604052801561052d5781602001602082028036833780820191505090505b50905060005b60018054905081101561062b576001818154811061057a577f4e487b7100000000000000000000000000000000000000000000000000000000600052603260045260246000fd5b9060005260206000200160009054906101000a900473ffffffffffffffffffffffffffffffffffffffff168282815181106105de577f4e487b7100000000000000000000000000000000000000000000000000000000600052603260045260246000fd5b602002602001019073ffffffffffffffffffffffffffffffffffffffff16908173ffffffffffffffffffffffffffffffffffffffff16815250508080610623906114ae565b915050610533565b508091505090565b60026020528060005260406000206000915054906101000a900460ff1681565b3360011515600260008373ffffffffffffffffffffffffffffffffffffffff1673ffffffffffffffffffffffffffffffffffffffff16815260200190815260200160002060009054906101000a900460ff161515146106e7576040517f08c379a00000000000000000000000000000000000000000000000000000000081526004016106de9061124a565b60405180910390fd5b6106ef610e02565b838160400181815250508281602001818152505080600460008773ffffffffffffffffffffffffffffffffffffffff1673ffffffffffffffffffffffffffffffffffffffff168152602001908152602001600020600082015181600001908051906020019061075f929190610e23565b5060208201518160010155604082015181600201559050505050505050565b60008054906101000a900473ffffffffffffffffffffffffffffffffffffffff1673ffffffffffffffffffffffffffffffffffffffff163373ffffffffffffffffffffffffffffffffffffffff16146107d657600080fd5b6001819080600181540180825580915050600190039060005260206000200160009091909190916101000a81548173ffffffffffffffffffffffffffffffffffffffff021916908373ffffffffffffffffffffffffffffffffffffffff1602179055506001600260008373ffffffffffffffffffffffffffffffffffffffff1673ffffffffffffffffffffffffffffffffffffffff16815260200190815260200160002060006101000a81548160ff02191690831515021790555050565b600034116108d7576040517f08c379a00000000000000000000000000000000000000000000000000000000081526004016108ce9061122a565b60405180910390fd5b600360003373ffffffffffffffffffffffffffffffffffffffff1673ffffffffffffffffffffffffffffffffffffffff168152602001908152602001600020604051806060016040528042815260200134815260200183815250908060018154018082558091505060019003906000526020600020906003020160009091909190915060008201518160000155602082015181600101556040820151816002015550503373ffffffffffffffffffffffffffffffffffffffff167f5ce3baa64c7fb58160c7c33973b1fa20b65e77470eff3627566329334e682a8b34836040516109c292919061126a565b60405180910390a250565b60008054906101000a900473ffffffffffffffffffffffffffffffffffffffff1673ffffffffffffffffffffffffffffffffffffffff163373ffffffffffffffffffffffffffffffffffffffff1614610a2557600080fd5b60005b600180549050811015610ae5578173ffffffffffffffffffffffffffffffffffffffff1660018281548110610a86577f4e487b7100000000000000000000000000000000000000000000000000000000600052603260045260246000fd5b9060005260206000200160009054906101000a900473ffffffffffffffffffffffffffffffffffffffff1673ffffffffffffffffffffffffffffffffffffffff161415610ad257610ae5565b8080610add906114ae565b915050610a28565b60008190505b60018080549050610afc91906113c0565b811015610c085760018082610b11919061136a565b81548110610b48577f4e487b7100000000000000000000000000000000000000000000000000000000600052603260045260246000fd5b9060005260206000200160009054906101000a900473ffffffffffffffffffffffffffffffffffffffff1660018281548110610bad577f4e487b7100000000000000000000000000000000000000000000000000000000600052603260045260246000fd5b9060005260206000200160006101000a81548173ffffffffffffffffffffffffffffffffffffffff021916908373ffffffffffffffffffffffffffffffffffffffff1602179055508080610c00906114ae565b915050610aeb565b506001805480610c41577f4e487b7100000000000000000000000000000000000000000000000000000000600052603160045260246000fd5b6001900381819060005260206000200160006101000a81549073ffffffffffffffffffffffffffffffffffffffff021916905590556000600260008473ffffffffffffffffffffffffffffffffffffffff1673ffffffffffffffffffffffffffffffffffffffff16815260200190815260200160002060006101000a81548160ff0219169083151502179055505050565b60018181548110610ce257600080fd5b906000526020600020016000915054906101000a900473ffffffffffffffffffffffffffffffffffffffff1681565b60036020528160005260406000208181548110610d2d57600080fd5b9060005260206000209060030201600091509150508060000154908060010154908060020154905083565b60046020528060005260406000206000915090508060010154908060020154905082565b828054610d889061144b565b90600052602060002090601f016020900481019282610daa5760008555610df1565b82601f10610dc357805160ff1916838001178555610df1565b82800160010185558215610df1579182015b82811115610df0578251825591602001919060010190610dd5565b5b509050610dfe9190610e83565b5090565b60405180606001604052806060815260200160008152602001600081525090565b828054828255906000526020600020908101928215610e72579160200282015b82811115610e71578251829080519060200190610e61929190610d7c565b5091602001919060010190610e43565b5b509050610e7f9190610ea0565b5090565b5b80821115610e9c576000816000905550600101610e84565b5090565b5b80821115610ec05760008181610eb79190610ec4565b50600101610ea1565b5090565b508054610ed09061144b565b6000825580601f10610ee25750610f01565b601f016020900490600052602060002090810190610f009190610e83565b5b50565b6000610f17610f12846112ef565b6112ca565b905082815260208101848484011115610f2f57600080fd5b610f3a84828561143c565b509392505050565b600081359050610f518161160d565b92915050565b600082601f830112610f6857600080fd5b8135610f78848260208601610f04565b91505092915050565b600081359050610f9081611624565b92915050565b600060208284031215610fa857600080fd5b6000610fb684828501610f42565b91505092915050565b60008060408385031215610fd257600080fd5b6000610fe085828601610f42565b9250506020610ff185828601610f81565b9150509250929050565b60008060006060848603121561101057600080fd5b600061101e86828701610f42565b935050602061102f86828701610f81565b925050604084013567ffffffffffffffff81111561104c57600080fd5b61105886828701610f57565b9150509250925092565b60008060006060848603121561107757600080fd5b600061108586828701610f42565b935050602061109686828701610f81565b92505060406110a786828701610f81565b9150509250925092565b6000602082840312156110c357600080fd5b60006110d184828501610f81565b91505092915050565b60006110e683836110f2565b60208301905092915050565b6110fb816113f4565b82525050565b61110a816113f4565b82525050565b600061111b82611330565b6111258185611348565b935061113083611320565b8060005b8381101561116157815161114888826110da565b97506111538361133b565b925050600181019050611134565b5085935050505092915050565b61117781611406565b82525050565b600061118a601883611359565b915061119582611595565b602082019050919050565b60006111ad602483611359565b91506111b8826115be565b604082019050919050565b6111cc81611432565b82525050565b60006020820190506111e76000830184611101565b92915050565b600060208201905081810360008301526112078184611110565b905092915050565b6000602082019050611224600083018461116e565b92915050565b600060208201905081810360008301526112438161117d565b9050919050565b60006020820190508181036000830152611263816111a0565b9050919050565b600060408201905061127f60008301856111c3565b61128c60208301846111c3565b9392505050565b60006060820190506112a860008301866111c3565b6112b560208301856111c3565b6112c260408301846111c3565b949350505050565b60006112d46112e5565b90506112e0828261147d565b919050565b6000604051905090565b600067ffffffffffffffff82111561130a57611309611555565b5b61131382611584565b9050602081019050919050565b6000819050602082019050919050565b600081519050919050565b6000602082019050919050565b600082825260208201905092915050565b600082825260208201905092915050565b600061137582611432565b915061138083611432565b9250827fffffffffffffffffffffffffffffffffffffffffffffffffffffffffffffffff038211156113b5576113b46114f7565b5b828201905092915050565b60006113cb82611432565b91506113d683611432565b9250828210156113e9576113e86114f7565b5b828203905092915050565b60006113ff82611412565b9050919050565b60008115159050919050565b600073ffffffffffffffffffffffffffffffffffffffff82169050919050565b6000819050919050565b82818337600083830152505050565b6000600282049050600182168061146357607f821691505b6020821081141561147757611476611526565b5b50919050565b61148682611584565b810181811067ffffffffffffffff821117156114a5576114a4611555565b5b80604052505050565b60006114b982611432565b91507fffffffffffffffffffffffffffffffffffffffffffffffffffffffffffffffff8214156114ec576114eb6114f7565b5b600182019050919050565b7f4e487b7100000000000000000000000000000000000000000000000000000000600052601160045260246000fd5b7f4e487b7100000000000000000000000000000000000000000000000000000000600052602260045260246000fd5b7f4e487b7100000000000000000000000000000000000000000000000000000000600052604160045260246000fd5b6000601f19601f8301169050919050565b7f4d75737420696e636c756465206465706f736974203e20300000000000000000600082015250565b7f41646472657373206973206e6f7420612077686974656c69737465642061646460008201527f7265737300000000000000000000000000000000000000000000000000000000602082015250565b611616816113f4565b811461162157600080fd5b50565b61162d81611432565b811461163857600080fd5b5056fea26469706673582212203eca7c9ced13915a496e01727266012df8080e95d4343c6baa92d241ecafbebe64736f6c63430008040033",
  "linkReferences": {},
  "deployedLinkReferences": {}
}