{
  "_format": "hh-sol-artifact-1",
  "contractName": "Billing",
  "sourceName": "contracts/Billing.sol",
  "abi": [
    {
      "anonymous": false,
      "inputs": [
        {
          "indexed": false,
          "internalType": "address",
          "name": "previousAdmin",
          "type": "address"
        },
        {
          "indexed": false,
          "internalType": "address",
          "name": "newAdmin",
          "type": "address"
        }
      ],
      "name": "AdminChanged",
      "type": "event"
    },
    {
      "anonymous": false,
      "inputs": [
        {
          "indexed": true,
          "internalType": "address",
          "name": "beacon",
          "type": "address"
        }
      ],
      "name": "BeaconUpgraded",
      "type": "event"
    },
    {
      "anonymous": false,
      "inputs": [
        {
          "indexed": true,
          "internalType": "address",
          "name": "account",
          "type": "address"
        },
        {
          "indexed": true,
          "internalType": "uint256",
          "name": "subscriptionID",
          "type": "uint256"
        }
      ],
      "name": "CancelSubscription",
      "type": "event"
    },
    {
      "anonymous": false,
      "inputs": [
        {
          "indexed": true,
          "internalType": "address",
          "name": "account",
          "type": "address"
        },
        {
          "indexed": true,
          "internalType": "uint96",
          "name": "subscriptionID",
          "type": "uint96"
        },
        {
          "indexed": true,
          "internalType": "uint32",
          "name": "increase",
          "type": "uint32"
        }
      ],
      "name": "IncreaseBlockNumber",
      "type": "event"
    },
    {
      "anonymous": false,
      "inputs": [
        {
          "indexed": false,
          "internalType": "uint8",
          "name": "version",
          "type": "uint8"
        }
      ],
      "name": "Initialized",
      "type": "event"
    },
    {
      "anonymous": false,
      "inputs": [
        {
          "indexed": true,
          "internalType": "address",
          "name": "previousOwner",
          "type": "address"
        },
        {
          "indexed": true,
          "internalType": "address",
          "name": "newOwner",
          "type": "address"
        }
      ],
      "name": "OwnershipTransferred",
      "type": "event"
    },
    {
      "anonymous": false,
      "inputs": [
        {
          "indexed": true,
          "internalType": "address",
          "name": "account",
          "type": "address"
        },
        {
          "indexed": true,
          "internalType": "uint256",
          "name": "subscriptionID",
          "type": "uint256"
        },
        {
          "indexed": true,
          "internalType": "address",
          "name": "tokenAddress",
          "type": "address"
        }
      ],
      "name": "Purchase",
      "type": "event"
    },
    {
      "anonymous": false,
      "inputs": [
        {
          "indexed": true,
          "internalType": "address",
          "name": "from",
          "type": "address"
        },
        {
          "indexed": true,
          "internalType": "address",
          "name": "tokenAddress",
          "type": "address"
        },
        {
          "indexed": false,
          "internalType": "uint64",
          "name": "rate",
          "type": "uint64"
        },
        {
          "indexed": true,
          "internalType": "bool",
          "name": "isActive",
          "type": "bool"
        }
      ],
      "name": "StableCoinStatus",
      "type": "event"
    },
    {
      "anonymous": false,
      "inputs": [
        {
          "indexed": true,
          "internalType": "address",
          "name": "account",
          "type": "address"
        },
        {
          "indexed": false,
          "internalType": "bool",
          "name": "active",
          "type": "bool"
        },
        {
          "indexed": true,
          "internalType": "uint64",
          "name": "subscriptionID",
          "type": "uint64"
        }
      ],
      "name": "SubscriptionStatus",
      "type": "event"
    },
    {
      "anonymous": false,
      "inputs": [
        {
          "indexed": true,
          "internalType": "address",
          "name": "updateBy",
          "type": "address"
        },
        {
          "indexed": true,
          "internalType": "address",
          "name": "subscriptionID",
          "type": "address"
        }
      ],
      "name": "UpdateContract",
      "type": "event"
    },
    {
      "anonymous": false,
      "inputs": [
        {
          "indexed": true,
          "internalType": "address",
          "name": "implementation",
          "type": "address"
        }
      ],
      "name": "Upgraded",
      "type": "event"
    },
    {
      "anonymous": false,
      "inputs": [
        {
          "indexed": true,
          "internalType": "address",
          "name": "account",
          "type": "address"
        },
        {
          "indexed": true,
          "internalType": "address",
          "name": "tokenAddress",
          "type": "address"
        },
        {
          "indexed": true,
          "internalType": "uint256",
          "name": "amount",
          "type": "uint256"
        }
      ],
      "name": "withdrawApproval",
      "type": "event"
    },
    {
      "inputs": [
        {
          "internalType": "address",
          "name": "account",
          "type": "address"
        }
      ],
      "name": "_isSubscriptionActive",
      "outputs": [
        {
          "internalType": "bool",
          "name": "",
          "type": "bool"
        },
        {
          "internalType": "uint64",
          "name": "",
          "type": "uint64"
        }
      ],
      "stateMutability": "nonpayable",
      "type": "function"
    },
    {
      "inputs": [
        {
          "internalType": "uint64",
          "name": "systemDefinedSubscriptionId",
          "type": "uint64"
        },
        {
          "internalType": "address",
          "name": "tokenAddress",
          "type": "address"
        }
      ],
      "name": "activateSubscription",
      "outputs": [
        {
          "internalType": "bool",
          "name": "",
          "type": "bool"
        }
      ],
      "stateMutability": "nonpayable",
      "type": "function"
    },
    {
      "inputs": [
        {
          "internalType": "address",
          "name": "tokenAddress",
          "type": "address"
        },
        {
          "components": [
            {
              "internalType": "uint64",
              "name": "rate",
              "type": "uint64"
            },
            {
              "internalType": "bool",
              "name": "isActive",
              "type": "bool"
            }
          ],
          "internalType": "struct IBilling.StableCoinState",
          "name": "_stableCoin",
          "type": "tuple"
        }
      ],
      "name": "addStableCoin",
      "outputs": [],
      "stateMutability": "nonpayable",
      "type": "function"
    },
    {
      "inputs": [],
      "name": "cancelSubscription",
      "outputs": [],
      "stateMutability": "nonpayable",
      "type": "function"
    },
    {
      "inputs": [
        {
          "internalType": "uint64",
          "name": "subID",
          "type": "uint64"
        }
      ],
      "name": "cancelSystemSubscription",
      "outputs": [],
      "stateMutability": "nonpayable",
      "type": "function"
    },
    {
      "inputs": [
        {
          "internalType": "address",
          "name": "_asset",
          "type": "address"
        },
        {
          "internalType": "address",
          "name": "_to",
          "type": "address"
        },
        {
          "internalType": "uint256",
          "name": "_amount",
          "type": "uint256"
        }
      ],
      "name": "claim",
      "outputs": [],
      "stateMutability": "nonpayable",
      "type": "function"
    },
    {
      "inputs": [
        {
          "internalType": "uint256",
          "name": "",
          "type": "uint256"
        }
      ],
      "name": "contractSubscriptions",
      "outputs": [
        {
          "internalType": "uint32",
          "name": "frequencyOfDeduction",
          "type": "uint32"
        },
        {
          "internalType": "uint32",
          "name": "deductionIN",
          "type": "uint32"
        },
        {
          "internalType": "uint128",
          "name": "amount",
          "type": "uint128"
        },
        {
          "internalType": "bool",
          "name": "isActive",
          "type": "bool"
        },
        {
          "internalType": "bytes7",
          "name": "code",
          "type": "bytes7"
        }
      ],
      "stateMutability": "view",
      "type": "function"
    },
    {
      "inputs": [
        {
          "components": [
            {
              "internalType": "uint32",
              "name": "frequencyOfDeduction",
              "type": "uint32"
            },
            {
              "internalType": "uint32",
              "name": "deductionIN",
              "type": "uint32"
            },
            {
              "internalType": "uint128",
              "name": "amount",
              "type": "uint128"
            },
            {
              "internalType": "bool",
              "name": "isActive",
              "type": "bool"
            },
            {
              "internalType": "bytes7",
              "name": "code",
              "type": "bytes7"
            }
          ],
          "internalType": "struct IBilling.SystemDefinedSubscription",
          "name": "_sub",
          "type": "tuple"
        }
      ],
      "name": "createSystemSubscription",
      "outputs": [
        {
          "internalType": "uint64",
          "name": "",
          "type": "uint64"
        }
      ],
      "stateMutability": "nonpayable",
      "type": "function"
    },
    {
      "inputs": [
        {
          "internalType": "address",
          "name": "tokenAddress",
          "type": "address"
        },
        {
          "internalType": "uint64",
          "name": "subscriptionID",
          "type": "uint64"
        }
      ],
      "name": "getAmountToBeDeducted",
      "outputs": [
        {
          "internalType": "uint256",
          "name": "",
          "type": "uint256"
        }
      ],
      "stateMutability": "view",
      "type": "function"
    },
    {
      "inputs": [
        {
          "internalType": "uint96",
          "name": "subscriptionId",
          "type": "uint96"
        },
        {
          "internalType": "uint32",
          "name": "increase",
          "type": "uint32"
        }
      ],
      "name": "increaseBlockNumber",
      "outputs": [],
      "stateMutability": "nonpayable",
      "type": "function"
    },
    {
      "inputs": [],
      "name": "initialize",
      "outputs": [],
      "stateMutability": "nonpayable",
      "type": "function"
    },
    {
      "inputs": [
        {
          "internalType": "address",
          "name": "account",
          "type": "address"
        }
      ],
      "name": "isSubscriptionActive",
      "outputs": [],
      "stateMutability": "nonpayable",
      "type": "function"
    },
    {
      "inputs": [],
      "name": "owner",
      "outputs": [
        {
          "internalType": "address",
          "name": "",
          "type": "address"
        }
      ],
      "stateMutability": "view",
      "type": "function"
    },
    {
      "inputs": [],
      "name": "proxiableUUID",
      "outputs": [
        {
          "internalType": "bytes32",
          "name": "",
          "type": "bytes32"
        }
      ],
      "stateMutability": "view",
      "type": "function"
    },
    {
      "inputs": [],
      "name": "renounceOwnership",
      "outputs": [],
      "stateMutability": "nonpayable",
      "type": "function"
    },
    {
      "inputs": [
        {
          "internalType": "address",
          "name": "",
          "type": "address"
        }
      ],
      "name": "stableCoinStatus",
      "outputs": [
        {
          "internalType": "uint64",
          "name": "rate",
          "type": "uint64"
        },
        {
          "internalType": "bool",
          "name": "isActive",
          "type": "bool"
        }
      ],
      "stateMutability": "view",
      "type": "function"
    },
    {
      "inputs": [
        {
          "internalType": "address",
          "name": "newOwner",
          "type": "address"
        }
      ],
      "name": "transferOwnership",
      "outputs": [],
      "stateMutability": "nonpayable",
      "type": "function"
    },
    {
      "inputs": [
        {
          "internalType": "address",
          "name": "newImplementation",
          "type": "address"
        }
      ],
      "name": "upgradeTo",
      "outputs": [],
      "stateMutability": "nonpayable",
      "type": "function"
    },
    {
      "inputs": [
        {
          "internalType": "address",
          "name": "newImplementation",
          "type": "address"
        },
        {
          "internalType": "bytes",
          "name": "data",
          "type": "bytes"
        }
      ],
      "name": "upgradeToAndCall",
      "outputs": [],
      "stateMutability": "payable",
      "type": "function"
    },
    {
      "stateMutability": "payable",
      "type": "receive"
    }
  ],
  "bytecode": "0x60a06040523073ffffffffffffffffffffffffffffffffffffffff1660809073ffffffffffffffffffffffffffffffffffffffff1660601b81525034801561004657600080fd5b5060805160601c6149b161008160003960008181610da801528181610e37015281816111bd0152818161124c01526112fc01526149b16000f3fe6080604052600436106101185760003560e01c806368134ef3116100a05780639027c861116100645780639027c86114610375578063996cba68146103b6578063e1925f0c146103df578063ef101ee71461041c578063f2fde38b146104455761011f565b806368134ef3146102a1578063715018a6146102de578063758ecb96146102f55780638129fc1c146103335780638da5cb5b1461034a5761011f565b806333377717116100e757806333377717146101df5780633659cfe6146102085780634b2a7369146102315780634f1ef2861461025a57806352d1902d146102765761011f565b806301208f051461012457806314401329146101615780631626506d1461018a57806324e9edb0146101c85761011f565b3661011f57005b600080fd5b34801561013057600080fd5b5061014b6004803603810190610146919061312e565b61046e565b6040516101589190613991565b60405180910390f35b34801561016d57600080fd5b5061018860048036038101906101839190612f6f565b61052f565b005b34801561019657600080fd5b506101b160048036038101906101ac9190612f6f565b61059d565b6040516101bf9291906136a2565b60405180910390f35b3480156101d457600080fd5b506101dd61082f565b005b3480156101eb57600080fd5b506102066004803603810190610201919061303b565b610b49565b005b34801561021457600080fd5b5061022f600480360381019061022a9190612f6f565b610da6565b005b34801561023d57600080fd5b5061025860048036038101906102539190613237565b610f55565b005b610274600480360381019061026f9190612fe7565b6111bb565b005b34801561028257600080fd5b5061028b6112f8565b60405161029891906136cb565b60405180910390f35b3480156102ad57600080fd5b506102c860048036038101906102c391906131d2565b6113b1565b6040516102d59190613687565b60405180910390f35b3480156102ea57600080fd5b506102f3611899565b005b34801561030157600080fd5b5061031c60048036038101906103179190612f6f565b611921565b60405161032a9291906139ac565b60405180910390f35b34801561033f57600080fd5b50610348611966565b005b34801561035657600080fd5b5061035f6119fa565b60405161036c91906135ba565b60405180910390f35b34801561038157600080fd5b5061039c60048036038101906103979190613157565b611a24565b6040516103ad95949392919061393e565b60405180910390f35b3480156103c257600080fd5b506103dd60048036038101906103d89190612f98565b611abc565b005b3480156103eb57600080fd5b5061040660048036038101906104019190613077565b611ce5565b6040516104139190613923565b60405180910390f35b34801561042857600080fd5b50610443600480360381019061043e91906131a9565b611f30565b005b34801561045157600080fd5b5061046c60048036038101906104679190612f6f565b612089565b005b6000610478612181565b73ffffffffffffffffffffffffffffffffffffffff166104966119fa565b73ffffffffffffffffffffffffffffffffffffffff16146104ec576040517f08c379a00000000000000000000000000000000000000000000000000000000081526004016104e3906138c3565b60405180910390fd5b60c982908060018154018082558091505060019003906000526020600020016000909190919091508181610520919061476b565b505060c9805490509050919050565b60008061053b8361059d565b915091508067ffffffffffffffff168373ffffffffffffffffffffffffffffffffffffffff167f73862c3d9b780c06c1c5d011a2ad633bec8b8993f7cb9aa8b794b2b46c4c4250846040516105909190613687565b60405180910390a3505050565b600080600060cb60006105ae612181565b73ffffffffffffffffffffffffffffffffffffffff1673ffffffffffffffffffffffffffffffffffffffff16815260200190815260200160002060000160049054906101000a90046bffffffffffffffffffffffff166bffffffffffffffffffffffff16141561062c57600067ffffffffffffffff9150915061082a565b60c960cb60008573ffffffffffffffffffffffffffffffffffffffff1673ffffffffffffffffffffffffffffffffffffffff16815260200190815260200160002060000160109054906101000a900467ffffffffffffffff1667ffffffffffffffff16815481106106c6577f4e487b7100000000000000000000000000000000000000000000000000000000600052603260045260246000fd5b9060005260206000200160000160049054906101000a900463ffffffff1663ffffffff1660cb60008573ffffffffffffffffffffffffffffffffffffffff1673ffffffffffffffffffffffffffffffffffffffff16815260200190815260200160002060000160049054906101000a90046bffffffffffffffffffffffff166bffffffffffffffffffffffff164361075e9190613cdd565b116107c557600160cb60008573ffffffffffffffffffffffffffffffffffffffff1673ffffffffffffffffffffffffffffffffffffffff16815260200190815260200160002060000160109054906101000a900467ffffffffffffffff169150915061082a565b6107ce83612189565b60cb60008573ffffffffffffffffffffffffffffffffffffffff1673ffffffffffffffffffffffffffffffffffffffff16815260200190815260200160002060000160109054906101000a900467ffffffffffffffff16915091505b915091565b600060cb600061083d612181565b73ffffffffffffffffffffffffffffffffffffffff1673ffffffffffffffffffffffffffffffffffffffff16815260200190815260200160002060000160009054906101000a900463ffffffff1663ffffffff1614156108d2576040517f08c379a00000000000000000000000000000000000000000000000000000000081526004016108c990613783565b60405180910390fd5b600060cb60006108e0612181565b73ffffffffffffffffffffffffffffffffffffffff1673ffffffffffffffffffffffffffffffffffffffff16815260200190815260200160002060000160006101000a81548163ffffffff021916908363ffffffff160217905550600160cb6000610949612181565b73ffffffffffffffffffffffffffffffffffffffff1673ffffffffffffffffffffffffffffffffffffffff16815260200190815260200160002060000160186101000a81548160ff02191690831515021790555060cb60006109a9612181565b73ffffffffffffffffffffffffffffffffffffffff1673ffffffffffffffffffffffffffffffffffffffff16815260200190815260200160002060010160009054906101000a900473ffffffffffffffffffffffffffffffffffffffff1673ffffffffffffffffffffffffffffffffffffffff1663095ea7b33060006040518363ffffffff1660e01b8152600401610a42929190613635565b602060405180830381600087803b158015610a5c57600080fd5b505af1158015610a70573d6000803e3d6000fd5b505050506040513d601f19601f82011682018060405250810190610a9491906130dc565b5060cb6000610aa1612181565b73ffffffffffffffffffffffffffffffffffffffff1673ffffffffffffffffffffffffffffffffffffffff16815260200190815260200160002060000160109054906101000a900467ffffffffffffffff1667ffffffffffffffff16610b05612181565b73ffffffffffffffffffffffffffffffffffffffff167f6304f63f371bc518c6bc9e57165a4881eb87e6fea7b5b5efd45cb42254c129c460405160405180910390a3565b610b51612181565b73ffffffffffffffffffffffffffffffffffffffff16610b6f6119fa565b73ffffffffffffffffffffffffffffffffffffffff1614610bc5576040517f08c379a0000000000000000000000000000000000000000000000000000000008152600401610bbc906138c3565b60405180910390fd5b600073ffffffffffffffffffffffffffffffffffffffff168273ffffffffffffffffffffffffffffffffffffffff161415610c29577f4e487b7100000000000000000000000000000000000000000000000000000000600052600160045260246000fd5b600060ca60008473ffffffffffffffffffffffffffffffffffffffff1673ffffffffffffffffffffffffffffffffffffffff16815260200190815260200160002060000160009054906101000a900467ffffffffffffffff1667ffffffffffffffff1614610cc0577f4e487b7100000000000000000000000000000000000000000000000000000000600052600160045260246000fd5b8060ca60008473ffffffffffffffffffffffffffffffffffffffff1673ffffffffffffffffffffffffffffffffffffffff1681526020019081526020016000208181610d0c919061475d565b905050806020016020810190610d2291906130b3565b15158273ffffffffffffffffffffffffffffffffffffffff16610d43612181565b73ffffffffffffffffffffffffffffffffffffffff167f48f44ff91d7f10f98e4dd0dbbfdb79d78ecb87891909cb92d23907b14978491e846000016020810190610d8d91906131a9565b604051610d9a9190613991565b60405180910390a45050565b7f000000000000000000000000000000000000000000000000000000000000000073ffffffffffffffffffffffffffffffffffffffff163073ffffffffffffffffffffffffffffffffffffffff161415610e35576040517f08c379a0000000000000000000000000000000000000000000000000000000008152600401610e2c90613763565b60405180910390fd5b7f000000000000000000000000000000000000000000000000000000000000000073ffffffffffffffffffffffffffffffffffffffff16610e7461260f565b73ffffffffffffffffffffffffffffffffffffffff1614610eca576040517f08c379a0000000000000000000000000000000000000000000000000000000008152600401610ec190613803565b60405180910390fd5b610ed381612666565b610f5281600067ffffffffffffffff811115610f18577f4e487b7100000000000000000000000000000000000000000000000000000000600052604160045260246000fd5b6040519080825280601f01601f191660200182016040528015610f4a5781602001600182028036833780820191505090505b506000612746565b50565b610f5d612181565b73ffffffffffffffffffffffffffffffffffffffff16610f7b6119fa565b73ffffffffffffffffffffffffffffffffffffffff1614610fd1576040517f08c379a0000000000000000000000000000000000000000000000000000000008152600401610fc8906138c3565b60405180910390fd5b600060c9836bffffffffffffffffffffffff168154811061101b577f4e487b7100000000000000000000000000000000000000000000000000000000600052603260045260246000fd5b9060005260206000200160000160049054906101000a900463ffffffff1663ffffffff1611611073577f4e487b7100000000000000000000000000000000000000000000000000000000600052600160045260246000fd5b8060c9836bffffffffffffffffffffffff16815481106110bc577f4e487b7100000000000000000000000000000000000000000000000000000000600052603260045260246000fd5b9060005260206000200160000160049054906101000a900463ffffffff166110e49190613a5d565b60c9836bffffffffffffffffffffffff168154811061112c577f4e487b7100000000000000000000000000000000000000000000000000000000600052603260045260246000fd5b9060005260206000200160000160046101000a81548163ffffffff021916908363ffffffff1602179055508063ffffffff16826bffffffffffffffffffffffff16611175612181565b73ffffffffffffffffffffffffffffffffffffffff167f0f8e509f0857af364a73f5af37192486094bd78f81fd4f5320558d7a5d63a21960405160405180910390a45050565b7f000000000000000000000000000000000000000000000000000000000000000073ffffffffffffffffffffffffffffffffffffffff163073ffffffffffffffffffffffffffffffffffffffff16141561124a576040517f08c379a000000000000000000000000000000000000000000000000000000000815260040161124190613763565b60405180910390fd5b7f000000000000000000000000000000000000000000000000000000000000000073ffffffffffffffffffffffffffffffffffffffff1661128961260f565b73ffffffffffffffffffffffffffffffffffffffff16146112df576040517f08c379a00000000000000000000000000000000000000000000000000000000081526004016112d690613803565b60405180910390fd5b6112e882612666565b6112f482826001612746565b5050565b60007f000000000000000000000000000000000000000000000000000000000000000073ffffffffffffffffffffffffffffffffffffffff163073ffffffffffffffffffffffffffffffffffffffff1614611388576040517f08c379a000000000000000000000000000000000000000000000000000000000815260040161137f90613823565b60405180910390fd5b7f360894a13ba1a3210667c828492db98dca3e2076cc3735a920a3ca505d382bbc60001b905090565b60006001151560ca60008473ffffffffffffffffffffffffffffffffffffffff1673ffffffffffffffffffffffffffffffffffffffff16815260200190815260200160002060000160089054906101000a900460ff1615151461143d577f4e487b7100000000000000000000000000000000000000000000000000000000600052600160045260246000fd5b600060c98467ffffffffffffffff1681548110611483577f4e487b7100000000000000000000000000000000000000000000000000000000600052603260045260246000fd5b906000526020600020019050600115158160000160189054906101000a900460ff161515146114e7576040517f08c379a00000000000000000000000000000000000000000000000000000000081526004016114de906137c3565b60405180910390fd5b600060cb60006114f5612181565b73ffffffffffffffffffffffffffffffffffffffff1673ffffffffffffffffffffffffffffffffffffffff16815260200190815260200160002060000160009054906101000a900463ffffffff1663ffffffff161461157d577f4e487b7100000000000000000000000000000000000000000000000000000000600052600160045260246000fd5b60006115898486611ce5565b9050808260000160009054906101000a900463ffffffff1663ffffffff166115b19190613c83565b8473ffffffffffffffffffffffffffffffffffffffff1663dd62ed3e6115d5612181565b306040518363ffffffff1660e01b81526004016115f39291906135d5565b60206040518083038186803b15801561160b57600080fd5b505afa15801561161f573d6000803e3d6000fd5b505050506040513d601f19601f820116820180604052508101906116439190613180565b1015611684576040517f08c379a000000000000000000000000000000000000000000000000000000000815260040161167b90613723565b60405180910390fd5b6040518060c001604052808360000160009054906101000a900463ffffffff1663ffffffff16815260200160006bffffffffffffffffffffffff1681526020018667ffffffffffffffff1681526020016000151581526020018573ffffffffffffffffffffffffffffffffffffffff168152602001436bffffffffffffffffffffffff1681525060cb6000611717612181565b73ffffffffffffffffffffffffffffffffffffffff1673ffffffffffffffffffffffffffffffffffffffff16815260200190815260200160002060008201518160000160006101000a81548163ffffffff021916908363ffffffff16021790555060208201518160000160046101000a8154816bffffffffffffffffffffffff02191690836bffffffffffffffffffffffff16021790555060408201518160000160106101000a81548167ffffffffffffffff021916908367ffffffffffffffff16021790555060608201518160000160186101000a81548160ff02191690831515021790555060808201518160010160006101000a81548173ffffffffffffffffffffffffffffffffffffffff021916908373ffffffffffffffffffffffffffffffffffffffff16021790555060a08201518160010160146101000a8154816bffffffffffffffffffffffff02191690836bffffffffffffffffffffffff16021790555090505061188f61188a612181565b612189565b9250505092915050565b6118a1612181565b73ffffffffffffffffffffffffffffffffffffffff166118bf6119fa565b73ffffffffffffffffffffffffffffffffffffffff1614611915576040517f08c379a000000000000000000000000000000000000000000000000000000000815260040161190c906138c3565b60405180910390fd5b61191f60006128c3565b565b60ca6020528060005260406000206000915090508060000160009054906101000a900467ffffffffffffffff16908060000160089054906101000a900460ff16905082565b60006119726001612989565b90508015611996576001600060016101000a81548160ff0219169083151502179055505b61199e612a79565b80156119f75760008060016101000a81548160ff0219169083151502179055507f7f26b83ff96e1f2b6a682f133852f6798a09c465da95921460cefb384740249860016040516119ee91906136e6565b60405180910390a15b50565b6000603360009054906101000a900473ffffffffffffffffffffffffffffffffffffffff16905090565b60c98181548110611a3457600080fd5b906000526020600020016000915090508060000160009054906101000a900463ffffffff16908060000160049054906101000a900463ffffffff16908060000160089054906101000a90046fffffffffffffffffffffffffffffffff16908060000160189054906101000a900460ff16908060000160199054906101000a900460c81b905085565b611ac4612181565b73ffffffffffffffffffffffffffffffffffffffff16611ae26119fa565b73ffffffffffffffffffffffffffffffffffffffff1614611b38576040517f08c379a0000000000000000000000000000000000000000000000000000000008152600401611b2f906138c3565b60405180910390fd5b808373ffffffffffffffffffffffffffffffffffffffff166370a08231306040518263ffffffff1660e01b8152600401611b7291906135ba565b60206040518083038186803b158015611b8a57600080fd5b505afa158015611b9e573d6000803e3d6000fd5b505050506040513d601f19601f82011682018060405250810190611bc29190613180565b1015611bf7577f4e487b7100000000000000000000000000000000000000000000000000000000600052600160045260246000fd5b8273ffffffffffffffffffffffffffffffffffffffff1663095ea7b383836040518363ffffffff1660e01b8152600401611c3292919061365e565b602060405180830381600087803b158015611c4c57600080fd5b505af1158015611c60573d6000803e3d6000fd5b505050506040513d601f19601f82011682018060405250810190611c8491906130dc565b50808373ffffffffffffffffffffffffffffffffffffffff168373ffffffffffffffffffffffffffffffffffffffff167f5a6ad959135224fa7091d784adcf326544e674afc0cd3a125f76e2e6b29cc36660405160405180910390a4505050565b60008060ca60008573ffffffffffffffffffffffffffffffffffffffff1673ffffffffffffffffffffffffffffffffffffffff16815260200190815260200160002060000160009054906101000a900467ffffffffffffffff1667ffffffffffffffff1611611d89576040517f08c379a0000000000000000000000000000000000000000000000000000000008152600401611d80906137e3565b60405180910390fd5b611f28620f424080611d9b9190613c83565b8473ffffffffffffffffffffffffffffffffffffffff1663313ce5676040518163ffffffff1660e01b815260040160206040518083038186803b158015611de157600080fd5b505afa158015611df5573d6000803e3d6000fd5b505050506040513d601f19601f82011682018060405250810190611e19919061320e565b600a611e259190613b1b565b60ca60008773ffffffffffffffffffffffffffffffffffffffff1673ffffffffffffffffffffffffffffffffffffffff16815260200190815260200160002060000160009054906101000a900467ffffffffffffffff1667ffffffffffffffff1660c98667ffffffffffffffff1681548110611eca577f4e487b7100000000000000000000000000000000000000000000000000000000600052603260045260246000fd5b9060005260206000200160000160089054906101000a90046fffffffffffffffffffffffffffffffff16611efe9190613c39565b6fffffffffffffffffffffffffffffffff16611f1a9190613c83565b612ad290919063ffffffff16565b905092915050565b611f38612181565b73ffffffffffffffffffffffffffffffffffffffff16611f566119fa565b73ffffffffffffffffffffffffffffffffffffffff1614611fac576040517f08c379a0000000000000000000000000000000000000000000000000000000008152600401611fa3906138c3565b60405180910390fd5b6000151560c98267ffffffffffffffff1681548110611ff4577f4e487b7100000000000000000000000000000000000000000000000000000000600052603260045260246000fd5b9060005260206000200160000160189054906101000a900460ff161515141561201c57600080fd5b600060c98267ffffffffffffffff1681548110612062577f4e487b7100000000000000000000000000000000000000000000000000000000600052603260045260246000fd5b9060005260206000200160000160186101000a81548160ff02191690831515021790555050565b612091612181565b73ffffffffffffffffffffffffffffffffffffffff166120af6119fa565b73ffffffffffffffffffffffffffffffffffffffff1614612105576040517f08c379a00000000000000000000000000000000000000000000000000000000081526004016120fc906138c3565b60405180910390fd5b600073ffffffffffffffffffffffffffffffffffffffff168173ffffffffffffffffffffffffffffffffffffffff161415612175576040517f08c379a000000000000000000000000000000000000000000000000000000000815260040161216c90613743565b60405180910390fd5b61217e816128c3565b50565b600033905090565b60008060cb60008473ffffffffffffffffffffffffffffffffffffffff1673ffffffffffffffffffffffffffffffffffffffff168152602001908152602001600020905060008160000160009054906101000a900463ffffffff1663ffffffff161161222a576040517f08c379a0000000000000000000000000000000000000000000000000000000008152600401612221906137a3565b60405180910390fd5b60c98160000160109054906101000a900467ffffffffffffffff1667ffffffffffffffff1681548110612286577f4e487b7100000000000000000000000000000000000000000000000000000000600052603260045260246000fd5b9060005260206000200160000160009054906101000a900463ffffffff1663ffffffff168160000160049054906101000a90046bffffffffffffffffffffffff166bffffffffffffffffffffffff16436122e09190613cdd565b116122ea57600080fd5b6123308160010160009054906101000a900473ffffffffffffffffffffffffffffffffffffffff168260000160109054906101000a900467ffffffffffffffff16611ce5565b8160010160009054906101000a900473ffffffffffffffffffffffffffffffffffffffff1673ffffffffffffffffffffffffffffffffffffffff166370a08231612378612181565b6040518263ffffffff1660e01b815260040161239491906135ba565b60206040518083038186803b1580156123ac57600080fd5b505afa1580156123c0573d6000803e3d6000fd5b505050506040513d601f19601f820116820180604052508101906123e49190613180565b10156123f457600091505061260a565b8060010160009054906101000a900473ffffffffffffffffffffffffffffffffffffffff1673ffffffffffffffffffffffffffffffffffffffff166323b872dd843061247c8560010160009054906101000a900473ffffffffffffffffffffffffffffffffffffffff168660000160109054906101000a900467ffffffffffffffff16611ce5565b6040518463ffffffff1660e01b815260040161249a939291906135fe565b602060405180830381600087803b1580156124b457600080fd5b505af11580156124c8573d6000803e3d6000fd5b505050506040513d601f19601f820116820180604052508101906124ec91906130dc565b5060018160000160009054906101000a900463ffffffff1661250e9190613d11565b8160000160006101000a81548163ffffffff021916908363ffffffff160217905550438160000160046101000a8154816bffffffffffffffffffffffff02191690836bffffffffffffffffffffffff1602179055508060010160009054906101000a900473ffffffffffffffffffffffffffffffffffffffff1673ffffffffffffffffffffffffffffffffffffffff168160000160109054906101000a900467ffffffffffffffff1667ffffffffffffffff168473ffffffffffffffffffffffffffffffffffffffff167ff86ec958b5a2e4fee68cf11adb77352a0150aad78babe83e217e2fd3c31b5e3660405160405180910390a460019150505b919050565b600061263d7f360894a13ba1a3210667c828492db98dca3e2076cc3735a920a3ca505d382bbc60001b612ae8565b60000160009054906101000a900473ffffffffffffffffffffffffffffffffffffffff16905090565b61266e612181565b73ffffffffffffffffffffffffffffffffffffffff1661268c6119fa565b73ffffffffffffffffffffffffffffffffffffffff16146126e2576040517f08c379a00000000000000000000000000000000000000000000000000000000081526004016126d9906138c3565b60405180910390fd5b8073ffffffffffffffffffffffffffffffffffffffff16612701612181565b73ffffffffffffffffffffffffffffffffffffffff167fe599b5079b4c1eb212a1c7e7d9fbc7eb93470cb9a80ce244cd81cc284e4f1ebd60405160405180910390a350565b6127727f4910fdfa16fed3260ed0e7147f7cc6da11a60208b5b9406d12a635614ffd914360001b612af2565b60000160009054906101000a900460ff16156127965761279183612afc565b6128be565b8273ffffffffffffffffffffffffffffffffffffffff166352d1902d6040518163ffffffff1660e01b815260040160206040518083038186803b1580156127dc57600080fd5b505afa92505050801561280d57506040513d601f19601f8201168201806040525081019061280a9190613105565b60015b61284c576040517f08c379a000000000000000000000000000000000000000000000000000000000815260040161284390613883565b60405180910390fd5b7f360894a13ba1a3210667c828492db98dca3e2076cc3735a920a3ca505d382bbc60001b81146128b1576040517f08c379a00000000000000000000000000000000000000000000000000000000081526004016128a890613843565b60405180910390fd5b506128bd838383612bb5565b5b505050565b6000603360009054906101000a900473ffffffffffffffffffffffffffffffffffffffff16905081603360006101000a81548173ffffffffffffffffffffffffffffffffffffffff021916908373ffffffffffffffffffffffffffffffffffffffff1602179055508173ffffffffffffffffffffffffffffffffffffffff168173ffffffffffffffffffffffffffffffffffffffff167f8be0079c531659141344cd1fd0a4f28419497f9722a3daafe3b4186f6b6457e060405160405180910390a35050565b60008060019054906101000a900460ff1615612a005760018260ff161480156129b857506129b630612be1565b155b6129f7576040517f08c379a00000000000000000000000000000000000000000000000000000000081526004016129ee90613863565b60405180910390fd5b60009050612a74565b8160ff1660008054906101000a900460ff1660ff1610612a55576040517f08c379a0000000000000000000000000000000000000000000000000000000008152600401612a4c90613863565b60405180910390fd5b816000806101000a81548160ff021916908360ff160217905550600190505b919050565b600060019054906101000a900460ff16612ac8576040517f08c379a0000000000000000000000000000000000000000000000000000000008152600401612abf90613903565b60405180910390fd5b612ad0612c04565b565b60008183612ae09190613a97565b905092915050565b6000819050919050565b6000819050919050565b612b0581612be1565b612b44576040517f08c379a0000000000000000000000000000000000000000000000000000000008152600401612b3b906138a3565b60405180910390fd5b80612b717f360894a13ba1a3210667c828492db98dca3e2076cc3735a920a3ca505d382bbc60001b612ae8565b60000160006101000a81548173ffffffffffffffffffffffffffffffffffffffff021916908373ffffffffffffffffffffffffffffffffffffffff16021790555050565b612bbe83612c65565b600082511180612bcb5750805b15612bdc57612bda8383612cb4565b505b505050565b6000808273ffffffffffffffffffffffffffffffffffffffff163b119050919050565b600060019054906101000a900460ff16612c53576040517f08c379a0000000000000000000000000000000000000000000000000000000008152600401612c4a90613903565b60405180910390fd5b612c63612c5e612181565b6128c3565b565b612c6e81612afc565b8073ffffffffffffffffffffffffffffffffffffffff167fbc7cd75a20ee27fd9adebab32041f755214dbc6bffa90cc0225b39da2e5c2d3b60405160405180910390a250565b6060612cbf83612be1565b612cfe576040517f08c379a0000000000000000000000000000000000000000000000000000000008152600401612cf5906138e3565b60405180910390fd5b6000808473ffffffffffffffffffffffffffffffffffffffff1684604051612d2691906135a3565b600060405180830381855af49150503d8060008114612d61576040519150601f19603f3d011682016040523d82523d6000602084013e612d66565b606091505b5091509150612d8e828260405180606001604052806027815260200161495560279139612d98565b9250505092915050565b60608315612da857829050612df8565b600083511115612dbb5782518084602001fd5b816040517f08c379a0000000000000000000000000000000000000000000000000000000008152600401612def9190613701565b60405180910390fd5b9392505050565b6000612e12612e0d846139fa565b6139d5565b905082815260208101848484011115612e2a57600080fd5b612e35848285613ea6565b509392505050565b600081359050612e4c8161486e565b92915050565b600081359050612e6181614885565b92915050565b600081519050612e7681614885565b92915050565b600081519050612e8b8161489c565b92915050565b600082601f830112612ea257600080fd5b8135612eb2848260208601612dff565b91505092915050565b600060408284031215612ecd57600080fd5b81905092915050565b600060a08284031215612ee857600080fd5b81905092915050565b600081359050612f00816148e1565b92915050565b600081519050612f15816148e1565b92915050565b600081359050612f2a816148f8565b92915050565b600081359050612f3f8161490f565b92915050565b600081519050612f5481614926565b92915050565b600081359050612f698161493d565b92915050565b600060208284031215612f8157600080fd5b6000612f8f84828501612e3d565b91505092915050565b600080600060608486031215612fad57600080fd5b6000612fbb86828701612e3d565b9350506020612fcc86828701612e3d565b9250506040612fdd86828701612ef1565b9150509250925092565b60008060408385031215612ffa57600080fd5b600061300885828601612e3d565b925050602083013567ffffffffffffffff81111561302557600080fd5b61303185828601612e91565b9150509250929050565b6000806060838503121561304e57600080fd5b600061305c85828601612e3d565b925050602061306d85828601612ebb565b9150509250929050565b6000806040838503121561308a57600080fd5b600061309885828601612e3d565b92505060206130a985828601612f30565b9150509250929050565b6000602082840312156130c557600080fd5b60006130d384828501612e52565b91505092915050565b6000602082840312156130ee57600080fd5b60006130fc84828501612e67565b91505092915050565b60006020828403121561311757600080fd5b600061312584828501612e7c565b91505092915050565b600060a0828403121561314057600080fd5b600061314e84828501612ed6565b91505092915050565b60006020828403121561316957600080fd5b600061317784828501612ef1565b91505092915050565b60006020828403121561319257600080fd5b60006131a084828501612f06565b91505092915050565b6000602082840312156131bb57600080fd5b60006131c984828501612f30565b91505092915050565b600080604083850312156131e557600080fd5b60006131f385828601612f30565b925050602061320485828601612e3d565b9150509250929050565b60006020828403121561322057600080fd5b600061322e84828501612f45565b91505092915050565b6000806040838503121561324a57600080fd5b600061325885828601612f5a565b925050602061326985828601612f1b565b9150509250929050565b61327c81613d45565b82525050565b61328b81613d57565b82525050565b61329a81613d63565b82525050565b6132a981613d6d565b82525050565b60006132ba82613a2b565b6132c48185613a41565b93506132d4818560208601613eb5565b80840191505092915050565b6132e981613e4c565b82525050565b6132f881613e5e565b82525050565b600061330982613a36565b6133138185613a4c565b9350613323818560208601613eb5565b61332c8161413d565b840191505092915050565b6000613344602883613a4c565b915061334f826141a9565b604082019050919050565b6000613367602683613a4c565b9150613372826141f8565b604082019050919050565b600061338a602c83613a4c565b915061339582614247565b604082019050919050565b60006133ad601683613a4c565b91506133b882614296565b602082019050919050565b60006133d0602583613a4c565b91506133db826142bf565b604082019050919050565b60006133f3601683613a4c565b91506133fe8261430e565b602082019050919050565b6000613416602083613a4c565b915061342182614337565b602082019050919050565b6000613439602c83613a4c565b915061344482614360565b604082019050919050565b600061345c603883613a4c565b9150613467826143af565b604082019050919050565b600061347f602983613a4c565b915061348a826143fe565b604082019050919050565b60006134a2602e83613a4c565b91506134ad8261444d565b604082019050919050565b60006134c5602e83613a4c565b91506134d08261449c565b604082019050919050565b60006134e8602d83613a4c565b91506134f3826144eb565b604082019050919050565b600061350b602083613a4c565b91506135168261453a565b602082019050919050565b600061352e602683613a4c565b915061353982614563565b604082019050919050565b6000613551602b83613a4c565b915061355c826145b2565b604082019050919050565b61357081613d99565b82525050565b61357f81613dd5565b82525050565b61358e81613ddf565b82525050565b61359d81613def565b82525050565b60006135af82846132af565b915081905092915050565b60006020820190506135cf6000830184613273565b92915050565b60006040820190506135ea6000830185613273565b6135f76020830184613273565b9392505050565b60006060820190506136136000830186613273565b6136206020830185613273565b61362d6040830184613576565b949350505050565b600060408201905061364a6000830185613273565b61365760208301846132e0565b9392505050565b60006040820190506136736000830185613273565b6136806020830184613576565b9392505050565b600060208201905061369c6000830184613282565b92915050565b60006040820190506136b76000830185613282565b6136c46020830184613594565b9392505050565b60006020820190506136e06000830184613291565b92915050565b60006020820190506136fb60008301846132ef565b92915050565b6000602082019050818103600083015261371b81846132fe565b905092915050565b6000602082019050818103600083015261373c81613337565b9050919050565b6000602082019050818103600083015261375c8161335a565b9050919050565b6000602082019050818103600083015261377c8161337d565b9050919050565b6000602082019050818103600083015261379c816133a0565b9050919050565b600060208201905081810360008301526137bc816133c3565b9050919050565b600060208201905081810360008301526137dc816133e6565b9050919050565b600060208201905081810360008301526137fc81613409565b9050919050565b6000602082019050818103600083015261381c8161342c565b9050919050565b6000602082019050818103600083015261383c8161344f565b9050919050565b6000602082019050818103600083015261385c81613472565b9050919050565b6000602082019050818103600083015261387c81613495565b9050919050565b6000602082019050818103600083015261389c816134b8565b9050919050565b600060208201905081810360008301526138bc816134db565b9050919050565b600060208201905081810360008301526138dc816134fe565b9050919050565b600060208201905081810360008301526138fc81613521565b9050919050565b6000602082019050818103600083015261391c81613544565b9050919050565b60006020820190506139386000830184613576565b92915050565b600060a0820190506139536000830188613585565b6139606020830187613585565b61396d6040830186613567565b61397a6060830185613282565b61398760808301846132a0565b9695505050505050565b60006020820190506139a66000830184613594565b92915050565b60006040820190506139c16000830185613594565b6139ce6020830184613282565b9392505050565b60006139df6139f0565b90506139eb8282613fd7565b919050565b6000604051905090565b600067ffffffffffffffff821115613a1557613a14614066565b5b613a1e8261413d565b9050602081019050919050565b600081519050919050565b600081519050919050565b600081905092915050565b600082825260208201905092915050565b6000613a6882613ddf565b9150613a7383613ddf565b92508263ffffffff03821115613a8c57613a8b614008565b5b828201905092915050565b6000613aa282613dd5565b9150613aad83613dd5565b925082613abd57613abc614037565b5b828204905092915050565b6000808291508390505b6001851115613b1257808604811115613aee57613aed614008565b5b6001851615613afd5780820291505b8081029050613b0b8561418f565b9450613ad2565b94509492505050565b6000613b2682613dd5565b9150613b3183613e03565b9250613b5e7fffffffffffffffffffffffffffffffffffffffffffffffffffffffffffffffff8484613b66565b905092915050565b600082613b765760019050613c32565b81613b845760009050613c32565b8160018114613b9a5760028114613ba457613bd3565b6001915050613c32565b60ff841115613bb657613bb5614008565b5b8360020a915084821115613bcd57613bcc614008565b5b50613c32565b5060208310610133831016604e8410600b8410161715613c085782820a905083811115613c0357613c02614008565b5b613c32565b613c158484846001613ac8565b92509050818404811115613c2c57613c2b614008565b5b81810290505b9392505050565b6000613c4482613d99565b9150613c4f83613d99565b9250816fffffffffffffffffffffffffffffffff0483118215151615613c7857613c77614008565b5b828202905092915050565b6000613c8e82613dd5565b9150613c9983613dd5565b9250817fffffffffffffffffffffffffffffffffffffffffffffffffffffffffffffffff0483118215151615613cd257613cd1614008565b5b828202905092915050565b6000613ce882613dd5565b9150613cf383613dd5565b925082821015613d0657613d05614008565b5b828203905092915050565b6000613d1c82613ddf565b9150613d2783613ddf565b925082821015613d3a57613d39614008565b5b828203905092915050565b6000613d5082613db5565b9050919050565b60008115159050919050565b6000819050919050565b60007fffffffffffffff0000000000000000000000000000000000000000000000000082169050919050565b60006fffffffffffffffffffffffffffffffff82169050919050565b600073ffffffffffffffffffffffffffffffffffffffff82169050919050565b6000819050919050565b600063ffffffff82169050919050565b600067ffffffffffffffff82169050919050565b600060ff82169050919050565b60006bffffffffffffffffffffffff82169050919050565b6000613e3382613d57565b9050919050565b6000613e4582613d6d565b9050919050565b6000613e5782613dd5565b9050919050565b6000613e6982613e03565b9050919050565b6000613e7b82613d99565b9050919050565b6000613e8d82613ddf565b9050919050565b6000613e9f82613def565b9050919050565b82818337600083830152505050565b60005b83811015613ed3578082015181840152602081019050613eb8565b83811115613ee2576000848401525b50505050565b600081016000830180613efa81614127565b9050613f06818461479c565b505050600081016020830180613f1b816140cf565b9050613f278184614828565b5050505050565b600081016000830180613f4081614111565b9050613f4c8184614779565b505050600081016020830180613f6181614111565b9050613f6d8184614805565b505050600081016040830180613f82816140fb565b9050613f8e818461484b565b505050600081016060830180613fa3816140cf565b9050613faf81846147bf565b505050600081016080830180613fc4816140e5565b9050613fd081846147e2565b5050505050565b613fe08261413d565b810181811067ffffffffffffffff82111715613fff57613ffe614066565b5b80604052505050565b7f4e487b7100000000000000000000000000000000000000000000000000000000600052601160045260246000fd5b7f4e487b7100000000000000000000000000000000000000000000000000000000600052601260045260246000fd5b7f4e487b7100000000000000000000000000000000000000000000000000000000600052604160045260246000fd5b6000819050919050565b60006140aa8261419c565b9050919050565b6000819050919050565b6000819050919050565b6000819050919050565b600081356140dc81614885565b80915050919050565b600081356140f2816148b3565b80915050919050565b60008135614108816148ca565b80915050919050565b6000813561411e816148f8565b80915050919050565b600081356141348161490f565b80915050919050565b6000601f19601f8301169050919050565b60008160001b9050919050565b60008160c01b9050919050565b60008160c81b9050919050565b60008160201b9050919050565b60008160401b9050919050565b60008160011c9050919050565b60008160c81c9050919050565b7f496e63726561736520416c6c6f77616e636520746f206d61746368207375627360008201527f6372697074696f6e000000000000000000000000000000000000000000000000602082015250565b7f4f776e61626c653a206e6577206f776e657220697320746865207a65726f206160008201527f6464726573730000000000000000000000000000000000000000000000000000602082015250565b7f46756e6374696f6e206d7573742062652063616c6c6564207468726f7567682060008201527f64656c656761746563616c6c0000000000000000000000000000000000000000602082015250565b7f4e6f2061637469766520737562736372697074696f6e00000000000000000000600082015250565b7f737562736372697074696f6e2065787069726564206f7220646f65736e27742060008201527f6578697374000000000000000000000000000000000000000000000000000000602082015250565b7f74686973206f6666657220686173206578706972656400000000000000000000600082015250565b7f546f6b656e41646472657373204e6f742041636365707461626c652048455245600082015250565b7f46756e6374696f6e206d7573742062652063616c6c6564207468726f7567682060008201527f6163746976652070726f78790000000000000000000000000000000000000000602082015250565b7f555550535570677261646561626c653a206d757374206e6f742062652063616c60008201527f6c6564207468726f7567682064656c656761746563616c6c0000000000000000602082015250565b7f45524331393637557067726164653a20756e737570706f727465642070726f7860008201527f6961626c65555549440000000000000000000000000000000000000000000000602082015250565b7f496e697469616c697a61626c653a20636f6e747261637420697320616c72656160008201527f647920696e697469616c697a6564000000000000000000000000000000000000602082015250565b7f45524331393637557067726164653a206e657720696d706c656d656e7461746960008201527f6f6e206973206e6f742055555053000000000000000000000000000000000000602082015250565b7f455243313936373a206e657720696d706c656d656e746174696f6e206973206e60008201527f6f74206120636f6e747261637400000000000000000000000000000000000000602082015250565b7f4f776e61626c653a2063616c6c6572206973206e6f7420746865206f776e6572600082015250565b7f416464726573733a2064656c65676174652063616c6c20746f206e6f6e2d636f60008201527f6e74726163740000000000000000000000000000000000000000000000000000602082015250565b7f496e697469616c697a61626c653a20636f6e7472616374206973206e6f74206960008201527f6e697469616c697a696e67000000000000000000000000000000000000000000602082015250565b600077ffffffffffffffffffffffffffffffff000000000000000061462584614182565b9350801983169250808416831791505092915050565b600078ff0000000000000000000000000000000000000000000000006146608461415b565b9350801983169250808416831791505092915050565b600068ff000000000000000061468b84614182565b9350801983169250808416831791505092915050565b600063ffffffff6146b18461414e565b9350801983169250808416831791505092915050565b600067ffffffff000000006146db84614175565b9350801983169250808416831791505092915050565b60007fffffffffffffff0000000000000000000000000000000000000000000000000061471d84614168565b9350801983169250808416831791505092915050565b600067ffffffffffffffff6147478461414e565b9350801983169250808416831791505092915050565b6147678282613ee8565b5050565b6147758282613f2e565b5050565b61478282613e82565b61479561478e826140bb565b83546146a1565b8255505050565b6147a582613e94565b6147b86147b1826140c5565b8354614733565b8255505050565b6147c882613e28565b6147db6147d482614095565b835461463b565b8255505050565b6147eb82613e3a565b6147fe6147f78261409f565b83546146f1565b8255505050565b61480e82613e82565b61482161481a826140bb565b83546146c7565b8255505050565b61483182613e28565b61484461483d82614095565b8354614676565b8255505050565b61485482613e70565b614867614860826140b1565b8354614601565b8255505050565b61487781613d45565b811461488257600080fd5b50565b61488e81613d57565b811461489957600080fd5b50565b6148a581613d63565b81146148b057600080fd5b50565b6148bc81613d6d565b81146148c757600080fd5b50565b6148d381613d99565b81146148de57600080fd5b50565b6148ea81613dd5565b81146148f557600080fd5b50565b61490181613ddf565b811461490c57600080fd5b50565b61491881613def565b811461492357600080fd5b50565b61492f81613e03565b811461493a57600080fd5b50565b61494681613e10565b811461495157600080fd5b5056fe416464726573733a206c6f772d6c6576656c2064656c65676174652063616c6c206661696c6564a264697066735822122042e21b13d644edbc6541e430ba6b5fc5d318821429f4551a5d2813a5e7054a5864736f6c63430008040033",
  "linkReferences": {},
  "deployedLinkReferences": {}
}