{
  "_format": "hh-sol-artifact-1",
  "contractName": "LHNFTProfile",
  "sourceName": "contracts/nft/LHNFTProfile.sol",
  "abi": [
    {
      "anonymous": false,
      "inputs": [
        {
          "indexed": false,
          "internalType": "address",
          "name": "previousAdmin",
          "type": "address"
        },
        {
          "indexed": false,
          "internalType": "address",
          "name": "newAdmin",
          "type": "address"
        }
      ],
      "name": "AdminChanged",
      "type": "event"
    },
    {
      "anonymous": false,
      "inputs": [
        {
          "indexed": true,
          "internalType": "address",
          "name": "owner",
          "type": "address"
        },
        {
          "indexed": true,
          "internalType": "address",
          "name": "approved",
          "type": "address"
        },
        {
          "indexed": true,
          "internalType": "uint256",
          "name": "tokenId",
          "type": "uint256"
        }
      ],
      "name": "Approval",
      "type": "event"
    },
    {
      "anonymous": false,
      "inputs": [
        {
          "indexed": true,
          "internalType": "address",
          "name": "owner",
          "type": "address"
        },
        {
          "indexed": true,
          "internalType": "address",
          "name": "operator",
          "type": "address"
        },
        {
          "indexed": false,
          "internalType": "bool",
          "name": "approved",
          "type": "bool"
        }
      ],
      "name": "ApprovalForAll",
      "type": "event"
    },
    {
      "anonymous": false,
      "inputs": [
        {
          "indexed": true,
          "internalType": "address",
          "name": "beacon",
          "type": "address"
        }
      ],
      "name": "BeaconUpgraded",
      "type": "event"
    },
    {
      "anonymous": false,
      "inputs": [
        {
          "indexed": false,
          "internalType": "uint8",
          "name": "version",
          "type": "uint8"
        }
      ],
      "name": "Initialized",
      "type": "event"
    },
    {
      "anonymous": false,
      "inputs": [
        {
          "indexed": true,
          "internalType": "address",
          "name": "previousOwner",
          "type": "address"
        },
        {
          "indexed": true,
          "internalType": "address",
          "name": "newOwner",
          "type": "address"
        }
      ],
      "name": "OwnershipTransferred",
      "type": "event"
    },
    {
      "anonymous": false,
      "inputs": [
        {
          "indexed": true,
          "internalType": "address",
          "name": "from",
          "type": "address"
        },
        {
          "indexed": true,
          "internalType": "address",
          "name": "to",
          "type": "address"
        },
        {
          "indexed": true,
          "internalType": "uint256",
          "name": "tokenId",
          "type": "uint256"
        }
      ],
      "name": "Transfer",
      "type": "event"
    },
    {
      "anonymous": false,
      "inputs": [
        {
          "indexed": true,
          "internalType": "address",
          "name": "implementation",
          "type": "address"
        }
      ],
      "name": "Upgraded",
      "type": "event"
    },
    {
      "inputs": [
        {
          "internalType": "address",
          "name": "to",
          "type": "address"
        },
        {
          "internalType": "uint256",
          "name": "tokenId",
          "type": "uint256"
        }
      ],
      "name": "approve",
      "outputs": [],
      "stateMutability": "nonpayable",
      "type": "function"
    },
    {
      "inputs": [
        {
          "internalType": "address",
          "name": "owner",
          "type": "address"
        }
      ],
      "name": "balanceOf",
      "outputs": [
        {
          "internalType": "uint256",
          "name": "",
          "type": "uint256"
        }
      ],
      "stateMutability": "view",
      "type": "function"
    },
    {
      "inputs": [
        {
          "internalType": "uint256",
          "name": "tokenId",
          "type": "uint256"
        }
      ],
      "name": "getApproved",
      "outputs": [
        {
          "internalType": "address",
          "name": "",
          "type": "address"
        }
      ],
      "stateMutability": "view",
      "type": "function"
    },
    {
      "inputs": [
        {
          "internalType": "address",
          "name": "_owner",
          "type": "address"
        }
      ],
      "name": "getTokenID",
      "outputs": [
        {
          "internalType": "uint256",
          "name": "",
          "type": "uint256"
        }
      ],
      "stateMutability": "view",
      "type": "function"
    },
    {
      "inputs": [],
      "name": "initialize",
      "outputs": [],
      "stateMutability": "nonpayable",
      "type": "function"
    },
    {
      "inputs": [
        {
          "internalType": "address",
          "name": "owner",
          "type": "address"
        },
        {
          "internalType": "address",
          "name": "operator",
          "type": "address"
        }
      ],
      "name": "isApprovedForAll",
      "outputs": [
        {
          "internalType": "bool",
          "name": "",
          "type": "bool"
        }
      ],
      "stateMutability": "view",
      "type": "function"
    },
    {
      "inputs": [],
      "name": "name",
      "outputs": [
        {
          "internalType": "string",
          "name": "",
          "type": "string"
        }
      ],
      "stateMutability": "view",
      "type": "function"
    },
    {
      "inputs": [],
      "name": "owner",
      "outputs": [
        {
          "internalType": "address",
          "name": "",
          "type": "address"
        }
      ],
      "stateMutability": "view",
      "type": "function"
    },
    {
      "inputs": [
        {
          "internalType": "uint256",
          "name": "tokenId",
          "type": "uint256"
        }
      ],
      "name": "ownerOf",
      "outputs": [
        {
          "internalType": "address",
          "name": "",
          "type": "address"
        }
      ],
      "stateMutability": "view",
      "type": "function"
    },
    {
      "inputs": [],
      "name": "proxiableUUID",
      "outputs": [
        {
          "internalType": "bytes32",
          "name": "",
          "type": "bytes32"
        }
      ],
      "stateMutability": "view",
      "type": "function"
    },
    {
      "inputs": [],
      "name": "renounceOwnership",
      "outputs": [],
      "stateMutability": "nonpayable",
      "type": "function"
    },
    {
      "inputs": [
        {
          "internalType": "address",
          "name": "to",
          "type": "address"
        },
        {
          "internalType": "string",
          "name": "uri",
          "type": "string"
        }
      ],
      "name": "safeMint",
      "outputs": [],
      "stateMutability": "nonpayable",
      "type": "function"
    },
    {
      "inputs": [
        {
          "internalType": "address",
          "name": "from",
          "type": "address"
        },
        {
          "internalType": "address",
          "name": "to",
          "type": "address"
        },
        {
          "internalType": "uint256",
          "name": "tokenId",
          "type": "uint256"
        }
      ],
      "name": "safeTransferFrom",
      "outputs": [],
      "stateMutability": "nonpayable",
      "type": "function"
    },
    {
      "inputs": [
        {
          "internalType": "address",
          "name": "from",
          "type": "address"
        },
        {
          "internalType": "address",
          "name": "to",
          "type": "address"
        },
        {
          "internalType": "uint256",
          "name": "tokenId",
          "type": "uint256"
        },
        {
          "internalType": "bytes",
          "name": "_data",
          "type": "bytes"
        }
      ],
      "name": "safeTransferFrom",
      "outputs": [],
      "stateMutability": "nonpayable",
      "type": "function"
    },
    {
      "inputs": [
        {
          "internalType": "address",
          "name": "operator",
          "type": "address"
        },
        {
          "internalType": "bool",
          "name": "approved",
          "type": "bool"
        }
      ],
      "name": "setApprovalForAll",
      "outputs": [],
      "stateMutability": "nonpayable",
      "type": "function"
    },
    {
      "inputs": [
        {
          "internalType": "bytes4",
          "name": "interfaceId",
          "type": "bytes4"
        }
      ],
      "name": "supportsInterface",
      "outputs": [
        {
          "internalType": "bool",
          "name": "",
          "type": "bool"
        }
      ],
      "stateMutability": "view",
      "type": "function"
    },
    {
      "inputs": [],
      "name": "symbol",
      "outputs": [
        {
          "internalType": "string",
          "name": "",
          "type": "string"
        }
      ],
      "stateMutability": "view",
      "type": "function"
    },
    {
      "inputs": [
        {
          "internalType": "uint256",
          "name": "tokenId",
          "type": "uint256"
        }
      ],
      "name": "tokenURI",
      "outputs": [
        {
          "internalType": "string",
          "name": "",
          "type": "string"
        }
      ],
      "stateMutability": "view",
      "type": "function"
    },
    {
      "inputs": [
        {
          "internalType": "address",
          "name": "from",
          "type": "address"
        },
        {
          "internalType": "address",
          "name": "to",
          "type": "address"
        },
        {
          "internalType": "uint256",
          "name": "tokenId",
          "type": "uint256"
        }
      ],
      "name": "transferFrom",
      "outputs": [],
      "stateMutability": "nonpayable",
      "type": "function"
    },
    {
      "inputs": [
        {
          "internalType": "address",
          "name": "newOwner",
          "type": "address"
        }
      ],
      "name": "transferOwnership",
      "outputs": [],
      "stateMutability": "nonpayable",
      "type": "function"
    },
    {
      "inputs": [
        {
          "internalType": "address",
          "name": "newImplementation",
          "type": "address"
        }
      ],
      "name": "upgradeTo",
      "outputs": [],
      "stateMutability": "nonpayable",
      "type": "function"
    },
    {
      "inputs": [
        {
          "internalType": "address",
          "name": "newImplementation",
          "type": "address"
        },
        {
          "internalType": "bytes",
          "name": "data",
          "type": "bytes"
        }
      ],
      "name": "upgradeToAndCall",
      "outputs": [],
      "stateMutability": "payable",
      "type": "function"
    }
  ],
  "bytecode": "0x60a06040523073ffffffffffffffffffffffffffffffffffffffff1660809073ffffffffffffffffffffffffffffffffffffffff1660601b81525034801561004657600080fd5b5060805160601c6149eb610081600039600081816108960152818161092501528181610a6501528181610af40152610ba401526149eb6000f3fe6080604052600436106101355760003560e01c806370a08231116100ab578063a22cb4651161006f578063a22cb46514610405578063b88d4fde1461042e578063c87b56dd14610457578063d204c45e14610494578063e985e9c5146104bd578063f2fde38b146104fa57610135565b806370a0823114610344578063715018a6146103815780638129fc1c146103985780638da5cb5b146103af57806395d89b41146103da57610135565b80633659cfe6116100fd5780633659cfe61461023157806342842e0e1461025a5780634f1ef2861461028357806352d1902d1461029f5780636352211e146102ca57806363f8071c1461030757610135565b806301ffc9a71461013a57806306fdde0314610177578063081812fc146101a2578063095ea7b3146101df57806323b872dd14610208575b600080fd5b34801561014657600080fd5b50610161600480360381019061015c9190613226565b610523565b60405161016e919061387c565b60405180910390f35b34801561018357600080fd5b5061018c610605565b60405161019991906138cd565b60405180910390f35b3480156101ae57600080fd5b506101c960048036038101906101c49190613278565b610697565b6040516101d69190613815565b60405180910390f35b3480156101eb57600080fd5b50610206600480360381019061020191906131c1565b61071c565b005b34801561021457600080fd5b5061022f600480360381019061022a9190613013565b610834565b005b34801561023d57600080fd5b5061025860048036038101906102539190612fae565b610894565b005b34801561026657600080fd5b50610281600480360381019061027c9190613013565b610a43565b005b61029d60048036038101906102989190613119565b610a63565b005b3480156102ab57600080fd5b506102b4610ba0565b6040516102c19190613897565b60405180910390f35b3480156102d657600080fd5b506102f160048036038101906102ec9190613278565b610c59565b6040516102fe9190613815565b60405180910390f35b34801561031357600080fd5b5061032e60048036038101906103299190612fae565b610d0b565b60405161033b9190613caf565b60405180910390f35b34801561035057600080fd5b5061036b60048036038101906103669190612fae565b610df8565b6040516103789190613caf565b60405180910390f35b34801561038d57600080fd5b50610396610eb0565b005b3480156103a457600080fd5b506103ad610f38565b005b3480156103bb57600080fd5b506103c4611050565b6040516103d19190613815565b60405180910390f35b3480156103e657600080fd5b506103ef61107a565b6040516103fc91906138cd565b60405180910390f35b34801561041157600080fd5b5061042c600480360381019061042791906130dd565b61110c565b005b34801561043a57600080fd5b5061045560048036038101906104509190613062565b611122565b005b34801561046357600080fd5b5061047e60048036038101906104799190613278565b611184565b60405161048b91906138cd565b60405180910390f35b3480156104a057600080fd5b506104bb60048036038101906104b6919061316d565b611196565b005b3480156104c957600080fd5b506104e460048036038101906104df9190612fd7565b6112d5565b6040516104f1919061387c565b60405180910390f35b34801561050657600080fd5b50610521600480360381019061051c9190612fae565b611369565b005b60007f80ac58cd000000000000000000000000000000000000000000000000000000007bffffffffffffffffffffffffffffffffffffffffffffffffffffffff1916827bffffffffffffffffffffffffffffffffffffffffffffffffffffffff191614806105ee57507f5b5e139f000000000000000000000000000000000000000000000000000000007bffffffffffffffffffffffffffffffffffffffffffffffffffffffff1916827bffffffffffffffffffffffffffffffffffffffffffffffffffffffff1916145b806105fe57506105fd82611461565b5b9050919050565b60606065805461061490613f39565b80601f016020809104026020016040519081016040528092919081815260200182805461064090613f39565b801561068d5780601f106106625761010080835404028352916020019161068d565b820191906000526020600020905b81548152906001019060200180831161067057829003601f168201915b5050505050905090565b60006106a2826114cb565b6106e1576040517f08c379a00000000000000000000000000000000000000000000000000000000081526004016106d890613baf565b60405180910390fd5b6069600083815260200190815260200160002060009054906101000a900473ffffffffffffffffffffffffffffffffffffffff169050919050565b600061072782610c59565b90508073ffffffffffffffffffffffffffffffffffffffff168373ffffffffffffffffffffffffffffffffffffffff161415610798576040517f08c379a000000000000000000000000000000000000000000000000000000000815260040161078f90613c2f565b60405180910390fd5b8073ffffffffffffffffffffffffffffffffffffffff166107b7611537565b73ffffffffffffffffffffffffffffffffffffffff1614806107e657506107e5816107e0611537565b6112d5565b5b610825576040517f08c379a000000000000000000000000000000000000000000000000000000000815260040161081c90613a6f565b60405180910390fd5b61082f838361153f565b505050565b61084561083f611537565b826115f8565b610884576040517f08c379a000000000000000000000000000000000000000000000000000000000815260040161087b90613c6f565b60405180910390fd5b61088f8383836116d6565b505050565b7f000000000000000000000000000000000000000000000000000000000000000073ffffffffffffffffffffffffffffffffffffffff163073ffffffffffffffffffffffffffffffffffffffff161415610923576040517f08c379a000000000000000000000000000000000000000000000000000000000815260040161091a9061396f565b60405180910390fd5b7f000000000000000000000000000000000000000000000000000000000000000073ffffffffffffffffffffffffffffffffffffffff1661096261193d565b73ffffffffffffffffffffffffffffffffffffffff16146109b8576040517f08c379a00000000000000000000000000000000000000000000000000000000081526004016109af906139ef565b60405180910390fd5b6109c181611994565b610a4081600067ffffffffffffffff811115610a06577f4e487b7100000000000000000000000000000000000000000000000000000000600052604160045260246000fd5b6040519080825280601f01601f191660200182016040528015610a385781602001600182028036833780820191505090505b506000611a13565b50565b610a5e83838360405180602001604052806000815250611122565b505050565b7f000000000000000000000000000000000000000000000000000000000000000073ffffffffffffffffffffffffffffffffffffffff163073ffffffffffffffffffffffffffffffffffffffff161415610af2576040517f08c379a0000000000000000000000000000000000000000000000000000000008152600401610ae99061396f565b60405180910390fd5b7f000000000000000000000000000000000000000000000000000000000000000073ffffffffffffffffffffffffffffffffffffffff16610b3161193d565b73ffffffffffffffffffffffffffffffffffffffff1614610b87576040517f08c379a0000000000000000000000000000000000000000000000000000000008152600401610b7e906139ef565b60405180910390fd5b610b9082611994565b610b9c82826001611a13565b5050565b60007f000000000000000000000000000000000000000000000000000000000000000073ffffffffffffffffffffffffffffffffffffffff163073ffffffffffffffffffffffffffffffffffffffff1614610c30576040517f08c379a0000000000000000000000000000000000000000000000000000000008152600401610c2790613a4f565b60405180910390fd5b7f360894a13ba1a3210667c828492db98dca3e2076cc3735a920a3ca505d382bbc60001b905090565b6000806067600084815260200190815260200160002060009054906101000a900473ffffffffffffffffffffffffffffffffffffffff169050600073ffffffffffffffffffffffffffffffffffffffff168173ffffffffffffffffffffffffffffffffffffffff161415610d02576040517f08c379a0000000000000000000000000000000000000000000000000000000008152600401610cf990613aaf565b60405180910390fd5b80915050919050565b60007fffffffffffffffffffffffffffffffffffffffffffffffffffffffffffffffff61015f60008473ffffffffffffffffffffffffffffffffffffffff1673ffffffffffffffffffffffffffffffffffffffff168152602001908152602001600020541415610db0576040517f08c379a0000000000000000000000000000000000000000000000000000000008152600401610da790613a2f565b60405180910390fd5b61015f60008373ffffffffffffffffffffffffffffffffffffffff1673ffffffffffffffffffffffffffffffffffffffff168152602001908152602001600020549050919050565b60008073ffffffffffffffffffffffffffffffffffffffff168273ffffffffffffffffffffffffffffffffffffffff161415610e69576040517f08c379a0000000000000000000000000000000000000000000000000000000008152600401610e6090613a8f565b60405180910390fd5b606860008373ffffffffffffffffffffffffffffffffffffffff1673ffffffffffffffffffffffffffffffffffffffff168152602001908152602001600020549050919050565b610eb8611537565b73ffffffffffffffffffffffffffffffffffffffff16610ed6611050565b73ffffffffffffffffffffffffffffffffffffffff1614610f2c576040517f08c379a0000000000000000000000000000000000000000000000000000000008152600401610f2390613bef565b60405180910390fd5b610f366000611b90565b565b6000610f446001611c56565b90508015610f68576001600060016101000a81548160ff0219169083151502179055505b610fdc6040518060400160405280601481526020017f4c69676874486f7573654e465450726f66696c650000000000000000000000008152506040518060400160405280600681526020017f4c484e4654500000000000000000000000000000000000000000000000000000815250611d46565b610fe4611da3565b610fec611df4565b610ff4611e4d565b801561104d5760008060016101000a81548160ff0219169083151502179055507f7f26b83ff96e1f2b6a682f133852f6798a09c465da95921460cefb3847402498600160405161104491906138b2565b60405180910390a15b50565b600060c960009054906101000a900473ffffffffffffffffffffffffffffffffffffffff16905090565b60606066805461108990613f39565b80601f01602080910402602001604051908101604052809291908181526020018280546110b590613f39565b80156111025780601f106110d757610100808354040283529160200191611102565b820191906000526020600020905b8154815290600101906020018083116110e557829003601f168201915b5050505050905090565b61111e611117611537565b8383611e9e565b5050565b61113361112d611537565b836115f8565b611172576040517f08c379a000000000000000000000000000000000000000000000000000000000815260040161116990613c6f565b60405180910390fd5b61117e8484848461200b565b50505050565b606061118f82612067565b9050919050565b61119e611537565b73ffffffffffffffffffffffffffffffffffffffff166111bc611050565b73ffffffffffffffffffffffffffffffffffffffff1614611212576040517f08c379a000000000000000000000000000000000000000000000000000000000815260040161120990613bef565b60405180910390fd5b600161121d83610df8565b1061125d576040517f08c379a0000000000000000000000000000000000000000000000000000000008152600401611254906139cf565b60405180910390fd5b6112686101606121b9565b60006112756101606121cf565b905061128183826121dd565b61128b81836121fb565b8061015f60008573ffffffffffffffffffffffffffffffffffffffff1673ffffffffffffffffffffffffffffffffffffffff16815260200190815260200160002081905550505050565b6000606a60008473ffffffffffffffffffffffffffffffffffffffff1673ffffffffffffffffffffffffffffffffffffffff16815260200190815260200160002060008373ffffffffffffffffffffffffffffffffffffffff1673ffffffffffffffffffffffffffffffffffffffff16815260200190815260200160002060009054906101000a900460ff16905092915050565b611371611537565b73ffffffffffffffffffffffffffffffffffffffff1661138f611050565b73ffffffffffffffffffffffffffffffffffffffff16146113e5576040517f08c379a00000000000000000000000000000000000000000000000000000000081526004016113dc90613bef565b60405180910390fd5b600073ffffffffffffffffffffffffffffffffffffffff168173ffffffffffffffffffffffffffffffffffffffff161415611455576040517f08c379a000000000000000000000000000000000000000000000000000000000815260040161144c9061390f565b60405180910390fd5b61145e81611b90565b50565b60007f01ffc9a7000000000000000000000000000000000000000000000000000000007bffffffffffffffffffffffffffffffffffffffffffffffffffffffff1916827bffffffffffffffffffffffffffffffffffffffffffffffffffffffff1916149050919050565b60008073ffffffffffffffffffffffffffffffffffffffff166067600084815260200190815260200160002060009054906101000a900473ffffffffffffffffffffffffffffffffffffffff1673ffffffffffffffffffffffffffffffffffffffff1614159050919050565b600033905090565b816069600083815260200190815260200160002060006101000a81548173ffffffffffffffffffffffffffffffffffffffff021916908373ffffffffffffffffffffffffffffffffffffffff160217905550808273ffffffffffffffffffffffffffffffffffffffff166115b283610c59565b73ffffffffffffffffffffffffffffffffffffffff167f8c5be1e5ebec7d5bd14f71427d1e84f3dd0314c0f7b2291e5b200ac8c7c3b92560405160405180910390a45050565b6000611603826114cb565b611642576040517f08c379a000000000000000000000000000000000000000000000000000000000815260040161163990613a0f565b60405180910390fd5b600061164d83610c59565b90508073ffffffffffffffffffffffffffffffffffffffff168473ffffffffffffffffffffffffffffffffffffffff16148061168f575061168e81856112d5565b5b806116cd57508373ffffffffffffffffffffffffffffffffffffffff166116b584610697565b73ffffffffffffffffffffffffffffffffffffffff16145b91505092915050565b8273ffffffffffffffffffffffffffffffffffffffff166116f682610c59565b73ffffffffffffffffffffffffffffffffffffffff161461174c576040517f08c379a00000000000000000000000000000000000000000000000000000000081526004016117439061392f565b60405180910390fd5b600073ffffffffffffffffffffffffffffffffffffffff168273ffffffffffffffffffffffffffffffffffffffff1614156117bc576040517f08c379a00000000000000000000000000000000000000000000000000000000081526004016117b39061398f565b60405180910390fd5b6117c783838361226f565b6117d260008261153f565b6001606860008573ffffffffffffffffffffffffffffffffffffffff1673ffffffffffffffffffffffffffffffffffffffff16815260200190815260200160002060008282546118229190613e26565b925050819055506001606860008473ffffffffffffffffffffffffffffffffffffffff1673ffffffffffffffffffffffffffffffffffffffff16815260200190815260200160002060008282546118799190613d9f565b92505081905550816067600083815260200190815260200160002060006101000a81548173ffffffffffffffffffffffffffffffffffffffff021916908373ffffffffffffffffffffffffffffffffffffffff160217905550808273ffffffffffffffffffffffffffffffffffffffff168473ffffffffffffffffffffffffffffffffffffffff167fddf252ad1be2c89b69c2b068fc378daa952ba7f163c4a11628f55a4df523b3ef60405160405180910390a46119388383836123e4565b505050565b600061196b7f360894a13ba1a3210667c828492db98dca3e2076cc3735a920a3ca505d382bbc60001b6123e9565b60000160009054906101000a900473ffffffffffffffffffffffffffffffffffffffff16905090565b61199c611537565b73ffffffffffffffffffffffffffffffffffffffff166119ba611050565b73ffffffffffffffffffffffffffffffffffffffff1614611a10576040517f08c379a0000000000000000000000000000000000000000000000000000000008152600401611a0790613bef565b60405180910390fd5b50565b611a3f7f4910fdfa16fed3260ed0e7147f7cc6da11a60208b5b9406d12a635614ffd914360001b6123f3565b60000160009054906101000a900460ff1615611a6357611a5e836123fd565b611b8b565b8273ffffffffffffffffffffffffffffffffffffffff166352d1902d6040518163ffffffff1660e01b815260040160206040518083038186803b158015611aa957600080fd5b505afa925050508015611ada57506040513d601f19601f82011682018060405250810190611ad791906131fd565b60015b611b19576040517f08c379a0000000000000000000000000000000000000000000000000000000008152600401611b1090613b6f565b60405180910390fd5b7f360894a13ba1a3210667c828492db98dca3e2076cc3735a920a3ca505d382bbc60001b8114611b7e576040517f08c379a0000000000000000000000000000000000000000000000000000000008152600401611b7590613aef565b60405180910390fd5b50611b8a8383836124b6565b5b505050565b600060c960009054906101000a900473ffffffffffffffffffffffffffffffffffffffff1690508160c960006101000a81548173ffffffffffffffffffffffffffffffffffffffff021916908373ffffffffffffffffffffffffffffffffffffffff1602179055508173ffffffffffffffffffffffffffffffffffffffff168173ffffffffffffffffffffffffffffffffffffffff167f8be0079c531659141344cd1fd0a4f28419497f9722a3daafe3b4186f6b6457e060405160405180910390a35050565b60008060019054906101000a900460ff1615611ccd5760018260ff16148015611c855750611c83306124e2565b155b611cc4576040517f08c379a0000000000000000000000000000000000000000000000000000000008152600401611cbb90613b0f565b60405180910390fd5b60009050611d41565b8160ff1660008054906101000a900460ff1660ff1610611d22576040517f08c379a0000000000000000000000000000000000000000000000000000000008152600401611d1990613b0f565b60405180910390fd5b816000806101000a81548160ff021916908360ff160217905550600190505b919050565b600060019054906101000a900460ff16611d95576040517f08c379a0000000000000000000000000000000000000000000000000000000008152600401611d8c90613c8f565b60405180910390fd5b611d9f8282612505565b5050565b600060019054906101000a900460ff16611df2576040517f08c379a0000000000000000000000000000000000000000000000000000000008152600401611de990613c8f565b60405180910390fd5b565b600060019054906101000a900460ff16611e43576040517f08c379a0000000000000000000000000000000000000000000000000000000008152600401611e3a90613c8f565b60405180910390fd5b611e4b612586565b565b600060019054906101000a900460ff16611e9c576040517f08c379a0000000000000000000000000000000000000000000000000000000008152600401611e9390613c8f565b60405180910390fd5b565b8173ffffffffffffffffffffffffffffffffffffffff168373ffffffffffffffffffffffffffffffffffffffff161415611f0d576040517f08c379a0000000000000000000000000000000000000000000000000000000008152600401611f04906139af565b60405180910390fd5b80606a60008573ffffffffffffffffffffffffffffffffffffffff1673ffffffffffffffffffffffffffffffffffffffff16815260200190815260200160002060008473ffffffffffffffffffffffffffffffffffffffff1673ffffffffffffffffffffffffffffffffffffffff16815260200190815260200160002060006101000a81548160ff0219169083151502179055508173ffffffffffffffffffffffffffffffffffffffff168373ffffffffffffffffffffffffffffffffffffffff167f17307eab39ab6107e8899845ad3d59bd9653f200f220920489ca2b5937696c3183604051611ffe919061387c565b60405180910390a3505050565b6120168484846116d6565b612022848484846125e7565b612061576040517f08c379a0000000000000000000000000000000000000000000000000000000008152600401612058906138ef565b60405180910390fd5b50505050565b6060612072826114cb565b6120b1576040517f08c379a00000000000000000000000000000000000000000000000000000000081526004016120a890613b8f565b60405180910390fd5b60006097600084815260200190815260200160002080546120d190613f39565b80601f01602080910402602001604051908101604052809291908181526020018280546120fd90613f39565b801561214a5780601f1061211f5761010080835404028352916020019161214a565b820191906000526020600020905b81548152906001019060200180831161212d57829003601f168201915b50505050509050600061215b61277e565b90506000815114156121715781925050506121b4565b6000825111156121a657808260405160200161218e9291906137f1565b604051602081830303815290604052925050506121b4565b6121af84612795565b925050505b919050565b6001816000016000828254019250508190555050565b600081600001549050919050565b6121f782826040518060200160405280600081525061283c565b5050565b612204826114cb565b612243576040517f08c379a000000000000000000000000000000000000000000000000000000000815260040161223a90613acf565b60405180910390fd5b8060976000848152602001908152602001600020908051906020019061226a929190612dbd565b505050565b61227a838383612897565b600073ffffffffffffffffffffffffffffffffffffffff168373ffffffffffffffffffffffffffffffffffffffff16141580156122e45750600073ffffffffffffffffffffffffffffffffffffffff168273ffffffffffffffffffffffffffffffffffffffff1614155b156123df5760006122f483610df8565b14612334576040517f08c379a000000000000000000000000000000000000000000000000000000000815260040161232b90613b2f565b60405180910390fd5b8061015f60008473ffffffffffffffffffffffffffffffffffffffff1673ffffffffffffffffffffffffffffffffffffffff168152602001908152602001600020819055507fffffffffffffffffffffffffffffffffffffffffffffffffffffffffffffffff61015f60008573ffffffffffffffffffffffffffffffffffffffff1673ffffffffffffffffffffffffffffffffffffffff168152602001908152602001600020819055505b505050565b505050565b6000819050919050565b6000819050919050565b612406816124e2565b612445576040517f08c379a000000000000000000000000000000000000000000000000000000000815260040161243c90613bcf565b60405180910390fd5b806124727f360894a13ba1a3210667c828492db98dca3e2076cc3735a920a3ca505d382bbc60001b6123e9565b60000160006101000a81548173ffffffffffffffffffffffffffffffffffffffff021916908373ffffffffffffffffffffffffffffffffffffffff16021790555050565b6124bf8361289c565b6000825111806124cc5750805b156124dd576124db83836128eb565b505b505050565b6000808273ffffffffffffffffffffffffffffffffffffffff163b119050919050565b600060019054906101000a900460ff16612554576040517f08c379a000000000000000000000000000000000000000000000000000000000815260040161254b90613c8f565b60405180910390fd5b816065908051906020019061256a929190612dbd565b508060669080519060200190612581929190612dbd565b505050565b600060019054906101000a900460ff166125d5576040517f08c379a00000000000000000000000000000000000000000000000000000000081526004016125cc90613c8f565b60405180910390fd5b6125e56125e0611537565b611b90565b565b60006126088473ffffffffffffffffffffffffffffffffffffffff166124e2565b15612771578373ffffffffffffffffffffffffffffffffffffffff1663150b7a02612631611537565b8786866040518563ffffffff1660e01b81526004016126539493929190613830565b602060405180830381600087803b15801561266d57600080fd5b505af192505050801561269e57506040513d601f19601f8201168201806040525081019061269b919061324f565b60015b612721573d80600081146126ce576040519150601f19603f3d011682016040523d82523d6000602084013e6126d3565b606091505b50600081511415612719576040517f08c379a0000000000000000000000000000000000000000000000000000000008152600401612710906138ef565b60405180910390fd5b805181602001fd5b63150b7a0260e01b7bffffffffffffffffffffffffffffffffffffffffffffffffffffffff1916817bffffffffffffffffffffffffffffffffffffffffffffffffffffffff191614915050612776565b600190505b949350505050565b606060405180602001604052806000815250905090565b60606127a0826114cb565b6127df576040517f08c379a00000000000000000000000000000000000000000000000000000000081526004016127d690613c0f565b60405180910390fd5b60006127e961277e565b905060008151116128095760405180602001604052806000815250612834565b80612813846129cf565b6040516020016128249291906137f1565b6040516020818303038152906040525b915050919050565b6128468383612b7c565b61285360008484846125e7565b612892576040517f08c379a0000000000000000000000000000000000000000000000000000000008152600401612889906138ef565b60405180910390fd5b505050565b505050565b6128a5816123fd565b8073ffffffffffffffffffffffffffffffffffffffff167fbc7cd75a20ee27fd9adebab32041f755214dbc6bffa90cc0225b39da2e5c2d3b60405160405180910390a250565b60606128f6836124e2565b612935576040517f08c379a000000000000000000000000000000000000000000000000000000000815260040161292c90613c4f565b60405180910390fd5b6000808473ffffffffffffffffffffffffffffffffffffffff168460405161295d91906137da565b600060405180830381855af49150503d8060008114612998576040519150601f19603f3d011682016040523d82523d6000602084013e61299d565b606091505b50915091506129c5828260405180606001604052806027815260200161498f60279139612d56565b9250505092915050565b60606000821415612a17576040518060400160405280600181526020017f30000000000000000000000000000000000000000000000000000000000000008152509050612b77565b600082905060005b60008214612a49578080612a3290613f9c565b915050600a82612a429190613df5565b9150612a1f565b60008167ffffffffffffffff811115612a8b577f4e487b7100000000000000000000000000000000000000000000000000000000600052604160045260246000fd5b6040519080825280601f01601f191660200182016040528015612abd5781602001600182028036833780820191505090505b5090505b60008514612b7057600182612ad69190613e26565b9150600a85612ae59190613fe5565b6030612af19190613d9f565b60f81b818381518110612b2d577f4e487b7100000000000000000000000000000000000000000000000000000000600052603260045260246000fd5b60200101907effffffffffffffffffffffffffffffffffffffffffffffffffffffffffffff1916908160001a905350600a85612b699190613df5565b9450612ac1565b8093505050505b919050565b600073ffffffffffffffffffffffffffffffffffffffff168273ffffffffffffffffffffffffffffffffffffffff161415612bec576040517f08c379a0000000000000000000000000000000000000000000000000000000008152600401612be390613b4f565b60405180910390fd5b612bf5816114cb565b15612c35576040517f08c379a0000000000000000000000000000000000000000000000000000000008152600401612c2c9061394f565b60405180910390fd5b612c416000838361226f565b6001606860008473ffffffffffffffffffffffffffffffffffffffff1673ffffffffffffffffffffffffffffffffffffffff1681526020019081526020016000206000828254612c919190613d9f565b92505081905550816067600083815260200190815260200160002060006101000a81548173ffffffffffffffffffffffffffffffffffffffff021916908373ffffffffffffffffffffffffffffffffffffffff160217905550808273ffffffffffffffffffffffffffffffffffffffff16600073ffffffffffffffffffffffffffffffffffffffff167fddf252ad1be2c89b69c2b068fc378daa952ba7f163c4a11628f55a4df523b3ef60405160405180910390a4612d52600083836123e4565b5050565b60608315612d6657829050612db6565b600083511115612d795782518084602001fd5b816040517f08c379a0000000000000000000000000000000000000000000000000000000008152600401612dad91906138cd565b60405180910390fd5b9392505050565b828054612dc990613f39565b90600052602060002090601f016020900481019282612deb5760008555612e32565b82601f10612e0457805160ff1916838001178555612e32565b82800160010185558215612e32579182015b82811115612e31578251825591602001919060010190612e16565b5b509050612e3f9190612e43565b5090565b5b80821115612e5c576000816000905550600101612e44565b5090565b6000612e73612e6e84613cef565b613cca565b905082815260208101848484011115612e8b57600080fd5b612e96848285613ef7565b509392505050565b6000612eb1612eac84613d20565b613cca565b905082815260208101848484011115612ec957600080fd5b612ed4848285613ef7565b509392505050565b600081359050612eeb8161491b565b92915050565b600081359050612f0081614932565b92915050565b600081519050612f1581614949565b92915050565b600081359050612f2a81614960565b92915050565b600081519050612f3f81614960565b92915050565b600082601f830112612f5657600080fd5b8135612f66848260208601612e60565b91505092915050565b600082601f830112612f8057600080fd5b8135612f90848260208601612e9e565b91505092915050565b600081359050612fa881614977565b92915050565b600060208284031215612fc057600080fd5b6000612fce84828501612edc565b91505092915050565b60008060408385031215612fea57600080fd5b6000612ff885828601612edc565b925050602061300985828601612edc565b9150509250929050565b60008060006060848603121561302857600080fd5b600061303686828701612edc565b935050602061304786828701612edc565b925050604061305886828701612f99565b9150509250925092565b6000806000806080858703121561307857600080fd5b600061308687828801612edc565b945050602061309787828801612edc565b93505060406130a887828801612f99565b925050606085013567ffffffffffffffff8111156130c557600080fd5b6130d187828801612f45565b91505092959194509250565b600080604083850312156130f057600080fd5b60006130fe85828601612edc565b925050602061310f85828601612ef1565b9150509250929050565b6000806040838503121561312c57600080fd5b600061313a85828601612edc565b925050602083013567ffffffffffffffff81111561315757600080fd5b61316385828601612f45565b9150509250929050565b6000806040838503121561318057600080fd5b600061318e85828601612edc565b925050602083013567ffffffffffffffff8111156131ab57600080fd5b6131b785828601612f6f565b9150509250929050565b600080604083850312156131d457600080fd5b60006131e285828601612edc565b92505060206131f385828601612f99565b9150509250929050565b60006020828403121561320f57600080fd5b600061321d84828501612f06565b91505092915050565b60006020828403121561323857600080fd5b600061324684828501612f1b565b91505092915050565b60006020828403121561326157600080fd5b600061326f84828501612f30565b91505092915050565b60006020828403121561328a57600080fd5b600061329884828501612f99565b91505092915050565b6132aa81613e5a565b82525050565b6132b981613e6c565b82525050565b6132c881613e78565b82525050565b60006132d982613d51565b6132e38185613d67565b93506132f3818560208601613f06565b6132fc816140d2565b840191505092915050565b600061331282613d51565b61331c8185613d78565b935061332c818560208601613f06565b80840191505092915050565b61334181613ee5565b82525050565b600061335282613d5c565b61335c8185613d83565b935061336c818560208601613f06565b613375816140d2565b840191505092915050565b600061338b82613d5c565b6133958185613d94565b93506133a5818560208601613f06565b80840191505092915050565b60006133be603283613d83565b91506133c9826140e3565b604082019050919050565b60006133e1602683613d83565b91506133ec82614132565b604082019050919050565b6000613404602583613d83565b915061340f82614181565b604082019050919050565b6000613427601c83613d83565b9150613432826141d0565b602082019050919050565b600061344a602c83613d83565b9150613455826141f9565b604082019050919050565b600061346d602483613d83565b915061347882614248565b604082019050919050565b6000613490601983613d83565b915061349b82614297565b602082019050919050565b60006134b3601d83613d83565b91506134be826142c0565b602082019050919050565b60006134d6602c83613d83565b91506134e1826142e9565b604082019050919050565b60006134f9602c83613d83565b915061350482614338565b604082019050919050565b600061351c600f83613d83565b915061352782614387565b602082019050919050565b600061353f603883613d83565b915061354a826143b0565b604082019050919050565b6000613562603883613d83565b915061356d826143ff565b604082019050919050565b6000613585602a83613d83565b91506135908261444e565b604082019050919050565b60006135a8602983613d83565b91506135b38261449d565b604082019050919050565b60006135cb602e83613d83565b91506135d6826144ec565b604082019050919050565b60006135ee602983613d83565b91506135f98261453b565b604082019050919050565b6000613611602e83613d83565b915061361c8261458a565b604082019050919050565b6000613634601b83613d83565b915061363f826145d9565b602082019050919050565b6000613657602083613d83565b915061366282614602565b602082019050919050565b600061367a602e83613d83565b91506136858261462b565b604082019050919050565b600061369d603183613d83565b91506136a88261467a565b604082019050919050565b60006136c0602c83613d83565b91506136cb826146c9565b604082019050919050565b60006136e3602d83613d83565b91506136ee82614718565b604082019050919050565b6000613706602083613d83565b915061371182614767565b602082019050919050565b6000613729602f83613d83565b915061373482614790565b604082019050919050565b600061374c602183613d83565b9150613757826147df565b604082019050919050565b600061376f602683613d83565b915061377a8261482e565b604082019050919050565b6000613792603183613d83565b915061379d8261487d565b604082019050919050565b60006137b5602b83613d83565b91506137c0826148cc565b604082019050919050565b6137d481613ece565b82525050565b60006137e68284613307565b915081905092915050565b60006137fd8285613380565b91506138098284613380565b91508190509392505050565b600060208201905061382a60008301846132a1565b92915050565b600060808201905061384560008301876132a1565b61385260208301866132a1565b61385f60408301856137cb565b818103606083015261387181846132ce565b905095945050505050565b600060208201905061389160008301846132b0565b92915050565b60006020820190506138ac60008301846132bf565b92915050565b60006020820190506138c76000830184613338565b92915050565b600060208201905081810360008301526138e78184613347565b905092915050565b60006020820190508181036000830152613908816133b1565b9050919050565b60006020820190508181036000830152613928816133d4565b9050919050565b60006020820190508181036000830152613948816133f7565b9050919050565b600060208201905081810360008301526139688161341a565b9050919050565b600060208201905081810360008301526139888161343d565b9050919050565b600060208201905081810360008301526139a881613460565b9050919050565b600060208201905081810360008301526139c881613483565b9050919050565b600060208201905081810360008301526139e8816134a6565b9050919050565b60006020820190508181036000830152613a08816134c9565b9050919050565b60006020820190508181036000830152613a28816134ec565b9050919050565b60006020820190508181036000830152613a488161350f565b9050919050565b60006020820190508181036000830152613a6881613532565b9050919050565b60006020820190508181036000830152613a8881613555565b9050919050565b60006020820190508181036000830152613aa881613578565b9050919050565b60006020820190508181036000830152613ac88161359b565b9050919050565b60006020820190508181036000830152613ae8816135be565b9050919050565b60006020820190508181036000830152613b08816135e1565b9050919050565b60006020820190508181036000830152613b2881613604565b9050919050565b60006020820190508181036000830152613b4881613627565b9050919050565b60006020820190508181036000830152613b688161364a565b9050919050565b60006020820190508181036000830152613b888161366d565b9050919050565b60006020820190508181036000830152613ba881613690565b9050919050565b60006020820190508181036000830152613bc8816136b3565b9050919050565b60006020820190508181036000830152613be8816136d6565b9050919050565b60006020820190508181036000830152613c08816136f9565b9050919050565b60006020820190508181036000830152613c288161371c565b9050919050565b60006020820190508181036000830152613c488161373f565b9050919050565b60006020820190508181036000830152613c6881613762565b9050919050565b60006020820190508181036000830152613c8881613785565b9050919050565b60006020820190508181036000830152613ca8816137a8565b9050919050565b6000602082019050613cc460008301846137cb565b92915050565b6000613cd4613ce5565b9050613ce08282613f6b565b919050565b6000604051905090565b600067ffffffffffffffff821115613d0a57613d096140a3565b5b613d13826140d2565b9050602081019050919050565b600067ffffffffffffffff821115613d3b57613d3a6140a3565b5b613d44826140d2565b9050602081019050919050565b600081519050919050565b600081519050919050565b600082825260208201905092915050565b600081905092915050565b600082825260208201905092915050565b600081905092915050565b6000613daa82613ece565b9150613db583613ece565b9250827fffffffffffffffffffffffffffffffffffffffffffffffffffffffffffffffff03821115613dea57613de9614016565b5b828201905092915050565b6000613e0082613ece565b9150613e0b83613ece565b925082613e1b57613e1a614045565b5b828204905092915050565b6000613e3182613ece565b9150613e3c83613ece565b925082821015613e4f57613e4e614016565b5b828203905092915050565b6000613e6582613eae565b9050919050565b60008115159050919050565b6000819050919050565b60007fffffffff0000000000000000000000000000000000000000000000000000000082169050919050565b600073ffffffffffffffffffffffffffffffffffffffff82169050919050565b6000819050919050565b600060ff82169050919050565b6000613ef082613ed8565b9050919050565b82818337600083830152505050565b60005b83811015613f24578082015181840152602081019050613f09565b83811115613f33576000848401525b50505050565b60006002820490506001821680613f5157607f821691505b60208210811415613f6557613f64614074565b5b50919050565b613f74826140d2565b810181811067ffffffffffffffff82111715613f9357613f926140a3565b5b80604052505050565b6000613fa782613ece565b91507fffffffffffffffffffffffffffffffffffffffffffffffffffffffffffffffff821415613fda57613fd9614016565b5b600182019050919050565b6000613ff082613ece565b9150613ffb83613ece565b92508261400b5761400a614045565b5b828206905092915050565b7f4e487b7100000000000000000000000000000000000000000000000000000000600052601160045260246000fd5b7f4e487b7100000000000000000000000000000000000000000000000000000000600052601260045260246000fd5b7f4e487b7100000000000000000000000000000000000000000000000000000000600052602260045260246000fd5b7f4e487b7100000000000000000000000000000000000000000000000000000000600052604160045260246000fd5b6000601f19601f8301169050919050565b7f4552433732313a207472616e7366657220746f206e6f6e20455243373231526560008201527f63656976657220696d706c656d656e7465720000000000000000000000000000602082015250565b7f4f776e61626c653a206e6577206f776e657220697320746865207a65726f206160008201527f6464726573730000000000000000000000000000000000000000000000000000602082015250565b7f4552433732313a207472616e736665722066726f6d20696e636f72726563742060008201527f6f776e6572000000000000000000000000000000000000000000000000000000602082015250565b7f4552433732313a20746f6b656e20616c7265616479206d696e74656400000000600082015250565b7f46756e6374696f6e206d7573742062652063616c6c6564207468726f7567682060008201527f64656c656761746563616c6c0000000000000000000000000000000000000000602082015250565b7f4552433732313a207472616e7366657220746f20746865207a65726f2061646460008201527f7265737300000000000000000000000000000000000000000000000000000000602082015250565b7f4552433732313a20617070726f766520746f2063616c6c657200000000000000600082015250565b7f4163636f756e7420616c72656164792068617320612070726f66696c65000000600082015250565b7f46756e6374696f6e206d7573742062652063616c6c6564207468726f7567682060008201527f6163746976652070726f78790000000000000000000000000000000000000000602082015250565b7f4552433732313a206f70657261746f7220717565727920666f72206e6f6e657860008201527f697374656e7420746f6b656e0000000000000000000000000000000000000000602082015250565b7f746f6b656e2052656e6f756e6365640000000000000000000000000000000000600082015250565b7f555550535570677261646561626c653a206d757374206e6f742062652063616c60008201527f6c6564207468726f7567682064656c656761746563616c6c0000000000000000602082015250565b7f4552433732313a20617070726f76652063616c6c6572206973206e6f74206f7760008201527f6e6572206e6f7220617070726f76656420666f7220616c6c0000000000000000602082015250565b7f4552433732313a2062616c616e636520717565727920666f7220746865207a6560008201527f726f206164647265737300000000000000000000000000000000000000000000602082015250565b7f4552433732313a206f776e657220717565727920666f72206e6f6e657869737460008201527f656e7420746f6b656e0000000000000000000000000000000000000000000000602082015250565b7f45524337323155524953746f726167653a2055524920736574206f66206e6f6e60008201527f6578697374656e7420746f6b656e000000000000000000000000000000000000602082015250565b7f45524331393637557067726164653a20756e737570706f727465642070726f7860008201527f6961626c65555549440000000000000000000000000000000000000000000000602082015250565b7f496e697469616c697a61626c653a20636f6e747261637420697320616c72656160008201527f647920696e697469616c697a6564000000000000000000000000000000000000602082015250565b7f4163636f756e7420616c726561647920686173206120746f6b656e0000000000600082015250565b7f4552433732313a206d696e7420746f20746865207a65726f2061646472657373600082015250565b7f45524331393637557067726164653a206e657720696d706c656d656e7461746960008201527f6f6e206973206e6f742055555053000000000000000000000000000000000000602082015250565b7f45524337323155524953746f726167653a2055524920717565727920666f722060008201527f6e6f6e6578697374656e7420746f6b656e000000000000000000000000000000602082015250565b7f4552433732313a20617070726f76656420717565727920666f72206e6f6e657860008201527f697374656e7420746f6b656e0000000000000000000000000000000000000000602082015250565b7f455243313936373a206e657720696d706c656d656e746174696f6e206973206e60008201527f6f74206120636f6e747261637400000000000000000000000000000000000000602082015250565b7f4f776e61626c653a2063616c6c6572206973206e6f7420746865206f776e6572600082015250565b7f4552433732314d657461646174613a2055524920717565727920666f72206e6f60008201527f6e6578697374656e7420746f6b656e0000000000000000000000000000000000602082015250565b7f4552433732313a20617070726f76616c20746f2063757272656e74206f776e6560008201527f7200000000000000000000000000000000000000000000000000000000000000602082015250565b7f416464726573733a2064656c65676174652063616c6c20746f206e6f6e2d636f60008201527f6e74726163740000000000000000000000000000000000000000000000000000602082015250565b7f4552433732313a207472616e736665722063616c6c6572206973206e6f74206f60008201527f776e6572206e6f7220617070726f766564000000000000000000000000000000602082015250565b7f496e697469616c697a61626c653a20636f6e7472616374206973206e6f74206960008201527f6e697469616c697a696e67000000000000000000000000000000000000000000602082015250565b61492481613e5a565b811461492f57600080fd5b50565b61493b81613e6c565b811461494657600080fd5b50565b61495281613e78565b811461495d57600080fd5b50565b61496981613e82565b811461497457600080fd5b50565b61498081613ece565b811461498b57600080fd5b5056fe416464726573733a206c6f772d6c6576656c2064656c65676174652063616c6c206661696c6564a26469706673582212209d13256b91fecc5e3635559474429d5422c49ac2a2b7279d188df86dc03d145a64736f6c63430008040033",
  "linkReferences": {},
  "deployedLinkReferences": {}
}