{
  "_format": "hh-sol-artifact-1",
  "contractName": "Billing",
  "sourceName": "contracts/billing/Billing.sol",
  "abi": [
    {
      "anonymous": false,
      "inputs": [
        {
          "indexed": false,
          "internalType": "address",
          "name": "previousAdmin",
          "type": "address"
        },
        {
          "indexed": false,
          "internalType": "address",
          "name": "newAdmin",
          "type": "address"
        }
      ],
      "name": "AdminChanged",
      "type": "event"
    },
    {
      "anonymous": false,
      "inputs": [
        {
          "indexed": true,
          "internalType": "address",
          "name": "beacon",
          "type": "address"
        }
      ],
      "name": "BeaconUpgraded",
      "type": "event"
    },
    {
      "anonymous": false,
      "inputs": [
        {
          "indexed": true,
          "internalType": "address",
          "name": "account",
          "type": "address"
        },
        {
          "indexed": true,
          "internalType": "uint256",
          "name": "subscriptionID",
          "type": "uint256"
        }
      ],
      "name": "CancelSubscription",
      "type": "event"
    },
    {
      "anonymous": false,
      "inputs": [
        {
          "indexed": true,
          "internalType": "address",
          "name": "account",
          "type": "address"
        },
        {
          "indexed": true,
          "internalType": "uint96",
          "name": "subscriptionID",
          "type": "uint96"
        },
        {
          "indexed": true,
          "internalType": "uint32",
          "name": "increase",
          "type": "uint32"
        }
      ],
      "name": "IncreaseBlockNumber",
      "type": "event"
    },
    {
      "anonymous": false,
      "inputs": [
        {
          "indexed": false,
          "internalType": "uint8",
          "name": "version",
          "type": "uint8"
        }
      ],
      "name": "Initialized",
      "type": "event"
    },
    {
      "anonymous": false,
      "inputs": [
        {
          "indexed": true,
          "internalType": "address",
          "name": "previousOwner",
          "type": "address"
        },
        {
          "indexed": true,
          "internalType": "address",
          "name": "newOwner",
          "type": "address"
        }
      ],
      "name": "OwnershipTransferred",
      "type": "event"
    },
    {
      "anonymous": false,
      "inputs": [
        {
          "indexed": true,
          "internalType": "address",
          "name": "account",
          "type": "address"
        },
        {
          "indexed": true,
          "internalType": "uint256",
          "name": "subscriptionID",
          "type": "uint256"
        },
        {
          "indexed": true,
          "internalType": "address",
          "name": "tokenAddress",
          "type": "address"
        }
      ],
      "name": "Purchase",
      "type": "event"
    },
    {
      "anonymous": false,
      "inputs": [
        {
          "indexed": true,
          "internalType": "address",
          "name": "from",
          "type": "address"
        },
        {
          "indexed": true,
          "internalType": "address",
          "name": "tokenAddress",
          "type": "address"
        },
        {
          "indexed": false,
          "internalType": "uint64",
          "name": "rate",
          "type": "uint64"
        },
        {
          "indexed": true,
          "internalType": "bool",
          "name": "isActive",
          "type": "bool"
        }
      ],
      "name": "StableCoinStatus",
      "type": "event"
    },
    {
      "anonymous": false,
      "inputs": [
        {
          "indexed": true,
          "internalType": "address",
          "name": "account",
          "type": "address"
        },
        {
          "indexed": false,
          "internalType": "bool",
          "name": "active",
          "type": "bool"
        },
        {
          "indexed": true,
          "internalType": "uint64",
          "name": "subscriptionID",
          "type": "uint64"
        }
      ],
      "name": "SubscriptionStatus",
      "type": "event"
    },
    {
      "anonymous": false,
      "inputs": [
        {
          "indexed": true,
          "internalType": "address",
          "name": "updateBy",
          "type": "address"
        },
        {
          "indexed": true,
          "internalType": "address",
          "name": "subscriptionID",
          "type": "address"
        }
      ],
      "name": "UpdateContract",
      "type": "event"
    },
    {
      "anonymous": false,
      "inputs": [
        {
          "indexed": true,
          "internalType": "address",
          "name": "implementation",
          "type": "address"
        }
      ],
      "name": "Upgraded",
      "type": "event"
    },
    {
      "anonymous": false,
      "inputs": [
        {
          "indexed": true,
          "internalType": "address",
          "name": "account",
          "type": "address"
        },
        {
          "indexed": true,
          "internalType": "address",
          "name": "tokenAddress",
          "type": "address"
        },
        {
          "indexed": true,
          "internalType": "uint256",
          "name": "amount",
          "type": "uint256"
        }
      ],
      "name": "withdrawApproval",
      "type": "event"
    },
    {
      "inputs": [
        {
          "internalType": "address",
          "name": "account",
          "type": "address"
        }
      ],
      "name": "_isSubscriptionActive",
      "outputs": [
        {
          "internalType": "bool",
          "name": "",
          "type": "bool"
        },
        {
          "internalType": "uint64",
          "name": "",
          "type": "uint64"
        }
      ],
      "stateMutability": "nonpayable",
      "type": "function"
    },
    {
      "inputs": [
        {
          "internalType": "uint64",
          "name": "systemDefinedSubscriptionId",
          "type": "uint64"
        },
        {
          "internalType": "address",
          "name": "tokenAddress",
          "type": "address"
        }
      ],
      "name": "activateSubscription",
      "outputs": [
        {
          "internalType": "bool",
          "name": "",
          "type": "bool"
        }
      ],
      "stateMutability": "nonpayable",
      "type": "function"
    },
    {
      "inputs": [
        {
          "internalType": "address",
          "name": "tokenAddress",
          "type": "address"
        },
        {
          "components": [
            {
              "internalType": "uint64",
              "name": "rate",
              "type": "uint64"
            },
            {
              "internalType": "bool",
              "name": "isActive",
              "type": "bool"
            }
          ],
          "internalType": "struct IBilling.StableCoinState",
          "name": "_stableCoin",
          "type": "tuple"
        }
      ],
      "name": "addStableCoin",
      "outputs": [],
      "stateMutability": "nonpayable",
      "type": "function"
    },
    {
      "inputs": [],
      "name": "cancelSubscription",
      "outputs": [],
      "stateMutability": "nonpayable",
      "type": "function"
    },
    {
      "inputs": [
        {
          "internalType": "uint64",
          "name": "subID",
          "type": "uint64"
        }
      ],
      "name": "cancelSystemSubscription",
      "outputs": [],
      "stateMutability": "nonpayable",
      "type": "function"
    },
    {
      "inputs": [
        {
          "internalType": "address",
          "name": "_asset",
          "type": "address"
        },
        {
          "internalType": "address",
          "name": "_to",
          "type": "address"
        },
        {
          "internalType": "uint256",
          "name": "_amount",
          "type": "uint256"
        }
      ],
      "name": "claim",
      "outputs": [],
      "stateMutability": "nonpayable",
      "type": "function"
    },
    {
      "inputs": [
        {
          "internalType": "address",
          "name": "_to",
          "type": "address"
        },
        {
          "internalType": "uint256",
          "name": "_amount",
          "type": "uint256"
        }
      ],
      "name": "claimEth",
      "outputs": [],
      "stateMutability": "nonpayable",
      "type": "function"
    },
    {
      "inputs": [
        {
          "internalType": "uint256",
          "name": "",
          "type": "uint256"
        }
      ],
      "name": "contractSubscriptions",
      "outputs": [
        {
          "internalType": "uint32",
          "name": "frequencyOfDeduction",
          "type": "uint32"
        },
        {
          "internalType": "uint32",
          "name": "deductionIN",
          "type": "uint32"
        },
        {
          "internalType": "uint128",
          "name": "amount",
          "type": "uint128"
        },
        {
          "internalType": "bool",
          "name": "isActive",
          "type": "bool"
        },
        {
          "internalType": "bytes7",
          "name": "code",
          "type": "bytes7"
        }
      ],
      "stateMutability": "view",
      "type": "function"
    },
    {
      "inputs": [
        {
          "components": [
            {
              "internalType": "uint32",
              "name": "frequencyOfDeduction",
              "type": "uint32"
            },
            {
              "internalType": "uint32",
              "name": "deductionIN",
              "type": "uint32"
            },
            {
              "internalType": "uint128",
              "name": "amount",
              "type": "uint128"
            },
            {
              "internalType": "bool",
              "name": "isActive",
              "type": "bool"
            },
            {
              "internalType": "bytes7",
              "name": "code",
              "type": "bytes7"
            }
          ],
          "internalType": "struct IBilling.SystemDefinedSubscription",
          "name": "_sub",
          "type": "tuple"
        }
      ],
      "name": "createSystemSubscription",
      "outputs": [
        {
          "internalType": "uint64",
          "name": "",
          "type": "uint64"
        }
      ],
      "stateMutability": "nonpayable",
      "type": "function"
    },
    {
      "inputs": [
        {
          "internalType": "address",
          "name": "tokenAddress",
          "type": "address"
        },
        {
          "internalType": "uint64",
          "name": "subscriptionID",
          "type": "uint64"
        }
      ],
      "name": "getAmountToBeDeducted",
      "outputs": [
        {
          "internalType": "uint256",
          "name": "",
          "type": "uint256"
        }
      ],
      "stateMutability": "view",
      "type": "function"
    },
    {
      "inputs": [
        {
          "internalType": "uint96",
          "name": "subscriptionId",
          "type": "uint96"
        },
        {
          "internalType": "uint32",
          "name": "increase",
          "type": "uint32"
        }
      ],
      "name": "increaseBlockNumber",
      "outputs": [],
      "stateMutability": "nonpayable",
      "type": "function"
    },
    {
      "inputs": [],
      "name": "initialize",
      "outputs": [],
      "stateMutability": "nonpayable",
      "type": "function"
    },
    {
      "inputs": [
        {
          "internalType": "address",
          "name": "account",
          "type": "address"
        }
      ],
      "name": "isSubscriptionActive",
      "outputs": [],
      "stateMutability": "nonpayable",
      "type": "function"
    },
    {
      "inputs": [],
      "name": "owner",
      "outputs": [
        {
          "internalType": "address",
          "name": "",
          "type": "address"
        }
      ],
      "stateMutability": "view",
      "type": "function"
    },
    {
      "inputs": [],
      "name": "proxiableUUID",
      "outputs": [
        {
          "internalType": "bytes32",
          "name": "",
          "type": "bytes32"
        }
      ],
      "stateMutability": "view",
      "type": "function"
    },
    {
      "inputs": [],
      "name": "renounceOwnership",
      "outputs": [],
      "stateMutability": "nonpayable",
      "type": "function"
    },
    {
      "inputs": [
        {
          "internalType": "address",
          "name": "",
          "type": "address"
        }
      ],
      "name": "stableCoinStatus",
      "outputs": [
        {
          "internalType": "uint64",
          "name": "rate",
          "type": "uint64"
        },
        {
          "internalType": "bool",
          "name": "isActive",
          "type": "bool"
        }
      ],
      "stateMutability": "view",
      "type": "function"
    },
    {
      "inputs": [
        {
          "internalType": "address",
          "name": "newOwner",
          "type": "address"
        }
      ],
      "name": "transferOwnership",
      "outputs": [],
      "stateMutability": "nonpayable",
      "type": "function"
    },
    {
      "inputs": [
        {
          "internalType": "address",
          "name": "newImplementation",
          "type": "address"
        }
      ],
      "name": "upgradeTo",
      "outputs": [],
      "stateMutability": "nonpayable",
      "type": "function"
    },
    {
      "inputs": [
        {
          "internalType": "address",
          "name": "newImplementation",
          "type": "address"
        },
        {
          "internalType": "bytes",
          "name": "data",
          "type": "bytes"
        }
      ],
      "name": "upgradeToAndCall",
      "outputs": [],
      "stateMutability": "payable",
      "type": "function"
    },
    {
      "stateMutability": "payable",
      "type": "receive"
    }
  ],
  "bytecode": "0x60a06040523073ffffffffffffffffffffffffffffffffffffffff1660809073ffffffffffffffffffffffffffffffffffffffff1660601b81525034801561004657600080fd5b5060805160601c61630962000082600039600081816115fc0152818161168b01528181611b4501528181611bd40152611c8401526163096000f3fe6080604052600436106101235760003560e01c8063715018a6116100a0578063996cba6811610064578063996cba68146103c1578063e1925f0c146103ea578063e2b3b2e214610427578063ef101ee714610450578063f2fde38b146104795761012a565b8063715018a6146102e9578063758ecb96146103005780638129fc1c1461033e5780638da5cb5b146103555780639027c861146103805761012a565b80633659cfe6116100e75780633659cfe6146102135780634b2a73691461023c5780634f1ef2861461026557806352d1902d1461028157806368134ef3146102ac5761012a565b806301208f051461012f578063144013291461016c5780631626506d1461019557806324e9edb0146101d357806333377717146101ea5761012a565b3661012a57005b600080fd5b34801561013b57600080fd5b5061015660048036038101906101519190614a52565b6104a2565b60405161016391906152b5565b60405180910390f35b34801561017857600080fd5b50610193600480360381019061018e9190614857565b61064b565b005b3480156101a157600080fd5b506101bc60048036038101906101b79190614857565b610795565b6040516101ca929190614fc6565b60405180910390f35b3480156101df57600080fd5b506101e8610cbb565b005b3480156101f657600080fd5b50610211600480360381019061020c9190614923565b611211565b005b34801561021f57600080fd5b5061023a60048036038101906102359190614857565b6115fa565b005b34801561024857600080fd5b50610263600480360381019061025e9190614b5b565b6117a9565b005b61027f600480360381019061027a91906148cf565b611b43565b005b34801561028d57600080fd5b50610296611c80565b6040516102a39190614fef565b60405180910390f35b3480156102b857600080fd5b506102d360048036038101906102ce9190614af6565b611d39565b6040516102e09190614fab565b60405180910390f35b3480156102f557600080fd5b506102fe6125bd565b005b34801561030c57600080fd5b5061032760048036038101906103229190614857565b612645565b6040516103359291906152d0565b60405180910390f35b34801561034a57600080fd5b5061035361268a565b005b34801561036157600080fd5b5061036a6127a2565b6040516103779190614ede565b60405180910390f35b34801561038c57600080fd5b506103a760048036038101906103a29190614a7b565b6127cc565b6040516103b8959493929190615262565b60405180910390f35b3480156103cd57600080fd5b506103e860048036038101906103e39190614880565b612864565b005b3480156103f657600080fd5b50610411600480360381019061040c919061499b565b612bc1565b60405161041e9190615247565b60405180910390f35b34801561043357600080fd5b5061044e6004803603810190610449919061495f565b612f41565b005b34801561045c57600080fd5b5061047760048036038101906104729190614acd565b6131e6565b005b34801561048557600080fd5b506104a0600480360381019061049b9190614857565b613445565b005b60006104ac61353d565b73ffffffffffffffffffffffffffffffffffffffff166104ca6127a2565b73ffffffffffffffffffffffffffffffffffffffff1614610520576040517f08c379a0000000000000000000000000000000000000000000000000000000008152600401610517906151e7565b60405180910390fd5b61054c7f283472dbde3b28c2aa4d3697d763c19de019c58d7194e0f7a3000483800196d660001b613545565b6105787fea2bfdf18694c72cbcff50821797a57e6b4030077d788580c31fac88877573a660001b613545565b6105a47faa786efa4f7be305a13fa8642c5b96f99c4fc8f00280626670b3e0eb38fb86bb60001b613545565b60c9829080600181540180825580915050600190039060005260206000200160009091909190915081816105d891906160c3565b50506106067f9694ca8bd38c4520fd1f83ce5ae4dabb6bc266abdba5c31afa19ce5e98eb561360001b613545565b6106327f71f67c17565c3a6cfb49aec68727832cde191ea33aa4b5d11bee14a3aac3fcd060001b613545565b600160c9805490506106449190615669565b9050919050565b6106777f760c44616e3b61270b4d954532ed0e9917d995d3a76516eb2277697928af4b8360001b613545565b6106a37f39048351bd0a93012320574aa67ae5572901c94cfe762be4c7283df1a093dc1160001b613545565b6106cf7f61a6459de647acc9af9970c3082a910fc67962f8de19effcaab75c844dd76c2460001b613545565b6000806106db83610795565b9150915061070b7fc29f4b7eec127303f764fb2a0eeaaa148d1abe9cf1a3c7d96a792953565b748860001b613545565b6107377f07d68cb5575eafd23085f903763505e301765911c42faf58106f45b5aa8947a760001b613545565b8067ffffffffffffffff168373ffffffffffffffffffffffffffffffffffffffff167f73862c3d9b780c06c1c5d011a2ad633bec8b8993f7cb9aa8b794b2b46c4c4250846040516107889190614fab565b60405180910390a3505050565b6000806107c47ffde76110f9d20101eaa4d8b916e4b98a4ba9a1fab2fde001e4f7192efb50973c60001b613545565b6107f07fcd9fc8251e061620388c3b63b2f36b2835a866b15078d524ad0392ab9a381a5960001b613545565b61081c7fe59ca508b7601d9d62c6147ed32f6b3032b170e03205e935257c9e0bd695689560001b613545565b600060cb600061082a61353d565b73ffffffffffffffffffffffffffffffffffffffff1673ffffffffffffffffffffffffffffffffffffffff16815260200190815260200160002060000160049054906101000a90046bffffffffffffffffffffffff166bffffffffffffffffffffffff16141561092c576108c07f89fa329371cab07f1ce60115115cf31547f72eab22d161a36460defe2f3ad28d60001b613545565b6108ec7f1d42b87c4d7bccf1da9a24e9f831af89976f8583faf3fac312de9f10b135af3660001b613545565b6109187f5278cd6637975fa1811c314b9c96ea1197aecdde5926fb6f415d40cb8d46619a60001b613545565b600067ffffffffffffffff91509150610cb6565b6109587f8e4486df500e9e25bb4306bc9c28fc8ebd831db0768d3bb38d46fb4a5b0b393560001b613545565b6109847fcf915e0036c9e64b206d9325c0e614165aee78af717b56f872eb7336739052f060001b613545565b6109b07ffa99a423e8293a01637e70452710c00ac9d16ca52db19c8912a856c0d58cbe3060001b613545565b60c960cb60008573ffffffffffffffffffffffffffffffffffffffff1673ffffffffffffffffffffffffffffffffffffffff16815260200190815260200160002060000160109054906101000a900467ffffffffffffffff1667ffffffffffffffff1681548110610a4a577f4e487b7100000000000000000000000000000000000000000000000000000000600052603260045260246000fd5b9060005260206000200160000160049054906101000a900463ffffffff1663ffffffff1660cb60008573ffffffffffffffffffffffffffffffffffffffff1673ffffffffffffffffffffffffffffffffffffffff16815260200190815260200160002060000160049054906101000a90046bffffffffffffffffffffffff166bffffffffffffffffffffffff1643610ae29190615601565b11610bcd57610b137f6393902881939d8101e02a2e0653a1f4d1b17cf130c0d2112cfa68ef4d574bc760001b613545565b610b3f7f970334146a4c6c47f59783bb0fe5190572c19b0381c1fe26edaffd537332bb7360001b613545565b610b6b7f4d3cac1d03dc8ae0b281617fac85266efc0edbfefde7408d2821b1a4cd7e0bc060001b613545565b600160cb60008573ffffffffffffffffffffffffffffffffffffffff1673ffffffffffffffffffffffffffffffffffffffff16815260200190815260200160002060000160109054906101000a900467ffffffffffffffff1691509150610cb6565b610bf97f640707f13286d615dab15d655d40c9bcdb232d434e39e30489ec55daab50fe6160001b613545565b610c257feb34c8f9440ab9ac8d6d96d134a9e01c7b1ff93ae0110f8165115d1b2b34fe7360001b613545565b610c517f33f38fd55324b95022bb1f72682c06b8c75f869ad7b4d6147570e46db9cbcf9760001b613545565b610c5a83613548565b60cb60008573ffffffffffffffffffffffffffffffffffffffff1673ffffffffffffffffffffffffffffffffffffffff16815260200190815260200160002060000160109054906101000a900467ffffffffffffffff16915091505b915091565b610ce77fcb5419b5a053e71f0b7ad86e0116010ad4d9485491fc7132861b80e075cdfb1960001b613545565b610d137f4703e669c8e3a4a0513c0bc601ea9ece44e45cc473fc3e2d3c4eb807defb69f260001b613545565b610d3f7f0f774d90f0b62060cf7ce879b544d2341eff7c683071fadb30ee6c74bca2e4ea60001b613545565b610d6b7fe7af55097a5ab547dc396eb84fe10f153d3b0c7d6660dfad71941e03ff4aa8c760001b613545565b600060cb6000610d7961353d565b73ffffffffffffffffffffffffffffffffffffffff1673ffffffffffffffffffffffffffffffffffffffff16815260200190815260200160002060000160009054906101000a900463ffffffff1663ffffffff161415610e0e576040517f08c379a0000000000000000000000000000000000000000000000000000000008152600401610e05906150a7565b60405180910390fd5b610e3a7f0c33efd19244ab31aebd2b099e9d85f5cd8a9d21385266a2bbd7128e0f9d754660001b613545565b610e667f2d8cf4584b1d033bce7fe07f90e8a53fdfa85209559654b6f873af0682223cfe60001b613545565b610e927f3b245e03bff1e8e68c46f751c2ae2b45e60caf5db90029ddbe7d3a597dabe38d60001b613545565b600060cb6000610ea061353d565b73ffffffffffffffffffffffffffffffffffffffff1673ffffffffffffffffffffffffffffffffffffffff16815260200190815260200160002060000160006101000a81548163ffffffff021916908363ffffffff160217905550610f277fbe03eaa5654d3c330a0345e591212a088bf97f15fe62c27a9715b48e4b9fb37c60001b613545565b610f537ff1ce7672ae78f00bc4ba2d9f9458d639d7a893e087ad4e18e0a14b90dad217aa60001b613545565b600160cb6000610f6161353d565b73ffffffffffffffffffffffffffffffffffffffff1673ffffffffffffffffffffffffffffffffffffffff16815260200190815260200160002060000160186101000a81548160ff021916908315150217905550610fe17f7d2b36259a4cdf58da9dbe64ccd766e1feef344d52563f7ec1afbe767fc8857860001b613545565b61100d7fdd3a344cd9dc5f0c48c44746ec5d7c90e71e0fe9e4c3ed632370eb5f93738d0660001b613545565b60cb600061101961353d565b73ffffffffffffffffffffffffffffffffffffffff1673ffffffffffffffffffffffffffffffffffffffff16815260200190815260200160002060010160009054906101000a900473ffffffffffffffffffffffffffffffffffffffff1673ffffffffffffffffffffffffffffffffffffffff1663095ea7b33060006040518363ffffffff1660e01b81526004016110b2929190614f59565b602060405180830381600087803b1580156110cc57600080fd5b505af11580156110e0573d6000803e3d6000fd5b505050506040513d601f19601f820116820180604052508101906111049190614a00565b506111317fa49aaef5656821fd999818456b76463aec78f0edbc09355cfa29d4b5d38c594c60001b613545565b61115d7f1cf9401e493a060005eb3e804f023aa89d7944407333a05c6d2e083ecbffbf8e60001b613545565b60cb600061116961353d565b73ffffffffffffffffffffffffffffffffffffffff1673ffffffffffffffffffffffffffffffffffffffff16815260200190815260200160002060000160109054906101000a900467ffffffffffffffff1667ffffffffffffffff166111cd61353d565b73ffffffffffffffffffffffffffffffffffffffff167f6304f63f371bc518c6bc9e57165a4881eb87e6fea7b5b5efd45cb42254c129c460405160405180910390a3565b61121961353d565b73ffffffffffffffffffffffffffffffffffffffff166112376127a2565b73ffffffffffffffffffffffffffffffffffffffff161461128d576040517f08c379a0000000000000000000000000000000000000000000000000000000008152600401611284906151e7565b60405180910390fd5b6112b97fa1f9ec28208ce7b3a161d5f6dc4df13b34af9b53dbb63a255c45a06a66bae3d960001b613545565b6112e57f36db8c2222be8b53161a56469735eb4c73c3ecaa2360f170fbcf56ac536ece9060001b613545565b6113117f590419eedd8ad6c338d6db24d50d9c2328f8cce74d7536cddedddf61e416b00160001b613545565b600073ffffffffffffffffffffffffffffffffffffffff168273ffffffffffffffffffffffffffffffffffffffff161415611375577f4e487b7100000000000000000000000000000000000000000000000000000000600052600160045260246000fd5b6113a17f0c1e5d7c6c0df0aafd8cc7836450929569ef72c4936a77355fb4a658c442282f60001b613545565b6113cd7fdbb433ca59fd6aec02f5290b4682eb7fe610724ec555ca23dc6c17daeaf9a6d260001b613545565b600060ca60008473ffffffffffffffffffffffffffffffffffffffff1673ffffffffffffffffffffffffffffffffffffffff16815260200190815260200160002060000160009054906101000a900467ffffffffffffffff1667ffffffffffffffff1614611464577f4e487b7100000000000000000000000000000000000000000000000000000000600052600160045260246000fd5b6114907f3aa730cefec590ae87544cfaea7c16755bc2101fcc4aa7d1dd5efe0ad10749fb60001b613545565b6114bc7f46311afb2866306c4f97acd7f4cdff67010388eeae8f62c0d94367907b4731bd60001b613545565b8060ca60008473ffffffffffffffffffffffffffffffffffffffff1673ffffffffffffffffffffffffffffffffffffffff168152602001908152602001600020818161150891906160b5565b9050506115377f90b73e0a5e31466bd8e35b75e2cd9b0d7a63cb5a2926feb1170c278f8d512f2860001b613545565b6115637f73f389f74352745c377e3598a7a5c482a7dbb39d49f052fd3d36880ad7d6ad4b60001b613545565b80602001602081019061157691906149d7565b15158273ffffffffffffffffffffffffffffffffffffffff1661159761353d565b73ffffffffffffffffffffffffffffffffffffffff167f48f44ff91d7f10f98e4dd0dbbfdb79d78ecb87891909cb92d23907b14978491e8460000160208101906115e19190614acd565b6040516115ee91906152b5565b60405180910390a45050565b7f000000000000000000000000000000000000000000000000000000000000000073ffffffffffffffffffffffffffffffffffffffff163073ffffffffffffffffffffffffffffffffffffffff161415611689576040517f08c379a000000000000000000000000000000000000000000000000000000000815260040161168090615087565b60405180910390fd5b7f000000000000000000000000000000000000000000000000000000000000000073ffffffffffffffffffffffffffffffffffffffff166116c8613e73565b73ffffffffffffffffffffffffffffffffffffffff161461171e576040517f08c379a000000000000000000000000000000000000000000000000000000000815260040161171590615127565b60405180910390fd5b61172781613eca565b6117a681600067ffffffffffffffff81111561176c577f4e487b7100000000000000000000000000000000000000000000000000000000600052604160045260246000fd5b6040519080825280601f01601f19166020018201604052801561179e5781602001600182028036833780820191505090505b50600061402e565b50565b6117b161353d565b73ffffffffffffffffffffffffffffffffffffffff166117cf6127a2565b73ffffffffffffffffffffffffffffffffffffffff1614611825576040517f08c379a000000000000000000000000000000000000000000000000000000000815260040161181c906151e7565b60405180910390fd5b6118517f7529c66230a249af8267c68149ede05399a63a551c83a9b3cfb80a75ee77a74860001b613545565b61187d7f42fa30b85c1c7cf122aed61d2000614059b76626ee3f609fe242e9bb8a20c2a160001b613545565b6118a97f18024b5ddf2ab21f20c13768750cfea2dc68f90e105f28b5601cd63bfe02f15660001b613545565b600060c9836bffffffffffffffffffffffff16815481106118f3577f4e487b7100000000000000000000000000000000000000000000000000000000600052603260045260246000fd5b9060005260206000200160000160049054906101000a900463ffffffff1663ffffffff161161194b577f4e487b7100000000000000000000000000000000000000000000000000000000600052600160045260246000fd5b6119777f6185ca1af46b93c0c5557f1ae72e79af91ddd139da78090b16d34646ab3d2c8a60001b613545565b6119a37fcff6952bd6818cb3e4e641a7bb1f99d220fe254b60c17b4e10cea719c194823d60001b613545565b8060c9836bffffffffffffffffffffffff16815481106119ec577f4e487b7100000000000000000000000000000000000000000000000000000000600052603260045260246000fd5b9060005260206000200160000160049054906101000a900463ffffffff16611a149190615381565b60c9836bffffffffffffffffffffffff1681548110611a5c577f4e487b7100000000000000000000000000000000000000000000000000000000600052603260045260246000fd5b9060005260206000200160000160046101000a81548163ffffffff021916908363ffffffff160217905550611ab37f6d990879a46e9233d9e207d86c7822081a983770caaf24448d83f7c5d94603cf60001b613545565b611adf7f91fac8636407bd378a2715b6598310e416fcf4ed194a442d09c5212aaebd111660001b613545565b8063ffffffff16826bffffffffffffffffffffffff16611afd61353d565b73ffffffffffffffffffffffffffffffffffffffff167f0f8e509f0857af364a73f5af37192486094bd78f81fd4f5320558d7a5d63a21960405160405180910390a45050565b7f000000000000000000000000000000000000000000000000000000000000000073ffffffffffffffffffffffffffffffffffffffff163073ffffffffffffffffffffffffffffffffffffffff161415611bd2576040517f08c379a0000000000000000000000000000000000000000000000000000000008152600401611bc990615087565b60405180910390fd5b7f000000000000000000000000000000000000000000000000000000000000000073ffffffffffffffffffffffffffffffffffffffff16611c11613e73565b73ffffffffffffffffffffffffffffffffffffffff1614611c67576040517f08c379a0000000000000000000000000000000000000000000000000000000008152600401611c5e90615127565b60405180910390fd5b611c7082613eca565b611c7c8282600161402e565b5050565b60007f000000000000000000000000000000000000000000000000000000000000000073ffffffffffffffffffffffffffffffffffffffff163073ffffffffffffffffffffffffffffffffffffffff1614611d10576040517f08c379a0000000000000000000000000000000000000000000000000000000008152600401611d0790615147565b60405180910390fd5b7f360894a13ba1a3210667c828492db98dca3e2076cc3735a920a3ca505d382bbc60001b905090565b6000611d677f04c31f4466893daf8e50e27828323d95b46ab5bc8d45a10bb0611a01f2546bda60001b613545565b611d937ff391c5821df9d6ed56ec8e9957ceacf3d08a635b802e5efb3005c223e7555e0060001b613545565b611dbf7ffe51028117e7478e9b02c82ff1e43e09da40a909e88da7b85403fc9babfb012d60001b613545565b6001151560ca60008473ffffffffffffffffffffffffffffffffffffffff1673ffffffffffffffffffffffffffffffffffffffff16815260200190815260200160002060000160089054906101000a900460ff16151514611e49577f4e487b7100000000000000000000000000000000000000000000000000000000600052600160045260246000fd5b611e757f8720956dcd26348a94373df3431cd4ba51670b753a85c4c14d41d356c430c90960001b613545565b611ea17fd3339c9d44bdd7bd6b723d6802eb6bc78780848da0cb61584e529413d3b69dfd60001b613545565b600060c98467ffffffffffffffff1681548110611ee7577f4e487b7100000000000000000000000000000000000000000000000000000000600052603260045260246000fd5b906000526020600020019050611f1f7f878287072e40632b4420b6f9102bf2064cf14fedcab49539c7ca3403da97fec460001b613545565b611f4b7f130be19b3232902d87d96d7f38cc7641c7623dd5d3fa418ebe784812f5ca82c260001b613545565b611f777fb79cf8883ee843c4dd3556f5ef0be6ba7f7fc4be0910ff02e5709931360970ef60001b613545565b600115158160000160189054906101000a900460ff16151514611fcf576040517f08c379a0000000000000000000000000000000000000000000000000000000008152600401611fc6906150e7565b60405180910390fd5b611ffb7f1cd64ebdfce6b72a24a96b0ef5946690c150064f453cc94e7b6ce66d7233412360001b613545565b6120277fc53e5fd56415436526d8c42f365c3d9f2c02689b235c4df0d50e1a0fee897b4060001b613545565b6120537fb4d6e200246f7e391b99279af8d83b0297cb976133ab4ff24fd98e0b3fa0299c60001b613545565b600060cb600061206161353d565b73ffffffffffffffffffffffffffffffffffffffff1673ffffffffffffffffffffffffffffffffffffffff16815260200190815260200160002060000160009054906101000a900463ffffffff1663ffffffff16146120e9577f4e487b7100000000000000000000000000000000000000000000000000000000600052600160045260246000fd5b6121157f53b2bfeb7966c58809af1dbfae6689e51cd303f1cf8724e920552e2d503997bb60001b613545565b6121417fd1c41c6d7fc82b7e3bd34854af9f6f426fb96227b221f059d81fa62d3483090360001b613545565b600061214d8486612bc1565b905061217b7f5c45e5c60c6f336ec3320250897c9e24e7e682dbceb4c9cc1f317a57d32dd48760001b613545565b6121a77f11bdfac7431c3daa4dc753e63b35d6b93a975445adedfbaadcbc40dbae8df2da60001b613545565b6121d37f850d2dbf193266dbfec13ad90479e114937edb16f0f5313e5efa13e74539c25760001b613545565b808260000160009054906101000a900463ffffffff1663ffffffff166121f991906155a7565b8473ffffffffffffffffffffffffffffffffffffffff1663dd62ed3e61221d61353d565b306040518363ffffffff1660e01b815260040161223b929190614ef9565b60206040518083038186803b15801561225357600080fd5b505afa158015612267573d6000803e3d6000fd5b505050506040513d601f19601f8201168201806040525081019061228b9190614aa4565b10156122cc576040517f08c379a00000000000000000000000000000000000000000000000000000000081526004016122c390615047565b60405180910390fd5b6122f87fc6783bef79f158a41d50593591373a30c239c26925901e48f394f6d81eed3fef60001b613545565b6123247f6b98e02d58a274b21e299c76c88c14958834fa2aa24b1306f5aad31b0a89f93160001b613545565b6123507f110eaa41a5ca471004320dae2fb60e1c353e578556baa170d6db55844ccc4a4a60001b613545565b6040518060c001604052808360000160009054906101000a900463ffffffff1663ffffffff16815260200160006bffffffffffffffffffffffff1681526020018667ffffffffffffffff1681526020016000151581526020018573ffffffffffffffffffffffffffffffffffffffff168152602001436bffffffffffffffffffffffff1681525060cb60006123e361353d565b73ffffffffffffffffffffffffffffffffffffffff1673ffffffffffffffffffffffffffffffffffffffff16815260200190815260200160002060008201518160000160006101000a81548163ffffffff021916908363ffffffff16021790555060208201518160000160046101000a8154816bffffffffffffffffffffffff02191690836bffffffffffffffffffffffff16021790555060408201518160000160106101000a81548167ffffffffffffffff021916908367ffffffffffffffff16021790555060608201518160000160186101000a81548160ff02191690831515021790555060808201518160010160006101000a81548173ffffffffffffffffffffffffffffffffffffffff021916908373ffffffffffffffffffffffffffffffffffffffff16021790555060a08201518160010160146101000a8154816bffffffffffffffffffffffff02191690836bffffffffffffffffffffffff1602179055509050506125777f78daaf16854bec0527d41cc2a569feb9e7def6cbf184e14587345598ea4b081b60001b613545565b6125a37febceef57ad3682813da082723af246ae838d960c8546fe3424c765bc3b2c9fb060001b613545565b6125b36125ae61353d565b613548565b9250505092915050565b6125c561353d565b73ffffffffffffffffffffffffffffffffffffffff166125e36127a2565b73ffffffffffffffffffffffffffffffffffffffff1614612639576040517f08c379a0000000000000000000000000000000000000000000000000000000008152600401612630906151e7565b60405180910390fd5b61264360006141ab565b565b60ca6020528060005260406000206000915090508060000160009054906101000a900467ffffffffffffffff16908060000160089054906101000a900460ff16905082565b60006126966001614271565b905080156126ba576001600060016101000a81548160ff0219169083151502179055505b6126e67f313b7e871fda1e3f0280c4076d8d390098d356e1a9a4de4c99b6614aa0e136f260001b613545565b6127127f4f5c7cb06cc5ad073144d926593d058b1ee5cb5b10249ab8c73d1bd5af8c971760001b613545565b61273e7f9ac9261372d178d292c8a3b6b7e852b3ddc5814825bb02ca216b4c931d2623ee60001b613545565b612746614361565b801561279f5760008060016101000a81548160ff0219169083151502179055507f7f26b83ff96e1f2b6a682f133852f6798a09c465da95921460cefb38474024986001604051612796919061500a565b60405180910390a15b50565b6000603360009054906101000a900473ffffffffffffffffffffffffffffffffffffffff16905090565b60c981815481106127dc57600080fd5b906000526020600020016000915090508060000160009054906101000a900463ffffffff16908060000160049054906101000a900463ffffffff16908060000160089054906101000a90046fffffffffffffffffffffffffffffffff16908060000160189054906101000a900460ff16908060000160199054906101000a900460c81b905085565b61286c61353d565b73ffffffffffffffffffffffffffffffffffffffff1661288a6127a2565b73ffffffffffffffffffffffffffffffffffffffff16146128e0576040517f08c379a00000000000000000000000000000000000000000000000000000000081526004016128d7906151e7565b60405180910390fd5b61290c7f06d9edfd2ba60c11396bceb474a4a1e32c81ddb53bb3b86f87d9c186937649f260001b613545565b6129387fc19a2e8970b08d6ccc564b7943db925a402320ffaaf529549c344aeed699c06e60001b613545565b6129647f8b1a458c43d7bbbbd71dc24376f9d21f06dc6c630f6180ad9d1f6bb99b6df26660001b613545565b808373ffffffffffffffffffffffffffffffffffffffff166370a08231306040518263ffffffff1660e01b815260040161299e9190614ede565b60206040518083038186803b1580156129b657600080fd5b505afa1580156129ca573d6000803e3d6000fd5b505050506040513d601f19601f820116820180604052508101906129ee9190614aa4565b1015612a23577f4e487b7100000000000000000000000000000000000000000000000000000000600052600160045260246000fd5b612a4f7fa9be073fa57ccb4c0eea940e845e6c57825ffc40e867d61d219d9dea5b891adf60001b613545565b612a7b7fd8d8127a2789fd6e58e6ad9f9599533cd8eaa4bb13f2bd86699b27603ac3f92660001b613545565b8273ffffffffffffffffffffffffffffffffffffffff1663095ea7b383836040518363ffffffff1660e01b8152600401612ab6929190614f82565b602060405180830381600087803b158015612ad057600080fd5b505af1158015612ae4573d6000803e3d6000fd5b505050506040513d601f19601f82011682018060405250810190612b089190614a00565b50612b357fa1c48cbad79fe0b1e570899c61a4c0b5704947956e482e9af5f55c5a8bc98e1560001b613545565b612b617f932c0598014377eca73b68f485cb7e2cdb220474dd4140dc248830164f3b173960001b613545565b808373ffffffffffffffffffffffffffffffffffffffff168373ffffffffffffffffffffffffffffffffffffffff167f5a6ad959135224fa7091d784adcf326544e674afc0cd3a125f76e2e6b29cc36660405160405180910390a4505050565b6000612bef7fee224279c07a21c5862f8ada15832f8c7e83533050da6c7831d36dd0ee4c254060001b613545565b612c1b7f4d53d52788312dd2cea16d1688b7d5452311f2b1133fbf3854e52633675d237d60001b613545565b612c477f17c2ad1bdfda7a5e0d98fc6755da8a60b2e79bb96941d985cdfa972c7b1377f360001b613545565b612c737ff8fd040398a643dd7c1de3dbd8ede855f5b6559550de06a516442511d947d2c460001b613545565b600060ca60008573ffffffffffffffffffffffffffffffffffffffff1673ffffffffffffffffffffffffffffffffffffffff16815260200190815260200160002060000160009054906101000a900467ffffffffffffffff1667ffffffffffffffff1611612d16576040517f08c379a0000000000000000000000000000000000000000000000000000000008152600401612d0d90615107565b60405180910390fd5b612d427f91199ae25e702d4be02c46db636a52797ece6701e0a82a72b38c5bbe4789d52060001b613545565b612d6e7f603b9d2c23031311f7a683afdbe90b72903e61ce962ad75e7613202a941a779a60001b613545565b612d9a7fbd94a4c53661ef8729d856c9371d5558cfef49d31368eb33a3e853c3f617e37b60001b613545565b612f39620f424080612dac91906155a7565b8473ffffffffffffffffffffffffffffffffffffffff1663313ce5676040518163ffffffff1660e01b815260040160206040518083038186803b158015612df257600080fd5b505afa158015612e06573d6000803e3d6000fd5b505050506040513d601f19601f82011682018060405250810190612e2a9190614b32565b600a612e36919061543f565b60ca60008773ffffffffffffffffffffffffffffffffffffffff1673ffffffffffffffffffffffffffffffffffffffff16815260200190815260200160002060000160009054906101000a900467ffffffffffffffff1667ffffffffffffffff1660c98667ffffffffffffffff1681548110612edb577f4e487b7100000000000000000000000000000000000000000000000000000000600052603260045260246000fd5b9060005260206000200160000160089054906101000a90046fffffffffffffffffffffffffffffffff16612f0f919061555d565b6fffffffffffffffffffffffffffffffff16612f2b91906155a7565b6143ba90919063ffffffff16565b905092915050565b612f4961353d565b73ffffffffffffffffffffffffffffffffffffffff16612f676127a2565b73ffffffffffffffffffffffffffffffffffffffff1614612fbd576040517f08c379a0000000000000000000000000000000000000000000000000000000008152600401612fb4906151e7565b60405180910390fd5b612fe97fbfee71a017183bda1a49db09d11ee32fe803c877ecb374628c6a4821af74ebf360001b613545565b6130157f9b78bd9cd7f3e614a58bd0fc9f83ceb1695b2456b1b5fb984c3b7b2b193c6f1660001b613545565b6130417f093aa53abe5566a1061a7f0a1fc5d0f97604375811415d1b80d0eb0016558b1860001b613545565b803073ffffffffffffffffffffffffffffffffffffffff1631101561308f577f4e487b7100000000000000000000000000000000000000000000000000000000600052600160045260246000fd5b6130bb7ffaa7c1b8316b24a129ad2810bbafb970d15c748b104e0f4df49ae8cabecfc5a560001b613545565b6130e77f08ee061c8818d8b427cb7f23430ff4c54f3805b3ea12f0df58290569b55c59a960001b613545565b8173ffffffffffffffffffffffffffffffffffffffff166108fc829081150290604051600060405180830381858888f1935050505015801561312d573d6000803e3d6000fd5b5061315a7f061324a359eba4d72e349b3d7363408b36a81c36257851d2b7ef2191473182d760001b613545565b6131867fd071bedb73973357fb204852ff9fa3c61c4bbc57310b2eec94a873b71dda8de660001b613545565b80600073ffffffffffffffffffffffffffffffffffffffff168373ffffffffffffffffffffffffffffffffffffffff167f5a6ad959135224fa7091d784adcf326544e674afc0cd3a125f76e2e6b29cc36660405160405180910390a45050565b6131ee61353d565b73ffffffffffffffffffffffffffffffffffffffff1661320c6127a2565b73ffffffffffffffffffffffffffffffffffffffff1614613262576040517f08c379a0000000000000000000000000000000000000000000000000000000008152600401613259906151e7565b60405180910390fd5b61328e7f40620e14aff945c14decc98dacfc5eb8a47107d47662b1307ab4ffb93b9882e760001b613545565b6132ba7fc5548be897c8a1be72dbd8ca24ed266e83ac2f048c42dc235713a8e07be0196b60001b613545565b6132e67fec916cd81e6d31602aa33136e490c7d7fbd535bec07fa04cdb6004c7b985125560001b613545565b6000151560c98267ffffffffffffffff168154811061332e577f4e487b7100000000000000000000000000000000000000000000000000000000600052603260045260246000fd5b9060005260206000200160000160189054906101000a900460ff1615151415613380577f4e487b7100000000000000000000000000000000000000000000000000000000600052600160045260246000fd5b6133ac7f3f416b8c05cb806e6c70f548cabf20146000aab192cf6a348dc1a14cc0e1bdda60001b613545565b6133d87f2a8209fbc628cc28b0c971e841c6f5bf8d0f438b0dc0c41337e948fc7ee8b27660001b613545565b600060c98267ffffffffffffffff168154811061341e577f4e487b7100000000000000000000000000000000000000000000000000000000600052603260045260246000fd5b9060005260206000200160000160186101000a81548160ff02191690831515021790555050565b61344d61353d565b73ffffffffffffffffffffffffffffffffffffffff1661346b6127a2565b73ffffffffffffffffffffffffffffffffffffffff16146134c1576040517f08c379a00000000000000000000000000000000000000000000000000000000081526004016134b8906151e7565b60405180910390fd5b600073ffffffffffffffffffffffffffffffffffffffff168173ffffffffffffffffffffffffffffffffffffffff161415613531576040517f08c379a000000000000000000000000000000000000000000000000000000000815260040161352890615067565b60405180910390fd5b61353a816141ab565b50565b600033905090565b50565b60006135767fcc79257612f37203cc9cc313bd202ff50474609fd11c7cec674cbdd432855da360001b613545565b6135a27f6848fcfe9fff2574e1abb7621e7fafacb43cc1982d9eeea1d6f0e64d2d664b5b60001b613545565b6135ce7f04991e1716b7a96b1a8b90a22e6f2a63333398473fe18931e13f7f6e6296b99060001b613545565b600060cb60008473ffffffffffffffffffffffffffffffffffffffff1673ffffffffffffffffffffffffffffffffffffffff168152602001908152602001600020905061363d7f3f15196a4f96b5a86fb7618260dbe1417d1e30c9ec01789a22e958e8a23f89d560001b613545565b6136697fa9981a8d457d1b21ec98eb24c280a8255cbb35d47bef674308489096f3a4350f60001b613545565b6136957f904395522123b83f66164486a9a0c7f78d31cea1145ca0e31d8ebe4cc3750f6060001b613545565b60008160000160009054906101000a900463ffffffff1663ffffffff16116136f2576040517f08c379a00000000000000000000000000000000000000000000000000000000081526004016136e9906150c7565b60405180910390fd5b61371e7f25aa99e0d361710b42936a43197b93329dcd84460e6089514cda88d51ba5783360001b613545565b61374a7f2a87cf38fcaa1bbb0447ddf5c0a5662a23564e9417520946d13dc245d7a9638060001b613545565b6137767f8379c83f0c785d307950c306df724f8b4bb6ecd1941e307e8d3b2c54827a2d8060001b613545565b6137a27f53c4fadad86684343dd880c68b106e1afc311225689f9d501adce6593de03d2860001b613545565b60c98160000160109054906101000a900467ffffffffffffffff1667ffffffffffffffff16815481106137fe577f4e487b7100000000000000000000000000000000000000000000000000000000600052603260045260246000fd5b9060005260206000200160000160009054906101000a900463ffffffff1663ffffffff168160000160049054906101000a90046bffffffffffffffffffffffff166bffffffffffffffffffffffff16436138589190615601565b1161386257600080fd5b61388e7f15d79646b3c30adc4c499def6caf3e4ff38b438aad4c17a9ce309414f5bba76460001b613545565b6138ba7f3bb029c25c291acc52fe99aa9e351a690aa5c43a4c958aa2428c90f38a2c139760001b613545565b6138e67f9c3052e59881e98d620abe8b949c8623d9fa7d4c3ba3c345d1f45a3b65d040d460001b613545565b61392c8160010160009054906101000a900473ffffffffffffffffffffffffffffffffffffffff168260000160109054906101000a900467ffffffffffffffff16612bc1565b8160010160009054906101000a900473ffffffffffffffffffffffffffffffffffffffff1673ffffffffffffffffffffffffffffffffffffffff166370a0823161397461353d565b6040518263ffffffff1660e01b81526004016139909190614ede565b60206040518083038186803b1580156139a857600080fd5b505afa1580156139bc573d6000803e3d6000fd5b505050506040513d601f19601f820116820180604052508101906139e09190614aa4565b1015613a7457613a127f4352259b7c49ea0d827aeecde6e889e3f5712a547c81d0f4afce303a866b5ce560001b613545565b613a3e7f288ead4b98cea1ae8cc355f83eb105184cad73e88e79392b4f1dbc4b1aeb3ec660001b613545565b613a6a7f8363d9527ce5f46b93898b8ced924f85e8ea8055d417f53729033c4c0678128160001b613545565b6000915050613e6e565b613aa07fd1b22f1fb055ed07ddcb701c9b05f71178024263e989a5d75fa5f5a8d7469c9660001b613545565b613acc7f5cc63ba387b54592f49d39d36f09ddde17f123afbf3982b0f2fb9342bb0b240b60001b613545565b613af87fe1402aea84092b465e738fa8f033337274432487a0c5a4f99e6aeba4a38f2e0660001b613545565b8060010160009054906101000a900473ffffffffffffffffffffffffffffffffffffffff1673ffffffffffffffffffffffffffffffffffffffff166323b872dd8430613b808560010160009054906101000a900473ffffffffffffffffffffffffffffffffffffffff168660000160109054906101000a900467ffffffffffffffff16612bc1565b6040518463ffffffff1660e01b8152600401613b9e93929190614f22565b602060405180830381600087803b158015613bb857600080fd5b505af1158015613bcc573d6000803e3d6000fd5b505050506040513d601f19601f82011682018060405250810190613bf09190614a00565b50613c1d7fcf44355abed7f1c9eb673e4fcb09b49398efebc928a2bd2513e6df297ccb815160001b613545565b613c497f573053fd33f58227d4f2777ec0ace8a0d915cc957f681e2db621e512b6d4853d60001b613545565b60018160000160009054906101000a900463ffffffff16613c6a9190615635565b8160000160006101000a81548163ffffffff021916908363ffffffff160217905550613cb87fcff3931d5879340ded25509b4e27b627664096ee7d1bffa396d67729138bb5e060001b613545565b613ce47f4eb219dbab06b5c2859e8678d5fc9468b76a8c9d58040c1f9bef3959e501a33c60001b613545565b438160000160046101000a8154816bffffffffffffffffffffffff02191690836bffffffffffffffffffffffff160217905550613d437fe34bb63e61c7a511c0a6ae2f16c865d8dfb55ef7511bfe1d5cfa6d20830ed2d460001b613545565b613d6f7f4345badd19913ebdf45e39317c4de820d740c0dc0409e81a70bb4e42597e0da560001b613545565b8060010160009054906101000a900473ffffffffffffffffffffffffffffffffffffffff1673ffffffffffffffffffffffffffffffffffffffff168160000160109054906101000a900467ffffffffffffffff1667ffffffffffffffff168473ffffffffffffffffffffffffffffffffffffffff167ff86ec958b5a2e4fee68cf11adb77352a0150aad78babe83e217e2fd3c31b5e3660405160405180910390a4613e3c7f9eeeca3bd54920263f2d58df93c7081c9233b3fad5c6dd7637a0849c0b8a6bfc60001b613545565b613e687f46c0e295177758bf5cc11cd46e7db4c6339151640d21619ddc062dee7bc1cf9560001b613545565b60019150505b919050565b6000613ea17f360894a13ba1a3210667c828492db98dca3e2076cc3735a920a3ca505d382bbc60001b6143d0565b60000160009054906101000a900473ffffffffffffffffffffffffffffffffffffffff16905090565b613ed261353d565b73ffffffffffffffffffffffffffffffffffffffff16613ef06127a2565b73ffffffffffffffffffffffffffffffffffffffff1614613f46576040517f08c379a0000000000000000000000000000000000000000000000000000000008152600401613f3d906151e7565b60405180910390fd5b613f727fe21a152aa638074559e6e6df4b1e3b14fc98415e9131cb5d7e61674c2197b6d260001b613545565b613f9e7f778ea238e1e4b06a8a799d8591c9fb423a410f732c6de624da97b3e935688e8d60001b613545565b613fca7f5c7cb2e5bb65e71eef18de1e6e73690b9f48972f4fc142cc7f970f94ddb7b45c60001b613545565b8073ffffffffffffffffffffffffffffffffffffffff16613fe961353d565b73ffffffffffffffffffffffffffffffffffffffff167fe599b5079b4c1eb212a1c7e7d9fbc7eb93470cb9a80ce244cd81cc284e4f1ebd60405160405180910390a350565b61405a7f4910fdfa16fed3260ed0e7147f7cc6da11a60208b5b9406d12a635614ffd914360001b6143da565b60000160009054906101000a900460ff161561407e57614079836143e4565b6141a6565b8273ffffffffffffffffffffffffffffffffffffffff166352d1902d6040518163ffffffff1660e01b815260040160206040518083038186803b1580156140c457600080fd5b505afa9250505080156140f557506040513d601f19601f820116820180604052508101906140f29190614a29565b60015b614134576040517f08c379a000000000000000000000000000000000000000000000000000000000815260040161412b906151a7565b60405180910390fd5b7f360894a13ba1a3210667c828492db98dca3e2076cc3735a920a3ca505d382bbc60001b8114614199576040517f08c379a000000000000000000000000000000000000000000000000000000000815260040161419090615167565b60405180910390fd5b506141a583838361449d565b5b505050565b6000603360009054906101000a900473ffffffffffffffffffffffffffffffffffffffff16905081603360006101000a81548173ffffffffffffffffffffffffffffffffffffffff021916908373ffffffffffffffffffffffffffffffffffffffff1602179055508173ffffffffffffffffffffffffffffffffffffffff168173ffffffffffffffffffffffffffffffffffffffff167f8be0079c531659141344cd1fd0a4f28419497f9722a3daafe3b4186f6b6457e060405160405180910390a35050565b60008060019054906101000a900460ff16156142e85760018260ff161480156142a0575061429e306144c9565b155b6142df576040517f08c379a00000000000000000000000000000000000000000000000000000000081526004016142d690615187565b60405180910390fd5b6000905061435c565b8160ff1660008054906101000a900460ff1660ff161061433d576040517f08c379a000000000000000000000000000000000000000000000000000000000815260040161433490615187565b60405180910390fd5b816000806101000a81548160ff021916908360ff160217905550600190505b919050565b600060019054906101000a900460ff166143b0576040517f08c379a00000000000000000000000000000000000000000000000000000000081526004016143a790615227565b60405180910390fd5b6143b86144ec565b565b600081836143c891906153bb565b905092915050565b6000819050919050565b6000819050919050565b6143ed816144c9565b61442c576040517f08c379a0000000000000000000000000000000000000000000000000000000008152600401614423906151c7565b60405180910390fd5b806144597f360894a13ba1a3210667c828492db98dca3e2076cc3735a920a3ca505d382bbc60001b6143d0565b60000160006101000a81548173ffffffffffffffffffffffffffffffffffffffff021916908373ffffffffffffffffffffffffffffffffffffffff16021790555050565b6144a68361454d565b6000825111806144b35750805b156144c4576144c2838361459c565b505b505050565b6000808273ffffffffffffffffffffffffffffffffffffffff163b119050919050565b600060019054906101000a900460ff1661453b576040517f08c379a000000000000000000000000000000000000000000000000000000000815260040161453290615227565b60405180910390fd5b61454b61454661353d565b6141ab565b565b614556816143e4565b8073ffffffffffffffffffffffffffffffffffffffff167fbc7cd75a20ee27fd9adebab32041f755214dbc6bffa90cc0225b39da2e5c2d3b60405160405180910390a250565b60606145a7836144c9565b6145e6576040517f08c379a00000000000000000000000000000000000000000000000000000000081526004016145dd90615207565b60405180910390fd5b6000808473ffffffffffffffffffffffffffffffffffffffff168460405161460e9190614ec7565b600060405180830381855af49150503d8060008114614649576040519150601f19603f3d011682016040523d82523d6000602084013e61464e565b606091505b509150915061467682826040518060600160405280602781526020016162ad60279139614680565b9250505092915050565b60608315614690578290506146e0565b6000835111156146a35782518084602001fd5b816040517f08c379a00000000000000000000000000000000000000000000000000000000081526004016146d79190615025565b60405180910390fd5b9392505050565b60006146fa6146f58461531e565b6152f9565b90508281526020810184848401111561471257600080fd5b61471d8482856157fe565b509392505050565b600081359050614734816161c6565b92915050565b600081359050614749816161dd565b92915050565b60008151905061475e816161dd565b92915050565b600081519050614773816161f4565b92915050565b600082601f83011261478a57600080fd5b813561479a8482602086016146e7565b91505092915050565b6000604082840312156147b557600080fd5b81905092915050565b600060a082840312156147d057600080fd5b81905092915050565b6000813590506147e881616239565b92915050565b6000815190506147fd81616239565b92915050565b60008135905061481281616250565b92915050565b60008135905061482781616267565b92915050565b60008151905061483c8161627e565b92915050565b60008135905061485181616295565b92915050565b60006020828403121561486957600080fd5b600061487784828501614725565b91505092915050565b60008060006060848603121561489557600080fd5b60006148a386828701614725565b93505060206148b486828701614725565b92505060406148c5868287016147d9565b9150509250925092565b600080604083850312156148e257600080fd5b60006148f085828601614725565b925050602083013567ffffffffffffffff81111561490d57600080fd5b61491985828601614779565b9150509250929050565b6000806060838503121561493657600080fd5b600061494485828601614725565b9250506020614955858286016147a3565b9150509250929050565b6000806040838503121561497257600080fd5b600061498085828601614725565b9250506020614991858286016147d9565b9150509250929050565b600080604083850312156149ae57600080fd5b60006149bc85828601614725565b92505060206149cd85828601614818565b9150509250929050565b6000602082840312156149e957600080fd5b60006149f78482850161473a565b91505092915050565b600060208284031215614a1257600080fd5b6000614a208482850161474f565b91505092915050565b600060208284031215614a3b57600080fd5b6000614a4984828501614764565b91505092915050565b600060a08284031215614a6457600080fd5b6000614a72848285016147be565b91505092915050565b600060208284031215614a8d57600080fd5b6000614a9b848285016147d9565b91505092915050565b600060208284031215614ab657600080fd5b6000614ac4848285016147ee565b91505092915050565b600060208284031215614adf57600080fd5b6000614aed84828501614818565b91505092915050565b60008060408385031215614b0957600080fd5b6000614b1785828601614818565b9250506020614b2885828601614725565b9150509250929050565b600060208284031215614b4457600080fd5b6000614b528482850161482d565b91505092915050565b60008060408385031215614b6e57600080fd5b6000614b7c85828601614842565b9250506020614b8d85828601614803565b9150509250929050565b614ba08161569d565b82525050565b614baf816156af565b82525050565b614bbe816156bb565b82525050565b614bcd816156c5565b82525050565b6000614bde8261534f565b614be88185615365565b9350614bf881856020860161580d565b80840191505092915050565b614c0d816157a4565b82525050565b614c1c816157b6565b82525050565b6000614c2d8261535a565b614c378185615370565b9350614c4781856020860161580d565b614c5081615a95565b840191505092915050565b6000614c68602883615370565b9150614c7382615b01565b604082019050919050565b6000614c8b602683615370565b9150614c9682615b50565b604082019050919050565b6000614cae602c83615370565b9150614cb982615b9f565b604082019050919050565b6000614cd1601683615370565b9150614cdc82615bee565b602082019050919050565b6000614cf4602583615370565b9150614cff82615c17565b604082019050919050565b6000614d17601683615370565b9150614d2282615c66565b602082019050919050565b6000614d3a602083615370565b9150614d4582615c8f565b602082019050919050565b6000614d5d602c83615370565b9150614d6882615cb8565b604082019050919050565b6000614d80603883615370565b9150614d8b82615d07565b604082019050919050565b6000614da3602983615370565b9150614dae82615d56565b604082019050919050565b6000614dc6602e83615370565b9150614dd182615da5565b604082019050919050565b6000614de9602e83615370565b9150614df482615df4565b604082019050919050565b6000614e0c602d83615370565b9150614e1782615e43565b604082019050919050565b6000614e2f602083615370565b9150614e3a82615e92565b602082019050919050565b6000614e52602683615370565b9150614e5d82615ebb565b604082019050919050565b6000614e75602b83615370565b9150614e8082615f0a565b604082019050919050565b614e94816156f1565b82525050565b614ea38161572d565b82525050565b614eb281615737565b82525050565b614ec181615747565b82525050565b6000614ed38284614bd3565b915081905092915050565b6000602082019050614ef36000830184614b97565b92915050565b6000604082019050614f0e6000830185614b97565b614f1b6020830184614b97565b9392505050565b6000606082019050614f376000830186614b97565b614f446020830185614b97565b614f516040830184614e9a565b949350505050565b6000604082019050614f6e6000830185614b97565b614f7b6020830184614c04565b9392505050565b6000604082019050614f976000830185614b97565b614fa46020830184614e9a565b9392505050565b6000602082019050614fc06000830184614ba6565b92915050565b6000604082019050614fdb6000830185614ba6565b614fe86020830184614eb8565b9392505050565b60006020820190506150046000830184614bb5565b92915050565b600060208201905061501f6000830184614c13565b92915050565b6000602082019050818103600083015261503f8184614c22565b905092915050565b6000602082019050818103600083015261506081614c5b565b9050919050565b6000602082019050818103600083015261508081614c7e565b9050919050565b600060208201905081810360008301526150a081614ca1565b9050919050565b600060208201905081810360008301526150c081614cc4565b9050919050565b600060208201905081810360008301526150e081614ce7565b9050919050565b6000602082019050818103600083015261510081614d0a565b9050919050565b6000602082019050818103600083015261512081614d2d565b9050919050565b6000602082019050818103600083015261514081614d50565b9050919050565b6000602082019050818103600083015261516081614d73565b9050919050565b6000602082019050818103600083015261518081614d96565b9050919050565b600060208201905081810360008301526151a081614db9565b9050919050565b600060208201905081810360008301526151c081614ddc565b9050919050565b600060208201905081810360008301526151e081614dff565b9050919050565b6000602082019050818103600083015261520081614e22565b9050919050565b6000602082019050818103600083015261522081614e45565b9050919050565b6000602082019050818103600083015261524081614e68565b9050919050565b600060208201905061525c6000830184614e9a565b92915050565b600060a0820190506152776000830188614ea9565b6152846020830187614ea9565b6152916040830186614e8b565b61529e6060830185614ba6565b6152ab6080830184614bc4565b9695505050505050565b60006020820190506152ca6000830184614eb8565b92915050565b60006040820190506152e56000830185614eb8565b6152f26020830184614ba6565b9392505050565b6000615303615314565b905061530f828261592f565b919050565b6000604051905090565b600067ffffffffffffffff821115615339576153386159be565b5b61534282615a95565b9050602081019050919050565b600081519050919050565b600081519050919050565b600081905092915050565b600082825260208201905092915050565b600061538c82615737565b915061539783615737565b92508263ffffffff038211156153b0576153af615960565b5b828201905092915050565b60006153c68261572d565b91506153d18361572d565b9250826153e1576153e061598f565b5b828204905092915050565b6000808291508390505b60018511156154365780860481111561541257615411615960565b5b60018516156154215780820291505b808102905061542f85615ae7565b94506153f6565b94509492505050565b600061544a8261572d565b91506154558361575b565b92506154827fffffffffffffffffffffffffffffffffffffffffffffffffffffffffffffffff848461548a565b905092915050565b60008261549a5760019050615556565b816154a85760009050615556565b81600181146154be57600281146154c8576154f7565b6001915050615556565b60ff8411156154da576154d9615960565b5b8360020a9150848211156154f1576154f0615960565b5b50615556565b5060208310610133831016604e8410600b841016171561552c5782820a90508381111561552757615526615960565b5b615556565b61553984848460016153ec565b925090508184048111156155505761554f615960565b5b81810290505b9392505050565b6000615568826156f1565b9150615573836156f1565b9250816fffffffffffffffffffffffffffffffff048311821515161561559c5761559b615960565b5b828202905092915050565b60006155b28261572d565b91506155bd8361572d565b9250817fffffffffffffffffffffffffffffffffffffffffffffffffffffffffffffffff04831182151516156155f6576155f5615960565b5b828202905092915050565b600061560c8261572d565b91506156178361572d565b92508282101561562a57615629615960565b5b828203905092915050565b600061564082615737565b915061564b83615737565b92508282101561565e5761565d615960565b5b828203905092915050565b600061567482615747565b915061567f83615747565b92508282101561569257615691615960565b5b828203905092915050565b60006156a88261570d565b9050919050565b60008115159050919050565b6000819050919050565b60007fffffffffffffff0000000000000000000000000000000000000000000000000082169050919050565b60006fffffffffffffffffffffffffffffffff82169050919050565b600073ffffffffffffffffffffffffffffffffffffffff82169050919050565b6000819050919050565b600063ffffffff82169050919050565b600067ffffffffffffffff82169050919050565b600060ff82169050919050565b60006bffffffffffffffffffffffff82169050919050565b600061578b826156af565b9050919050565b600061579d826156c5565b9050919050565b60006157af8261572d565b9050919050565b60006157c18261575b565b9050919050565b60006157d3826156f1565b9050919050565b60006157e582615737565b9050919050565b60006157f782615747565b9050919050565b82818337600083830152505050565b60005b8381101561582b578082015181840152602081019050615810565b8381111561583a576000848401525b50505050565b60008101600083018061585281615a7f565b905061585e81846160f4565b50505060008101602083018061587381615a27565b905061587f8184616180565b5050505050565b60008101600083018061589881615a69565b90506158a481846160d1565b5050506000810160208301806158b981615a69565b90506158c5818461615d565b5050506000810160408301806158da81615a53565b90506158e681846161a3565b5050506000810160608301806158fb81615a27565b90506159078184616117565b50505060008101608083018061591c81615a3d565b9050615928818461613a565b5050505050565b61593882615a95565b810181811067ffffffffffffffff82111715615957576159566159be565b5b80604052505050565b7f4e487b7100000000000000000000000000000000000000000000000000000000600052601160045260246000fd5b7f4e487b7100000000000000000000000000000000000000000000000000000000600052601260045260246000fd5b7f4e487b7100000000000000000000000000000000000000000000000000000000600052604160045260246000fd5b6000819050919050565b6000615a0282615af4565b9050919050565b6000819050919050565b6000819050919050565b6000819050919050565b60008135615a34816161dd565b80915050919050565b60008135615a4a8161620b565b80915050919050565b60008135615a6081616222565b80915050919050565b60008135615a7681616250565b80915050919050565b60008135615a8c81616267565b80915050919050565b6000601f19601f8301169050919050565b60008160001b9050919050565b60008160c01b9050919050565b60008160c81b9050919050565b60008160201b9050919050565b60008160401b9050919050565b60008160011c9050919050565b60008160c81c9050919050565b7f496e63726561736520416c6c6f77616e636520746f206d61746368207375627360008201527f6372697074696f6e000000000000000000000000000000000000000000000000602082015250565b7f4f776e61626c653a206e6577206f776e657220697320746865207a65726f206160008201527f6464726573730000000000000000000000000000000000000000000000000000602082015250565b7f46756e6374696f6e206d7573742062652063616c6c6564207468726f7567682060008201527f64656c656761746563616c6c0000000000000000000000000000000000000000602082015250565b7f4e6f2061637469766520737562736372697074696f6e00000000000000000000600082015250565b7f737562736372697074696f6e2065787069726564206f7220646f65736e27742060008201527f6578697374000000000000000000000000000000000000000000000000000000602082015250565b7f74686973206f6666657220686173206578706972656400000000000000000000600082015250565b7f546f6b656e41646472657373204e6f742041636365707461626c652048455245600082015250565b7f46756e6374696f6e206d7573742062652063616c6c6564207468726f7567682060008201527f6163746976652070726f78790000000000000000000000000000000000000000602082015250565b7f555550535570677261646561626c653a206d757374206e6f742062652063616c60008201527f6c6564207468726f7567682064656c656761746563616c6c0000000000000000602082015250565b7f45524331393637557067726164653a20756e737570706f727465642070726f7860008201527f6961626c65555549440000000000000000000000000000000000000000000000602082015250565b7f496e697469616c697a61626c653a20636f6e747261637420697320616c72656160008201527f647920696e697469616c697a6564000000000000000000000000000000000000602082015250565b7f45524331393637557067726164653a206e657720696d706c656d656e7461746960008201527f6f6e206973206e6f742055555053000000000000000000000000000000000000602082015250565b7f455243313936373a206e657720696d706c656d656e746174696f6e206973206e60008201527f6f74206120636f6e747261637400000000000000000000000000000000000000602082015250565b7f4f776e61626c653a2063616c6c6572206973206e6f7420746865206f776e6572600082015250565b7f416464726573733a2064656c65676174652063616c6c20746f206e6f6e2d636f60008201527f6e74726163740000000000000000000000000000000000000000000000000000602082015250565b7f496e697469616c697a61626c653a20636f6e7472616374206973206e6f74206960008201527f6e697469616c697a696e67000000000000000000000000000000000000000000602082015250565b600077ffffffffffffffffffffffffffffffff0000000000000000615f7d84615ada565b9350801983169250808416831791505092915050565b600078ff000000000000000000000000000000000000000000000000615fb884615ab3565b9350801983169250808416831791505092915050565b600068ff0000000000000000615fe384615ada565b9350801983169250808416831791505092915050565b600063ffffffff61600984615aa6565b9350801983169250808416831791505092915050565b600067ffffffff0000000061603384615acd565b9350801983169250808416831791505092915050565b60007fffffffffffffff0000000000000000000000000000000000000000000000000061607584615ac0565b9350801983169250808416831791505092915050565b600067ffffffffffffffff61609f84615aa6565b9350801983169250808416831791505092915050565b6160bf8282615840565b5050565b6160cd8282615886565b5050565b6160da826157da565b6160ed6160e682615a13565b8354615ff9565b8255505050565b6160fd826157ec565b61611061610982615a1d565b835461608b565b8255505050565b61612082615780565b61613361612c826159ed565b8354615f93565b8255505050565b61614382615792565b61615661614f826159f7565b8354616049565b8255505050565b616166826157da565b61617961617282615a13565b835461601f565b8255505050565b61618982615780565b61619c616195826159ed565b8354615fce565b8255505050565b6161ac826157c8565b6161bf6161b882615a09565b8354615f59565b8255505050565b6161cf8161569d565b81146161da57600080fd5b50565b6161e6816156af565b81146161f157600080fd5b50565b6161fd816156bb565b811461620857600080fd5b50565b616214816156c5565b811461621f57600080fd5b50565b61622b816156f1565b811461623657600080fd5b50565b6162428161572d565b811461624d57600080fd5b50565b61625981615737565b811461626457600080fd5b50565b61627081615747565b811461627b57600080fd5b50565b6162878161575b565b811461629257600080fd5b50565b61629e81615768565b81146162a957600080fd5b5056fe416464726573733a206c6f772d6c6576656c2064656c65676174652063616c6c206661696c6564a264697066735822122098af701d040b504158d96b04cf4dbadfc5c59f94c8d90b7ddcfcbcae4a82f59c64736f6c63430008040033",
  "linkReferences": {},
  "deployedLinkReferences": {}
}