{
  "_format": "hh-sol-artifact-1",
  "contractName": "Billing",
  "sourceName": "contracts/billing/Billing.sol",
  "abi": [
    {
      "anonymous": false,
      "inputs": [
        {
          "indexed": false,
          "internalType": "address",
          "name": "previousAdmin",
          "type": "address"
        },
        {
          "indexed": false,
          "internalType": "address",
          "name": "newAdmin",
          "type": "address"
        }
      ],
      "name": "AdminChanged",
      "type": "event"
    },
    {
      "anonymous": false,
      "inputs": [
        {
          "indexed": true,
          "internalType": "address",
          "name": "beacon",
          "type": "address"
        }
      ],
      "name": "BeaconUpgraded",
      "type": "event"
    },
    {
      "anonymous": false,
      "inputs": [
        {
          "indexed": true,
          "internalType": "address",
          "name": "account",
          "type": "address"
        },
        {
          "indexed": true,
          "internalType": "uint256",
          "name": "subscriptionID",
          "type": "uint256"
        }
      ],
      "name": "CancelSubscription",
      "type": "event"
    },
    {
      "anonymous": false,
      "inputs": [
        {
          "indexed": true,
          "internalType": "address",
          "name": "account",
          "type": "address"
        },
        {
          "indexed": true,
          "internalType": "uint96",
          "name": "subscriptionID",
          "type": "uint96"
        },
        {
          "indexed": true,
          "internalType": "uint32",
          "name": "increase",
          "type": "uint32"
        }
      ],
      "name": "IncreaseBlockNumber",
      "type": "event"
    },
    {
      "anonymous": false,
      "inputs": [
        {
          "indexed": false,
          "internalType": "uint8",
          "name": "version",
          "type": "uint8"
        }
      ],
      "name": "Initialized",
      "type": "event"
    },
    {
      "anonymous": false,
      "inputs": [
        {
          "indexed": true,
          "internalType": "address",
          "name": "previousOwner",
          "type": "address"
        },
        {
          "indexed": true,
          "internalType": "address",
          "name": "newOwner",
          "type": "address"
        }
      ],
      "name": "OwnershipTransferred",
      "type": "event"
    },
    {
      "anonymous": false,
      "inputs": [
        {
          "indexed": true,
          "internalType": "address",
          "name": "account",
          "type": "address"
        },
        {
          "indexed": true,
          "internalType": "uint256",
          "name": "subscriptionID",
          "type": "uint256"
        },
        {
          "indexed": true,
          "internalType": "address",
          "name": "tokenAddress",
          "type": "address"
        }
      ],
      "name": "Purchase",
      "type": "event"
    },
    {
      "anonymous": false,
      "inputs": [
        {
          "indexed": true,
          "internalType": "address",
          "name": "from",
          "type": "address"
        },
        {
          "indexed": true,
          "internalType": "address",
          "name": "tokenAddress",
          "type": "address"
        },
        {
          "indexed": false,
          "internalType": "uint64",
          "name": "rate",
          "type": "uint64"
        },
        {
          "indexed": true,
          "internalType": "bool",
          "name": "isActive",
          "type": "bool"
        }
      ],
      "name": "StableCoinStatus",
      "type": "event"
    },
    {
      "anonymous": false,
      "inputs": [
        {
          "indexed": true,
          "internalType": "address",
          "name": "account",
          "type": "address"
        },
        {
          "indexed": false,
          "internalType": "bool",
          "name": "active",
          "type": "bool"
        },
        {
          "indexed": true,
          "internalType": "uint64",
          "name": "subscriptionID",
          "type": "uint64"
        }
      ],
      "name": "SubscriptionStatus",
      "type": "event"
    },
    {
      "anonymous": false,
      "inputs": [
        {
          "indexed": true,
          "internalType": "address",
          "name": "updateBy",
          "type": "address"
        },
        {
          "indexed": true,
          "internalType": "address",
          "name": "subscriptionID",
          "type": "address"
        }
      ],
      "name": "UpdateContract",
      "type": "event"
    },
    {
      "anonymous": false,
      "inputs": [
        {
          "indexed": true,
          "internalType": "address",
          "name": "implementation",
          "type": "address"
        }
      ],
      "name": "Upgraded",
      "type": "event"
    },
    {
      "anonymous": false,
      "inputs": [
        {
          "indexed": true,
          "internalType": "address",
          "name": "account",
          "type": "address"
        },
        {
          "indexed": true,
          "internalType": "address",
          "name": "tokenAddress",
          "type": "address"
        },
        {
          "indexed": true,
          "internalType": "uint256",
          "name": "amount",
          "type": "uint256"
        }
      ],
      "name": "withdrawApproval",
      "type": "event"
    },
    {
      "inputs": [
        {
          "internalType": "address",
          "name": "account",
          "type": "address"
        }
      ],
      "name": "_isSubscriptionActive",
      "outputs": [
        {
          "internalType": "bool",
          "name": "",
          "type": "bool"
        },
        {
          "internalType": "uint64",
          "name": "",
          "type": "uint64"
        }
      ],
      "stateMutability": "nonpayable",
      "type": "function"
    },
    {
      "inputs": [
        {
          "internalType": "uint64",
          "name": "systemDefinedSubscriptionId",
          "type": "uint64"
        },
        {
          "internalType": "address",
          "name": "tokenAddress",
          "type": "address"
        }
      ],
      "name": "activateSubscription",
      "outputs": [
        {
          "internalType": "bool",
          "name": "",
          "type": "bool"
        }
      ],
      "stateMutability": "nonpayable",
      "type": "function"
    },
    {
      "inputs": [
        {
          "internalType": "address",
          "name": "tokenAddress",
          "type": "address"
        },
        {
          "components": [
            {
              "internalType": "uint64",
              "name": "rate",
              "type": "uint64"
            },
            {
              "internalType": "bool",
              "name": "isActive",
              "type": "bool"
            }
          ],
          "internalType": "struct IBilling.StableCoinState",
          "name": "_stableCoin",
          "type": "tuple"
        }
      ],
      "name": "addStableCoin",
      "outputs": [],
      "stateMutability": "nonpayable",
      "type": "function"
    },
    {
      "inputs": [],
      "name": "cancelSubscription",
      "outputs": [],
      "stateMutability": "nonpayable",
      "type": "function"
    },
    {
      "inputs": [
        {
          "internalType": "uint64",
          "name": "subID",
          "type": "uint64"
        }
      ],
      "name": "cancelSystemSubscription",
      "outputs": [],
      "stateMutability": "nonpayable",
      "type": "function"
    },
    {
      "inputs": [
        {
          "internalType": "address",
          "name": "_asset",
          "type": "address"
        },
        {
          "internalType": "address",
          "name": "_to",
          "type": "address"
        },
        {
          "internalType": "uint256",
          "name": "_amount",
          "type": "uint256"
        }
      ],
      "name": "claim",
      "outputs": [],
      "stateMutability": "nonpayable",
      "type": "function"
    },
    {
      "inputs": [
        {
          "internalType": "uint256",
          "name": "",
          "type": "uint256"
        }
      ],
      "name": "contractSubscriptions",
      "outputs": [
        {
          "internalType": "uint32",
          "name": "frequencyOfDeduction",
          "type": "uint32"
        },
        {
          "internalType": "uint32",
          "name": "deductionIN",
          "type": "uint32"
        },
        {
          "internalType": "uint128",
          "name": "amount",
          "type": "uint128"
        },
        {
          "internalType": "bool",
          "name": "isActive",
          "type": "bool"
        },
        {
          "internalType": "bytes7",
          "name": "code",
          "type": "bytes7"
        }
      ],
      "stateMutability": "view",
      "type": "function"
    },
    {
      "inputs": [
        {
          "components": [
            {
              "internalType": "uint32",
              "name": "frequencyOfDeduction",
              "type": "uint32"
            },
            {
              "internalType": "uint32",
              "name": "deductionIN",
              "type": "uint32"
            },
            {
              "internalType": "uint128",
              "name": "amount",
              "type": "uint128"
            },
            {
              "internalType": "bool",
              "name": "isActive",
              "type": "bool"
            },
            {
              "internalType": "bytes7",
              "name": "code",
              "type": "bytes7"
            }
          ],
          "internalType": "struct IBilling.SystemDefinedSubscription",
          "name": "_sub",
          "type": "tuple"
        }
      ],
      "name": "createSystemSubscription",
      "outputs": [
        {
          "internalType": "uint64",
          "name": "",
          "type": "uint64"
        }
      ],
      "stateMutability": "nonpayable",
      "type": "function"
    },
    {
      "inputs": [
        {
          "internalType": "address",
          "name": "tokenAddress",
          "type": "address"
        },
        {
          "internalType": "uint64",
          "name": "subscriptionID",
          "type": "uint64"
        }
      ],
      "name": "getAmountToBeDeducted",
      "outputs": [
        {
          "internalType": "uint256",
          "name": "",
          "type": "uint256"
        }
      ],
      "stateMutability": "view",
      "type": "function"
    },
    {
      "inputs": [
        {
          "internalType": "uint96",
          "name": "subscriptionId",
          "type": "uint96"
        },
        {
          "internalType": "uint32",
          "name": "increase",
          "type": "uint32"
        }
      ],
      "name": "increaseBlockNumber",
      "outputs": [],
      "stateMutability": "nonpayable",
      "type": "function"
    },
    {
      "inputs": [],
      "name": "initialize",
      "outputs": [],
      "stateMutability": "nonpayable",
      "type": "function"
    },
    {
      "inputs": [
        {
          "internalType": "address",
          "name": "account",
          "type": "address"
        }
      ],
      "name": "isSubscriptionActive",
      "outputs": [],
      "stateMutability": "nonpayable",
      "type": "function"
    },
    {
      "inputs": [],
      "name": "owner",
      "outputs": [
        {
          "internalType": "address",
          "name": "",
          "type": "address"
        }
      ],
      "stateMutability": "view",
      "type": "function"
    },
    {
      "inputs": [],
      "name": "proxiableUUID",
      "outputs": [
        {
          "internalType": "bytes32",
          "name": "",
          "type": "bytes32"
        }
      ],
      "stateMutability": "view",
      "type": "function"
    },
    {
      "inputs": [],
      "name": "renounceOwnership",
      "outputs": [],
      "stateMutability": "nonpayable",
      "type": "function"
    },
    {
      "inputs": [
        {
          "internalType": "address",
          "name": "",
          "type": "address"
        }
      ],
      "name": "stableCoinStatus",
      "outputs": [
        {
          "internalType": "uint64",
          "name": "rate",
          "type": "uint64"
        },
        {
          "internalType": "bool",
          "name": "isActive",
          "type": "bool"
        }
      ],
      "stateMutability": "view",
      "type": "function"
    },
    {
      "inputs": [
        {
          "internalType": "address",
          "name": "newOwner",
          "type": "address"
        }
      ],
      "name": "transferOwnership",
      "outputs": [],
      "stateMutability": "nonpayable",
      "type": "function"
    },
    {
      "inputs": [
        {
          "internalType": "address",
          "name": "newImplementation",
          "type": "address"
        }
      ],
      "name": "upgradeTo",
      "outputs": [],
      "stateMutability": "nonpayable",
      "type": "function"
    },
    {
      "inputs": [
        {
          "internalType": "address",
          "name": "newImplementation",
          "type": "address"
        },
        {
          "internalType": "bytes",
          "name": "data",
          "type": "bytes"
        }
      ],
      "name": "upgradeToAndCall",
      "outputs": [],
      "stateMutability": "payable",
      "type": "function"
    }
  ],
  "bytecode": "0x60a06040523073ffffffffffffffffffffffffffffffffffffffff1660809073ffffffffffffffffffffffffffffffffffffffff1660601b81525034801561004657600080fd5b5060805160601c614a6961008160003960008181610da901528181610e38015281816111be0152818161124d01526112fd0152614a696000f3fe6080604052600436106101145760003560e01c806368134ef3116100a05780639027c861116100645780639027c8611461036a578063996cba68146103ab578063e1925f0c146103d4578063ef101ee714610411578063f2fde38b1461043a57610114565b806368134ef314610296578063715018a6146102d3578063758ecb96146102ea5780638129fc1c146103285780638da5cb5b1461033f57610114565b806333377717116100e757806333377717146101d45780633659cfe6146101fd5780634b2a7369146102265780634f1ef2861461024f57806352d1902d1461026b57610114565b806301208f051461011957806314401329146101565780631626506d1461017f57806324e9edb0146101bd575b600080fd5b34801561012557600080fd5b50610140600480360381019061013b91906131b2565b610463565b60405161014d9190613a15565b60405180910390f35b34801561016257600080fd5b5061017d60048036038101906101789190612ff3565b610530565b005b34801561018b57600080fd5b506101a660048036038101906101a19190612ff3565b61059e565b6040516101b4929190613726565b60405180910390f35b3480156101c957600080fd5b506101d2610830565b005b3480156101e057600080fd5b506101fb60048036038101906101f691906130bf565b610b4a565b005b34801561020957600080fd5b50610224600480360381019061021f9190612ff3565b610da7565b005b34801561023257600080fd5b5061024d600480360381019061024891906132bb565b610f56565b005b6102696004803603810190610264919061306b565b6111bc565b005b34801561027757600080fd5b506102806112f9565b60405161028d919061374f565b60405180910390f35b3480156102a257600080fd5b506102bd60048036038101906102b89190613256565b6113b2565b6040516102ca919061370b565b60405180910390f35b3480156102df57600080fd5b506102e861189a565b005b3480156102f657600080fd5b50610311600480360381019061030c9190612ff3565b611922565b60405161031f929190613a30565b60405180910390f35b34801561033457600080fd5b5061033d611967565b005b34801561034b57600080fd5b50610354611a03565b604051610361919061363e565b60405180910390f35b34801561037657600080fd5b50610391600480360381019061038c91906131db565b611a2d565b6040516103a29594939291906139c2565b60405180910390f35b3480156103b757600080fd5b506103d260048036038101906103cd919061301c565b611ac5565b005b3480156103e057600080fd5b506103fb60048036038101906103f691906130fb565b611cee565b60405161040891906139a7565b60405180910390f35b34801561041d57600080fd5b506104386004803603810190610433919061322d565b611f39565b005b34801561044657600080fd5b50610461600480360381019061045c9190612ff3565b6120bc565b005b600061046d6121b4565b73ffffffffffffffffffffffffffffffffffffffff1661048b611a03565b73ffffffffffffffffffffffffffffffffffffffff16146104e1576040517f08c379a00000000000000000000000000000000000000000000000000000000081526004016104d890613947565b60405180910390fd5b60c9829080600181540180825580915050600190039060005260206000200160009091909190915081816105159190614823565b5050600160c9805490506105299190613dc9565b9050919050565b60008061053c8361059e565b915091508067ffffffffffffffff168373ffffffffffffffffffffffffffffffffffffffff167f73862c3d9b780c06c1c5d011a2ad633bec8b8993f7cb9aa8b794b2b46c4c425084604051610591919061370b565b60405180910390a3505050565b600080600060cb60006105af6121b4565b73ffffffffffffffffffffffffffffffffffffffff1673ffffffffffffffffffffffffffffffffffffffff16815260200190815260200160002060000160049054906101000a90046bffffffffffffffffffffffff166bffffffffffffffffffffffff16141561062d57600067ffffffffffffffff9150915061082b565b60c960cb60008573ffffffffffffffffffffffffffffffffffffffff1673ffffffffffffffffffffffffffffffffffffffff16815260200190815260200160002060000160109054906101000a900467ffffffffffffffff1667ffffffffffffffff16815481106106c7577f4e487b7100000000000000000000000000000000000000000000000000000000600052603260045260246000fd5b9060005260206000200160000160049054906101000a900463ffffffff1663ffffffff1660cb60008573ffffffffffffffffffffffffffffffffffffffff1673ffffffffffffffffffffffffffffffffffffffff16815260200190815260200160002060000160049054906101000a90046bffffffffffffffffffffffff166bffffffffffffffffffffffff164361075f9190613d61565b116107c657600160cb60008573ffffffffffffffffffffffffffffffffffffffff1673ffffffffffffffffffffffffffffffffffffffff16815260200190815260200160002060000160109054906101000a900467ffffffffffffffff169150915061082b565b6107cf836121bc565b60cb60008573ffffffffffffffffffffffffffffffffffffffff1673ffffffffffffffffffffffffffffffffffffffff16815260200190815260200160002060000160109054906101000a900467ffffffffffffffff16915091505b915091565b600060cb600061083e6121b4565b73ffffffffffffffffffffffffffffffffffffffff1673ffffffffffffffffffffffffffffffffffffffff16815260200190815260200160002060000160009054906101000a900463ffffffff1663ffffffff1614156108d3576040517f08c379a00000000000000000000000000000000000000000000000000000000081526004016108ca90613807565b60405180910390fd5b600060cb60006108e16121b4565b73ffffffffffffffffffffffffffffffffffffffff1673ffffffffffffffffffffffffffffffffffffffff16815260200190815260200160002060000160006101000a81548163ffffffff021916908363ffffffff160217905550600160cb600061094a6121b4565b73ffffffffffffffffffffffffffffffffffffffff1673ffffffffffffffffffffffffffffffffffffffff16815260200190815260200160002060000160186101000a81548160ff02191690831515021790555060cb60006109aa6121b4565b73ffffffffffffffffffffffffffffffffffffffff1673ffffffffffffffffffffffffffffffffffffffff16815260200190815260200160002060010160009054906101000a900473ffffffffffffffffffffffffffffffffffffffff1673ffffffffffffffffffffffffffffffffffffffff1663095ea7b33060006040518363ffffffff1660e01b8152600401610a439291906136b9565b602060405180830381600087803b158015610a5d57600080fd5b505af1158015610a71573d6000803e3d6000fd5b505050506040513d601f19601f82011682018060405250810190610a959190613160565b5060cb6000610aa26121b4565b73ffffffffffffffffffffffffffffffffffffffff1673ffffffffffffffffffffffffffffffffffffffff16815260200190815260200160002060000160109054906101000a900467ffffffffffffffff1667ffffffffffffffff16610b066121b4565b73ffffffffffffffffffffffffffffffffffffffff167f6304f63f371bc518c6bc9e57165a4881eb87e6fea7b5b5efd45cb42254c129c460405160405180910390a3565b610b526121b4565b73ffffffffffffffffffffffffffffffffffffffff16610b70611a03565b73ffffffffffffffffffffffffffffffffffffffff1614610bc6576040517f08c379a0000000000000000000000000000000000000000000000000000000008152600401610bbd90613947565b60405180910390fd5b600073ffffffffffffffffffffffffffffffffffffffff168273ffffffffffffffffffffffffffffffffffffffff161415610c2a577f4e487b7100000000000000000000000000000000000000000000000000000000600052600160045260246000fd5b600060ca60008473ffffffffffffffffffffffffffffffffffffffff1673ffffffffffffffffffffffffffffffffffffffff16815260200190815260200160002060000160009054906101000a900467ffffffffffffffff1667ffffffffffffffff1614610cc1577f4e487b7100000000000000000000000000000000000000000000000000000000600052600160045260246000fd5b8060ca60008473ffffffffffffffffffffffffffffffffffffffff1673ffffffffffffffffffffffffffffffffffffffff1681526020019081526020016000208181610d0d9190614815565b905050806020016020810190610d239190613137565b15158273ffffffffffffffffffffffffffffffffffffffff16610d446121b4565b73ffffffffffffffffffffffffffffffffffffffff167f48f44ff91d7f10f98e4dd0dbbfdb79d78ecb87891909cb92d23907b14978491e846000016020810190610d8e919061322d565b604051610d9b9190613a15565b60405180910390a45050565b7f000000000000000000000000000000000000000000000000000000000000000073ffffffffffffffffffffffffffffffffffffffff163073ffffffffffffffffffffffffffffffffffffffff161415610e36576040517f08c379a0000000000000000000000000000000000000000000000000000000008152600401610e2d906137e7565b60405180910390fd5b7f000000000000000000000000000000000000000000000000000000000000000073ffffffffffffffffffffffffffffffffffffffff16610e75612642565b73ffffffffffffffffffffffffffffffffffffffff1614610ecb576040517f08c379a0000000000000000000000000000000000000000000000000000000008152600401610ec290613887565b60405180910390fd5b610ed481612699565b610f5381600067ffffffffffffffff811115610f19577f4e487b7100000000000000000000000000000000000000000000000000000000600052604160045260246000fd5b6040519080825280601f01601f191660200182016040528015610f4b5781602001600182028036833780820191505090505b506000612779565b50565b610f5e6121b4565b73ffffffffffffffffffffffffffffffffffffffff16610f7c611a03565b73ffffffffffffffffffffffffffffffffffffffff1614610fd2576040517f08c379a0000000000000000000000000000000000000000000000000000000008152600401610fc990613947565b60405180910390fd5b600060c9836bffffffffffffffffffffffff168154811061101c577f4e487b7100000000000000000000000000000000000000000000000000000000600052603260045260246000fd5b9060005260206000200160000160049054906101000a900463ffffffff1663ffffffff1611611074577f4e487b7100000000000000000000000000000000000000000000000000000000600052600160045260246000fd5b8060c9836bffffffffffffffffffffffff16815481106110bd577f4e487b7100000000000000000000000000000000000000000000000000000000600052603260045260246000fd5b9060005260206000200160000160049054906101000a900463ffffffff166110e59190613ae1565b60c9836bffffffffffffffffffffffff168154811061112d577f4e487b7100000000000000000000000000000000000000000000000000000000600052603260045260246000fd5b9060005260206000200160000160046101000a81548163ffffffff021916908363ffffffff1602179055508063ffffffff16826bffffffffffffffffffffffff166111766121b4565b73ffffffffffffffffffffffffffffffffffffffff167f0f8e509f0857af364a73f5af37192486094bd78f81fd4f5320558d7a5d63a21960405160405180910390a45050565b7f000000000000000000000000000000000000000000000000000000000000000073ffffffffffffffffffffffffffffffffffffffff163073ffffffffffffffffffffffffffffffffffffffff16141561124b576040517f08c379a0000000000000000000000000000000000000000000000000000000008152600401611242906137e7565b60405180910390fd5b7f000000000000000000000000000000000000000000000000000000000000000073ffffffffffffffffffffffffffffffffffffffff1661128a612642565b73ffffffffffffffffffffffffffffffffffffffff16146112e0576040517f08c379a00000000000000000000000000000000000000000000000000000000081526004016112d790613887565b60405180910390fd5b6112e982612699565b6112f582826001612779565b5050565b60007f000000000000000000000000000000000000000000000000000000000000000073ffffffffffffffffffffffffffffffffffffffff163073ffffffffffffffffffffffffffffffffffffffff1614611389576040517f08c379a0000000000000000000000000000000000000000000000000000000008152600401611380906138a7565b60405180910390fd5b7f360894a13ba1a3210667c828492db98dca3e2076cc3735a920a3ca505d382bbc60001b905090565b60006001151560ca60008473ffffffffffffffffffffffffffffffffffffffff1673ffffffffffffffffffffffffffffffffffffffff16815260200190815260200160002060000160089054906101000a900460ff1615151461143e577f4e487b7100000000000000000000000000000000000000000000000000000000600052600160045260246000fd5b600060c98467ffffffffffffffff1681548110611484577f4e487b7100000000000000000000000000000000000000000000000000000000600052603260045260246000fd5b906000526020600020019050600115158160000160189054906101000a900460ff161515146114e8576040517f08c379a00000000000000000000000000000000000000000000000000000000081526004016114df90613847565b60405180910390fd5b600060cb60006114f66121b4565b73ffffffffffffffffffffffffffffffffffffffff1673ffffffffffffffffffffffffffffffffffffffff16815260200190815260200160002060000160009054906101000a900463ffffffff1663ffffffff161461157e577f4e487b7100000000000000000000000000000000000000000000000000000000600052600160045260246000fd5b600061158a8486611cee565b9050808260000160009054906101000a900463ffffffff1663ffffffff166115b29190613d07565b8473ffffffffffffffffffffffffffffffffffffffff1663dd62ed3e6115d66121b4565b306040518363ffffffff1660e01b81526004016115f4929190613659565b60206040518083038186803b15801561160c57600080fd5b505afa158015611620573d6000803e3d6000fd5b505050506040513d601f19601f820116820180604052508101906116449190613204565b1015611685576040517f08c379a000000000000000000000000000000000000000000000000000000000815260040161167c906137a7565b60405180910390fd5b6040518060c001604052808360000160009054906101000a900463ffffffff1663ffffffff16815260200160006bffffffffffffffffffffffff1681526020018667ffffffffffffffff1681526020016000151581526020018573ffffffffffffffffffffffffffffffffffffffff168152602001436bffffffffffffffffffffffff1681525060cb60006117186121b4565b73ffffffffffffffffffffffffffffffffffffffff1673ffffffffffffffffffffffffffffffffffffffff16815260200190815260200160002060008201518160000160006101000a81548163ffffffff021916908363ffffffff16021790555060208201518160000160046101000a8154816bffffffffffffffffffffffff02191690836bffffffffffffffffffffffff16021790555060408201518160000160106101000a81548167ffffffffffffffff021916908367ffffffffffffffff16021790555060608201518160000160186101000a81548160ff02191690831515021790555060808201518160010160006101000a81548173ffffffffffffffffffffffffffffffffffffffff021916908373ffffffffffffffffffffffffffffffffffffffff16021790555060a08201518160010160146101000a8154816bffffffffffffffffffffffff02191690836bffffffffffffffffffffffff16021790555090505061189061188b6121b4565b6121bc565b9250505092915050565b6118a26121b4565b73ffffffffffffffffffffffffffffffffffffffff166118c0611a03565b73ffffffffffffffffffffffffffffffffffffffff1614611916576040517f08c379a000000000000000000000000000000000000000000000000000000000815260040161190d90613947565b60405180910390fd5b61192060006128f6565b565b60ca6020528060005260406000206000915090508060000160009054906101000a900467ffffffffffffffff16908060000160089054906101000a900460ff16905082565b600061197360016129bc565b90508015611997576001600060016101000a81548160ff0219169083151502179055505b61199f612aac565b6119a7612b05565b8015611a005760008060016101000a81548160ff0219169083151502179055507f7f26b83ff96e1f2b6a682f133852f6798a09c465da95921460cefb384740249860016040516119f7919061376a565b60405180910390a15b50565b6000603360009054906101000a900473ffffffffffffffffffffffffffffffffffffffff16905090565b60c98181548110611a3d57600080fd5b906000526020600020016000915090508060000160009054906101000a900463ffffffff16908060000160049054906101000a900463ffffffff16908060000160089054906101000a90046fffffffffffffffffffffffffffffffff16908060000160189054906101000a900460ff16908060000160199054906101000a900460c81b905085565b611acd6121b4565b73ffffffffffffffffffffffffffffffffffffffff16611aeb611a03565b73ffffffffffffffffffffffffffffffffffffffff1614611b41576040517f08c379a0000000000000000000000000000000000000000000000000000000008152600401611b3890613947565b60405180910390fd5b808373ffffffffffffffffffffffffffffffffffffffff166370a08231306040518263ffffffff1660e01b8152600401611b7b919061363e565b60206040518083038186803b158015611b9357600080fd5b505afa158015611ba7573d6000803e3d6000fd5b505050506040513d601f19601f82011682018060405250810190611bcb9190613204565b1015611c00577f4e487b7100000000000000000000000000000000000000000000000000000000600052600160045260246000fd5b8273ffffffffffffffffffffffffffffffffffffffff1663095ea7b383836040518363ffffffff1660e01b8152600401611c3b9291906136e2565b602060405180830381600087803b158015611c5557600080fd5b505af1158015611c69573d6000803e3d6000fd5b505050506040513d601f19601f82011682018060405250810190611c8d9190613160565b50808373ffffffffffffffffffffffffffffffffffffffff168373ffffffffffffffffffffffffffffffffffffffff167f5a6ad959135224fa7091d784adcf326544e674afc0cd3a125f76e2e6b29cc36660405160405180910390a4505050565b60008060ca60008573ffffffffffffffffffffffffffffffffffffffff1673ffffffffffffffffffffffffffffffffffffffff16815260200190815260200160002060000160009054906101000a900467ffffffffffffffff1667ffffffffffffffff1611611d92576040517f08c379a0000000000000000000000000000000000000000000000000000000008152600401611d8990613867565b60405180910390fd5b611f31620f424080611da49190613d07565b8473ffffffffffffffffffffffffffffffffffffffff1663313ce5676040518163ffffffff1660e01b815260040160206040518083038186803b158015611dea57600080fd5b505afa158015611dfe573d6000803e3d6000fd5b505050506040513d601f19601f82011682018060405250810190611e229190613292565b600a611e2e9190613b9f565b60ca60008773ffffffffffffffffffffffffffffffffffffffff1673ffffffffffffffffffffffffffffffffffffffff16815260200190815260200160002060000160009054906101000a900467ffffffffffffffff1667ffffffffffffffff1660c98667ffffffffffffffff1681548110611ed3577f4e487b7100000000000000000000000000000000000000000000000000000000600052603260045260246000fd5b9060005260206000200160000160089054906101000a90046fffffffffffffffffffffffffffffffff16611f079190613cbd565b6fffffffffffffffffffffffffffffffff16611f239190613d07565b612b5690919063ffffffff16565b905092915050565b611f416121b4565b73ffffffffffffffffffffffffffffffffffffffff16611f5f611a03565b73ffffffffffffffffffffffffffffffffffffffff1614611fb5576040517f08c379a0000000000000000000000000000000000000000000000000000000008152600401611fac90613947565b60405180910390fd5b6000151560c98267ffffffffffffffff1681548110611ffd577f4e487b7100000000000000000000000000000000000000000000000000000000600052603260045260246000fd5b9060005260206000200160000160189054906101000a900460ff161515141561204f577f4e487b7100000000000000000000000000000000000000000000000000000000600052600160045260246000fd5b600060c98267ffffffffffffffff1681548110612095577f4e487b7100000000000000000000000000000000000000000000000000000000600052603260045260246000fd5b9060005260206000200160000160186101000a81548160ff02191690831515021790555050565b6120c46121b4565b73ffffffffffffffffffffffffffffffffffffffff166120e2611a03565b73ffffffffffffffffffffffffffffffffffffffff1614612138576040517f08c379a000000000000000000000000000000000000000000000000000000000815260040161212f90613947565b60405180910390fd5b600073ffffffffffffffffffffffffffffffffffffffff168173ffffffffffffffffffffffffffffffffffffffff1614156121a8576040517f08c379a000000000000000000000000000000000000000000000000000000000815260040161219f906137c7565b60405180910390fd5b6121b1816128f6565b50565b600033905090565b60008060cb60008473ffffffffffffffffffffffffffffffffffffffff1673ffffffffffffffffffffffffffffffffffffffff168152602001908152602001600020905060008160000160009054906101000a900463ffffffff1663ffffffff161161225d576040517f08c379a000000000000000000000000000000000000000000000000000000000815260040161225490613827565b60405180910390fd5b60c98160000160109054906101000a900467ffffffffffffffff1667ffffffffffffffff16815481106122b9577f4e487b7100000000000000000000000000000000000000000000000000000000600052603260045260246000fd5b9060005260206000200160000160009054906101000a900463ffffffff1663ffffffff168160000160049054906101000a90046bffffffffffffffffffffffff166bffffffffffffffffffffffff16436123139190613d61565b1161231d57600080fd5b6123638160010160009054906101000a900473ffffffffffffffffffffffffffffffffffffffff168260000160109054906101000a900467ffffffffffffffff16611cee565b8160010160009054906101000a900473ffffffffffffffffffffffffffffffffffffffff1673ffffffffffffffffffffffffffffffffffffffff166370a082316123ab6121b4565b6040518263ffffffff1660e01b81526004016123c7919061363e565b60206040518083038186803b1580156123df57600080fd5b505afa1580156123f3573d6000803e3d6000fd5b505050506040513d601f19601f820116820180604052508101906124179190613204565b101561242757600091505061263d565b8060010160009054906101000a900473ffffffffffffffffffffffffffffffffffffffff1673ffffffffffffffffffffffffffffffffffffffff166323b872dd84306124af8560010160009054906101000a900473ffffffffffffffffffffffffffffffffffffffff168660000160109054906101000a900467ffffffffffffffff16611cee565b6040518463ffffffff1660e01b81526004016124cd93929190613682565b602060405180830381600087803b1580156124e757600080fd5b505af11580156124fb573d6000803e3d6000fd5b505050506040513d601f19601f8201168201806040525081019061251f9190613160565b5060018160000160009054906101000a900463ffffffff166125419190613d95565b8160000160006101000a81548163ffffffff021916908363ffffffff160217905550438160000160046101000a8154816bffffffffffffffffffffffff02191690836bffffffffffffffffffffffff1602179055508060010160009054906101000a900473ffffffffffffffffffffffffffffffffffffffff1673ffffffffffffffffffffffffffffffffffffffff168160000160109054906101000a900467ffffffffffffffff1667ffffffffffffffff168473ffffffffffffffffffffffffffffffffffffffff167ff86ec958b5a2e4fee68cf11adb77352a0150aad78babe83e217e2fd3c31b5e3660405160405180910390a460019150505b919050565b60006126707f360894a13ba1a3210667c828492db98dca3e2076cc3735a920a3ca505d382bbc60001b612b6c565b60000160009054906101000a900473ffffffffffffffffffffffffffffffffffffffff16905090565b6126a16121b4565b73ffffffffffffffffffffffffffffffffffffffff166126bf611a03565b73ffffffffffffffffffffffffffffffffffffffff1614612715576040517f08c379a000000000000000000000000000000000000000000000000000000000815260040161270c90613947565b60405180910390fd5b8073ffffffffffffffffffffffffffffffffffffffff166127346121b4565b73ffffffffffffffffffffffffffffffffffffffff167fe599b5079b4c1eb212a1c7e7d9fbc7eb93470cb9a80ce244cd81cc284e4f1ebd60405160405180910390a350565b6127a57f4910fdfa16fed3260ed0e7147f7cc6da11a60208b5b9406d12a635614ffd914360001b612b76565b60000160009054906101000a900460ff16156127c9576127c483612b80565b6128f1565b8273ffffffffffffffffffffffffffffffffffffffff166352d1902d6040518163ffffffff1660e01b815260040160206040518083038186803b15801561280f57600080fd5b505afa92505050801561284057506040513d601f19601f8201168201806040525081019061283d9190613189565b60015b61287f576040517f08c379a000000000000000000000000000000000000000000000000000000000815260040161287690613907565b60405180910390fd5b7f360894a13ba1a3210667c828492db98dca3e2076cc3735a920a3ca505d382bbc60001b81146128e4576040517f08c379a00000000000000000000000000000000000000000000000000000000081526004016128db906138c7565b60405180910390fd5b506128f0838383612c39565b5b505050565b6000603360009054906101000a900473ffffffffffffffffffffffffffffffffffffffff16905081603360006101000a81548173ffffffffffffffffffffffffffffffffffffffff021916908373ffffffffffffffffffffffffffffffffffffffff1602179055508173ffffffffffffffffffffffffffffffffffffffff168173ffffffffffffffffffffffffffffffffffffffff167f8be0079c531659141344cd1fd0a4f28419497f9722a3daafe3b4186f6b6457e060405160405180910390a35050565b60008060019054906101000a900460ff1615612a335760018260ff161480156129eb57506129e930612c65565b155b612a2a576040517f08c379a0000000000000000000000000000000000000000000000000000000008152600401612a21906138e7565b60405180910390fd5b60009050612aa7565b8160ff1660008054906101000a900460ff1660ff1610612a88576040517f08c379a0000000000000000000000000000000000000000000000000000000008152600401612a7f906138e7565b60405180910390fd5b816000806101000a81548160ff021916908360ff160217905550600190505b919050565b600060019054906101000a900460ff16612afb576040517f08c379a0000000000000000000000000000000000000000000000000000000008152600401612af290613987565b60405180910390fd5b612b03612c88565b565b600060019054906101000a900460ff16612b54576040517f08c379a0000000000000000000000000000000000000000000000000000000008152600401612b4b90613987565b60405180910390fd5b565b60008183612b649190613b1b565b905092915050565b6000819050919050565b6000819050919050565b612b8981612c65565b612bc8576040517f08c379a0000000000000000000000000000000000000000000000000000000008152600401612bbf90613927565b60405180910390fd5b80612bf57f360894a13ba1a3210667c828492db98dca3e2076cc3735a920a3ca505d382bbc60001b612b6c565b60000160006101000a81548173ffffffffffffffffffffffffffffffffffffffff021916908373ffffffffffffffffffffffffffffffffffffffff16021790555050565b612c4283612ce9565b600082511180612c4f5750805b15612c6057612c5e8383612d38565b505b505050565b6000808273ffffffffffffffffffffffffffffffffffffffff163b119050919050565b600060019054906101000a900460ff16612cd7576040517f08c379a0000000000000000000000000000000000000000000000000000000008152600401612cce90613987565b60405180910390fd5b612ce7612ce26121b4565b6128f6565b565b612cf281612b80565b8073ffffffffffffffffffffffffffffffffffffffff167fbc7cd75a20ee27fd9adebab32041f755214dbc6bffa90cc0225b39da2e5c2d3b60405160405180910390a250565b6060612d4383612c65565b612d82576040517f08c379a0000000000000000000000000000000000000000000000000000000008152600401612d7990613967565b60405180910390fd5b6000808473ffffffffffffffffffffffffffffffffffffffff1684604051612daa9190613627565b600060405180830381855af49150503d8060008114612de5576040519150601f19603f3d011682016040523d82523d6000602084013e612dea565b606091505b5091509150612e128282604051806060016040528060278152602001614a0d60279139612e1c565b9250505092915050565b60608315612e2c57829050612e7c565b600083511115612e3f5782518084602001fd5b816040517f08c379a0000000000000000000000000000000000000000000000000000000008152600401612e739190613785565b60405180910390fd5b9392505050565b6000612e96612e9184613a7e565b613a59565b905082815260208101848484011115612eae57600080fd5b612eb9848285613f5e565b509392505050565b600081359050612ed081614926565b92915050565b600081359050612ee58161493d565b92915050565b600081519050612efa8161493d565b92915050565b600081519050612f0f81614954565b92915050565b600082601f830112612f2657600080fd5b8135612f36848260208601612e83565b91505092915050565b600060408284031215612f5157600080fd5b81905092915050565b600060a08284031215612f6c57600080fd5b81905092915050565b600081359050612f8481614999565b92915050565b600081519050612f9981614999565b92915050565b600081359050612fae816149b0565b92915050565b600081359050612fc3816149c7565b92915050565b600081519050612fd8816149de565b92915050565b600081359050612fed816149f5565b92915050565b60006020828403121561300557600080fd5b600061301384828501612ec1565b91505092915050565b60008060006060848603121561303157600080fd5b600061303f86828701612ec1565b935050602061305086828701612ec1565b925050604061306186828701612f75565b9150509250925092565b6000806040838503121561307e57600080fd5b600061308c85828601612ec1565b925050602083013567ffffffffffffffff8111156130a957600080fd5b6130b585828601612f15565b9150509250929050565b600080606083850312156130d257600080fd5b60006130e085828601612ec1565b92505060206130f185828601612f3f565b9150509250929050565b6000806040838503121561310e57600080fd5b600061311c85828601612ec1565b925050602061312d85828601612fb4565b9150509250929050565b60006020828403121561314957600080fd5b600061315784828501612ed6565b91505092915050565b60006020828403121561317257600080fd5b600061318084828501612eeb565b91505092915050565b60006020828403121561319b57600080fd5b60006131a984828501612f00565b91505092915050565b600060a082840312156131c457600080fd5b60006131d284828501612f5a565b91505092915050565b6000602082840312156131ed57600080fd5b60006131fb84828501612f75565b91505092915050565b60006020828403121561321657600080fd5b600061322484828501612f8a565b91505092915050565b60006020828403121561323f57600080fd5b600061324d84828501612fb4565b91505092915050565b6000806040838503121561326957600080fd5b600061327785828601612fb4565b925050602061328885828601612ec1565b9150509250929050565b6000602082840312156132a457600080fd5b60006132b284828501612fc9565b91505092915050565b600080604083850312156132ce57600080fd5b60006132dc85828601612fde565b92505060206132ed85828601612f9f565b9150509250929050565b61330081613dfd565b82525050565b61330f81613e0f565b82525050565b61331e81613e1b565b82525050565b61332d81613e25565b82525050565b600061333e82613aaf565b6133488185613ac5565b9350613358818560208601613f6d565b80840191505092915050565b61336d81613f04565b82525050565b61337c81613f16565b82525050565b600061338d82613aba565b6133978185613ad0565b93506133a7818560208601613f6d565b6133b0816141f5565b840191505092915050565b60006133c8602883613ad0565b91506133d382614261565b604082019050919050565b60006133eb602683613ad0565b91506133f6826142b0565b604082019050919050565b600061340e602c83613ad0565b9150613419826142ff565b604082019050919050565b6000613431601683613ad0565b915061343c8261434e565b602082019050919050565b6000613454602583613ad0565b915061345f82614377565b604082019050919050565b6000613477601683613ad0565b9150613482826143c6565b602082019050919050565b600061349a602083613ad0565b91506134a5826143ef565b602082019050919050565b60006134bd602c83613ad0565b91506134c882614418565b604082019050919050565b60006134e0603883613ad0565b91506134eb82614467565b604082019050919050565b6000613503602983613ad0565b915061350e826144b6565b604082019050919050565b6000613526602e83613ad0565b915061353182614505565b604082019050919050565b6000613549602e83613ad0565b915061355482614554565b604082019050919050565b600061356c602d83613ad0565b9150613577826145a3565b604082019050919050565b600061358f602083613ad0565b915061359a826145f2565b602082019050919050565b60006135b2602683613ad0565b91506135bd8261461b565b604082019050919050565b60006135d5602b83613ad0565b91506135e08261466a565b604082019050919050565b6135f481613e51565b82525050565b61360381613e8d565b82525050565b61361281613e97565b82525050565b61362181613ea7565b82525050565b60006136338284613333565b915081905092915050565b600060208201905061365360008301846132f7565b92915050565b600060408201905061366e60008301856132f7565b61367b60208301846132f7565b9392505050565b600060608201905061369760008301866132f7565b6136a460208301856132f7565b6136b160408301846135fa565b949350505050565b60006040820190506136ce60008301856132f7565b6136db6020830184613364565b9392505050565b60006040820190506136f760008301856132f7565b61370460208301846135fa565b9392505050565b60006020820190506137206000830184613306565b92915050565b600060408201905061373b6000830185613306565b6137486020830184613618565b9392505050565b60006020820190506137646000830184613315565b92915050565b600060208201905061377f6000830184613373565b92915050565b6000602082019050818103600083015261379f8184613382565b905092915050565b600060208201905081810360008301526137c0816133bb565b9050919050565b600060208201905081810360008301526137e0816133de565b9050919050565b6000602082019050818103600083015261380081613401565b9050919050565b6000602082019050818103600083015261382081613424565b9050919050565b6000602082019050818103600083015261384081613447565b9050919050565b600060208201905081810360008301526138608161346a565b9050919050565b600060208201905081810360008301526138808161348d565b9050919050565b600060208201905081810360008301526138a0816134b0565b9050919050565b600060208201905081810360008301526138c0816134d3565b9050919050565b600060208201905081810360008301526138e0816134f6565b9050919050565b6000602082019050818103600083015261390081613519565b9050919050565b600060208201905081810360008301526139208161353c565b9050919050565b600060208201905081810360008301526139408161355f565b9050919050565b6000602082019050818103600083015261396081613582565b9050919050565b60006020820190508181036000830152613980816135a5565b9050919050565b600060208201905081810360008301526139a0816135c8565b9050919050565b60006020820190506139bc60008301846135fa565b92915050565b600060a0820190506139d76000830188613609565b6139e46020830187613609565b6139f160408301866135eb565b6139fe6060830185613306565b613a0b6080830184613324565b9695505050505050565b6000602082019050613a2a6000830184613618565b92915050565b6000604082019050613a456000830185613618565b613a526020830184613306565b9392505050565b6000613a63613a74565b9050613a6f828261408f565b919050565b6000604051905090565b600067ffffffffffffffff821115613a9957613a9861411e565b5b613aa2826141f5565b9050602081019050919050565b600081519050919050565b600081519050919050565b600081905092915050565b600082825260208201905092915050565b6000613aec82613e97565b9150613af783613e97565b92508263ffffffff03821115613b1057613b0f6140c0565b5b828201905092915050565b6000613b2682613e8d565b9150613b3183613e8d565b925082613b4157613b406140ef565b5b828204905092915050565b6000808291508390505b6001851115613b9657808604811115613b7257613b716140c0565b5b6001851615613b815780820291505b8081029050613b8f85614247565b9450613b56565b94509492505050565b6000613baa82613e8d565b9150613bb583613ebb565b9250613be27fffffffffffffffffffffffffffffffffffffffffffffffffffffffffffffffff8484613bea565b905092915050565b600082613bfa5760019050613cb6565b81613c085760009050613cb6565b8160018114613c1e5760028114613c2857613c57565b6001915050613cb6565b60ff841115613c3a57613c396140c0565b5b8360020a915084821115613c5157613c506140c0565b5b50613cb6565b5060208310610133831016604e8410600b8410161715613c8c5782820a905083811115613c8757613c866140c0565b5b613cb6565b613c998484846001613b4c565b92509050818404811115613cb057613caf6140c0565b5b81810290505b9392505050565b6000613cc882613e51565b9150613cd383613e51565b9250816fffffffffffffffffffffffffffffffff0483118215151615613cfc57613cfb6140c0565b5b828202905092915050565b6000613d1282613e8d565b9150613d1d83613e8d565b9250817fffffffffffffffffffffffffffffffffffffffffffffffffffffffffffffffff0483118215151615613d5657613d556140c0565b5b828202905092915050565b6000613d6c82613e8d565b9150613d7783613e8d565b925082821015613d8a57613d896140c0565b5b828203905092915050565b6000613da082613e97565b9150613dab83613e97565b925082821015613dbe57613dbd6140c0565b5b828203905092915050565b6000613dd482613ea7565b9150613ddf83613ea7565b925082821015613df257613df16140c0565b5b828203905092915050565b6000613e0882613e6d565b9050919050565b60008115159050919050565b6000819050919050565b60007fffffffffffffff0000000000000000000000000000000000000000000000000082169050919050565b60006fffffffffffffffffffffffffffffffff82169050919050565b600073ffffffffffffffffffffffffffffffffffffffff82169050919050565b6000819050919050565b600063ffffffff82169050919050565b600067ffffffffffffffff82169050919050565b600060ff82169050919050565b60006bffffffffffffffffffffffff82169050919050565b6000613eeb82613e0f565b9050919050565b6000613efd82613e25565b9050919050565b6000613f0f82613e8d565b9050919050565b6000613f2182613ebb565b9050919050565b6000613f3382613e51565b9050919050565b6000613f4582613e97565b9050919050565b6000613f5782613ea7565b9050919050565b82818337600083830152505050565b60005b83811015613f8b578082015181840152602081019050613f70565b83811115613f9a576000848401525b50505050565b600081016000830180613fb2816141df565b9050613fbe8184614854565b505050600081016020830180613fd381614187565b9050613fdf81846148e0565b5050505050565b600081016000830180613ff8816141c9565b90506140048184614831565b505050600081016020830180614019816141c9565b905061402581846148bd565b50505060008101604083018061403a816141b3565b90506140468184614903565b50505060008101606083018061405b81614187565b90506140678184614877565b50505060008101608083018061407c8161419d565b9050614088818461489a565b5050505050565b614098826141f5565b810181811067ffffffffffffffff821117156140b7576140b661411e565b5b80604052505050565b7f4e487b7100000000000000000000000000000000000000000000000000000000600052601160045260246000fd5b7f4e487b7100000000000000000000000000000000000000000000000000000000600052601260045260246000fd5b7f4e487b7100000000000000000000000000000000000000000000000000000000600052604160045260246000fd5b6000819050919050565b600061416282614254565b9050919050565b6000819050919050565b6000819050919050565b6000819050919050565b600081356141948161493d565b80915050919050565b600081356141aa8161496b565b80915050919050565b600081356141c081614982565b80915050919050565b600081356141d6816149b0565b80915050919050565b600081356141ec816149c7565b80915050919050565b6000601f19601f8301169050919050565b60008160001b9050919050565b60008160c01b9050919050565b60008160c81b9050919050565b60008160201b9050919050565b60008160401b9050919050565b60008160011c9050919050565b60008160c81c9050919050565b7f496e63726561736520416c6c6f77616e636520746f206d61746368207375627360008201527f6372697074696f6e000000000000000000000000000000000000000000000000602082015250565b7f4f776e61626c653a206e6577206f776e657220697320746865207a65726f206160008201527f6464726573730000000000000000000000000000000000000000000000000000602082015250565b7f46756e6374696f6e206d7573742062652063616c6c6564207468726f7567682060008201527f64656c656761746563616c6c0000000000000000000000000000000000000000602082015250565b7f4e6f2061637469766520737562736372697074696f6e00000000000000000000600082015250565b7f737562736372697074696f6e2065787069726564206f7220646f65736e27742060008201527f6578697374000000000000000000000000000000000000000000000000000000602082015250565b7f74686973206f6666657220686173206578706972656400000000000000000000600082015250565b7f546f6b656e41646472657373204e6f742041636365707461626c652048455245600082015250565b7f46756e6374696f6e206d7573742062652063616c6c6564207468726f7567682060008201527f6163746976652070726f78790000000000000000000000000000000000000000602082015250565b7f555550535570677261646561626c653a206d757374206e6f742062652063616c60008201527f6c6564207468726f7567682064656c656761746563616c6c0000000000000000602082015250565b7f45524331393637557067726164653a20756e737570706f727465642070726f7860008201527f6961626c65555549440000000000000000000000000000000000000000000000602082015250565b7f496e697469616c697a61626c653a20636f6e747261637420697320616c72656160008201527f647920696e697469616c697a6564000000000000000000000000000000000000602082015250565b7f45524331393637557067726164653a206e657720696d706c656d656e7461746960008201527f6f6e206973206e6f742055555053000000000000000000000000000000000000602082015250565b7f455243313936373a206e657720696d706c656d656e746174696f6e206973206e60008201527f6f74206120636f6e747261637400000000000000000000000000000000000000602082015250565b7f4f776e61626c653a2063616c6c6572206973206e6f7420746865206f776e6572600082015250565b7f416464726573733a2064656c65676174652063616c6c20746f206e6f6e2d636f60008201527f6e74726163740000000000000000000000000000000000000000000000000000602082015250565b7f496e697469616c697a61626c653a20636f6e7472616374206973206e6f74206960008201527f6e697469616c697a696e67000000000000000000000000000000000000000000602082015250565b600077ffffffffffffffffffffffffffffffff00000000000000006146dd8461423a565b9350801983169250808416831791505092915050565b600078ff00000000000000000000000000000000000000000000000061471884614213565b9350801983169250808416831791505092915050565b600068ff00000000000000006147438461423a565b9350801983169250808416831791505092915050565b600063ffffffff61476984614206565b9350801983169250808416831791505092915050565b600067ffffffff000000006147938461422d565b9350801983169250808416831791505092915050565b60007fffffffffffffff000000000000000000000000000000000000000000000000006147d584614220565b9350801983169250808416831791505092915050565b600067ffffffffffffffff6147ff84614206565b9350801983169250808416831791505092915050565b61481f8282613fa0565b5050565b61482d8282613fe6565b5050565b61483a82613f3a565b61484d61484682614173565b8354614759565b8255505050565b61485d82613f4c565b6148706148698261417d565b83546147eb565b8255505050565b61488082613ee0565b61489361488c8261414d565b83546146f3565b8255505050565b6148a382613ef2565b6148b66148af82614157565b83546147a9565b8255505050565b6148c682613f3a565b6148d96148d282614173565b835461477f565b8255505050565b6148e982613ee0565b6148fc6148f58261414d565b835461472e565b8255505050565b61490c82613f28565b61491f61491882614169565b83546146b9565b8255505050565b61492f81613dfd565b811461493a57600080fd5b50565b61494681613e0f565b811461495157600080fd5b50565b61495d81613e1b565b811461496857600080fd5b50565b61497481613e25565b811461497f57600080fd5b50565b61498b81613e51565b811461499657600080fd5b50565b6149a281613e8d565b81146149ad57600080fd5b50565b6149b981613e97565b81146149c457600080fd5b50565b6149d081613ea7565b81146149db57600080fd5b50565b6149e781613ebb565b81146149f257600080fd5b50565b6149fe81613ec8565b8114614a0957600080fd5b5056fe416464726573733a206c6f772d6c6576656c2064656c65676174652063616c6c206661696c6564a26469706673582212205a5a97a340f8a54b8d75301ab33b1c4b2847fc9514c758c7983c4086b94950ff64736f6c63430008040033",
  "linkReferences": {},
  "deployedLinkReferences": {}
}