{
  "_format": "hh-sol-artifact-1",
  "contractName": "Lighthouse",
  "sourceName": "contracts/Lighthouse.sol",
  "abi": [
    {
      "anonymous": false,
      "inputs": [
        {
          "indexed": true,
          "internalType": "address",
          "name": "uploader",
          "type": "address"
        },
        {
          "indexed": false,
          "internalType": "string",
          "name": "cid",
          "type": "string"
        },
        {
          "indexed": false,
          "internalType": "string",
          "name": "config",
          "type": "string"
        },
        {
          "indexed": false,
          "internalType": "uint256",
          "name": "fileCost",
          "type": "uint256"
        },
        {
          "indexed": false,
          "internalType": "string",
          "name": "fileName",
          "type": "string"
        },
        {
          "indexed": false,
          "internalType": "uint256",
          "name": "fileSize",
          "type": "uint256"
        },
        {
          "indexed": false,
          "internalType": "uint256",
          "name": "timestamp",
          "type": "uint256"
        }
      ],
      "name": "StorageRequest",
      "type": "event"
    },
    {
      "anonymous": false,
      "inputs": [
        {
          "indexed": true,
          "internalType": "address",
          "name": "uploader",
          "type": "address"
        },
        {
          "components": [
            {
              "internalType": "string",
              "name": "cid",
              "type": "string"
            },
            {
              "internalType": "string",
              "name": "config",
              "type": "string"
            },
            {
              "internalType": "uint256",
              "name": "fileCost",
              "type": "uint256"
            },
            {
              "internalType": "string",
              "name": "fileName",
              "type": "string"
            },
            {
              "internalType": "uint256",
              "name": "fileSize",
              "type": "uint256"
            },
            {
              "internalType": "uint256",
              "name": "timestamp",
              "type": "uint256"
            }
          ],
          "indexed": false,
          "internalType": "struct Lighthouse.Content[]",
          "name": "contents",
          "type": "tuple[]"
        },
        {
          "indexed": false,
          "internalType": "uint256",
          "name": "timestamp",
          "type": "uint256"
        }
      ],
      "name": "StorageRequest_test",
      "type": "event"
    },
    {
      "anonymous": false,
      "inputs": [
        {
          "indexed": false,
          "internalType": "address",
          "name": "requester",
          "type": "address"
        },
        {
          "indexed": false,
          "internalType": "string",
          "name": "cid",
          "type": "string"
        }
      ],
      "name": "StorageStatusRequest",
      "type": "event"
    },
    {
      "stateMutability": "payable",
      "type": "fallback"
    },
    {
      "inputs": [
        {
          "internalType": "uint256",
          "name": "amount",
          "type": "uint256"
        },
        {
          "internalType": "address payable",
          "name": "recipient",
          "type": "address"
        }
      ],
      "name": "getPaid",
      "outputs": [],
      "stateMutability": "nonpayable",
      "type": "function"
    },
    {
      "inputs": [],
      "name": "owner",
      "outputs": [
        {
          "internalType": "address",
          "name": "",
          "type": "address"
        }
      ],
      "stateMutability": "view",
      "type": "function"
    },
    {
      "inputs": [
        {
          "internalType": "string",
          "name": "cid",
          "type": "string"
        },
        {
          "internalType": "string",
          "name": "dealIds",
          "type": "string"
        },
        {
          "internalType": "bool",
          "name": "active",
          "type": "bool"
        }
      ],
      "name": "publishStorageStatus",
      "outputs": [],
      "stateMutability": "nonpayable",
      "type": "function"
    },
    {
      "inputs": [
        {
          "internalType": "string",
          "name": "cid",
          "type": "string"
        }
      ],
      "name": "requestStorageStatus",
      "outputs": [],
      "stateMutability": "nonpayable",
      "type": "function"
    },
    {
      "inputs": [
        {
          "internalType": "string",
          "name": "",
          "type": "string"
        }
      ],
      "name": "statuses",
      "outputs": [
        {
          "internalType": "string",
          "name": "dealIds",
          "type": "string"
        },
        {
          "internalType": "bool",
          "name": "active",
          "type": "bool"
        }
      ],
      "stateMutability": "view",
      "type": "function"
    },
    {
      "inputs": [
        {
          "internalType": "string",
          "name": "cid",
          "type": "string"
        },
        {
          "internalType": "string",
          "name": "config",
          "type": "string"
        },
        {
          "internalType": "string",
          "name": "fileName",
          "type": "string"
        },
        {
          "internalType": "uint256",
          "name": "fileSize",
          "type": "uint256"
        }
      ],
      "name": "store",
      "outputs": [],
      "stateMutability": "payable",
      "type": "function"
    },
    {
      "inputs": [
        {
          "components": [
            {
              "internalType": "string",
              "name": "cid",
              "type": "string"
            },
            {
              "internalType": "string",
              "name": "config",
              "type": "string"
            },
            {
              "internalType": "uint256",
              "name": "fileCost",
              "type": "uint256"
            },
            {
              "internalType": "string",
              "name": "fileName",
              "type": "string"
            },
            {
              "internalType": "uint256",
              "name": "fileSize",
              "type": "uint256"
            },
            {
              "internalType": "uint256",
              "name": "timestamp",
              "type": "uint256"
            }
          ],
          "internalType": "struct Lighthouse.Content[]",
          "name": "_contents",
          "type": "tuple[]"
        }
      ],
      "name": "store_test",
      "outputs": [],
      "stateMutability": "payable",
      "type": "function"
    }
  ],
  "bytecode": "0x6080604052336000806101000a81548173ffffffffffffffffffffffffffffffffffffffff021916908373ffffffffffffffffffffffffffffffffffffffff16021790555034801561005057600080fd5b506110e8806100606000396000f3fe6080604052600436106100745760003560e01c80633081baac1161004e5780633081baac146100d857806341053e2d146101015780638da5cb5b1461013f578063fd2b7f7f1461016a57610075565b80630bd76d12146100775780630bfa4715146100935780632411949a146100bc57610075565b5b005b610091600480360381019061008c91906108d4565b610193565b005b34801561009f57600080fd5b506100ba60048036038101906100b5919061095a565b610296565b005b6100d660048036038101906100d191906109e3565b6103b0565b005b3480156100e457600080fd5b506100ff60048036038101906100fa9190610add565b61041d565b005b34801561010d57600080fd5b5061012860048036038101906101239190610a9c565b6104c0565b604051610136929190610e5a565b60405180910390f35b34801561014b57600080fd5b5061015461059f565b6040516101619190610d61565b60405180910390f35b34801561017657600080fd5b50610191600480360381019061018c9190610915565b6105c3565b005b60008054906101000a900473ffffffffffffffffffffffffffffffffffffffff1673ffffffffffffffffffffffffffffffffffffffff163373ffffffffffffffffffffffffffffffffffffffff16146101eb57600080fd5b60008054906101000a900473ffffffffffffffffffffffffffffffffffffffff1673ffffffffffffffffffffffffffffffffffffffff163373ffffffffffffffffffffffffffffffffffffffff161461024357600080fd5b3373ffffffffffffffffffffffffffffffffffffffff167f2fe13a38cdc07d0966a35392d4f8469f3049ab61ec6698934d6df2d3e7a39125824260405161028b929190610dae565b60405180910390a250565b60008054906101000a900473ffffffffffffffffffffffffffffffffffffffff1673ffffffffffffffffffffffffffffffffffffffff163373ffffffffffffffffffffffffffffffffffffffff16146102ee57600080fd5b604051806040016040528084848080601f016020809104026020016040519081016040528093929190818152602001838380828437600081840152601f19601f8201169050808301925050505050505081526020018215158152506001868660405161035b929190610d48565b90815260200160405180910390206000820151816000019080519060200190610385929190610602565b5060208201518160010160006101000a81548160ff0219169083151502179055509050505050505050565b60004290503373ffffffffffffffffffffffffffffffffffffffff167f19ba564935ee7ed085f577bc575d92064d4e8f5050ad3da5a14dfc4b863e4ca089898989348a8a8a8a60405161040b99989796959493929190610dde565b60405180910390a25050505050505050565b60008054906101000a900473ffffffffffffffffffffffffffffffffffffffff1673ffffffffffffffffffffffffffffffffffffffff163373ffffffffffffffffffffffffffffffffffffffff161461047557600080fd5b8073ffffffffffffffffffffffffffffffffffffffff166108fc839081150290604051600060405180830381858888f193505050501580156104bb573d6000803e3d6000fd5b505050565b600181805160208101820180518482526020830160208501208183528095505050505050600091509050806000018054600181600116156101000203166002900480601f0160208091040260200160405190810160405280929190818152602001828054600181600116156101000203166002900480156105825780601f1061055757610100808354040283529160200191610582565b820191906000526020600020905b81548152906001019060200180831161056557829003601f168201915b5050505050908060010160009054906101000a900460ff16905082565b60008054906101000a900473ffffffffffffffffffffffffffffffffffffffff1681565b7fafb80c981a7eaaf1f395c91a7b176900b183b1f4caad2b39cb1e2e0af9e6a9a43383836040516105f693929190610d7c565b60405180910390a15050565b828054600181600116156101000203166002900490600052602060002090601f016020900481019282601f1061064357805160ff1916838001178555610671565b82800160010185558215610671579182015b82811115610670578251825591602001919060010190610655565b5b50905061067e9190610682565b5090565b5b8082111561069b576000816000905550600101610683565b5090565b6000813590506106ae8161106d565b92915050565b600082601f8301126106c557600080fd5b81356106d86106d382610ebb565b610e8a565b9150818183526020840193506020810190508360005b8381101561071e578135860161070488826107db565b8452602084019350602083019250506001810190506106ee565b5050505092915050565b60008135905061073781611084565b92915050565b60008083601f84011261074f57600080fd5b8235905067ffffffffffffffff81111561076857600080fd5b60208301915083600182028301111561078057600080fd5b9250929050565b600082601f83011261079857600080fd5b81356107ab6107a682610ee7565b610e8a565b915080825260208301602083018583830111156107c757600080fd5b6107d2838284611018565b50505092915050565b600060c082840312156107ed57600080fd5b6107f760c0610e8a565b9050600082013567ffffffffffffffff81111561081357600080fd5b61081f84828501610787565b600083015250602082013567ffffffffffffffff81111561083f57600080fd5b61084b84828501610787565b602083015250604061085f848285016108bf565b604083015250606082013567ffffffffffffffff81111561087f57600080fd5b61088b84828501610787565b606083015250608061089f848285016108bf565b60808301525060a06108b3848285016108bf565b60a08301525092915050565b6000813590506108ce8161109b565b92915050565b6000602082840312156108e657600080fd5b600082013567ffffffffffffffff81111561090057600080fd5b61090c848285016106b4565b91505092915050565b6000806020838503121561092857600080fd5b600083013567ffffffffffffffff81111561094257600080fd5b61094e8582860161073d565b92509250509250929050565b60008060008060006060868803121561097257600080fd5b600086013567ffffffffffffffff81111561098c57600080fd5b6109988882890161073d565b9550955050602086013567ffffffffffffffff8111156109b757600080fd5b6109c38882890161073d565b935093505060406109d688828901610728565b9150509295509295909350565b60008060008060008060006080888a0312156109fe57600080fd5b600088013567ffffffffffffffff811115610a1857600080fd5b610a248a828b0161073d565b9750975050602088013567ffffffffffffffff811115610a4357600080fd5b610a4f8a828b0161073d565b9550955050604088013567ffffffffffffffff811115610a6e57600080fd5b610a7a8a828b0161073d565b93509350506060610a8d8a828b016108bf565b91505092959891949750929550565b600060208284031215610aae57600080fd5b600082013567ffffffffffffffff811115610ac857600080fd5b610ad484828501610787565b91505092915050565b60008060408385031215610af057600080fd5b6000610afe858286016108bf565b9250506020610b0f8582860161069f565b9150509250929050565b6000610b258383610c93565b905092915050565b610b3681610fe2565b82525050565b610b4581610f88565b82525050565b6000610b5682610f27565b610b608185610f4a565b935083602082028501610b7285610f17565b8060005b85811015610bae5784840389528151610b8f8582610b19565b9450610b9a83610f3d565b925060208a01995050600181019050610b76565b50829750879550505050505092915050565b610bc981610fac565b82525050565b6000610bdb8385610f6c565b9350610be8838584611018565b610bf18361105c565b840190509392505050565b6000610c088385610f7d565b9350610c15838584611018565b82840190509392505050565b6000610c2c82610f32565b610c368185610f5b565b9350610c46818560208601611027565b610c4f8161105c565b840191505092915050565b6000610c6582610f32565b610c6f8185610f6c565b9350610c7f818560208601611027565b610c888161105c565b840191505092915050565b600060c0830160008301518482036000860152610cb08282610c21565b91505060208301518482036020860152610cca8282610c21565b9150506040830151610cdf6040860182610d2a565b5060608301518482036060860152610cf78282610c21565b9150506080830151610d0c6080860182610d2a565b5060a0830151610d1f60a0860182610d2a565b508091505092915050565b610d3381610fd8565b82525050565b610d4281610fd8565b82525050565b6000610d55828486610bfc565b91508190509392505050565b6000602082019050610d766000830184610b3c565b92915050565b6000604082019050610d916000830186610b2d565b8181036020830152610da4818486610bcf565b9050949350505050565b60006040820190508181036000830152610dc88185610b4b565b9050610dd76020830184610d39565b9392505050565b600060c0820190508181036000830152610df9818b8d610bcf565b90508181036020830152610e0e81898b610bcf565b9050610e1d6040830188610d39565b8181036060830152610e30818688610bcf565b9050610e3f6080830185610d39565b610e4c60a0830184610d39565b9a9950505050505050505050565b60006040820190508181036000830152610e748185610c5a565b9050610e836020830184610bc0565b9392505050565b6000604051905081810181811067ffffffffffffffff82111715610eb157610eb061105a565b5b8060405250919050565b600067ffffffffffffffff821115610ed657610ed561105a565b5b602082029050602081019050919050565b600067ffffffffffffffff821115610f0257610f0161105a565b5b601f19601f8301169050602081019050919050565b6000819050602082019050919050565b600081519050919050565b600081519050919050565b6000602082019050919050565b600082825260208201905092915050565b600082825260208201905092915050565b600082825260208201905092915050565b600081905092915050565b6000610f9382610fb8565b9050919050565b6000610fa582610fb8565b9050919050565b60008115159050919050565b600073ffffffffffffffffffffffffffffffffffffffff82169050919050565b6000819050919050565b6000610fed82610ff4565b9050919050565b6000610fff82611006565b9050919050565b600061101182610fb8565b9050919050565b82818337600083830152505050565b60005b8381101561104557808201518184015260208101905061102a565b83811115611054576000848401525b50505050565bfe5b6000601f19601f8301169050919050565b61107681610f9a565b811461108157600080fd5b50565b61108d81610fac565b811461109857600080fd5b50565b6110a481610fd8565b81146110af57600080fd5b5056fea2646970667358221220428deb037c8a176e9a46c695e2f380d61f0b337fc6e159a68bb8a92eee1b6ce964736f6c63430007030033",
  "linkReferences": {},
  "deployedLinkReferences": {}
}