{
  "_format": "hh-sol-artifact-1",
  "contractName": "LHNFToken",
  "sourceName": "contracts/nft/LHNFT.sol",
  "abi": [
    {
      "anonymous": false,
      "inputs": [
        {
          "indexed": false,
          "internalType": "address",
          "name": "previousAdmin",
          "type": "address"
        },
        {
          "indexed": false,
          "internalType": "address",
          "name": "newAdmin",
          "type": "address"
        }
      ],
      "name": "AdminChanged",
      "type": "event"
    },
    {
      "anonymous": false,
      "inputs": [
        {
          "indexed": true,
          "internalType": "address",
          "name": "owner",
          "type": "address"
        },
        {
          "indexed": true,
          "internalType": "address",
          "name": "approved",
          "type": "address"
        },
        {
          "indexed": true,
          "internalType": "uint256",
          "name": "tokenId",
          "type": "uint256"
        }
      ],
      "name": "Approval",
      "type": "event"
    },
    {
      "anonymous": false,
      "inputs": [
        {
          "indexed": true,
          "internalType": "address",
          "name": "owner",
          "type": "address"
        },
        {
          "indexed": true,
          "internalType": "address",
          "name": "operator",
          "type": "address"
        },
        {
          "indexed": false,
          "internalType": "bool",
          "name": "approved",
          "type": "bool"
        }
      ],
      "name": "ApprovalForAll",
      "type": "event"
    },
    {
      "anonymous": false,
      "inputs": [
        {
          "indexed": true,
          "internalType": "address",
          "name": "beacon",
          "type": "address"
        }
      ],
      "name": "BeaconUpgraded",
      "type": "event"
    },
    {
      "anonymous": false,
      "inputs": [
        {
          "indexed": false,
          "internalType": "uint8",
          "name": "version",
          "type": "uint8"
        }
      ],
      "name": "Initialized",
      "type": "event"
    },
    {
      "anonymous": false,
      "inputs": [
        {
          "indexed": true,
          "internalType": "address",
          "name": "previousOwner",
          "type": "address"
        },
        {
          "indexed": true,
          "internalType": "address",
          "name": "newOwner",
          "type": "address"
        }
      ],
      "name": "OwnershipTransferred",
      "type": "event"
    },
    {
      "anonymous": false,
      "inputs": [
        {
          "indexed": true,
          "internalType": "address",
          "name": "from",
          "type": "address"
        },
        {
          "indexed": true,
          "internalType": "address",
          "name": "to",
          "type": "address"
        },
        {
          "indexed": true,
          "internalType": "uint256",
          "name": "tokenId",
          "type": "uint256"
        }
      ],
      "name": "Transfer",
      "type": "event"
    },
    {
      "anonymous": false,
      "inputs": [
        {
          "indexed": true,
          "internalType": "address",
          "name": "implementation",
          "type": "address"
        }
      ],
      "name": "Upgraded",
      "type": "event"
    },
    {
      "inputs": [
        {
          "internalType": "address",
          "name": "to",
          "type": "address"
        },
        {
          "internalType": "uint256",
          "name": "tokenId",
          "type": "uint256"
        }
      ],
      "name": "approve",
      "outputs": [],
      "stateMutability": "nonpayable",
      "type": "function"
    },
    {
      "inputs": [
        {
          "internalType": "address",
          "name": "owner",
          "type": "address"
        }
      ],
      "name": "balanceOf",
      "outputs": [
        {
          "internalType": "uint256",
          "name": "",
          "type": "uint256"
        }
      ],
      "stateMutability": "view",
      "type": "function"
    },
    {
      "inputs": [
        {
          "internalType": "uint256",
          "name": "tokenId",
          "type": "uint256"
        }
      ],
      "name": "getApproved",
      "outputs": [
        {
          "internalType": "address",
          "name": "",
          "type": "address"
        }
      ],
      "stateMutability": "view",
      "type": "function"
    },
    {
      "inputs": [],
      "name": "initialize",
      "outputs": [],
      "stateMutability": "nonpayable",
      "type": "function"
    },
    {
      "inputs": [
        {
          "internalType": "address",
          "name": "owner",
          "type": "address"
        },
        {
          "internalType": "address",
          "name": "operator",
          "type": "address"
        }
      ],
      "name": "isApprovedForAll",
      "outputs": [
        {
          "internalType": "bool",
          "name": "",
          "type": "bool"
        }
      ],
      "stateMutability": "view",
      "type": "function"
    },
    {
      "inputs": [],
      "name": "name",
      "outputs": [
        {
          "internalType": "string",
          "name": "",
          "type": "string"
        }
      ],
      "stateMutability": "view",
      "type": "function"
    },
    {
      "inputs": [],
      "name": "owner",
      "outputs": [
        {
          "internalType": "address",
          "name": "",
          "type": "address"
        }
      ],
      "stateMutability": "view",
      "type": "function"
    },
    {
      "inputs": [
        {
          "internalType": "uint256",
          "name": "tokenId",
          "type": "uint256"
        }
      ],
      "name": "ownerOf",
      "outputs": [
        {
          "internalType": "address",
          "name": "",
          "type": "address"
        }
      ],
      "stateMutability": "view",
      "type": "function"
    },
    {
      "inputs": [],
      "name": "proxiableUUID",
      "outputs": [
        {
          "internalType": "bytes32",
          "name": "",
          "type": "bytes32"
        }
      ],
      "stateMutability": "view",
      "type": "function"
    },
    {
      "inputs": [],
      "name": "renounceOwnership",
      "outputs": [],
      "stateMutability": "nonpayable",
      "type": "function"
    },
    {
      "inputs": [
        {
          "internalType": "address",
          "name": "to",
          "type": "address"
        },
        {
          "internalType": "string",
          "name": "uri",
          "type": "string"
        }
      ],
      "name": "safeMint",
      "outputs": [],
      "stateMutability": "nonpayable",
      "type": "function"
    },
    {
      "inputs": [
        {
          "internalType": "address",
          "name": "from",
          "type": "address"
        },
        {
          "internalType": "address",
          "name": "to",
          "type": "address"
        },
        {
          "internalType": "uint256",
          "name": "tokenId",
          "type": "uint256"
        }
      ],
      "name": "safeTransferFrom",
      "outputs": [],
      "stateMutability": "nonpayable",
      "type": "function"
    },
    {
      "inputs": [
        {
          "internalType": "address",
          "name": "from",
          "type": "address"
        },
        {
          "internalType": "address",
          "name": "to",
          "type": "address"
        },
        {
          "internalType": "uint256",
          "name": "tokenId",
          "type": "uint256"
        },
        {
          "internalType": "bytes",
          "name": "_data",
          "type": "bytes"
        }
      ],
      "name": "safeTransferFrom",
      "outputs": [],
      "stateMutability": "nonpayable",
      "type": "function"
    },
    {
      "inputs": [
        {
          "internalType": "address",
          "name": "operator",
          "type": "address"
        },
        {
          "internalType": "bool",
          "name": "approved",
          "type": "bool"
        }
      ],
      "name": "setApprovalForAll",
      "outputs": [],
      "stateMutability": "nonpayable",
      "type": "function"
    },
    {
      "inputs": [
        {
          "internalType": "bytes4",
          "name": "interfaceId",
          "type": "bytes4"
        }
      ],
      "name": "supportsInterface",
      "outputs": [
        {
          "internalType": "bool",
          "name": "",
          "type": "bool"
        }
      ],
      "stateMutability": "view",
      "type": "function"
    },
    {
      "inputs": [],
      "name": "symbol",
      "outputs": [
        {
          "internalType": "string",
          "name": "",
          "type": "string"
        }
      ],
      "stateMutability": "view",
      "type": "function"
    },
    {
      "inputs": [
        {
          "internalType": "uint256",
          "name": "tokenId",
          "type": "uint256"
        }
      ],
      "name": "tokenURI",
      "outputs": [
        {
          "internalType": "string",
          "name": "",
          "type": "string"
        }
      ],
      "stateMutability": "view",
      "type": "function"
    },
    {
      "inputs": [
        {
          "internalType": "address",
          "name": "from",
          "type": "address"
        },
        {
          "internalType": "address",
          "name": "to",
          "type": "address"
        },
        {
          "internalType": "uint256",
          "name": "tokenId",
          "type": "uint256"
        }
      ],
      "name": "transferFrom",
      "outputs": [],
      "stateMutability": "nonpayable",
      "type": "function"
    },
    {
      "inputs": [
        {
          "internalType": "address",
          "name": "newOwner",
          "type": "address"
        }
      ],
      "name": "transferOwnership",
      "outputs": [],
      "stateMutability": "nonpayable",
      "type": "function"
    },
    {
      "inputs": [
        {
          "internalType": "address",
          "name": "newImplementation",
          "type": "address"
        }
      ],
      "name": "upgradeTo",
      "outputs": [],
      "stateMutability": "nonpayable",
      "type": "function"
    },
    {
      "inputs": [
        {
          "internalType": "address",
          "name": "newImplementation",
          "type": "address"
        },
        {
          "internalType": "bytes",
          "name": "data",
          "type": "bytes"
        }
      ],
      "name": "upgradeToAndCall",
      "outputs": [],
      "stateMutability": "payable",
      "type": "function"
    }
  ],
  "bytecode": "0x60a06040523073ffffffffffffffffffffffffffffffffffffffff1660809073ffffffffffffffffffffffffffffffffffffffff1660601b81525034801561004657600080fd5b5060805160601c61456d6100816000396000818161084e015281816108dd01528181610a1d01528181610aac0152610b5c015261456d6000f3fe60806040526004361061012a5760003560e01c806370a08231116100ab578063a22cb4651161006f578063a22cb465146103bd578063b88d4fde146103e6578063c87b56dd1461040f578063d204c45e1461044c578063e985e9c514610475578063f2fde38b146104b25761012a565b806370a08231146102fc578063715018a6146103395780638129fc1c146103505780638da5cb5b1461036757806395d89b41146103925761012a565b80633659cfe6116100f25780633659cfe61461022657806342842e0e1461024f5780634f1ef2861461027857806352d1902d146102945780636352211e146102bf5761012a565b806301ffc9a71461012f57806306fdde031461016c578063081812fc14610197578063095ea7b3146101d457806323b872dd146101fd575b600080fd5b34801561013b57600080fd5b5061015660048036038101906101519190612eec565b6104db565b60405161016391906134d9565b60405180910390f35b34801561017857600080fd5b506101816105bd565b60405161018e919061352a565b60405180910390f35b3480156101a357600080fd5b506101be60048036038101906101b99190612f3e565b61064f565b6040516101cb9190613472565b60405180910390f35b3480156101e057600080fd5b506101fb60048036038101906101f69190612e87565b6106d4565b005b34801561020957600080fd5b50610224600480360381019061021f9190612cd9565b6107ec565b005b34801561023257600080fd5b5061024d60048036038101906102489190612c74565b61084c565b005b34801561025b57600080fd5b5061027660048036038101906102719190612cd9565b6109fb565b005b610292600480360381019061028d9190612ddf565b610a1b565b005b3480156102a057600080fd5b506102a9610b58565b6040516102b691906134f4565b60405180910390f35b3480156102cb57600080fd5b506102e660048036038101906102e19190612f3e565b610c11565b6040516102f39190613472565b60405180910390f35b34801561030857600080fd5b50610323600480360381019061031e9190612c74565b610cc3565b60405161033091906138ac565b60405180910390f35b34801561034557600080fd5b5061034e610d7b565b005b34801561035c57600080fd5b50610365610e03565b005b34801561037357600080fd5b5061037c610f1b565b6040516103899190613472565b60405180910390f35b34801561039e57600080fd5b506103a7610f45565b6040516103b4919061352a565b60405180910390f35b3480156103c957600080fd5b506103e460048036038101906103df9190612da3565b610fd7565b005b3480156103f257600080fd5b5061040d60048036038101906104089190612d28565b610fed565b005b34801561041b57600080fd5b5061043660048036038101906104319190612f3e565b61104f565b604051610443919061352a565b60405180910390f35b34801561045857600080fd5b50610473600480360381019061046e9190612e33565b611061565b005b34801561048157600080fd5b5061049c60048036038101906104979190612c9d565b611110565b6040516104a991906134d9565b60405180910390f35b3480156104be57600080fd5b506104d960048036038101906104d49190612c74565b6111a4565b005b60007f80ac58cd000000000000000000000000000000000000000000000000000000007bffffffffffffffffffffffffffffffffffffffffffffffffffffffff1916827bffffffffffffffffffffffffffffffffffffffffffffffffffffffff191614806105a657507f5b5e139f000000000000000000000000000000000000000000000000000000007bffffffffffffffffffffffffffffffffffffffffffffffffffffffff1916827bffffffffffffffffffffffffffffffffffffffffffffffffffffffff1916145b806105b657506105b58261129c565b5b9050919050565b6060606580546105cc90613b36565b80601f01602080910402602001604051908101604052809291908181526020018280546105f890613b36565b80156106455780601f1061061a57610100808354040283529160200191610645565b820191906000526020600020905b81548152906001019060200180831161062857829003601f168201915b5050505050905090565b600061065a82611306565b610699576040517f08c379a0000000000000000000000000000000000000000000000000000000008152600401610690906137ac565b60405180910390fd5b6069600083815260200190815260200160002060009054906101000a900473ffffffffffffffffffffffffffffffffffffffff169050919050565b60006106df82610c11565b90508073ffffffffffffffffffffffffffffffffffffffff168373ffffffffffffffffffffffffffffffffffffffff161415610750576040517f08c379a00000000000000000000000000000000000000000000000000000000081526004016107479061382c565b60405180910390fd5b8073ffffffffffffffffffffffffffffffffffffffff1661076f611372565b73ffffffffffffffffffffffffffffffffffffffff16148061079e575061079d81610798611372565b611110565b5b6107dd576040517f08c379a00000000000000000000000000000000000000000000000000000000081526004016107d49061368c565b60405180910390fd5b6107e7838361137a565b505050565b6107fd6107f7611372565b82611433565b61083c576040517f08c379a00000000000000000000000000000000000000000000000000000000081526004016108339061386c565b60405180910390fd5b610847838383611511565b505050565b7f000000000000000000000000000000000000000000000000000000000000000073ffffffffffffffffffffffffffffffffffffffff163073ffffffffffffffffffffffffffffffffffffffff1614156108db576040517f08c379a00000000000000000000000000000000000000000000000000000000081526004016108d2906135cc565b60405180910390fd5b7f000000000000000000000000000000000000000000000000000000000000000073ffffffffffffffffffffffffffffffffffffffff1661091a611778565b73ffffffffffffffffffffffffffffffffffffffff1614610970576040517f08c379a00000000000000000000000000000000000000000000000000000000081526004016109679061362c565b60405180910390fd5b610979816117cf565b6109f881600067ffffffffffffffff8111156109be577f4e487b7100000000000000000000000000000000000000000000000000000000600052604160045260246000fd5b6040519080825280601f01601f1916602001820160405280156109f05781602001600182028036833780820191505090505b50600061184e565b50565b610a1683838360405180602001604052806000815250610fed565b505050565b7f000000000000000000000000000000000000000000000000000000000000000073ffffffffffffffffffffffffffffffffffffffff163073ffffffffffffffffffffffffffffffffffffffff161415610aaa576040517f08c379a0000000000000000000000000000000000000000000000000000000008152600401610aa1906135cc565b60405180910390fd5b7f000000000000000000000000000000000000000000000000000000000000000073ffffffffffffffffffffffffffffffffffffffff16610ae9611778565b73ffffffffffffffffffffffffffffffffffffffff1614610b3f576040517f08c379a0000000000000000000000000000000000000000000000000000000008152600401610b369061362c565b60405180910390fd5b610b48826117cf565b610b548282600161184e565b5050565b60007f000000000000000000000000000000000000000000000000000000000000000073ffffffffffffffffffffffffffffffffffffffff163073ffffffffffffffffffffffffffffffffffffffff1614610be8576040517f08c379a0000000000000000000000000000000000000000000000000000000008152600401610bdf9061366c565b60405180910390fd5b7f360894a13ba1a3210667c828492db98dca3e2076cc3735a920a3ca505d382bbc60001b905090565b6000806067600084815260200190815260200160002060009054906101000a900473ffffffffffffffffffffffffffffffffffffffff169050600073ffffffffffffffffffffffffffffffffffffffff168173ffffffffffffffffffffffffffffffffffffffff161415610cba576040517f08c379a0000000000000000000000000000000000000000000000000000000008152600401610cb1906136cc565b60405180910390fd5b80915050919050565b60008073ffffffffffffffffffffffffffffffffffffffff168273ffffffffffffffffffffffffffffffffffffffff161415610d34576040517f08c379a0000000000000000000000000000000000000000000000000000000008152600401610d2b906136ac565b60405180910390fd5b606860008373ffffffffffffffffffffffffffffffffffffffff1673ffffffffffffffffffffffffffffffffffffffff168152602001908152602001600020549050919050565b610d83611372565b73ffffffffffffffffffffffffffffffffffffffff16610da1610f1b565b73ffffffffffffffffffffffffffffffffffffffff1614610df7576040517f08c379a0000000000000000000000000000000000000000000000000000000008152600401610dee906137ec565b60405180910390fd5b610e0160006119cb565b565b6000610e0f6001611a91565b90508015610e33576001600060016101000a81548160ff0219169083151502179055505b610ea76040518060400160405280600d81526020017f4c69676874486f7573654e4654000000000000000000000000000000000000008152506040518060400160405280600581526020017f4c484e4654000000000000000000000000000000000000000000000000000000815250611b81565b610eaf611bde565b610eb7611c2f565b610ebf611c88565b8015610f185760008060016101000a81548160ff0219169083151502179055507f7f26b83ff96e1f2b6a682f133852f6798a09c465da95921460cefb38474024986001604051610f0f919061350f565b60405180910390a15b50565b600060c960009054906101000a900473ffffffffffffffffffffffffffffffffffffffff16905090565b606060668054610f5490613b36565b80601f0160208091040260200160405190810160405280929190818152602001828054610f8090613b36565b8015610fcd5780601f10610fa257610100808354040283529160200191610fcd565b820191906000526020600020905b815481529060010190602001808311610fb057829003601f168201915b5050505050905090565b610fe9610fe2611372565b8383611cd9565b5050565b610ffe610ff8611372565b83611433565b61103d576040517f08c379a00000000000000000000000000000000000000000000000000000000081526004016110349061386c565b60405180910390fd5b61104984848484611e46565b50505050565b606061105a82611ea2565b9050919050565b611069611372565b73ffffffffffffffffffffffffffffffffffffffff16611087610f1b565b73ffffffffffffffffffffffffffffffffffffffff16146110dd576040517f08c379a00000000000000000000000000000000000000000000000000000000081526004016110d4906137ec565b60405180910390fd5b60006110ea61015f611ff4565b90506110f761015f612002565b6111018382612018565b61110b8183612036565b505050565b6000606a60008473ffffffffffffffffffffffffffffffffffffffff1673ffffffffffffffffffffffffffffffffffffffff16815260200190815260200160002060008373ffffffffffffffffffffffffffffffffffffffff1673ffffffffffffffffffffffffffffffffffffffff16815260200190815260200160002060009054906101000a900460ff16905092915050565b6111ac611372565b73ffffffffffffffffffffffffffffffffffffffff166111ca610f1b565b73ffffffffffffffffffffffffffffffffffffffff1614611220576040517f08c379a0000000000000000000000000000000000000000000000000000000008152600401611217906137ec565b60405180910390fd5b600073ffffffffffffffffffffffffffffffffffffffff168173ffffffffffffffffffffffffffffffffffffffff161415611290576040517f08c379a00000000000000000000000000000000000000000000000000000000081526004016112879061356c565b60405180910390fd5b611299816119cb565b50565b60007f01ffc9a7000000000000000000000000000000000000000000000000000000007bffffffffffffffffffffffffffffffffffffffffffffffffffffffff1916827bffffffffffffffffffffffffffffffffffffffffffffffffffffffff1916149050919050565b60008073ffffffffffffffffffffffffffffffffffffffff166067600084815260200190815260200160002060009054906101000a900473ffffffffffffffffffffffffffffffffffffffff1673ffffffffffffffffffffffffffffffffffffffff1614159050919050565b600033905090565b816069600083815260200190815260200160002060006101000a81548173ffffffffffffffffffffffffffffffffffffffff021916908373ffffffffffffffffffffffffffffffffffffffff160217905550808273ffffffffffffffffffffffffffffffffffffffff166113ed83610c11565b73ffffffffffffffffffffffffffffffffffffffff167f8c5be1e5ebec7d5bd14f71427d1e84f3dd0314c0f7b2291e5b200ac8c7c3b92560405160405180910390a45050565b600061143e82611306565b61147d576040517f08c379a00000000000000000000000000000000000000000000000000000000081526004016114749061364c565b60405180910390fd5b600061148883610c11565b90508073ffffffffffffffffffffffffffffffffffffffff168473ffffffffffffffffffffffffffffffffffffffff1614806114ca57506114c98185611110565b5b8061150857508373ffffffffffffffffffffffffffffffffffffffff166114f08461064f565b73ffffffffffffffffffffffffffffffffffffffff16145b91505092915050565b8273ffffffffffffffffffffffffffffffffffffffff1661153182610c11565b73ffffffffffffffffffffffffffffffffffffffff1614611587576040517f08c379a000000000000000000000000000000000000000000000000000000000815260040161157e9061358c565b60405180910390fd5b600073ffffffffffffffffffffffffffffffffffffffff168273ffffffffffffffffffffffffffffffffffffffff1614156115f7576040517f08c379a00000000000000000000000000000000000000000000000000000000081526004016115ee906135ec565b60405180910390fd5b6116028383836120aa565b61160d60008261137a565b6001606860008573ffffffffffffffffffffffffffffffffffffffff1673ffffffffffffffffffffffffffffffffffffffff168152602001908152602001600020600082825461165d9190613a23565b925050819055506001606860008473ffffffffffffffffffffffffffffffffffffffff1673ffffffffffffffffffffffffffffffffffffffff16815260200190815260200160002060008282546116b4919061399c565b92505081905550816067600083815260200190815260200160002060006101000a81548173ffffffffffffffffffffffffffffffffffffffff021916908373ffffffffffffffffffffffffffffffffffffffff160217905550808273ffffffffffffffffffffffffffffffffffffffff168473ffffffffffffffffffffffffffffffffffffffff167fddf252ad1be2c89b69c2b068fc378daa952ba7f163c4a11628f55a4df523b3ef60405160405180910390a46117738383836120af565b505050565b60006117a67f360894a13ba1a3210667c828492db98dca3e2076cc3735a920a3ca505d382bbc60001b6120b4565b60000160009054906101000a900473ffffffffffffffffffffffffffffffffffffffff16905090565b6117d7611372565b73ffffffffffffffffffffffffffffffffffffffff166117f5610f1b565b73ffffffffffffffffffffffffffffffffffffffff161461184b576040517f08c379a0000000000000000000000000000000000000000000000000000000008152600401611842906137ec565b60405180910390fd5b50565b61187a7f4910fdfa16fed3260ed0e7147f7cc6da11a60208b5b9406d12a635614ffd914360001b6120be565b60000160009054906101000a900460ff161561189e57611899836120c8565b6119c6565b8273ffffffffffffffffffffffffffffffffffffffff166352d1902d6040518163ffffffff1660e01b815260040160206040518083038186803b1580156118e457600080fd5b505afa92505050801561191557506040513d601f19601f820116820180604052508101906119129190612ec3565b60015b611954576040517f08c379a000000000000000000000000000000000000000000000000000000000815260040161194b9061376c565b60405180910390fd5b7f360894a13ba1a3210667c828492db98dca3e2076cc3735a920a3ca505d382bbc60001b81146119b9576040517f08c379a00000000000000000000000000000000000000000000000000000000081526004016119b09061370c565b60405180910390fd5b506119c5838383612181565b5b505050565b600060c960009054906101000a900473ffffffffffffffffffffffffffffffffffffffff1690508160c960006101000a81548173ffffffffffffffffffffffffffffffffffffffff021916908373ffffffffffffffffffffffffffffffffffffffff1602179055508173ffffffffffffffffffffffffffffffffffffffff168173ffffffffffffffffffffffffffffffffffffffff167f8be0079c531659141344cd1fd0a4f28419497f9722a3daafe3b4186f6b6457e060405160405180910390a35050565b60008060019054906101000a900460ff1615611b085760018260ff16148015611ac05750611abe306121ad565b155b611aff576040517f08c379a0000000000000000000000000000000000000000000000000000000008152600401611af69061372c565b60405180910390fd5b60009050611b7c565b8160ff1660008054906101000a900460ff1660ff1610611b5d576040517f08c379a0000000000000000000000000000000000000000000000000000000008152600401611b549061372c565b60405180910390fd5b816000806101000a81548160ff021916908360ff160217905550600190505b919050565b600060019054906101000a900460ff16611bd0576040517f08c379a0000000000000000000000000000000000000000000000000000000008152600401611bc79061388c565b60405180910390fd5b611bda82826121d0565b5050565b600060019054906101000a900460ff16611c2d576040517f08c379a0000000000000000000000000000000000000000000000000000000008152600401611c249061388c565b60405180910390fd5b565b600060019054906101000a900460ff16611c7e576040517f08c379a0000000000000000000000000000000000000000000000000000000008152600401611c759061388c565b60405180910390fd5b611c86612251565b565b600060019054906101000a900460ff16611cd7576040517f08c379a0000000000000000000000000000000000000000000000000000000008152600401611cce9061388c565b60405180910390fd5b565b8173ffffffffffffffffffffffffffffffffffffffff168373ffffffffffffffffffffffffffffffffffffffff161415611d48576040517f08c379a0000000000000000000000000000000000000000000000000000000008152600401611d3f9061360c565b60405180910390fd5b80606a60008573ffffffffffffffffffffffffffffffffffffffff1673ffffffffffffffffffffffffffffffffffffffff16815260200190815260200160002060008473ffffffffffffffffffffffffffffffffffffffff1673ffffffffffffffffffffffffffffffffffffffff16815260200190815260200160002060006101000a81548160ff0219169083151502179055508173ffffffffffffffffffffffffffffffffffffffff168373ffffffffffffffffffffffffffffffffffffffff167f17307eab39ab6107e8899845ad3d59bd9653f200f220920489ca2b5937696c3183604051611e3991906134d9565b60405180910390a3505050565b611e51848484611511565b611e5d848484846122b2565b611e9c576040517f08c379a0000000000000000000000000000000000000000000000000000000008152600401611e939061354c565b60405180910390fd5b50505050565b6060611ead82611306565b611eec576040517f08c379a0000000000000000000000000000000000000000000000000000000008152600401611ee39061378c565b60405180910390fd5b6000609760008481526020019081526020016000208054611f0c90613b36565b80601f0160208091040260200160405190810160405280929190818152602001828054611f3890613b36565b8015611f855780601f10611f5a57610100808354040283529160200191611f85565b820191906000526020600020905b815481529060010190602001808311611f6857829003601f168201915b505050505090506000611f96612449565b9050600081511415611fac578192505050611fef565b600082511115611fe1578082604051602001611fc992919061344e565b60405160208183030381529060405292505050611fef565b611fea84612460565b925050505b919050565b600081600001549050919050565b6001816000016000828254019250508190555050565b612032828260405180602001604052806000815250612507565b5050565b61203f82611306565b61207e576040517f08c379a0000000000000000000000000000000000000000000000000000000008152600401612075906136ec565b60405180910390fd5b806097600084815260200190815260200160002090805190602001906120a5929190612a83565b505050565b505050565b505050565b6000819050919050565b6000819050919050565b6120d1816121ad565b612110576040517f08c379a0000000000000000000000000000000000000000000000000000000008152600401612107906137cc565b60405180910390fd5b8061213d7f360894a13ba1a3210667c828492db98dca3e2076cc3735a920a3ca505d382bbc60001b6120b4565b60000160006101000a81548173ffffffffffffffffffffffffffffffffffffffff021916908373ffffffffffffffffffffffffffffffffffffffff16021790555050565b61218a83612562565b6000825111806121975750805b156121a8576121a683836125b1565b505b505050565b6000808273ffffffffffffffffffffffffffffffffffffffff163b119050919050565b600060019054906101000a900460ff1661221f576040517f08c379a00000000000000000000000000000000000000000000000000000000081526004016122169061388c565b60405180910390fd5b8160659080519060200190612235929190612a83565b50806066908051906020019061224c929190612a83565b505050565b600060019054906101000a900460ff166122a0576040517f08c379a00000000000000000000000000000000000000000000000000000000081526004016122979061388c565b60405180910390fd5b6122b06122ab611372565b6119cb565b565b60006122d38473ffffffffffffffffffffffffffffffffffffffff166121ad565b1561243c578373ffffffffffffffffffffffffffffffffffffffff1663150b7a026122fc611372565b8786866040518563ffffffff1660e01b815260040161231e949392919061348d565b602060405180830381600087803b15801561233857600080fd5b505af192505050801561236957506040513d601f19601f820116820180604052508101906123669190612f15565b60015b6123ec573d8060008114612399576040519150601f19603f3d011682016040523d82523d6000602084013e61239e565b606091505b506000815114156123e4576040517f08c379a00000000000000000000000000000000000000000000000000000000081526004016123db9061354c565b60405180910390fd5b805181602001fd5b63150b7a0260e01b7bffffffffffffffffffffffffffffffffffffffffffffffffffffffff1916817bffffffffffffffffffffffffffffffffffffffffffffffffffffffff191614915050612441565b600190505b949350505050565b606060405180602001604052806000815250905090565b606061246b82611306565b6124aa576040517f08c379a00000000000000000000000000000000000000000000000000000000081526004016124a19061380c565b60405180910390fd5b60006124b4612449565b905060008151116124d457604051806020016040528060008152506124ff565b806124de84612695565b6040516020016124ef92919061344e565b6040516020818303038152906040525b915050919050565b6125118383612842565b61251e60008484846122b2565b61255d576040517f08c379a00000000000000000000000000000000000000000000000000000000081526004016125549061354c565b60405180910390fd5b505050565b61256b816120c8565b8073ffffffffffffffffffffffffffffffffffffffff167fbc7cd75a20ee27fd9adebab32041f755214dbc6bffa90cc0225b39da2e5c2d3b60405160405180910390a250565b60606125bc836121ad565b6125fb576040517f08c379a00000000000000000000000000000000000000000000000000000000081526004016125f29061384c565b60405180910390fd5b6000808473ffffffffffffffffffffffffffffffffffffffff16846040516126239190613437565b600060405180830381855af49150503d806000811461265e576040519150601f19603f3d011682016040523d82523d6000602084013e612663565b606091505b509150915061268b828260405180606001604052806027815260200161451160279139612a1c565b9250505092915050565b606060008214156126dd576040518060400160405280600181526020017f3000000000000000000000000000000000000000000000000000000000000000815250905061283d565b600082905060005b6000821461270f5780806126f890613b99565b915050600a8261270891906139f2565b91506126e5565b60008167ffffffffffffffff811115612751577f4e487b7100000000000000000000000000000000000000000000000000000000600052604160045260246000fd5b6040519080825280601f01601f1916602001820160405280156127835781602001600182028036833780820191505090505b5090505b600085146128365760018261279c9190613a23565b9150600a856127ab9190613be2565b60306127b7919061399c565b60f81b8183815181106127f3577f4e487b7100000000000000000000000000000000000000000000000000000000600052603260045260246000fd5b60200101907effffffffffffffffffffffffffffffffffffffffffffffffffffffffffffff1916908160001a905350600a8561282f91906139f2565b9450612787565b8093505050505b919050565b600073ffffffffffffffffffffffffffffffffffffffff168273ffffffffffffffffffffffffffffffffffffffff1614156128b2576040517f08c379a00000000000000000000000000000000000000000000000000000000081526004016128a99061374c565b60405180910390fd5b6128bb81611306565b156128fb576040517f08c379a00000000000000000000000000000000000000000000000000000000081526004016128f2906135ac565b60405180910390fd5b612907600083836120aa565b6001606860008473ffffffffffffffffffffffffffffffffffffffff1673ffffffffffffffffffffffffffffffffffffffff1681526020019081526020016000206000828254612957919061399c565b92505081905550816067600083815260200190815260200160002060006101000a81548173ffffffffffffffffffffffffffffffffffffffff021916908373ffffffffffffffffffffffffffffffffffffffff160217905550808273ffffffffffffffffffffffffffffffffffffffff16600073ffffffffffffffffffffffffffffffffffffffff167fddf252ad1be2c89b69c2b068fc378daa952ba7f163c4a11628f55a4df523b3ef60405160405180910390a4612a18600083836120af565b5050565b60608315612a2c57829050612a7c565b600083511115612a3f5782518084602001fd5b816040517f08c379a0000000000000000000000000000000000000000000000000000000008152600401612a73919061352a565b60405180910390fd5b9392505050565b828054612a8f90613b36565b90600052602060002090601f016020900481019282612ab15760008555612af8565b82601f10612aca57805160ff1916838001178555612af8565b82800160010185558215612af8579182015b82811115612af7578251825591602001919060010190612adc565b5b509050612b059190612b09565b5090565b5b80821115612b22576000816000905550600101612b0a565b5090565b6000612b39612b34846138ec565b6138c7565b905082815260208101848484011115612b5157600080fd5b612b5c848285613af4565b509392505050565b6000612b77612b728461391d565b6138c7565b905082815260208101848484011115612b8f57600080fd5b612b9a848285613af4565b509392505050565b600081359050612bb18161449d565b92915050565b600081359050612bc6816144b4565b92915050565b600081519050612bdb816144cb565b92915050565b600081359050612bf0816144e2565b92915050565b600081519050612c05816144e2565b92915050565b600082601f830112612c1c57600080fd5b8135612c2c848260208601612b26565b91505092915050565b600082601f830112612c4657600080fd5b8135612c56848260208601612b64565b91505092915050565b600081359050612c6e816144f9565b92915050565b600060208284031215612c8657600080fd5b6000612c9484828501612ba2565b91505092915050565b60008060408385031215612cb057600080fd5b6000612cbe85828601612ba2565b9250506020612ccf85828601612ba2565b9150509250929050565b600080600060608486031215612cee57600080fd5b6000612cfc86828701612ba2565b9350506020612d0d86828701612ba2565b9250506040612d1e86828701612c5f565b9150509250925092565b60008060008060808587031215612d3e57600080fd5b6000612d4c87828801612ba2565b9450506020612d5d87828801612ba2565b9350506040612d6e87828801612c5f565b925050606085013567ffffffffffffffff811115612d8b57600080fd5b612d9787828801612c0b565b91505092959194509250565b60008060408385031215612db657600080fd5b6000612dc485828601612ba2565b9250506020612dd585828601612bb7565b9150509250929050565b60008060408385031215612df257600080fd5b6000612e0085828601612ba2565b925050602083013567ffffffffffffffff811115612e1d57600080fd5b612e2985828601612c0b565b9150509250929050565b60008060408385031215612e4657600080fd5b6000612e5485828601612ba2565b925050602083013567ffffffffffffffff811115612e7157600080fd5b612e7d85828601612c35565b9150509250929050565b60008060408385031215612e9a57600080fd5b6000612ea885828601612ba2565b9250506020612eb985828601612c5f565b9150509250929050565b600060208284031215612ed557600080fd5b6000612ee384828501612bcc565b91505092915050565b600060208284031215612efe57600080fd5b6000612f0c84828501612be1565b91505092915050565b600060208284031215612f2757600080fd5b6000612f3584828501612bf6565b91505092915050565b600060208284031215612f5057600080fd5b6000612f5e84828501612c5f565b91505092915050565b612f7081613a57565b82525050565b612f7f81613a69565b82525050565b612f8e81613a75565b82525050565b6000612f9f8261394e565b612fa98185613964565b9350612fb9818560208601613b03565b612fc281613ccf565b840191505092915050565b6000612fd88261394e565b612fe28185613975565b9350612ff2818560208601613b03565b80840191505092915050565b61300781613ae2565b82525050565b600061301882613959565b6130228185613980565b9350613032818560208601613b03565b61303b81613ccf565b840191505092915050565b600061305182613959565b61305b8185613991565b935061306b818560208601613b03565b80840191505092915050565b6000613084603283613980565b915061308f82613ce0565b604082019050919050565b60006130a7602683613980565b91506130b282613d2f565b604082019050919050565b60006130ca602583613980565b91506130d582613d7e565b604082019050919050565b60006130ed601c83613980565b91506130f882613dcd565b602082019050919050565b6000613110602c83613980565b915061311b82613df6565b604082019050919050565b6000613133602483613980565b915061313e82613e45565b604082019050919050565b6000613156601983613980565b915061316182613e94565b602082019050919050565b6000613179602c83613980565b915061318482613ebd565b604082019050919050565b600061319c602c83613980565b91506131a782613f0c565b604082019050919050565b60006131bf603883613980565b91506131ca82613f5b565b604082019050919050565b60006131e2603883613980565b91506131ed82613faa565b604082019050919050565b6000613205602a83613980565b915061321082613ff9565b604082019050919050565b6000613228602983613980565b915061323382614048565b604082019050919050565b600061324b602e83613980565b915061325682614097565b604082019050919050565b600061326e602983613980565b9150613279826140e6565b604082019050919050565b6000613291602e83613980565b915061329c82614135565b604082019050919050565b60006132b4602083613980565b91506132bf82614184565b602082019050919050565b60006132d7602e83613980565b91506132e2826141ad565b604082019050919050565b60006132fa603183613980565b9150613305826141fc565b604082019050919050565b600061331d602c83613980565b91506133288261424b565b604082019050919050565b6000613340602d83613980565b915061334b8261429a565b604082019050919050565b6000613363602083613980565b915061336e826142e9565b602082019050919050565b6000613386602f83613980565b915061339182614312565b604082019050919050565b60006133a9602183613980565b91506133b482614361565b604082019050919050565b60006133cc602683613980565b91506133d7826143b0565b604082019050919050565b60006133ef603183613980565b91506133fa826143ff565b604082019050919050565b6000613412602b83613980565b915061341d8261444e565b604082019050919050565b61343181613acb565b82525050565b60006134438284612fcd565b915081905092915050565b600061345a8285613046565b91506134668284613046565b91508190509392505050565b60006020820190506134876000830184612f67565b92915050565b60006080820190506134a26000830187612f67565b6134af6020830186612f67565b6134bc6040830185613428565b81810360608301526134ce8184612f94565b905095945050505050565b60006020820190506134ee6000830184612f76565b92915050565b60006020820190506135096000830184612f85565b92915050565b60006020820190506135246000830184612ffe565b92915050565b60006020820190508181036000830152613544818461300d565b905092915050565b6000602082019050818103600083015261356581613077565b9050919050565b600060208201905081810360008301526135858161309a565b9050919050565b600060208201905081810360008301526135a5816130bd565b9050919050565b600060208201905081810360008301526135c5816130e0565b9050919050565b600060208201905081810360008301526135e581613103565b9050919050565b6000602082019050818103600083015261360581613126565b9050919050565b6000602082019050818103600083015261362581613149565b9050919050565b600060208201905081810360008301526136458161316c565b9050919050565b600060208201905081810360008301526136658161318f565b9050919050565b60006020820190508181036000830152613685816131b2565b9050919050565b600060208201905081810360008301526136a5816131d5565b9050919050565b600060208201905081810360008301526136c5816131f8565b9050919050565b600060208201905081810360008301526136e58161321b565b9050919050565b600060208201905081810360008301526137058161323e565b9050919050565b6000602082019050818103600083015261372581613261565b9050919050565b6000602082019050818103600083015261374581613284565b9050919050565b60006020820190508181036000830152613765816132a7565b9050919050565b60006020820190508181036000830152613785816132ca565b9050919050565b600060208201905081810360008301526137a5816132ed565b9050919050565b600060208201905081810360008301526137c581613310565b9050919050565b600060208201905081810360008301526137e581613333565b9050919050565b6000602082019050818103600083015261380581613356565b9050919050565b6000602082019050818103600083015261382581613379565b9050919050565b600060208201905081810360008301526138458161339c565b9050919050565b60006020820190508181036000830152613865816133bf565b9050919050565b60006020820190508181036000830152613885816133e2565b9050919050565b600060208201905081810360008301526138a581613405565b9050919050565b60006020820190506138c16000830184613428565b92915050565b60006138d16138e2565b90506138dd8282613b68565b919050565b6000604051905090565b600067ffffffffffffffff82111561390757613906613ca0565b5b61391082613ccf565b9050602081019050919050565b600067ffffffffffffffff82111561393857613937613ca0565b5b61394182613ccf565b9050602081019050919050565b600081519050919050565b600081519050919050565b600082825260208201905092915050565b600081905092915050565b600082825260208201905092915050565b600081905092915050565b60006139a782613acb565b91506139b283613acb565b9250827fffffffffffffffffffffffffffffffffffffffffffffffffffffffffffffffff038211156139e7576139e6613c13565b5b828201905092915050565b60006139fd82613acb565b9150613a0883613acb565b925082613a1857613a17613c42565b5b828204905092915050565b6000613a2e82613acb565b9150613a3983613acb565b925082821015613a4c57613a4b613c13565b5b828203905092915050565b6000613a6282613aab565b9050919050565b60008115159050919050565b6000819050919050565b60007fffffffff0000000000000000000000000000000000000000000000000000000082169050919050565b600073ffffffffffffffffffffffffffffffffffffffff82169050919050565b6000819050919050565b600060ff82169050919050565b6000613aed82613ad5565b9050919050565b82818337600083830152505050565b60005b83811015613b21578082015181840152602081019050613b06565b83811115613b30576000848401525b50505050565b60006002820490506001821680613b4e57607f821691505b60208210811415613b6257613b61613c71565b5b50919050565b613b7182613ccf565b810181811067ffffffffffffffff82111715613b9057613b8f613ca0565b5b80604052505050565b6000613ba482613acb565b91507fffffffffffffffffffffffffffffffffffffffffffffffffffffffffffffffff821415613bd757613bd6613c13565b5b600182019050919050565b6000613bed82613acb565b9150613bf883613acb565b925082613c0857613c07613c42565b5b828206905092915050565b7f4e487b7100000000000000000000000000000000000000000000000000000000600052601160045260246000fd5b7f4e487b7100000000000000000000000000000000000000000000000000000000600052601260045260246000fd5b7f4e487b7100000000000000000000000000000000000000000000000000000000600052602260045260246000fd5b7f4e487b7100000000000000000000000000000000000000000000000000000000600052604160045260246000fd5b6000601f19601f8301169050919050565b7f4552433732313a207472616e7366657220746f206e6f6e20455243373231526560008201527f63656976657220696d706c656d656e7465720000000000000000000000000000602082015250565b7f4f776e61626c653a206e6577206f776e657220697320746865207a65726f206160008201527f6464726573730000000000000000000000000000000000000000000000000000602082015250565b7f4552433732313a207472616e736665722066726f6d20696e636f72726563742060008201527f6f776e6572000000000000000000000000000000000000000000000000000000602082015250565b7f4552433732313a20746f6b656e20616c7265616479206d696e74656400000000600082015250565b7f46756e6374696f6e206d7573742062652063616c6c6564207468726f7567682060008201527f64656c656761746563616c6c0000000000000000000000000000000000000000602082015250565b7f4552433732313a207472616e7366657220746f20746865207a65726f2061646460008201527f7265737300000000000000000000000000000000000000000000000000000000602082015250565b7f4552433732313a20617070726f766520746f2063616c6c657200000000000000600082015250565b7f46756e6374696f6e206d7573742062652063616c6c6564207468726f7567682060008201527f6163746976652070726f78790000000000000000000000000000000000000000602082015250565b7f4552433732313a206f70657261746f7220717565727920666f72206e6f6e657860008201527f697374656e7420746f6b656e0000000000000000000000000000000000000000602082015250565b7f555550535570677261646561626c653a206d757374206e6f742062652063616c60008201527f6c6564207468726f7567682064656c656761746563616c6c0000000000000000602082015250565b7f4552433732313a20617070726f76652063616c6c6572206973206e6f74206f7760008201527f6e6572206e6f7220617070726f76656420666f7220616c6c0000000000000000602082015250565b7f4552433732313a2062616c616e636520717565727920666f7220746865207a6560008201527f726f206164647265737300000000000000000000000000000000000000000000602082015250565b7f4552433732313a206f776e657220717565727920666f72206e6f6e657869737460008201527f656e7420746f6b656e0000000000000000000000000000000000000000000000602082015250565b7f45524337323155524953746f726167653a2055524920736574206f66206e6f6e60008201527f6578697374656e7420746f6b656e000000000000000000000000000000000000602082015250565b7f45524331393637557067726164653a20756e737570706f727465642070726f7860008201527f6961626c65555549440000000000000000000000000000000000000000000000602082015250565b7f496e697469616c697a61626c653a20636f6e747261637420697320616c72656160008201527f647920696e697469616c697a6564000000000000000000000000000000000000602082015250565b7f4552433732313a206d696e7420746f20746865207a65726f2061646472657373600082015250565b7f45524331393637557067726164653a206e657720696d706c656d656e7461746960008201527f6f6e206973206e6f742055555053000000000000000000000000000000000000602082015250565b7f45524337323155524953746f726167653a2055524920717565727920666f722060008201527f6e6f6e6578697374656e7420746f6b656e000000000000000000000000000000602082015250565b7f4552433732313a20617070726f76656420717565727920666f72206e6f6e657860008201527f697374656e7420746f6b656e0000000000000000000000000000000000000000602082015250565b7f455243313936373a206e657720696d706c656d656e746174696f6e206973206e60008201527f6f74206120636f6e747261637400000000000000000000000000000000000000602082015250565b7f4f776e61626c653a2063616c6c6572206973206e6f7420746865206f776e6572600082015250565b7f4552433732314d657461646174613a2055524920717565727920666f72206e6f60008201527f6e6578697374656e7420746f6b656e0000000000000000000000000000000000602082015250565b7f4552433732313a20617070726f76616c20746f2063757272656e74206f776e6560008201527f7200000000000000000000000000000000000000000000000000000000000000602082015250565b7f416464726573733a2064656c65676174652063616c6c20746f206e6f6e2d636f60008201527f6e74726163740000000000000000000000000000000000000000000000000000602082015250565b7f4552433732313a207472616e736665722063616c6c6572206973206e6f74206f60008201527f776e6572206e6f7220617070726f766564000000000000000000000000000000602082015250565b7f496e697469616c697a61626c653a20636f6e7472616374206973206e6f74206960008201527f6e697469616c697a696e67000000000000000000000000000000000000000000602082015250565b6144a681613a57565b81146144b157600080fd5b50565b6144bd81613a69565b81146144c857600080fd5b50565b6144d481613a75565b81146144df57600080fd5b50565b6144eb81613a7f565b81146144f657600080fd5b50565b61450281613acb565b811461450d57600080fd5b5056fe416464726573733a206c6f772d6c6576656c2064656c65676174652063616c6c206661696c6564a264697066735822122045f75aef5f7672247e735c747ea38fe79302ca940fdd312b0860b06a251285cd64736f6c63430008040033",
  "linkReferences": {},
  "deployedLinkReferences": {}
}