{
  "_format": "hh-sol-artifact-1",
  "contractName": "MyToken",
  "sourceName": "contracts/nft/LHNFT.sol",
  "abi": [
    {
      "anonymous": false,
      "inputs": [
        {
          "indexed": false,
          "internalType": "address",
          "name": "previousAdmin",
          "type": "address"
        },
        {
          "indexed": false,
          "internalType": "address",
          "name": "newAdmin",
          "type": "address"
        }
      ],
      "name": "AdminChanged",
      "type": "event"
    },
    {
      "anonymous": false,
      "inputs": [
        {
          "indexed": true,
          "internalType": "address",
          "name": "owner",
          "type": "address"
        },
        {
          "indexed": true,
          "internalType": "address",
          "name": "approved",
          "type": "address"
        },
        {
          "indexed": true,
          "internalType": "uint256",
          "name": "tokenId",
          "type": "uint256"
        }
      ],
      "name": "Approval",
      "type": "event"
    },
    {
      "anonymous": false,
      "inputs": [
        {
          "indexed": true,
          "internalType": "address",
          "name": "owner",
          "type": "address"
        },
        {
          "indexed": true,
          "internalType": "address",
          "name": "operator",
          "type": "address"
        },
        {
          "indexed": false,
          "internalType": "bool",
          "name": "approved",
          "type": "bool"
        }
      ],
      "name": "ApprovalForAll",
      "type": "event"
    },
    {
      "anonymous": false,
      "inputs": [
        {
          "indexed": true,
          "internalType": "address",
          "name": "beacon",
          "type": "address"
        }
      ],
      "name": "BeaconUpgraded",
      "type": "event"
    },
    {
      "anonymous": false,
      "inputs": [
        {
          "indexed": false,
          "internalType": "uint8",
          "name": "version",
          "type": "uint8"
        }
      ],
      "name": "Initialized",
      "type": "event"
    },
    {
      "anonymous": false,
      "inputs": [
        {
          "indexed": true,
          "internalType": "address",
          "name": "previousOwner",
          "type": "address"
        },
        {
          "indexed": true,
          "internalType": "address",
          "name": "newOwner",
          "type": "address"
        }
      ],
      "name": "OwnershipTransferred",
      "type": "event"
    },
    {
      "anonymous": false,
      "inputs": [
        {
          "indexed": true,
          "internalType": "address",
          "name": "from",
          "type": "address"
        },
        {
          "indexed": true,
          "internalType": "address",
          "name": "to",
          "type": "address"
        },
        {
          "indexed": true,
          "internalType": "uint256",
          "name": "tokenId",
          "type": "uint256"
        }
      ],
      "name": "Transfer",
      "type": "event"
    },
    {
      "anonymous": false,
      "inputs": [
        {
          "indexed": true,
          "internalType": "address",
          "name": "implementation",
          "type": "address"
        }
      ],
      "name": "Upgraded",
      "type": "event"
    },
    {
      "inputs": [
        {
          "internalType": "address",
          "name": "to",
          "type": "address"
        },
        {
          "internalType": "uint256",
          "name": "tokenId",
          "type": "uint256"
        }
      ],
      "name": "approve",
      "outputs": [],
      "stateMutability": "nonpayable",
      "type": "function"
    },
    {
      "inputs": [
        {
          "internalType": "address",
          "name": "owner",
          "type": "address"
        }
      ],
      "name": "balanceOf",
      "outputs": [
        {
          "internalType": "uint256",
          "name": "",
          "type": "uint256"
        }
      ],
      "stateMutability": "view",
      "type": "function"
    },
    {
      "inputs": [
        {
          "internalType": "uint256",
          "name": "tokenId",
          "type": "uint256"
        }
      ],
      "name": "getApproved",
      "outputs": [
        {
          "internalType": "address",
          "name": "",
          "type": "address"
        }
      ],
      "stateMutability": "view",
      "type": "function"
    },
    {
      "inputs": [],
      "name": "initialize",
      "outputs": [],
      "stateMutability": "nonpayable",
      "type": "function"
    },
    {
      "inputs": [
        {
          "internalType": "address",
          "name": "owner",
          "type": "address"
        },
        {
          "internalType": "address",
          "name": "operator",
          "type": "address"
        }
      ],
      "name": "isApprovedForAll",
      "outputs": [
        {
          "internalType": "bool",
          "name": "",
          "type": "bool"
        }
      ],
      "stateMutability": "view",
      "type": "function"
    },
    {
      "inputs": [],
      "name": "name",
      "outputs": [
        {
          "internalType": "string",
          "name": "",
          "type": "string"
        }
      ],
      "stateMutability": "view",
      "type": "function"
    },
    {
      "inputs": [],
      "name": "owner",
      "outputs": [
        {
          "internalType": "address",
          "name": "",
          "type": "address"
        }
      ],
      "stateMutability": "view",
      "type": "function"
    },
    {
      "inputs": [
        {
          "internalType": "uint256",
          "name": "tokenId",
          "type": "uint256"
        }
      ],
      "name": "ownerOf",
      "outputs": [
        {
          "internalType": "address",
          "name": "",
          "type": "address"
        }
      ],
      "stateMutability": "view",
      "type": "function"
    },
    {
      "inputs": [],
      "name": "proxiableUUID",
      "outputs": [
        {
          "internalType": "bytes32",
          "name": "",
          "type": "bytes32"
        }
      ],
      "stateMutability": "view",
      "type": "function"
    },
    {
      "inputs": [],
      "name": "renounceOwnership",
      "outputs": [],
      "stateMutability": "nonpayable",
      "type": "function"
    },
    {
      "inputs": [
        {
          "internalType": "address",
          "name": "to",
          "type": "address"
        },
        {
          "internalType": "string",
          "name": "uri",
          "type": "string"
        }
      ],
      "name": "safeMint",
      "outputs": [],
      "stateMutability": "nonpayable",
      "type": "function"
    },
    {
      "inputs": [
        {
          "internalType": "address",
          "name": "from",
          "type": "address"
        },
        {
          "internalType": "address",
          "name": "to",
          "type": "address"
        },
        {
          "internalType": "uint256",
          "name": "tokenId",
          "type": "uint256"
        }
      ],
      "name": "safeTransferFrom",
      "outputs": [],
      "stateMutability": "nonpayable",
      "type": "function"
    },
    {
      "inputs": [
        {
          "internalType": "address",
          "name": "from",
          "type": "address"
        },
        {
          "internalType": "address",
          "name": "to",
          "type": "address"
        },
        {
          "internalType": "uint256",
          "name": "tokenId",
          "type": "uint256"
        },
        {
          "internalType": "bytes",
          "name": "_data",
          "type": "bytes"
        }
      ],
      "name": "safeTransferFrom",
      "outputs": [],
      "stateMutability": "nonpayable",
      "type": "function"
    },
    {
      "inputs": [
        {
          "internalType": "address",
          "name": "operator",
          "type": "address"
        },
        {
          "internalType": "bool",
          "name": "approved",
          "type": "bool"
        }
      ],
      "name": "setApprovalForAll",
      "outputs": [],
      "stateMutability": "nonpayable",
      "type": "function"
    },
    {
      "inputs": [
        {
          "internalType": "bytes4",
          "name": "interfaceId",
          "type": "bytes4"
        }
      ],
      "name": "supportsInterface",
      "outputs": [
        {
          "internalType": "bool",
          "name": "",
          "type": "bool"
        }
      ],
      "stateMutability": "view",
      "type": "function"
    },
    {
      "inputs": [],
      "name": "symbol",
      "outputs": [
        {
          "internalType": "string",
          "name": "",
          "type": "string"
        }
      ],
      "stateMutability": "view",
      "type": "function"
    },
    {
      "inputs": [
        {
          "internalType": "uint256",
          "name": "tokenId",
          "type": "uint256"
        }
      ],
      "name": "tokenURI",
      "outputs": [
        {
          "internalType": "string",
          "name": "",
          "type": "string"
        }
      ],
      "stateMutability": "view",
      "type": "function"
    },
    {
      "inputs": [
        {
          "internalType": "address",
          "name": "from",
          "type": "address"
        },
        {
          "internalType": "address",
          "name": "to",
          "type": "address"
        },
        {
          "internalType": "uint256",
          "name": "tokenId",
          "type": "uint256"
        }
      ],
      "name": "transferFrom",
      "outputs": [],
      "stateMutability": "nonpayable",
      "type": "function"
    },
    {
      "inputs": [
        {
          "internalType": "address",
          "name": "newOwner",
          "type": "address"
        }
      ],
      "name": "transferOwnership",
      "outputs": [],
      "stateMutability": "nonpayable",
      "type": "function"
    },
    {
      "inputs": [
        {
          "internalType": "address",
          "name": "newImplementation",
          "type": "address"
        }
      ],
      "name": "upgradeTo",
      "outputs": [],
      "stateMutability": "nonpayable",
      "type": "function"
    },
    {
      "inputs": [
        {
          "internalType": "address",
          "name": "newImplementation",
          "type": "address"
        },
        {
          "internalType": "bytes",
          "name": "data",
          "type": "bytes"
        }
      ],
      "name": "upgradeToAndCall",
      "outputs": [],
      "stateMutability": "payable",
      "type": "function"
    }
  ],
  "bytecode": "0x60a06040523073ffffffffffffffffffffffffffffffffffffffff1660809073ffffffffffffffffffffffffffffffffffffffff1660601b81525034801561004657600080fd5b5060805160601c6149386100816000396000818161084e015281816108dd01528181610a1d01528181610aac0152610b5c01526149386000f3fe60806040526004361061012a5760003560e01c806370a08231116100ab578063a22cb4651161006f578063a22cb465146103bd578063b88d4fde146103e6578063c87b56dd1461040f578063d204c45e1461044c578063e985e9c514610475578063f2fde38b146104b25761012a565b806370a08231146102fc578063715018a6146103395780638129fc1c146103505780638da5cb5b1461036757806395d89b41146103925761012a565b80633659cfe6116100f25780633659cfe61461022657806342842e0e1461024f5780634f1ef2861461027857806352d1902d146102945780636352211e146102bf5761012a565b806301ffc9a71461012f57806306fdde031461016c578063081812fc14610197578063095ea7b3146101d457806323b872dd146101fd575b600080fd5b34801561013b57600080fd5b50610156600480360381019061015191906132b7565b6104db565b60405161016391906138a4565b60405180910390f35b34801561017857600080fd5b506101816105bd565b60405161018e91906138f5565b60405180910390f35b3480156101a357600080fd5b506101be60048036038101906101b99190613309565b61064f565b6040516101cb919061383d565b60405180910390f35b3480156101e057600080fd5b506101fb60048036038101906101f69190613252565b6106d4565b005b34801561020957600080fd5b50610224600480360381019061021f91906130a4565b6107ec565b005b34801561023257600080fd5b5061024d6004803603810190610248919061303f565b61084c565b005b34801561025b57600080fd5b50610276600480360381019061027191906130a4565b6109fb565b005b610292600480360381019061028d91906131aa565b610a1b565b005b3480156102a057600080fd5b506102a9610b58565b6040516102b691906138bf565b60405180910390f35b3480156102cb57600080fd5b506102e660048036038101906102e19190613309565b610c11565b6040516102f3919061383d565b60405180910390f35b34801561030857600080fd5b50610323600480360381019061031e919061303f565b610cc3565b6040516103309190613c77565b60405180910390f35b34801561034557600080fd5b5061034e610d7b565b005b34801561035c57600080fd5b50610365610e03565b005b34801561037357600080fd5b5061037c6110a7565b604051610389919061383d565b60405180910390f35b34801561039e57600080fd5b506103a76110d1565b6040516103b491906138f5565b60405180910390f35b3480156103c957600080fd5b506103e460048036038101906103df919061316e565b611163565b005b3480156103f257600080fd5b5061040d600480360381019061040891906130f3565b611179565b005b34801561041b57600080fd5b5061043660048036038101906104319190613309565b6111db565b60405161044391906138f5565b60405180910390f35b34801561045857600080fd5b50610473600480360381019061046e91906131fe565b611271565b005b34801561048157600080fd5b5061049c60048036038101906104979190613068565b6114ac565b6040516104a991906138a4565b60405180910390f35b3480156104be57600080fd5b506104d960048036038101906104d4919061303f565b611540565b005b60007f80ac58cd000000000000000000000000000000000000000000000000000000007bffffffffffffffffffffffffffffffffffffffffffffffffffffffff1916827bffffffffffffffffffffffffffffffffffffffffffffffffffffffff191614806105a657507f5b5e139f000000000000000000000000000000000000000000000000000000007bffffffffffffffffffffffffffffffffffffffffffffffffffffffff1916827bffffffffffffffffffffffffffffffffffffffffffffffffffffffff1916145b806105b657506105b582611638565b5b9050919050565b6060606580546105cc90613f01565b80601f01602080910402602001604051908101604052809291908181526020018280546105f890613f01565b80156106455780601f1061061a57610100808354040283529160200191610645565b820191906000526020600020905b81548152906001019060200180831161062857829003601f168201915b5050505050905090565b600061065a826116a2565b610699576040517f08c379a000000000000000000000000000000000000000000000000000000000815260040161069090613b77565b60405180910390fd5b6069600083815260200190815260200160002060009054906101000a900473ffffffffffffffffffffffffffffffffffffffff169050919050565b60006106df82610c11565b90508073ffffffffffffffffffffffffffffffffffffffff168373ffffffffffffffffffffffffffffffffffffffff161415610750576040517f08c379a000000000000000000000000000000000000000000000000000000000815260040161074790613bf7565b60405180910390fd5b8073ffffffffffffffffffffffffffffffffffffffff1661076f61170e565b73ffffffffffffffffffffffffffffffffffffffff16148061079e575061079d8161079861170e565b6114ac565b5b6107dd576040517f08c379a00000000000000000000000000000000000000000000000000000000081526004016107d490613a57565b60405180910390fd5b6107e78383611716565b505050565b6107fd6107f761170e565b826117cf565b61083c576040517f08c379a000000000000000000000000000000000000000000000000000000000815260040161083390613c37565b60405180910390fd5b6108478383836118ad565b505050565b7f000000000000000000000000000000000000000000000000000000000000000073ffffffffffffffffffffffffffffffffffffffff163073ffffffffffffffffffffffffffffffffffffffff1614156108db576040517f08c379a00000000000000000000000000000000000000000000000000000000081526004016108d290613997565b60405180910390fd5b7f000000000000000000000000000000000000000000000000000000000000000073ffffffffffffffffffffffffffffffffffffffff1661091a611b14565b73ffffffffffffffffffffffffffffffffffffffff1614610970576040517f08c379a0000000000000000000000000000000000000000000000000000000008152600401610967906139f7565b60405180910390fd5b61097981611b6b565b6109f881600067ffffffffffffffff8111156109be577f4e487b7100000000000000000000000000000000000000000000000000000000600052604160045260246000fd5b6040519080825280601f01601f1916602001820160405280156109f05781602001600182028036833780820191505090505b506000611c16565b50565b610a1683838360405180602001604052806000815250611179565b505050565b7f000000000000000000000000000000000000000000000000000000000000000073ffffffffffffffffffffffffffffffffffffffff163073ffffffffffffffffffffffffffffffffffffffff161415610aaa576040517f08c379a0000000000000000000000000000000000000000000000000000000008152600401610aa190613997565b60405180910390fd5b7f000000000000000000000000000000000000000000000000000000000000000073ffffffffffffffffffffffffffffffffffffffff16610ae9611b14565b73ffffffffffffffffffffffffffffffffffffffff1614610b3f576040517f08c379a0000000000000000000000000000000000000000000000000000000008152600401610b36906139f7565b60405180910390fd5b610b4882611b6b565b610b5482826001611c16565b5050565b60007f000000000000000000000000000000000000000000000000000000000000000073ffffffffffffffffffffffffffffffffffffffff163073ffffffffffffffffffffffffffffffffffffffff1614610be8576040517f08c379a0000000000000000000000000000000000000000000000000000000008152600401610bdf90613a37565b60405180910390fd5b7f360894a13ba1a3210667c828492db98dca3e2076cc3735a920a3ca505d382bbc60001b905090565b6000806067600084815260200190815260200160002060009054906101000a900473ffffffffffffffffffffffffffffffffffffffff169050600073ffffffffffffffffffffffffffffffffffffffff168173ffffffffffffffffffffffffffffffffffffffff161415610cba576040517f08c379a0000000000000000000000000000000000000000000000000000000008152600401610cb190613a97565b60405180910390fd5b80915050919050565b60008073ffffffffffffffffffffffffffffffffffffffff168273ffffffffffffffffffffffffffffffffffffffff161415610d34576040517f08c379a0000000000000000000000000000000000000000000000000000000008152600401610d2b90613a77565b60405180910390fd5b606860008373ffffffffffffffffffffffffffffffffffffffff1673ffffffffffffffffffffffffffffffffffffffff168152602001908152602001600020549050919050565b610d8361170e565b73ffffffffffffffffffffffffffffffffffffffff16610da16110a7565b73ffffffffffffffffffffffffffffffffffffffff1614610df7576040517f08c379a0000000000000000000000000000000000000000000000000000000008152600401610dee90613bb7565b60405180910390fd5b610e016000611d93565b565b6000610e0f6001611e59565b90508015610e33576001600060016101000a81548160ff0219169083151502179055505b610e5f7f3e14323ce2e92f27ec211cd271213a7ba39739f2cdad317443c242cf0ffdc99b60001b611f49565b610e8b7f7ebc5dcfb6f239fea27958cd7dc55aa40a98cef61857be0d65f17229eac0716360001b611f49565b610eb77f1f24400119f8e21221cf43a16cdbbe34775b3a699c153a5202e10637f690879460001b611f49565b610f2b6040518060400160405280600d81526020017f4c69676874486f7573654e4654000000000000000000000000000000000000008152506040518060400160405280600581526020017f4c484e4654000000000000000000000000000000000000000000000000000000815250611f4c565b610f577f01ca3ba6666534ccfaaf88e4d2aaf72354faca9a890e873e14d532462920efb860001b611f49565b610f837f84b0d578d5b36de78910125f3b827bdf1de7d6df680dd34c1fdb7a55dee4b2c460001b611f49565b610f8b611fa9565b610fb77f6e993f27c0e86448ff5b499a4e5e52e264275e843ca053bccf3c17b73dbcc1ee60001b611f49565b610fe37fc1c3371b3b81860d38e97c8b3a0b3c122da3d16417a9c6a6dba99725be8f5e1660001b611f49565b610feb611ffa565b6110177f504220d38da41c4ac8d6a97734846765e0305fb25a9029c6a0b74b65f90ba3e360001b611f49565b6110437f355092f7d5d78fb7ecf41bca894143b9c29de87e90d599f8d192e605913c23ba60001b611f49565b61104b612053565b80156110a45760008060016101000a81548160ff0219169083151502179055507f7f26b83ff96e1f2b6a682f133852f6798a09c465da95921460cefb3847402498600160405161109b91906138da565b60405180910390a15b50565b600060c960009054906101000a900473ffffffffffffffffffffffffffffffffffffffff16905090565b6060606680546110e090613f01565b80601f016020809104026020016040519081016040528092919081815260200182805461110c90613f01565b80156111595780601f1061112e57610100808354040283529160200191611159565b820191906000526020600020905b81548152906001019060200180831161113c57829003601f168201915b5050505050905090565b61117561116e61170e565b83836120a4565b5050565b61118a61118461170e565b836117cf565b6111c9576040517f08c379a00000000000000000000000000000000000000000000000000000000081526004016111c090613c37565b60405180910390fd5b6111d584848484612211565b50505050565b60606112097f394acd78350ae6455f8e84a8b2d5069c9f70a4fba75bf56b496424d085d62a6060001b611f49565b6112357fe1c564cc2350257e836acb247694e03d483c73b4220aedf4626c5d9f015baa9b60001b611f49565b6112617fb5a65ff533998019a00819eb78595901f67fb76c2242d89b5551003c39bdb3de60001b611f49565b61126a8261226d565b9050919050565b61127961170e565b73ffffffffffffffffffffffffffffffffffffffff166112976110a7565b73ffffffffffffffffffffffffffffffffffffffff16146112ed576040517f08c379a00000000000000000000000000000000000000000000000000000000081526004016112e490613bb7565b60405180910390fd5b6113197f7771fd2b1656e3eed81eda545a4cb96e5f241fb4cccf67111d41e2358f412a6260001b611f49565b6113457fffccf99226130a9303501323260dd28f2d864f1ef6992fc0473319df65493b9560001b611f49565b6113717f0c1c8eb554f47ac273cb2299b224bd93cd1f5f99f3e3d859cc1fd5180d6edb4960001b611f49565b600061137e61015f6123bf565b90506113ac7f9372625f6543f498bf08df55e2cd1aec08223a66f6b99290a772b0cf195fd76560001b611f49565b6113d87fe028e8082839f6761a4f6b8f360ecb43bebc8102d50c37495c9bd65353a92d6f60001b611f49565b6113e361015f6123cd565b61140f7f227c7afc28b5db311cf2b7ac811c8c4b66c5afcec83dfe075caa19bd4c914ce360001b611f49565b61143b7fc49d8201323de393b788fa6a90a71c2ceb6e37034de8fb6ceabfda0dd9eec20160001b611f49565b61144583826123e3565b6114717f1003e90dc924d8d47f8cbbf960a486fa4306ff4ed66ba0089f8f294e9a663d6860001b611f49565b61149d7fe540811f59f911cf11ecd2ef2631be1454ffd83f6b86543839ada0b641681a5460001b611f49565b6114a78183612401565b505050565b6000606a60008473ffffffffffffffffffffffffffffffffffffffff1673ffffffffffffffffffffffffffffffffffffffff16815260200190815260200160002060008373ffffffffffffffffffffffffffffffffffffffff1673ffffffffffffffffffffffffffffffffffffffff16815260200190815260200160002060009054906101000a900460ff16905092915050565b61154861170e565b73ffffffffffffffffffffffffffffffffffffffff166115666110a7565b73ffffffffffffffffffffffffffffffffffffffff16146115bc576040517f08c379a00000000000000000000000000000000000000000000000000000000081526004016115b390613bb7565b60405180910390fd5b600073ffffffffffffffffffffffffffffffffffffffff168173ffffffffffffffffffffffffffffffffffffffff16141561162c576040517f08c379a000000000000000000000000000000000000000000000000000000000815260040161162390613937565b60405180910390fd5b61163581611d93565b50565b60007f01ffc9a7000000000000000000000000000000000000000000000000000000007bffffffffffffffffffffffffffffffffffffffffffffffffffffffff1916827bffffffffffffffffffffffffffffffffffffffffffffffffffffffff1916149050919050565b60008073ffffffffffffffffffffffffffffffffffffffff166067600084815260200190815260200160002060009054906101000a900473ffffffffffffffffffffffffffffffffffffffff1673ffffffffffffffffffffffffffffffffffffffff1614159050919050565b600033905090565b816069600083815260200190815260200160002060006101000a81548173ffffffffffffffffffffffffffffffffffffffff021916908373ffffffffffffffffffffffffffffffffffffffff160217905550808273ffffffffffffffffffffffffffffffffffffffff1661178983610c11565b73ffffffffffffffffffffffffffffffffffffffff167f8c5be1e5ebec7d5bd14f71427d1e84f3dd0314c0f7b2291e5b200ac8c7c3b92560405160405180910390a45050565b60006117da826116a2565b611819576040517f08c379a000000000000000000000000000000000000000000000000000000000815260040161181090613a17565b60405180910390fd5b600061182483610c11565b90508073ffffffffffffffffffffffffffffffffffffffff168473ffffffffffffffffffffffffffffffffffffffff161480611866575061186581856114ac565b5b806118a457508373ffffffffffffffffffffffffffffffffffffffff1661188c8461064f565b73ffffffffffffffffffffffffffffffffffffffff16145b91505092915050565b8273ffffffffffffffffffffffffffffffffffffffff166118cd82610c11565b73ffffffffffffffffffffffffffffffffffffffff1614611923576040517f08c379a000000000000000000000000000000000000000000000000000000000815260040161191a90613957565b60405180910390fd5b600073ffffffffffffffffffffffffffffffffffffffff168273ffffffffffffffffffffffffffffffffffffffff161415611993576040517f08c379a000000000000000000000000000000000000000000000000000000000815260040161198a906139b7565b60405180910390fd5b61199e838383612475565b6119a9600082611716565b6001606860008573ffffffffffffffffffffffffffffffffffffffff1673ffffffffffffffffffffffffffffffffffffffff16815260200190815260200160002060008282546119f99190613dee565b925050819055506001606860008473ffffffffffffffffffffffffffffffffffffffff1673ffffffffffffffffffffffffffffffffffffffff1681526020019081526020016000206000828254611a509190613d67565b92505081905550816067600083815260200190815260200160002060006101000a81548173ffffffffffffffffffffffffffffffffffffffff021916908373ffffffffffffffffffffffffffffffffffffffff160217905550808273ffffffffffffffffffffffffffffffffffffffff168473ffffffffffffffffffffffffffffffffffffffff167fddf252ad1be2c89b69c2b068fc378daa952ba7f163c4a11628f55a4df523b3ef60405160405180910390a4611b0f83838361247a565b505050565b6000611b427f360894a13ba1a3210667c828492db98dca3e2076cc3735a920a3ca505d382bbc60001b61247f565b60000160009054906101000a900473ffffffffffffffffffffffffffffffffffffffff16905090565b611b7361170e565b73ffffffffffffffffffffffffffffffffffffffff16611b916110a7565b73ffffffffffffffffffffffffffffffffffffffff1614611be7576040517f08c379a0000000000000000000000000000000000000000000000000000000008152600401611bde90613bb7565b60405180910390fd5b611c137f87c52683930416e9f4d222f361077dcdc69569783da921ec403b81f3ac3de07c60001b611f49565b50565b611c427f4910fdfa16fed3260ed0e7147f7cc6da11a60208b5b9406d12a635614ffd914360001b612489565b60000160009054906101000a900460ff1615611c6657611c6183612493565b611d8e565b8273ffffffffffffffffffffffffffffffffffffffff166352d1902d6040518163ffffffff1660e01b815260040160206040518083038186803b158015611cac57600080fd5b505afa925050508015611cdd57506040513d601f19601f82011682018060405250810190611cda919061328e565b60015b611d1c576040517f08c379a0000000000000000000000000000000000000000000000000000000008152600401611d1390613b37565b60405180910390fd5b7f360894a13ba1a3210667c828492db98dca3e2076cc3735a920a3ca505d382bbc60001b8114611d81576040517f08c379a0000000000000000000000000000000000000000000000000000000008152600401611d7890613ad7565b60405180910390fd5b50611d8d83838361254c565b5b505050565b600060c960009054906101000a900473ffffffffffffffffffffffffffffffffffffffff1690508160c960006101000a81548173ffffffffffffffffffffffffffffffffffffffff021916908373ffffffffffffffffffffffffffffffffffffffff1602179055508173ffffffffffffffffffffffffffffffffffffffff168173ffffffffffffffffffffffffffffffffffffffff167f8be0079c531659141344cd1fd0a4f28419497f9722a3daafe3b4186f6b6457e060405160405180910390a35050565b60008060019054906101000a900460ff1615611ed05760018260ff16148015611e885750611e8630612578565b155b611ec7576040517f08c379a0000000000000000000000000000000000000000000000000000000008152600401611ebe90613af7565b60405180910390fd5b60009050611f44565b8160ff1660008054906101000a900460ff1660ff1610611f25576040517f08c379a0000000000000000000000000000000000000000000000000000000008152600401611f1c90613af7565b60405180910390fd5b816000806101000a81548160ff021916908360ff160217905550600190505b919050565b50565b600060019054906101000a900460ff16611f9b576040517f08c379a0000000000000000000000000000000000000000000000000000000008152600401611f9290613c57565b60405180910390fd5b611fa5828261259b565b5050565b600060019054906101000a900460ff16611ff8576040517f08c379a0000000000000000000000000000000000000000000000000000000008152600401611fef90613c57565b60405180910390fd5b565b600060019054906101000a900460ff16612049576040517f08c379a000000000000000000000000000000000000000000000000000000000815260040161204090613c57565b60405180910390fd5b61205161261c565b565b600060019054906101000a900460ff166120a2576040517f08c379a000000000000000000000000000000000000000000000000000000000815260040161209990613c57565b60405180910390fd5b565b8173ffffffffffffffffffffffffffffffffffffffff168373ffffffffffffffffffffffffffffffffffffffff161415612113576040517f08c379a000000000000000000000000000000000000000000000000000000000815260040161210a906139d7565b60405180910390fd5b80606a60008573ffffffffffffffffffffffffffffffffffffffff1673ffffffffffffffffffffffffffffffffffffffff16815260200190815260200160002060008473ffffffffffffffffffffffffffffffffffffffff1673ffffffffffffffffffffffffffffffffffffffff16815260200190815260200160002060006101000a81548160ff0219169083151502179055508173ffffffffffffffffffffffffffffffffffffffff168373ffffffffffffffffffffffffffffffffffffffff167f17307eab39ab6107e8899845ad3d59bd9653f200f220920489ca2b5937696c318360405161220491906138a4565b60405180910390a3505050565b61221c8484846118ad565b6122288484848461267d565b612267576040517f08c379a000000000000000000000000000000000000000000000000000000000815260040161225e90613917565b60405180910390fd5b50505050565b6060612278826116a2565b6122b7576040517f08c379a00000000000000000000000000000000000000000000000000000000081526004016122ae90613b57565b60405180910390fd5b60006097600084815260200190815260200160002080546122d790613f01565b80601f016020809104026020016040519081016040528092919081815260200182805461230390613f01565b80156123505780601f1061232557610100808354040283529160200191612350565b820191906000526020600020905b81548152906001019060200180831161233357829003601f168201915b505050505090506000612361612814565b90506000815114156123775781925050506123ba565b6000825111156123ac578082604051602001612394929190613819565b604051602081830303815290604052925050506123ba565b6123b58461282b565b925050505b919050565b600081600001549050919050565b6001816000016000828254019250508190555050565b6123fd8282604051806020016040528060008152506128d2565b5050565b61240a826116a2565b612449576040517f08c379a000000000000000000000000000000000000000000000000000000000815260040161244090613ab7565b60405180910390fd5b80609760008481526020019081526020016000209080519060200190612470929190612e4e565b505050565b505050565b505050565b6000819050919050565b6000819050919050565b61249c81612578565b6124db576040517f08c379a00000000000000000000000000000000000000000000000000000000081526004016124d290613b97565b60405180910390fd5b806125087f360894a13ba1a3210667c828492db98dca3e2076cc3735a920a3ca505d382bbc60001b61247f565b60000160006101000a81548173ffffffffffffffffffffffffffffffffffffffff021916908373ffffffffffffffffffffffffffffffffffffffff16021790555050565b6125558361292d565b6000825111806125625750805b1561257357612571838361297c565b505b505050565b6000808273ffffffffffffffffffffffffffffffffffffffff163b119050919050565b600060019054906101000a900460ff166125ea576040517f08c379a00000000000000000000000000000000000000000000000000000000081526004016125e190613c57565b60405180910390fd5b8160659080519060200190612600929190612e4e565b508060669080519060200190612617929190612e4e565b505050565b600060019054906101000a900460ff1661266b576040517f08c379a000000000000000000000000000000000000000000000000000000000815260040161266290613c57565b60405180910390fd5b61267b61267661170e565b611d93565b565b600061269e8473ffffffffffffffffffffffffffffffffffffffff16612578565b15612807578373ffffffffffffffffffffffffffffffffffffffff1663150b7a026126c761170e565b8786866040518563ffffffff1660e01b81526004016126e99493929190613858565b602060405180830381600087803b15801561270357600080fd5b505af192505050801561273457506040513d601f19601f8201168201806040525081019061273191906132e0565b60015b6127b7573d8060008114612764576040519150601f19603f3d011682016040523d82523d6000602084013e612769565b606091505b506000815114156127af576040517f08c379a00000000000000000000000000000000000000000000000000000000081526004016127a690613917565b60405180910390fd5b805181602001fd5b63150b7a0260e01b7bffffffffffffffffffffffffffffffffffffffffffffffffffffffff1916817bffffffffffffffffffffffffffffffffffffffffffffffffffffffff19161491505061280c565b600190505b949350505050565b606060405180602001604052806000815250905090565b6060612836826116a2565b612875576040517f08c379a000000000000000000000000000000000000000000000000000000000815260040161286c90613bd7565b60405180910390fd5b600061287f612814565b9050600081511161289f57604051806020016040528060008152506128ca565b806128a984612a60565b6040516020016128ba929190613819565b6040516020818303038152906040525b915050919050565b6128dc8383612c0d565b6128e9600084848461267d565b612928576040517f08c379a000000000000000000000000000000000000000000000000000000000815260040161291f90613917565b60405180910390fd5b505050565b61293681612493565b8073ffffffffffffffffffffffffffffffffffffffff167fbc7cd75a20ee27fd9adebab32041f755214dbc6bffa90cc0225b39da2e5c2d3b60405160405180910390a250565b606061298783612578565b6129c6576040517f08c379a00000000000000000000000000000000000000000000000000000000081526004016129bd90613c17565b60405180910390fd5b6000808473ffffffffffffffffffffffffffffffffffffffff16846040516129ee9190613802565b600060405180830381855af49150503d8060008114612a29576040519150601f19603f3d011682016040523d82523d6000602084013e612a2e565b606091505b5091509150612a5682826040518060600160405280602781526020016148dc60279139612de7565b9250505092915050565b60606000821415612aa8576040518060400160405280600181526020017f30000000000000000000000000000000000000000000000000000000000000008152509050612c08565b600082905060005b60008214612ada578080612ac390613f64565b915050600a82612ad39190613dbd565b9150612ab0565b60008167ffffffffffffffff811115612b1c577f4e487b7100000000000000000000000000000000000000000000000000000000600052604160045260246000fd5b6040519080825280601f01601f191660200182016040528015612b4e5781602001600182028036833780820191505090505b5090505b60008514612c0157600182612b679190613dee565b9150600a85612b769190613fad565b6030612b829190613d67565b60f81b818381518110612bbe577f4e487b7100000000000000000000000000000000000000000000000000000000600052603260045260246000fd5b60200101907effffffffffffffffffffffffffffffffffffffffffffffffffffffffffffff1916908160001a905350600a85612bfa9190613dbd565b9450612b52565b8093505050505b919050565b600073ffffffffffffffffffffffffffffffffffffffff168273ffffffffffffffffffffffffffffffffffffffff161415612c7d576040517f08c379a0000000000000000000000000000000000000000000000000000000008152600401612c7490613b17565b60405180910390fd5b612c86816116a2565b15612cc6576040517f08c379a0000000000000000000000000000000000000000000000000000000008152600401612cbd90613977565b60405180910390fd5b612cd260008383612475565b6001606860008473ffffffffffffffffffffffffffffffffffffffff1673ffffffffffffffffffffffffffffffffffffffff1681526020019081526020016000206000828254612d229190613d67565b92505081905550816067600083815260200190815260200160002060006101000a81548173ffffffffffffffffffffffffffffffffffffffff021916908373ffffffffffffffffffffffffffffffffffffffff160217905550808273ffffffffffffffffffffffffffffffffffffffff16600073ffffffffffffffffffffffffffffffffffffffff167fddf252ad1be2c89b69c2b068fc378daa952ba7f163c4a11628f55a4df523b3ef60405160405180910390a4612de36000838361247a565b5050565b60608315612df757829050612e47565b600083511115612e0a5782518084602001fd5b816040517f08c379a0000000000000000000000000000000000000000000000000000000008152600401612e3e91906138f5565b60405180910390fd5b9392505050565b828054612e5a90613f01565b90600052602060002090601f016020900481019282612e7c5760008555612ec3565b82601f10612e9557805160ff1916838001178555612ec3565b82800160010185558215612ec3579182015b82811115612ec2578251825591602001919060010190612ea7565b5b509050612ed09190612ed4565b5090565b5b80821115612eed576000816000905550600101612ed5565b5090565b6000612f04612eff84613cb7565b613c92565b905082815260208101848484011115612f1c57600080fd5b612f27848285613ebf565b509392505050565b6000612f42612f3d84613ce8565b613c92565b905082815260208101848484011115612f5a57600080fd5b612f65848285613ebf565b509392505050565b600081359050612f7c81614868565b92915050565b600081359050612f918161487f565b92915050565b600081519050612fa681614896565b92915050565b600081359050612fbb816148ad565b92915050565b600081519050612fd0816148ad565b92915050565b600082601f830112612fe757600080fd5b8135612ff7848260208601612ef1565b91505092915050565b600082601f83011261301157600080fd5b8135613021848260208601612f2f565b91505092915050565b600081359050613039816148c4565b92915050565b60006020828403121561305157600080fd5b600061305f84828501612f6d565b91505092915050565b6000806040838503121561307b57600080fd5b600061308985828601612f6d565b925050602061309a85828601612f6d565b9150509250929050565b6000806000606084860312156130b957600080fd5b60006130c786828701612f6d565b93505060206130d886828701612f6d565b92505060406130e98682870161302a565b9150509250925092565b6000806000806080858703121561310957600080fd5b600061311787828801612f6d565b945050602061312887828801612f6d565b93505060406131398782880161302a565b925050606085013567ffffffffffffffff81111561315657600080fd5b61316287828801612fd6565b91505092959194509250565b6000806040838503121561318157600080fd5b600061318f85828601612f6d565b92505060206131a085828601612f82565b9150509250929050565b600080604083850312156131bd57600080fd5b60006131cb85828601612f6d565b925050602083013567ffffffffffffffff8111156131e857600080fd5b6131f485828601612fd6565b9150509250929050565b6000806040838503121561321157600080fd5b600061321f85828601612f6d565b925050602083013567ffffffffffffffff81111561323c57600080fd5b61324885828601613000565b9150509250929050565b6000806040838503121561326557600080fd5b600061327385828601612f6d565b92505060206132848582860161302a565b9150509250929050565b6000602082840312156132a057600080fd5b60006132ae84828501612f97565b91505092915050565b6000602082840312156132c957600080fd5b60006132d784828501612fac565b91505092915050565b6000602082840312156132f257600080fd5b600061330084828501612fc1565b91505092915050565b60006020828403121561331b57600080fd5b60006133298482850161302a565b91505092915050565b61333b81613e22565b82525050565b61334a81613e34565b82525050565b61335981613e40565b82525050565b600061336a82613d19565b6133748185613d2f565b9350613384818560208601613ece565b61338d8161409a565b840191505092915050565b60006133a382613d19565b6133ad8185613d40565b93506133bd818560208601613ece565b80840191505092915050565b6133d281613ead565b82525050565b60006133e382613d24565b6133ed8185613d4b565b93506133fd818560208601613ece565b6134068161409a565b840191505092915050565b600061341c82613d24565b6134268185613d5c565b9350613436818560208601613ece565b80840191505092915050565b600061344f603283613d4b565b915061345a826140ab565b604082019050919050565b6000613472602683613d4b565b915061347d826140fa565b604082019050919050565b6000613495602583613d4b565b91506134a082614149565b604082019050919050565b60006134b8601c83613d4b565b91506134c382614198565b602082019050919050565b60006134db602c83613d4b565b91506134e6826141c1565b604082019050919050565b60006134fe602483613d4b565b915061350982614210565b604082019050919050565b6000613521601983613d4b565b915061352c8261425f565b602082019050919050565b6000613544602c83613d4b565b915061354f82614288565b604082019050919050565b6000613567602c83613d4b565b9150613572826142d7565b604082019050919050565b600061358a603883613d4b565b915061359582614326565b604082019050919050565b60006135ad603883613d4b565b91506135b882614375565b604082019050919050565b60006135d0602a83613d4b565b91506135db826143c4565b604082019050919050565b60006135f3602983613d4b565b91506135fe82614413565b604082019050919050565b6000613616602e83613d4b565b915061362182614462565b604082019050919050565b6000613639602983613d4b565b9150613644826144b1565b604082019050919050565b600061365c602e83613d4b565b915061366782614500565b604082019050919050565b600061367f602083613d4b565b915061368a8261454f565b602082019050919050565b60006136a2602e83613d4b565b91506136ad82614578565b604082019050919050565b60006136c5603183613d4b565b91506136d0826145c7565b604082019050919050565b60006136e8602c83613d4b565b91506136f382614616565b604082019050919050565b600061370b602d83613d4b565b915061371682614665565b604082019050919050565b600061372e602083613d4b565b9150613739826146b4565b602082019050919050565b6000613751602f83613d4b565b915061375c826146dd565b604082019050919050565b6000613774602183613d4b565b915061377f8261472c565b604082019050919050565b6000613797602683613d4b565b91506137a28261477b565b604082019050919050565b60006137ba603183613d4b565b91506137c5826147ca565b604082019050919050565b60006137dd602b83613d4b565b91506137e882614819565b604082019050919050565b6137fc81613e96565b82525050565b600061380e8284613398565b915081905092915050565b60006138258285613411565b91506138318284613411565b91508190509392505050565b60006020820190506138526000830184613332565b92915050565b600060808201905061386d6000830187613332565b61387a6020830186613332565b61388760408301856137f3565b8181036060830152613899818461335f565b905095945050505050565b60006020820190506138b96000830184613341565b92915050565b60006020820190506138d46000830184613350565b92915050565b60006020820190506138ef60008301846133c9565b92915050565b6000602082019050818103600083015261390f81846133d8565b905092915050565b6000602082019050818103600083015261393081613442565b9050919050565b6000602082019050818103600083015261395081613465565b9050919050565b6000602082019050818103600083015261397081613488565b9050919050565b60006020820190508181036000830152613990816134ab565b9050919050565b600060208201905081810360008301526139b0816134ce565b9050919050565b600060208201905081810360008301526139d0816134f1565b9050919050565b600060208201905081810360008301526139f081613514565b9050919050565b60006020820190508181036000830152613a1081613537565b9050919050565b60006020820190508181036000830152613a308161355a565b9050919050565b60006020820190508181036000830152613a508161357d565b9050919050565b60006020820190508181036000830152613a70816135a0565b9050919050565b60006020820190508181036000830152613a90816135c3565b9050919050565b60006020820190508181036000830152613ab0816135e6565b9050919050565b60006020820190508181036000830152613ad081613609565b9050919050565b60006020820190508181036000830152613af08161362c565b9050919050565b60006020820190508181036000830152613b108161364f565b9050919050565b60006020820190508181036000830152613b3081613672565b9050919050565b60006020820190508181036000830152613b5081613695565b9050919050565b60006020820190508181036000830152613b70816136b8565b9050919050565b60006020820190508181036000830152613b90816136db565b9050919050565b60006020820190508181036000830152613bb0816136fe565b9050919050565b60006020820190508181036000830152613bd081613721565b9050919050565b60006020820190508181036000830152613bf081613744565b9050919050565b60006020820190508181036000830152613c1081613767565b9050919050565b60006020820190508181036000830152613c308161378a565b9050919050565b60006020820190508181036000830152613c50816137ad565b9050919050565b60006020820190508181036000830152613c70816137d0565b9050919050565b6000602082019050613c8c60008301846137f3565b92915050565b6000613c9c613cad565b9050613ca88282613f33565b919050565b6000604051905090565b600067ffffffffffffffff821115613cd257613cd161406b565b5b613cdb8261409a565b9050602081019050919050565b600067ffffffffffffffff821115613d0357613d0261406b565b5b613d0c8261409a565b9050602081019050919050565b600081519050919050565b600081519050919050565b600082825260208201905092915050565b600081905092915050565b600082825260208201905092915050565b600081905092915050565b6000613d7282613e96565b9150613d7d83613e96565b9250827fffffffffffffffffffffffffffffffffffffffffffffffffffffffffffffffff03821115613db257613db1613fde565b5b828201905092915050565b6000613dc882613e96565b9150613dd383613e96565b925082613de357613de261400d565b5b828204905092915050565b6000613df982613e96565b9150613e0483613e96565b925082821015613e1757613e16613fde565b5b828203905092915050565b6000613e2d82613e76565b9050919050565b60008115159050919050565b6000819050919050565b60007fffffffff0000000000000000000000000000000000000000000000000000000082169050919050565b600073ffffffffffffffffffffffffffffffffffffffff82169050919050565b6000819050919050565b600060ff82169050919050565b6000613eb882613ea0565b9050919050565b82818337600083830152505050565b60005b83811015613eec578082015181840152602081019050613ed1565b83811115613efb576000848401525b50505050565b60006002820490506001821680613f1957607f821691505b60208210811415613f2d57613f2c61403c565b5b50919050565b613f3c8261409a565b810181811067ffffffffffffffff82111715613f5b57613f5a61406b565b5b80604052505050565b6000613f6f82613e96565b91507fffffffffffffffffffffffffffffffffffffffffffffffffffffffffffffffff821415613fa257613fa1613fde565b5b600182019050919050565b6000613fb882613e96565b9150613fc383613e96565b925082613fd357613fd261400d565b5b828206905092915050565b7f4e487b7100000000000000000000000000000000000000000000000000000000600052601160045260246000fd5b7f4e487b7100000000000000000000000000000000000000000000000000000000600052601260045260246000fd5b7f4e487b7100000000000000000000000000000000000000000000000000000000600052602260045260246000fd5b7f4e487b7100000000000000000000000000000000000000000000000000000000600052604160045260246000fd5b6000601f19601f8301169050919050565b7f4552433732313a207472616e7366657220746f206e6f6e20455243373231526560008201527f63656976657220696d706c656d656e7465720000000000000000000000000000602082015250565b7f4f776e61626c653a206e6577206f776e657220697320746865207a65726f206160008201527f6464726573730000000000000000000000000000000000000000000000000000602082015250565b7f4552433732313a207472616e736665722066726f6d20696e636f72726563742060008201527f6f776e6572000000000000000000000000000000000000000000000000000000602082015250565b7f4552433732313a20746f6b656e20616c7265616479206d696e74656400000000600082015250565b7f46756e6374696f6e206d7573742062652063616c6c6564207468726f7567682060008201527f64656c656761746563616c6c0000000000000000000000000000000000000000602082015250565b7f4552433732313a207472616e7366657220746f20746865207a65726f2061646460008201527f7265737300000000000000000000000000000000000000000000000000000000602082015250565b7f4552433732313a20617070726f766520746f2063616c6c657200000000000000600082015250565b7f46756e6374696f6e206d7573742062652063616c6c6564207468726f7567682060008201527f6163746976652070726f78790000000000000000000000000000000000000000602082015250565b7f4552433732313a206f70657261746f7220717565727920666f72206e6f6e657860008201527f697374656e7420746f6b656e0000000000000000000000000000000000000000602082015250565b7f555550535570677261646561626c653a206d757374206e6f742062652063616c60008201527f6c6564207468726f7567682064656c656761746563616c6c0000000000000000602082015250565b7f4552433732313a20617070726f76652063616c6c6572206973206e6f74206f7760008201527f6e6572206e6f7220617070726f76656420666f7220616c6c0000000000000000602082015250565b7f4552433732313a2062616c616e636520717565727920666f7220746865207a6560008201527f726f206164647265737300000000000000000000000000000000000000000000602082015250565b7f4552433732313a206f776e657220717565727920666f72206e6f6e657869737460008201527f656e7420746f6b656e0000000000000000000000000000000000000000000000602082015250565b7f45524337323155524953746f726167653a2055524920736574206f66206e6f6e60008201527f6578697374656e7420746f6b656e000000000000000000000000000000000000602082015250565b7f45524331393637557067726164653a20756e737570706f727465642070726f7860008201527f6961626c65555549440000000000000000000000000000000000000000000000602082015250565b7f496e697469616c697a61626c653a20636f6e747261637420697320616c72656160008201527f647920696e697469616c697a6564000000000000000000000000000000000000602082015250565b7f4552433732313a206d696e7420746f20746865207a65726f2061646472657373600082015250565b7f45524331393637557067726164653a206e657720696d706c656d656e7461746960008201527f6f6e206973206e6f742055555053000000000000000000000000000000000000602082015250565b7f45524337323155524953746f726167653a2055524920717565727920666f722060008201527f6e6f6e6578697374656e7420746f6b656e000000000000000000000000000000602082015250565b7f4552433732313a20617070726f76656420717565727920666f72206e6f6e657860008201527f697374656e7420746f6b656e0000000000000000000000000000000000000000602082015250565b7f455243313936373a206e657720696d706c656d656e746174696f6e206973206e60008201527f6f74206120636f6e747261637400000000000000000000000000000000000000602082015250565b7f4f776e61626c653a2063616c6c6572206973206e6f7420746865206f776e6572600082015250565b7f4552433732314d657461646174613a2055524920717565727920666f72206e6f60008201527f6e6578697374656e7420746f6b656e0000000000000000000000000000000000602082015250565b7f4552433732313a20617070726f76616c20746f2063757272656e74206f776e6560008201527f7200000000000000000000000000000000000000000000000000000000000000602082015250565b7f416464726573733a2064656c65676174652063616c6c20746f206e6f6e2d636f60008201527f6e74726163740000000000000000000000000000000000000000000000000000602082015250565b7f4552433732313a207472616e736665722063616c6c6572206973206e6f74206f60008201527f776e6572206e6f7220617070726f766564000000000000000000000000000000602082015250565b7f496e697469616c697a61626c653a20636f6e7472616374206973206e6f74206960008201527f6e697469616c697a696e67000000000000000000000000000000000000000000602082015250565b61487181613e22565b811461487c57600080fd5b50565b61488881613e34565b811461489357600080fd5b50565b61489f81613e40565b81146148aa57600080fd5b50565b6148b681613e4a565b81146148c157600080fd5b50565b6148cd81613e96565b81146148d857600080fd5b5056fe416464726573733a206c6f772d6c6576656c2064656c65676174652063616c6c206661696c6564a26469706673582212202c6ae42aa1ae23ec6e87e1e3624fda065f2d59954868bbc2993b4b4cd298915a64736f6c63430008040033",
  "linkReferences": {},
  "deployedLinkReferences": {}
}