{
  "_format": "hh-sol-artifact-1",
  "contractName": "Lighthouse",
  "sourceName": "contracts/lighthouse_test.sol",
  "abi": [
    {
      "inputs": [
        {
          "internalType": "address",
          "name": "_deposit",
          "type": "address"
        }
      ],
      "stateMutability": "nonpayable",
      "type": "constructor"
    },
    {
      "anonymous": false,
      "inputs": [
        {
          "indexed": true,
          "internalType": "address",
          "name": "uploader",
          "type": "address"
        },
        {
          "components": [
            {
              "internalType": "address",
              "name": "user",
              "type": "address"
            },
            {
              "internalType": "string",
              "name": "cid",
              "type": "string"
            },
            {
              "internalType": "string",
              "name": "config",
              "type": "string"
            },
            {
              "internalType": "string",
              "name": "fileName",
              "type": "string"
            },
            {
              "internalType": "uint256",
              "name": "fileSize",
              "type": "uint256"
            },
            {
              "internalType": "uint256",
              "name": "timestamp",
              "type": "uint256"
            }
          ],
          "indexed": false,
          "internalType": "struct Lighthouse.Content[]",
          "name": "contents",
          "type": "tuple[]"
        },
        {
          "indexed": false,
          "internalType": "uint256",
          "name": "timestamp",
          "type": "uint256"
        }
      ],
      "name": "BundleStorageRequest",
      "type": "event"
    },
    {
      "anonymous": false,
      "inputs": [
        {
          "indexed": true,
          "internalType": "address",
          "name": "previousOwner",
          "type": "address"
        },
        {
          "indexed": true,
          "internalType": "address",
          "name": "newOwner",
          "type": "address"
        }
      ],
      "name": "OwnershipTransferred",
      "type": "event"
    },
    {
      "anonymous": false,
      "inputs": [
        {
          "indexed": true,
          "internalType": "address",
          "name": "uploader",
          "type": "address"
        },
        {
          "indexed": false,
          "internalType": "string",
          "name": "cid",
          "type": "string"
        },
        {
          "indexed": false,
          "internalType": "string",
          "name": "config",
          "type": "string"
        },
        {
          "indexed": false,
          "internalType": "uint256",
          "name": "fileCost",
          "type": "uint256"
        },
        {
          "indexed": false,
          "internalType": "string",
          "name": "fileName",
          "type": "string"
        },
        {
          "indexed": false,
          "internalType": "uint256",
          "name": "fileSize",
          "type": "uint256"
        },
        {
          "indexed": false,
          "internalType": "uint256",
          "name": "timestamp",
          "type": "uint256"
        }
      ],
      "name": "StorageRequest",
      "type": "event"
    },
    {
      "anonymous": false,
      "inputs": [
        {
          "indexed": false,
          "internalType": "address",
          "name": "requester",
          "type": "address"
        },
        {
          "indexed": false,
          "internalType": "string",
          "name": "cid",
          "type": "string"
        }
      ],
      "name": "StorageStatusRequest",
      "type": "event"
    },
    {
      "stateMutability": "payable",
      "type": "fallback"
    },
    {
      "inputs": [],
      "name": "Deposit",
      "outputs": [
        {
          "internalType": "contract DepositManager",
          "name": "",
          "type": "address"
        }
      ],
      "stateMutability": "view",
      "type": "function"
    },
    {
      "inputs": [
        {
          "components": [
            {
              "internalType": "address",
              "name": "user",
              "type": "address"
            },
            {
              "internalType": "string",
              "name": "cid",
              "type": "string"
            },
            {
              "internalType": "string",
              "name": "config",
              "type": "string"
            },
            {
              "internalType": "string",
              "name": "fileName",
              "type": "string"
            },
            {
              "internalType": "uint256",
              "name": "fileSize",
              "type": "uint256"
            },
            {
              "internalType": "uint256",
              "name": "timestamp",
              "type": "uint256"
            }
          ],
          "internalType": "struct Lighthouse.Content[]",
          "name": "contents",
          "type": "tuple[]"
        }
      ],
      "name": "bundleStore",
      "outputs": [],
      "stateMutability": "payable",
      "type": "function"
    },
    {
      "inputs": [
        {
          "internalType": "uint256",
          "name": "amount",
          "type": "uint256"
        },
        {
          "internalType": "address payable",
          "name": "recipient",
          "type": "address"
        }
      ],
      "name": "getPaid",
      "outputs": [],
      "stateMutability": "nonpayable",
      "type": "function"
    },
    {
      "inputs": [],
      "name": "owner",
      "outputs": [
        {
          "internalType": "address",
          "name": "",
          "type": "address"
        }
      ],
      "stateMutability": "view",
      "type": "function"
    },
    {
      "inputs": [
        {
          "internalType": "string",
          "name": "cid",
          "type": "string"
        },
        {
          "internalType": "string",
          "name": "dealIds",
          "type": "string"
        },
        {
          "internalType": "bool",
          "name": "active",
          "type": "bool"
        }
      ],
      "name": "publishStorageStatus",
      "outputs": [],
      "stateMutability": "nonpayable",
      "type": "function"
    },
    {
      "inputs": [],
      "name": "renounceOwnership",
      "outputs": [],
      "stateMutability": "nonpayable",
      "type": "function"
    },
    {
      "inputs": [
        {
          "internalType": "string",
          "name": "cid",
          "type": "string"
        }
      ],
      "name": "requestStorageStatus",
      "outputs": [],
      "stateMutability": "nonpayable",
      "type": "function"
    },
    {
      "inputs": [
        {
          "internalType": "string",
          "name": "",
          "type": "string"
        }
      ],
      "name": "statuses",
      "outputs": [
        {
          "internalType": "string",
          "name": "dealIds",
          "type": "string"
        },
        {
          "internalType": "bool",
          "name": "active",
          "type": "bool"
        }
      ],
      "stateMutability": "view",
      "type": "function"
    },
    {
      "inputs": [
        {
          "internalType": "string",
          "name": "cid",
          "type": "string"
        },
        {
          "internalType": "string",
          "name": "config",
          "type": "string"
        },
        {
          "internalType": "string",
          "name": "fileName",
          "type": "string"
        },
        {
          "internalType": "uint256",
          "name": "fileSize",
          "type": "uint256"
        }
      ],
      "name": "store",
      "outputs": [],
      "stateMutability": "payable",
      "type": "function"
    },
    {
      "inputs": [
        {
          "internalType": "address",
          "name": "newOwner",
          "type": "address"
        }
      ],
      "name": "transferOwnership",
      "outputs": [],
      "stateMutability": "nonpayable",
      "type": "function"
    },
    {
      "stateMutability": "payable",
      "type": "receive"
    }
  ],
  "bytecode": "0x60806040523480156200001157600080fd5b5060405162001b7c38038062001b7c833981810160405281019062000037919062000182565b620000576200004b6200009f60201b60201c565b620000a760201b60201c565b80600160006101000a81548173ffffffffffffffffffffffffffffffffffffffff021916908373ffffffffffffffffffffffffffffffffffffffff16021790555050620001fc565b600033905090565b60008060009054906101000a900473ffffffffffffffffffffffffffffffffffffffff169050816000806101000a81548173ffffffffffffffffffffffffffffffffffffffff021916908373ffffffffffffffffffffffffffffffffffffffff1602179055508173ffffffffffffffffffffffffffffffffffffffff168173ffffffffffffffffffffffffffffffffffffffff167f8be0079c531659141344cd1fd0a4f28419497f9722a3daafe3b4186f6b6457e060405160405180910390a35050565b6000815190506200017c81620001e2565b92915050565b6000602082840312156200019557600080fd5b6000620001a5848285016200016b565b91505092915050565b6000620001bb82620001c2565b9050919050565b600073ffffffffffffffffffffffffffffffffffffffff82169050919050565b620001ed81620001ae565b8114620001f957600080fd5b50565b611970806200020c6000396000f3fe6080604052600436106100955760003560e01c8063715018a611610059578063715018a6146101665780638da5cb5b1461017d578063ed21248c146101a8578063f2fde38b146101d3578063fd2b7f7f146101fc5761009c565b806308660c2a1461009e5780630bfa4715146100ba5780632411949a146100e35780633081baac146100ff57806341053e2d146101285761009c565b3661009c57005b005b6100b860048036038101906100b39190610e85565b610225565b005b3480156100c657600080fd5b506100e160048036038101906100dc9190610f0b565b610471565b005b6100fd60048036038101906100f89190610f94565b6105af565b005b34801561010b57600080fd5b506101266004803603810190610121919061108e565b6106af565b005b34801561013457600080fd5b5061014f600480360381019061014a919061104d565b610776565b60405161015d9291906114f9565b60405180910390f35b34801561017257600080fd5b5061017b610845565b005b34801561018957600080fd5b506101926108cd565b60405161019f9190611367565b60405180910390f35b3480156101b457600080fd5b506101bd6108f6565b6040516101ca9190611462565b60405180910390f35b3480156101df57600080fd5b506101fa60048036038101906101f59190610e5c565b61091c565b005b34801561020857600080fd5b50610223600480360381019061021e9190610ec6565b610a14565b005b61022d610a53565b73ffffffffffffffffffffffffffffffffffffffff1661024b6108cd565b73ffffffffffffffffffffffffffffffffffffffff16146102a1576040517f08c379a000000000000000000000000000000000000000000000000000000000815260040161029890611549565b60405180910390fd5b60005b815181101561041d57600160009054906101000a900473ffffffffffffffffffffffffffffffffffffffff1673ffffffffffffffffffffffffffffffffffffffff1663595ba768838381518110610324577f4e487b7100000000000000000000000000000000000000000000000000000000600052603260045260246000fd5b602002602001015160000151848481518110610369577f4e487b7100000000000000000000000000000000000000000000000000000000600052603260045260246000fd5b6020026020010151608001518585815181106103ae577f4e487b7100000000000000000000000000000000000000000000000000000000600052603260045260246000fd5b6020026020010151602001516040518463ffffffff1660e01b81526004016103d8939291906113f4565b600060405180830381600087803b1580156103f257600080fd5b505af1158015610406573d6000803e3d6000fd5b5050505080806104159061177f565b9150506102a4565b503373ffffffffffffffffffffffffffffffffffffffff167f025b28d6e92fc3b9ceba5eed4fe2d31126e7db1f6868b2e56f167aa7c6a6d3e98242604051610466929190611432565b60405180910390a250565b610479610a53565b73ffffffffffffffffffffffffffffffffffffffff166104976108cd565b73ffffffffffffffffffffffffffffffffffffffff16146104ed576040517f08c379a00000000000000000000000000000000000000000000000000000000081526004016104e490611549565b60405180910390fd5b604051806040016040528084848080601f016020809104026020016040519081016040528093929190818152602001838380828437600081840152601f19601f8201169050808301925050505050505081526020018215158152506002868660405161055a92919061134e565b90815260200160405180910390206000820151816000019080519060200190610584929190610b1f565b5060208201518160010160006101000a81548160ff0219169083151502179055509050505050505050565b6000429050600160009054906101000a900473ffffffffffffffffffffffffffffffffffffffff1673ffffffffffffffffffffffffffffffffffffffff1663595ba76833848b8b6040518563ffffffff1660e01b815260040161061594939291906113b4565b600060405180830381600087803b15801561062f57600080fd5b505af1158015610643573d6000803e3d6000fd5b505050503373ffffffffffffffffffffffffffffffffffffffff167f19ba564935ee7ed085f577bc575d92064d4e8f5050ad3da5a14dfc4b863e4ca089898989348a8a8a8a60405161069d9998979695949392919061147d565b60405180910390a25050505050505050565b6106b7610a53565b73ffffffffffffffffffffffffffffffffffffffff166106d56108cd565b73ffffffffffffffffffffffffffffffffffffffff161461072b576040517f08c379a000000000000000000000000000000000000000000000000000000000815260040161072290611549565b60405180910390fd5b8073ffffffffffffffffffffffffffffffffffffffff166108fc839081150290604051600060405180830381858888f19350505050158015610771573d6000803e3d6000fd5b505050565b6002818051602081018201805184825260208301602085012081835280955050505050506000915090508060000180546107af9061171c565b80601f01602080910402602001604051908101604052809291908181526020018280546107db9061171c565b80156108285780601f106107fd57610100808354040283529160200191610828565b820191906000526020600020905b81548152906001019060200180831161080b57829003601f168201915b5050505050908060010160009054906101000a900460ff16905082565b61084d610a53565b73ffffffffffffffffffffffffffffffffffffffff1661086b6108cd565b73ffffffffffffffffffffffffffffffffffffffff16146108c1576040517f08c379a00000000000000000000000000000000000000000000000000000000081526004016108b890611549565b60405180910390fd5b6108cb6000610a5b565b565b60008060009054906101000a900473ffffffffffffffffffffffffffffffffffffffff16905090565b600160009054906101000a900473ffffffffffffffffffffffffffffffffffffffff1681565b610924610a53565b73ffffffffffffffffffffffffffffffffffffffff166109426108cd565b73ffffffffffffffffffffffffffffffffffffffff1614610998576040517f08c379a000000000000000000000000000000000000000000000000000000000815260040161098f90611549565b60405180910390fd5b600073ffffffffffffffffffffffffffffffffffffffff168173ffffffffffffffffffffffffffffffffffffffff161415610a08576040517f08c379a00000000000000000000000000000000000000000000000000000000081526004016109ff90611529565b60405180910390fd5b610a1181610a5b565b50565b7fafb80c981a7eaaf1f395c91a7b176900b183b1f4caad2b39cb1e2e0af9e6a9a4338383604051610a4793929190611382565b60405180910390a15050565b600033905090565b60008060009054906101000a900473ffffffffffffffffffffffffffffffffffffffff169050816000806101000a81548173ffffffffffffffffffffffffffffffffffffffff021916908373ffffffffffffffffffffffffffffffffffffffff1602179055508173ffffffffffffffffffffffffffffffffffffffff168173ffffffffffffffffffffffffffffffffffffffff167f8be0079c531659141344cd1fd0a4f28419497f9722a3daafe3b4186f6b6457e060405160405180910390a35050565b828054610b2b9061171c565b90600052602060002090601f016020900481019282610b4d5760008555610b94565b82601f10610b6657805160ff1916838001178555610b94565b82800160010185558215610b94579182015b82811115610b93578251825591602001919060010190610b78565b5b509050610ba19190610ba5565b5090565b5b80821115610bbe576000816000905550600101610ba6565b5090565b6000610bd5610bd08461158e565b611569565b90508083825260208201905082856020860282011115610bf457600080fd5b60005b85811015610c3e57813567ffffffffffffffff811115610c1657600080fd5b808601610c238982610d63565b85526020850194506020840193505050600181019050610bf7565b5050509392505050565b6000610c5b610c56846115ba565b611569565b905082815260208101848484011115610c7357600080fd5b610c7e8482856116da565b509392505050565b600081359050610c95816118de565b92915050565b600081359050610caa816118f5565b92915050565b600082601f830112610cc157600080fd5b8135610cd1848260208601610bc2565b91505092915050565b600081359050610ce98161190c565b92915050565b60008083601f840112610d0157600080fd5b8235905067ffffffffffffffff811115610d1a57600080fd5b602083019150836001820283011115610d3257600080fd5b9250929050565b600082601f830112610d4a57600080fd5b8135610d5a848260208601610c48565b91505092915050565b600060c08284031215610d7557600080fd5b610d7f60c0611569565b90506000610d8f84828501610c86565b600083015250602082013567ffffffffffffffff811115610daf57600080fd5b610dbb84828501610d39565b602083015250604082013567ffffffffffffffff811115610ddb57600080fd5b610de784828501610d39565b604083015250606082013567ffffffffffffffff811115610e0757600080fd5b610e1384828501610d39565b6060830152506080610e2784828501610e47565b60808301525060a0610e3b84828501610e47565b60a08301525092915050565b600081359050610e5681611923565b92915050565b600060208284031215610e6e57600080fd5b6000610e7c84828501610c86565b91505092915050565b600060208284031215610e9757600080fd5b600082013567ffffffffffffffff811115610eb157600080fd5b610ebd84828501610cb0565b91505092915050565b60008060208385031215610ed957600080fd5b600083013567ffffffffffffffff811115610ef357600080fd5b610eff85828601610cef565b92509250509250929050565b600080600080600060608688031215610f2357600080fd5b600086013567ffffffffffffffff811115610f3d57600080fd5b610f4988828901610cef565b9550955050602086013567ffffffffffffffff811115610f6857600080fd5b610f7488828901610cef565b93509350506040610f8788828901610cda565b9150509295509295909350565b60008060008060008060006080888a031215610faf57600080fd5b600088013567ffffffffffffffff811115610fc957600080fd5b610fd58a828b01610cef565b9750975050602088013567ffffffffffffffff811115610ff457600080fd5b6110008a828b01610cef565b9550955050604088013567ffffffffffffffff81111561101f57600080fd5b61102b8a828b01610cef565b9350935050606061103e8a828b01610e47565b91505092959891949750929550565b60006020828403121561105f57600080fd5b600082013567ffffffffffffffff81111561107957600080fd5b61108584828501610d39565b91505092915050565b600080604083850312156110a157600080fd5b60006110af85828601610e47565b92505060206110c085828601610c9b565b9150509250929050565b60006110d68383611299565b905092915050565b6110e78161165c565b82525050565b6110f68161165c565b82525050565b6000611107826115fb565b611111818561161e565b935083602082028501611123856115eb565b8060005b8581101561115f578484038952815161114085826110ca565b945061114b83611611565b925060208a01995050600181019050611127565b50829750879550505050505092915050565b61117a81611680565b82525050565b611189816116b6565b82525050565b600061119b8385611640565b93506111a88385846116da565b6111b183611855565b840190509392505050565b60006111c88385611651565b93506111d58385846116da565b82840190509392505050565b60006111ec82611606565b6111f6818561162f565b93506112068185602086016116e9565b61120f81611855565b840191505092915050565b600061122582611606565b61122f8185611640565b935061123f8185602086016116e9565b61124881611855565b840191505092915050565b6000611260602683611640565b915061126b82611866565b604082019050919050565b6000611283602083611640565b915061128e826118b5565b602082019050919050565b600060c0830160008301516112b160008601826110de565b50602083015184820360208601526112c982826111e1565b915050604083015184820360408601526112e382826111e1565b915050606083015184820360608601526112fd82826111e1565b91505060808301516113126080860182611330565b5060a083015161132560a0860182611330565b508091505092915050565b611339816116ac565b82525050565b611348816116ac565b82525050565b600061135b8284866111bc565b91508190509392505050565b600060208201905061137c60008301846110ed565b92915050565b600060408201905061139760008301866110ed565b81810360208301526113aa81848661118f565b9050949350505050565b60006060820190506113c960008301876110ed565b6113d6602083018661133f565b81810360408301526113e981848661118f565b905095945050505050565b600060608201905061140960008301866110ed565b611416602083018561133f565b8181036040830152611428818461121a565b9050949350505050565b6000604082019050818103600083015261144c81856110fc565b905061145b602083018461133f565b9392505050565b60006020820190506114776000830184611180565b92915050565b600060c0820190508181036000830152611498818b8d61118f565b905081810360208301526114ad81898b61118f565b90506114bc604083018861133f565b81810360608301526114cf81868861118f565b90506114de608083018561133f565b6114eb60a083018461133f565b9a9950505050505050505050565b60006040820190508181036000830152611513818561121a565b90506115226020830184611171565b9392505050565b6000602082019050818103600083015261154281611253565b9050919050565b6000602082019050818103600083015261156281611276565b9050919050565b6000611573611584565b905061157f828261174e565b919050565b6000604051905090565b600067ffffffffffffffff8211156115a9576115a8611826565b5b602082029050602081019050919050565b600067ffffffffffffffff8211156115d5576115d4611826565b5b6115de82611855565b9050602081019050919050565b6000819050602082019050919050565b600081519050919050565b600081519050919050565b6000602082019050919050565b600082825260208201905092915050565b600082825260208201905092915050565b600082825260208201905092915050565b600081905092915050565b60006116678261168c565b9050919050565b60006116798261168c565b9050919050565b60008115159050919050565b600073ffffffffffffffffffffffffffffffffffffffff82169050919050565b6000819050919050565b60006116c1826116c8565b9050919050565b60006116d38261168c565b9050919050565b82818337600083830152505050565b60005b838110156117075780820151818401526020810190506116ec565b83811115611716576000848401525b50505050565b6000600282049050600182168061173457607f821691505b60208210811415611748576117476117f7565b5b50919050565b61175782611855565b810181811067ffffffffffffffff8211171561177657611775611826565b5b80604052505050565b600061178a826116ac565b91507fffffffffffffffffffffffffffffffffffffffffffffffffffffffffffffffff8214156117bd576117bc6117c8565b5b600182019050919050565b7f4e487b7100000000000000000000000000000000000000000000000000000000600052601160045260246000fd5b7f4e487b7100000000000000000000000000000000000000000000000000000000600052602260045260246000fd5b7f4e487b7100000000000000000000000000000000000000000000000000000000600052604160045260246000fd5b6000601f19601f8301169050919050565b7f4f776e61626c653a206e6577206f776e657220697320746865207a65726f206160008201527f6464726573730000000000000000000000000000000000000000000000000000602082015250565b7f4f776e61626c653a2063616c6c6572206973206e6f7420746865206f776e6572600082015250565b6118e78161165c565b81146118f257600080fd5b50565b6118fe8161166e565b811461190957600080fd5b50565b61191581611680565b811461192057600080fd5b50565b61192c816116ac565b811461193757600080fd5b5056fea264697066735822122000b095a7b435912457457071a9d1631bbfea66e89fc4de8effbcfb23ea21295564736f6c63430008040033",
  "linkReferences": {},
  "deployedLinkReferences": {}
}