{
  "_format": "hh-sol-artifact-1",
  "contractName": "Lighthouse",
  "sourceName": "contracts/lighthouse_test.sol",
  "abi": [
    {
      "anonymous": false,
      "inputs": [
        {
          "indexed": true,
          "internalType": "address",
          "name": "uploader",
          "type": "address"
        },
        {
          "components": [
            {
              "internalType": "address",
              "name": "user",
              "type": "address"
            },
            {
              "internalType": "string",
              "name": "cid",
              "type": "string"
            },
            {
              "internalType": "string",
              "name": "config",
              "type": "string"
            },
            {
              "internalType": "uint256",
              "name": "fileCost",
              "type": "uint256"
            },
            {
              "internalType": "string",
              "name": "fileName",
              "type": "string"
            },
            {
              "internalType": "uint256",
              "name": "fileSize",
              "type": "uint256"
            },
            {
              "internalType": "uint256",
              "name": "timestamp",
              "type": "uint256"
            }
          ],
          "indexed": false,
          "internalType": "struct Lighthouse.Content[]",
          "name": "contents",
          "type": "tuple[]"
        },
        {
          "indexed": false,
          "internalType": "uint256",
          "name": "timestamp",
          "type": "uint256"
        }
      ],
      "name": "BundleStorageRequest",
      "type": "event"
    },
    {
      "anonymous": false,
      "inputs": [
        {
          "indexed": true,
          "internalType": "address",
          "name": "previousOwner",
          "type": "address"
        },
        {
          "indexed": true,
          "internalType": "address",
          "name": "newOwner",
          "type": "address"
        }
      ],
      "name": "OwnershipTransferred",
      "type": "event"
    },
    {
      "anonymous": false,
      "inputs": [
        {
          "indexed": true,
          "internalType": "address",
          "name": "uploader",
          "type": "address"
        },
        {
          "indexed": false,
          "internalType": "string",
          "name": "cid",
          "type": "string"
        },
        {
          "indexed": false,
          "internalType": "string",
          "name": "config",
          "type": "string"
        },
        {
          "indexed": false,
          "internalType": "uint256",
          "name": "fileCost",
          "type": "uint256"
        },
        {
          "indexed": false,
          "internalType": "string",
          "name": "fileName",
          "type": "string"
        },
        {
          "indexed": false,
          "internalType": "uint256",
          "name": "fileSize",
          "type": "uint256"
        },
        {
          "indexed": false,
          "internalType": "uint256",
          "name": "timestamp",
          "type": "uint256"
        }
      ],
      "name": "StorageRequest",
      "type": "event"
    },
    {
      "anonymous": false,
      "inputs": [
        {
          "indexed": false,
          "internalType": "address",
          "name": "requester",
          "type": "address"
        },
        {
          "indexed": false,
          "internalType": "string",
          "name": "cid",
          "type": "string"
        }
      ],
      "name": "StorageStatusRequest",
      "type": "event"
    },
    {
      "stateMutability": "payable",
      "type": "fallback"
    },
    {
      "inputs": [
        {
          "components": [
            {
              "internalType": "address",
              "name": "user",
              "type": "address"
            },
            {
              "internalType": "string",
              "name": "cid",
              "type": "string"
            },
            {
              "internalType": "string",
              "name": "config",
              "type": "string"
            },
            {
              "internalType": "uint256",
              "name": "fileCost",
              "type": "uint256"
            },
            {
              "internalType": "string",
              "name": "fileName",
              "type": "string"
            },
            {
              "internalType": "uint256",
              "name": "fileSize",
              "type": "uint256"
            },
            {
              "internalType": "uint256",
              "name": "timestamp",
              "type": "uint256"
            }
          ],
          "internalType": "struct Lighthouse.Content[]",
          "name": "contents",
          "type": "tuple[]"
        }
      ],
      "name": "bundleStore",
      "outputs": [],
      "stateMutability": "payable",
      "type": "function"
    },
    {
      "inputs": [
        {
          "internalType": "uint256",
          "name": "amount",
          "type": "uint256"
        },
        {
          "internalType": "address payable",
          "name": "recipient",
          "type": "address"
        }
      ],
      "name": "getPaid",
      "outputs": [],
      "stateMutability": "nonpayable",
      "type": "function"
    },
    {
      "inputs": [],
      "name": "owner",
      "outputs": [
        {
          "internalType": "address",
          "name": "",
          "type": "address"
        }
      ],
      "stateMutability": "view",
      "type": "function"
    },
    {
      "inputs": [
        {
          "internalType": "string",
          "name": "cid",
          "type": "string"
        },
        {
          "internalType": "string",
          "name": "dealIds",
          "type": "string"
        },
        {
          "internalType": "bool",
          "name": "active",
          "type": "bool"
        }
      ],
      "name": "publishStorageStatus",
      "outputs": [],
      "stateMutability": "nonpayable",
      "type": "function"
    },
    {
      "inputs": [],
      "name": "renounceOwnership",
      "outputs": [],
      "stateMutability": "nonpayable",
      "type": "function"
    },
    {
      "inputs": [
        {
          "internalType": "string",
          "name": "cid",
          "type": "string"
        }
      ],
      "name": "requestStorageStatus",
      "outputs": [],
      "stateMutability": "nonpayable",
      "type": "function"
    },
    {
      "inputs": [
        {
          "internalType": "string",
          "name": "",
          "type": "string"
        }
      ],
      "name": "statuses",
      "outputs": [
        {
          "internalType": "string",
          "name": "dealIds",
          "type": "string"
        },
        {
          "internalType": "bool",
          "name": "active",
          "type": "bool"
        }
      ],
      "stateMutability": "view",
      "type": "function"
    },
    {
      "inputs": [
        {
          "internalType": "string",
          "name": "cid",
          "type": "string"
        },
        {
          "internalType": "string",
          "name": "config",
          "type": "string"
        },
        {
          "internalType": "string",
          "name": "fileName",
          "type": "string"
        },
        {
          "internalType": "uint256",
          "name": "fileSize",
          "type": "uint256"
        }
      ],
      "name": "store",
      "outputs": [],
      "stateMutability": "payable",
      "type": "function"
    },
    {
      "inputs": [
        {
          "internalType": "address",
          "name": "newOwner",
          "type": "address"
        }
      ],
      "name": "transferOwnership",
      "outputs": [],
      "stateMutability": "nonpayable",
      "type": "function"
    },
    {
      "stateMutability": "payable",
      "type": "receive"
    }
  ],
  "bytecode": "0x608060405234801561001057600080fd5b5061002d61002261003260201b60201c565b61003a60201b60201c565b6100fe565b600033905090565b60008060009054906101000a900473ffffffffffffffffffffffffffffffffffffffff169050816000806101000a81548173ffffffffffffffffffffffffffffffffffffffff021916908373ffffffffffffffffffffffffffffffffffffffff1602179055508173ffffffffffffffffffffffffffffffffffffffff168173ffffffffffffffffffffffffffffffffffffffff167f8be0079c531659141344cd1fd0a4f28419497f9722a3daafe3b4186f6b6457e060405160405180910390a35050565b6115e78061010d6000396000f3fe60806040526004361061008a5760003560e01c80634c330b6c116100595780634c330b6c1461013f578063715018a61461015b5780638da5cb5b14610172578063f2fde38b1461019d578063fd2b7f7f146101c657610091565b80630bfa4715146100935780632411949a146100bc5780633081baac146100d857806341053e2d1461010157610091565b3661009157005b005b34801561009f57600080fd5b506100ba60048036038101906100b59190610cb3565b6101ef565b005b6100d660048036038101906100d19190610d3c565b61032d565b005b3480156100e457600080fd5b506100ff60048036038101906100fa9190610e36565b61039a565b005b34801561010d57600080fd5b5061012860048036038101906101239190610df5565b610461565b60405161013692919061120c565b60405180910390f35b61015960048036038101906101549190610c2d565b610530565b005b34801561016757600080fd5b506101706105ff565b005b34801561017e57600080fd5b50610187610687565b6040516101949190611113565b60405180910390f35b3480156101a957600080fd5b506101c460048036038101906101bf9190610c04565b6106b0565b005b3480156101d257600080fd5b506101ed60048036038101906101e89190610c6e565b6107a8565b005b6101f76107e7565b73ffffffffffffffffffffffffffffffffffffffff16610215610687565b73ffffffffffffffffffffffffffffffffffffffff161461026b576040517f08c379a00000000000000000000000000000000000000000000000000000000081526004016102629061125c565b60405180910390fd5b604051806040016040528084848080601f016020809104026020016040519081016040528093929190818152602001838380828437600081840152601f19601f820116905080830192505050505050508152602001821515815250600186866040516102d89291906110fa565b908152602001604051809103902060008201518160000190805190602001906103029291906108b3565b5060208201518160010160006101000a81548160ff0219169083151502179055509050505050505050565b60004290503373ffffffffffffffffffffffffffffffffffffffff167f19ba564935ee7ed085f577bc575d92064d4e8f5050ad3da5a14dfc4b863e4ca089898989348a8a8a8a60405161038899989796959493929190611190565b60405180910390a25050505050505050565b6103a26107e7565b73ffffffffffffffffffffffffffffffffffffffff166103c0610687565b73ffffffffffffffffffffffffffffffffffffffff1614610416576040517f08c379a000000000000000000000000000000000000000000000000000000000815260040161040d9061125c565b60405180910390fd5b8073ffffffffffffffffffffffffffffffffffffffff166108fc839081150290604051600060405180830381858888f1935050505015801561045c573d6000803e3d6000fd5b505050565b60018180516020810182018051848252602083016020850120818352809550505050505060009150905080600001805461049a9061140b565b80601f01602080910402602001604051908101604052809291908181526020018280546104c69061140b565b80156105135780601f106104e857610100808354040283529160200191610513565b820191906000526020600020905b8154815290600101906020018083116104f657829003601f168201915b5050505050908060010160009054906101000a900460ff16905082565b6105386107e7565b73ffffffffffffffffffffffffffffffffffffffff16610556610687565b73ffffffffffffffffffffffffffffffffffffffff16146105ac576040517f08c379a00000000000000000000000000000000000000000000000000000000081526004016105a39061125c565b60405180910390fd5b3373ffffffffffffffffffffffffffffffffffffffff167f648a371a13bf8e3369ab47889c9935b3f001b50d3133ed24d229a1ba3a15d0b282426040516105f4929190611160565b60405180910390a250565b6106076107e7565b73ffffffffffffffffffffffffffffffffffffffff16610625610687565b73ffffffffffffffffffffffffffffffffffffffff161461067b576040517f08c379a00000000000000000000000000000000000000000000000000000000081526004016106729061125c565b60405180910390fd5b61068560006107ef565b565b60008060009054906101000a900473ffffffffffffffffffffffffffffffffffffffff16905090565b6106b86107e7565b73ffffffffffffffffffffffffffffffffffffffff166106d6610687565b73ffffffffffffffffffffffffffffffffffffffff161461072c576040517f08c379a00000000000000000000000000000000000000000000000000000000081526004016107239061125c565b60405180910390fd5b600073ffffffffffffffffffffffffffffffffffffffff168173ffffffffffffffffffffffffffffffffffffffff16141561079c576040517f08c379a00000000000000000000000000000000000000000000000000000000081526004016107939061123c565b60405180910390fd5b6107a5816107ef565b50565b7fafb80c981a7eaaf1f395c91a7b176900b183b1f4caad2b39cb1e2e0af9e6a9a43383836040516107db9392919061112e565b60405180910390a15050565b600033905090565b60008060009054906101000a900473ffffffffffffffffffffffffffffffffffffffff169050816000806101000a81548173ffffffffffffffffffffffffffffffffffffffff021916908373ffffffffffffffffffffffffffffffffffffffff1602179055508173ffffffffffffffffffffffffffffffffffffffff168173ffffffffffffffffffffffffffffffffffffffff167f8be0079c531659141344cd1fd0a4f28419497f9722a3daafe3b4186f6b6457e060405160405180910390a35050565b8280546108bf9061140b565b90600052602060002090601f0160209004810192826108e15760008555610928565b82601f106108fa57805160ff1916838001178555610928565b82800160010185558215610928579182015b8281111561092757825182559160200191906001019061090c565b5b5090506109359190610939565b5090565b5b8082111561095257600081600090555060010161093a565b5090565b6000610969610964846112a1565b61127c565b9050808382526020820190508285602086028201111561098857600080fd5b60005b858110156109d257813567ffffffffffffffff8111156109aa57600080fd5b8086016109b78982610af7565b8552602085019450602084019350505060018101905061098b565b5050509392505050565b60006109ef6109ea846112cd565b61127c565b905082815260208101848484011115610a0757600080fd5b610a128482856113c9565b509392505050565b600081359050610a2981611555565b92915050565b600081359050610a3e8161156c565b92915050565b600082601f830112610a5557600080fd5b8135610a65848260208601610956565b91505092915050565b600081359050610a7d81611583565b92915050565b60008083601f840112610a9557600080fd5b8235905067ffffffffffffffff811115610aae57600080fd5b602083019150836001820283011115610ac657600080fd5b9250929050565b600082601f830112610ade57600080fd5b8135610aee8482602086016109dc565b91505092915050565b600060e08284031215610b0957600080fd5b610b1360e061127c565b90506000610b2384828501610a1a565b600083015250602082013567ffffffffffffffff811115610b4357600080fd5b610b4f84828501610acd565b602083015250604082013567ffffffffffffffff811115610b6f57600080fd5b610b7b84828501610acd565b6040830152506060610b8f84828501610bef565b606083015250608082013567ffffffffffffffff811115610baf57600080fd5b610bbb84828501610acd565b60808301525060a0610bcf84828501610bef565b60a08301525060c0610be384828501610bef565b60c08301525092915050565b600081359050610bfe8161159a565b92915050565b600060208284031215610c1657600080fd5b6000610c2484828501610a1a565b91505092915050565b600060208284031215610c3f57600080fd5b600082013567ffffffffffffffff811115610c5957600080fd5b610c6584828501610a44565b91505092915050565b60008060208385031215610c8157600080fd5b600083013567ffffffffffffffff811115610c9b57600080fd5b610ca785828601610a83565b92509250509250929050565b600080600080600060608688031215610ccb57600080fd5b600086013567ffffffffffffffff811115610ce557600080fd5b610cf188828901610a83565b9550955050602086013567ffffffffffffffff811115610d1057600080fd5b610d1c88828901610a83565b93509350506040610d2f88828901610a6e565b9150509295509295909350565b60008060008060008060006080888a031215610d5757600080fd5b600088013567ffffffffffffffff811115610d7157600080fd5b610d7d8a828b01610a83565b9750975050602088013567ffffffffffffffff811115610d9c57600080fd5b610da88a828b01610a83565b9550955050604088013567ffffffffffffffff811115610dc757600080fd5b610dd38a828b01610a83565b93509350506060610de68a828b01610bef565b91505092959891949750929550565b600060208284031215610e0757600080fd5b600082013567ffffffffffffffff811115610e2157600080fd5b610e2d84828501610acd565b91505092915050565b60008060408385031215610e4957600080fd5b6000610e5785828601610bef565b9250506020610e6885828601610a2f565b9150509250929050565b6000610e7e8383611032565b905092915050565b610e8f8161136f565b82525050565b610e9e8161136f565b82525050565b6000610eaf8261130e565b610eb98185611331565b935083602082028501610ecb856112fe565b8060005b85811015610f075784840389528151610ee88582610e72565b9450610ef383611324565b925060208a01995050600181019050610ecf565b50829750879550505050505092915050565b610f2281611393565b82525050565b6000610f348385611353565b9350610f418385846113c9565b610f4a836114cc565b840190509392505050565b6000610f618385611364565b9350610f6e8385846113c9565b82840190509392505050565b6000610f8582611319565b610f8f8185611342565b9350610f9f8185602086016113d8565b610fa8816114cc565b840191505092915050565b6000610fbe82611319565b610fc88185611353565b9350610fd88185602086016113d8565b610fe1816114cc565b840191505092915050565b6000610ff9602683611353565b9150611004826114dd565b604082019050919050565b600061101c602083611353565b91506110278261152c565b602082019050919050565b600060e08301600083015161104a6000860182610e86565b50602083015184820360208601526110628282610f7a565b9150506040830151848203604086015261107c8282610f7a565b915050606083015161109160608601826110dc565b50608083015184820360808601526110a98282610f7a565b91505060a08301516110be60a08601826110dc565b5060c08301516110d160c08601826110dc565b508091505092915050565b6110e5816113bf565b82525050565b6110f4816113bf565b82525050565b6000611107828486610f55565b91508190509392505050565b60006020820190506111286000830184610e95565b92915050565b60006040820190506111436000830186610e95565b8181036020830152611156818486610f28565b9050949350505050565b6000604082019050818103600083015261117a8185610ea4565b905061118960208301846110eb565b9392505050565b600060c08201905081810360008301526111ab818b8d610f28565b905081810360208301526111c081898b610f28565b90506111cf60408301886110eb565b81810360608301526111e2818688610f28565b90506111f160808301856110eb565b6111fe60a08301846110eb565b9a9950505050505050505050565b600060408201905081810360008301526112268185610fb3565b90506112356020830184610f19565b9392505050565b6000602082019050818103600083015261125581610fec565b9050919050565b600060208201905081810360008301526112758161100f565b9050919050565b6000611286611297565b9050611292828261143d565b919050565b6000604051905090565b600067ffffffffffffffff8211156112bc576112bb61149d565b5b602082029050602081019050919050565b600067ffffffffffffffff8211156112e8576112e761149d565b5b6112f1826114cc565b9050602081019050919050565b6000819050602082019050919050565b600081519050919050565b600081519050919050565b6000602082019050919050565b600082825260208201905092915050565b600082825260208201905092915050565b600082825260208201905092915050565b600081905092915050565b600061137a8261139f565b9050919050565b600061138c8261139f565b9050919050565b60008115159050919050565b600073ffffffffffffffffffffffffffffffffffffffff82169050919050565b6000819050919050565b82818337600083830152505050565b60005b838110156113f65780820151818401526020810190506113db565b83811115611405576000848401525b50505050565b6000600282049050600182168061142357607f821691505b602082108114156114375761143661146e565b5b50919050565b611446826114cc565b810181811067ffffffffffffffff821117156114655761146461149d565b5b80604052505050565b7f4e487b7100000000000000000000000000000000000000000000000000000000600052602260045260246000fd5b7f4e487b7100000000000000000000000000000000000000000000000000000000600052604160045260246000fd5b6000601f19601f8301169050919050565b7f4f776e61626c653a206e6577206f776e657220697320746865207a65726f206160008201527f6464726573730000000000000000000000000000000000000000000000000000602082015250565b7f4f776e61626c653a2063616c6c6572206973206e6f7420746865206f776e6572600082015250565b61155e8161136f565b811461156957600080fd5b50565b61157581611381565b811461158057600080fd5b50565b61158c81611393565b811461159757600080fd5b50565b6115a3816113bf565b81146115ae57600080fd5b5056fea26469706673582212201003b12f505a1609efecefd46b93b9c966f67b162e1c4a9ce8b1a7d28c3f7b5864736f6c63430008040033",
  "linkReferences": {},
  "deployedLinkReferences": {}
}