{
  "_format": "hh-sol-artifact-1",
  "contractName": "Lighthouse",
  "sourceName": "contracts/lighthouse_test.sol",
  "abi": [
    {
      "inputs": [
        {
          "internalType": "address",
          "name": "_deposit",
          "type": "address"
        }
      ],
      "stateMutability": "nonpayable",
      "type": "constructor"
    },
    {
      "anonymous": false,
      "inputs": [
        {
          "indexed": true,
          "internalType": "address",
          "name": "uploader",
          "type": "address"
        },
        {
          "components": [
            {
              "internalType": "address",
              "name": "user",
              "type": "address"
            },
            {
              "internalType": "string",
              "name": "cid",
              "type": "string"
            },
            {
              "internalType": "string",
              "name": "config",
              "type": "string"
            },
            {
              "internalType": "string",
              "name": "fileName",
              "type": "string"
            },
            {
              "internalType": "uint256",
              "name": "fileSize",
              "type": "uint256"
            },
            {
              "internalType": "uint256",
              "name": "timestamp",
              "type": "uint256"
            }
          ],
          "indexed": false,
          "internalType": "struct Lighthouse.Content[]",
          "name": "contents",
          "type": "tuple[]"
        },
        {
          "indexed": false,
          "internalType": "uint256",
          "name": "timestamp",
          "type": "uint256"
        }
      ],
      "name": "BundleStorageRequest",
      "type": "event"
    },
    {
      "anonymous": false,
      "inputs": [
        {
          "indexed": true,
          "internalType": "address",
          "name": "previousOwner",
          "type": "address"
        },
        {
          "indexed": true,
          "internalType": "address",
          "name": "newOwner",
          "type": "address"
        }
      ],
      "name": "OwnershipTransferred",
      "type": "event"
    },
    {
      "anonymous": false,
      "inputs": [
        {
          "indexed": true,
          "internalType": "address",
          "name": "uploader",
          "type": "address"
        },
        {
          "indexed": false,
          "internalType": "string",
          "name": "cid",
          "type": "string"
        },
        {
          "indexed": false,
          "internalType": "string",
          "name": "config",
          "type": "string"
        },
        {
          "indexed": false,
          "internalType": "uint256",
          "name": "fileCost",
          "type": "uint256"
        },
        {
          "indexed": false,
          "internalType": "string",
          "name": "fileName",
          "type": "string"
        },
        {
          "indexed": false,
          "internalType": "uint256",
          "name": "fileSize",
          "type": "uint256"
        },
        {
          "indexed": false,
          "internalType": "uint256",
          "name": "timestamp",
          "type": "uint256"
        }
      ],
      "name": "StorageRequest",
      "type": "event"
    },
    {
      "anonymous": false,
      "inputs": [
        {
          "indexed": false,
          "internalType": "address",
          "name": "requester",
          "type": "address"
        },
        {
          "indexed": false,
          "internalType": "string",
          "name": "cid",
          "type": "string"
        }
      ],
      "name": "StorageStatusRequest",
      "type": "event"
    },
    {
      "stateMutability": "payable",
      "type": "fallback"
    },
    {
      "inputs": [],
      "name": "Deposit",
      "outputs": [
        {
          "internalType": "contract DepositManager",
          "name": "",
          "type": "address"
        }
      ],
      "stateMutability": "view",
      "type": "function"
    },
    {
      "inputs": [
        {
          "components": [
            {
              "internalType": "address",
              "name": "user",
              "type": "address"
            },
            {
              "internalType": "string",
              "name": "cid",
              "type": "string"
            },
            {
              "internalType": "string",
              "name": "config",
              "type": "string"
            },
            {
              "internalType": "string",
              "name": "fileName",
              "type": "string"
            },
            {
              "internalType": "uint256",
              "name": "fileSize",
              "type": "uint256"
            },
            {
              "internalType": "uint256",
              "name": "timestamp",
              "type": "uint256"
            }
          ],
          "internalType": "struct Lighthouse.Content[]",
          "name": "contents",
          "type": "tuple[]"
        }
      ],
      "name": "bundleStore",
      "outputs": [],
      "stateMutability": "payable",
      "type": "function"
    },
    {
      "inputs": [
        {
          "internalType": "uint256",
          "name": "amount",
          "type": "uint256"
        },
        {
          "internalType": "address payable",
          "name": "recipient",
          "type": "address"
        }
      ],
      "name": "getPaid",
      "outputs": [],
      "stateMutability": "nonpayable",
      "type": "function"
    },
    {
      "inputs": [],
      "name": "owner",
      "outputs": [
        {
          "internalType": "address",
          "name": "",
          "type": "address"
        }
      ],
      "stateMutability": "view",
      "type": "function"
    },
    {
      "inputs": [
        {
          "internalType": "string",
          "name": "cid",
          "type": "string"
        },
        {
          "internalType": "string",
          "name": "dealIds",
          "type": "string"
        },
        {
          "internalType": "bool",
          "name": "active",
          "type": "bool"
        }
      ],
      "name": "publishStorageStatus",
      "outputs": [],
      "stateMutability": "nonpayable",
      "type": "function"
    },
    {
      "inputs": [],
      "name": "renounceOwnership",
      "outputs": [],
      "stateMutability": "nonpayable",
      "type": "function"
    },
    {
      "inputs": [
        {
          "internalType": "string",
          "name": "cid",
          "type": "string"
        }
      ],
      "name": "requestStorageStatus",
      "outputs": [],
      "stateMutability": "nonpayable",
      "type": "function"
    },
    {
      "inputs": [
        {
          "internalType": "string",
          "name": "",
          "type": "string"
        }
      ],
      "name": "statuses",
      "outputs": [
        {
          "internalType": "string",
          "name": "dealIds",
          "type": "string"
        },
        {
          "internalType": "bool",
          "name": "active",
          "type": "bool"
        }
      ],
      "stateMutability": "view",
      "type": "function"
    },
    {
      "inputs": [
        {
          "internalType": "string",
          "name": "cid",
          "type": "string"
        },
        {
          "internalType": "string",
          "name": "config",
          "type": "string"
        },
        {
          "internalType": "string",
          "name": "fileName",
          "type": "string"
        },
        {
          "internalType": "uint256",
          "name": "fileSize",
          "type": "uint256"
        }
      ],
      "name": "store",
      "outputs": [],
      "stateMutability": "payable",
      "type": "function"
    },
    {
      "inputs": [
        {
          "internalType": "address",
          "name": "newOwner",
          "type": "address"
        }
      ],
      "name": "transferOwnership",
      "outputs": [],
      "stateMutability": "nonpayable",
      "type": "function"
    },
    {
      "stateMutability": "payable",
      "type": "receive"
    }
  ],
  "bytecode": "0x60806040523480156200001157600080fd5b5060405162001b4738038062001b47833981810160405281019062000037919062000182565b620000576200004b6200009f60201b60201c565b620000a760201b60201c565b80600160006101000a81548173ffffffffffffffffffffffffffffffffffffffff021916908373ffffffffffffffffffffffffffffffffffffffff16021790555050620001fc565b600033905090565b60008060009054906101000a900473ffffffffffffffffffffffffffffffffffffffff169050816000806101000a81548173ffffffffffffffffffffffffffffffffffffffff021916908373ffffffffffffffffffffffffffffffffffffffff1602179055508173ffffffffffffffffffffffffffffffffffffffff168173ffffffffffffffffffffffffffffffffffffffff167f8be0079c531659141344cd1fd0a4f28419497f9722a3daafe3b4186f6b6457e060405160405180910390a35050565b6000815190506200017c81620001e2565b92915050565b6000602082840312156200019557600080fd5b6000620001a5848285016200016b565b91505092915050565b6000620001bb82620001c2565b9050919050565b600073ffffffffffffffffffffffffffffffffffffffff82169050919050565b620001ed81620001ae565b8114620001f957600080fd5b50565b61193b806200020c6000396000f3fe6080604052600436106100955760003560e01c8063715018a611610059578063715018a6146101665780638da5cb5b1461017d578063ed21248c146101a8578063f2fde38b146101d3578063fd2b7f7f146101fc5761009c565b806308660c2a1461009e5780630bfa4715146100ba5780632411949a146100e35780633081baac146100ff57806341053e2d146101285761009c565b3661009c57005b005b6100b860048036038101906100b39190610d78565b610225565b005b3480156100c657600080fd5b506100e160048036038101906100dc9190610e02565b6104ae565b005b6100fd60048036038101906100f89190610e8b565b6105ec565b005b34801561010b57600080fd5b5061012660048036038101906101219190610f85565b6106ec565b005b34801561013457600080fd5b5061014f600480360381019061014a9190610f44565b6107b3565b60405161015d9291906113dd565b60405180910390f35b34801561017257600080fd5b5061017b610882565b005b34801561018957600080fd5b5061019261090a565b60405161019f9190611287565b60405180910390f35b3480156101b457600080fd5b506101bd610933565b6040516101ca9190611346565b60405180910390f35b3480156101df57600080fd5b506101fa60048036038101906101f59190610d4f565b610959565b005b34801561020857600080fd5b50610223600480360381019061021e9190610dbd565b610a51565b005b61022d610a90565b73ffffffffffffffffffffffffffffffffffffffff1661024b61090a565b73ffffffffffffffffffffffffffffffffffffffff16146102a1576040517f08c379a00000000000000000000000000000000000000000000000000000000081526004016102989061142d565b60405180910390fd5b60005b8282905081101561045757600160009054906101000a900473ffffffffffffffffffffffffffffffffffffffff1673ffffffffffffffffffffffffffffffffffffffff1663595ba768848484818110610326577f4e487b7100000000000000000000000000000000000000000000000000000000600052603260045260246000fd5b905060200281019061033891906114a4565b600001602081019061034a9190610d4f565b858585818110610383577f4e487b7100000000000000000000000000000000000000000000000000000000600052603260045260246000fd5b905060200281019061039591906114a4565b608001358686868181106103d2577f4e487b7100000000000000000000000000000000000000000000000000000000600052603260045260246000fd5b90506020028101906103e491906114a4565b80602001906103f3919061144d565b6040518563ffffffff1660e01b815260040161041294939291906112d4565b600060405180830381600087803b15801561042c57600080fd5b505af1158015610440573d6000803e3d6000fd5b50505050808061044f9061174a565b9150506102a4565b503373ffffffffffffffffffffffffffffffffffffffff167f025b28d6e92fc3b9ceba5eed4fe2d31126e7db1f6868b2e56f167aa7c6a6d3e98383426040516104a293929190611314565b60405180910390a25050565b6104b6610a90565b73ffffffffffffffffffffffffffffffffffffffff166104d461090a565b73ffffffffffffffffffffffffffffffffffffffff161461052a576040517f08c379a00000000000000000000000000000000000000000000000000000000081526004016105219061142d565b60405180910390fd5b604051806040016040528084848080601f016020809104026020016040519081016040528093929190818152602001838380828437600081840152601f19601f8201169050808301925050505050505081526020018215158152506002868660405161059792919061126e565b908152602001604051809103902060008201518160000190805190602001906105c1929190610b5c565b5060208201518160010160006101000a81548160ff0219169083151502179055509050505050505050565b6000429050600160009054906101000a900473ffffffffffffffffffffffffffffffffffffffff1673ffffffffffffffffffffffffffffffffffffffff1663595ba76833848b8b6040518563ffffffff1660e01b815260040161065294939291906112d4565b600060405180830381600087803b15801561066c57600080fd5b505af1158015610680573d6000803e3d6000fd5b505050503373ffffffffffffffffffffffffffffffffffffffff167f19ba564935ee7ed085f577bc575d92064d4e8f5050ad3da5a14dfc4b863e4ca089898989348a8a8a8a6040516106da99989796959493929190611361565b60405180910390a25050505050505050565b6106f4610a90565b73ffffffffffffffffffffffffffffffffffffffff1661071261090a565b73ffffffffffffffffffffffffffffffffffffffff1614610768576040517f08c379a000000000000000000000000000000000000000000000000000000000815260040161075f9061142d565b60405180910390fd5b8073ffffffffffffffffffffffffffffffffffffffff166108fc839081150290604051600060405180830381858888f193505050501580156107ae573d6000803e3d6000fd5b505050565b6002818051602081018201805184825260208301602085012081835280955050505050506000915090508060000180546107ec906116e7565b80601f0160208091040260200160405190810160405280929190818152602001828054610818906116e7565b80156108655780601f1061083a57610100808354040283529160200191610865565b820191906000526020600020905b81548152906001019060200180831161084857829003601f168201915b5050505050908060010160009054906101000a900460ff16905082565b61088a610a90565b73ffffffffffffffffffffffffffffffffffffffff166108a861090a565b73ffffffffffffffffffffffffffffffffffffffff16146108fe576040517f08c379a00000000000000000000000000000000000000000000000000000000081526004016108f59061142d565b60405180910390fd5b6109086000610a98565b565b60008060009054906101000a900473ffffffffffffffffffffffffffffffffffffffff16905090565b600160009054906101000a900473ffffffffffffffffffffffffffffffffffffffff1681565b610961610a90565b73ffffffffffffffffffffffffffffffffffffffff1661097f61090a565b73ffffffffffffffffffffffffffffffffffffffff16146109d5576040517f08c379a00000000000000000000000000000000000000000000000000000000081526004016109cc9061142d565b60405180910390fd5b600073ffffffffffffffffffffffffffffffffffffffff168173ffffffffffffffffffffffffffffffffffffffff161415610a45576040517f08c379a0000000000000000000000000000000000000000000000000000000008152600401610a3c9061140d565b60405180910390fd5b610a4e81610a98565b50565b7fafb80c981a7eaaf1f395c91a7b176900b183b1f4caad2b39cb1e2e0af9e6a9a4338383604051610a84939291906112a2565b60405180910390a15050565b600033905090565b60008060009054906101000a900473ffffffffffffffffffffffffffffffffffffffff169050816000806101000a81548173ffffffffffffffffffffffffffffffffffffffff021916908373ffffffffffffffffffffffffffffffffffffffff1602179055508173ffffffffffffffffffffffffffffffffffffffff168173ffffffffffffffffffffffffffffffffffffffff167f8be0079c531659141344cd1fd0a4f28419497f9722a3daafe3b4186f6b6457e060405160405180910390a35050565b828054610b68906116e7565b90600052602060002090601f016020900481019282610b8a5760008555610bd1565b82601f10610ba357805160ff1916838001178555610bd1565b82800160010185558215610bd1579182015b82811115610bd0578251825591602001919060010190610bb5565b5b509050610bde9190610be2565b5090565b5b80821115610bfb576000816000905550600101610be3565b5090565b6000610c12610c0d846114ed565b6114c8565b905082815260208101848484011115610c2a57600080fd5b610c358482856116a5565b509392505050565b600081359050610c4c816118a9565b92915050565b600081359050610c61816118c0565b92915050565b60008083601f840112610c7957600080fd5b8235905067ffffffffffffffff811115610c9257600080fd5b602083019150836020820283011115610caa57600080fd5b9250929050565b600081359050610cc0816118d7565b92915050565b60008083601f840112610cd857600080fd5b8235905067ffffffffffffffff811115610cf157600080fd5b602083019150836001820283011115610d0957600080fd5b9250929050565b600082601f830112610d2157600080fd5b8135610d31848260208601610bff565b91505092915050565b600081359050610d49816118ee565b92915050565b600060208284031215610d6157600080fd5b6000610d6f84828501610c3d565b91505092915050565b60008060208385031215610d8b57600080fd5b600083013567ffffffffffffffff811115610da557600080fd5b610db185828601610c67565b92509250509250929050565b60008060208385031215610dd057600080fd5b600083013567ffffffffffffffff811115610dea57600080fd5b610df685828601610cc6565b92509250509250929050565b600080600080600060608688031215610e1a57600080fd5b600086013567ffffffffffffffff811115610e3457600080fd5b610e4088828901610cc6565b9550955050602086013567ffffffffffffffff811115610e5f57600080fd5b610e6b88828901610cc6565b93509350506040610e7e88828901610cb1565b9150509295509295909350565b60008060008060008060006080888a031215610ea657600080fd5b600088013567ffffffffffffffff811115610ec057600080fd5b610ecc8a828b01610cc6565b9750975050602088013567ffffffffffffffff811115610eeb57600080fd5b610ef78a828b01610cc6565b9550955050604088013567ffffffffffffffff811115610f1657600080fd5b610f228a828b01610cc6565b93509350506060610f358a828b01610d3a565b91505092959891949750929550565b600060208284031215610f5657600080fd5b600082013567ffffffffffffffff811115610f7057600080fd5b610f7c84828501610d10565b91505092915050565b60008060408385031215610f9857600080fd5b6000610fa685828601610d3a565b9250506020610fb785828601610c52565b9150509250929050565b6000610fcd8383611183565b905092915050565b610fde81611627565b82525050565b610fed81611627565b82525050565b6000610fff8385611540565b9350836020840285016110118461151e565b8060005b8781101561105557848403895261102c82846115ec565b6110368582610fc1565b945061104183611533565b925060208a01995050600181019050611015565b50829750879450505050509392505050565b6110708161164b565b82525050565b61107f81611681565b82525050565b60006110918385611551565b935061109e8385846116a5565b6110a783611820565b840190509392505050565b60006110be8385611562565b93506110cb8385846116a5565b6110d483611820565b840190509392505050565b60006110eb8385611573565b93506110f88385846116a5565b82840190509392505050565b600061110f82611528565b6111198185611562565b93506111298185602086016116b4565b61113281611820565b840191505092915050565b600061114a602683611562565b915061115582611831565b604082019050919050565b600061116d602083611562565b915061117882611880565b602082019050919050565b600060c08301611196600084018461157e565b6111a36000860182610fd5565b506111b16020840184611595565b85830360208701526111c4838284611085565b925050506111d56040840184611595565b85830360408701526111e8838284611085565b925050506111f96060840184611595565b858303606087015261120c838284611085565b9250505061121d6080840184611610565b61122a6080860182611250565b5061123860a0840184611610565b61124560a0860182611250565b508091505092915050565b61125981611677565b82525050565b61126881611677565b82525050565b600061127b8284866110df565b91508190509392505050565b600060208201905061129c6000830184610fe4565b92915050565b60006040820190506112b76000830186610fe4565b81810360208301526112ca8184866110b2565b9050949350505050565b60006060820190506112e96000830187610fe4565b6112f6602083018661125f565b81810360408301526113098184866110b2565b905095945050505050565b6000604082019050818103600083015261132f818587610ff3565b905061133e602083018461125f565b949350505050565b600060208201905061135b6000830184611076565b92915050565b600060c082019050818103600083015261137c818b8d6110b2565b9050818103602083015261139181898b6110b2565b90506113a0604083018861125f565b81810360608301526113b38186886110b2565b90506113c2608083018561125f565b6113cf60a083018461125f565b9a9950505050505050505050565b600060408201905081810360008301526113f78185611104565b90506114066020830184611067565b9392505050565b600060208201905081810360008301526114268161113d565b9050919050565b6000602082019050818103600083015261144681611160565b9050919050565b6000808335600160200384360303811261146657600080fd5b80840192508235915067ffffffffffffffff82111561148457600080fd5b60208301925060018202360383131561149c57600080fd5b509250929050565b60008235600160c0038336030381126114bc57600080fd5b80830191505092915050565b60006114d26114e3565b90506114de8282611719565b919050565b6000604051905090565b600067ffffffffffffffff821115611508576115076117f1565b5b61151182611820565b9050602081019050919050565b6000819050919050565b600081519050919050565b6000602082019050919050565b600082825260208201905092915050565b600082825260208201905092915050565b600082825260208201905092915050565b600081905092915050565b600061158d6020840184610c3d565b905092915050565b600080833560016020038436030381126115ae57600080fd5b83810192508235915060208301925067ffffffffffffffff8211156115d257600080fd5b6001820236038413156115e457600080fd5b509250929050565b60008235600160c00383360303811261160457600080fd5b82810191505092915050565b600061161f6020840184610d3a565b905092915050565b600061163282611657565b9050919050565b600061164482611657565b9050919050565b60008115159050919050565b600073ffffffffffffffffffffffffffffffffffffffff82169050919050565b6000819050919050565b600061168c82611693565b9050919050565b600061169e82611657565b9050919050565b82818337600083830152505050565b60005b838110156116d25780820151818401526020810190506116b7565b838111156116e1576000848401525b50505050565b600060028204905060018216806116ff57607f821691505b60208210811415611713576117126117c2565b5b50919050565b61172282611820565b810181811067ffffffffffffffff82111715611741576117406117f1565b5b80604052505050565b600061175582611677565b91507fffffffffffffffffffffffffffffffffffffffffffffffffffffffffffffffff82141561178857611787611793565b5b600182019050919050565b7f4e487b7100000000000000000000000000000000000000000000000000000000600052601160045260246000fd5b7f4e487b7100000000000000000000000000000000000000000000000000000000600052602260045260246000fd5b7f4e487b7100000000000000000000000000000000000000000000000000000000600052604160045260246000fd5b6000601f19601f8301169050919050565b7f4f776e61626c653a206e6577206f776e657220697320746865207a65726f206160008201527f6464726573730000000000000000000000000000000000000000000000000000602082015250565b7f4f776e61626c653a2063616c6c6572206973206e6f7420746865206f776e6572600082015250565b6118b281611627565b81146118bd57600080fd5b50565b6118c981611639565b81146118d457600080fd5b50565b6118e08161164b565b81146118eb57600080fd5b50565b6118f781611677565b811461190257600080fd5b5056fea2646970667358221220f6e0f4b4c3e36592f584e18f6e4d0fc31a9299307beedb85584563fe1dec8b6564736f6c63430008040033",
  "linkReferences": {},
  "deployedLinkReferences": {}
}