{
  "_format": "hh-sol-artifact-1",
  "contractName": "Lighthouse",
  "sourceName": "contracts/lighthouse_test.sol",
  "abi": [
    {
      "anonymous": false,
      "inputs": [
        {
          "indexed": true,
          "internalType": "address",
          "name": "uploader",
          "type": "address"
        },
        {
          "components": [
            {
              "internalType": "address",
              "name": "user",
              "type": "address"
            },
            {
              "internalType": "string",
              "name": "cid",
              "type": "string"
            },
            {
              "internalType": "string",
              "name": "config",
              "type": "string"
            },
            {
              "internalType": "string",
              "name": "fileName",
              "type": "string"
            },
            {
              "internalType": "uint256",
              "name": "fileSize",
              "type": "uint256"
            },
            {
              "internalType": "uint256",
              "name": "timestamp",
              "type": "uint256"
            }
          ],
          "indexed": false,
          "internalType": "struct Lighthouse.Content[]",
          "name": "contents",
          "type": "tuple[]"
        },
        {
          "indexed": false,
          "internalType": "uint256",
          "name": "timestamp",
          "type": "uint256"
        }
      ],
      "name": "BundleStorageRequest",
      "type": "event"
    },
    {
      "anonymous": false,
      "inputs": [
        {
          "indexed": true,
          "internalType": "address",
          "name": "previousOwner",
          "type": "address"
        },
        {
          "indexed": true,
          "internalType": "address",
          "name": "newOwner",
          "type": "address"
        }
      ],
      "name": "OwnershipTransferred",
      "type": "event"
    },
    {
      "anonymous": false,
      "inputs": [
        {
          "indexed": true,
          "internalType": "address",
          "name": "uploader",
          "type": "address"
        },
        {
          "indexed": false,
          "internalType": "string",
          "name": "cid",
          "type": "string"
        },
        {
          "indexed": false,
          "internalType": "string",
          "name": "config",
          "type": "string"
        },
        {
          "indexed": false,
          "internalType": "uint256",
          "name": "fileCost",
          "type": "uint256"
        },
        {
          "indexed": false,
          "internalType": "string",
          "name": "fileName",
          "type": "string"
        },
        {
          "indexed": false,
          "internalType": "uint256",
          "name": "fileSize",
          "type": "uint256"
        },
        {
          "indexed": false,
          "internalType": "uint256",
          "name": "timestamp",
          "type": "uint256"
        }
      ],
      "name": "StorageRequest",
      "type": "event"
    },
    {
      "anonymous": false,
      "inputs": [
        {
          "indexed": false,
          "internalType": "address",
          "name": "requester",
          "type": "address"
        },
        {
          "indexed": false,
          "internalType": "string",
          "name": "cid",
          "type": "string"
        }
      ],
      "name": "StorageStatusRequest",
      "type": "event"
    },
    {
      "stateMutability": "payable",
      "type": "fallback"
    },
    {
      "inputs": [
        {
          "components": [
            {
              "internalType": "address",
              "name": "user",
              "type": "address"
            },
            {
              "internalType": "string",
              "name": "cid",
              "type": "string"
            },
            {
              "internalType": "string",
              "name": "config",
              "type": "string"
            },
            {
              "internalType": "string",
              "name": "fileName",
              "type": "string"
            },
            {
              "internalType": "uint256",
              "name": "fileSize",
              "type": "uint256"
            },
            {
              "internalType": "uint256",
              "name": "timestamp",
              "type": "uint256"
            }
          ],
          "internalType": "struct Lighthouse.Content[]",
          "name": "contents",
          "type": "tuple[]"
        }
      ],
      "name": "bundleStore",
      "outputs": [],
      "stateMutability": "payable",
      "type": "function"
    },
    {
      "inputs": [
        {
          "internalType": "uint256",
          "name": "amount",
          "type": "uint256"
        },
        {
          "internalType": "address payable",
          "name": "recipient",
          "type": "address"
        }
      ],
      "name": "getPaid",
      "outputs": [],
      "stateMutability": "nonpayable",
      "type": "function"
    },
    {
      "inputs": [],
      "name": "owner",
      "outputs": [
        {
          "internalType": "address",
          "name": "",
          "type": "address"
        }
      ],
      "stateMutability": "view",
      "type": "function"
    },
    {
      "inputs": [
        {
          "internalType": "string",
          "name": "cid",
          "type": "string"
        },
        {
          "internalType": "string",
          "name": "dealIds",
          "type": "string"
        },
        {
          "internalType": "bool",
          "name": "active",
          "type": "bool"
        }
      ],
      "name": "publishStorageStatus",
      "outputs": [],
      "stateMutability": "nonpayable",
      "type": "function"
    },
    {
      "inputs": [],
      "name": "renounceOwnership",
      "outputs": [],
      "stateMutability": "nonpayable",
      "type": "function"
    },
    {
      "inputs": [
        {
          "internalType": "string",
          "name": "cid",
          "type": "string"
        }
      ],
      "name": "requestStorageStatus",
      "outputs": [],
      "stateMutability": "nonpayable",
      "type": "function"
    },
    {
      "inputs": [
        {
          "internalType": "string",
          "name": "",
          "type": "string"
        }
      ],
      "name": "statuses",
      "outputs": [
        {
          "internalType": "string",
          "name": "dealIds",
          "type": "string"
        },
        {
          "internalType": "bool",
          "name": "active",
          "type": "bool"
        }
      ],
      "stateMutability": "view",
      "type": "function"
    },
    {
      "inputs": [
        {
          "internalType": "string",
          "name": "cid",
          "type": "string"
        },
        {
          "internalType": "string",
          "name": "config",
          "type": "string"
        },
        {
          "internalType": "string",
          "name": "fileName",
          "type": "string"
        },
        {
          "internalType": "uint256",
          "name": "fileSize",
          "type": "uint256"
        }
      ],
      "name": "store",
      "outputs": [],
      "stateMutability": "payable",
      "type": "function"
    },
    {
      "inputs": [
        {
          "internalType": "address",
          "name": "newOwner",
          "type": "address"
        }
      ],
      "name": "transferOwnership",
      "outputs": [],
      "stateMutability": "nonpayable",
      "type": "function"
    },
    {
      "stateMutability": "payable",
      "type": "receive"
    }
  ],
  "bytecode": "0x608060405234801561001057600080fd5b5061002d61002261003260201b60201c565b61003a60201b60201c565b6100fe565b600033905090565b60008060009054906101000a900473ffffffffffffffffffffffffffffffffffffffff169050816000806101000a81548173ffffffffffffffffffffffffffffffffffffffff021916908373ffffffffffffffffffffffffffffffffffffffff1602179055508173ffffffffffffffffffffffffffffffffffffffff168173ffffffffffffffffffffffffffffffffffffffff167f8be0079c531659141344cd1fd0a4f28419497f9722a3daafe3b4186f6b6457e060405160405180910390a35050565b6115c08061010d6000396000f3fe60806040526004361061008a5760003560e01c806341053e2d1161005957806341053e2d1461011d578063715018a61461015b5780638da5cb5b14610172578063f2fde38b1461019d578063fd2b7f7f146101c657610091565b806308660c2a146100935780630bfa4715146100af5780632411949a146100d85780633081baac146100f457610091565b3661009157005b005b6100ad60048036038101906100a89190610c19565b6101ef565b005b3480156100bb57600080fd5b506100d660048036038101906100d19190610c9f565b6102be565b005b6100f260048036038101906100ed9190610d28565b6103fc565b005b34801561010057600080fd5b5061011b60048036038101906101169190610e22565b610469565b005b34801561012957600080fd5b50610144600480360381019061013f9190610de1565b610530565b6040516101529291906111e5565b60405180910390f35b34801561016757600080fd5b506101706105ff565b005b34801561017e57600080fd5b50610187610687565b60405161019491906110ec565b60405180910390f35b3480156101a957600080fd5b506101c460048036038101906101bf9190610bf0565b6106b0565b005b3480156101d257600080fd5b506101ed60048036038101906101e89190610c5a565b6107a8565b005b6101f76107e7565b73ffffffffffffffffffffffffffffffffffffffff16610215610687565b73ffffffffffffffffffffffffffffffffffffffff161461026b576040517f08c379a000000000000000000000000000000000000000000000000000000000815260040161026290611235565b60405180910390fd5b3373ffffffffffffffffffffffffffffffffffffffff167f025b28d6e92fc3b9ceba5eed4fe2d31126e7db1f6868b2e56f167aa7c6a6d3e982426040516102b3929190611139565b60405180910390a250565b6102c66107e7565b73ffffffffffffffffffffffffffffffffffffffff166102e4610687565b73ffffffffffffffffffffffffffffffffffffffff161461033a576040517f08c379a000000000000000000000000000000000000000000000000000000000815260040161033190611235565b60405180910390fd5b604051806040016040528084848080601f016020809104026020016040519081016040528093929190818152602001838380828437600081840152601f19601f820116905080830192505050505050508152602001821515815250600186866040516103a79291906110d3565b908152602001604051809103902060008201518160000190805190602001906103d19291906108b3565b5060208201518160010160006101000a81548160ff0219169083151502179055509050505050505050565b60004290503373ffffffffffffffffffffffffffffffffffffffff167f19ba564935ee7ed085f577bc575d92064d4e8f5050ad3da5a14dfc4b863e4ca089898989348a8a8a8a60405161045799989796959493929190611169565b60405180910390a25050505050505050565b6104716107e7565b73ffffffffffffffffffffffffffffffffffffffff1661048f610687565b73ffffffffffffffffffffffffffffffffffffffff16146104e5576040517f08c379a00000000000000000000000000000000000000000000000000000000081526004016104dc90611235565b60405180910390fd5b8073ffffffffffffffffffffffffffffffffffffffff166108fc839081150290604051600060405180830381858888f1935050505015801561052b573d6000803e3d6000fd5b505050565b600181805160208101820180518482526020830160208501208183528095505050505050600091509050806000018054610569906113e4565b80601f0160208091040260200160405190810160405280929190818152602001828054610595906113e4565b80156105e25780601f106105b7576101008083540402835291602001916105e2565b820191906000526020600020905b8154815290600101906020018083116105c557829003601f168201915b5050505050908060010160009054906101000a900460ff16905082565b6106076107e7565b73ffffffffffffffffffffffffffffffffffffffff16610625610687565b73ffffffffffffffffffffffffffffffffffffffff161461067b576040517f08c379a000000000000000000000000000000000000000000000000000000000815260040161067290611235565b60405180910390fd5b61068560006107ef565b565b60008060009054906101000a900473ffffffffffffffffffffffffffffffffffffffff16905090565b6106b86107e7565b73ffffffffffffffffffffffffffffffffffffffff166106d6610687565b73ffffffffffffffffffffffffffffffffffffffff161461072c576040517f08c379a000000000000000000000000000000000000000000000000000000000815260040161072390611235565b60405180910390fd5b600073ffffffffffffffffffffffffffffffffffffffff168173ffffffffffffffffffffffffffffffffffffffff16141561079c576040517f08c379a000000000000000000000000000000000000000000000000000000000815260040161079390611215565b60405180910390fd5b6107a5816107ef565b50565b7fafb80c981a7eaaf1f395c91a7b176900b183b1f4caad2b39cb1e2e0af9e6a9a43383836040516107db93929190611107565b60405180910390a15050565b600033905090565b60008060009054906101000a900473ffffffffffffffffffffffffffffffffffffffff169050816000806101000a81548173ffffffffffffffffffffffffffffffffffffffff021916908373ffffffffffffffffffffffffffffffffffffffff1602179055508173ffffffffffffffffffffffffffffffffffffffff168173ffffffffffffffffffffffffffffffffffffffff167f8be0079c531659141344cd1fd0a4f28419497f9722a3daafe3b4186f6b6457e060405160405180910390a35050565b8280546108bf906113e4565b90600052602060002090601f0160209004810192826108e15760008555610928565b82601f106108fa57805160ff1916838001178555610928565b82800160010185558215610928579182015b8281111561092757825182559160200191906001019061090c565b5b5090506109359190610939565b5090565b5b8082111561095257600081600090555060010161093a565b5090565b60006109696109648461127a565b611255565b9050808382526020820190508285602086028201111561098857600080fd5b60005b858110156109d257813567ffffffffffffffff8111156109aa57600080fd5b8086016109b78982610af7565b8552602085019450602084019350505060018101905061098b565b5050509392505050565b60006109ef6109ea846112a6565b611255565b905082815260208101848484011115610a0757600080fd5b610a128482856113a2565b509392505050565b600081359050610a298161152e565b92915050565b600081359050610a3e81611545565b92915050565b600082601f830112610a5557600080fd5b8135610a65848260208601610956565b91505092915050565b600081359050610a7d8161155c565b92915050565b60008083601f840112610a9557600080fd5b8235905067ffffffffffffffff811115610aae57600080fd5b602083019150836001820283011115610ac657600080fd5b9250929050565b600082601f830112610ade57600080fd5b8135610aee8482602086016109dc565b91505092915050565b600060c08284031215610b0957600080fd5b610b1360c0611255565b90506000610b2384828501610a1a565b600083015250602082013567ffffffffffffffff811115610b4357600080fd5b610b4f84828501610acd565b602083015250604082013567ffffffffffffffff811115610b6f57600080fd5b610b7b84828501610acd565b604083015250606082013567ffffffffffffffff811115610b9b57600080fd5b610ba784828501610acd565b6060830152506080610bbb84828501610bdb565b60808301525060a0610bcf84828501610bdb565b60a08301525092915050565b600081359050610bea81611573565b92915050565b600060208284031215610c0257600080fd5b6000610c1084828501610a1a565b91505092915050565b600060208284031215610c2b57600080fd5b600082013567ffffffffffffffff811115610c4557600080fd5b610c5184828501610a44565b91505092915050565b60008060208385031215610c6d57600080fd5b600083013567ffffffffffffffff811115610c8757600080fd5b610c9385828601610a83565b92509250509250929050565b600080600080600060608688031215610cb757600080fd5b600086013567ffffffffffffffff811115610cd157600080fd5b610cdd88828901610a83565b9550955050602086013567ffffffffffffffff811115610cfc57600080fd5b610d0888828901610a83565b93509350506040610d1b88828901610a6e565b9150509295509295909350565b60008060008060008060006080888a031215610d4357600080fd5b600088013567ffffffffffffffff811115610d5d57600080fd5b610d698a828b01610a83565b9750975050602088013567ffffffffffffffff811115610d8857600080fd5b610d948a828b01610a83565b9550955050604088013567ffffffffffffffff811115610db357600080fd5b610dbf8a828b01610a83565b93509350506060610dd28a828b01610bdb565b91505092959891949750929550565b600060208284031215610df357600080fd5b600082013567ffffffffffffffff811115610e0d57600080fd5b610e1984828501610acd565b91505092915050565b60008060408385031215610e3557600080fd5b6000610e4385828601610bdb565b9250506020610e5485828601610a2f565b9150509250929050565b6000610e6a838361101e565b905092915050565b610e7b81611348565b82525050565b610e8a81611348565b82525050565b6000610e9b826112e7565b610ea5818561130a565b935083602082028501610eb7856112d7565b8060005b85811015610ef35784840389528151610ed48582610e5e565b9450610edf836112fd565b925060208a01995050600181019050610ebb565b50829750879550505050505092915050565b610f0e8161136c565b82525050565b6000610f20838561132c565b9350610f2d8385846113a2565b610f36836114a5565b840190509392505050565b6000610f4d838561133d565b9350610f5a8385846113a2565b82840190509392505050565b6000610f71826112f2565b610f7b818561131b565b9350610f8b8185602086016113b1565b610f94816114a5565b840191505092915050565b6000610faa826112f2565b610fb4818561132c565b9350610fc48185602086016113b1565b610fcd816114a5565b840191505092915050565b6000610fe560268361132c565b9150610ff0826114b6565b604082019050919050565b600061100860208361132c565b915061101382611505565b602082019050919050565b600060c0830160008301516110366000860182610e72565b506020830151848203602086015261104e8282610f66565b915050604083015184820360408601526110688282610f66565b915050606083015184820360608601526110828282610f66565b915050608083015161109760808601826110b5565b5060a08301516110aa60a08601826110b5565b508091505092915050565b6110be81611398565b82525050565b6110cd81611398565b82525050565b60006110e0828486610f41565b91508190509392505050565b60006020820190506111016000830184610e81565b92915050565b600060408201905061111c6000830186610e81565b818103602083015261112f818486610f14565b9050949350505050565b600060408201905081810360008301526111538185610e90565b905061116260208301846110c4565b9392505050565b600060c0820190508181036000830152611184818b8d610f14565b9050818103602083015261119981898b610f14565b90506111a860408301886110c4565b81810360608301526111bb818688610f14565b90506111ca60808301856110c4565b6111d760a08301846110c4565b9a9950505050505050505050565b600060408201905081810360008301526111ff8185610f9f565b905061120e6020830184610f05565b9392505050565b6000602082019050818103600083015261122e81610fd8565b9050919050565b6000602082019050818103600083015261124e81610ffb565b9050919050565b600061125f611270565b905061126b8282611416565b919050565b6000604051905090565b600067ffffffffffffffff82111561129557611294611476565b5b602082029050602081019050919050565b600067ffffffffffffffff8211156112c1576112c0611476565b5b6112ca826114a5565b9050602081019050919050565b6000819050602082019050919050565b600081519050919050565b600081519050919050565b6000602082019050919050565b600082825260208201905092915050565b600082825260208201905092915050565b600082825260208201905092915050565b600081905092915050565b600061135382611378565b9050919050565b600061136582611378565b9050919050565b60008115159050919050565b600073ffffffffffffffffffffffffffffffffffffffff82169050919050565b6000819050919050565b82818337600083830152505050565b60005b838110156113cf5780820151818401526020810190506113b4565b838111156113de576000848401525b50505050565b600060028204905060018216806113fc57607f821691505b602082108114156114105761140f611447565b5b50919050565b61141f826114a5565b810181811067ffffffffffffffff8211171561143e5761143d611476565b5b80604052505050565b7f4e487b7100000000000000000000000000000000000000000000000000000000600052602260045260246000fd5b7f4e487b7100000000000000000000000000000000000000000000000000000000600052604160045260246000fd5b6000601f19601f8301169050919050565b7f4f776e61626c653a206e6577206f776e657220697320746865207a65726f206160008201527f6464726573730000000000000000000000000000000000000000000000000000602082015250565b7f4f776e61626c653a2063616c6c6572206973206e6f7420746865206f776e6572600082015250565b61153781611348565b811461154257600080fd5b50565b61154e8161135a565b811461155957600080fd5b50565b6115658161136c565b811461157057600080fd5b50565b61157c81611398565b811461158757600080fd5b5056fea2646970667358221220dad7558a220d72eae6469526631e3549b21e821bb590fc114444b1943d330fdd64736f6c63430008040033",
  "linkReferences": {},
  "deployedLinkReferences": {}
}