{
  "_format": "hh-sol-artifact-1",
  "contractName": "Lighthouse",
  "sourceName": "contracts/core/Lighthouse.sol",
  "abi": [
    {
      "anonymous": false,
      "inputs": [
        {
          "indexed": false,
          "internalType": "address",
          "name": "previousAdmin",
          "type": "address"
        },
        {
          "indexed": false,
          "internalType": "address",
          "name": "newAdmin",
          "type": "address"
        }
      ],
      "name": "AdminChanged",
      "type": "event"
    },
    {
      "anonymous": false,
      "inputs": [
        {
          "indexed": true,
          "internalType": "address",
          "name": "beacon",
          "type": "address"
        }
      ],
      "name": "BeaconUpgraded",
      "type": "event"
    },
    {
      "anonymous": false,
      "inputs": [
        {
          "indexed": true,
          "internalType": "uint256",
          "name": "id",
          "type": "uint256"
        },
        {
          "indexed": true,
          "internalType": "address",
          "name": "uploader",
          "type": "address"
        },
        {
          "components": [
            {
              "internalType": "address",
              "name": "user",
              "type": "address"
            },
            {
              "internalType": "string",
              "name": "cid",
              "type": "string"
            },
            {
              "internalType": "string",
              "name": "config",
              "type": "string"
            },
            {
              "internalType": "string",
              "name": "fileName",
              "type": "string"
            },
            {
              "internalType": "uint256",
              "name": "fileSize",
              "type": "uint256"
            },
            {
              "internalType": "uint256",
              "name": "timestamp",
              "type": "uint256"
            }
          ],
          "indexed": false,
          "internalType": "struct Lighthouse.Content[]",
          "name": "contents",
          "type": "tuple[]"
        },
        {
          "indexed": false,
          "internalType": "bool",
          "name": "didAllSuceed",
          "type": "bool"
        },
        {
          "indexed": false,
          "internalType": "uint256",
          "name": "timestamp",
          "type": "uint256"
        }
      ],
      "name": "BundleStorageRequest",
      "type": "event"
    },
    {
      "anonymous": false,
      "inputs": [
        {
          "indexed": true,
          "internalType": "uint256",
          "name": "id",
          "type": "uint256"
        },
        {
          "indexed": true,
          "internalType": "bool",
          "name": "isSuccess",
          "type": "bool"
        },
        {
          "indexed": false,
          "internalType": "uint256",
          "name": "count",
          "type": "uint256"
        },
        {
          "components": [
            {
              "internalType": "address",
              "name": "user",
              "type": "address"
            },
            {
              "internalType": "string",
              "name": "cid",
              "type": "string"
            },
            {
              "internalType": "string",
              "name": "config",
              "type": "string"
            },
            {
              "internalType": "string",
              "name": "fileName",
              "type": "string"
            },
            {
              "internalType": "uint256",
              "name": "fileSize",
              "type": "uint256"
            },
            {
              "internalType": "uint256",
              "name": "timestamp",
              "type": "uint256"
            }
          ],
          "indexed": false,
          "internalType": "struct Lighthouse.Content[]",
          "name": "contents",
          "type": "tuple[]"
        },
        {
          "indexed": false,
          "internalType": "uint256",
          "name": "timestamp",
          "type": "uint256"
        }
      ],
      "name": "BundleStorageResponse",
      "type": "event"
    },
    {
      "anonymous": false,
      "inputs": [
        {
          "indexed": false,
          "internalType": "uint8",
          "name": "version",
          "type": "uint8"
        }
      ],
      "name": "Initialized",
      "type": "event"
    },
    {
      "anonymous": false,
      "inputs": [
        {
          "indexed": true,
          "internalType": "address",
          "name": "previousOwner",
          "type": "address"
        },
        {
          "indexed": true,
          "internalType": "address",
          "name": "newOwner",
          "type": "address"
        }
      ],
      "name": "OwnershipTransferred",
      "type": "event"
    },
    {
      "anonymous": false,
      "inputs": [
        {
          "indexed": true,
          "internalType": "address",
          "name": "uploader",
          "type": "address"
        },
        {
          "indexed": false,
          "internalType": "string",
          "name": "cid",
          "type": "string"
        },
        {
          "indexed": false,
          "internalType": "string",
          "name": "config",
          "type": "string"
        },
        {
          "indexed": false,
          "internalType": "uint256",
          "name": "fileCost",
          "type": "uint256"
        },
        {
          "indexed": false,
          "internalType": "string",
          "name": "fileName",
          "type": "string"
        },
        {
          "indexed": false,
          "internalType": "uint256",
          "name": "fileSize",
          "type": "uint256"
        },
        {
          "indexed": false,
          "internalType": "uint256",
          "name": "timestamp",
          "type": "uint256"
        }
      ],
      "name": "StorageRequest",
      "type": "event"
    },
    {
      "anonymous": false,
      "inputs": [
        {
          "indexed": false,
          "internalType": "address",
          "name": "requester",
          "type": "address"
        },
        {
          "indexed": false,
          "internalType": "string",
          "name": "cid",
          "type": "string"
        }
      ],
      "name": "StorageStatusRequest",
      "type": "event"
    },
    {
      "anonymous": false,
      "inputs": [
        {
          "indexed": true,
          "internalType": "address",
          "name": "implementation",
          "type": "address"
        }
      ],
      "name": "Upgraded",
      "type": "event"
    },
    {
      "stateMutability": "payable",
      "type": "fallback"
    },
    {
      "inputs": [],
      "name": "Deposit",
      "outputs": [
        {
          "internalType": "contract IDepositManager",
          "name": "",
          "type": "address"
        }
      ],
      "stateMutability": "view",
      "type": "function"
    },
    {
      "inputs": [
        {
          "components": [
            {
              "internalType": "address",
              "name": "user",
              "type": "address"
            },
            {
              "internalType": "string",
              "name": "cid",
              "type": "string"
            },
            {
              "internalType": "string",
              "name": "config",
              "type": "string"
            },
            {
              "internalType": "string",
              "name": "fileName",
              "type": "string"
            },
            {
              "internalType": "uint256",
              "name": "fileSize",
              "type": "uint256"
            },
            {
              "internalType": "uint256",
              "name": "timestamp",
              "type": "uint256"
            }
          ],
          "internalType": "struct Lighthouse.Content[]",
          "name": "contents",
          "type": "tuple[]"
        }
      ],
      "name": "bundleStore",
      "outputs": [],
      "stateMutability": "nonpayable",
      "type": "function"
    },
    {
      "inputs": [
        {
          "internalType": "address",
          "name": "_deposit",
          "type": "address"
        }
      ],
      "name": "initialize",
      "outputs": [],
      "stateMutability": "nonpayable",
      "type": "function"
    },
    {
      "inputs": [],
      "name": "owner",
      "outputs": [
        {
          "internalType": "address",
          "name": "",
          "type": "address"
        }
      ],
      "stateMutability": "view",
      "type": "function"
    },
    {
      "inputs": [],
      "name": "proxiableUUID",
      "outputs": [
        {
          "internalType": "bytes32",
          "name": "",
          "type": "bytes32"
        }
      ],
      "stateMutability": "view",
      "type": "function"
    },
    {
      "inputs": [
        {
          "internalType": "string",
          "name": "cid",
          "type": "string"
        },
        {
          "internalType": "string",
          "name": "dealIds",
          "type": "string"
        },
        {
          "internalType": "bool",
          "name": "active",
          "type": "bool"
        }
      ],
      "name": "publishStorageStatus",
      "outputs": [],
      "stateMutability": "nonpayable",
      "type": "function"
    },
    {
      "inputs": [],
      "name": "renounceOwnership",
      "outputs": [],
      "stateMutability": "nonpayable",
      "type": "function"
    },
    {
      "inputs": [
        {
          "internalType": "string",
          "name": "cid",
          "type": "string"
        }
      ],
      "name": "requestStorageStatus",
      "outputs": [],
      "stateMutability": "nonpayable",
      "type": "function"
    },
    {
      "inputs": [
        {
          "internalType": "string",
          "name": "",
          "type": "string"
        }
      ],
      "name": "statuses",
      "outputs": [
        {
          "internalType": "string",
          "name": "dealIds",
          "type": "string"
        },
        {
          "internalType": "bool",
          "name": "active",
          "type": "bool"
        }
      ],
      "stateMutability": "view",
      "type": "function"
    },
    {
      "inputs": [
        {
          "internalType": "string",
          "name": "cid",
          "type": "string"
        },
        {
          "internalType": "string",
          "name": "config",
          "type": "string"
        },
        {
          "internalType": "string",
          "name": "fileName",
          "type": "string"
        },
        {
          "internalType": "uint256",
          "name": "fileSize",
          "type": "uint256"
        }
      ],
      "name": "store",
      "outputs": [],
      "stateMutability": "nonpayable",
      "type": "function"
    },
    {
      "inputs": [
        {
          "internalType": "address",
          "name": "newOwner",
          "type": "address"
        }
      ],
      "name": "transferOwnership",
      "outputs": [],
      "stateMutability": "nonpayable",
      "type": "function"
    },
    {
      "inputs": [
        {
          "internalType": "address",
          "name": "newImplementation",
          "type": "address"
        }
      ],
      "name": "upgradeTo",
      "outputs": [],
      "stateMutability": "nonpayable",
      "type": "function"
    },
    {
      "inputs": [
        {
          "internalType": "address",
          "name": "newImplementation",
          "type": "address"
        },
        {
          "internalType": "bytes",
          "name": "data",
          "type": "bytes"
        }
      ],
      "name": "upgradeToAndCall",
      "outputs": [],
      "stateMutability": "payable",
      "type": "function"
    },
    {
      "stateMutability": "payable",
      "type": "receive"
    }
  ],
  "bytecode": "0x60a06040523073ffffffffffffffffffffffffffffffffffffffff1660809073ffffffffffffffffffffffffffffffffffffffff1660601b81525034801561004657600080fd5b5060805160601c61336861008160003960008181610b4c01528181610bdb01528181610dca01528181610e590152610f0901526133686000f3fe6080604052600436106100c65760003560e01c806352d1902d1161007f578063c4d66de811610059578063c4d66de81461023a578063ed21248c14610263578063f2fde38b1461028e578063fd2b7f7f146102b7576100cd565b806352d1902d146101cd578063715018a6146101f85780638da5cb5b1461020f576100cd565b806308660c2a146100cf5780630bfa4715146100f85780632411949a146101215780633659cfe61461014a57806341053e2d146101735780634f1ef286146101b1576100cd565b366100cd57005b005b3480156100db57600080fd5b506100f660048036038101906100f19190611e9a565b6102e0565b005b34801561010457600080fd5b5061011f600480360381019061011a9190611f4d565b610862565b005b34801561012d57600080fd5b5061014860048036038101906101439190611fd6565b6109a0565b005b34801561015657600080fd5b50610171600480360381019061016c9190611e1d565b610b4a565b005b34801561017f57600080fd5b5061019a6004803603810190610195919061208f565b610cf9565b6040516101a8929190612875565b60405180910390f35b6101cb60048036038101906101c69190611e46565b610dc8565b005b3480156101d957600080fd5b506101e2610f05565b6040516101ef9190612786565b60405180910390f35b34801561020457600080fd5b5061020d610fbe565b005b34801561021b57600080fd5b50610224611046565b60405161023191906126b9565b60405180910390f35b34801561024657600080fd5b50610261600480360381019061025c9190611e1d565b611070565b005b34801561026f57600080fd5b5061027861114e565b60405161028591906127a1565b60405180910390f35b34801561029a57600080fd5b506102b560048036038101906102b09190611e1d565b611174565b005b3480156102c357600080fd5b506102de60048036038101906102d99190611f08565b61126c565b005b6102e86112ab565b73ffffffffffffffffffffffffffffffffffffffff16610306611046565b73ffffffffffffffffffffffffffffffffffffffff161461035c576040517f08c379a0000000000000000000000000000000000000000000000000000000008152600401610353906129a5565b60405180910390fd5b600160ca600082825461036f9190612c8c565b9250508190555060008282905067ffffffffffffffff8111156103bb577f4e487b7100000000000000000000000000000000000000000000000000000000600052604160045260246000fd5b6040519080825280602002602001820160405280156103f457816020015b6103e1611a7d565b8152602001906001900390816103d95790505b5090506000805b848490508110156107b65784848281811061043f577f4e487b7100000000000000000000000000000000000000000000000000000000600052603260045260246000fd5b90506020028101906104519190612a9a565b6080013560c960009054906101000a900473ffffffffffffffffffffffffffffffffffffffff1673ffffffffffffffffffffffffffffffffffffffff16634a5676b88787858181106104cc577f4e487b7100000000000000000000000000000000000000000000000000000000600052603260045260246000fd5b90506020028101906104de9190612a9a565b60000160208101906104f09190611e1d565b6040518263ffffffff1660e01b815260040161050c91906126b9565b60206040518083038186803b15801561052457600080fd5b505afa158015610538573d6000803e3d6000fd5b505050506040513d601f19601f8201168201806040525081019061055c91906120d0565b106106fb5760c960009054906101000a900473ffffffffffffffffffffffffffffffffffffffff1673ffffffffffffffffffffffffffffffffffffffff1663595ba7688686848181106105d8577f4e487b7100000000000000000000000000000000000000000000000000000000600052603260045260246000fd5b90506020028101906105ea9190612a9a565b60000160208101906105fc9190611e1d565b878785818110610635577f4e487b7100000000000000000000000000000000000000000000000000000000600052603260045260246000fd5b90506020028101906106479190612a9a565b60800135888886818110610684577f4e487b7100000000000000000000000000000000000000000000000000000000600052603260045260246000fd5b90506020028101906106969190612a9a565b80602001906106a59190612a43565b6040518563ffffffff1660e01b81526004016106c49493929190612706565b600060405180830381600087803b1580156106de57600080fd5b505af11580156106f2573d6000803e3d6000fd5b505050506107a3565b848482818110610734577f4e487b7100000000000000000000000000000000000000000000000000000000600052603260045260246000fd5b90506020028101906107469190612a9a565b61074f90612dd1565b838381518110610788577f4e487b7100000000000000000000000000000000000000000000000000000000600052603260045260246000fd5b60200260200101819052506001826107a09190612c8c565b91505b80806107ae90612e89565b9150506103fb565b503373ffffffffffffffffffffffffffffffffffffffff1660ca547f2f8ca7fd2f6096ec1ced893dc0b95c16f7bbd2c2276a3dca5a9fa86cd839095e868660008614426040516108099493929190612746565b60405180910390a36000811461085c576000151560ca547f305bcc2d50b4bd9107c71b00b8d4daa15d4d060e97bc9e81425396fe7a61ff5383854260405161085393929190612a05565b60405180910390a35b50505050565b61086a6112ab565b73ffffffffffffffffffffffffffffffffffffffff16610888611046565b73ffffffffffffffffffffffffffffffffffffffff16146108de576040517f08c379a00000000000000000000000000000000000000000000000000000000081526004016108d5906129a5565b60405180910390fd5b604051806040016040528084848080601f016020809104026020016040519081016040528093929190818152602001838380828437600081840152601f19601f82011690508083019250505050505050815260200182151581525060cb868660405161094b9291906126a0565b90815260200160405180910390206000820151816000019080519060200190610975929190611ac9565b5060208201518160010160006101000a81548160ff0219169083151502179055509050505050505050565b600042905060c960009054906101000a900473ffffffffffffffffffffffffffffffffffffffff1673ffffffffffffffffffffffffffffffffffffffff1663595ba76833848b8b6040518563ffffffff1660e01b8152600401610a069493929190612706565b600060405180830381600087803b158015610a2057600080fd5b505af1158015610a34573d6000803e3d6000fd5b505050503373ffffffffffffffffffffffffffffffffffffffff167f19ba564935ee7ed085f577bc575d92064d4e8f5050ad3da5a14dfc4b863e4ca0898989898760c960009054906101000a900473ffffffffffffffffffffffffffffffffffffffff1673ffffffffffffffffffffffffffffffffffffffff1663110882066040518163ffffffff1660e01b815260040160206040518083038186803b158015610add57600080fd5b505afa158015610af1573d6000803e3d6000fd5b505050506040513d601f19601f82011682018060405250810190610b1591906120d0565b610b1f9190612ce2565b8a8a8a8a604051610b38999897969594939291906127d7565b60405180910390a25050505050505050565b7f000000000000000000000000000000000000000000000000000000000000000073ffffffffffffffffffffffffffffffffffffffff163073ffffffffffffffffffffffffffffffffffffffff161415610bd9576040517f08c379a0000000000000000000000000000000000000000000000000000000008152600401610bd0906128c5565b60405180910390fd5b7f000000000000000000000000000000000000000000000000000000000000000073ffffffffffffffffffffffffffffffffffffffff16610c186112b3565b73ffffffffffffffffffffffffffffffffffffffff1614610c6e576040517f08c379a0000000000000000000000000000000000000000000000000000000008152600401610c65906128e5565b60405180910390fd5b610c778161130a565b610cf681600067ffffffffffffffff811115610cbc577f4e487b7100000000000000000000000000000000000000000000000000000000600052604160045260246000fd5b6040519080825280601f01601f191660200182016040528015610cee5781602001600182028036833780820191505090505b506000611389565b50565b60cb81805160208101820180518482526020830160208501208183528095505050505050600091509050806000018054610d3290612e26565b80601f0160208091040260200160405190810160405280929190818152602001828054610d5e90612e26565b8015610dab5780601f10610d8057610100808354040283529160200191610dab565b820191906000526020600020905b815481529060010190602001808311610d8e57829003601f168201915b5050505050908060010160009054906101000a900460ff16905082565b7f000000000000000000000000000000000000000000000000000000000000000073ffffffffffffffffffffffffffffffffffffffff163073ffffffffffffffffffffffffffffffffffffffff161415610e57576040517f08c379a0000000000000000000000000000000000000000000000000000000008152600401610e4e906128c5565b60405180910390fd5b7f000000000000000000000000000000000000000000000000000000000000000073ffffffffffffffffffffffffffffffffffffffff16610e966112b3565b73ffffffffffffffffffffffffffffffffffffffff1614610eec576040517f08c379a0000000000000000000000000000000000000000000000000000000008152600401610ee3906128e5565b60405180910390fd5b610ef58261130a565b610f0182826001611389565b5050565b60007f000000000000000000000000000000000000000000000000000000000000000073ffffffffffffffffffffffffffffffffffffffff163073ffffffffffffffffffffffffffffffffffffffff1614610f95576040517f08c379a0000000000000000000000000000000000000000000000000000000008152600401610f8c90612905565b60405180910390fd5b7f360894a13ba1a3210667c828492db98dca3e2076cc3735a920a3ca505d382bbc60001b905090565b610fc66112ab565b73ffffffffffffffffffffffffffffffffffffffff16610fe4611046565b73ffffffffffffffffffffffffffffffffffffffff161461103a576040517f08c379a0000000000000000000000000000000000000000000000000000000008152600401611031906129a5565b60405180910390fd5b6110446000611506565b565b6000603360009054906101000a900473ffffffffffffffffffffffffffffffffffffffff16905090565b600061107c60016115cc565b905080156110a0576001600060016101000a81548160ff0219169083151502179055505b6110a86116bc565b6110b0611715565b8160c960006101000a81548173ffffffffffffffffffffffffffffffffffffffff021916908373ffffffffffffffffffffffffffffffffffffffff160217905550801561114a5760008060016101000a81548160ff0219169083151502179055507f7f26b83ff96e1f2b6a682f133852f6798a09c465da95921460cefb3847402498600160405161114191906127bc565b60405180910390a15b5050565b60c960009054906101000a900473ffffffffffffffffffffffffffffffffffffffff1681565b61117c6112ab565b73ffffffffffffffffffffffffffffffffffffffff1661119a611046565b73ffffffffffffffffffffffffffffffffffffffff16146111f0576040517f08c379a00000000000000000000000000000000000000000000000000000000081526004016111e7906129a5565b60405180910390fd5b600073ffffffffffffffffffffffffffffffffffffffff168173ffffffffffffffffffffffffffffffffffffffff161415611260576040517f08c379a0000000000000000000000000000000000000000000000000000000008152600401611257906128a5565b60405180910390fd5b61126981611506565b50565b7fafb80c981a7eaaf1f395c91a7b176900b183b1f4caad2b39cb1e2e0af9e6a9a433838360405161129f939291906126d4565b60405180910390a15050565b600033905090565b60006112e17f360894a13ba1a3210667c828492db98dca3e2076cc3735a920a3ca505d382bbc60001b611766565b60000160009054906101000a900473ffffffffffffffffffffffffffffffffffffffff16905090565b6113126112ab565b73ffffffffffffffffffffffffffffffffffffffff16611330611046565b73ffffffffffffffffffffffffffffffffffffffff1614611386576040517f08c379a000000000000000000000000000000000000000000000000000000000815260040161137d906129a5565b60405180910390fd5b50565b6113b57f4910fdfa16fed3260ed0e7147f7cc6da11a60208b5b9406d12a635614ffd914360001b611770565b60000160009054906101000a900460ff16156113d9576113d48361177a565b611501565b8273ffffffffffffffffffffffffffffffffffffffff166352d1902d6040518163ffffffff1660e01b815260040160206040518083038186803b15801561141f57600080fd5b505afa92505050801561145057506040513d601f19601f8201168201806040525081019061144d9190611edf565b60015b61148f576040517f08c379a000000000000000000000000000000000000000000000000000000000815260040161148690612965565b60405180910390fd5b7f360894a13ba1a3210667c828492db98dca3e2076cc3735a920a3ca505d382bbc60001b81146114f4576040517f08c379a00000000000000000000000000000000000000000000000000000000081526004016114eb90612925565b60405180910390fd5b50611500838383611833565b5b505050565b6000603360009054906101000a900473ffffffffffffffffffffffffffffffffffffffff16905081603360006101000a81548173ffffffffffffffffffffffffffffffffffffffff021916908373ffffffffffffffffffffffffffffffffffffffff1602179055508173ffffffffffffffffffffffffffffffffffffffff168173ffffffffffffffffffffffffffffffffffffffff167f8be0079c531659141344cd1fd0a4f28419497f9722a3daafe3b4186f6b6457e060405160405180910390a35050565b60008060019054906101000a900460ff16156116435760018260ff161480156115fb57506115f93061185f565b155b61163a576040517f08c379a000000000000000000000000000000000000000000000000000000000815260040161163190612945565b60405180910390fd5b600090506116b7565b8160ff1660008054906101000a900460ff1660ff1610611698576040517f08c379a000000000000000000000000000000000000000000000000000000000815260040161168f90612945565b60405180910390fd5b816000806101000a81548160ff021916908360ff160217905550600190505b919050565b600060019054906101000a900460ff1661170b576040517f08c379a0000000000000000000000000000000000000000000000000000000008152600401611702906129e5565b60405180910390fd5b611713611882565b565b600060019054906101000a900460ff16611764576040517f08c379a000000000000000000000000000000000000000000000000000000000815260040161175b906129e5565b60405180910390fd5b565b6000819050919050565b6000819050919050565b6117838161185f565b6117c2576040517f08c379a00000000000000000000000000000000000000000000000000000000081526004016117b990612985565b60405180910390fd5b806117ef7f360894a13ba1a3210667c828492db98dca3e2076cc3735a920a3ca505d382bbc60001b611766565b60000160006101000a81548173ffffffffffffffffffffffffffffffffffffffff021916908373ffffffffffffffffffffffffffffffffffffffff16021790555050565b61183c836118e3565b6000825111806118495750805b1561185a576118588383611932565b505b505050565b6000808273ffffffffffffffffffffffffffffffffffffffff163b119050919050565b600060019054906101000a900460ff166118d1576040517f08c379a00000000000000000000000000000000000000000000000000000000081526004016118c8906129e5565b60405180910390fd5b6118e16118dc6112ab565b611506565b565b6118ec8161177a565b8073ffffffffffffffffffffffffffffffffffffffff167fbc7cd75a20ee27fd9adebab32041f755214dbc6bffa90cc0225b39da2e5c2d3b60405160405180910390a250565b606061193d8361185f565b61197c576040517f08c379a0000000000000000000000000000000000000000000000000000000008152600401611973906129c5565b60405180910390fd5b6000808473ffffffffffffffffffffffffffffffffffffffff16846040516119a49190612689565b600060405180830381855af49150503d80600081146119df576040519150601f19603f3d011682016040523d82523d6000602084013e6119e4565b606091505b5091509150611a0c828260405180606001604052806027815260200161330c60279139611a16565b9250505092915050565b60608315611a2657829050611a76565b600083511115611a395782518084602001fd5b816040517f08c379a0000000000000000000000000000000000000000000000000000000008152600401611a6d9190612853565b60405180910390fd5b9392505050565b6040518060c00160405280600073ffffffffffffffffffffffffffffffffffffffff16815260200160608152602001606081526020016060815260200160008152602001600081525090565b828054611ad590612e26565b90600052602060002090601f016020900481019282611af75760008555611b3e565b82601f10611b1057805160ff1916838001178555611b3e565b82800160010185558215611b3e579182015b82811115611b3d578251825591602001919060010190611b22565b5b509050611b4b9190611b4f565b5090565b5b80821115611b68576000816000905550600101611b50565b5090565b6000611b7f611b7a84612ae3565b612abe565b905082815260208101848484011115611b9757600080fd5b611ba2848285612de4565b509392505050565b6000611bbd611bb884612b14565b612abe565b905082815260208101848484011115611bd557600080fd5b611be0848285612de4565b509392505050565b600081359050611bf7816132af565b92915050565b60008083601f840112611c0f57600080fd5b8235905067ffffffffffffffff811115611c2857600080fd5b602083019150836020820283011115611c4057600080fd5b9250929050565b600081359050611c56816132c6565b92915050565b600081519050611c6b816132dd565b92915050565b600082601f830112611c8257600080fd5b8135611c92848260208601611b6c565b91505092915050565b60008083601f840112611cad57600080fd5b8235905067ffffffffffffffff811115611cc657600080fd5b602083019150836001820283011115611cde57600080fd5b9250929050565b600082601f830112611cf657600080fd5b8135611d06848260208601611baa565b91505092915050565b600060c08284031215611d2157600080fd5b611d2b60c0612abe565b90506000611d3b84828501611be8565b600083015250602082013567ffffffffffffffff811115611d5b57600080fd5b611d6784828501611ce5565b602083015250604082013567ffffffffffffffff811115611d8757600080fd5b611d9384828501611ce5565b604083015250606082013567ffffffffffffffff811115611db357600080fd5b611dbf84828501611ce5565b6060830152506080611dd384828501611df3565b60808301525060a0611de784828501611df3565b60a08301525092915050565b600081359050611e02816132f4565b92915050565b600081519050611e17816132f4565b92915050565b600060208284031215611e2f57600080fd5b6000611e3d84828501611be8565b91505092915050565b60008060408385031215611e5957600080fd5b6000611e6785828601611be8565b925050602083013567ffffffffffffffff811115611e8457600080fd5b611e9085828601611c71565b9150509250929050565b60008060208385031215611ead57600080fd5b600083013567ffffffffffffffff811115611ec757600080fd5b611ed385828601611bfd565b92509250509250929050565b600060208284031215611ef157600080fd5b6000611eff84828501611c5c565b91505092915050565b60008060208385031215611f1b57600080fd5b600083013567ffffffffffffffff811115611f3557600080fd5b611f4185828601611c9b565b92509250509250929050565b600080600080600060608688031215611f6557600080fd5b600086013567ffffffffffffffff811115611f7f57600080fd5b611f8b88828901611c9b565b9550955050602086013567ffffffffffffffff811115611faa57600080fd5b611fb688828901611c9b565b93509350506040611fc988828901611c47565b9150509295509295909350565b60008060008060008060006080888a031215611ff157600080fd5b600088013567ffffffffffffffff81111561200b57600080fd5b6120178a828b01611c9b565b9750975050602088013567ffffffffffffffff81111561203657600080fd5b6120428a828b01611c9b565b9550955050604088013567ffffffffffffffff81111561206157600080fd5b61206d8a828b01611c9b565b935093505060606120808a828b01611df3565b91505092959891949750929550565b6000602082840312156120a157600080fd5b600082013567ffffffffffffffff8111156120bb57600080fd5b6120c784828501611ce5565b91505092915050565b6000602082840312156120e257600080fd5b60006120f084828501611e08565b91505092915050565b60006121058383612507565b905092915050565b600061211983836125d4565b905092915050565b61212a81612d3c565b82525050565b61213981612d3c565b82525050565b600061214b8385612b9a565b93508360208402850161215d84612b45565b8060005b878110156121a15784840389526121788284612c51565b61218285826120f9565b945061218d83612b80565b925060208a01995050600181019050612161565b50829750879450505050509392505050565b60006121be82612b5f565b6121c88185612b9a565b9350836020820285016121da85612b4f565b8060005b8581101561221657848403895281516121f7858261210d565b945061220283612b8d565b925060208a019950506001810190506121de565b50829750879550505050505092915050565b61223181612d4e565b82525050565b61224081612d5a565b82525050565b600061225182612b6a565b61225b8185612bab565b935061226b818560208601612df3565b80840191505092915050565b61228081612d9b565b82525050565b61228f81612dbf565b82525050565b60006122a18385612bb6565b93506122ae838584612de4565b6122b783612f5f565b840190509392505050565b60006122ce8385612bc7565b93506122db838584612de4565b6122e483612f5f565b840190509392505050565b60006122fb8385612bd8565b9350612308838584612de4565b82840190509392505050565b600061231f82612b75565b6123298185612bb6565b9350612339818560208601612df3565b61234281612f5f565b840191505092915050565b600061235882612b75565b6123628185612bc7565b9350612372818560208601612df3565b61237b81612f5f565b840191505092915050565b6000612393602683612bc7565b915061239e82612f70565b604082019050919050565b60006123b6602c83612bc7565b91506123c182612fbf565b604082019050919050565b60006123d9602c83612bc7565b91506123e48261300e565b604082019050919050565b60006123fc603883612bc7565b91506124078261305d565b604082019050919050565b600061241f602983612bc7565b915061242a826130ac565b604082019050919050565b6000612442602e83612bc7565b915061244d826130fb565b604082019050919050565b6000612465602e83612bc7565b91506124708261314a565b604082019050919050565b6000612488602d83612bc7565b915061249382613199565b604082019050919050565b60006124ab602083612bc7565b91506124b6826131e8565b602082019050919050565b60006124ce602683612bc7565b91506124d982613211565b604082019050919050565b60006124f1602b83612bc7565b91506124fc82613260565b604082019050919050565b600060c0830161251a6000840184612be3565b6125276000860182612121565b506125356020840184612bfa565b8583036020870152612548838284612295565b925050506125596040840184612bfa565b858303604087015261256c838284612295565b9250505061257d6060840184612bfa565b8583036060870152612590838284612295565b925050506125a16080840184612c75565b6125ae608086018261266b565b506125bc60a0840184612c75565b6125c960a086018261266b565b508091505092915050565b600060c0830160008301516125ec6000860182612121565b50602083015184820360208601526126048282612314565b9150506040830151848203604086015261261e8282612314565b915050606083015184820360608601526126388282612314565b915050608083015161264d608086018261266b565b5060a083015161266060a086018261266b565b508091505092915050565b61267481612d84565b82525050565b61268381612d84565b82525050565b60006126958284612246565b915081905092915050565b60006126ad8284866122ef565b91508190509392505050565b60006020820190506126ce6000830184612130565b92915050565b60006040820190506126e96000830186612130565b81810360208301526126fc8184866122c2565b9050949350505050565b600060608201905061271b6000830187612130565b612728602083018661267a565b818103604083015261273b8184866122c2565b905095945050505050565b6000606082019050818103600083015261276181868861213f565b90506127706020830185612228565b61277d604083018461267a565b95945050505050565b600060208201905061279b6000830184612237565b92915050565b60006020820190506127b66000830184612277565b92915050565b60006020820190506127d16000830184612286565b92915050565b600060c08201905081810360008301526127f2818b8d6122c2565b9050818103602083015261280781898b6122c2565b9050612816604083018861267a565b81810360608301526128298186886122c2565b9050612838608083018561267a565b61284560a083018461267a565b9a9950505050505050505050565b6000602082019050818103600083015261286d818461234d565b905092915050565b6000604082019050818103600083015261288f818561234d565b905061289e6020830184612228565b9392505050565b600060208201905081810360008301526128be81612386565b9050919050565b600060208201905081810360008301526128de816123a9565b9050919050565b600060208201905081810360008301526128fe816123cc565b9050919050565b6000602082019050818103600083015261291e816123ef565b9050919050565b6000602082019050818103600083015261293e81612412565b9050919050565b6000602082019050818103600083015261295e81612435565b9050919050565b6000602082019050818103600083015261297e81612458565b9050919050565b6000602082019050818103600083015261299e8161247b565b9050919050565b600060208201905081810360008301526129be8161249e565b9050919050565b600060208201905081810360008301526129de816124c1565b9050919050565b600060208201905081810360008301526129fe816124e4565b9050919050565b6000606082019050612a1a600083018661267a565b8181036020830152612a2c81856121b3565b9050612a3b604083018461267a565b949350505050565b60008083356001602003843603038112612a5c57600080fd5b80840192508235915067ffffffffffffffff821115612a7a57600080fd5b602083019250600182023603831315612a9257600080fd5b509250929050565b60008235600160c003833603038112612ab257600080fd5b80830191505092915050565b6000612ac8612ad9565b9050612ad48282612e58565b919050565b6000604051905090565b600067ffffffffffffffff821115612afe57612afd612f30565b5b612b0782612f5f565b9050602081019050919050565b600067ffffffffffffffff821115612b2f57612b2e612f30565b5b612b3882612f5f565b9050602081019050919050565b6000819050919050565b6000819050602082019050919050565b600081519050919050565b600081519050919050565b600081519050919050565b6000602082019050919050565b6000602082019050919050565b600082825260208201905092915050565b600081905092915050565b600082825260208201905092915050565b600082825260208201905092915050565b600081905092915050565b6000612bf26020840184611be8565b905092915050565b60008083356001602003843603038112612c1357600080fd5b83810192508235915060208301925067ffffffffffffffff821115612c3757600080fd5b600182023603841315612c4957600080fd5b509250929050565b60008235600160c003833603038112612c6957600080fd5b82810191505092915050565b6000612c846020840184611df3565b905092915050565b6000612c9782612d84565b9150612ca283612d84565b9250827fffffffffffffffffffffffffffffffffffffffffffffffffffffffffffffffff03821115612cd757612cd6612ed2565b5b828201905092915050565b6000612ced82612d84565b9150612cf883612d84565b9250817fffffffffffffffffffffffffffffffffffffffffffffffffffffffffffffffff0483118215151615612d3157612d30612ed2565b5b828202905092915050565b6000612d4782612d64565b9050919050565b60008115159050919050565b6000819050919050565b600073ffffffffffffffffffffffffffffffffffffffff82169050919050565b6000819050919050565b600060ff82169050919050565b6000612da682612dad565b9050919050565b6000612db882612d64565b9050919050565b6000612dca82612d8e565b9050919050565b6000612ddd3683611d0f565b9050919050565b82818337600083830152505050565b60005b83811015612e11578082015181840152602081019050612df6565b83811115612e20576000848401525b50505050565b60006002820490506001821680612e3e57607f821691505b60208210811415612e5257612e51612f01565b5b50919050565b612e6182612f5f565b810181811067ffffffffffffffff82111715612e8057612e7f612f30565b5b80604052505050565b6000612e9482612d84565b91507fffffffffffffffffffffffffffffffffffffffffffffffffffffffffffffffff821415612ec757612ec6612ed2565b5b600182019050919050565b7f4e487b7100000000000000000000000000000000000000000000000000000000600052601160045260246000fd5b7f4e487b7100000000000000000000000000000000000000000000000000000000600052602260045260246000fd5b7f4e487b7100000000000000000000000000000000000000000000000000000000600052604160045260246000fd5b6000601f19601f8301169050919050565b7f4f776e61626c653a206e6577206f776e657220697320746865207a65726f206160008201527f6464726573730000000000000000000000000000000000000000000000000000602082015250565b7f46756e6374696f6e206d7573742062652063616c6c6564207468726f7567682060008201527f64656c656761746563616c6c0000000000000000000000000000000000000000602082015250565b7f46756e6374696f6e206d7573742062652063616c6c6564207468726f7567682060008201527f6163746976652070726f78790000000000000000000000000000000000000000602082015250565b7f555550535570677261646561626c653a206d757374206e6f742062652063616c60008201527f6c6564207468726f7567682064656c656761746563616c6c0000000000000000602082015250565b7f45524331393637557067726164653a20756e737570706f727465642070726f7860008201527f6961626c65555549440000000000000000000000000000000000000000000000602082015250565b7f496e697469616c697a61626c653a20636f6e747261637420697320616c72656160008201527f647920696e697469616c697a6564000000000000000000000000000000000000602082015250565b7f45524331393637557067726164653a206e657720696d706c656d656e7461746960008201527f6f6e206973206e6f742055555053000000000000000000000000000000000000602082015250565b7f455243313936373a206e657720696d706c656d656e746174696f6e206973206e60008201527f6f74206120636f6e747261637400000000000000000000000000000000000000602082015250565b7f4f776e61626c653a2063616c6c6572206973206e6f7420746865206f776e6572600082015250565b7f416464726573733a2064656c65676174652063616c6c20746f206e6f6e2d636f60008201527f6e74726163740000000000000000000000000000000000000000000000000000602082015250565b7f496e697469616c697a61626c653a20636f6e7472616374206973206e6f74206960008201527f6e697469616c697a696e67000000000000000000000000000000000000000000602082015250565b6132b881612d3c565b81146132c357600080fd5b50565b6132cf81612d4e565b81146132da57600080fd5b50565b6132e681612d5a565b81146132f157600080fd5b50565b6132fd81612d84565b811461330857600080fd5b5056fe416464726573733a206c6f772d6c6576656c2064656c65676174652063616c6c206661696c6564a26469706673582212201d5bb6c49be598b220a5a333608b24ee34315ae0a63ccc07dc6cce3ccf988be464736f6c63430008040033",
  "linkReferences": {},
  "deployedLinkReferences": {}
}