{
  "_format": "hh-sol-artifact-1",
  "contractName": "Lighthouse",
  "sourceName": "contracts/core/Lighthouse.sol",
  "abi": [
    {
      "anonymous": false,
      "inputs": [
        {
          "indexed": false,
          "internalType": "address",
          "name": "previousAdmin",
          "type": "address"
        },
        {
          "indexed": false,
          "internalType": "address",
          "name": "newAdmin",
          "type": "address"
        }
      ],
      "name": "AdminChanged",
      "type": "event"
    },
    {
      "anonymous": false,
      "inputs": [
        {
          "indexed": true,
          "internalType": "address",
          "name": "beacon",
          "type": "address"
        }
      ],
      "name": "BeaconUpgraded",
      "type": "event"
    },
    {
      "anonymous": false,
      "inputs": [
        {
          "indexed": true,
          "internalType": "uint256",
          "name": "id",
          "type": "uint256"
        },
        {
          "indexed": true,
          "internalType": "address",
          "name": "uploader",
          "type": "address"
        },
        {
          "components": [
            {
              "internalType": "address",
              "name": "user",
              "type": "address"
            },
            {
              "internalType": "string",
              "name": "cid",
              "type": "string"
            },
            {
              "internalType": "string",
              "name": "config",
              "type": "string"
            },
            {
              "internalType": "string",
              "name": "fileName",
              "type": "string"
            },
            {
              "internalType": "uint256",
              "name": "fileSize",
              "type": "uint256"
            },
            {
              "internalType": "uint256",
              "name": "timestamp",
              "type": "uint256"
            }
          ],
          "indexed": false,
          "internalType": "struct Lighthouse.Content[]",
          "name": "contents",
          "type": "tuple[]"
        },
        {
          "indexed": false,
          "internalType": "bool",
          "name": "didAllSuceed",
          "type": "bool"
        },
        {
          "indexed": false,
          "internalType": "uint256",
          "name": "timestamp",
          "type": "uint256"
        }
      ],
      "name": "BundleStorageRequest",
      "type": "event"
    },
    {
      "anonymous": false,
      "inputs": [
        {
          "indexed": true,
          "internalType": "uint256",
          "name": "id",
          "type": "uint256"
        },
        {
          "indexed": true,
          "internalType": "bool",
          "name": "isSuccess",
          "type": "bool"
        },
        {
          "indexed": false,
          "internalType": "uint256",
          "name": "count",
          "type": "uint256"
        },
        {
          "components": [
            {
              "internalType": "address",
              "name": "user",
              "type": "address"
            },
            {
              "internalType": "string",
              "name": "cid",
              "type": "string"
            },
            {
              "internalType": "string",
              "name": "config",
              "type": "string"
            },
            {
              "internalType": "string",
              "name": "fileName",
              "type": "string"
            },
            {
              "internalType": "uint256",
              "name": "fileSize",
              "type": "uint256"
            },
            {
              "internalType": "uint256",
              "name": "timestamp",
              "type": "uint256"
            }
          ],
          "indexed": false,
          "internalType": "struct Lighthouse.Content[]",
          "name": "contents",
          "type": "tuple[]"
        },
        {
          "indexed": false,
          "internalType": "uint256",
          "name": "timestamp",
          "type": "uint256"
        }
      ],
      "name": "BundleStorageResponse",
      "type": "event"
    },
    {
      "anonymous": false,
      "inputs": [
        {
          "indexed": false,
          "internalType": "uint8",
          "name": "version",
          "type": "uint8"
        }
      ],
      "name": "Initialized",
      "type": "event"
    },
    {
      "anonymous": false,
      "inputs": [
        {
          "indexed": true,
          "internalType": "address",
          "name": "previousOwner",
          "type": "address"
        },
        {
          "indexed": true,
          "internalType": "address",
          "name": "newOwner",
          "type": "address"
        }
      ],
      "name": "OwnershipTransferred",
      "type": "event"
    },
    {
      "anonymous": false,
      "inputs": [
        {
          "indexed": true,
          "internalType": "address",
          "name": "uploader",
          "type": "address"
        },
        {
          "indexed": false,
          "internalType": "string",
          "name": "cid",
          "type": "string"
        },
        {
          "indexed": false,
          "internalType": "string",
          "name": "config",
          "type": "string"
        },
        {
          "indexed": false,
          "internalType": "uint256",
          "name": "fileCost",
          "type": "uint256"
        },
        {
          "indexed": false,
          "internalType": "string",
          "name": "fileName",
          "type": "string"
        },
        {
          "indexed": false,
          "internalType": "uint256",
          "name": "fileSize",
          "type": "uint256"
        },
        {
          "indexed": false,
          "internalType": "uint256",
          "name": "timestamp",
          "type": "uint256"
        }
      ],
      "name": "StorageRequest",
      "type": "event"
    },
    {
      "anonymous": false,
      "inputs": [
        {
          "indexed": false,
          "internalType": "address",
          "name": "requester",
          "type": "address"
        },
        {
          "indexed": false,
          "internalType": "string",
          "name": "cid",
          "type": "string"
        }
      ],
      "name": "StorageStatusRequest",
      "type": "event"
    },
    {
      "anonymous": false,
      "inputs": [
        {
          "indexed": true,
          "internalType": "address",
          "name": "implementation",
          "type": "address"
        }
      ],
      "name": "Upgraded",
      "type": "event"
    },
    {
      "stateMutability": "payable",
      "type": "fallback"
    },
    {
      "inputs": [],
      "name": "Deposit",
      "outputs": [
        {
          "internalType": "contract IDepositManager",
          "name": "",
          "type": "address"
        }
      ],
      "stateMutability": "view",
      "type": "function"
    },
    {
      "inputs": [
        {
          "components": [
            {
              "internalType": "address",
              "name": "user",
              "type": "address"
            },
            {
              "internalType": "string",
              "name": "cid",
              "type": "string"
            },
            {
              "internalType": "string",
              "name": "config",
              "type": "string"
            },
            {
              "internalType": "string",
              "name": "fileName",
              "type": "string"
            },
            {
              "internalType": "uint256",
              "name": "fileSize",
              "type": "uint256"
            },
            {
              "internalType": "uint256",
              "name": "timestamp",
              "type": "uint256"
            }
          ],
          "internalType": "struct Lighthouse.Content[]",
          "name": "contents",
          "type": "tuple[]"
        }
      ],
      "name": "bundleStore",
      "outputs": [],
      "stateMutability": "nonpayable",
      "type": "function"
    },
    {
      "inputs": [
        {
          "internalType": "address",
          "name": "_deposit",
          "type": "address"
        }
      ],
      "name": "initialize",
      "outputs": [],
      "stateMutability": "nonpayable",
      "type": "function"
    },
    {
      "inputs": [],
      "name": "owner",
      "outputs": [
        {
          "internalType": "address",
          "name": "",
          "type": "address"
        }
      ],
      "stateMutability": "view",
      "type": "function"
    },
    {
      "inputs": [],
      "name": "proxiableUUID",
      "outputs": [
        {
          "internalType": "bytes32",
          "name": "",
          "type": "bytes32"
        }
      ],
      "stateMutability": "view",
      "type": "function"
    },
    {
      "inputs": [
        {
          "internalType": "string",
          "name": "cid",
          "type": "string"
        },
        {
          "internalType": "string",
          "name": "dealIds",
          "type": "string"
        },
        {
          "internalType": "bool",
          "name": "active",
          "type": "bool"
        }
      ],
      "name": "publishStorageStatus",
      "outputs": [],
      "stateMutability": "nonpayable",
      "type": "function"
    },
    {
      "inputs": [],
      "name": "renounceOwnership",
      "outputs": [],
      "stateMutability": "nonpayable",
      "type": "function"
    },
    {
      "inputs": [
        {
          "internalType": "string",
          "name": "cid",
          "type": "string"
        }
      ],
      "name": "requestStorageStatus",
      "outputs": [],
      "stateMutability": "nonpayable",
      "type": "function"
    },
    {
      "inputs": [
        {
          "internalType": "string",
          "name": "",
          "type": "string"
        }
      ],
      "name": "statuses",
      "outputs": [
        {
          "internalType": "string",
          "name": "dealIds",
          "type": "string"
        },
        {
          "internalType": "bool",
          "name": "active",
          "type": "bool"
        }
      ],
      "stateMutability": "view",
      "type": "function"
    },
    {
      "inputs": [
        {
          "internalType": "string",
          "name": "cid",
          "type": "string"
        },
        {
          "internalType": "string",
          "name": "config",
          "type": "string"
        },
        {
          "internalType": "string",
          "name": "fileName",
          "type": "string"
        },
        {
          "internalType": "uint256",
          "name": "fileSize",
          "type": "uint256"
        }
      ],
      "name": "store",
      "outputs": [],
      "stateMutability": "nonpayable",
      "type": "function"
    },
    {
      "inputs": [
        {
          "internalType": "address",
          "name": "newOwner",
          "type": "address"
        }
      ],
      "name": "transferOwnership",
      "outputs": [],
      "stateMutability": "nonpayable",
      "type": "function"
    },
    {
      "inputs": [
        {
          "internalType": "address",
          "name": "newImplementation",
          "type": "address"
        }
      ],
      "name": "upgradeTo",
      "outputs": [],
      "stateMutability": "nonpayable",
      "type": "function"
    },
    {
      "inputs": [
        {
          "internalType": "address",
          "name": "newImplementation",
          "type": "address"
        },
        {
          "internalType": "bytes",
          "name": "data",
          "type": "bytes"
        }
      ],
      "name": "upgradeToAndCall",
      "outputs": [],
      "stateMutability": "payable",
      "type": "function"
    },
    {
      "stateMutability": "payable",
      "type": "receive"
    }
  ],
  "bytecode": "0x60a06040523073ffffffffffffffffffffffffffffffffffffffff1660809073ffffffffffffffffffffffffffffffffffffffff1660601b81525034801561004657600080fd5b5060805160601c613b2c610081600039600081816111dd0152818161126c0152818161145b015281816114ea015261159a0152613b2c6000f3fe6080604052600436106100c65760003560e01c806352d1902d1161007f578063c4d66de811610059578063c4d66de814610266578063ed21248c1461028f578063f2fde38b146102ba578063fd2b7f7f146102e3576100cd565b806352d1902d146101f9578063715018a6146102245780638da5cb5b1461023b576100cd565b806308660c2a146100fb5780630bfa4715146101245780632411949a1461014d5780633659cfe61461017657806341053e2d1461019f5780634f1ef286146101dd576100cd565b366100cd57005b6100f97ff42d34ef1e4d2c9b460a11f66d9700de37eaeccd29cf67b11e9f684af6500d6660001b61030c565b005b34801561010757600080fd5b50610122600480360381019061011d919061265e565b61030f565b005b34801561013057600080fd5b5061014b60048036038101906101469190612711565b610d3b565b005b34801561015957600080fd5b50610174600480360381019061016f919061279a565b610efd565b005b34801561018257600080fd5b5061019d600480360381019061019891906125e1565b6111db565b005b3480156101ab57600080fd5b506101c660048036038101906101c19190612853565b61138a565b6040516101d4929190613039565b60405180910390f35b6101f760048036038101906101f2919061260a565b611459565b005b34801561020557600080fd5b5061020e611596565b60405161021b9190612f4a565b60405180910390f35b34801561023057600080fd5b5061023961164f565b005b34801561024757600080fd5b506102506116d7565b60405161025d9190612e7d565b60405180910390f35b34801561027257600080fd5b5061028d600480360381019061028891906125e1565b611701565b005b34801561029b57600080fd5b506102a46118b3565b6040516102b19190612f65565b60405180910390f35b3480156102c657600080fd5b506102e160048036038101906102dc91906125e1565b6118d9565b005b3480156102ef57600080fd5b5061030a600480360381019061030591906126cc565b6119d1565b005b50565b610317611a94565b73ffffffffffffffffffffffffffffffffffffffff166103356116d7565b73ffffffffffffffffffffffffffffffffffffffff161461038b576040517f08c379a000000000000000000000000000000000000000000000000000000000815260040161038290613169565b60405180910390fd5b6103b77f3f380799c082ec5af3a0b2b4e56e5bd4cefef564b2c35aaa9eac27aa4c1072e360001b61030c565b6103e37f75941d3b90e50419941aa1728732409b43e3daaabdd86e02685dc0f5eeda82ea60001b61030c565b61040f7fdb25d5443fa060b2e943bc9cc763b0ffdf1a171c8e4ccd1f05a4b42e6c8a81df60001b61030c565b600160ca60008282546104229190613450565b925050819055506104557f69dc9cc43e13c51ea57ded6db441858a6756292f266c46e4fd08f8d233a994a360001b61030c565b6104817f5f556a8d7690edbed43d03eb12c60ac6a9ff92067d093a406204771d4755cd3960001b61030c565b60008282905067ffffffffffffffff8111156104c6577f4e487b7100000000000000000000000000000000000000000000000000000000600052604160045260246000fd5b6040519080825280602002602001820160405280156104ff57816020015b6104ec612241565b8152602001906001900390816104e45790505b50905061052e7f5f701498a21e0066e7866c6a0308a31ab81ecc97d555c482cbcde7a0a9fff80060001b61030c565b61055a7fda8ee4c0f9c4635daafde39d8ad9ac44929623313de8ef148c2c0c015b90e86760001b61030c565b60006105887f9ecb6cae9b647b4a92009c18886461cea35d82ae1e4c9ceeb239b5bacb2b0ade60001b61030c565b6105b47f5be9f8e2a1fb60358880a9c74033bf1b5cb4a55f268533060f5183cd95253b3360001b61030c565b60005b84849050811015610b2a576105ee7f805e2f05cc44411a42e9f4e9ed704959bba560bc55da432d159208d0687f1c7860001b61030c565b61061a7f793971be401131cc8b68cc4a7c31fd7d59c70938cff2dfa657d67d7a9fcba7e260001b61030c565b848482818110610653577f4e487b7100000000000000000000000000000000000000000000000000000000600052603260045260246000fd5b9050602002810190610665919061325e565b6080013560c960009054906101000a900473ffffffffffffffffffffffffffffffffffffffff1673ffffffffffffffffffffffffffffffffffffffff16634a5676b88787858181106106e0577f4e487b7100000000000000000000000000000000000000000000000000000000600052603260045260246000fd5b90506020028101906106f2919061325e565b600001602081019061070491906125e1565b6040518263ffffffff1660e01b81526004016107209190612e7d565b60206040518083038186803b15801561073857600080fd5b505afa15801561074c573d6000803e3d6000fd5b505050506040513d601f19601f820116820180604052508101906107709190612894565b10610993576107a17f04c1eb71d6e8bcf1e4656e9b5a34d2ad36a8956ef9f677e9735844df4dbd85b160001b61030c565b6107cd7f9f0ac5037bf3d95c0e2b2d8e605857573be97ece68a16e22d8365cc0bd8816d560001b61030c565b6107f97fb4f8952fa84505bac2c5bee30922049ce119fe5aa0f282a5fd0294e033b21cda60001b61030c565b60c960009054906101000a900473ffffffffffffffffffffffffffffffffffffffff1673ffffffffffffffffffffffffffffffffffffffff1663595ba768868684818110610870577f4e487b7100000000000000000000000000000000000000000000000000000000600052603260045260246000fd5b9050602002810190610882919061325e565b600001602081019061089491906125e1565b8787858181106108cd577f4e487b7100000000000000000000000000000000000000000000000000000000600052603260045260246000fd5b90506020028101906108df919061325e565b6080013588888681811061091c577f4e487b7100000000000000000000000000000000000000000000000000000000600052603260045260246000fd5b905060200281019061092e919061325e565b806020019061093d9190613207565b6040518563ffffffff1660e01b815260040161095c9493929190612eca565b600060405180830381600087803b15801561097657600080fd5b505af115801561098a573d6000803e3d6000fd5b50505050610b17565b6109bf7f6860462d60338ddf27f4647bc318baeafbeead1eb7e460ccdd1b9aac91d77f4360001b61030c565b6109eb7f9a6a8e5bbefc1f652d982faa9299b5924960763347a2491d6b00a2837e048a9b60001b61030c565b610a177fb2a557f12b11e5e29a869666bc9c7a577b5b5e64cd8940abd5eb279eba3a550e60001b61030c565b848482818110610a50577f4e487b7100000000000000000000000000000000000000000000000000000000600052603260045260246000fd5b9050602002810190610a62919061325e565b610a6b90613595565b838381518110610aa4577f4e487b7100000000000000000000000000000000000000000000000000000000600052603260045260246000fd5b6020026020010181905250610adb7f5a0fb08964163a975e8284e04cf1028299f2d149872569676d39ce689b8a0c7460001b61030c565b610b077f110ad25e035fec786f8d69515560cb361eac17b4503bce42b6bd3a288de47af360001b61030c565b600182610b149190613450565b91505b8080610b229061364d565b9150506105b7565b50610b577f4afc2df9808bc2f57e30a52379df966ae517e6928b7099df200df282bdc9450e60001b61030c565b610b837ffb5859e1639140f435084efc0afaa5e163eb90f27377ee0097da02e8d0e51fdc60001b61030c565b3373ffffffffffffffffffffffffffffffffffffffff1660ca547f2f8ca7fd2f6096ec1ced893dc0b95c16f7bbd2c2276a3dca5a9fa86cd839095e86866000861442604051610bd59493929190612f0a565b60405180910390a3610c097f812667176997ba2a01267c85de9b17b20ba529e69aad522fb609a8cc7f34912360001b61030c565b610c357f8f88ba30aaa9ac6955b64ba95fa193757dd83088fa4d7a30936494ce8c93dbf260001b61030c565b60008114610d0857610c697fcc4429451fc465ca8265260408efa4fe4384b678af7b900d7d246ae81997ec3860001b61030c565b610c957fc7bf0eb3185759c632b37010ea2a895095df181c414f9782c2f4c5e2d1fa46e360001b61030c565b610cc17fc7148b9439cfa128227cb0d73b8b6cfb4c377727c23127b2b683d39624967fe060001b61030c565b6000151560ca547f305bcc2d50b4bd9107c71b00b8d4daa15d4d060e97bc9e81425396fe7a61ff53838542604051610cfb939291906131c9565b60405180910390a3610d35565b610d347fdac423a36ec4166317d58dc5fe85ac0600173da1ec82c96e73d7931c0077dc0060001b61030c565b5b50505050565b610d43611a94565b73ffffffffffffffffffffffffffffffffffffffff16610d616116d7565b73ffffffffffffffffffffffffffffffffffffffff1614610db7576040517f08c379a0000000000000000000000000000000000000000000000000000000008152600401610dae90613169565b60405180910390fd5b610de37f5a69abe2529395b267e89de3210466b1108941f949de91dde9cd51b539fa146960001b61030c565b610e0f7fe196df074e6d1a2852bb337ea81b12c939d3749a6c5caf8a83ee26d190f7058a60001b61030c565b610e3b7fb9d1aea948768bd90ddc6368a05a37579194c1a2d01499dd4aa1a0634b2956b760001b61030c565b604051806040016040528084848080601f016020809104026020016040519081016040528093929190818152602001838380828437600081840152601f19601f82011690508083019250505050505050815260200182151581525060cb8686604051610ea8929190612e64565b90815260200160405180910390206000820151816000019080519060200190610ed292919061228d565b5060208201518160010160006101000a81548160ff0219169083151502179055509050505050505050565b610f297f59b36511b048cec4a5a7b115b9c71b5ac31e004542bfcd2da8b03c480697af1e60001b61030c565b610f557f987955f63269539bd57287e356ce91fe86ad3c58d7e5282956607cb2be6f898160001b61030c565b610f817ff2f5ac8f23cf560024fb4b649495b4fcead13eddf20e726264661612f33f309a60001b61030c565b6000429050610fb27f4f513a19cf95ae5f822ad093c281c31607db08fff7cff8b345b757d5483fc47e60001b61030c565b610fde7fd63b89c455d706248e46e83095d46c96314bbcd17ac0acc20df680d09143e49860001b61030c565b60c960009054906101000a900473ffffffffffffffffffffffffffffffffffffffff1673ffffffffffffffffffffffffffffffffffffffff1663595ba76833848b8b6040518563ffffffff1660e01b815260040161103f9493929190612eca565b600060405180830381600087803b15801561105957600080fd5b505af115801561106d573d6000803e3d6000fd5b5050505061109d7f16300fa31f713a2f9e1ea74bd05e3f5c92e439f57cc2c63c8c76d651c037426c60001b61030c565b6110c97f4edc31e8410b9414755be34d36cbc74025899b24dc7dafe167bc04c1bc2ab9f360001b61030c565b3373ffffffffffffffffffffffffffffffffffffffff167f19ba564935ee7ed085f577bc575d92064d4e8f5050ad3da5a14dfc4b863e4ca0898989898760c960009054906101000a900473ffffffffffffffffffffffffffffffffffffffff1673ffffffffffffffffffffffffffffffffffffffff1663110882066040518163ffffffff1660e01b815260040160206040518083038186803b15801561116e57600080fd5b505afa158015611182573d6000803e3d6000fd5b505050506040513d601f19601f820116820180604052508101906111a69190612894565b6111b091906134a6565b8a8a8a8a6040516111c999989796959493929190612f9b565b60405180910390a25050505050505050565b7f000000000000000000000000000000000000000000000000000000000000000073ffffffffffffffffffffffffffffffffffffffff163073ffffffffffffffffffffffffffffffffffffffff16141561126a576040517f08c379a000000000000000000000000000000000000000000000000000000000815260040161126190613089565b60405180910390fd5b7f000000000000000000000000000000000000000000000000000000000000000073ffffffffffffffffffffffffffffffffffffffff166112a9611a9c565b73ffffffffffffffffffffffffffffffffffffffff16146112ff576040517f08c379a00000000000000000000000000000000000000000000000000000000081526004016112f6906130a9565b60405180910390fd5b61130881611af3565b61138781600067ffffffffffffffff81111561134d577f4e487b7100000000000000000000000000000000000000000000000000000000600052604160045260246000fd5b6040519080825280601f01601f19166020018201604052801561137f5781602001600182028036833780820191505090505b506000611b9e565b50565b60cb818051602081018201805184825260208301602085012081835280955050505050506000915090508060000180546113c3906135ea565b80601f01602080910402602001604051908101604052809291908181526020018280546113ef906135ea565b801561143c5780601f106114115761010080835404028352916020019161143c565b820191906000526020600020905b81548152906001019060200180831161141f57829003601f168201915b5050505050908060010160009054906101000a900460ff16905082565b7f000000000000000000000000000000000000000000000000000000000000000073ffffffffffffffffffffffffffffffffffffffff163073ffffffffffffffffffffffffffffffffffffffff1614156114e8576040517f08c379a00000000000000000000000000000000000000000000000000000000081526004016114df90613089565b60405180910390fd5b7f000000000000000000000000000000000000000000000000000000000000000073ffffffffffffffffffffffffffffffffffffffff16611527611a9c565b73ffffffffffffffffffffffffffffffffffffffff161461157d576040517f08c379a0000000000000000000000000000000000000000000000000000000008152600401611574906130a9565b60405180910390fd5b61158682611af3565b61159282826001611b9e565b5050565b60007f000000000000000000000000000000000000000000000000000000000000000073ffffffffffffffffffffffffffffffffffffffff163073ffffffffffffffffffffffffffffffffffffffff1614611626576040517f08c379a000000000000000000000000000000000000000000000000000000000815260040161161d906130c9565b60405180910390fd5b7f360894a13ba1a3210667c828492db98dca3e2076cc3735a920a3ca505d382bbc60001b905090565b611657611a94565b73ffffffffffffffffffffffffffffffffffffffff166116756116d7565b73ffffffffffffffffffffffffffffffffffffffff16146116cb576040517f08c379a00000000000000000000000000000000000000000000000000000000081526004016116c290613169565b60405180910390fd5b6116d56000611d1b565b565b6000603360009054906101000a900473ffffffffffffffffffffffffffffffffffffffff16905090565b600061170d6001611de1565b90508015611731576001600060016101000a81548160ff0219169083151502179055505b61175d7f73a9b97d7aad4d7fec3a90b8237947bc62a6a71c31149200b0feb09744fc250460001b61030c565b6117897f62df18ab8a8cd74045f3087c305c49fb5964b126eaa4ffd65974129536f40e7860001b61030c565b6117b57fbfab4770c4459bbc97abd6bd8269c520e4a7de9ddd5ffeb20ef72eff15d0258b60001b61030c565b6117bd611ed1565b6117e97fe29e13fda82f0fd2e8d04da3f7cc65e3ce15340a2d03d4607ee939146ad2266460001b61030c565b6118157f4f61f83d48dd070cfaf647b793b62864050c3a37af31dbde24b380f1ac67e9d060001b61030c565b8160c960006101000a81548173ffffffffffffffffffffffffffffffffffffffff021916908373ffffffffffffffffffffffffffffffffffffffff16021790555080156118af5760008060016101000a81548160ff0219169083151502179055507f7f26b83ff96e1f2b6a682f133852f6798a09c465da95921460cefb384740249860016040516118a69190612f80565b60405180910390a15b5050565b60c960009054906101000a900473ffffffffffffffffffffffffffffffffffffffff1681565b6118e1611a94565b73ffffffffffffffffffffffffffffffffffffffff166118ff6116d7565b73ffffffffffffffffffffffffffffffffffffffff1614611955576040517f08c379a000000000000000000000000000000000000000000000000000000000815260040161194c90613169565b60405180910390fd5b600073ffffffffffffffffffffffffffffffffffffffff168173ffffffffffffffffffffffffffffffffffffffff1614156119c5576040517f08c379a00000000000000000000000000000000000000000000000000000000081526004016119bc90613069565b60405180910390fd5b6119ce81611d1b565b50565b6119fd7ff15baed4749b67954e50cc1a215e36eb3968b9082830b51be587aefcbe6c18f960001b61030c565b611a297f0731a588f0df6d7ebf2f882b4bbdcd0276359f11dd89d8e864ff40fb50ba8a7160001b61030c565b611a557f5bce21e94dfff9698950d5163decdbd0dda7673d2735a0945ef94f2e032d1ba260001b61030c565b7fafb80c981a7eaaf1f395c91a7b176900b183b1f4caad2b39cb1e2e0af9e6a9a4338383604051611a8893929190612e98565b60405180910390a15050565b600033905090565b6000611aca7f360894a13ba1a3210667c828492db98dca3e2076cc3735a920a3ca505d382bbc60001b611f2a565b60000160009054906101000a900473ffffffffffffffffffffffffffffffffffffffff16905090565b611afb611a94565b73ffffffffffffffffffffffffffffffffffffffff16611b196116d7565b73ffffffffffffffffffffffffffffffffffffffff1614611b6f576040517f08c379a0000000000000000000000000000000000000000000000000000000008152600401611b6690613169565b60405180910390fd5b611b9b7f1f5fb93f1803d9290393a21998e1d5825f67d508b1e0c6a21527baca120c920f60001b61030c565b50565b611bca7f4910fdfa16fed3260ed0e7147f7cc6da11a60208b5b9406d12a635614ffd914360001b611f34565b60000160009054906101000a900460ff1615611bee57611be983611f3e565b611d16565b8273ffffffffffffffffffffffffffffffffffffffff166352d1902d6040518163ffffffff1660e01b815260040160206040518083038186803b158015611c3457600080fd5b505afa925050508015611c6557506040513d601f19601f82011682018060405250810190611c6291906126a3565b60015b611ca4576040517f08c379a0000000000000000000000000000000000000000000000000000000008152600401611c9b90613129565b60405180910390fd5b7f360894a13ba1a3210667c828492db98dca3e2076cc3735a920a3ca505d382bbc60001b8114611d09576040517f08c379a0000000000000000000000000000000000000000000000000000000008152600401611d00906130e9565b60405180910390fd5b50611d15838383611ff7565b5b505050565b6000603360009054906101000a900473ffffffffffffffffffffffffffffffffffffffff16905081603360006101000a81548173ffffffffffffffffffffffffffffffffffffffff021916908373ffffffffffffffffffffffffffffffffffffffff1602179055508173ffffffffffffffffffffffffffffffffffffffff168173ffffffffffffffffffffffffffffffffffffffff167f8be0079c531659141344cd1fd0a4f28419497f9722a3daafe3b4186f6b6457e060405160405180910390a35050565b60008060019054906101000a900460ff1615611e585760018260ff16148015611e105750611e0e30612023565b155b611e4f576040517f08c379a0000000000000000000000000000000000000000000000000000000008152600401611e4690613109565b60405180910390fd5b60009050611ecc565b8160ff1660008054906101000a900460ff1660ff1610611ead576040517f08c379a0000000000000000000000000000000000000000000000000000000008152600401611ea490613109565b60405180910390fd5b816000806101000a81548160ff021916908360ff160217905550600190505b919050565b600060019054906101000a900460ff16611f20576040517f08c379a0000000000000000000000000000000000000000000000000000000008152600401611f17906131a9565b60405180910390fd5b611f28612046565b565b6000819050919050565b6000819050919050565b611f4781612023565b611f86576040517f08c379a0000000000000000000000000000000000000000000000000000000008152600401611f7d90613149565b60405180910390fd5b80611fb37f360894a13ba1a3210667c828492db98dca3e2076cc3735a920a3ca505d382bbc60001b611f2a565b60000160006101000a81548173ffffffffffffffffffffffffffffffffffffffff021916908373ffffffffffffffffffffffffffffffffffffffff16021790555050565b612000836120a7565b60008251118061200d5750805b1561201e5761201c83836120f6565b505b505050565b6000808273ffffffffffffffffffffffffffffffffffffffff163b119050919050565b600060019054906101000a900460ff16612095576040517f08c379a000000000000000000000000000000000000000000000000000000000815260040161208c906131a9565b60405180910390fd5b6120a56120a0611a94565b611d1b565b565b6120b081611f3e565b8073ffffffffffffffffffffffffffffffffffffffff167fbc7cd75a20ee27fd9adebab32041f755214dbc6bffa90cc0225b39da2e5c2d3b60405160405180910390a250565b606061210183612023565b612140576040517f08c379a000000000000000000000000000000000000000000000000000000000815260040161213790613189565b60405180910390fd5b6000808473ffffffffffffffffffffffffffffffffffffffff16846040516121689190612e4d565b600060405180830381855af49150503d80600081146121a3576040519150601f19603f3d011682016040523d82523d6000602084013e6121a8565b606091505b50915091506121d08282604051806060016040528060278152602001613ad0602791396121da565b9250505092915050565b606083156121ea5782905061223a565b6000835111156121fd5782518084602001fd5b816040517f08c379a00000000000000000000000000000000000000000000000000000000081526004016122319190613017565b60405180910390fd5b9392505050565b6040518060c00160405280600073ffffffffffffffffffffffffffffffffffffffff16815260200160608152602001606081526020016060815260200160008152602001600081525090565b828054612299906135ea565b90600052602060002090601f0160209004810192826122bb5760008555612302565b82601f106122d457805160ff1916838001178555612302565b82800160010185558215612302579182015b828111156123015782518255916020019190600101906122e6565b5b50905061230f9190612313565b5090565b5b8082111561232c576000816000905550600101612314565b5090565b600061234361233e846132a7565b613282565b90508281526020810184848401111561235b57600080fd5b6123668482856135a8565b509392505050565b600061238161237c846132d8565b613282565b90508281526020810184848401111561239957600080fd5b6123a48482856135a8565b509392505050565b6000813590506123bb81613a73565b92915050565b60008083601f8401126123d357600080fd5b8235905067ffffffffffffffff8111156123ec57600080fd5b60208301915083602082028301111561240457600080fd5b9250929050565b60008135905061241a81613a8a565b92915050565b60008151905061242f81613aa1565b92915050565b600082601f83011261244657600080fd5b8135612456848260208601612330565b91505092915050565b60008083601f84011261247157600080fd5b8235905067ffffffffffffffff81111561248a57600080fd5b6020830191508360018202830111156124a257600080fd5b9250929050565b600082601f8301126124ba57600080fd5b81356124ca84826020860161236e565b91505092915050565b600060c082840312156124e557600080fd5b6124ef60c0613282565b905060006124ff848285016123ac565b600083015250602082013567ffffffffffffffff81111561251f57600080fd5b61252b848285016124a9565b602083015250604082013567ffffffffffffffff81111561254b57600080fd5b612557848285016124a9565b604083015250606082013567ffffffffffffffff81111561257757600080fd5b612583848285016124a9565b6060830152506080612597848285016125b7565b60808301525060a06125ab848285016125b7565b60a08301525092915050565b6000813590506125c681613ab8565b92915050565b6000815190506125db81613ab8565b92915050565b6000602082840312156125f357600080fd5b6000612601848285016123ac565b91505092915050565b6000806040838503121561261d57600080fd5b600061262b858286016123ac565b925050602083013567ffffffffffffffff81111561264857600080fd5b61265485828601612435565b9150509250929050565b6000806020838503121561267157600080fd5b600083013567ffffffffffffffff81111561268b57600080fd5b612697858286016123c1565b92509250509250929050565b6000602082840312156126b557600080fd5b60006126c384828501612420565b91505092915050565b600080602083850312156126df57600080fd5b600083013567ffffffffffffffff8111156126f957600080fd5b6127058582860161245f565b92509250509250929050565b60008060008060006060868803121561272957600080fd5b600086013567ffffffffffffffff81111561274357600080fd5b61274f8882890161245f565b9550955050602086013567ffffffffffffffff81111561276e57600080fd5b61277a8882890161245f565b9350935050604061278d8882890161240b565b9150509295509295909350565b60008060008060008060006080888a0312156127b557600080fd5b600088013567ffffffffffffffff8111156127cf57600080fd5b6127db8a828b0161245f565b9750975050602088013567ffffffffffffffff8111156127fa57600080fd5b6128068a828b0161245f565b9550955050604088013567ffffffffffffffff81111561282557600080fd5b6128318a828b0161245f565b935093505060606128448a828b016125b7565b91505092959891949750929550565b60006020828403121561286557600080fd5b600082013567ffffffffffffffff81111561287f57600080fd5b61288b848285016124a9565b91505092915050565b6000602082840312156128a657600080fd5b60006128b4848285016125cc565b91505092915050565b60006128c98383612ccb565b905092915050565b60006128dd8383612d98565b905092915050565b6128ee81613500565b82525050565b6128fd81613500565b82525050565b600061290f838561335e565b93508360208402850161292184613309565b8060005b8781101561296557848403895261293c8284613415565b61294685826128bd565b945061295183613344565b925060208a01995050600181019050612925565b50829750879450505050509392505050565b600061298282613323565b61298c818561335e565b93508360208202850161299e85613313565b8060005b858110156129da57848403895281516129bb85826128d1565b94506129c683613351565b925060208a019950506001810190506129a2565b50829750879550505050505092915050565b6129f581613512565b82525050565b612a048161351e565b82525050565b6000612a158261332e565b612a1f818561336f565b9350612a2f8185602086016135b7565b80840191505092915050565b612a448161355f565b82525050565b612a5381613583565b82525050565b6000612a65838561337a565b9350612a728385846135a8565b612a7b83613723565b840190509392505050565b6000612a92838561338b565b9350612a9f8385846135a8565b612aa883613723565b840190509392505050565b6000612abf838561339c565b9350612acc8385846135a8565b82840190509392505050565b6000612ae382613339565b612aed818561337a565b9350612afd8185602086016135b7565b612b0681613723565b840191505092915050565b6000612b1c82613339565b612b26818561338b565b9350612b368185602086016135b7565b612b3f81613723565b840191505092915050565b6000612b5760268361338b565b9150612b6282613734565b604082019050919050565b6000612b7a602c8361338b565b9150612b8582613783565b604082019050919050565b6000612b9d602c8361338b565b9150612ba8826137d2565b604082019050919050565b6000612bc060388361338b565b9150612bcb82613821565b604082019050919050565b6000612be360298361338b565b9150612bee82613870565b604082019050919050565b6000612c06602e8361338b565b9150612c11826138bf565b604082019050919050565b6000612c29602e8361338b565b9150612c348261390e565b604082019050919050565b6000612c4c602d8361338b565b9150612c578261395d565b604082019050919050565b6000612c6f60208361338b565b9150612c7a826139ac565b602082019050919050565b6000612c9260268361338b565b9150612c9d826139d5565b604082019050919050565b6000612cb5602b8361338b565b9150612cc082613a24565b604082019050919050565b600060c08301612cde60008401846133a7565b612ceb60008601826128e5565b50612cf960208401846133be565b8583036020870152612d0c838284612a59565b92505050612d1d60408401846133be565b8583036040870152612d30838284612a59565b92505050612d4160608401846133be565b8583036060870152612d54838284612a59565b92505050612d656080840184613439565b612d726080860182612e2f565b50612d8060a0840184613439565b612d8d60a0860182612e2f565b508091505092915050565b600060c083016000830151612db060008601826128e5565b5060208301518482036020860152612dc88282612ad8565b91505060408301518482036040860152612de28282612ad8565b91505060608301518482036060860152612dfc8282612ad8565b9150506080830151612e116080860182612e2f565b5060a0830151612e2460a0860182612e2f565b508091505092915050565b612e3881613548565b82525050565b612e4781613548565b82525050565b6000612e598284612a0a565b915081905092915050565b6000612e71828486612ab3565b91508190509392505050565b6000602082019050612e9260008301846128f4565b92915050565b6000604082019050612ead60008301866128f4565b8181036020830152612ec0818486612a86565b9050949350505050565b6000606082019050612edf60008301876128f4565b612eec6020830186612e3e565b8181036040830152612eff818486612a86565b905095945050505050565b60006060820190508181036000830152612f25818688612903565b9050612f3460208301856129ec565b612f416040830184612e3e565b95945050505050565b6000602082019050612f5f60008301846129fb565b92915050565b6000602082019050612f7a6000830184612a3b565b92915050565b6000602082019050612f956000830184612a4a565b92915050565b600060c0820190508181036000830152612fb6818b8d612a86565b90508181036020830152612fcb81898b612a86565b9050612fda6040830188612e3e565b8181036060830152612fed818688612a86565b9050612ffc6080830185612e3e565b61300960a0830184612e3e565b9a9950505050505050505050565b600060208201905081810360008301526130318184612b11565b905092915050565b600060408201905081810360008301526130538185612b11565b905061306260208301846129ec565b9392505050565b6000602082019050818103600083015261308281612b4a565b9050919050565b600060208201905081810360008301526130a281612b6d565b9050919050565b600060208201905081810360008301526130c281612b90565b9050919050565b600060208201905081810360008301526130e281612bb3565b9050919050565b6000602082019050818103600083015261310281612bd6565b9050919050565b6000602082019050818103600083015261312281612bf9565b9050919050565b6000602082019050818103600083015261314281612c1c565b9050919050565b6000602082019050818103600083015261316281612c3f565b9050919050565b6000602082019050818103600083015261318281612c62565b9050919050565b600060208201905081810360008301526131a281612c85565b9050919050565b600060208201905081810360008301526131c281612ca8565b9050919050565b60006060820190506131de6000830186612e3e565b81810360208301526131f08185612977565b90506131ff6040830184612e3e565b949350505050565b6000808335600160200384360303811261322057600080fd5b80840192508235915067ffffffffffffffff82111561323e57600080fd5b60208301925060018202360383131561325657600080fd5b509250929050565b60008235600160c00383360303811261327657600080fd5b80830191505092915050565b600061328c61329d565b9050613298828261361c565b919050565b6000604051905090565b600067ffffffffffffffff8211156132c2576132c16136f4565b5b6132cb82613723565b9050602081019050919050565b600067ffffffffffffffff8211156132f3576132f26136f4565b5b6132fc82613723565b9050602081019050919050565b6000819050919050565b6000819050602082019050919050565b600081519050919050565b600081519050919050565b600081519050919050565b6000602082019050919050565b6000602082019050919050565b600082825260208201905092915050565b600081905092915050565b600082825260208201905092915050565b600082825260208201905092915050565b600081905092915050565b60006133b660208401846123ac565b905092915050565b600080833560016020038436030381126133d757600080fd5b83810192508235915060208301925067ffffffffffffffff8211156133fb57600080fd5b60018202360384131561340d57600080fd5b509250929050565b60008235600160c00383360303811261342d57600080fd5b82810191505092915050565b600061344860208401846125b7565b905092915050565b600061345b82613548565b915061346683613548565b9250827fffffffffffffffffffffffffffffffffffffffffffffffffffffffffffffffff0382111561349b5761349a613696565b5b828201905092915050565b60006134b182613548565b91506134bc83613548565b9250817fffffffffffffffffffffffffffffffffffffffffffffffffffffffffffffffff04831182151516156134f5576134f4613696565b5b828202905092915050565b600061350b82613528565b9050919050565b60008115159050919050565b6000819050919050565b600073ffffffffffffffffffffffffffffffffffffffff82169050919050565b6000819050919050565b600060ff82169050919050565b600061356a82613571565b9050919050565b600061357c82613528565b9050919050565b600061358e82613552565b9050919050565b60006135a136836124d3565b9050919050565b82818337600083830152505050565b60005b838110156135d55780820151818401526020810190506135ba565b838111156135e4576000848401525b50505050565b6000600282049050600182168061360257607f821691505b60208210811415613616576136156136c5565b5b50919050565b61362582613723565b810181811067ffffffffffffffff82111715613644576136436136f4565b5b80604052505050565b600061365882613548565b91507fffffffffffffffffffffffffffffffffffffffffffffffffffffffffffffffff82141561368b5761368a613696565b5b600182019050919050565b7f4e487b7100000000000000000000000000000000000000000000000000000000600052601160045260246000fd5b7f4e487b7100000000000000000000000000000000000000000000000000000000600052602260045260246000fd5b7f4e487b7100000000000000000000000000000000000000000000000000000000600052604160045260246000fd5b6000601f19601f8301169050919050565b7f4f776e61626c653a206e6577206f776e657220697320746865207a65726f206160008201527f6464726573730000000000000000000000000000000000000000000000000000602082015250565b7f46756e6374696f6e206d7573742062652063616c6c6564207468726f7567682060008201527f64656c656761746563616c6c0000000000000000000000000000000000000000602082015250565b7f46756e6374696f6e206d7573742062652063616c6c6564207468726f7567682060008201527f6163746976652070726f78790000000000000000000000000000000000000000602082015250565b7f555550535570677261646561626c653a206d757374206e6f742062652063616c60008201527f6c6564207468726f7567682064656c656761746563616c6c0000000000000000602082015250565b7f45524331393637557067726164653a20756e737570706f727465642070726f7860008201527f6961626c65555549440000000000000000000000000000000000000000000000602082015250565b7f496e697469616c697a61626c653a20636f6e747261637420697320616c72656160008201527f647920696e697469616c697a6564000000000000000000000000000000000000602082015250565b7f45524331393637557067726164653a206e657720696d706c656d656e7461746960008201527f6f6e206973206e6f742055555053000000000000000000000000000000000000602082015250565b7f455243313936373a206e657720696d706c656d656e746174696f6e206973206e60008201527f6f74206120636f6e747261637400000000000000000000000000000000000000602082015250565b7f4f776e61626c653a2063616c6c6572206973206e6f7420746865206f776e6572600082015250565b7f416464726573733a2064656c65676174652063616c6c20746f206e6f6e2d636f60008201527f6e74726163740000000000000000000000000000000000000000000000000000602082015250565b7f496e697469616c697a61626c653a20636f6e7472616374206973206e6f74206960008201527f6e697469616c697a696e67000000000000000000000000000000000000000000602082015250565b613a7c81613500565b8114613a8757600080fd5b50565b613a9381613512565b8114613a9e57600080fd5b50565b613aaa8161351e565b8114613ab557600080fd5b50565b613ac181613548565b8114613acc57600080fd5b5056fe416464726573733a206c6f772d6c6576656c2064656c65676174652063616c6c206661696c6564a26469706673582212202b409377d8d3335fdeccd8313e3260e4da6de7bf8f7dc5b1fbacfd0697f85b2a64736f6c63430008040033",
  "linkReferences": {},
  "deployedLinkReferences": {}
}