{
  "_format": "hh-sol-artifact-1",
  "contractName": "Bridger",
  "sourceName": "contracts/bridge/Bridger.sol",
  "abi": [
    {
      "anonymous": false,
      "inputs": [
        {
          "indexed": false,
          "internalType": "address",
          "name": "previousAdmin",
          "type": "address"
        },
        {
          "indexed": false,
          "internalType": "address",
          "name": "newAdmin",
          "type": "address"
        }
      ],
      "name": "AdminChanged",
      "type": "event"
    },
    {
      "anonymous": false,
      "inputs": [
        {
          "indexed": true,
          "internalType": "address",
          "name": "beacon",
          "type": "address"
        }
      ],
      "name": "BeaconUpgraded",
      "type": "event"
    },
    {
      "anonymous": false,
      "inputs": [
        {
          "indexed": false,
          "internalType": "uint8",
          "name": "version",
          "type": "uint8"
        }
      ],
      "name": "Initialized",
      "type": "event"
    },
    {
      "anonymous": false,
      "inputs": [
        {
          "indexed": true,
          "internalType": "address",
          "name": "previousOwner",
          "type": "address"
        },
        {
          "indexed": true,
          "internalType": "address",
          "name": "newOwner",
          "type": "address"
        }
      ],
      "name": "OwnershipTransferred",
      "type": "event"
    },
    {
      "anonymous": false,
      "inputs": [
        {
          "indexed": true,
          "internalType": "address",
          "name": "implementation",
          "type": "address"
        }
      ],
      "name": "Upgraded",
      "type": "event"
    },
    {
      "anonymous": false,
      "inputs": [
        {
          "indexed": false,
          "internalType": "uint16",
          "name": "_chainId",
          "type": "uint16"
        },
        {
          "indexed": false,
          "internalType": "bytes",
          "name": "_srcAddress",
          "type": "bytes"
        },
        {
          "indexed": false,
          "internalType": "address",
          "name": "_token",
          "type": "address"
        },
        {
          "indexed": false,
          "internalType": "uint256",
          "name": "amountLD",
          "type": "uint256"
        }
      ],
      "name": "sgReceived",
      "type": "event"
    },
    {
      "inputs": [],
      "name": "TYPE_SWAP_REMOTE",
      "outputs": [
        {
          "internalType": "uint8",
          "name": "",
          "type": "uint8"
        }
      ],
      "stateMutability": "view",
      "type": "function"
    },
    {
      "inputs": [
        {
          "internalType": "address",
          "name": "_router",
          "type": "address"
        }
      ],
      "name": "_changeStargateRouter",
      "outputs": [],
      "stateMutability": "nonpayable",
      "type": "function"
    },
    {
      "inputs": [
        {
          "internalType": "address",
          "name": "_address",
          "type": "address"
        },
        {
          "internalType": "uint256",
          "name": "_pid",
          "type": "uint256"
        }
      ],
      "name": "addAsset",
      "outputs": [],
      "stateMutability": "nonpayable",
      "type": "function"
    },
    {
      "inputs": [],
      "name": "getPrice",
      "outputs": [
        {
          "internalType": "uint256",
          "name": "",
          "type": "uint256"
        }
      ],
      "stateMutability": "view",
      "type": "function"
    },
    {
      "inputs": [
        {
          "internalType": "uint256",
          "name": "size",
          "type": "uint256"
        }
      ],
      "name": "getStorageCost",
      "outputs": [
        {
          "internalType": "uint256",
          "name": "",
          "type": "uint256"
        }
      ],
      "stateMutability": "view",
      "type": "function"
    },
    {
      "inputs": [
        {
          "internalType": "uint16",
          "name": "_dstChainId",
          "type": "uint16"
        }
      ],
      "name": "getSwapFee",
      "outputs": [
        {
          "internalType": "uint256",
          "name": "",
          "type": "uint256"
        }
      ],
      "stateMutability": "view",
      "type": "function"
    },
    {
      "inputs": [
        {
          "internalType": "address",
          "name": "_stargateRouter",
          "type": "address"
        },
        {
          "internalType": "address[]",
          "name": "tokens",
          "type": "address[]"
        },
        {
          "internalType": "uint256[]",
          "name": "ids",
          "type": "uint256[]"
        }
      ],
      "name": "initialize",
      "outputs": [],
      "stateMutability": "nonpayable",
      "type": "function"
    },
    {
      "inputs": [],
      "name": "owner",
      "outputs": [
        {
          "internalType": "address",
          "name": "",
          "type": "address"
        }
      ],
      "stateMutability": "view",
      "type": "function"
    },
    {
      "inputs": [
        {
          "internalType": "address",
          "name": "",
          "type": "address"
        }
      ],
      "name": "pids",
      "outputs": [
        {
          "internalType": "uint256",
          "name": "",
          "type": "uint256"
        }
      ],
      "stateMutability": "view",
      "type": "function"
    },
    {
      "inputs": [],
      "name": "proxiableUUID",
      "outputs": [
        {
          "internalType": "bytes32",
          "name": "",
          "type": "bytes32"
        }
      ],
      "stateMutability": "view",
      "type": "function"
    },
    {
      "inputs": [],
      "name": "renounceOwnership",
      "outputs": [],
      "stateMutability": "nonpayable",
      "type": "function"
    },
    {
      "inputs": [
        {
          "internalType": "uint16",
          "name": "_chainId",
          "type": "uint16"
        },
        {
          "internalType": "bytes",
          "name": "_srcAddress",
          "type": "bytes"
        },
        {
          "internalType": "uint256",
          "name": "_nonce",
          "type": "uint256"
        },
        {
          "internalType": "address",
          "name": "_token",
          "type": "address"
        },
        {
          "internalType": "uint256",
          "name": "amountLD",
          "type": "uint256"
        },
        {
          "internalType": "bytes",
          "name": "_payload",
          "type": "bytes"
        }
      ],
      "name": "sgReceive",
      "outputs": [],
      "stateMutability": "nonpayable",
      "type": "function"
    },
    {
      "inputs": [],
      "name": "stargateRouter",
      "outputs": [
        {
          "internalType": "address",
          "name": "",
          "type": "address"
        }
      ],
      "stateMutability": "view",
      "type": "function"
    },
    {
      "inputs": [
        {
          "internalType": "uint16",
          "name": "chainId",
          "type": "uint16"
        },
        {
          "internalType": "address",
          "name": "_asset",
          "type": "address"
        },
        {
          "internalType": "uint256",
          "name": "_amount",
          "type": "uint256"
        },
        {
          "internalType": "address",
          "name": "_destinationComposer",
          "type": "address"
        }
      ],
      "name": "swap",
      "outputs": [
        {
          "internalType": "bool",
          "name": "",
          "type": "bool"
        }
      ],
      "stateMutability": "payable",
      "type": "function"
    },
    {
      "inputs": [
        {
          "internalType": "address",
          "name": "_asset",
          "type": "address"
        }
      ],
      "name": "sweep",
      "outputs": [],
      "stateMutability": "nonpayable",
      "type": "function"
    },
    {
      "inputs": [
        {
          "internalType": "address",
          "name": "newOwner",
          "type": "address"
        }
      ],
      "name": "transferOwnership",
      "outputs": [],
      "stateMutability": "nonpayable",
      "type": "function"
    },
    {
      "inputs": [
        {
          "internalType": "address",
          "name": "newImplementation",
          "type": "address"
        }
      ],
      "name": "upgradeTo",
      "outputs": [],
      "stateMutability": "nonpayable",
      "type": "function"
    },
    {
      "inputs": [
        {
          "internalType": "address",
          "name": "newImplementation",
          "type": "address"
        },
        {
          "internalType": "bytes",
          "name": "data",
          "type": "bytes"
        }
      ],
      "name": "upgradeToAndCall",
      "outputs": [],
      "stateMutability": "payable",
      "type": "function"
    },
    {
      "stateMutability": "payable",
      "type": "receive"
    }
  ],
  "bytecode": "0x60a06040523073ffffffffffffffffffffffffffffffffffffffff1660809073ffffffffffffffffffffffffffffffffffffffff1660601b81525034801561004657600080fd5b5060805160601c613963610081600039600081816105c501528181610654015281816108840152818161091301526109c301526139636000f3fe60806040526004361061010d5760003560e01c80638da5cb5b11610095578063af960e2c11610064578063af960e2c1461032d578063df01df6f1461036a578063edd36beb146103a7578063f2fde38b146103d7578063ff1d57521461040057610114565b80638da5cb5b1461028357806398d5fdca146102ae578063a9e56f3c146102d9578063ab8236f31461030457610114565b80634f1ef286116100dc5780634f1ef286146101d357806352d1902d146101ef57806366a6a4bd1461021a578063715018a6146102435780637a237c5c1461025a57610114565b806301681a6214610119578063081a5400146101425780633659cfe61461016d5780634ce639d21461019657610114565b3661011457005b600080fd5b34801561012557600080fd5b50610140600480360381019061013b9190612353565b610429565b005b34801561014e57600080fd5b506101576105be565b6040516101649190613004565b60405180910390f35b34801561017957600080fd5b50610194600480360381019061018f9190612353565b6105c3565b005b3480156101a257600080fd5b506101bd60048036038101906101b8919061264b565b610772565b6040516101ca9190612fe9565b60405180910390f35b6101ed60048036038101906101e89190612424565b610882565b005b3480156101fb57600080fd5b506102046109bf565b6040516102119190612c3b565b60405180910390f35b34801561022657600080fd5b50610241600480360381019061023c9190612478565b610a78565b005b34801561024f57600080fd5b50610258610b3c565b005b34801561026657600080fd5b50610281600480360381019061027c9190612353565b610bc4565b005b34801561028f57600080fd5b50610298610cf4565b6040516102a59190612b7c565b60405180910390f35b3480156102ba57600080fd5b506102c3610d1e565b6040516102d09190612fe9565b60405180910390f35b3480156102e557600080fd5b506102ee610dce565b6040516102fb9190612b7c565b60405180910390f35b34801561031057600080fd5b5061032b60048036038101906103269190612592565b610df4565b005b34801561033957600080fd5b50610354600480360381019061034f9190612506565b610f70565b6040516103619190612fe9565b60405180910390f35b34801561037657600080fd5b50610391600480360381019061038c9190612353565b6110c3565b60405161039e9190612fe9565b60405180910390f35b6103c160048036038101906103bc919061252f565b6110db565b6040516103ce9190612c20565b60405180910390f35b3480156103e357600080fd5b506103fe60048036038101906103f99190612353565b61159d565b005b34801561040c57600080fd5b50610427600480360381019061042291906123a5565b611695565b005b6104316118d3565b73ffffffffffffffffffffffffffffffffffffffff1661044f610cf4565b73ffffffffffffffffffffffffffffffffffffffff16146104a5576040517f08c379a000000000000000000000000000000000000000000000000000000000815260040161049c90612e33565b60405180910390fd5b8073ffffffffffffffffffffffffffffffffffffffff1663a9059cbb338373ffffffffffffffffffffffffffffffffffffffff166370a08231306040518263ffffffff1660e01b81526004016104fb9190612b7c565b60206040518083038186803b15801561051357600080fd5b505afa158015610527573d6000803e3d6000fd5b505050506040513d601f19601f8201168201806040525081019061054b9190612674565b6040518363ffffffff1660e01b8152600401610568929190612bf7565b602060405180830381600087803b15801561058257600080fd5b505af1158015610596573d6000803e3d6000fd5b505050506040513d601f19601f820116820180604052508101906105ba91906124b4565b5050565b600181565b7f000000000000000000000000000000000000000000000000000000000000000073ffffffffffffffffffffffffffffffffffffffff163073ffffffffffffffffffffffffffffffffffffffff161415610652576040517f08c379a000000000000000000000000000000000000000000000000000000000815260040161064990612cd3565b60405180910390fd5b7f000000000000000000000000000000000000000000000000000000000000000073ffffffffffffffffffffffffffffffffffffffff166106916118db565b73ffffffffffffffffffffffffffffffffffffffff16146106e7576040517f08c379a00000000000000000000000000000000000000000000000000000000081526004016106de90612d33565b60405180910390fd5b6106f081611932565b61076f81600067ffffffffffffffff811115610735577f4e487b7100000000000000000000000000000000000000000000000000000000600052604160045260246000fd5b6040519080825280601f01601f1916602001820160405280156107675781602001600182028036833780820191505090505b5060006119b1565b50565b60008060c960009054906101000a900473ffffffffffffffffffffffffffffffffffffffff1673ffffffffffffffffffffffffffffffffffffffff1663feaf968c6040518163ffffffff1660e01b815260040160a06040518083038186803b1580156107dd57600080fd5b505afa1580156107f1573d6000803e3d6000fd5b505050506040513d601f19601f8201168201806040525081019061081591906126d9565b5050509150506000630ccccccd905061087961083a8383611b2e90919063ffffffff16565b61086b6305f5e10061085d670de0b6b3a764000089611b2e90919063ffffffff16565b611b2e90919063ffffffff16565b611b4490919063ffffffff16565b92505050919050565b7f000000000000000000000000000000000000000000000000000000000000000073ffffffffffffffffffffffffffffffffffffffff163073ffffffffffffffffffffffffffffffffffffffff161415610911576040517f08c379a000000000000000000000000000000000000000000000000000000000815260040161090890612cd3565b60405180910390fd5b7f000000000000000000000000000000000000000000000000000000000000000073ffffffffffffffffffffffffffffffffffffffff166109506118db565b73ffffffffffffffffffffffffffffffffffffffff16146109a6576040517f08c379a000000000000000000000000000000000000000000000000000000000815260040161099d90612d33565b60405180910390fd5b6109af82611932565b6109bb828260016119b1565b5050565b60007f000000000000000000000000000000000000000000000000000000000000000073ffffffffffffffffffffffffffffffffffffffff163073ffffffffffffffffffffffffffffffffffffffff1614610a4f576040517f08c379a0000000000000000000000000000000000000000000000000000000008152600401610a4690612d53565b60405180910390fd5b7f360894a13ba1a3210667c828492db98dca3e2076cc3735a920a3ca505d382bbc60001b905090565b610a806118d3565b73ffffffffffffffffffffffffffffffffffffffff16610a9e610cf4565b73ffffffffffffffffffffffffffffffffffffffff1614610af4576040517f08c379a0000000000000000000000000000000000000000000000000000000008152600401610aeb90612e33565b60405180910390fd5b8060ca60008473ffffffffffffffffffffffffffffffffffffffff1673ffffffffffffffffffffffffffffffffffffffff168152602001908152602001600020819055505050565b610b446118d3565b73ffffffffffffffffffffffffffffffffffffffff16610b62610cf4565b73ffffffffffffffffffffffffffffffffffffffff1614610bb8576040517f08c379a0000000000000000000000000000000000000000000000000000000008152600401610baf90612e33565b60405180910390fd5b610bc26000611b5a565b565b610bcc6118d3565b73ffffffffffffffffffffffffffffffffffffffff16610bea610cf4565b73ffffffffffffffffffffffffffffffffffffffff1614610c40576040517f08c379a0000000000000000000000000000000000000000000000000000000008152600401610c3790612e33565b60405180910390fd5b600073ffffffffffffffffffffffffffffffffffffffff168173ffffffffffffffffffffffffffffffffffffffff161415610cb0576040517f08c379a0000000000000000000000000000000000000000000000000000000008152600401610ca790612d93565b60405180910390fd5b8060cb60006101000a81548173ffffffffffffffffffffffffffffffffffffffff021916908373ffffffffffffffffffffffffffffffffffffffff16021790555050565b6000603360009054906101000a900473ffffffffffffffffffffffffffffffffffffffff16905090565b60008060c960009054906101000a900473ffffffffffffffffffffffffffffffffffffffff1673ffffffffffffffffffffffffffffffffffffffff1663feaf968c6040518163ffffffff1660e01b815260040160a06040518083038186803b158015610d8957600080fd5b505afa158015610d9d573d6000803e3d6000fd5b505050506040513d601f19601f82011682018060405250810190610dc191906126d9565b5050509150508091505090565b60cb60009054906101000a900473ffffffffffffffffffffffffffffffffffffffff1681565b60cb60009054906101000a900473ffffffffffffffffffffffffffffffffffffffff1673ffffffffffffffffffffffffffffffffffffffff163373ffffffffffffffffffffffffffffffffffffffff1614610e84576040517f08c379a0000000000000000000000000000000000000000000000000000000008152600401610e7b90612cb3565b60405180910390fd5b600081806020019051810190610e9a919061237c565b90508373ffffffffffffffffffffffffffffffffffffffff1663a9059cbb82856040518363ffffffff1660e01b8152600401610ed7929190612bf7565b602060405180830381600087803b158015610ef157600080fd5b505af1158015610f05573d6000803e3d6000fd5b505050506040513d601f19601f82011682018060405250810190610f2991906124b4565b507ff384e0e88816a3074d0d64562559cbd89504e99f3496997dd6dbe50f7cf8c0a187878686604051610f5f9493929190612e93565b60405180910390a150505050505050565b600080610f7b6118d3565b604051602001610f8b9190612b4a565b6040516020818303038152906040529050600060cb60009054906101000a900473ffffffffffffffffffffffffffffffffffffffff1673ffffffffffffffffffffffffffffffffffffffff16630a51236985600185604051602001604051602081830303815290604052604051806060016040528060008152602001600081526020016040518060400160405280600281526020017f30780000000000000000000000000000000000000000000000000000000000008152508152506040518663ffffffff1660e01b8152600401611067959493929190612f81565b604080518083038186803b15801561107e57600080fd5b505afa158015611092573d6000803e3d6000fd5b505050506040513d601f19601f820116820180604052508101906110b6919061269d565b5090508092505050919050565b60ca6020528060005260406000206000915090505481565b60006110e56118d3565b73ffffffffffffffffffffffffffffffffffffffff16611103610cf4565b73ffffffffffffffffffffffffffffffffffffffff1614611159576040517f08c379a000000000000000000000000000000000000000000000000000000000815260040161115090612e33565b60405180910390fd5b828473ffffffffffffffffffffffffffffffffffffffff1663dd62ed3e61117e6118d3565b306040518363ffffffff1660e01b815260040161119c929190612b97565b60206040518083038186803b1580156111b457600080fd5b505afa1580156111c8573d6000803e3d6000fd5b505050506040513d601f19601f820116820180604052508101906111ec9190612674565b101561122d576040517f08c379a000000000000000000000000000000000000000000000000000000000815260040161122490612cf3565b60405180910390fd5b600060ca60008673ffffffffffffffffffffffffffffffffffffffff1673ffffffffffffffffffffffffffffffffffffffff16815260200190815260200160002054905060008114156112b5576040517f08c379a00000000000000000000000000000000000000000000000000000000081526004016112ac90612d13565b60405180910390fd5b600084905060006112c586611c20565b905060006112d16118d3565b6040516020016112e19190612b7c565b6040516020818303038152906040529050600060405160200160405160208183030381529060405290506113148a610f70565b341015611356576040517f08c379a000000000000000000000000000000000000000000000000000000000815260040161134d90612df3565b60405180910390fd5b8873ffffffffffffffffffffffffffffffffffffffff166323b872dd61137a6118d3565b308b6040518463ffffffff1660e01b815260040161139a93929190612bc0565b602060405180830381600087803b1580156113b457600080fd5b505af11580156113c8573d6000803e3d6000fd5b505050506040513d601f19601f820116820180604052508101906113ec91906124b4565b508873ffffffffffffffffffffffffffffffffffffffff1663095ea7b360cb60009054906101000a900473ffffffffffffffffffffffffffffffffffffffff16866040518363ffffffff1660e01b815260040161144a929190612bf7565b602060405180830381600087803b15801561146457600080fd5b505af1158015611478573d6000803e3d6000fd5b505050506040513d601f19601f8201168201806040525081019061149c91906124b4565b5060cb60009054906101000a900473ffffffffffffffffffffffffffffffffffffffff1673ffffffffffffffffffffffffffffffffffffffff16639fbf10fc348c8889328a8a604051806060016040528060008152602001600081526020016040518060400160405280600281526020017f30780000000000000000000000000000000000000000000000000000000000008152508152508b8b6040518b63ffffffff1660e01b815260040161155a99989796959493929190612edf565b6000604051808303818588803b15801561157357600080fd5b505af1158015611587573d6000803e3d6000fd5b5050505050600195505050505050949350505050565b6115a56118d3565b73ffffffffffffffffffffffffffffffffffffffff166115c3610cf4565b73ffffffffffffffffffffffffffffffffffffffff1614611619576040517f08c379a000000000000000000000000000000000000000000000000000000000815260040161161090612e33565b60405180910390fd5b600073ffffffffffffffffffffffffffffffffffffffff168173ffffffffffffffffffffffffffffffffffffffff161415611689576040517f08c379a000000000000000000000000000000000000000000000000000000000815260040161168090612c93565b60405180910390fd5b61169281611b5a565b50565b60006116a16001611c51565b905080156116c5576001600060016101000a81548160ff0219169083151502179055505b815183511480156116d857506000825114155b6116e157600080fd5b6116e9611d41565b6116f1611d9a565b6107d060cc819055508360cb60006101000a81548173ffffffffffffffffffffffffffffffffffffffff021916908373ffffffffffffffffffffffffffffffffffffffff160217905550738a753747a1fa494ec906ce90e9f37563a8af630e60c960006101000a81548173ffffffffffffffffffffffffffffffffffffffff021916908373ffffffffffffffffffffffffffffffffffffffff16021790555060005b8251811015611873578281815181106117d5577f4e487b7100000000000000000000000000000000000000000000000000000000600052603260045260246000fd5b602002602001015160ca600086848151811061181a577f4e487b7100000000000000000000000000000000000000000000000000000000600052603260045260246000fd5b602002602001015173ffffffffffffffffffffffffffffffffffffffff1673ffffffffffffffffffffffffffffffffffffffff16815260200190815260200160002081905550808061186b90613304565b915050611793565b5080156118cd5760008060016101000a81548160ff0219169083151502179055507f7f26b83ff96e1f2b6a682f133852f6798a09c465da95921460cefb384740249860016040516118c49190612c56565b60405180910390a15b50505050565b600033905090565b60006119097f360894a13ba1a3210667c828492db98dca3e2076cc3735a920a3ca505d382bbc60001b611deb565b60000160009054906101000a900473ffffffffffffffffffffffffffffffffffffffff16905090565b61193a6118d3565b73ffffffffffffffffffffffffffffffffffffffff16611958610cf4565b73ffffffffffffffffffffffffffffffffffffffff16146119ae576040517f08c379a00000000000000000000000000000000000000000000000000000000081526004016119a590612e33565b60405180910390fd5b50565b6119dd7f4910fdfa16fed3260ed0e7147f7cc6da11a60208b5b9406d12a635614ffd914360001b611df5565b60000160009054906101000a900460ff1615611a01576119fc83611dff565b611b29565b8273ffffffffffffffffffffffffffffffffffffffff166352d1902d6040518163ffffffff1660e01b815260040160206040518083038186803b158015611a4757600080fd5b505afa925050508015611a7857506040513d601f19601f82011682018060405250810190611a7591906124dd565b60015b611ab7576040517f08c379a0000000000000000000000000000000000000000000000000000000008152600401611aae90612dd3565b60405180910390fd5b7f360894a13ba1a3210667c828492db98dca3e2076cc3735a920a3ca505d382bbc60001b8114611b1c576040517f08c379a0000000000000000000000000000000000000000000000000000000008152600401611b1390612d73565b60405180910390fd5b50611b28838383611eb8565b5b505050565b60008183611b3c9190613152565b905092915050565b60008183611b529190613121565b905092915050565b6000603360009054906101000a900473ffffffffffffffffffffffffffffffffffffffff16905081603360006101000a81548173ffffffffffffffffffffffffffffffffffffffff021916908373ffffffffffffffffffffffffffffffffffffffff1602179055508173ffffffffffffffffffffffffffffffffffffffff168173ffffffffffffffffffffffffffffffffffffffff167f8be0079c531659141344cd1fd0a4f28419497f9722a3daafe3b4186f6b6457e060405160405180910390a35050565b600061271060cc54612710611c3591906131ac565b83611c409190613152565b611c4a9190613121565b9050919050565b60008060019054906101000a900460ff1615611cc85760018260ff16148015611c805750611c7e30611ee4565b155b611cbf576040517f08c379a0000000000000000000000000000000000000000000000000000000008152600401611cb690612db3565b60405180910390fd5b60009050611d3c565b8160ff1660008054906101000a900460ff1660ff1610611d1d576040517f08c379a0000000000000000000000000000000000000000000000000000000008152600401611d1490612db3565b60405180910390fd5b816000806101000a81548160ff021916908360ff160217905550600190505b919050565b600060019054906101000a900460ff16611d90576040517f08c379a0000000000000000000000000000000000000000000000000000000008152600401611d8790612e73565b60405180910390fd5b611d98611f07565b565b600060019054906101000a900460ff16611de9576040517f08c379a0000000000000000000000000000000000000000000000000000000008152600401611de090612e73565b60405180910390fd5b565b6000819050919050565b6000819050919050565b611e0881611ee4565b611e47576040517f08c379a0000000000000000000000000000000000000000000000000000000008152600401611e3e90612e13565b60405180910390fd5b80611e747f360894a13ba1a3210667c828492db98dca3e2076cc3735a920a3ca505d382bbc60001b611deb565b60000160006101000a81548173ffffffffffffffffffffffffffffffffffffffff021916908373ffffffffffffffffffffffffffffffffffffffff16021790555050565b611ec183611f68565b600082511180611ece5750805b15611edf57611edd8383611fb7565b505b505050565b6000808273ffffffffffffffffffffffffffffffffffffffff163b119050919050565b600060019054906101000a900460ff16611f56576040517f08c379a0000000000000000000000000000000000000000000000000000000008152600401611f4d90612e73565b60405180910390fd5b611f66611f616118d3565b611b5a565b565b611f7181611dff565b8073ffffffffffffffffffffffffffffffffffffffff167fbc7cd75a20ee27fd9adebab32041f755214dbc6bffa90cc0225b39da2e5c2d3b60405160405180910390a250565b6060611fc283611ee4565b612001576040517f08c379a0000000000000000000000000000000000000000000000000000000008152600401611ff890612e53565b60405180910390fd5b6000808473ffffffffffffffffffffffffffffffffffffffff16846040516120299190612b65565b600060405180830381855af49150503d8060008114612064576040519150601f19603f3d011682016040523d82523d6000602084013e612069565b606091505b509150915061209182826040518060600160405280602781526020016139076027913961209b565b9250505092915050565b606083156120ab578290506120fb565b6000835111156120be5782518084602001fd5b816040517f08c379a00000000000000000000000000000000000000000000000000000000081526004016120f29190612c71565b60405180910390fd5b9392505050565b600061211561211084613044565b61301f565b9050808382526020820190508285602086028201111561213457600080fd5b60005b85811015612164578161214a8882612218565b845260208401935060208301925050600181019050612137565b5050509392505050565b600061218161217c84613070565b61301f565b905080838252602082019050828560208602820111156121a057600080fd5b60005b858110156121d057816121b68882612314565b8452602084019350602083019250506001810190506121a3565b5050509392505050565b60006121ed6121e88461309c565b61301f565b90508281526020810184848401111561220557600080fd5b612210848285613291565b509392505050565b6000813590506122278161384e565b92915050565b60008151905061223c81613865565b92915050565b600082601f83011261225357600080fd5b8135612263848260208601612102565b91505092915050565b600082601f83011261227d57600080fd5b813561228d84826020860161216e565b91505092915050565b6000815190506122a58161387c565b92915050565b6000815190506122ba81613893565b92915050565b600082601f8301126122d157600080fd5b81356122e18482602086016121da565b91505092915050565b6000815190506122f9816138aa565b92915050565b60008135905061230e816138c1565b92915050565b600081359050612323816138d8565b92915050565b600081519050612338816138d8565b92915050565b60008151905061234d816138ef565b92915050565b60006020828403121561236557600080fd5b600061237384828501612218565b91505092915050565b60006020828403121561238e57600080fd5b600061239c8482850161222d565b91505092915050565b6000806000606084860312156123ba57600080fd5b60006123c886828701612218565b935050602084013567ffffffffffffffff8111156123e557600080fd5b6123f186828701612242565b925050604084013567ffffffffffffffff81111561240e57600080fd5b61241a8682870161226c565b9150509250925092565b6000806040838503121561243757600080fd5b600061244585828601612218565b925050602083013567ffffffffffffffff81111561246257600080fd5b61246e858286016122c0565b9150509250929050565b6000806040838503121561248b57600080fd5b600061249985828601612218565b92505060206124aa85828601612314565b9150509250929050565b6000602082840312156124c657600080fd5b60006124d484828501612296565b91505092915050565b6000602082840312156124ef57600080fd5b60006124fd848285016122ab565b91505092915050565b60006020828403121561251857600080fd5b6000612526848285016122ff565b91505092915050565b6000806000806080858703121561254557600080fd5b6000612553878288016122ff565b945050602061256487828801612218565b935050604061257587828801612314565b925050606061258687828801612218565b91505092959194509250565b60008060008060008060c087890312156125ab57600080fd5b60006125b989828a016122ff565b965050602087013567ffffffffffffffff8111156125d657600080fd5b6125e289828a016122c0565b95505060406125f389828a01612314565b945050606061260489828a01612218565b935050608061261589828a01612314565b92505060a087013567ffffffffffffffff81111561263257600080fd5b61263e89828a016122c0565b9150509295509295509295565b60006020828403121561265d57600080fd5b600061266b84828501612314565b91505092915050565b60006020828403121561268657600080fd5b600061269484828501612329565b91505092915050565b600080604083850312156126b057600080fd5b60006126be85828601612329565b92505060206126cf85828601612329565b9150509250929050565b600080600080600060a086880312156126f157600080fd5b60006126ff8882890161233e565b9550506020612710888289016122ea565b945050604061272188828901612329565b935050606061273288828901612329565b92505060806127438882890161233e565b9150509295509295909350565b612759816131f2565b82525050565b612768816131e0565b82525050565b61277f61277a826131e0565b61334d565b82525050565b61278e81613204565b82525050565b61279d81613210565b82525050565b60006127ae826130cd565b6127b881856130e3565b93506127c88185602086016132a0565b6127d1816133fe565b840191505092915050565b60006127e7826130cd565b6127f181856130f4565b93506128018185602086016132a0565b61280a816133fe565b840191505092915050565b6000612820826130cd565b61282a8185613105565b935061283a8185602086016132a0565b80840191505092915050565b61284f8161327f565b82525050565b6000612860826130d8565b61286a8185613110565b935061287a8185602086016132a0565b612883816133fe565b840191505092915050565b600061289b602683613110565b91506128a68261341c565b604082019050919050565b60006128be602883613110565b91506128c98261346b565b604082019050919050565b60006128e1602c83613110565b91506128ec826134ba565b604082019050919050565b6000612904601683613110565b915061290f82613509565b602082019050919050565b6000612927600f83613110565b915061293282613532565b602082019050919050565b600061294a602c83613110565b91506129558261355b565b604082019050919050565b600061296d603883613110565b9150612978826135aa565b604082019050919050565b6000612990602983613110565b915061299b826135f9565b604082019050919050565b60006129b3601783613110565b91506129be82613648565b602082019050919050565b60006129d6602e83613110565b91506129e182613671565b604082019050919050565b60006129f9602e83613110565b9150612a04826136c0565b604082019050919050565b6000612a1c601883613110565b9150612a278261370f565b602082019050919050565b6000612a3f602d83613110565b9150612a4a82613738565b604082019050919050565b6000612a62602083613110565b9150612a6d82613787565b602082019050919050565b6000612a85602683613110565b9150612a90826137b0565b604082019050919050565b6000612aa8602b83613110565b9150612ab3826137ff565b604082019050919050565b6000606083016000830151612ad66000860182612b1d565b506020830151612ae96020860182612b1d565b5060408301518482036040860152612b0182826127a3565b9150508091505092915050565b612b1781613224565b82525050565b612b2681613252565b82525050565b612b3581613252565b82525050565b612b448161325c565b82525050565b6000612b56828461276e565b60148201915081905092915050565b6000612b718284612815565b915081905092915050565b6000602082019050612b91600083018461275f565b92915050565b6000604082019050612bac600083018561275f565b612bb9602083018461275f565b9392505050565b6000606082019050612bd5600083018661275f565b612be2602083018561275f565b612bef6040830184612b2c565b949350505050565b6000604082019050612c0c600083018561275f565b612c196020830184612b2c565b9392505050565b6000602082019050612c356000830184612785565b92915050565b6000602082019050612c506000830184612794565b92915050565b6000602082019050612c6b6000830184612846565b92915050565b60006020820190508181036000830152612c8b8184612855565b905092915050565b60006020820190508181036000830152612cac8161288e565b9050919050565b60006020820190508181036000830152612ccc816128b1565b9050919050565b60006020820190508181036000830152612cec816128d4565b9050919050565b60006020820190508181036000830152612d0c816128f7565b9050919050565b60006020820190508181036000830152612d2c8161291a565b9050919050565b60006020820190508181036000830152612d4c8161293d565b9050919050565b60006020820190508181036000830152612d6c81612960565b9050919050565b60006020820190508181036000830152612d8c81612983565b9050919050565b60006020820190508181036000830152612dac816129a6565b9050919050565b60006020820190508181036000830152612dcc816129c9565b9050919050565b60006020820190508181036000830152612dec816129ec565b9050919050565b60006020820190508181036000830152612e0c81612a0f565b9050919050565b60006020820190508181036000830152612e2c81612a32565b9050919050565b60006020820190508181036000830152612e4c81612a55565b9050919050565b60006020820190508181036000830152612e6c81612a78565b9050919050565b60006020820190508181036000830152612e8c81612a9b565b9050919050565b6000608082019050612ea86000830187612b0e565b8181036020830152612eba81866127dc565b9050612ec9604083018561275f565b612ed66060830184612b2c565b95945050505050565b600061012082019050612ef5600083018c612b0e565b612f02602083018b612b2c565b612f0f604083018a612b2c565b612f1c6060830189612750565b612f296080830188612b2c565b612f3660a0830187612b2c565b81810360c0830152612f488186612abe565b905081810360e0830152612f5c81856127dc565b9050818103610100830152612f7181846127dc565b90509a9950505050505050505050565b600060a082019050612f966000830188612b0e565b612fa36020830187612b3b565b8181036040830152612fb581866127dc565b90508181036060830152612fc981856127dc565b90508181036080830152612fdd8184612abe565b90509695505050505050565b6000602082019050612ffe6000830184612b2c565b92915050565b60006020820190506130196000830184612b3b565b92915050565b600061302961303a565b905061303582826132d3565b919050565b6000604051905090565b600067ffffffffffffffff82111561305f5761305e6133cf565b5b602082029050602081019050919050565b600067ffffffffffffffff82111561308b5761308a6133cf565b5b602082029050602081019050919050565b600067ffffffffffffffff8211156130b7576130b66133cf565b5b6130c0826133fe565b9050602081019050919050565b600081519050919050565b600081519050919050565b600082825260208201905092915050565b600082825260208201905092915050565b600081905092915050565b600082825260208201905092915050565b600061312c82613252565b915061313783613252565b925082613147576131466133a0565b5b828204905092915050565b600061315d82613252565b915061316883613252565b9250817fffffffffffffffffffffffffffffffffffffffffffffffffffffffffffffffff04831182151516156131a1576131a0613371565b5b828202905092915050565b60006131b782613252565b91506131c283613252565b9250828210156131d5576131d4613371565b5b828203905092915050565b60006131eb82613232565b9050919050565b60006131fd82613232565b9050919050565b60008115159050919050565b6000819050919050565b6000819050919050565b600061ffff82169050919050565b600073ffffffffffffffffffffffffffffffffffffffff82169050919050565b6000819050919050565b600060ff82169050919050565b600069ffffffffffffffffffff82169050919050565b600061328a8261325c565b9050919050565b82818337600083830152505050565b60005b838110156132be5780820151818401526020810190506132a3565b838111156132cd576000848401525b50505050565b6132dc826133fe565b810181811067ffffffffffffffff821117156132fb576132fa6133cf565b5b80604052505050565b600061330f82613252565b91507fffffffffffffffffffffffffffffffffffffffffffffffffffffffffffffffff82141561334257613341613371565b5b600182019050919050565b60006133588261335f565b9050919050565b600061336a8261340f565b9050919050565b7f4e487b7100000000000000000000000000000000000000000000000000000000600052601160045260246000fd5b7f4e487b7100000000000000000000000000000000000000000000000000000000600052601260045260246000fd5b7f4e487b7100000000000000000000000000000000000000000000000000000000600052604160045260246000fd5b6000601f19601f8301169050919050565b60008160601b9050919050565b7f4f776e61626c653a206e6577206f776e657220697320746865207a65726f206160008201527f6464726573730000000000000000000000000000000000000000000000000000602082015250565b7f6f6e6c7920737461726761746520726f757465722063616e2063616c6c20736760008201527f5265636569766521000000000000000000000000000000000000000000000000602082015250565b7f46756e6374696f6e206d7573742062652063616c6c6564207468726f7567682060008201527f64656c656761746563616c6c0000000000000000000000000000000000000000602082015250565b7f416c6c6f77616e6365206e6f7420616465717561746500000000000000000000600082015250565b7f4173736574204e6f742041646465640000000000000000000000000000000000600082015250565b7f46756e6374696f6e206d7573742062652063616c6c6564207468726f7567682060008201527f6163746976652070726f78790000000000000000000000000000000000000000602082015250565b7f555550535570677261646561626c653a206d757374206e6f742062652063616c60008201527f6c6564207468726f7567682064656c656761746563616c6c0000000000000000602082015250565b7f45524331393637557067726164653a20756e737570706f727465642070726f7860008201527f6961626c65555549440000000000000000000000000000000000000000000000602082015250565b7f4d7573742062652076616c69646c792061646472657373000000000000000000600082015250565b7f496e697469616c697a61626c653a20636f6e747261637420697320616c72656160008201527f647920696e697469616c697a6564000000000000000000000000000000000000602082015250565b7f45524331393637557067726164653a206e657720696d706c656d656e7461746960008201527f6f6e206973206e6f742055555053000000000000000000000000000000000000602082015250565b7f4e6f7420656e6f7567682066756e647320666f72206761730000000000000000600082015250565b7f455243313936373a206e657720696d706c656d656e746174696f6e206973206e60008201527f6f74206120636f6e747261637400000000000000000000000000000000000000602082015250565b7f4f776e61626c653a2063616c6c6572206973206e6f7420746865206f776e6572600082015250565b7f416464726573733a2064656c65676174652063616c6c20746f206e6f6e2d636f60008201527f6e74726163740000000000000000000000000000000000000000000000000000602082015250565b7f496e697469616c697a61626c653a20636f6e7472616374206973206e6f74206960008201527f6e697469616c697a696e67000000000000000000000000000000000000000000602082015250565b613857816131e0565b811461386257600080fd5b50565b61386e816131f2565b811461387957600080fd5b50565b61388581613204565b811461389057600080fd5b50565b61389c81613210565b81146138a757600080fd5b50565b6138b38161321a565b81146138be57600080fd5b50565b6138ca81613224565b81146138d557600080fd5b50565b6138e181613252565b81146138ec57600080fd5b50565b6138f881613269565b811461390357600080fd5b5056fe416464726573733a206c6f772d6c6576656c2064656c65676174652063616c6c206661696c6564a26469706673582212208c4b74108b9ced16e4068e659123b7d1a4a2c8e5b334c0feac7b2ce17196b89a64736f6c63430008040033",
  "linkReferences": {},
  "deployedLinkReferences": {}
}