{
  "_format": "hh-sol-artifact-1",
  "contractName": "Bridger",
  "sourceName": "contracts/bridge/Bridger.sol",
  "abi": [
    {
      "anonymous": false,
      "inputs": [
        {
          "indexed": false,
          "internalType": "address",
          "name": "previousAdmin",
          "type": "address"
        },
        {
          "indexed": false,
          "internalType": "address",
          "name": "newAdmin",
          "type": "address"
        }
      ],
      "name": "AdminChanged",
      "type": "event"
    },
    {
      "anonymous": false,
      "inputs": [
        {
          "indexed": true,
          "internalType": "address",
          "name": "beacon",
          "type": "address"
        }
      ],
      "name": "BeaconUpgraded",
      "type": "event"
    },
    {
      "anonymous": false,
      "inputs": [
        {
          "indexed": false,
          "internalType": "uint8",
          "name": "version",
          "type": "uint8"
        }
      ],
      "name": "Initialized",
      "type": "event"
    },
    {
      "anonymous": false,
      "inputs": [
        {
          "indexed": true,
          "internalType": "address",
          "name": "previousOwner",
          "type": "address"
        },
        {
          "indexed": true,
          "internalType": "address",
          "name": "newOwner",
          "type": "address"
        }
      ],
      "name": "OwnershipTransferred",
      "type": "event"
    },
    {
      "anonymous": false,
      "inputs": [
        {
          "indexed": true,
          "internalType": "address",
          "name": "implementation",
          "type": "address"
        }
      ],
      "name": "Upgraded",
      "type": "event"
    },
    {
      "anonymous": false,
      "inputs": [
        {
          "indexed": false,
          "internalType": "uint16",
          "name": "_chainId",
          "type": "uint16"
        },
        {
          "indexed": false,
          "internalType": "bytes",
          "name": "_srcAddress",
          "type": "bytes"
        },
        {
          "indexed": false,
          "internalType": "address",
          "name": "_token",
          "type": "address"
        },
        {
          "indexed": false,
          "internalType": "uint256",
          "name": "amountLD",
          "type": "uint256"
        }
      ],
      "name": "sgReceived",
      "type": "event"
    },
    {
      "inputs": [],
      "name": "TYPE_SWAP_REMOTE",
      "outputs": [
        {
          "internalType": "uint8",
          "name": "",
          "type": "uint8"
        }
      ],
      "stateMutability": "view",
      "type": "function"
    },
    {
      "inputs": [
        {
          "internalType": "address",
          "name": "_router",
          "type": "address"
        }
      ],
      "name": "_changeStargateRouter",
      "outputs": [],
      "stateMutability": "nonpayable",
      "type": "function"
    },
    {
      "inputs": [
        {
          "internalType": "address",
          "name": "_address",
          "type": "address"
        },
        {
          "internalType": "uint256",
          "name": "_pid",
          "type": "uint256"
        }
      ],
      "name": "addAsset",
      "outputs": [],
      "stateMutability": "nonpayable",
      "type": "function"
    },
    {
      "inputs": [],
      "name": "getPrice",
      "outputs": [
        {
          "internalType": "uint256",
          "name": "",
          "type": "uint256"
        }
      ],
      "stateMutability": "view",
      "type": "function"
    },
    {
      "inputs": [
        {
          "internalType": "uint256",
          "name": "size",
          "type": "uint256"
        }
      ],
      "name": "getStorageCost",
      "outputs": [
        {
          "internalType": "uint256",
          "name": "",
          "type": "uint256"
        }
      ],
      "stateMutability": "view",
      "type": "function"
    },
    {
      "inputs": [
        {
          "internalType": "uint16",
          "name": "_dstChainId",
          "type": "uint16"
        }
      ],
      "name": "getSwapFee",
      "outputs": [
        {
          "internalType": "uint256",
          "name": "",
          "type": "uint256"
        }
      ],
      "stateMutability": "view",
      "type": "function"
    },
    {
      "inputs": [
        {
          "internalType": "address",
          "name": "_stargateRouter",
          "type": "address"
        },
        {
          "internalType": "address[]",
          "name": "tokens",
          "type": "address[]"
        },
        {
          "internalType": "uint256[]",
          "name": "ids",
          "type": "uint256[]"
        }
      ],
      "name": "initialize",
      "outputs": [],
      "stateMutability": "nonpayable",
      "type": "function"
    },
    {
      "inputs": [],
      "name": "owner",
      "outputs": [
        {
          "internalType": "address",
          "name": "",
          "type": "address"
        }
      ],
      "stateMutability": "view",
      "type": "function"
    },
    {
      "inputs": [
        {
          "internalType": "address",
          "name": "",
          "type": "address"
        }
      ],
      "name": "pids",
      "outputs": [
        {
          "internalType": "uint256",
          "name": "",
          "type": "uint256"
        }
      ],
      "stateMutability": "view",
      "type": "function"
    },
    {
      "inputs": [],
      "name": "proxiableUUID",
      "outputs": [
        {
          "internalType": "bytes32",
          "name": "",
          "type": "bytes32"
        }
      ],
      "stateMutability": "view",
      "type": "function"
    },
    {
      "inputs": [],
      "name": "renounceOwnership",
      "outputs": [],
      "stateMutability": "nonpayable",
      "type": "function"
    },
    {
      "inputs": [
        {
          "internalType": "uint16",
          "name": "_chainId",
          "type": "uint16"
        },
        {
          "internalType": "bytes",
          "name": "_srcAddress",
          "type": "bytes"
        },
        {
          "internalType": "uint256",
          "name": "_nonce",
          "type": "uint256"
        },
        {
          "internalType": "address",
          "name": "_token",
          "type": "address"
        },
        {
          "internalType": "uint256",
          "name": "amountLD",
          "type": "uint256"
        },
        {
          "internalType": "bytes",
          "name": "_payload",
          "type": "bytes"
        }
      ],
      "name": "sgReceive",
      "outputs": [],
      "stateMutability": "nonpayable",
      "type": "function"
    },
    {
      "inputs": [],
      "name": "stargateRouter",
      "outputs": [
        {
          "internalType": "address",
          "name": "",
          "type": "address"
        }
      ],
      "stateMutability": "view",
      "type": "function"
    },
    {
      "inputs": [
        {
          "internalType": "uint16",
          "name": "chainId",
          "type": "uint16"
        },
        {
          "internalType": "address",
          "name": "_asset",
          "type": "address"
        },
        {
          "internalType": "uint256",
          "name": "_amount",
          "type": "uint256"
        },
        {
          "internalType": "address",
          "name": "_destinationComposer",
          "type": "address"
        }
      ],
      "name": "swap",
      "outputs": [
        {
          "internalType": "bool",
          "name": "",
          "type": "bool"
        }
      ],
      "stateMutability": "payable",
      "type": "function"
    },
    {
      "inputs": [
        {
          "internalType": "address",
          "name": "_asset",
          "type": "address"
        }
      ],
      "name": "sweep",
      "outputs": [],
      "stateMutability": "nonpayable",
      "type": "function"
    },
    {
      "inputs": [
        {
          "internalType": "address",
          "name": "newOwner",
          "type": "address"
        }
      ],
      "name": "transferOwnership",
      "outputs": [],
      "stateMutability": "nonpayable",
      "type": "function"
    },
    {
      "inputs": [
        {
          "internalType": "address",
          "name": "newImplementation",
          "type": "address"
        }
      ],
      "name": "upgradeTo",
      "outputs": [],
      "stateMutability": "nonpayable",
      "type": "function"
    },
    {
      "inputs": [
        {
          "internalType": "address",
          "name": "newImplementation",
          "type": "address"
        },
        {
          "internalType": "bytes",
          "name": "data",
          "type": "bytes"
        }
      ],
      "name": "upgradeToAndCall",
      "outputs": [],
      "stateMutability": "payable",
      "type": "function"
    },
    {
      "stateMutability": "payable",
      "type": "receive"
    }
  ],
  "bytecode": "0x60a06040523073ffffffffffffffffffffffffffffffffffffffff1660809073ffffffffffffffffffffffffffffffffffffffff1660601b81525034801561004657600080fd5b5060805160601c613918610081600039600081816105c501528181610654015281816108840152818161091301526109c301526139186000f3fe60806040526004361061010d5760003560e01c80638da5cb5b11610095578063af960e2c11610064578063af960e2c1461032d578063df01df6f1461036a578063edd36beb146103a7578063f2fde38b146103d7578063ff1d57521461040057610114565b80638da5cb5b1461028357806398d5fdca146102ae578063a9e56f3c146102d9578063ab8236f31461030457610114565b80634f1ef286116100dc5780634f1ef286146101d357806352d1902d146101ef57806366a6a4bd1461021a578063715018a6146102435780637a237c5c1461025a57610114565b806301681a6214610119578063081a5400146101425780633659cfe61461016d5780634ce639d21461019657610114565b3661011457005b600080fd5b34801561012557600080fd5b50610140600480360381019061013b9190612308565b610429565b005b34801561014e57600080fd5b506101576105be565b6040516101649190612fb9565b60405180910390f35b34801561017957600080fd5b50610194600480360381019061018f9190612308565b6105c3565b005b3480156101a257600080fd5b506101bd60048036038101906101b89190612600565b610772565b6040516101ca9190612f9e565b60405180910390f35b6101ed60048036038101906101e891906123d9565b610882565b005b3480156101fb57600080fd5b506102046109bf565b6040516102119190612bf0565b60405180910390f35b34801561022657600080fd5b50610241600480360381019061023c919061242d565b610a78565b005b34801561024f57600080fd5b50610258610b3c565b005b34801561026657600080fd5b50610281600480360381019061027c9190612308565b610bc4565b005b34801561028f57600080fd5b50610298610cf4565b6040516102a59190612b31565b60405180910390f35b3480156102ba57600080fd5b506102c3610d1e565b6040516102d09190612f9e565b60405180910390f35b3480156102e557600080fd5b506102ee610ddc565b6040516102fb9190612b31565b60405180910390f35b34801561031057600080fd5b5061032b60048036038101906103269190612547565b610e02565b005b34801561033957600080fd5b50610354600480360381019061034f91906124bb565b610f7e565b6040516103619190612f9e565b60405180910390f35b34801561037657600080fd5b50610391600480360381019061038c9190612308565b6110d1565b60405161039e9190612f9e565b60405180910390f35b6103c160048036038101906103bc91906124e4565b6110e9565b6040516103ce9190612bd5565b60405180910390f35b3480156103e357600080fd5b506103fe60048036038101906103f99190612308565b6115ab565b005b34801561040c57600080fd5b506104276004803603810190610422919061235a565b6116a3565b005b6104316118d9565b73ffffffffffffffffffffffffffffffffffffffff1661044f610cf4565b73ffffffffffffffffffffffffffffffffffffffff16146104a5576040517f08c379a000000000000000000000000000000000000000000000000000000000815260040161049c90612de8565b60405180910390fd5b8073ffffffffffffffffffffffffffffffffffffffff1663a9059cbb338373ffffffffffffffffffffffffffffffffffffffff166370a08231306040518263ffffffff1660e01b81526004016104fb9190612b31565b60206040518083038186803b15801561051357600080fd5b505afa158015610527573d6000803e3d6000fd5b505050506040513d601f19601f8201168201806040525081019061054b9190612629565b6040518363ffffffff1660e01b8152600401610568929190612bac565b602060405180830381600087803b15801561058257600080fd5b505af1158015610596573d6000803e3d6000fd5b505050506040513d601f19601f820116820180604052508101906105ba9190612469565b5050565b600181565b7f000000000000000000000000000000000000000000000000000000000000000073ffffffffffffffffffffffffffffffffffffffff163073ffffffffffffffffffffffffffffffffffffffff161415610652576040517f08c379a000000000000000000000000000000000000000000000000000000000815260040161064990612c88565b60405180910390fd5b7f000000000000000000000000000000000000000000000000000000000000000073ffffffffffffffffffffffffffffffffffffffff166106916118e1565b73ffffffffffffffffffffffffffffffffffffffff16146106e7576040517f08c379a00000000000000000000000000000000000000000000000000000000081526004016106de90612ce8565b60405180910390fd5b6106f081611938565b61076f81600067ffffffffffffffff811115610735577f4e487b7100000000000000000000000000000000000000000000000000000000600052604160045260246000fd5b6040519080825280601f01601f1916602001820160405280156107675781602001600182028036833780820191505090505b5060006119b7565b50565b60008060c960009054906101000a900473ffffffffffffffffffffffffffffffffffffffff1673ffffffffffffffffffffffffffffffffffffffff1663feaf968c6040518163ffffffff1660e01b815260040160a06040518083038186803b1580156107dd57600080fd5b505afa1580156107f1573d6000803e3d6000fd5b505050506040513d601f19601f82011682018060405250810190610815919061268e565b5050509150506000630ccccccd905061087961083a8383611b3490919063ffffffff16565b61086b6305f5e10061085d670de0b6b3a764000089611b3490919063ffffffff16565b611b3490919063ffffffff16565b611b4a90919063ffffffff16565b92505050919050565b7f000000000000000000000000000000000000000000000000000000000000000073ffffffffffffffffffffffffffffffffffffffff163073ffffffffffffffffffffffffffffffffffffffff161415610911576040517f08c379a000000000000000000000000000000000000000000000000000000000815260040161090890612c88565b60405180910390fd5b7f000000000000000000000000000000000000000000000000000000000000000073ffffffffffffffffffffffffffffffffffffffff166109506118e1565b73ffffffffffffffffffffffffffffffffffffffff16146109a6576040517f08c379a000000000000000000000000000000000000000000000000000000000815260040161099d90612ce8565b60405180910390fd5b6109af82611938565b6109bb828260016119b7565b5050565b60007f000000000000000000000000000000000000000000000000000000000000000073ffffffffffffffffffffffffffffffffffffffff163073ffffffffffffffffffffffffffffffffffffffff1614610a4f576040517f08c379a0000000000000000000000000000000000000000000000000000000008152600401610a4690612d08565b60405180910390fd5b7f360894a13ba1a3210667c828492db98dca3e2076cc3735a920a3ca505d382bbc60001b905090565b610a806118d9565b73ffffffffffffffffffffffffffffffffffffffff16610a9e610cf4565b73ffffffffffffffffffffffffffffffffffffffff1614610af4576040517f08c379a0000000000000000000000000000000000000000000000000000000008152600401610aeb90612de8565b60405180910390fd5b8060ca60008473ffffffffffffffffffffffffffffffffffffffff1673ffffffffffffffffffffffffffffffffffffffff168152602001908152602001600020819055505050565b610b446118d9565b73ffffffffffffffffffffffffffffffffffffffff16610b62610cf4565b73ffffffffffffffffffffffffffffffffffffffff1614610bb8576040517f08c379a0000000000000000000000000000000000000000000000000000000008152600401610baf90612de8565b60405180910390fd5b610bc26000611b60565b565b610bcc6118d9565b73ffffffffffffffffffffffffffffffffffffffff16610bea610cf4565b73ffffffffffffffffffffffffffffffffffffffff1614610c40576040517f08c379a0000000000000000000000000000000000000000000000000000000008152600401610c3790612de8565b60405180910390fd5b600073ffffffffffffffffffffffffffffffffffffffff168173ffffffffffffffffffffffffffffffffffffffff161415610cb0576040517f08c379a0000000000000000000000000000000000000000000000000000000008152600401610ca790612d48565b60405180910390fd5b8060cb60006101000a81548173ffffffffffffffffffffffffffffffffffffffff021916908373ffffffffffffffffffffffffffffffffffffffff16021790555050565b6000603360009054906101000a900473ffffffffffffffffffffffffffffffffffffffff16905090565b60008060008060008060c960009054906101000a900473ffffffffffffffffffffffffffffffffffffffff1673ffffffffffffffffffffffffffffffffffffffff1663feaf968c6040518163ffffffff1660e01b815260040160a06040518083038186803b158015610d8f57600080fd5b505afa158015610da3573d6000803e3d6000fd5b505050506040513d601f19601f82011682018060405250810190610dc7919061268e565b94509450945094509450839550505050505090565b60cb60009054906101000a900473ffffffffffffffffffffffffffffffffffffffff1681565b60cb60009054906101000a900473ffffffffffffffffffffffffffffffffffffffff1673ffffffffffffffffffffffffffffffffffffffff163373ffffffffffffffffffffffffffffffffffffffff1614610e92576040517f08c379a0000000000000000000000000000000000000000000000000000000008152600401610e8990612c68565b60405180910390fd5b600081806020019051810190610ea89190612331565b90508373ffffffffffffffffffffffffffffffffffffffff1663a9059cbb82856040518363ffffffff1660e01b8152600401610ee5929190612bac565b602060405180830381600087803b158015610eff57600080fd5b505af1158015610f13573d6000803e3d6000fd5b505050506040513d601f19601f82011682018060405250810190610f379190612469565b507ff384e0e88816a3074d0d64562559cbd89504e99f3496997dd6dbe50f7cf8c0a187878686604051610f6d9493929190612e48565b60405180910390a150505050505050565b600080610f896118d9565b604051602001610f999190612aff565b6040516020818303038152906040529050600060cb60009054906101000a900473ffffffffffffffffffffffffffffffffffffffff1673ffffffffffffffffffffffffffffffffffffffff16630a51236985600185604051602001604051602081830303815290604052604051806060016040528060008152602001600081526020016040518060400160405280600281526020017f30780000000000000000000000000000000000000000000000000000000000008152508152506040518663ffffffff1660e01b8152600401611075959493929190612f36565b604080518083038186803b15801561108c57600080fd5b505afa1580156110a0573d6000803e3d6000fd5b505050506040513d601f19601f820116820180604052508101906110c49190612652565b5090508092505050919050565b60ca6020528060005260406000206000915090505481565b60006110f36118d9565b73ffffffffffffffffffffffffffffffffffffffff16611111610cf4565b73ffffffffffffffffffffffffffffffffffffffff1614611167576040517f08c379a000000000000000000000000000000000000000000000000000000000815260040161115e90612de8565b60405180910390fd5b828473ffffffffffffffffffffffffffffffffffffffff1663dd62ed3e61118c6118d9565b306040518363ffffffff1660e01b81526004016111aa929190612b4c565b60206040518083038186803b1580156111c257600080fd5b505afa1580156111d6573d6000803e3d6000fd5b505050506040513d601f19601f820116820180604052508101906111fa9190612629565b101561123b576040517f08c379a000000000000000000000000000000000000000000000000000000000815260040161123290612ca8565b60405180910390fd5b600060ca60008673ffffffffffffffffffffffffffffffffffffffff1673ffffffffffffffffffffffffffffffffffffffff16815260200190815260200160002054905060008114156112c3576040517f08c379a00000000000000000000000000000000000000000000000000000000081526004016112ba90612cc8565b60405180910390fd5b600084905060006112d386611c26565b905060006112df6118d9565b6040516020016112ef9190612b31565b6040516020818303038152906040529050600060405160200160405160208183030381529060405290506113228a610f7e565b341015611364576040517f08c379a000000000000000000000000000000000000000000000000000000000815260040161135b90612da8565b60405180910390fd5b8873ffffffffffffffffffffffffffffffffffffffff166323b872dd6113886118d9565b308b6040518463ffffffff1660e01b81526004016113a893929190612b75565b602060405180830381600087803b1580156113c257600080fd5b505af11580156113d6573d6000803e3d6000fd5b505050506040513d601f19601f820116820180604052508101906113fa9190612469565b508873ffffffffffffffffffffffffffffffffffffffff1663095ea7b360cb60009054906101000a900473ffffffffffffffffffffffffffffffffffffffff16866040518363ffffffff1660e01b8152600401611458929190612bac565b602060405180830381600087803b15801561147257600080fd5b505af1158015611486573d6000803e3d6000fd5b505050506040513d601f19601f820116820180604052508101906114aa9190612469565b5060cb60009054906101000a900473ffffffffffffffffffffffffffffffffffffffff1673ffffffffffffffffffffffffffffffffffffffff16639fbf10fc348c8889328a8a604051806060016040528060008152602001600081526020016040518060400160405280600281526020017f30780000000000000000000000000000000000000000000000000000000000008152508152508b8b6040518b63ffffffff1660e01b815260040161156899989796959493929190612e94565b6000604051808303818588803b15801561158157600080fd5b505af1158015611595573d6000803e3d6000fd5b5050505050600195505050505050949350505050565b6115b36118d9565b73ffffffffffffffffffffffffffffffffffffffff166115d1610cf4565b73ffffffffffffffffffffffffffffffffffffffff1614611627576040517f08c379a000000000000000000000000000000000000000000000000000000000815260040161161e90612de8565b60405180910390fd5b600073ffffffffffffffffffffffffffffffffffffffff168173ffffffffffffffffffffffffffffffffffffffff161415611697576040517f08c379a000000000000000000000000000000000000000000000000000000000815260040161168e90612c48565b60405180910390fd5b6116a081611b60565b50565b60006116af6001611c57565b905080156116d3576001600060016101000a81548160ff0219169083151502179055505b815183511480156116e657506000825114155b6116ef57600080fd5b6116f7611d47565b6107d060cc819055508360cb60006101000a81548173ffffffffffffffffffffffffffffffffffffffff021916908373ffffffffffffffffffffffffffffffffffffffff160217905550738a753747a1fa494ec906ce90e9f37563a8af630e60c960006101000a81548173ffffffffffffffffffffffffffffffffffffffff021916908373ffffffffffffffffffffffffffffffffffffffff16021790555060005b8251811015611879578281815181106117db577f4e487b7100000000000000000000000000000000000000000000000000000000600052603260045260246000fd5b602002602001015160ca6000868481518110611820577f4e487b7100000000000000000000000000000000000000000000000000000000600052603260045260246000fd5b602002602001015173ffffffffffffffffffffffffffffffffffffffff1673ffffffffffffffffffffffffffffffffffffffff168152602001908152602001600020819055508080611871906132b9565b915050611799565b5080156118d35760008060016101000a81548160ff0219169083151502179055507f7f26b83ff96e1f2b6a682f133852f6798a09c465da95921460cefb384740249860016040516118ca9190612c0b565b60405180910390a15b50505050565b600033905090565b600061190f7f360894a13ba1a3210667c828492db98dca3e2076cc3735a920a3ca505d382bbc60001b611da0565b60000160009054906101000a900473ffffffffffffffffffffffffffffffffffffffff16905090565b6119406118d9565b73ffffffffffffffffffffffffffffffffffffffff1661195e610cf4565b73ffffffffffffffffffffffffffffffffffffffff16146119b4576040517f08c379a00000000000000000000000000000000000000000000000000000000081526004016119ab90612de8565b60405180910390fd5b50565b6119e37f4910fdfa16fed3260ed0e7147f7cc6da11a60208b5b9406d12a635614ffd914360001b611daa565b60000160009054906101000a900460ff1615611a0757611a0283611db4565b611b2f565b8273ffffffffffffffffffffffffffffffffffffffff166352d1902d6040518163ffffffff1660e01b815260040160206040518083038186803b158015611a4d57600080fd5b505afa925050508015611a7e57506040513d601f19601f82011682018060405250810190611a7b9190612492565b60015b611abd576040517f08c379a0000000000000000000000000000000000000000000000000000000008152600401611ab490612d88565b60405180910390fd5b7f360894a13ba1a3210667c828492db98dca3e2076cc3735a920a3ca505d382bbc60001b8114611b22576040517f08c379a0000000000000000000000000000000000000000000000000000000008152600401611b1990612d28565b60405180910390fd5b50611b2e838383611e6d565b5b505050565b60008183611b429190613107565b905092915050565b60008183611b5891906130d6565b905092915050565b6000603360009054906101000a900473ffffffffffffffffffffffffffffffffffffffff16905081603360006101000a81548173ffffffffffffffffffffffffffffffffffffffff021916908373ffffffffffffffffffffffffffffffffffffffff1602179055508173ffffffffffffffffffffffffffffffffffffffff168173ffffffffffffffffffffffffffffffffffffffff167f8be0079c531659141344cd1fd0a4f28419497f9722a3daafe3b4186f6b6457e060405160405180910390a35050565b600061271060cc54612710611c3b9190613161565b83611c469190613107565b611c5091906130d6565b9050919050565b60008060019054906101000a900460ff1615611cce5760018260ff16148015611c865750611c8430611e99565b155b611cc5576040517f08c379a0000000000000000000000000000000000000000000000000000000008152600401611cbc90612d68565b60405180910390fd5b60009050611d42565b8160ff1660008054906101000a900460ff1660ff1610611d23576040517f08c379a0000000000000000000000000000000000000000000000000000000008152600401611d1a90612d68565b60405180910390fd5b816000806101000a81548160ff021916908360ff160217905550600190505b919050565b600060019054906101000a900460ff16611d96576040517f08c379a0000000000000000000000000000000000000000000000000000000008152600401611d8d90612e28565b60405180910390fd5b611d9e611ebc565b565b6000819050919050565b6000819050919050565b611dbd81611e99565b611dfc576040517f08c379a0000000000000000000000000000000000000000000000000000000008152600401611df390612dc8565b60405180910390fd5b80611e297f360894a13ba1a3210667c828492db98dca3e2076cc3735a920a3ca505d382bbc60001b611da0565b60000160006101000a81548173ffffffffffffffffffffffffffffffffffffffff021916908373ffffffffffffffffffffffffffffffffffffffff16021790555050565b611e7683611f1d565b600082511180611e835750805b15611e9457611e928383611f6c565b505b505050565b6000808273ffffffffffffffffffffffffffffffffffffffff163b119050919050565b600060019054906101000a900460ff16611f0b576040517f08c379a0000000000000000000000000000000000000000000000000000000008152600401611f0290612e28565b60405180910390fd5b611f1b611f166118d9565b611b60565b565b611f2681611db4565b8073ffffffffffffffffffffffffffffffffffffffff167fbc7cd75a20ee27fd9adebab32041f755214dbc6bffa90cc0225b39da2e5c2d3b60405160405180910390a250565b6060611f7783611e99565b611fb6576040517f08c379a0000000000000000000000000000000000000000000000000000000008152600401611fad90612e08565b60405180910390fd5b6000808473ffffffffffffffffffffffffffffffffffffffff1684604051611fde9190612b1a565b600060405180830381855af49150503d8060008114612019576040519150601f19603f3d011682016040523d82523d6000602084013e61201e565b606091505b509150915061204682826040518060600160405280602781526020016138bc60279139612050565b9250505092915050565b60608315612060578290506120b0565b6000835111156120735782518084602001fd5b816040517f08c379a00000000000000000000000000000000000000000000000000000000081526004016120a79190612c26565b60405180910390fd5b9392505050565b60006120ca6120c584612ff9565b612fd4565b905080838252602082019050828560208602820111156120e957600080fd5b60005b8581101561211957816120ff88826121cd565b8452602084019350602083019250506001810190506120ec565b5050509392505050565b600061213661213184613025565b612fd4565b9050808382526020820190508285602086028201111561215557600080fd5b60005b85811015612185578161216b88826122c9565b845260208401935060208301925050600181019050612158565b5050509392505050565b60006121a261219d84613051565b612fd4565b9050828152602081018484840111156121ba57600080fd5b6121c5848285613246565b509392505050565b6000813590506121dc81613803565b92915050565b6000815190506121f18161381a565b92915050565b600082601f83011261220857600080fd5b81356122188482602086016120b7565b91505092915050565b600082601f83011261223257600080fd5b8135612242848260208601612123565b91505092915050565b60008151905061225a81613831565b92915050565b60008151905061226f81613848565b92915050565b600082601f83011261228657600080fd5b813561229684826020860161218f565b91505092915050565b6000815190506122ae8161385f565b92915050565b6000813590506122c381613876565b92915050565b6000813590506122d88161388d565b92915050565b6000815190506122ed8161388d565b92915050565b600081519050612302816138a4565b92915050565b60006020828403121561231a57600080fd5b6000612328848285016121cd565b91505092915050565b60006020828403121561234357600080fd5b6000612351848285016121e2565b91505092915050565b60008060006060848603121561236f57600080fd5b600061237d868287016121cd565b935050602084013567ffffffffffffffff81111561239a57600080fd5b6123a6868287016121f7565b925050604084013567ffffffffffffffff8111156123c357600080fd5b6123cf86828701612221565b9150509250925092565b600080604083850312156123ec57600080fd5b60006123fa858286016121cd565b925050602083013567ffffffffffffffff81111561241757600080fd5b61242385828601612275565b9150509250929050565b6000806040838503121561244057600080fd5b600061244e858286016121cd565b925050602061245f858286016122c9565b9150509250929050565b60006020828403121561247b57600080fd5b60006124898482850161224b565b91505092915050565b6000602082840312156124a457600080fd5b60006124b284828501612260565b91505092915050565b6000602082840312156124cd57600080fd5b60006124db848285016122b4565b91505092915050565b600080600080608085870312156124fa57600080fd5b6000612508878288016122b4565b9450506020612519878288016121cd565b935050604061252a878288016122c9565b925050606061253b878288016121cd565b91505092959194509250565b60008060008060008060c0878903121561256057600080fd5b600061256e89828a016122b4565b965050602087013567ffffffffffffffff81111561258b57600080fd5b61259789828a01612275565b95505060406125a889828a016122c9565b94505060606125b989828a016121cd565b93505060806125ca89828a016122c9565b92505060a087013567ffffffffffffffff8111156125e757600080fd5b6125f389828a01612275565b9150509295509295509295565b60006020828403121561261257600080fd5b6000612620848285016122c9565b91505092915050565b60006020828403121561263b57600080fd5b6000612649848285016122de565b91505092915050565b6000806040838503121561266557600080fd5b6000612673858286016122de565b9250506020612684858286016122de565b9150509250929050565b600080600080600060a086880312156126a657600080fd5b60006126b4888289016122f3565b95505060206126c58882890161229f565b94505060406126d6888289016122de565b93505060606126e7888289016122de565b92505060806126f8888289016122f3565b9150509295509295909350565b61270e816131a7565b82525050565b61271d81613195565b82525050565b61273461272f82613195565b613302565b82525050565b612743816131b9565b82525050565b612752816131c5565b82525050565b600061276382613082565b61276d8185613098565b935061277d818560208601613255565b612786816133b3565b840191505092915050565b600061279c82613082565b6127a681856130a9565b93506127b6818560208601613255565b6127bf816133b3565b840191505092915050565b60006127d582613082565b6127df81856130ba565b93506127ef818560208601613255565b80840191505092915050565b61280481613234565b82525050565b60006128158261308d565b61281f81856130c5565b935061282f818560208601613255565b612838816133b3565b840191505092915050565b60006128506026836130c5565b915061285b826133d1565b604082019050919050565b60006128736028836130c5565b915061287e82613420565b604082019050919050565b6000612896602c836130c5565b91506128a18261346f565b604082019050919050565b60006128b96016836130c5565b91506128c4826134be565b602082019050919050565b60006128dc600f836130c5565b91506128e7826134e7565b602082019050919050565b60006128ff602c836130c5565b915061290a82613510565b604082019050919050565b60006129226038836130c5565b915061292d8261355f565b604082019050919050565b60006129456029836130c5565b9150612950826135ae565b604082019050919050565b60006129686017836130c5565b9150612973826135fd565b602082019050919050565b600061298b602e836130c5565b915061299682613626565b604082019050919050565b60006129ae602e836130c5565b91506129b982613675565b604082019050919050565b60006129d16018836130c5565b91506129dc826136c4565b602082019050919050565b60006129f4602d836130c5565b91506129ff826136ed565b604082019050919050565b6000612a176020836130c5565b9150612a228261373c565b602082019050919050565b6000612a3a6026836130c5565b9150612a4582613765565b604082019050919050565b6000612a5d602b836130c5565b9150612a68826137b4565b604082019050919050565b6000606083016000830151612a8b6000860182612ad2565b506020830151612a9e6020860182612ad2565b5060408301518482036040860152612ab68282612758565b9150508091505092915050565b612acc816131d9565b82525050565b612adb81613207565b82525050565b612aea81613207565b82525050565b612af981613211565b82525050565b6000612b0b8284612723565b60148201915081905092915050565b6000612b2682846127ca565b915081905092915050565b6000602082019050612b466000830184612714565b92915050565b6000604082019050612b616000830185612714565b612b6e6020830184612714565b9392505050565b6000606082019050612b8a6000830186612714565b612b976020830185612714565b612ba46040830184612ae1565b949350505050565b6000604082019050612bc16000830185612714565b612bce6020830184612ae1565b9392505050565b6000602082019050612bea600083018461273a565b92915050565b6000602082019050612c056000830184612749565b92915050565b6000602082019050612c2060008301846127fb565b92915050565b60006020820190508181036000830152612c40818461280a565b905092915050565b60006020820190508181036000830152612c6181612843565b9050919050565b60006020820190508181036000830152612c8181612866565b9050919050565b60006020820190508181036000830152612ca181612889565b9050919050565b60006020820190508181036000830152612cc1816128ac565b9050919050565b60006020820190508181036000830152612ce1816128cf565b9050919050565b60006020820190508181036000830152612d01816128f2565b9050919050565b60006020820190508181036000830152612d2181612915565b9050919050565b60006020820190508181036000830152612d4181612938565b9050919050565b60006020820190508181036000830152612d618161295b565b9050919050565b60006020820190508181036000830152612d818161297e565b9050919050565b60006020820190508181036000830152612da1816129a1565b9050919050565b60006020820190508181036000830152612dc1816129c4565b9050919050565b60006020820190508181036000830152612de1816129e7565b9050919050565b60006020820190508181036000830152612e0181612a0a565b9050919050565b60006020820190508181036000830152612e2181612a2d565b9050919050565b60006020820190508181036000830152612e4181612a50565b9050919050565b6000608082019050612e5d6000830187612ac3565b8181036020830152612e6f8186612791565b9050612e7e6040830185612714565b612e8b6060830184612ae1565b95945050505050565b600061012082019050612eaa600083018c612ac3565b612eb7602083018b612ae1565b612ec4604083018a612ae1565b612ed16060830189612705565b612ede6080830188612ae1565b612eeb60a0830187612ae1565b81810360c0830152612efd8186612a73565b905081810360e0830152612f118185612791565b9050818103610100830152612f268184612791565b90509a9950505050505050505050565b600060a082019050612f4b6000830188612ac3565b612f586020830187612af0565b8181036040830152612f6a8186612791565b90508181036060830152612f7e8185612791565b90508181036080830152612f928184612a73565b90509695505050505050565b6000602082019050612fb36000830184612ae1565b92915050565b6000602082019050612fce6000830184612af0565b92915050565b6000612fde612fef565b9050612fea8282613288565b919050565b6000604051905090565b600067ffffffffffffffff82111561301457613013613384565b5b602082029050602081019050919050565b600067ffffffffffffffff8211156130405761303f613384565b5b602082029050602081019050919050565b600067ffffffffffffffff82111561306c5761306b613384565b5b613075826133b3565b9050602081019050919050565b600081519050919050565b600081519050919050565b600082825260208201905092915050565b600082825260208201905092915050565b600081905092915050565b600082825260208201905092915050565b60006130e182613207565b91506130ec83613207565b9250826130fc576130fb613355565b5b828204905092915050565b600061311282613207565b915061311d83613207565b9250817fffffffffffffffffffffffffffffffffffffffffffffffffffffffffffffffff048311821515161561315657613155613326565b5b828202905092915050565b600061316c82613207565b915061317783613207565b92508282101561318a57613189613326565b5b828203905092915050565b60006131a0826131e7565b9050919050565b60006131b2826131e7565b9050919050565b60008115159050919050565b6000819050919050565b6000819050919050565b600061ffff82169050919050565b600073ffffffffffffffffffffffffffffffffffffffff82169050919050565b6000819050919050565b600060ff82169050919050565b600069ffffffffffffffffffff82169050919050565b600061323f82613211565b9050919050565b82818337600083830152505050565b60005b83811015613273578082015181840152602081019050613258565b83811115613282576000848401525b50505050565b613291826133b3565b810181811067ffffffffffffffff821117156132b0576132af613384565b5b80604052505050565b60006132c482613207565b91507fffffffffffffffffffffffffffffffffffffffffffffffffffffffffffffffff8214156132f7576132f6613326565b5b600182019050919050565b600061330d82613314565b9050919050565b600061331f826133c4565b9050919050565b7f4e487b7100000000000000000000000000000000000000000000000000000000600052601160045260246000fd5b7f4e487b7100000000000000000000000000000000000000000000000000000000600052601260045260246000fd5b7f4e487b7100000000000000000000000000000000000000000000000000000000600052604160045260246000fd5b6000601f19601f8301169050919050565b60008160601b9050919050565b7f4f776e61626c653a206e6577206f776e657220697320746865207a65726f206160008201527f6464726573730000000000000000000000000000000000000000000000000000602082015250565b7f6f6e6c7920737461726761746520726f757465722063616e2063616c6c20736760008201527f5265636569766521000000000000000000000000000000000000000000000000602082015250565b7f46756e6374696f6e206d7573742062652063616c6c6564207468726f7567682060008201527f64656c656761746563616c6c0000000000000000000000000000000000000000602082015250565b7f416c6c6f77616e6365206e6f7420616465717561746500000000000000000000600082015250565b7f4173736574204e6f742041646465640000000000000000000000000000000000600082015250565b7f46756e6374696f6e206d7573742062652063616c6c6564207468726f7567682060008201527f6163746976652070726f78790000000000000000000000000000000000000000602082015250565b7f555550535570677261646561626c653a206d757374206e6f742062652063616c60008201527f6c6564207468726f7567682064656c656761746563616c6c0000000000000000602082015250565b7f45524331393637557067726164653a20756e737570706f727465642070726f7860008201527f6961626c65555549440000000000000000000000000000000000000000000000602082015250565b7f4d7573742062652076616c69646c792061646472657373000000000000000000600082015250565b7f496e697469616c697a61626c653a20636f6e747261637420697320616c72656160008201527f647920696e697469616c697a6564000000000000000000000000000000000000602082015250565b7f45524331393637557067726164653a206e657720696d706c656d656e7461746960008201527f6f6e206973206e6f742055555053000000000000000000000000000000000000602082015250565b7f4e6f7420656e6f7567682066756e647320666f72206761730000000000000000600082015250565b7f455243313936373a206e657720696d706c656d656e746174696f6e206973206e60008201527f6f74206120636f6e747261637400000000000000000000000000000000000000602082015250565b7f4f776e61626c653a2063616c6c6572206973206e6f7420746865206f776e6572600082015250565b7f416464726573733a2064656c65676174652063616c6c20746f206e6f6e2d636f60008201527f6e74726163740000000000000000000000000000000000000000000000000000602082015250565b7f496e697469616c697a61626c653a20636f6e7472616374206973206e6f74206960008201527f6e697469616c697a696e67000000000000000000000000000000000000000000602082015250565b61380c81613195565b811461381757600080fd5b50565b613823816131a7565b811461382e57600080fd5b50565b61383a816131b9565b811461384557600080fd5b50565b613851816131c5565b811461385c57600080fd5b50565b613868816131cf565b811461387357600080fd5b50565b61387f816131d9565b811461388a57600080fd5b50565b61389681613207565b81146138a157600080fd5b50565b6138ad8161321e565b81146138b857600080fd5b5056fe416464726573733a206c6f772d6c6576656c2064656c65676174652063616c6c206661696c6564a264697066735822122028cc60f936e7b7f679ba2f72a5b06ff2685146de486d4df1eaa72d2d3d09b0f964736f6c63430008040033",
  "linkReferences": {},
  "deployedLinkReferences": {}
}