{
  "_format": "hh-sol-artifact-1",
  "contractName": "CollectionFactory",
  "sourceName": "contracts/CollectionFactory.sol",
  "abi": [
    {
      "inputs": [],
      "stateMutability": "nonpayable",
      "type": "constructor"
    },
    {
      "anonymous": false,
      "inputs": [
        {
          "indexed": true,
          "internalType": "address",
          "name": "user",
          "type": "address"
        },
        {
          "indexed": false,
          "internalType": "string",
          "name": "name",
          "type": "string"
        },
        {
          "indexed": false,
          "internalType": "string",
          "name": "symbol",
          "type": "string"
        }
      ],
      "name": "CreateCollection",
      "type": "event"
    },
    {
      "inputs": [
        {
          "internalType": "string",
          "name": "_name",
          "type": "string"
        },
        {
          "internalType": "string",
          "name": "_symbol",
          "type": "string"
        },
        {
          "internalType": "string",
          "name": "baseURI",
          "type": "string"
        }
      ],
      "name": "createCollection",
      "outputs": [],
      "stateMutability": "payable",
      "type": "function"
    },
    {
      "inputs": [
        {
          "internalType": "uint256",
          "name": "",
          "type": "uint256"
        }
      ],
      "name": "deployedCollections",
      "outputs": [
        {
          "internalType": "contract Collection",
          "name": "",
          "type": "address"
        }
      ],
      "stateMutability": "view",
      "type": "function"
    },
    {
      "inputs": [],
      "name": "getDeployedCollections",
      "outputs": [
        {
          "internalType": "contract Collection[]",
          "name": "",
          "type": "address[]"
        }
      ],
      "stateMutability": "view",
      "type": "function"
    }
  ],
  "bytecode": "0x608060405234801561001057600080fd5b50613caa806100206000396000f3fe608060405260043610620000385760003560e01c806331d9b409146200003d5780639e4fe1b01462000081578063ece86c2114620000b1575b600080fd5b3480156200004a57600080fd5b50620000696004803603810190620000639190620003d7565b620000d1565b6040516200007891906200051f565b60405180910390f35b3480156200008e57600080fd5b506200009962000111565b604051620000a89190620004fb565b60405180910390f35b620000cf6004803603810190620000c9919062000336565b620001a1565b005b60008181548110620000e257600080fd5b906000526020600020016000915054906101000a900473ffffffffffffffffffffffffffffffffffffffff1681565b606060008054806020026020016040519081016040528092919081815260200182805480156200019757602002820191906000526020600020905b8160009054906101000a900473ffffffffffffffffffffffffffffffffffffffff1673ffffffffffffffffffffffffffffffffffffffff16815260200190600101908083116200014c575b5050505050905090565b600083833384604051620001b5906200029f565b620001c4949392919062000577565b604051809103906000f080158015620001e1573d6000803e3d6000fd5b5090506000819080600181540180825580915050600190039060005260206000200160009091909190916101000a81548173ffffffffffffffffffffffffffffffffffffffff021916908373ffffffffffffffffffffffffffffffffffffffff1602179055503373ffffffffffffffffffffffffffffffffffffffff167fdd580899028ee224578640a8896d563977bfe758955b9d75433fb311b60bcb118585604051620002919291906200053c565b60405180910390a250505050565b6134ac80620007c983390190565b6000620002c4620002be8462000602565b620005d9565b905082815260208101848484011115620002dd57600080fd5b620002ea848285620006f3565b509392505050565b600082601f8301126200030457600080fd5b813562000316848260208601620002ad565b91505092915050565b6000813590506200033081620007ae565b92915050565b6000806000606084860312156200034c57600080fd5b600084013567ffffffffffffffff8111156200036757600080fd5b6200037586828701620002f2565b935050602084013567ffffffffffffffff8111156200039357600080fd5b620003a186828701620002f2565b925050604084013567ffffffffffffffff811115620003bf57600080fd5b620003cd86828701620002f2565b9150509250925092565b600060208284031215620003ea57600080fd5b6000620003fa848285016200031f565b91505092915050565b600062000411838362000498565b60208301905092915050565b62000428816200068d565b82525050565b60006200043b8262000648565b6200044781856200066b565b9350620004548362000638565b8060005b838110156200048b5781516200046f888262000403565b97506200047c836200065e565b92505060018101905062000458565b5085935050505092915050565b620004a381620006cb565b82525050565b620004b481620006cb565b82525050565b6000620004c78262000653565b620004d381856200067c565b9350620004e581856020860162000702565b620004f0816200079d565b840191505092915050565b600060208201905081810360008301526200051781846200042e565b905092915050565b6000602082019050620005366000830184620004a9565b92915050565b60006040820190508181036000830152620005588185620004ba565b905081810360208301526200056e8184620004ba565b90509392505050565b60006080820190508181036000830152620005938187620004ba565b90508181036020830152620005a98186620004ba565b9050620005ba60408301856200041d565b8181036060830152620005ce8184620004ba565b905095945050505050565b6000620005e5620005f8565b9050620005f3828262000738565b919050565b6000604051905090565b600067ffffffffffffffff82111562000620576200061f6200076e565b5b6200062b826200079d565b9050602081019050919050565b6000819050602082019050919050565b600081519050919050565b600081519050919050565b6000602082019050919050565b600082825260208201905092915050565b600082825260208201905092915050565b60006200069a82620006a1565b9050919050565b600073ffffffffffffffffffffffffffffffffffffffff82169050919050565b6000819050919050565b6000620006d882620006df565b9050919050565b6000620006ec82620006a1565b9050919050565b82818337600083830152505050565b60005b838110156200072257808201518184015260208101905062000705565b8381111562000732576000848401525b50505050565b62000743826200079d565b810181811067ffffffffffffffff821117156200076557620007646200076e565b5b80604052505050565b7f4e487b7100000000000000000000000000000000000000000000000000000000600052604160045260246000fd5b6000601f19601f8301169050919050565b620007b981620006c1565b8114620007c557600080fd5b5056fe60806040523480156200001157600080fd5b50604051620034ac380380620034ac83398181016040528101906200003791906200026a565b838381600090805190602001906200005192919062000131565b5080600190805190602001906200006a92919062000131565b50505081600760006101000a81548173ffffffffffffffffffffffffffffffffffffffff021916908373ffffffffffffffffffffffffffffffffffffffff1602179055506001600960008473ffffffffffffffffffffffffffffffffffffffff1673ffffffffffffffffffffffffffffffffffffffff16815260200190815260200160002060006101000a81548160ff02191690831515021790555080600690805190602001906200011e92919062000131565b50600060088190555050505050620004df565b8280546200013f90620003ea565b90600052602060002090601f016020900481019282620001635760008555620001af565b82601f106200017e57805160ff1916838001178555620001af565b82800160010185558215620001af579182015b82811115620001ae57825182559160200191906001019062000191565b5b509050620001be9190620001c2565b5090565b5b80821115620001dd576000816000905550600101620001c3565b5090565b6000620001f8620001f2846200034a565b62000321565b9050828152602081018484840111156200021157600080fd5b6200021e848285620003b4565b509392505050565b6000815190506200023781620004c5565b92915050565b600082601f8301126200024f57600080fd5b815162000261848260208601620001e1565b91505092915050565b600080600080608085870312156200028157600080fd5b600085015167ffffffffffffffff8111156200029c57600080fd5b620002aa878288016200023d565b945050602085015167ffffffffffffffff811115620002c857600080fd5b620002d6878288016200023d565b9350506040620002e98782880162000226565b925050606085015167ffffffffffffffff8111156200030757600080fd5b62000315878288016200023d565b91505092959194509250565b60006200032d62000340565b90506200033b828262000420565b919050565b6000604051905090565b600067ffffffffffffffff82111562000368576200036762000485565b5b6200037382620004b4565b9050602081019050919050565b60006200038d8262000394565b9050919050565b600073ffffffffffffffffffffffffffffffffffffffff82169050919050565b60005b83811015620003d4578082015181840152602081019050620003b7565b83811115620003e4576000848401525b50505050565b600060028204905060018216806200040357607f821691505b602082108114156200041a576200041962000456565b5b50919050565b6200042b82620004b4565b810181811067ffffffffffffffff821117156200044d576200044c62000485565b5b80604052505050565b7f4e487b7100000000000000000000000000000000000000000000000000000000600052602260045260246000fd5b7f4e487b7100000000000000000000000000000000000000000000000000000000600052604160045260246000fd5b6000601f19601f8301169050919050565b620004d08162000380565b8114620004dc57600080fd5b50565b612fbd80620004ef6000396000f3fe608060405234801561001057600080fd5b50600436106101375760003560e01c806370a08231116100b8578063c87b56dd1161007c578063c87b56dd14610338578063ce114c2514610368578063d082e38114610384578063d8e773a2146103a2578063e985e9c5146103d2578063f2fde38b1461040257610137565b806370a08231146102945780638da5cb5b146102c457806395d89b41146102e2578063a22cb46514610300578063b88d4fde1461031c57610137565b806323b872dd116100ff57806323b872dd146101f257806342842e0e1461020e5780636352211e1461022a5780636a6278421461025a5780636c0360eb1461027657610137565b806301ffc9a71461013c57806306fdde031461016c578063081812fc1461018a578063095ea7b3146101ba57806316ef56da146101d6575b600080fd5b61015660048036038101906101519190612095565b61041e565b604051610163919061249b565b60405180910390f35b610174610500565b60405161018191906124b6565b60405180910390f35b6101a4600480360381019061019f91906120e7565b610592565b6040516101b19190612434565b60405180910390f35b6101d460048036038101906101cf9190612018565b610617565b005b6101f060048036038101906101eb9190612054565b61072f565b005b61020c60048036038101906102079190611f12565b61087a565b005b61022860048036038101906102239190611f12565b6108da565b005b610244600480360381019061023f91906120e7565b6108fa565b6040516102519190612434565b60405180910390f35b610274600480360381019061026f9190611ead565b6109ac565b005b61027e610ab5565b60405161028b91906124b6565b60405180910390f35b6102ae60048036038101906102a99190611ead565b610b43565b6040516102bb91906126d8565b60405180910390f35b6102cc610bfb565b6040516102d99190612434565b60405180910390f35b6102ea610c21565b6040516102f791906124b6565b60405180910390f35b61031a60048036038101906103159190611fdc565b610cb3565b005b61033660048036038101906103319190611f61565b610cc9565b005b610352600480360381019061034d91906120e7565b610d2b565b60405161035f91906124b6565b60405180910390f35b610382600480360381019061037d9190611ead565b610dd2565b005b61038c610ebd565b60405161039991906126d8565b60405180910390f35b6103bc60048036038101906103b79190611ead565b610ec3565b6040516103c9919061249b565b60405180910390f35b6103ec60048036038101906103e79190611ed6565b610ee3565b6040516103f9919061249b565b60405180910390f35b61041c60048036038101906104179190611ead565b610f77565b005b60007f80ac58cd000000000000000000000000000000000000000000000000000000007bffffffffffffffffffffffffffffffffffffffffffffffffffffffff1916827bffffffffffffffffffffffffffffffffffffffffffffffffffffffff191614806104e957507f5b5e139f000000000000000000000000000000000000000000000000000000007bffffffffffffffffffffffffffffffffffffffffffffffffffffffff1916827bffffffffffffffffffffffffffffffffffffffffffffffffffffffff1916145b806104f957506104f88261104b565b5b9050919050565b60606000805461050f90612929565b80601f016020809104026020016040519081016040528092919081815260200182805461053b90612929565b80156105885780601f1061055d57610100808354040283529160200191610588565b820191906000526020600020905b81548152906001019060200180831161056b57829003601f168201915b5050505050905090565b600061059d826110b5565b6105dc576040517f08c379a00000000000000000000000000000000000000000000000000000000081526004016105d390612618565b60405180910390fd5b6004600083815260200190815260200160002060009054906101000a900473ffffffffffffffffffffffffffffffffffffffff169050919050565b6000610622826108fa565b90508073ffffffffffffffffffffffffffffffffffffffff168373ffffffffffffffffffffffffffffffffffffffff161415610693576040517f08c379a000000000000000000000000000000000000000000000000000000000815260040161068a90612678565b60405180910390fd5b8073ffffffffffffffffffffffffffffffffffffffff166106b2611121565b73ffffffffffffffffffffffffffffffffffffffff1614806106e157506106e0816106db611121565b610ee3565b5b610720576040517f08c379a000000000000000000000000000000000000000000000000000000000815260040161071790612598565b60405180910390fd5b61072a8383611129565b505050565b3373ffffffffffffffffffffffffffffffffffffffff16600760009054906101000a900473ffffffffffffffffffffffffffffffffffffffff1673ffffffffffffffffffffffffffffffffffffffff16146107bf576040517f08c379a00000000000000000000000000000000000000000000000000000000081526004016107b690612638565b60405180910390fd5b60005b81518110156108765760016009600084848151811061080a577f4e487b7100000000000000000000000000000000000000000000000000000000600052603260045260246000fd5b602002602001015173ffffffffffffffffffffffffffffffffffffffff1673ffffffffffffffffffffffffffffffffffffffff16815260200190815260200160002060006101000a81548160ff021916908315150217905550808061086e9061298c565b9150506107c2565b5050565b61088b610885611121565b826111e2565b6108ca576040517f08c379a00000000000000000000000000000000000000000000000000000000081526004016108c190612698565b60405180910390fd5b6108d58383836112c0565b505050565b6108f583838360405180602001604052806000815250610cc9565b505050565b6000806002600084815260200190815260200160002060009054906101000a900473ffffffffffffffffffffffffffffffffffffffff169050600073ffffffffffffffffffffffffffffffffffffffff168173ffffffffffffffffffffffffffffffffffffffff1614156109a3576040517f08c379a000000000000000000000000000000000000000000000000000000000815260040161099a906125d8565b60405180910390fd5b80915050919050565b3360011515600960008373ffffffffffffffffffffffffffffffffffffffff1673ffffffffffffffffffffffffffffffffffffffff16815260200190815260200160002060009054906101000a900460ff16151514610a40576040517f08c379a0000000000000000000000000000000000000000000000000000000008152600401610a37906126b8565b60405180910390fd5b610a4c82600854611527565b8173ffffffffffffffffffffffffffffffffffffffff167ff19b743abf6a24875bd9a8873ae82403272775aa7189f03b3a49aa9601d18212600854604051610a9491906126d8565b60405180910390a26001600854610aab91906127b8565b6008819055505050565b60068054610ac290612929565b80601f0160208091040260200160405190810160405280929190818152602001828054610aee90612929565b8015610b3b5780601f10610b1057610100808354040283529160200191610b3b565b820191906000526020600020905b815481529060010190602001808311610b1e57829003601f168201915b505050505081565b60008073ffffffffffffffffffffffffffffffffffffffff168273ffffffffffffffffffffffffffffffffffffffff161415610bb4576040517f08c379a0000000000000000000000000000000000000000000000000000000008152600401610bab906125b8565b60405180910390fd5b600360008373ffffffffffffffffffffffffffffffffffffffff1673ffffffffffffffffffffffffffffffffffffffff168152602001908152602001600020549050919050565b600760009054906101000a900473ffffffffffffffffffffffffffffffffffffffff1681565b606060018054610c3090612929565b80601f0160208091040260200160405190810160405280929190818152602001828054610c5c90612929565b8015610ca95780601f10610c7e57610100808354040283529160200191610ca9565b820191906000526020600020905b815481529060010190602001808311610c8c57829003601f168201915b5050505050905090565b610cc5610cbe611121565b8383611545565b5050565b610cda610cd4611121565b836111e2565b610d19576040517f08c379a0000000000000000000000000000000000000000000000000000000008152600401610d1090612698565b60405180910390fd5b610d25848484846116b2565b50505050565b6060610d36826110b5565b610d75576040517f08c379a0000000000000000000000000000000000000000000000000000000008152600401610d6c90612658565b60405180910390fd5b6000610d7f61170e565b90506000815111610d9f5760405180602001604052806000815250610dca565b80610da9846117a0565b604051602001610dba929190612410565b6040516020818303038152906040525b915050919050565b3373ffffffffffffffffffffffffffffffffffffffff16600760009054906101000a900473ffffffffffffffffffffffffffffffffffffffff1673ffffffffffffffffffffffffffffffffffffffff1614610e62576040517f08c379a0000000000000000000000000000000000000000000000000000000008152600401610e5990612638565b60405180910390fd5b6000600960008373ffffffffffffffffffffffffffffffffffffffff1673ffffffffffffffffffffffffffffffffffffffff16815260200190815260200160002060006101000a81548160ff02191690831515021790555050565b60085481565b60096020528060005260406000206000915054906101000a900460ff1681565b6000600560008473ffffffffffffffffffffffffffffffffffffffff1673ffffffffffffffffffffffffffffffffffffffff16815260200190815260200160002060008373ffffffffffffffffffffffffffffffffffffffff1673ffffffffffffffffffffffffffffffffffffffff16815260200190815260200160002060009054906101000a900460ff16905092915050565b3373ffffffffffffffffffffffffffffffffffffffff16600760009054906101000a900473ffffffffffffffffffffffffffffffffffffffff1673ffffffffffffffffffffffffffffffffffffffff1614611007576040517f08c379a0000000000000000000000000000000000000000000000000000000008152600401610ffe90612638565b60405180910390fd5b80600760006101000a81548173ffffffffffffffffffffffffffffffffffffffff021916908373ffffffffffffffffffffffffffffffffffffffff16021790555050565b60007f01ffc9a7000000000000000000000000000000000000000000000000000000007bffffffffffffffffffffffffffffffffffffffffffffffffffffffff1916827bffffffffffffffffffffffffffffffffffffffffffffffffffffffff1916149050919050565b60008073ffffffffffffffffffffffffffffffffffffffff166002600084815260200190815260200160002060009054906101000a900473ffffffffffffffffffffffffffffffffffffffff1673ffffffffffffffffffffffffffffffffffffffff1614159050919050565b600033905090565b816004600083815260200190815260200160002060006101000a81548173ffffffffffffffffffffffffffffffffffffffff021916908373ffffffffffffffffffffffffffffffffffffffff160217905550808273ffffffffffffffffffffffffffffffffffffffff1661119c836108fa565b73ffffffffffffffffffffffffffffffffffffffff167f8c5be1e5ebec7d5bd14f71427d1e84f3dd0314c0f7b2291e5b200ac8c7c3b92560405160405180910390a45050565b60006111ed826110b5565b61122c576040517f08c379a000000000000000000000000000000000000000000000000000000000815260040161122390612578565b60405180910390fd5b6000611237836108fa565b90508073ffffffffffffffffffffffffffffffffffffffff168473ffffffffffffffffffffffffffffffffffffffff1614806112a657508373ffffffffffffffffffffffffffffffffffffffff1661128e84610592565b73ffffffffffffffffffffffffffffffffffffffff16145b806112b757506112b68185610ee3565b5b91505092915050565b8273ffffffffffffffffffffffffffffffffffffffff166112e0826108fa565b73ffffffffffffffffffffffffffffffffffffffff1614611336576040517f08c379a000000000000000000000000000000000000000000000000000000000815260040161132d906124f8565b60405180910390fd5b600073ffffffffffffffffffffffffffffffffffffffff168273ffffffffffffffffffffffffffffffffffffffff1614156113a6576040517f08c379a000000000000000000000000000000000000000000000000000000000815260040161139d90612538565b60405180910390fd5b6113b183838361194d565b6113bc600082611129565b6001600360008573ffffffffffffffffffffffffffffffffffffffff1673ffffffffffffffffffffffffffffffffffffffff168152602001908152602001600020600082825461140c919061283f565b925050819055506001600360008473ffffffffffffffffffffffffffffffffffffffff1673ffffffffffffffffffffffffffffffffffffffff168152602001908152602001600020600082825461146391906127b8565b92505081905550816002600083815260200190815260200160002060006101000a81548173ffffffffffffffffffffffffffffffffffffffff021916908373ffffffffffffffffffffffffffffffffffffffff160217905550808273ffffffffffffffffffffffffffffffffffffffff168473ffffffffffffffffffffffffffffffffffffffff167fddf252ad1be2c89b69c2b068fc378daa952ba7f163c4a11628f55a4df523b3ef60405160405180910390a4611522838383611952565b505050565b611541828260405180602001604052806000815250611957565b5050565b8173ffffffffffffffffffffffffffffffffffffffff168373ffffffffffffffffffffffffffffffffffffffff1614156115b4576040517f08c379a00000000000000000000000000000000000000000000000000000000081526004016115ab90612558565b60405180910390fd5b80600560008573ffffffffffffffffffffffffffffffffffffffff1673ffffffffffffffffffffffffffffffffffffffff16815260200190815260200160002060008473ffffffffffffffffffffffffffffffffffffffff1673ffffffffffffffffffffffffffffffffffffffff16815260200190815260200160002060006101000a81548160ff0219169083151502179055508173ffffffffffffffffffffffffffffffffffffffff168373ffffffffffffffffffffffffffffffffffffffff167f17307eab39ab6107e8899845ad3d59bd9653f200f220920489ca2b5937696c31836040516116a5919061249b565b60405180910390a3505050565b6116bd8484846112c0565b6116c9848484846119b2565b611708576040517f08c379a00000000000000000000000000000000000000000000000000000000081526004016116ff906124d8565b60405180910390fd5b50505050565b60606006805461171d90612929565b80601f016020809104026020016040519081016040528092919081815260200182805461174990612929565b80156117965780601f1061176b57610100808354040283529160200191611796565b820191906000526020600020905b81548152906001019060200180831161177957829003601f168201915b5050505050905090565b606060008214156117e8576040518060400160405280600181526020017f30000000000000000000000000000000000000000000000000000000000000008152509050611948565b600082905060005b6000821461181a5780806118039061298c565b915050600a82611813919061280e565b91506117f0565b60008167ffffffffffffffff81111561185c577f4e487b7100000000000000000000000000000000000000000000000000000000600052604160045260246000fd5b6040519080825280601f01601f19166020018201604052801561188e5781602001600182028036833780820191505090505b5090505b60008514611941576001826118a7919061283f565b9150600a856118b691906129d5565b60306118c291906127b8565b60f81b8183815181106118fe577f4e487b7100000000000000000000000000000000000000000000000000000000600052603260045260246000fd5b60200101907effffffffffffffffffffffffffffffffffffffffffffffffffffffffffffff1916908160001a905350600a8561193a919061280e565b9450611892565b8093505050505b919050565b505050565b505050565b6119618383611b49565b61196e60008484846119b2565b6119ad576040517f08c379a00000000000000000000000000000000000000000000000000000000081526004016119a4906124d8565b60405180910390fd5b505050565b60006119d38473ffffffffffffffffffffffffffffffffffffffff16611d23565b15611b3c578373ffffffffffffffffffffffffffffffffffffffff1663150b7a026119fc611121565b8786866040518563ffffffff1660e01b8152600401611a1e949392919061244f565b602060405180830381600087803b158015611a3857600080fd5b505af1925050508015611a6957506040513d601f19601f82011682018060405250810190611a6691906120be565b60015b611aec573d8060008114611a99576040519150601f19603f3d011682016040523d82523d6000602084013e611a9e565b606091505b50600081511415611ae4576040517f08c379a0000000000000000000000000000000000000000000000000000000008152600401611adb906124d8565b60405180910390fd5b805181602001fd5b63150b7a0260e01b7bffffffffffffffffffffffffffffffffffffffffffffffffffffffff1916817bffffffffffffffffffffffffffffffffffffffffffffffffffffffff191614915050611b41565b600190505b949350505050565b600073ffffffffffffffffffffffffffffffffffffffff168273ffffffffffffffffffffffffffffffffffffffff161415611bb9576040517f08c379a0000000000000000000000000000000000000000000000000000000008152600401611bb0906125f8565b60405180910390fd5b611bc2816110b5565b15611c02576040517f08c379a0000000000000000000000000000000000000000000000000000000008152600401611bf990612518565b60405180910390fd5b611c0e6000838361194d565b6001600360008473ffffffffffffffffffffffffffffffffffffffff1673ffffffffffffffffffffffffffffffffffffffff1681526020019081526020016000206000828254611c5e91906127b8565b92505081905550816002600083815260200190815260200160002060006101000a81548173ffffffffffffffffffffffffffffffffffffffff021916908373ffffffffffffffffffffffffffffffffffffffff160217905550808273ffffffffffffffffffffffffffffffffffffffff16600073ffffffffffffffffffffffffffffffffffffffff167fddf252ad1be2c89b69c2b068fc378daa952ba7f163c4a11628f55a4df523b3ef60405160405180910390a4611d1f60008383611952565b5050565b6000808273ffffffffffffffffffffffffffffffffffffffff163b119050919050565b6000611d59611d5484612718565b6126f3565b90508083825260208201905082856020860282011115611d7857600080fd5b60005b85811015611da85781611d8e8882611df0565b845260208401935060208301925050600181019050611d7b565b5050509392505050565b6000611dc5611dc084612744565b6126f3565b905082815260208101848484011115611ddd57600080fd5b611de88482856128e7565b509392505050565b600081359050611dff81612f2b565b92915050565b600082601f830112611e1657600080fd5b8135611e26848260208601611d46565b91505092915050565b600081359050611e3e81612f42565b92915050565b600081359050611e5381612f59565b92915050565b600081519050611e6881612f59565b92915050565b600082601f830112611e7f57600080fd5b8135611e8f848260208601611db2565b91505092915050565b600081359050611ea781612f70565b92915050565b600060208284031215611ebf57600080fd5b6000611ecd84828501611df0565b91505092915050565b60008060408385031215611ee957600080fd5b6000611ef785828601611df0565b9250506020611f0885828601611df0565b9150509250929050565b600080600060608486031215611f2757600080fd5b6000611f3586828701611df0565b9350506020611f4686828701611df0565b9250506040611f5786828701611e98565b9150509250925092565b60008060008060808587031215611f7757600080fd5b6000611f8587828801611df0565b9450506020611f9687828801611df0565b9350506040611fa787828801611e98565b925050606085013567ffffffffffffffff811115611fc457600080fd5b611fd087828801611e6e565b91505092959194509250565b60008060408385031215611fef57600080fd5b6000611ffd85828601611df0565b925050602061200e85828601611e2f565b9150509250929050565b6000806040838503121561202b57600080fd5b600061203985828601611df0565b925050602061204a85828601611e98565b9150509250929050565b60006020828403121561206657600080fd5b600082013567ffffffffffffffff81111561208057600080fd5b61208c84828501611e05565b91505092915050565b6000602082840312156120a757600080fd5b60006120b584828501611e44565b91505092915050565b6000602082840312156120d057600080fd5b60006120de84828501611e59565b91505092915050565b6000602082840312156120f957600080fd5b600061210784828501611e98565b91505092915050565b61211981612873565b82525050565b61212881612885565b82525050565b600061213982612775565b612143818561278b565b93506121538185602086016128f6565b61215c81612ac2565b840191505092915050565b600061217282612780565b61217c818561279c565b935061218c8185602086016128f6565b61219581612ac2565b840191505092915050565b60006121ab82612780565b6121b581856127ad565b93506121c58185602086016128f6565b80840191505092915050565b60006121de60328361279c565b91506121e982612ad3565b604082019050919050565b600061220160258361279c565b915061220c82612b22565b604082019050919050565b6000612224601c8361279c565b915061222f82612b71565b602082019050919050565b600061224760248361279c565b915061225282612b9a565b604082019050919050565b600061226a60198361279c565b915061227582612be9565b602082019050919050565b600061228d602c8361279c565b915061229882612c12565b604082019050919050565b60006122b060388361279c565b91506122bb82612c61565b604082019050919050565b60006122d3602a8361279c565b91506122de82612cb0565b604082019050919050565b60006122f660298361279c565b915061230182612cff565b604082019050919050565b600061231960208361279c565b915061232482612d4e565b602082019050919050565b600061233c602c8361279c565b915061234782612d77565b604082019050919050565b600061235f60208361279c565b915061236a82612dc6565b602082019050919050565b6000612382602f8361279c565b915061238d82612def565b604082019050919050565b60006123a560218361279c565b91506123b082612e3e565b604082019050919050565b60006123c860318361279c565b91506123d382612e8d565b604082019050919050565b60006123eb602d8361279c565b91506123f682612edc565b604082019050919050565b61240a816128dd565b82525050565b600061241c82856121a0565b915061242882846121a0565b91508190509392505050565b60006020820190506124496000830184612110565b92915050565b60006080820190506124646000830187612110565b6124716020830186612110565b61247e6040830185612401565b8181036060830152612490818461212e565b905095945050505050565b60006020820190506124b0600083018461211f565b92915050565b600060208201905081810360008301526124d08184612167565b905092915050565b600060208201905081810360008301526124f1816121d1565b9050919050565b60006020820190508181036000830152612511816121f4565b9050919050565b6000602082019050818103600083015261253181612217565b9050919050565b600060208201905081810360008301526125518161223a565b9050919050565b600060208201905081810360008301526125718161225d565b9050919050565b6000602082019050818103600083015261259181612280565b9050919050565b600060208201905081810360008301526125b1816122a3565b9050919050565b600060208201905081810360008301526125d1816122c6565b9050919050565b600060208201905081810360008301526125f1816122e9565b9050919050565b600060208201905081810360008301526126118161230c565b9050919050565b600060208201905081810360008301526126318161232f565b9050919050565b6000602082019050818103600083015261265181612352565b9050919050565b6000602082019050818103600083015261267181612375565b9050919050565b6000602082019050818103600083015261269181612398565b9050919050565b600060208201905081810360008301526126b1816123bb565b9050919050565b600060208201905081810360008301526126d1816123de565b9050919050565b60006020820190506126ed6000830184612401565b92915050565b60006126fd61270e565b9050612709828261295b565b919050565b6000604051905090565b600067ffffffffffffffff82111561273357612732612a93565b5b602082029050602081019050919050565b600067ffffffffffffffff82111561275f5761275e612a93565b5b61276882612ac2565b9050602081019050919050565b600081519050919050565b600081519050919050565b600082825260208201905092915050565b600082825260208201905092915050565b600081905092915050565b60006127c3826128dd565b91506127ce836128dd565b9250827fffffffffffffffffffffffffffffffffffffffffffffffffffffffffffffffff0382111561280357612802612a06565b5b828201905092915050565b6000612819826128dd565b9150612824836128dd565b92508261283457612833612a35565b5b828204905092915050565b600061284a826128dd565b9150612855836128dd565b92508282101561286857612867612a06565b5b828203905092915050565b600061287e826128bd565b9050919050565b60008115159050919050565b60007fffffffff0000000000000000000000000000000000000000000000000000000082169050919050565b600073ffffffffffffffffffffffffffffffffffffffff82169050919050565b6000819050919050565b82818337600083830152505050565b60005b838110156129145780820151818401526020810190506128f9565b83811115612923576000848401525b50505050565b6000600282049050600182168061294157607f821691505b6020821081141561295557612954612a64565b5b50919050565b61296482612ac2565b810181811067ffffffffffffffff8211171561298357612982612a93565b5b80604052505050565b6000612997826128dd565b91507fffffffffffffffffffffffffffffffffffffffffffffffffffffffffffffffff8214156129ca576129c9612a06565b5b600182019050919050565b60006129e0826128dd565b91506129eb836128dd565b9250826129fb576129fa612a35565b5b828206905092915050565b7f4e487b7100000000000000000000000000000000000000000000000000000000600052601160045260246000fd5b7f4e487b7100000000000000000000000000000000000000000000000000000000600052601260045260246000fd5b7f4e487b7100000000000000000000000000000000000000000000000000000000600052602260045260246000fd5b7f4e487b7100000000000000000000000000000000000000000000000000000000600052604160045260246000fd5b6000601f19601f8301169050919050565b7f4552433732313a207472616e7366657220746f206e6f6e20455243373231526560008201527f63656976657220696d706c656d656e7465720000000000000000000000000000602082015250565b7f4552433732313a207472616e736665722066726f6d20696e636f72726563742060008201527f6f776e6572000000000000000000000000000000000000000000000000000000602082015250565b7f4552433732313a20746f6b656e20616c7265616479206d696e74656400000000600082015250565b7f4552433732313a207472616e7366657220746f20746865207a65726f2061646460008201527f7265737300000000000000000000000000000000000000000000000000000000602082015250565b7f4552433732313a20617070726f766520746f2063616c6c657200000000000000600082015250565b7f4552433732313a206f70657261746f7220717565727920666f72206e6f6e657860008201527f697374656e7420746f6b656e0000000000000000000000000000000000000000602082015250565b7f4552433732313a20617070726f76652063616c6c6572206973206e6f74206f7760008201527f6e6572206e6f7220617070726f76656420666f7220616c6c0000000000000000602082015250565b7f4552433732313a2062616c616e636520717565727920666f7220746865207a6560008201527f726f206164647265737300000000000000000000000000000000000000000000602082015250565b7f4552433732313a206f776e657220717565727920666f72206e6f6e657869737460008201527f656e7420746f6b656e0000000000000000000000000000000000000000000000602082015250565b7f4552433732313a206d696e7420746f20746865207a65726f2061646472657373600082015250565b7f4552433732313a20617070726f76656420717565727920666f72206e6f6e657860008201527f697374656e7420746f6b656e0000000000000000000000000000000000000000602082015250565b7f4f776e61626c653a2063616c6c6572206973206e6f7420746865206f776e6572600082015250565b7f4552433732314d657461646174613a2055524920717565727920666f72206e6f60008201527f6e6578697374656e7420746f6b656e0000000000000000000000000000000000602082015250565b7f4552433732313a20617070726f76616c20746f2063757272656e74206f776e6560008201527f7200000000000000000000000000000000000000000000000000000000000000602082015250565b7f4552433732313a207472616e736665722063616c6c6572206973206e6f74206f60008201527f776e6572206e6f7220617070726f766564000000000000000000000000000000602082015250565b7f43616c6c6572206973206e6f7420696e206c697374206f662077686974654c6960008201527f7374656441646472657373657300000000000000000000000000000000000000602082015250565b612f3481612873565b8114612f3f57600080fd5b50565b612f4b81612885565b8114612f5657600080fd5b50565b612f6281612891565b8114612f6d57600080fd5b50565b612f79816128dd565b8114612f8457600080fd5b5056fea26469706673582212202a325a507cf6b68e64a39afc96af388569793940c6ad2896e102e01f7c4f2ad064736f6c63430008040033a2646970667358221220b217c684645f52d97b4bbb8fc75057dc5eba2c3236c35def12821a90544a084d64736f6c63430008040033",
  "linkReferences": {},
  "deployedLinkReferences": {}
}